:020000040000FA
:0600000032EF28F01200AF
:020006001200E6
:060008007CEF25F0120060
:02000E001200DE
:03001000000000ED
:0400130000000000E9
:060018000AEF25F01200C2
:02001E000800D8
:1000200086510000460F0000280000006B510000C0
:10003000E10000001B000000130000007C0F000026
:10004000040000000A510000800000006100000070
:10005000F75000006101000013000000E9500000AB
:100060006E0F00000E000000C950000041010000AA
:1000700020000000100000007E01000003000000CE
:10008000D9CFE6FFE1CFD9FF020EE126DE6ADD6AB5
:1000900071D8F4EC0BF0EBEC0DF0F3D8E80EE66E53
:1000A000030EE66E23D8E552E5527F0EE66E480E4B
:1000B000E66E060EE66EE66AAEEC0DF0E552E5522F
:1000C000E552E552D00EE66E070EE66E0FD8E55209
:1000D000E55201014C51FDE04C6BEBEC0DF0ECEC0A
:1000E0001EF09CEC16F01AEC0EF0F3D7D9CFE6FF19
:1000F000E1CFD9FF040EE126DE6ADD6ADECF14F01F
:10010000DDCF15F0FD0EDBCF16F0FE0EDBCF17F0C6
:1001100015501718E8AE02D0173404D01650145CEE
:10012000175015581DE2020EDB6A030EDB6A020E41
:10013000DBCF14F0030EDBCF15F0D890155004E69A
:10014000EE0E145C000E155806E2020EDB2A030EBA
:10015000EEE3DB2AECD7DF2A010ED0E3DB2ACED791
:10016000040EE15C02E2E16AE552E16EE552E7CF9E
:10017000D9FF1200936A956A4BEC0AF002EC25F065
:10018000E80EE66E030EE66EB1DFE552E552570E5D
:10019000E66E120EE66EA3EC1BF0E552E552AE0ED3
:1001A000E66E240EE66E45EC1CF0E552E552660E56
:1001B000E66EB70EE66E06EC1DF0E552E552020E55
:1001C000E66EE66AE1EC1DF0E552E5520A0EE66ED7
:1001D000E66AF3EC1DF0E552E5520A0EE66EE66AB9
:1001E00012EC1EF0E552E55235EC1EF031EC23F036
:1001F0009BEF20F00101370E616F3B0E626F170E0F
:10020000636F070E646F1F0E656F0C0E666F0D0E29
:10021000676F61C1E6FFE66AE6EC23F0E552E5525E
:1002200062C1E6FF010EE66EE6EC23F0E552E55210
:1002300063C1E6FF020EE66EE6EC23F0E552E552FE
:1002400064C1E6FF030EE66EE6EC23F0E552E552EC
:1002500065C1E6FF040EE66EE6EC23F0E552E552DA
:1002600066C1E6FF050EE66EE6EC23F0E552E552C8
:1002700067C1E6FF060EE66EE6EC23F0E552E552B6
:100280001200200EE66EF7EC23F0E552220825E07E
:10029000B1DFE66A100EE66EE6EC23F0E552E552B9
:1002A000E66A110EE66EE6EC23F0E552E552E66AE8
:1002B000120EE66EE6EC23F0E552E552E66A130E06
:1002C000E66EE6EC23F0E552E552220EE66E200ED5
:1002D000E66EE6EC23F0E552E5521200100EE66EF3
:1002E000F7EC23F0E55201016B6F110EE66EF7ECAF
:1002F00023F0E55201016C6F120EE66EF7EC23F06D
:10030000E55201016D6F130EE66EF7EC23F0E55236
:100310000101716F1200E66AF7EC23F0E55201016A
:10032000616F010EE66EF7EC23F0E5520101626F9A
:10033000020EE66EF7EC23F0E5520101636F030E47
:10034000E66EF7EC23F0E5520101646F040EE66EF1
:10035000F7EC23F0E5520101656F050EE66EF7EC50
:1003600023F0E5520101666F060EE66EF7EC23F00E
:10037000E5520101676F146E156A166A176AE66E18
:1003800015C0E6FF16C0E6FF17C0E6FFE66AE66A9C
:1003900039EC0FF0186E060EE15E185066C114F0CD
:1003A000156A166A176A66C1E6FF15C0E6FF16C031
:1003B000E6FF17C0E6FF030EE66EE66A39EC0FF0C3
:1003C000186E060EE15E185065C114F0156A166AC3
:1003D000176A65C1E6FF15C0E6FF16C0E6FF17C045
:1003E000E6FF060EE66EE66A39EC0FF0186E060EB2
:1003F000E15E185064C114F0156A166A176A64C188
:10040000E6FF15C0E6FF16C0E6FF17C0E6FF090EBF
:10041000E66EE66A39EC0FF0186E060EE15E1850D3
:1004200063C114F0156A166A176A63C1E6FF15C046
:10043000E6FF16C0E6FF17C0E6FFE66A010EE66EAD
:1004400039EC0FF0186E060EE15E185062C114F020
:10045000156A166A176A62C1E6FF15C0E6FF16C084
:10046000E6FF17C0E6FF030EE66E010EE66E39ECFE
:100470000FF0186E060EE15E185061C114F0156A97
:10048000166A176A61C1E6FF15C0E6FF16C0E6FFEF
:1004900017C0E6FF060EE66E010EE66E39EC0FF0B1
:1004A000186E060EE15E18501200E66AF7EC23F0B3
:1004B000E5520101616F010EE66EF7EC23F0E552A3
:1004C0000101626F020EE66EF7EC23F0E5520101C6
:1004D000636F030EE66EF7EC23F0E5520101646FE3
:1004E000040EE66EF7EC23F0E5520101656F050E90
:1004F000E66EF7EC23F0E5520101666F060EE66E3C
:10050000F7EC23F0E5520101676F6451070A24E01C
:10051000010A1EE0030A18E0010A12E0070A0CE0D3
:10052000010A06E0030A24E17B0EE66E480E17D0AE
:10053000770EE66E480E13D0730EE66E480E0FD09F
:100540006F0EE66E480E0BD06B0EE66E480E07D0AF
:10055000670EE66E480E03D0630EE66E480EE66E3A
:10056000E66AE66A60EC10F0E552E552E552E552C3
:100570000A0E0101635D1CE2610EE66E480EE66E36
:10058000040EE66EE66A60EC10F0E552E552E552C4
:10059000E55263C114F0156A166A176A63C1E6FF73
:1005A00015C0E6FF16C0E6FF17C0E6FF050E0ED029
:1005B00063C114F0156A166A176A63C1E6FF15C0B5
:1005C000E6FF16C0E6FF17C0E6FF040EE66EE66A19
:1005D00039EC0FF0186E060EE15E18505F0EE66EF5
:1005E000480EE66E060EE66EE66A60EC10F0E55226
:1005F000E552E552E5520A0E0101625D1CE2610E10
:10060000E66E480EE66E070EE66EE66A60EC10F0E7
:10061000E552E552E552E55262C114F0156A166AD8
:10062000176A62C1E6FF15C0E6FF16C0E6FF17C0F5
:10063000E6FF080E0ED062C114F0156A166A176A3A
:1006400062C1E6FF15C0E6FF16C0E6FF17C0E6FF71
:10065000070EE66EE66A39EC0FF0186E060EE15EE4
:1006600018505F0EE66E480EE66E090EE66EE66AFC
:1006700060EC10F0E552E552E552E5520A0E010138
:10068000615D1CE2610EE66E480EE66E0A0EE66ED5
:10069000E66A60EC10F0E552E552E552E55261C1C0
:1006A00014F0156A166A176A61C1E6FF15C0E6FF05
:1006B00016C0E6FF17C0E6FF0B0E0ED061C114F0A6
:1006C000156A166A176A61C1E6FF15C0E6FF16C013
:1006D000E6FF17C0E6FF0A0EE66EE66A39EC0FF099
:1006E000186E060EE15E185001016D51010A06E018
:1006F000010A11E15B0EE66E480E03D0570EE66E5E
:10070000480EE66E0D0EE66EE66A60EC10F0E552FD
:10071000E552E552E552010166510C0A42E0070A32
:100720003CE0010A36E0030A30E0010A2AE00F0A41
:1007300024E0010A1EE0030A18E0010A12E0070A99
:100740000CE0010A06E0030A3AE1530EE66E480E99
:100750002BD04F0EE66E480E27D04B0EE66E480E9D
:1007600023D0470EE66E480E1FD0430EE66E480EAD
:100770001BD03F0EE66E480E17D03B0EE66E480EBD
:1007800013D0370EE66E480E0FD0330EE66E480ECD
:100790000BD02F0EE66E480E07D02B0EE66E480EDD
:1007A00003D0270EE66E480EE66E020EE66E010ED0
:1007B000E66E60EC10F0E552E552E552E552250E8A
:1007C000E66E480EE66E050EE66E010EE66E60EC15
:1007D00010F0E552E552E552E5520A0E0101655D61
:1007E0001DE2250EE66E480EE66E060EE66E010E62
:1007F000E66E60EC10F0E552E552E552E55265C157
:1008000014F0156A166A176A65C1E6FF15C0E6FF9F
:1008100016C0E6FF17C0E6FF070E0ED065C114F044
:10082000156A166A176A65C1E6FF15C0E6FF16C0AD
:10083000E6FF17C0E6FF060EE66E010EE66E39EC27
:100840000FF0186E060EE15E1850250EE66E480E8B
:10085000E66E080EE66E010EE66E60EC10F0E552F4
:10086000E552E552E552140EE66EE66AE66AE66A7D
:10087000090EE66E010EE66E39EC0FF0146E060EF0
:10088000E15E145067C114F0156A166A176A67C1F1
:10089000E6FF15C0E6FF16C0E6FF17C0E6FF0B0E29
:1008A000E66E010EE66E39EC0FF0186E060EE15E94
:1008B00018501200140EE66E480EE66EE66AE66AFE
:1008C00060EC10F0E552E552E552E552110EE66E8D
:1008D000480EE66EE66A010EE66E60EC10F0E55238
:1008E000E552E552E5520A0E01016B5D1DE2610E13
:1008F000E66E480EE66E020EE66E010EE66E60ECE7
:1009000010F0E552E552E552E5526BC114F0156A5C
:10091000166A176A6BC1E6FF15C0E6FF16C0E6FF50
:1009200017C0E6FF030E0ED06BC114F0156A166AED
:10093000176A6BC1E6FF15C0E6FF16C0E6FF17C0D9
:10094000E6FF020EE66E010EE66E39EC0FF0186E51
:10095000060EE15E18505F0EE66E480EE66E040E5F
:10096000E66E010EE66E60EC10F0E552E552E552DF
:10097000E5520A0E01016C5D1DE2610EE66E480E45
:10098000E66E050EE66E010EE66E60EC10F0E552C6
:10099000E552E552E5526CC114F0156A166A176A01
:1009A0006CC1E6FF15C0E6FF16C0E6FF17C0E6FF04
:1009B000060E0ED06CC114F0156A166A176A6CC167
:1009C000E6FF15C0E6FF16C0E6FF17C0E6FF050EFE
:1009D000E66E010EE66E39EC0FF0186E060EE15E63
:1009E00018500D0EE66E480EE66E070EE66E010E0E
:1009F000E66E60EC10F0E552E552E552E552010179
:100A00006D51010A06E0010A12E15B0EE66E480E26
:100A100003D0570EE66E480EE66E0A0EE66E010E25
:100A2000E66E60EC10F0E552E552E552E552080E34
:100A3000E66E480EE66E0D0EE66E010EE66E60EC9A
:100A400010F0E552E552E552E552120001016951FC
:100A50000B0A01E1A9D1010A01E158D1030A01E120
:100A600006D1010A01E1B6D00F0A62E0010A0EE0E8
:100A7000060A01E0EFD17FDB000901E1EED10101BF
:100A8000720501E0EAD1060E696F1200726B6E29E1
:100A9000146E140E156E0E6E14C009F04EEC28F094
:100AA00005C06EF1010105500F080DE2110EE66E52
:100AB000480EE66E040EE66EE66A60EC10F0E55253
:100AC000E552E552E55277DB000914E001016329A4
:100AD000146E180E156E0E6E14C009F04EEC28F050
:100AE00005C063F105C0E6FF020EE66EE6EC23F0FA
:100AF000E552E55282DB000910E001016305636FF6
:100B0000E850170802E2170E636F63C1E6FF020E9A
:100B1000E66EE6EC23F0E552E5522DDB000903E03A
:100B20000101070E696F2FDB000901E196D18BD11E
:100B3000726B6E29146E140E156E0E6E14C009F0D1
:100B40004EEC28F005C06EF1010105500F080DE2D2
:100B5000110EE66E480EE66E070EE66EE66A60EC73
:100B600010F0E552E552E552E55225DB000914E0AC
:100B700001016229146E3C0E156E0E6E14C009F050
:100B80004EEC28F005C062F105C0E6FF010EE66EEE
:100B9000E6EC23F0E552E55230DB000910E00101FC
:100BA0006205626FE8503B0802E23B0E626F62C171
:100BB000E6FF010EE66EE6EC23F0E552E552DBDAE5
:100BC000000903E00101080E696FDDDA000901E1A7
:100BD00044D139D1726B6E29146E140E156E0E6EDF
:100BE00014C009F04EEC28F005C06EF1010105506B
:100BF0000F080CE20D0EE66E480EE66EE66AE66A37
:100C000060EC10F0E552E552E552E552D4DA000905
:100C100010E001016429646FE850070802E2010E48
:100C2000646F64C1E6FF030EE66EE6EC23F0E55266
:100C3000E552E3DA000910E001016405646FE85051
:100C4000070802E2070E646F64C1E6FF030EE66E5A
:100C5000E6EC23F0E552E5528EDA000903E00101EB
:100C6000090E696F90DA000901E1F7D0ECD0726BE0
:100C70006E29146E140E156E0E6E14C009F04EEC33
:100C800028F005C06EF1010105500F080EE2110EAB
:100C9000E66E480EE66E060EE66E010EE66E60EC3F
:100CA00010F0E552E552E552E55285DA000910E010
:100CB00001016529656FE8501F0802E2010E656FAA
:100CC00065C1E6FF040EE66EE6EC23F0E552E55260
:100CD00094DA000910E001016505656F010E655D9C
:100CE00002E21F0E656F65C1E6FF040EE66EE6ECDC
:100CF00023F0E552E5523FDA000903E001010A0E54
:100D0000696F41DA000901E1A8D09DD0726B6E29AC
:100D1000146E140E156E0E6E14C009F04EEC28F011
:100D200005C06EF1010105500F080EE20D0EE66ED2
:100D3000480EE66E020EE66E010EE66E60EC10F0F6
:100D4000E552E552E552E55236DA000910E00101BC
:100D50006629666FE8500C0802E2010E666F66C1F4
:100D6000E6FF050EE66EE6EC23F0E552E55245DAC5
:100D7000000910E001016605666F010E665D02E282
:100D80000C0E666F66C1E6FF050EE66EE6EC23F01C
:100D9000E552E552F0D9000903E001010B0E696F3D
:100DA000F2D900095AE04FD0726B6E29146E140EFE
:100DB000156E0E6E14C009F04EEC28F005C06EF1F1
:100DC000010105500F080EE2080EE66E480EE66EB1
:100DD000090EE66E010EE66E60EC10F0E552E5528B
:100DE000E552E552E8D900090FE001016729676F74
:100DF000E850630801E2676B67C1E6FF060EE66E26
:100E0000E6EC23F0E552E552F8D9000910E00101C3
:100E10006705676FE850630802E2630E666F67C19B
:100E2000E6FF060EE66EE6EC23F0E552E552A3D9A6
:100E3000000906E0EBEC0DF00101010E726F696B29
:100E4000A2D900090AE0EBEC0DF00101010E726F6E
:100E5000696B1200010E726F686B1200010168511C
:100E6000FF0A01E144D1FC0A01E1E1D0010A01E1FC
:100E700079D0030A12E0010A01E01200060EE66EC4
:100E800090EC1FF0E552000901E174D101017205F7
:100E900001E070D1010E686F1200726B0BDD010171
:100EA0006E29146E140E156E0E6E14C009F04EEC01
:100EB00028F005C06EF1010105500F080EE2110E79
:100EC000E66E480EE66E020EE66E010EE66E60EC11
:100ED00010F0E552E552E552E552040EE66E90EC54
:100EE0001FF0E552000914E001016B29146E180E81
:100EF000156E0E6E14C009F04EEC28F005C06BF1B3
:100F000005C0E6FF100EE66EE6EC23F0E552E55272
:100F1000050EE66E90EC1FF0E552000910E00101AD
:100F20006B056B6FE850170802E2170E6B6F6BC111
:100F3000E6FF100EE66EE6EC23F0E552E552060EF3
:100F4000E66E90EC1FF0E552000903E00101020E8D
:100F5000686F060EE66EAAEC1FF0E552000901E18B
:100F600009D1BED0726BA6DC01016E29146E140E7D
:100F7000156E0E6E14C009F04EEC28F005C06EF12F
:100F8000010105500F080EE2110EE66E480EE66EE6
:100F9000050EE66E010EE66E60EC10F0E552E552CD
:100FA000E552E552040EE66E90EC1FF0E5520009A2
:100FB00014E001016C29146E3C0E156E0E6E14C007
:100FC00009F04EEC28F005C06CF105C0E6FF110EEB
:100FD000E66EE6EC23F0E552E552050EE66E90EC87
:100FE0001FF0E552000910E001016C056C6FE8503C
:100FF0003B0802E23B0E6C6F6CC1E6FF110EE66E21
:10100000E6EC23F0E552E552060EE66E90EC1FF09A
:10101000E552000903E00101030E686F060EE66E5B
:10102000AAEC1FF0E552000901E1A4D059D0726B7F
:1010300041DC01016E29146E140E156E0E6E14C083
:1010400009F04EEC28F005C06EF1010105500F08C3
:101050000EE20D0EE66E480EE66E0A0EE66E010E0C
:10106000E66E60EC10F0E552E552E552E552040EF2
:10107000E66E90EC1FF0E55200090BE001016D29CE
:10108000010B6D6FE66E120EE66EE6EC23F0E55294
:10109000E552050EE66E90EC1FF0E552000910E0F7
:1010A00001016D056D6FE850010802E2010E6D6FE0
:1010B0006DC1E6FF120EE66EE6EC23F0E552E55256
:1010C000060EE66E90EC1FF0E552000902E0010109
:1010D0006869060EE66EAAEC1FF0E55200094AE0C8
:1010E000EBEC0DF00101010E726F686B1200726B78
:1010F0005AEC04F001016E29146E140E156E0E6E7A
:1011000014C009F04EEC28F005C06EF10101055045
:101110000F080DE2080EE66E480EE66E0A0EE66E49
:10112000E66A60EC10F0E552E552E552E552040E35
:10113000E66E90EC1FF0E552000907E1050EE66E41
:1011400090EC1FF0E552000906E0EBEC0DF0010118
:10115000686B010E726F060EE66E90EC1FF0E552A2
:10116000000908E0EBEC0DF00101686B010E726FF5
:101170000F01746F12000F01010E4E1903E14F5160
:1011800001E1010C000C0F010A0E4E1903E14F5151
:1011900001E1010C000C0F01010E561903E157513A
:1011A00001E1010C000C0F010A0E561903E1575121
:1011B00001E1010C000C0F01010E501901E1515128
:1011C0001AE00A0ED8805055000E515515E250CF46
:1011D00014F051CF15F0030E0D6E0E6A50CF08F0CB
:1011E00051CF09F0FAEC27F005C015F0010E0418F4
:1011F00003E1155001E1010C000C0F01010E58191B
:1012000001E159511AE00A0ED8805855000E59557F
:1012100015E258CF14F059CF15F0030E0D6E0E6A7B
:1012200058CF08F059CF09F0FAEC27F005C015F0B7
:10123000010E041803E1155001E1010C000C01013D
:101240006B51635D0AE16C51625D07E1615105E13B
:101250006D0503E1720501E1010C000C01016A5109
:10126000050A1AE0010A05E0040A01E01200040E72
:1012700011D0E5DF00090AE00101010E716FE66E91
:10128000130EE66EE6EC23F0E552E55201017151D2
:1012900031E0050E6A6F1200726B7329146E140E22
:1012A000156E0E6E14C009F04EEC28F005C073F1F7
:1012B0000A0E0101055C02E2EBEC0DF001016F2B5F
:1012C000000E7023900ED8806F55010E705512E2FB
:1012D000010E726F716B71C1E6FF130EE66EE6ECE4
:1012E00023F0E552E55201016F6B706BEBEC0DF0F2
:0612F00001016A6B12000F
:0A12F600D9CFE6FFE1CFD9FF040EC7
:10130000E126DE6ADD6ADECF14F0DDCF15F0166A65
:10131000176A15AE02D016681768D950FB0FE96E30
:10132000FF0EDA20EA6EEE50145CEE501558EE50C7
:101330001658EE5017581DE2020EDB6A030EDB6AE8
:10134000020EDBCF14F0030EDBCF15F0D890155052
:1013500004E6050E145C000E155806E2020EDB2AA8
:10136000030EEEE3DB2AECD7DF2A010ECCE3DB2A07
:10137000CAD7040EE15C02E2E16AE552E16EE55291
:10138000E7CFD9FF1200D9CFE6FFE1CFD9FF040E96
:10139000E126DE6ADD6ADECF14F0DDCF15F0166AD5
:1013A000176A15AE02D016681768D950FB0FE96EA0
:1013B000FF0EDA20EA6EEE50145CEE501558EE5037
:1013C0001658EE5017581DE2020EDB6A030EDB6A58
:1013D000020EDBCF14F0030EDBCF15F0D8901550C2
:1013E00004E6EE0E145C000E155806E2020EDB2A2F
:1013F000030EEEE3DB2AECD7DF2A010ECCE3DB2A77
:10140000CAD7040EE15C02E2E16AE552E16EE55200
:10141000E7CFD9FF1200D9CFE6FFE1CFD9FF0F0EFA
:101420008116FE0EDB50F00B81128186010EE66EF6
:10143000E66AE66AE66AA7DFE552E552E552E5525A
:101440008196010EE66EE66AE66AE66A9CDFE55280
:10145000E552E552E5520F0E8116FE0EDB38F00B19
:1014600081128186010EE66EE66AE66AE66A8BDF25
:10147000E552E552E552E5528196010EE66EE66AC6
:10148000E66AE66A80DFE552E552E552E552E5524A
:10149000E7CFD9FF1200D9CFE6FFE1CFD9FFE6525F
:1014A000190EE66EE66AE66AE66A6DDFE552E55217
:1014B000E552E5520F0E8116F80E81160F0E8116B9
:1014C000300E81128186010EE66EE66AE66AE66AF1
:1014D0005ADFE552E552E552E5528196010EE66E7D
:1014E000E66AE66AE66A4FDFE552E552E552E55202
:1014F0000F0E8116300E81128186010EE66EE66AAD
:10150000E66AE66A40DFE552E552E552E552819629
:10151000010EE66EE66AE66AE66A35DFE552E552F6
:10152000E552E5520F0E8116300E81128186010EB2
:10153000E66EE66AE66AE66A26DFE552E552E552BD
:10154000E5528196010EE66EE66AE66AE66A1BDF00
:10155000E552E552E552E5520F0E8116818A8186E9
:10156000010EE66EE66AE66AE66A0DDFE552E552CE
:10157000E552E5528196010EE66EE66AE66AE66A93
:1015800002DFE552E552E552E552280EE66E43DFF2
:10159000E5520C0EE66E3FDFE552E552E552E7CF2D
:1015A000D9FF1200D9CFE6FFE1CFD9FF020EE12625
:1015B000DF6A010EDB6A81940F0EE66EE66AE66A68
:1015C000E66A99DEE552E552E552E5520F0E8112C8
:1015D0008186E66EE66AE66AE66A8DDEE552E552E7
:1015E000E552E5520F0E8114E76E010EE7CFDBFFE7
:1015F00081960F0EE66EE66AE66AE66A7CDEE552E2
:10160000E552E552E5520F0E81128186E66EE66ADA
:10161000E66AE66A70DEE552E552E552E5520F0EE3
:101620008114DF6E010EDB50DF128196010EE66E33
:10163000E66AE66AE66A5FDEE552E552E552E552A1
:10164000DF50146E020EE15C02E2E16AE552E16EE7
:101650001450E552E7CFD9FF1200D9CFE6FFE1CF12
:10166000D9FFE652DF6A9EDFDF6EDFBEFCD7DF50B8
:10167000E552E552E7CFD9FF1200D9CFE6FFE1CF1F
:10168000D9FF0F0E8116FE0EDB5081128186050EEA
:10169000E66EE66AE66AE66A2EDEE552E552E55255
:1016A000E5528196050EE66EE66AE66AE66A23DE94
:1016B000E552E552E552E552E552E7CFD9FF120077
:1016C000D9CFE6FFE1CFD9FF8194050EE66EE66A39
:1016D000E66AE66A10DEE552E552E552E552FE0E94
:1016E000DBCFE6FFCADFE552FE0EDB38F00BE66E1D
:1016F000C4DFE552E552E7CFD9FF1200D9CFE6FFAC
:10170000E1CFD9FF8184050EE66EE66AE66AE66AF5
:10171000F2DDE552E552E552E552FE0EDBCFE6FF83
:10172000ACDFE552FE0EDB38F00BE66EA6DFE552CD
:101730008194E552E7CFD9FF1200D9CFE6FFE1CF80
:10174000D9FFFE0EDBCFE6FFD9DFE552E552E7CF4A
:10175000D9FF1200D9CFE6FFE1CFD9FFFE0EDBCFD4
:10176000E6FFCCDFE552E552E7CFD9FF1200D9CF33
:10177000E6FFE1CFD9FFFD0EDBCFF6FFFE0EDBCF9C
:10178000F7FF0800F5500FE0FD0EDBCFF6FFDB2A78
:10179000FE0EDBCFF7FF01E3DB2A0800F550E66E13
:1017A000D9DFE552E8D7E552E7CFD9FF1200D9CF0C
:1017B000E6FFE1CFD9FFE652FD0EDB500F0B146EB2
:1017C000FE0EDB50010B400DF3501424DF6E7F0E34
:1017D000DF14800FDF6EDFCFE6FF72DFE552E552E8
:1017E000E552E7CFD9FF1200010EE66E69DFE55240
:1017F000E66AE66ADCDFE552E5521200D9CFE6FF81
:10180000E1CFD9FF050EE126010EF36EDB6E020E6D
:10181000DB6A030EDB6A040EDB6ADF6ADFCF14F0DB
:10182000156A14BE1568FB0EDBCF16F0FC0EDBCF7D
:1018300017F015501718E8AE02D0173404D0165020
:10184000145C175015582DE2FD0EDBCF14F0FE0E80
:10185000DBCF15F0166A176A15AE02D01668176846
:10186000D950010FE96EDACFEAFF14C00BF015C0B2
:101870000CF016C00DF017C00EF0EECF06F0EECF54
:1018800007F0EECF08F0EFCF09F04EEC27F005C0DF
:10189000EDFF04C0EDFF03C0EDFF02C0EFFFDF2A44
:1018A000BDD7010EDBCF14F0020EDBCF15F0030E17
:1018B000DBCF16F0040EDBCF17F014C006F015C016
:1018C00007F016C008F017C009F0050EE15C02E24F
:1018D000E16AE552E16EE552E7CFD9FF1200D9CFB8
:1018E000E6FFE1CFD9FF020EE126DF6AFB0EDBCF78
:1018F00014F0FC0EDBCF15F0FD0EDBCF16F0FE0E64
:10190000DBCF17F0145015101610171005E1300E2C
:10191000E66E20DFE552F4D0D950FB0FE96EFF0EE2
:10192000DA20EA6ED890030EEB50000A08E6000EAB
:10193000EE5C000EEE58000EEE58000EEE5815E26A
:101940002D0EE66E07DFE552D950FB0FE96EFF0E54
:10195000DA20EA6E000EEE6CEF1EEE22EF1EEE2293
:10196000EF1EEF22ED52ED52ED52DE52070EDD6E0C
:10197000010EDBCF14F0000EE76E1418E8AE02D0B3
:10198000143403D0E750D880145401E3B9D0010EC9
:10199000DB04186E196A18BE196818C0E6FF19C072
:1019A000E6FF0A0EE66EE66A29DFE552E552E552E9
:1019B000E55206C014F007C015F008C016F009C0C3
:1019C00017F006C00BF007C00CF008C00DF009C0FE
:1019D0000EF0FB0EDBCF06F0FC0EDBCF07F0FD0EAA
:1019E000DBCF08F0FE0EDBCF09F0B9EC27F0065094
:1019F00007100810091041E0010EDF6EDB041C6EB9
:101A00001D6A1CBE1D681CC0E6FF1DC0E6FF0A0E55
:101A1000E66EE66AF3DEE552E552E552E55206C0AF
:101A200018F007C019F008C01AF009C01BF006C072
:101A30000BF007C00CF008C00DF009C00EF0FB0E53
:101A4000DBCF06F0FC0EDBCF07F0FD0EDBCF08F09E
:101A5000FE0EDBCF09F0B9EC27F006C014F007C08A
:101A600015F008C016F009C017F0300E1426000E4D
:101A7000152216221722145003D0DF5004E0300E36
:101A8000E66E68DEE552010EDB04186E196A18BEB8
:101A9000196818C0E6FF19C0E6FF0A0EE66EE66A8E
:101AA000ADDEE552E552E552E55206C014F007C03E
:101AB00015F008C016F009C017F0D950FB0FE96EF9
:101AC000FF0EDA20EA6E06C00BF007C00CF008C06B
:101AD0000DF009C00EF0EECF06F0EECF07F0EECF1E
:101AE00008F0EFCF09F0B9EC27F005C0EDFF04C016
:101AF000EDFF03C0EDFF02C0EFFF010EDB0638D79C
:101B0000020EE15C02E2E16AE552E16EE552E7CFE6
:101B1000D9FF1200D9CFE6FFE1CFD9FFFD0EDBCF11
:101B2000E6FFFE0EDBCFE6FF42DEE552E552D9507E
:101B3000F90FE96EFF0EDA20EA6EEECFE6FFEECF88
:101B4000E6FFEECFE6FFEFCFE6FFC9DEE552E55256
:101B5000E552E552E552E7CFD9FF1200D9CFE6FFB3
:101B6000E1CFD9FFFD0EDBCFE6FFFE0EDBCFE6FFB8
:101B70001EDEE552E552FB0EDBCFE6FFFC0EDBCFAF
:101B8000E6FFF5DDE552E552E552E7CFD9FF120059
:101B9000D9CFE6FFE1CFD9FFFCC014F0FDC015F0AE
:101BA000040ED89014361536E806FBE1C10E142653
:101BB000000E152214500001FE25E96E1550FF217C
:101BC000EA6EFE0EDBCFEFFFFE2B000EFF23E55289
:101BD000E7CFD9FF1200D9CFE6FFE1CFD9FFE65218
:101BE000DF6ADFCF14F0100EE76E1418E8AE02D0F3
:101BF000E73402D0E750145C18E2DFCFE9FFEA6A6D
:101C0000E9BEEA68C10EE926000EEA22200EEF6E58
:101C1000DFCFE9FFEA6AE9BEEA68D10EE926000EE5
:101C2000EA22200EEF6EDF2ADCD7E552E552E7CF3D
:101C3000D9FF1200D9CFE6FFE1CFD9FFE65200016C
:101C4000C051030A52E0010A36E0030A1AE0010A11
:101C500067E1E66AE66AABDDE552E552DF6A080E47
:101C6000DF5C0CE2DF50EA6AC10FE96E000EEA2287
:101C7000EF50E66E6FDDE552DF2AF1D70001010E6D
:101C800032D0080EE66EE66A92DDE552E552DF6A72
:101C9000080EDF5C0DE2080EDF24EA6AC10FE96E70
:101CA000000EEA22EF50E66E55DDE552DF2AF0D74E
:101CB0000001020E18D0E66A010EE66E78DDE552EC
:101CC000E552DF6A080EDF5C0CE2DF50EA6AD10FF2
:101CD000E96E000EEA22EF50E66E3CDDE552DF2AA7
:101CE000F1D70001030EC06F1CD0080EE66E010E86
:101CF000E66E5DDDE552E552DF6A080EDF5C0DE25F
:101D0000080EDF24EA6AD10FE96E000EEA22EF50D6
:101D1000E66E20DDE552DF2AF0D70001C06B01D06E
:101D2000C06BE552E552E7CFD9FF1200D9CFE6FFED
:101D3000E1CFD9FFE6520001C051010A1BE0010AC0
:101D400032E1E66AE66A33DDE552E552DF6A100EFB
:101D5000DF5C0CE2DF50EA6AC10FE96E000EEA2296
:101D6000EF50E66EF7DCE552DF2AF1D70001010EF5
:101D7000C06F1AD0E66A010EE66E19DDE552E55233
:101D8000DF6A100EDF5C0CE2DF50EA6AD10FE96E09
:101D9000000EEA22EF50E66EDDDCE552DF2AF1D7D5
:101DA0000001C06B01D0C06BE552E552E7CFD9FF0F
:101DB0001200D9CFE6FFE1CFD9FFE652E66AE66A24
:101DC000F6DCE552E552DF6A100EDF5C0CE2DF5014
:101DD000EA6AC10FE96E000EEA22EF50E66EBADC45
:101DE000E552DF2AF1D7E66A010EE66EE0DCE55245
:101DF000E552DF6A100EDF5C0CE2DF50EA6AD10FB9
:101E0000E96E000EEA22EF50E66EA4DCE552DF2A0E
:101E1000F1D7E552E552E7CFD9FF1200D9CFE6FF5F
:101E2000E1CFD9FFFE0EDB50010B0001FC6FFD6B13
:101E3000FD0EDB500F0BFE6FFF6BFCC014F0FDC0FE
:101E400015F0040ED89014361536E806FBE1C10EE5
:101E50001426000E152214500001FE25E96E1550BF
:101E6000FF21EA6EFC0EDBCFEFFFE552E7CFD9FF93
:101E70001200D9CFE6FFE1CFD9FF020EE126DF6ADB
:101E8000FE0EDB50010B0001FC6FFD6BFD0EDB5005
:101E90000F0BFE6FFF6BF90EDBCF14F0FA0EDBCFEA
:101EA00015F0FB0EDBCF16F0FC0EDBCF17F0145055
:101EB00015101610171005E1300EE66E69DEE552BA
:101EC000F5D0D950F90FE96EFF0EDA20EA6ED890FE
:101ED000030EEB50000A08E6000EEE5C000EEE5812
:101EE000000EEE58000EEE5815E22D0EE66E50DE96
:101EF000E552D950F90FE96EFF0EDA20EA6E000EB6
:101F0000EE6CEF1EEE22EF1EEE22EF1EEF22ED52E0
:101F1000ED52ED52DE52070EDD6E010EDBCF14F0F6
:101F2000000EE76E1418E8AE02D0143403D0E75068
:101F3000D880145401E3BAD0010EDB04186E196A7C
:101F400018BE196818C0E6FF19C0E6FF0A0EE66E53
:101F5000E66A54DCE552E552E552E55206C014F05B
:101F600007C015F008C016F009C017F006C00BF046
:101F700007C00CF008C00DF009C00EF0F90EDBCF61
:101F800006F0FA0EDBCF07F0FB0EDBCF08F0FC0EFD
:101F9000DBCF09F0B9EC27F0065007100810091044
:101FA00041E0010EDF6EDB041C6E1D6A1CBE1D6865
:101FB0001CC0E6FF1DC0E6FF0A0EE66EE66A1EDCE8
:101FC000E552E552E552E55206C018F007C019F097
:101FD00008C01AF009C01BF006C00BF007C00CF0D7
:101FE00008C00DF009C00EF0F90EDBCF06F0FA0EB6
:101FF000DBCF07F0FB0EDBCF08F0FC0EDBCF09F0E8
:10200000B9EC27F006C014F007C015F008C016F0B0
:1020100009C017F0300E1426000E152216221722C2
:10202000145003D0DF5004E0300EE66EB1DDE5520F
:10203000010EDB04186E196A18BE196818C0E6FF95
:1020400019C0E6FF0A0EE66EE66AFEEC0BF0E552FA
:10205000E552E552E55206C014F007C015F008C07D
:1020600016F009C017F0D950F90FE96EFF0EDA200B
:10207000EA6E06C00BF007C00CF008C00DF009C0F6
:102080000EF0EECF06F0EECF07F0EECF08F0EFCF78
:1020900009F0B9EC27F005C0EDFF04C0EDFF03C067
:1020A000EDFF02C0EFFF010EDB0637D7020EE15C49
:1020B00002E2E16AE552E16EE552E7CFD9FF120094
:1020C000D9CFE6FFE1CFD9FFFE0EDB50010B0001B7
:1020D000FC6FFD6BFD0EDB500F0BFE6FFF6BFB0EFD
:1020E000DBCFF6FFFC0EDBCFF7FF0800F5500FE06B
:1020F000FB0EDBCFF6FFDB2AFC0EDBCFF7FF01E3A5
:10210000DB2A0800F550E66E43DDE552E8D7E552DC
:06211000E7CFD9FF120029
:0A211600C7EC15F0FB0EDBCFF3FF62
:10212000DB06F35000090AE015EC16F0FA0E80EC1D
:1021300016F0F3E1151CF1E1010E01D0000EF6EFEF
:1021400015F0C7EC15F03B0EE12402E3E168E6521E
:10215000E16E010EDB6A020EDB6AF90EDBCFF6FFE1
:10216000FA0EDBCFF7FFFB0EDBCFF8FF0800F550D0
:10217000DF6EDF5002E11AEF15F0250EDF5C02E0A2
:102180000DEF15F0030EDB6A040EDB6A050EDB6A49
:10219000060EDB6A070EDB6A2FEC15F02D0EDF5CF6
:1021A0000CE02B0EDF5C09E0200EDF5C06E0230E66
:1021B000DF5C03E0300EDF5C1AE1DF50300A14E030
:1021C000130A0FE0030A0AE00B0A05E0060AE4E13D
:1021D000030EDB80E1D7030EDB82DED7030EDB8448
:1021E000DBD7030EDB86D8D7030EDB88D5D72A0EC4
:1021F000DF5C1BE12BEC15F079EC15F010E0030E21
:10220000DB8008680968130EDBCF0DF0140EDBCFFE
:102210000EF03AEC26F0040E06C0DBFF03D0130EDE
:1022200062EC15F02FEC15F00BD0090EDB6AD0EC48
:1022300015F003E044EC16F0FAD7090E62EC15F045
:10224000030EDBB0DB982E0EDF5C1BE12FEC15F0EC
:102250002A0EDF5C0BE12BEC15F079EC15F003E1B5
:10226000130EB4EC15F02FEC15F00BD0090EDB6A51
:10227000D0EC15F003E044EC16F0FAD7090EB4ECFC
:1022800015F0680EDF5C07E12FEC15F0680EDF5CDF
:102290001DE1030E18D0740EDF5C17E07A0EDF5CD0
:1022A00014E0480EDF5C06E0540EDF5C03E05A0EDB
:1022B000DF5C02E1020E07D06C0EDF5C03E06A0E09
:1022C000DF5C04E1010E07EC16F0C9DBDF506E0A9B
:1022D00001E17FD31E0A01E192D1200A01E18FD1F1
:1022E0003F0A01E149D11A0A01E146D10D0A01E193
:1022F00043D1200A01E140D13A0A01E13DD1200A4F
:1023000001E13AD1260A01E135D10D0A01E132D1CC
:102310001A0A01E1D9D0200A4AE0300A1FE0460A31
:102320000EE0250A01E083D3D950F90FE96EFF0EC4
:10233000DA20EA6E010EEE5E000EEE5AEE5A15EC51
:1023400016F0250EE66E95DB03E1151C01E169D35D
:1023500011EC16F001E26BD3DB2A69D3080EDB6ABD
:10236000040EDB50010806E2040EDB04D9EC15F084
:10237000DB508BDB080EDB5009E0030EDB50010B5A
:1023800005E172DB01E04DD3080EDB6A64DBEFCFC1
:10239000DFFF89EC16F003E1151C01E142D311ECDB
:1023A00016F001E3DB2A60DB01E141D33AD3070EEB
:1023B000DB5002080FE155EC16F0030E1CEC16F092
:1023C0000E0EEECFDBFF0F0EEECFDBFF100EEECFCB
:1023D000DBFF20D0F70EDBCF17F0F80EDBCF18F0C5
:1023E000020E175E000E185AF70E17C0DBFFF80E2C
:1023F00018C0DBFF17C0E9FF18C0EAFF0CEC16F0AD
:10240000166A0E0E14C0DBFF0F0E15C0DBFF100E98
:1024100016C0DBFF0E0EDBCFE6FF0F0EDBCFE6FFB5
:10242000100EDBCFE6FF94EC27F0E552E552E552C3
:10243000130E07C0DBFF140E08C0DBFF060EDB50D7
:1024400005E0130E50EC16F001E26ADB74EC16F0B6
:1024500002E2130E37DB37EC16F006E0040E50EC08
:1024600016F002E2050E2EDB030EDBB005D0FCDA1F
:1024700001E0D7D2080EDB6A090EDB6A0E0EDBCF55
:10248000F6FF0F0EDBCFF7FF100EDBCFF8FF0800D3
:10249000F550DF6EDF5014E07AEC16F011E289ECB3
:1024A00016F003E1151C01E1BCD2BBDB01E3DB2A22
:1024B000090EDB2AD9500E0FE96E000ECBDBE7D7F1
:1024C000D3DA01E1B4D2ADD2C6DA110EEECFDBFF22
:1024D000120EEDCFDBFF110EDBCFE6FF120EDBCFCE
:1024E000E6FF86EC27F0E552E552130EF3CFDBFF53
:1024F000140EF4CFDBFF060EDB5004E0130ED0DB2E
:1025000001E20EDB74EC16F002E2130EDBDAAFDB55
:1025100005E0040EC5DB02E2050ED4DA030EDBB0E3
:1025200005D0A2DA01E07DD2080EDB6A090EDB6A73
:10253000110EDBCFE9FF120EDBCFEAFFEFCFDFFF9B
:10254000DF5014E0D7DB12E2E4DB03E1151C01E10C
:1025500068D267DB01E3DB2A090EDB2A110EDB2AD6
:10256000DBCFE9FF120EE8E3DB2AE6D77DDA01E1F3
:102570005ED257D2030EDB8E070EDB0410E195DB33
:10258000040E5ADB0A0EEECFDBFF0B0EEECFDBFFA5
:102590000C0EEECFDBFF0D0EEECFDBFF6CD0070E87
:1025A000DB5003082CE1030EDBAE0DD0B2DA020ED5
:1025B00076DAEFCF14F0156A166A176A14AE39D0BE
:1025C0001568166835D0F70EDBCF15F0F80EDBCFA7
:1025D00016F0020E155E000E165AF70E15C0DBFF40
:1025E000F80E16C0DBFF15C0E9FF16C0EAFFEFCFFB
:1025F00014F00A0E14C0DBFF0B0EDB6A38D0070E96
:10260000DB50020809E1030EDBAE04D059DB16AE45
:1026100010D00ED055DB0DD0030EDBAE12D079DA20
:10262000020E3DDAF9DA166A176A15AE02D016689C
:102630001768E2DA0C0E16C0DBFF0D0E17C0DBFFC9
:102640001AD0F70EDBCF16F0F80EDBCF17F0020E24
:10265000165E000E175AF70E16C0DBFFF80E17C0F5
:10266000DBFF16C0E9FF17C0EAFFD6DAC5DA0C0EA9
:10267000DB6A0D0EDB6A060EDB5005E1010EF36E20
:10268000050EF3CFDBFF150EDB6A160EDB6AD950A1
:10269000370F146E000EDA20156E390E14C0DBFFF2
:1026A0003A0E15C0DBFF380EDB6A080EDB6A0A0E35
:1026B000AEDADF50780A12E0200A10E0280A0CE0B7
:1026C000200A0AE03F0A06E00D0A02E0200A08E1BB
:1026D000020E05D0080E03D0080EDF26100E97DA82
:1026E000030EDBBE02D0DB92DB94DB50800B24E0D8
:1026F0008ADAD890030EEB50000A08E6000EEE5C72
:10270000000EEE58000EEE58000EEE5815E213DAE9
:102710000B680C680D680E684EEC27F00A0E02C0BC
:10272000DBFF0B0E03C0DBFF0C0E04C0DBFF0D0E46
:1027300005C0DBFF2D0E08D0030EDBA202D02B0E4E
:1027400003D0DBA408D0200EF36E170EF3CFDBFF0F
:10275000150EDB2A02D0170EDB6A050EDB5003E1F3
:10276000B7D901E189D0B80E146E500E156E000E67
:10277000166E070EDBCF17F0186A196A1A6A17C0AF
:102780000BF018C00CF019C00DF01AC00EF0D3D920
:10279000B9EC27F014500224F36E15500320F46EA8
:1027A00016500420F86EF4CFF7FFF3CFF6FF0800C1
:1027B000090EF5CFDBFF580EDF5C0FE1610EF36E03
:1027C000090E7BD90AE3200E146E090EDBCFE7FF5A
:1027D0001450E75E090EE7CFDBFF070EDBCF14F0E6
:1027E000156A166A176A0FDA14C00BF015C00CF0E0
:1027F00016C00DF017C00EF0EECF06F0EECF07F0CA
:10280000EECF08F0EFCF09F0B9EC27F009C0EDFFEB
:1028100008C0EDFF07C0EDFF06C0EFFF390EDBCFAC
:10282000E9FFDB063A0EDBCFEAFF01E2DB06090E29
:10283000DBCFEFFF150EDB2A4BD995E1030EDBA6AC
:102840001DD06F0EDF5C06E1C1D918E3150EDB2841
:102850005BDA14D0780EDF5C09E0580EDF5C06E02E
:10286000620EDF5C03E0420EDF5C08E1020EF36EF5
:10287000160EF3CFDBFF02D0150EDB6A030EDB5022
:10288000100B0EE0040EDBCF14F0050EDB50D880E9
:10289000145406E2060EDB5003E1040EDB5034DA7A
:1028A00095D90AE2050EDBCFE7FF150EDB50E75E98
:1028B000050EE7CFDBFF02D0050EDB6A040EDBCF8F
:1028C00014F0160E45D9D880145414E2160EDBCF3E
:1028D000E6FF150EDBCFE6FF040EDBCFE6FF050EAD
:1028E000DB50E552E75CE552D880E754E552D880EA
:1028F000E7545FD9030EDB50010B0BE1080EDB50F0
:1029000008E0B2D801E08DD0080EDB50BED8080E2A
:10291000DB6A170EDB5007E088D9170EF1D903E107
:10292000151C01E17ED0160EDB5016E07ED9300E6C
:10293000E66E9FD802E1151C74E077D9DFCFE6FF81
:102940000CEC27F0E552E552E552F4CF15F000010A
:10295000F31C02E1151C65E0050EDBCF14F0160E2A
:10296000DB50D880145409E2050EDBCFE7FF160ECA
:10297000DB50E75E050EE7CFDBFF300EE66E050E9F
:10298000CBD94FE1390EDB2ADBCFE9FF3A0E01E369
:10299000DB2ADBCFEAFF090EEFCFDBFFDB500EE0D7
:1029A00044D9090EADD902E1151C3BE0390EDB2AF2
:1029B000DBCFE9FF3A0EEDE3DB2AEBD755D831E167
:1029C000160EDBCFE6FF080EC3D8E552E7245DD82C
:1029D0002ED0070EDB50030A1CE0010A14E0030AA4
:1029E00007E07BD9DBCFEEFF020EDBCFEDFF1FD080
:1029F000F5D8196A17AE02D0186819682CD8BCD857
:102A000019C0EEFF14D0EAD817BE186824D8B4D87D
:102A10000ED063D9DBCFEFFF0AD07BD905E1151CBF
:102A200003E1F368F46810D0FCD801E3DB2A79D91C
:102A3000B6EF10F0010EDBCF14F0020EDBCF15F075
:102A400014C0F3FF15C0F4FF3B0EE15C02E2E16A43
:102A5000E552E16ECBD029D9020E1CEF16F061D9F8
:102A60000800F550DF6E1200200EE66E080E8CEFA7
:102A700016F00CEC27F0E552E552E552F3CF14F0D6
:102A8000F4CF15F00001F31C1200146E156AD95032
:102A9000010F4DD91450EE261550ED221200185E8C
:102AA000000E195AF70E18C0DBFFF80E19C0DBFF35
:102AB00018C0E9FF19C0EAFF1200DBCFF4FFF350A2
:102AC000F45C1200DB50E76E040EE7CFDBFF120070
:102AD0000A0EDBCF14F00B0EDBCF15F00C0EDBCFA4
:102AE00016F00D0EDBCF17F014501510161017103E
:102AF0001200130EEECFDBFF140EEDCFDBFF130E33
:102B0000DBCF14F0140EDBCF15F00001800E15148E
:102B10001200F70EDBCF18F0F80EDBCF19F0120021
:102B2000050EDB50E66ED950130F01D9E552E75080
:102B3000EE6EED6A12000A0EDBCF06F00B0EDBCF55
:102B400007F00C0EDBCF08F00D0EDBCF09F0120002
:102B5000DBCFE6FF150EDBCFE6FF050EDB50E552BF
:102B6000E724E552E7241200DB50CED8010EF36EC5
:102B7000060EF3CFDBFF1200EE50EFCFEAFFE96E57
:102B800016C0EEFF17C0EEFF18C0EEFF1200D9CF3F
:102B9000E6FFDACFE6FFE1CFD9FFE2CFDAFF12009E
:102BA000DFCFE6FFE66A10EC28F0E552E552F3507D
:102BB0001200E76E080EE7CFDBFF1200EECF14F035
:102BC000EECF15F0EFCF16F0176A1200050EDBCF2F
:102BD00014F0150EDB50D88014541200010EDBCF18
:102BE00016F0020EDBCF17F0186A1200E552E5CF9F
:102BF000DAFFE7CFD9FF12000A0E14C0DBFF0B0E7D
:102C000015C0DBFF1200D9500A0F97EF16F0F36ED4
:102C1000070EF3CFDBFF1200EECF14F0EFCF15F06D
:102C20001200010EDB2A020E1200FC0EDBCFE6FFC3
:102C3000FD0EDBCFE6FF1200145E000E155AF70EF4
:102C400014C0DBFFF80E15C0DBFF14C0E9FF15C090
:102C5000EAFF1200DA20EA6EEF2AEECFF6FF000E4E
:102C6000EF22EECFF7FFEF22EECFF8FF1200040EB7
:102C7000DBCFE6FF130EDB50E552E75C9ADFDB505B
:102C800004DF060EDB501200090EDB500A0DF35074
:102C9000DF24D00FE76E090EE7CFDBFF2FEF15F033
:102CA000DB50F36E050E5DEF15F0F70EDBCF14F081
:102CB000F80EDBCF15F01200DFCFE6FF39EF15F08D
:102CC00028DF030EECDEDEEF15F08BEC10F0E552A2
:102CD000E552E552E55200091200BDDEEE50EFCF9D
:102CE000EAFFE96E010E1200130EDB50F36E040EC4
:102CF0005DEF15F0040EDB50F36E090E5DEF15F07D
:102D0000DBCFE6FF39EF15F0E76E050EE7CFDBFF0F
:102D100012008BDF5CEF16F0DBCFE6FF86DF65EF9E
:102D200016F0D950F90FE96EFF0E2AEF16F0E96E92
:082D3000000EDA20EA6E120029
:082D38000F016E5102E1010ED2
:102D40006F1901E12FD2060E6E1901E16F5101E1F9
:102D5000DFD1070E6E1901E16F5101E1CFD1050EF0
:102D60006E1901E16F5101E14DD1040E6E1901E1BF
:102D70006F5101E1FCD01E0E6E1901E16F5101E1AE
:102D8000BCD0030E6E1901E16F5161E0140E6E1993
:102D900001E16F5151E0020E6E1901E16F511AE02D
:102DA000010E6E1901E16F5101E0120055EC02F0C5
:102DB0002EEC09F0060EE66E90EC1FF0E5520008CE
:102DC00001E328D2020E0F016E6F6F6B010E706F60
:102DD000716B1200F60EE66E490EE66EE66AE66A62
:102DE00060EC10F0E552E552E552E552E70EE66E72
:102DF000490EE66EE66A010EE66E60EC10F0E552F2
:102E0000E552E552E552050EE66E90EC1FF0E552F4
:102E1000000808E26ECF70FF6FCF71FF030E0F0145
:102E20006E6F6F6B060EE66E90EC1FF0E5520008B9
:102E300001E3F0D1140EEAD15AEC04F02EEC07F0C5
:102E40000F01745101E1E6D1746B020EE0D1020E64
:102E5000701912E1715110E1DA0EE66E490EE66E5C
:102E6000E66AE66A60EC10F0E552E552E552E5529A
:102E7000CB0EE66E490E0FD0CB0EE66E490EE66E17
:102E8000E66AE66A60EC10F0E552E552E552E5527A
:102E9000BE0EE66E490EE66EE66A010EE66E60EC68
:102EA00010F0E552E552E552E552050EE66E90EC63
:102EB0001FF0E552000808E26ECF70FF6FCF71FF80
:102EC000040E0F016E6F6F6B040EE66E90EC1FF038
:102ED000E552000808E26ECF70FF6FCF71FF020E5F
:102EE0000F016E6F6F6B060EE66E90EC1FF0E552F1
:102EF000000801E38FD11E0E89D1A0D90F017551B1
:102F000001E089D9040EE66E90EC1FF0E55200094D
:102F100003E00F01010E756F050EE66E90EC1FF0D9
:102F2000E552000902E00F01756B050EE66EAAEC92
:102F30001FF0E552000907E00F01766B776B786BA5
:102F4000796B0F01056B060EE66E90EC1FF0E552F3
:102F5000000901E15FD10F01756B766B776B786BC0
:102F6000796B0F01056B0F01746B030E50D1030ECB
:102F7000701912E1715110E1E70EE66E490EE66E2E
:102F8000E66AE66A60EC10F0E552E552E552E55279
:102F9000B10EE66E490E0FD0B10EE66E490EE66E2A
:102FA000E66AE66A60EC10F0E552E552E552E55259
:102FB000A40EE66E490EE66EE66A010EE66E60EC61
:102FC00010F0E552E552E552E552050EE66E90EC42
:102FD0001FF0E552000808E26ECF70FF6FCF71FF5F
:102FE000050E0F016E6F6F6B040EE66E90EC1FF016
:102FF000E552000801E30ED16ECF70FF6FCF71FF75
:10300000030E04D1040E701912E1715110E1BE0ECD
:10301000E66E490EE66EE66AE66A60EC10F0E5528E
:10302000E552E552E552970EE66E490E0FD0970E27
:10303000E66E490EE66EE66AE66A60EC10F0E5526E
:10304000E552E552E5528D0EE66E490EE66EE66AF1
:10305000010EE66E60EC10F0E552E552E552E552E5
:10306000050EE66E90EC1FF0E552000808E26ECF08
:1030700070FF6FCF71FF060E0F016E6F6F6B040E46
:10308000E66E90EC1FF0E552000808E26ECF70FF8C
:103090006FCF71FF040E0F016E6F6F6B060EE66E41
:1030A00090EC1FF0E552000801E3B4D0670EE66E25
:1030B000490EE66EA8EC22F0E552E552380EE66EB7
:1030C000490EE66EA8EC22F0E552E552280EE66EB7
:1030D000490EE66EA8EC22F0E552E552060EE66EC9
:1030E000490EE66EA8EC22F0E552E55201017E6B36
:1030F00001017F6B0101806B070E88D0E1D9060EBC
:10310000E66E90EC1FF0E552000801E383D048D052
:10311000050E701912E1715110E1A40EE66E490E10
:10312000E66EE66AE66A60EC10F0E552E552E552BA
:10313000E552FC0EE66E480E0FD0FC0EE66E480E11
:10314000E66EE66AE66A60EC10F0E552E552E5529A
:10315000E552F60EE66E480EE66EE66A010EE66E83
:1031600060EC10F0E552E552E552E552050EE66ED0
:1031700090EC1FF0E552000808E26ECF70FF6FCFB1
:1031800071FF0F016E6B010E6F6F040EE66E90EC17
:103190001FF0E55200083EE26ECF70FF6FCF71FF67
:1031A000050E34D08D0EE66E490EE66EE66AE66ACE
:1031B00060EC10F0E552E552E552E552F00EE66E95
:1031C000480EE66EE66A010EE66E60EC10F0E5521F
:1031D000E552E552E552040EE66E90EC1FF0E55222
:1031E000000808E26ECF70FF6FCF71FF060E0F016F
:1031F0006E6F6F6B060EE66E90EC1FF0E5520008E6
:1032000009E26ECF70FF6FCF71FF010E0F016E6F7D
:103210006F6B12001200050E0F017927640E795DA5
:1032200002E3796B782B3C0E785D02E3786B772BA9
:103230003C0E775D02E3776B762B1200E00EE66EB4
:10324000480EE66EE66AE66A60EC10F0E552E5527A
:10325000E552E552DD0EE66E480EE66EE66A010EB8
:10326000E66E60EC10F0E552E552E552E5520A0ECA
:103270000F01765D1DE2DB0EE66E480EE66E020E75
:10328000E66E010EE66E60EC10F0E552E552E55296
:10329000E55276CF14F0156A166A176A76CFE6FF04
:1032A00015C0E6FF16C0E6FF17C0E6FF030E0ED0FE
:1032B00076CF14F0156A166A176A76CFE6FF15C046
:1032C000E6FF16C0E6FF17C0E6FF020EE66E010E2F
:1032D000E66E39EC0FF0186E060EE15E1850D90E4E
:1032E000E66E480EE66E040EE66E010EE66E60ECCB
:1032F00010F0E552E552E552E5520A0E0F01775DF6
:103300001DE2DB0EE66E480EE66E050EE66E010E61
:10331000E66E60EC10F0E552E552E552E55277CFEB
:1033200014F0156A166A176A77CFE6FF15C0E6FF34
:1033300016C0E6FF17C0E6FF060E0ED077CF14F0DA
:10334000156A166A176A77CFE6FF15C0E6FF16C042
:10335000E6FF17C0E6FF050EE66E010EE66E39ECDD
:103360000FF0186E060EE15E1850D90EE66E480E8C
:10337000E66E070EE66E010EE66E60EC10F0E552AA
:10338000E552E552E5520A0E0F01785D1DE2DB0EB3
:10339000E66E480EE66E080EE66E010EE66E60EC16
:1033A00010F0E552E552E552E55278CF14F0156A77
:1033B000166A176A78CFE6FF15C0E6FF16C0E6FF6B
:1033C00017C0E6FF090E0ED078CF14F0156A166A02
:1033D000176A78CFE6FF15C0E6FF16C0E6FF17C0F4
:1033E000E6FF080EE66E010EE66E39EC0FF0186E81
:1033F000060EE15E1850D90EE66E480EE66E0A0E15
:10340000E66E010EE66E60EC10F0E552E552E55214
:10341000E5520A0E0F01795D1DE2DB0EE66E480EE5
:10342000E66E0B0EE66E010EE66E60EC10F0E552F5
:10343000E552E552E55279CF14F0156A166A176A1B
:1034400079CFE6FF15C0E6FF16C0E6FF17C0E6FF1E
:103450000C0E0ED079CF14F0156A166A176A79CF60
:10346000E6FF15C0E6FF16C0E6FF17C0E6FF0B0E2D
:10347000E66E010EE66E39EC0FF0186E060EE15E98
:1034800018501200D9CFE6FFE1CFD9FFE652010173
:103490007F51EA6A010FE96E010EEA22EFCFDFFFEA
:1034A0007F293F0B7F6FDF50E552E552E7CFD9FF11
:1034B000120001017E6B01017F6B0101806B120024
:1034C000010E0F017A1901E17B5101E012000101A7
:1034D0008051000804E2C9D80101800712001200DF
:1034E00001018051000873E2CDDF0F01036F01017C
:1034F0008007300E0F01035D6AE30351390867E36B
:10350000300E035F01018051000861E2BBDF0F0153
:10351000046F01018007300E0F01045D58E3035171
:10352000390855E3300E045F0A0E0303F3500425F7
:10353000006F0101805100084AE2A4DF0F01036F10
:1035400001018007300E0F01035D41E3035139088B
:103550003EE3300E035F01018051000838E292DF44
:103560000F01046F01018007300E0F01045D2FE38E
:10357000035139082CE3300E045F0A0E0303F350A5
:103580000425016F01018051000821E27BDF0F015A
:10359000036F01018007300E0F01035D18E3035133
:1035A000390815E3300E035F0101805100080FE276
:1035B00069DF0F01046F01018007300E0F01045D08
:1035C00006E30351390803E3300E045F04D0C80E4C
:1035D000E66E480E44D00A0E0303F3500425026F32
:1035E000E66EE66AE6EC23F0E552E55201CFE6FF2F
:1035F000010EE66EE6EC23F0E552E55200CFE6FF61
:10360000020EE66EE6EC23F0E552E5520F010251A0
:10361000E66EE66A0151E66EE66A0051E66EE66A1B
:10362000A30E146E480E156E166A14C0E6FFE66E01
:1036300016C0E6FF060EE66E0F0EE66E67EC26F08D
:10364000176E0B0EE15E1750060EE66E0F0EE66E5D
:10365000FCEC20F0E552E5528B0EE66E480EE66E6D
:10366000A8EC22F0E552E5521200D9CFE6FFE1CFF7
:10367000D9FFE65207DFDF6EDFCFE6FFEEEC20F08A
:10368000E552140E0F01721901E1735152E00E0E52
:10369000721901E1735141E00C0E721901E173518D
:1036A00033E00B0E721901E1735125E00A0E721915
:1036B00001E1735117E0020E721901E1735109E043
:1036C000010E72193BE1735139E1210EDF5C36E1E5
:1036D0002CD0540EDF5C02E10A0E2ED0210EDF5CEE
:1036E00026E123D0490EDF5C02E10B0E25D0210E2E
:1036F000DF5C1DE11AD04D0EDF5C02E10C0E1CD028
:10370000210EDF5C14E111D0450EDF5C02E10E0EEC
:1037100013D0210EDF5C0BE108D0230EDF5C02E149
:10372000140E0AD0210EDF5C02E1020E05D0010E5C
:1037300003D0D6DE010E0F01726F736BE552E552B6
:06374000E7CFD9FF1200E3
:0A374600D9CFE6FFE1CFD9FFD59EF1
:10375000FD0EDBCF41F1FE0EDBCF42F1D59C1768A9
:103760001868196A41C11AF042C11BF01C6A1A504C
:10377000175C146E1B501858156E1C501958166E95
:103780000C6A010E0D6E0E6A14C007F015C008F029
:1037900016C009F00DEC26F00350D66E17681868B5
:1037A000196A41C11AF042C11BF01C6A1A50175C19
:1037B000146E1B501858156E1C501958166E0C6A52
:1037C000010E0D6E0E6A14C007F015C008F016C089
:1037D00009F00DEC26F007C014F008C015F009C080
:1037E00016F00750D76ED59AD586F28AF294F184F6
:1037F000D58EE552E7CFD9FF1200D59E120017688B
:103800001868196A41C11AF042C11BF01C6A1A50AB
:10381000175C146E1B501858156E1C501958166EF4
:103820000C6A010E0D6E0E6A14C007F015C008F088
:1038300016C009F00DEC26F00350D66E1768186814
:10384000196A41C11AF042C11BF01C6A1A50175C78
:10385000146E1B501858156E1C501958166E0C6AB1
:10386000010E0D6E0E6A14C007F015C008F016C0E8
:1038700009F00DEC26F007C014F008C015F009C0DF
:1038800016F00750D76ED58E1200D9CFE6FFE1CFE4
:10389000D9FFCD90FD0EDBCF43F1FE0EDBCF44F11F
:1038A00017681868196A43C11AF044C11BF01C6AF2
:1038B0001A50175C146E1B501858156E1C5019586E
:1038C000166E0C6A010E0D6E0E6A14C007F015C05C
:1038D00008F016C009F00DEC26F00750CF6E1768FF
:1038E0001868196A43C11AF044C11BF01C6A1A50C7
:1038F000175C146E1B501858156E1C501958166E14
:103900000C6A010E0D6E0E6A14C007F015C008F0A7
:1039100016C009F00DEC26F003C014F004C015F039
:1039200005C016F00350CE6E9D809E909F90CD8E68
:10393000CD8CCD98CD9ACD96CD92CD80E552E7CF66
:10394000D9FF120017681868196A43C11AF044C1F8
:103950001BF01C6A1A50175C146E1B501858156E19
:103960001C501958166E0C6A010E0D6E0E6A14C0AA
:1039700007F015C008F016C009F00DEC26F007504E
:10398000CF6E17681868196A43C11AF044C11BF05A
:103990001C6A1A50175C146E1B501858156E1C5078
:1039A0001958166E0C6A010E0D6E0E6A14C007F0DF
:1039B00015C008F016C009F00DEC26F003C014F095
:1039C00004C015F005C016F00350CE6ECD80120075
:1039D000CD901200D9CFE6FFE1CFD9FFCA94CC6ACF
:1039E000FE0EDB500101456F466BCB6E9D829E92B1
:1039F0009F92CA90CA92CA84E552E7CFD9FF1200BB
:103A000045C1CBFFCA841200CA941200D9CFE6FF89
:103A1000E1CFD9FFB190FD0EDBCF47F1FE0EDBCF3A
:103A200048F117681868196A47C11AF048C11BF0B5
:103A30001C6A1A50175C146E1B501858156E1C50D7
:103A40001958166E0C6A010E0D6E0E6A14C007F03E
:103A500015C008F016C009F00DEC26F00750B36E43
:103A600017681868196A47C11AF048C11BF01C6A28
:103A70001A50175C146E1B501858156E1C501958AC
:103A8000166E0C6A010E0D6E0E6A14C007F015C09A
:103A900008F016C009F00DEC26F003C014F004C0C5
:103AA00015F005C016F00350B26EA082A192A2924A
:103AB000B18EB198B19AB192B180E552E7CFD9FFFA
:103AC000120017681868196A47C11AF048C11BF03C
:103AD0001C6A1A50175C146E1B501858156E1C5037
:103AE0001958166E0C6A010E0D6E0E6A14C007F09E
:103AF00015C008F016C009F00DEC26F00350B26EA8
:103B000017681868196A47C11AF048C11BF01C6A87
:103B10001A50175C146E1B501858156E1C5019580B
:103B2000166E0C6A010E0D6E0E6A14C007F015C0F9
:103B300008F016C009F00DEC26F007C014F008C01C
:103B400015F009C016F00750B36EB1801200B190A5
:103B500012000101512B000E52235951515D5A514F
:103B6000525904E3516B526B010E496F120001016F
:103B7000532B000E54235B51535D5C51545904E3A5
:103B8000536B546B010E4A6F12000101552B000E4E
:103B900056235D51555D5E51565904E3556B566B86
:103BA000010E4B6F12000101572B000E58235F517D
:103BB000575D6051585904E3576B586B010E4C6FB9
:103BC0001200D9CFE6FFE1CFD9FFFD0EDBCF59F1CF
:103BD000FE0EDBCF5AF10101516B526B496BE5527E
:103BE000E7CFD9FF1200D9CFE6FFE1CFD9FFFD0E15
:103BF000DBCF5BF1FE0EDBCF5CF1050E0D6E0E6AC6
:103C00005BC108F05CC109F0E7EC25F008C05BF18E
:103C100009C05CF10101536B546B4A6BE552E7CF6D
:103C2000D9FF1200D9CFE6FFE1CFD9FFFD0EDBCFE0
:103C30005FF1FE0EDBCF60F10A0E0D6E0E6A5FC102
:103C400008F060C109F0E7EC25F008C05FF109C099
:103C500060F10101576B586B4C6BE552E7CFD9FF10
:023C6000120050
:0E3C62000F0E946E82681200070E9410946E7E
:103C7000DF0E9414946E82681200D9CFE6FFE1CF74
:103C8000D9FF040EE126DE6ADD6ADECF14F0DDCF57
:103C900015F0D890155004E6040E145C000E15586B
:103CA00001E390D0DECFE9FFDDCFEAFF660EE92623
:103CB0000F0EEA22EF1C826E020EDB6A030EDB6A35
:103CC000020EDBCF14F0030EDBCF15F0D8901550A9
:103CD00004E6040E145C000E15586EE2020EDBCFF3
:103CE000E9FF030EDBCFEAFF6A0EE9260F0EEA2298
:103CF000EF5082143FE1DECF18F0DDCF19F0D890FD
:103D000018361936D89018361936020EDB5018249A
:103D1000E96E030EDB501920EA6ED890E936EA36D8
:103D2000460EE9260F0EEA22EECF16F0EFCF17F07F
:103D3000010E1626000E1722DECF14F0DDCF15F08F
:103D4000D89014361536D89014361536020EDB503E
:103D50001424E96E030EDB501520EA6ED890E93684
:103D6000EA36460EE9260F0EEA2216C0EEFF17C00D
:103D7000EDFF1BD0DECF14F0DDCF15F0D890143658
:103D80001536D89014361536020EDB501424E96E21
:103D9000030EDB501520EA6ED890E936EA36460E5F
:103DA000E9260F0EEA22EE6AED6A020EDB2A030E06
:103DB00001E286D7DB2A84D7DF2A010E01E265D72C
:103DC000DB2A63D7040EE15C02E2E16AE552E16EB0
:103DD000E552E7CFD9FF1200D9CFE6FFE1CFD9FFF7
:103DE000040EE126DE6ADD6A020EDB6A030EDB6A80
:103DF000010EDE6EDD6ADECFE9FFDDCFEAFF660E83
:103E0000E9260F0EEA22EF1C8214826E020EDB6A94
:103E1000030EDB6A020EDBCF14F0030EDBCF15F0CE
:103E2000D890155004E6030E145C000E15586EE28F
:103E3000020EDBCFE9FF030EDBCFEAFF6A0EE926B5
:103E40000F0EEA22EF5082143FE1DECF18F0DDCFF3
:103E500019F0D89018361936D89018361936020E3F
:103E6000DB501824E96E030EDB501920EA6ED8905F
:103E7000E936EA36460EE9260F0EEA22EECF16F0B4
:103E8000EFCF17F0010E1626000E1722DECF14F02A
:103E9000DDCF15F0D89014361536D8901436153677
:103EA000020EDB501424E96E030EDB501520EA6E7F
:103EB000D890E936EA36460EE9260F0EEA2216C0F9
:103EC000EEFF17C0EDFF1BD0DECF14F0DDCF15F0F5
:103ED000D89014361536D89014361536020EDB50AD
:103EE0001424E96E030EDB501520EA6ED890E936F3
:103EF000EA36460EE9260F0EEA22EE6AED6A020E57
:103F0000DB2A030E01E286D7DB2A84D7040EE15CAC
:103F100002E2E16AE552E16EE552E7CFD9FF120015
:103F2000D9CFE6FFE1CFD9FFFE0EEA6ADB34FE0B04
:103F3000EA36E96E460EE9260F0EEA22010EEE1869
:103F400004E1ED5002E1010E01D0000EE552E7CF91
:103F5000D9FF1200D9CFE6FFE1CFD9FFFE0EEA6A02
:103F6000DB34FE0BEA36E96E460EE9260F0EEA2236
:103F7000320EEE1804E1ED5002E1010E01D0000E08
:103F8000E552E7CFD9FF1200D9CFE6FFE1CFD9FF45
:103F9000040EE126DE6ADD6ADECF14F0DDCF15F017
:103FA000FD0EDBCF16F0FE0EDBCF17F01550171805
:103FB000E8AE02D0173404D01650145C17501558D0
:103FC0001DE2020EDB6A030EDB6A020EDBCF14F089
:103FD000030EDBCF15F0D890155004E6EE0E145CFE
:103FE000000E155806E2020EDB2A030EEEE3DB2A72
:103FF000ECD7DF2A010ED0E3DB2ACED7040EE15C3A
:1040000002E2E16AE552E16EE552E7CFD9FF120024
:10401000D9CFE6FFE1CFD9FF040EE126DE6ADD6AE3
:10402000DECF14F0DDCF15F0D890155004E6040E65
:10403000145C000E155875E2DECFE9FFDDCFEAFF14
:10404000660EE9260F0EEA22EF1C826E020EDB6A74
:10405000030EDB6A020EDBCF14F0030EDBCF15F08C
:10406000D890155004E6040E145C000E15584AE270
:10407000DECF14F0DDCF15F0D89014361536D89079
:1040800014361536020EDB501424E96E030EDB5095
:104090001520EA6ED890E936EA36460EE9260F0E6C
:1040A000EA22EE6AED6A020EDBCFE9FF030EDBCFF8
:1040B000EAFF6A0EE9260F0EEA22EF5082141CE195
:1040C000DECF14F0DDCF15F0D89014361536D89029
:1040D00014361536020EDB501424E96E030EDB5045
:1040E0001520EA6ED890E936EA36460EE9260F0E1C
:1040F000EA22010EEE6EED6A020EDB2A030EAAE33F
:10410000DB2AA8D78250816EE80EE66E030EE66EBB
:104110003BDFE552E552DF2A010E01E281D7DB2ABF
:104120007FD7040EE15C02E2E16AE552E16EE552FE
:06413000E7CFD9FF1200E9
:0A413600B06A810EAF6EAC8AAC9443
:10414000B886AC98AB8EAB889E9A9D8A9F8A949CC9
:10415000948E1200D9CFE6FFE1CFD9FF040EE126FD
:10416000DE6ADD6ADECF14F0DDCF15F0FD0EDBCFA9
:1041700016F0FE0EDBCF17F015501718E8AE02D080
:10418000173404D01650145C175015581DE2020E57
:10419000DB6A030EDB6A020EDBCF14F0030EDBCF0B
:1041A00015F0D890155004E6EE0E145C000E15586C
:1041B00006E2020EDB2A030EEEE3DB2AECD7DF2A4F
:1041C000010ED0E3DB2ACED7040EE15C02E2E16A05
:1041D000E552E16EE552E7CFD9FF1200D9CFE6FFF5
:1041E000E1CFD9FF9EA8FED7FE0EDB50AD6E9E98A4
:1041F000E552E7CFD9FF1200D9CFE6FFE1CFD9FFD3
:10420000FD0EDBCFE9FFFE0EDBCFEAFFEF5010E043
:10421000FD0EDBCFE9FFFE0EDBCFEAFFEF50E66ECF
:10422000DDDFE552FD0EDB2AFE0EEAE3DB2AE8D7EE
:10423000E552E7CFD9FF1200D9CFE6FFE1CFD9FF92
:10424000050EE126010EF36EDB6E020EDB6A030E35
:10425000DB6A040EDB6ADF6ADFCF14F0156A14BE76
:104260001568FB0EDBCF16F0FC0EDBCF17F01550F8
:104270001718E8AE02D0173404D01650145C17504B
:1042800015582DE2FD0EDBCF14F0FE0EDBCF15F03E
:10429000166A176A15AE02D016681768D950010F52
:1042A000E96EDACFEAFF14C00BF015C00CF016C0AF
:1042B0000DF017C00EF0EECF06F0EECF07F0EECF08
:1042C00008F0EFCF09F04EEC27F005C0EDFF04C079
:1042D000EDFF03C0EDFF02C0EFFFDF2ABDD7010EE7
:1042E000DBCF14F0020EDBCF15F0030EDBCF16F0A0
:1042F000040EDBCF17F014C006F015C007F016C08F
:1043000008F017C009F0050EE15C02E2E16AE5522F
:10431000E16EE552E7CFD9FF1200D9CFE6FFE1CF3A
:10432000D9FF020EE126DF6AFB0EDBCF14F0FC0E94
:10433000DBCF15F0FD0EDBCF16F0FE0EDBCF17F056
:10434000145015101610171005E1300EE66E46DFFA
:10435000E552F4D0D950FB0FE96EFF0EDA20EA6E79
:10436000D890030EEB50000A08E6000EEE5C000E3B
:10437000EE58000EEE58000EEE5815E22D0EE66EC9
:104380002DDFE552D950FB0FE96EFF0EDA20EA6E01
:10439000000EEE6CEF1EEE22EF1EEE22EF1EEF225D
:1043A000ED52ED52ED52DE520A0EDD6E010EDBCF04
:1043B00014F0000EE76E1418E8AE02D0143403D0E7
:1043C000E750D880145401E3B9D0010EDB04186E15
:1043D000196A18BE196818C0E6FF19C0E6FF0A0E70
:1043E000E66EE66A29DFE552E552E552E55206C07F
:1043F00014F007C015F008C016F009C017F006C089
:104400000BF007C00CF008C00DF009C00EF0FB0E59
:10441000DBCF06F0FC0EDBCF07F0FD0EDBCF08F0A4
:10442000FE0EDBCF09F0B9EC27F00650071008109C
:10443000091041E0010EDF6EDB041C6E1D6A1CBE1C
:104440001D681CC0E6FF1DC0E6FF0A0EE66EE66AA8
:10445000F3DEE552E552E552E55206C018F007C01A
:1044600019F008C01AF009C01BF006C00BF007C015
:104470000CF008C00DF009C00EF0FB0EDBCF06F00B
:10448000FC0EDBCF07F0FD0EDBCF08F0FE0EDBCF1E
:1044900009F0B9EC27F006C014F007C015F008C009
:1044A00016F009C017F0300E1426000E1522162241
:1044B0001722145003D0DF5004E0300EE66E8EDE7B
:1044C000E552010EDB04186E196A18BE196818C08F
:1044D000E6FF19C0E6FF0A0EE66EE66AADDEE552BB
:1044E000E552E552E55206C014F007C015F008C0C9
:1044F00016F009C017F0D950FB0FE96EFF0EDA2055
:10450000EA6E06C00BF007C00CF008C00DF009C041
:104510000EF0EECF06F0EECF07F0EECF08F0EFCFC3
:1045200009F0B9EC27F005C0EDFF04C0EDFF03C0B2
:10453000EDFF02C0EFFF010EDB0638D7020EE15C93
:1045400002E2E16AE552E16EE552E7CFD9FF1200DF
:10455000D9CFE6FFE1CFD9FFFD0EDBCFF6FFFE0E90
:10456000DBCFF7FF0800F55015E0FD0EDBCFF6FFBF
:10457000FE0EDBCFF7FF0800F550E66E2FDEE552AA
:10458000FD0EDBCFF6FFDB2AFE0EDBCFF7FFE4E309
:10459000DB2AE2D7E552E7CFD9FF1200D9CFE6FFF9
:1045A000E1CFD9FFE652AE50DF6E01017E51EA6ADB
:1045B000010FE96E010EEA22DFCFEFFF7E293F0BEC
:0E45C0007E6F802BE552E552E7CFD9FF120047
:0245CE00D9CF43
:1045D000E6FFE1CFD9FF020EE126FE0EDB500F0B06
:1045E000DF6EFE0EDB380F0B0A0D010EF3CFDBFF83
:1045F000DB50DF24146E020EE15C02E2E16AE55258
:10460000E16E1450E552E7CFD9FF1200D9CFE6FF93
:10461000E1CFD9FF020EE1260A0E146E0E6EFE0ED9
:10462000DBCF09F04EEC28F00550DF6E0A0E146E59
:104630000E6EFE0EDBCF09F04EEC28F00950100D87
:10464000010EF3CFDBFFDB50DF24146E020EE15CC2
:1046500002E2E16AE552E16E1450E552E7CFD9FF7C
:10466000120094869488C79EC79CC690C692C69432
:10467000C686310EC86EC68A1200D9CFE6FFE1CFDA
:10468000D9FF9E96FE0EDB50D00FC96E9EA6FED7B8
:10469000E552E7CFD9FF12009E96C5809EA6FED7B1
:1046A00012009E96C5849EA6FED71200D9CFE6FFC3
:1046B000E1CFD9FF9E96FE0EDB50C96E9EA6FED7B7
:1046C000E552E7CFD9FF12009E96C5869EA6FED77B
:1046D000C95012009E96C59AC5889EA6FED71200A4
:1046E0009E96C58AC5889EA6FED71200D9CFE6FF42
:1046F000E1CFD9FFD1DFE66AC0DFE5520101010E4B
:10470000816FE85004E0C550400BFAE0F8D7FE0E88
:10471000DBCFE6FFCBDFE5520101010E816FE850F0
:1047200004E0C550400BFAE0F8D7FD0EDBCFE6FF02
:104730006DDFE552E66EBADFE5520101010E816FD1
:10474000E85004E0C550400BFAE0F8D7AADFE55284
:10475000E7CFD9FF1200D9CFE6FFE1CFD9FFE6526C
:104760009BDFE66A8ADFE5520101010E816FE850A6
:1047700004E0C550400BFAE0F8D7FE0EDBCFE6FFB1
:1047800095DFE5520101010E816FE85004E0C5504C
:10479000400BFAE0F8D780DF010EE66E6EDFE552DF
:1047A0000101010E816FE85004E0C550400BFAE0B2
:1047B000F8D78ADFDF6EDFCFE6FF09DFE552DF6E75
:1047C000DF50E552E552E7CFD9FF1200D9CFE6FF1F
:1047D000E1CFD9FFFD0EDBCFE6FFFE0EDBCFE6FF1C
:1047E00085DFE552E552E552E7CFD9FF1200D9CF78
:1047F000E6FFE1CFD9FFFE0EDBCFE6FFACDFE552EF
:08480000E552E7CFD9FF1200D9
:084808002020202000202020C8
:10481000002020002020414C41524D2020204241C8
:10482000434B2020002000444543004E4F56004F8C
:1048300043540053455000415547004A554C004AE7
:10484000554E004D415900415052004D41520046D5
:104850004542004A414E004F4E20004F4646003A26
:104860000030005341540046524900544855005707
:10487000454400545545004D4F4E0053554E0041A0
:104880004C41524D20434C4F434B0054696D6520C1
:1048900055706461746520636F6D706C657465211B
:1048A0000D0A000D0A54696D6520697320736574E3
:1048B00020746F20252E3032643A252E3032643A2F
:1048C000252E3032640D0A000D0A496E76616C693E
:1048D000642074696D650D0A003A003000202000E4
:1048E00020202053544F505741544348202020004B
:1048F0003E4261636B00204261636B003E4C616E1F
:104900006775616765005468652074696D65206E20
:1049100065656420746F2062652032342D682066DE
:104920006F726D61740D0A002154494D45232D4865
:10493000484D4D53530D0A00546F2073796E6368D0
:10494000726F6E697A652074696D652C2075736964
:104950006E672073796E74617820617320666F6C66
:104960006C6F773A0D0A0057656C636F6D65207444
:104970006F20416C61726D20436C6F636B20636FBD
:104980006E736F6C65206D656D750D0A00204C614E
:104990006E6775616765003E54696D65206D6F6473
:1049A000696679002054696D65206D6F6469667968
:1049B000003E54696D657220436C6F636B00205438
:1049C000696D657220436C6F636B003E436F756E5B
:1049D00074657220436C6F636B0020416C61726D73
:1049E00020436C6F636B0020436F756E746572209B
:1049F000436C6F636B003E416C61726D20436C6F62
:034A0000636B00E5
:0C4A0400F28ED08EF28C1200F19CF29227
:104A1000F2881200D8CFE4FFE0CFE4FFE46EDACFF3
:104A2000E4FFE2CFDAFFE9CFE4FFEACFE4FFF6CF1D
:104A3000E4FFF7CFE4FFF5CFE4FFF3CFE4FFF4CFDB
:104A4000E4FFFACFE4FF00EE00F0140EE80403E305
:104A5000EECFE4FFFBD700EE14F00A0EE80403E308
:104A6000EECFE4FFFBD7E652F2A407D0FDEC1BF03B
:104A7000F294FFEC1BF0A9EC1DF09EA007D0E8EC2F
:104A80001CF09E90A2EC1CF0B7EC1DF0A1A207D088
:104A9000A7EC1DF0A19261EC1DF0D3EC1DF0F2B279
:104AA000F2929EBA9E9AE55200EE1DF00A0EE804BC
:104AB00003E3E5CFEDFFFBD700EE13F0140EE8049F
:104AC00003E3E5CFEDFFFBD7E5CFFAFFE5CFF4FF3A
:104AD000E5CFF3FFE5CFF5FFE5CFF7FFE5CFF6FF35
:104AE000E5CFEAFFE5CFE9FFE5CFDAFFE550E5CF17
:104AF000E0FFE5CFD8FF1000DACFE4FFE2CFDAFF26
:104B0000E9CFE4FFEACFE4FFF6CFE4FFF7CFE4FF1D
:104B1000F5CFE4FFF3CFE4FFF4CFE4FFFACFE4FFF7
:104B200000EE00F0140EE80403E3EECFE4FFFBD741
:104B300000EE14F00A0EE80403E3EECFE4FFFBD727
:104B4000E652F2A407D0FDEC1BF0F294FFEC1BF050
:104B5000A9EC1DF09EA007D0E8EC1CF09E90A2EC02
:104B60001CF0B7EC1DF0A1A207D0A7EC1DF0A1929C
:104B700061EC1DF0D3EC1DF0F2B2F2929EAA03D0CC
:104B8000CEEC22F09E9AE55200EE1DF00A0EE804EB
:104B900003E3E5CFEDFFFBD700EE13F0140EE804BE
:104BA00003E3E5CFEDFFFBD7E5CFFAFFE5CFF4FF59
:104BB000E5CFF3FFE5CFF5FFE5CFF7FFE5CFF6FF54
:0E4BC000E5CFEAFFE5CFE9FFE5CFDAFF110010
:024BCE00006A7B
:104BD0000EAEF0EF25F00D6C0E1EE86A0E22001EE0
:104BE00009AEF8EF25F0086C091EE86A0922001EDC
:104BF000FAEC27F009BE08EF26F000AE000C086CB6
:104C0000091EE86A0922046C051EE86A0522000CE8
:104C100000BEFFEF25F00188FF0C006A0EAE18EF12
:104C200026F00C6C0D1E0E1EE86A0D220E22001ED0
:104C300009AE22EF26F0076C081E091EE86A08225A
:104C40000922001EDDEC27F009BE35EF26F000AE8C
:104C5000000C076C081E091EE86A08220922036C72
:104C6000041E051E04220522000C00BE29EF26F0BA
:104C70000188FF0C09C013F008C012F008500D02A3
:104C8000F4CF07F0F3CF06F009500E02F4CF09F08D
:104C9000F3CF08F00D02F3500726F4500822E86A1B
:104CA000092212500E02F3500726F4500822E86A37
:104CB00009220EAE60EF26F01250085E1350095A1A
:0E4CC00013AE000C0D50085E0E50095A000C89
:024CCE00D9CF3C
:104CD000E6FFDACFE6FFE1CFD9FFE2CFDAFFE65217
:104CE000E652E652E652D950F90F146EFF0EDA2062
:104CF000156E020E14C0DBFF030E15C0DBFF020EA3
:104D0000DBCFE6FF030EDBCFE6FFF90EDBCFE6FFDE
:104D1000FA0EDBCFE6FFFB0EDBCFE6FFD950FC0F30
:104D2000E66EFF0EDA20E66EA1EC10F0146E070EB0
:104D3000E15C02E2E16AE552E16E1450F3CFDEFF7E
:104D4000F4CFDDFFFC0EDBCFE9FFFD0EDBCFEAFF8A
:104D5000EF6ADECF14F0DDCF15F014C0F3FF15C0FD
:104D6000F4FF040EE15C02E2E16AE552E16EE55215
:0A4D7000E5CFDAFFE7CFD9FF12000C
:064D7A001E0EF66E000E95
:104D8000F76E000EF86E01010900F550796F090009
:104D9000F5507A6F03E1796701D03DD00900F550F5
:104DA000746F0900F550756F0900F550766F0900B2
:104DB0000900F550E96E0900F550EA6E0900090096
:104DC0000900F550776F0900F550786F0900090068
:104DD000F6CF7BF1F7CF7CF1F8CF7DF174C1F6FF10
:104DE00075C1F7FF76C1F8FF0101775302E17853EF
:104DF00007E00900F550EE6E7707F8E27807F9D77B
:104E00007BC1F6FF7CC1F7FF7DC1F8FF0101790787
:084E1000000E7A5BBFD712000F
:084E1800D9CFE6FFDACFE6FF77
:104E2000E1CFD9FFE2CFDAFFFB0EDBCF14F0FC0EAF
:104E3000DBCF15F00001800E15141AE1FB0EDBCF5D
:104E4000E9FFFC0EDBCFEAFFEECFF3FFEDCFF4FF7F
:104E5000EE2A000EEF22F3CFE9FFF4CFEAFFFD0EBA
:104E6000DBCFEFFFEF50156AF36E15C0F4FF10D0E3
:104E7000FB0EDB50FE0806E1FD0EDBCFE6FF40EC4B
:104E800028F005D0FD0EDBCFE6FF03EC00F0E55285
:0C4E9000E552E5CFDAFFE7CFD9FF1200B2
:044E9C0006500B02AF
:104EA000F3CF02F0F4CF03F00C02F3500326000E10
:104EB000F420046E06500D02F3500426000EF42078
:104EC000056E06500E02F350052607500B02F350F4
:104ED0000326F4500422000E052207500C02F35062
:104EE0000426F450052207500D02F3500526085001
:104EF0000B02F3500426F450052208500C02F35024
:0C4F0000052609500B02F3500526120094
:044F0C00FE0EE3CFE3
:104F1000E9FFFF0EE3CFEAFFF36AF46AEE5203E023
:104F2000F34AF42AFBD71200FF0EE3CFF8FFE55255
:104F3000FF0EE3CFF7FFE552FF0EE3CFF6FFE5529A
:104F4000E66AE66AE66A0900F55209E0FD0EE32A20
:104F500005E1FE0EE32A02E1FF0EE32AF4D7FD0E7F
:104F6000E3CF07F0FE0EE3CF08F0FF0EE3CF09F02A
:024F700012002D
:0E4F7200056A046A036A026A200EE76ED89090
:104F80000636073608360936023603360436053645
:104F90000B50025C0C5003580D5004580E5005582D
:104FA00009E30B50025E0C50035A0D50045A0E5088
:0A4FB000055A062AE72EE4D7120086
:064FBA00056A046A036AA7
:104FC000180EE76ED89007360836093603360436D1
:104FD00005360C50035C0D5004580E50055807E37D
:104FE0000C50035E0D50045A0E50055A072AE72E46
:044FF000EAD71200EA
:0C4FF400056A046A100EE76ED8900836BB
:105000000936043605360D50045C0E50055805E38C
:105010000D50045E0E50055A082AE72EF0D71200F4
:10502000F36AF46AFF0EE124E96EFF0EE220EA6EF5
:10503000ED6607D02F0EEF6404D03A0EEF6001D07A
:04504000F32A12003D
:0C504400800EF36E00EE00F00F0E01D89D
:105050001200EA6002D0EE6AFCD7F350E960120059
:04506000EE6AFCD721
:0C5064001EEE00F02EEE00F0F86A019C39
:10507000BDEC26F007EC00F040EC00F0FBD712008E
:10508000FF0EE350ACBA04D0AF6AAB8EAC8A949CEE
:0C509000ACA2FED7AD6EF36EF46A120005
:04509C00056A080E8B
:1050A000E76ED890093605360E50055C02E3056EB2
:0850B000092AE72EF7D71200D0
:0850B800303132333435363754
:0950C00038396162636465660021
:0750C90000000000000000E0
:1050D00000000000000000000000000000000000D0
:0950E000000100010001000100C3
:0750E90001000000010000BE
:0750F00000000000000100B8
:0950F700000000000000000000B0
:0A51000000000000000000000100A4
:06510A000000000000009F
:10511000000010101010101010101818181818187F
:1051200018181C1C1C1C1C1C1C1C1E1E1E1E1E1EBB
:105130001E1E1F1F1F1F1F1F1F1F0000000000003B
:10514000000000000000000000000000000000005F
:10515000000000000000000000000000000000004F
:0B516000000000000000000000000044
:05516B00000000D0006F
:105170002222220725091000010000000000000083
:0651800000000000000029
:0A518600000000000000000000001F
:10519000000000000000000000000000000000000F
:0E51A000000000000000102040800102040802
:020000040030CA
:0100010002FC
:0100020003FA
:010003001EDE
:010005008179
:010006008178
:010008000FE8
:01000900C036
:01000A000FE6
:01000B00E014
:01000C000FE4
:01000D0040B2
:00000001FF
