:020000040000FA
:0600000096EF1CF0120057
:020006001200E6
:06000800DCEF19F012000C
:02000E001200DE
:03001000000000ED
:0400130000000000E9
:06001800A3EF19F0120035
:02001E000800D8
:100020004E3A0000460F000028000000333A00005E
:10003000E10000001B000000130000007C0F000026
:1000400004000000D23900008000000061000000C0
:10005000BF3900006101000013000000B139000049
:100060006E0F00000E0000009139000041010000F9
:1000700020000000100000007E01000003000000CE
:100080007CEC05F0FB0EDBCFF3FFDB06F350000941
:100090000AE0CAEC05F0FA0E35EC06F0F3E1151CA7
:1000A000F1E1010E01D0000EABEF05F07CEC05F0A4
:1000B0003B0EE12402E3E168E652E16E010EDB6AE9
:1000C000020EDB6AF90EDBCFF6FFFA0EDBCFF7FF8D
:1000D000FB0EDBCFF8FF0800F550DF6EDF5002E1CA
:1000E000CFEF04F0250EDF5C02E0C2EF04F0030E58
:1000F000DB6A040EDB6A050EDB6A060EDB6A070E9E
:10010000DB6AE4EC04F02D0EDF5C0CE02B0EDF5C10
:1001100009E0200EDF5C06E0230EDF5C03E0300E1A
:10012000DF5C1AE1DF50300A14E0130A0FE0030A23
:100130000AE00B0A05E0060AE4E1030EDB80E1D7E2
:10014000030EDB82DED7030EDB84DBD7030EDB86F8
:10015000D8D7030EDB88D5D72A0EDF5C1BE1E0EC95
:1001600004F02EEC05F010E0030EDB80086809684F
:10017000130EDBCF0DF0140EDBCF0EF09EEC1AF059
:10018000040E06C0DBFF03D0130E17EC05F0E4EC01
:1001900004F00BD0090EDB6A85EC05F003E0F9EC06
:1001A00005F0FAD7090E17EC05F0030EDBB0DB986B
:1001B0002E0EDF5C1BE1E4EC04F02A0EDF5C0BE1A9
:1001C000E0EC04F02EEC05F003E1130E69EC05F011
:1001D000E4EC04F00BD0090EDB6A85EC05F003E0DB
:1001E000F9EC05F0FAD7090E69EC05F0680EDF5C52
:1001F00007E1E4EC04F0680EDF5C1DE1030E18D0AB
:10020000740EDF5C17E07A0EDF5C14E0480EDF5CF2
:1002100006E0540EDF5C03E05A0EDF5C02E1020EE2
:1002200007D06C0EDF5C03E06A0EDF5C04E1010EB8
:10023000BCEC05F0C9DBDF506E0A01E17FD31E0A7A
:1002400001E192D1200A01E18FD13F0A01E149D1B8
:100250001A0A01E146D10D0A01E143D1200A01E168
:1002600040D13A0A01E13DD1200A01E13AD1260A02
:1002700001E135D10D0A01E132D11A0A01E1D9D0EB
:10028000200A4AE0300A1FE0460A0EE0250A01E093
:1002900083D3D950F90FE96EFF0EDA20EA6E010E12
:1002A000EE5E000EEE5AEE5ACAEC05F0250EE66E32
:1002B00095DB03E1151C01E169D3C6EC05F001E211
:1002C0006BD3DB2A69D3080EDB6A040EDB5001080E
:1002D00006E2040EDB048EEC05F0DB508BDB080E2F
:1002E000DB5009E0030EDB50010B05E172DB01E09E
:1002F0004DD3080EDB6A64DBEFCFDFFF3EEC06F088
:1003000003E1151C01E142D3C6EC05F001E3DB2A51
:1003100060DB01E141D33AD3070EDB5002080FE165
:100320000AEC06F0030ED1EC05F00E0EEECFDBFF6B
:100330000F0EEECFDBFF100EEECFDBFF20D0F70E5F
:10034000DBCF17F0F80EDBCF18F0020E175E000EB1
:10035000185AF70E17C0DBFFF80E18C0DBFF17C0E6
:10036000E9FF18C0EAFFC1EC05F0166A0E0E14C0D2
:10037000DBFF0F0E15C0DBFF100E16C0DBFF0E0EED
:10038000DBCFE6FF0F0EDBCFE6FF100EDBCFE6FF85
:10039000F8EC1BF0E552E552E552130E07C0DBFF07
:1003A000140E08C0DBFF060EDB5005E0130E05EC53
:1003B00006F001E26ADB29EC06F002E2130E37DBFD
:1003C000ECEC05F006E0040E05EC06F002E2050E8A
:1003D0002EDB030EDBB005D0FCDA01E0D7D2080E2D
:1003E000DB6A090EDB6A0E0EDBCFF6FF0F0EDBCFEA
:1003F000F7FF100EDBCFF8FF0800F550DF6EDF507F
:1004000014E02FEC06F011E23EEC06F003E1151CBF
:1004100001E1BCD2BBDB01E3DB2A090EDB2AD950A8
:100420000E0FE96E000ECBDBE7D7D3DA01E1B4D2D1
:10043000ADD2C6DA110EEECFDBFF120EEDCFDBFF31
:10044000110EDBCFE6FF120EDBCFE6FFEAEC1BF06E
:10045000E552E552130EF3CFDBFF140EF4CFDBFFB2
:10046000060EDB5004E0130ED0DB01E20EDB29ECBC
:1004700006F002E2130EDBDAAFDB05E0040EC5DBAB
:1004800002E2050ED4DA030EDBB005D0A2DA01E0F9
:100490007DD2080EDB6A090EDB6A110EDBCFE9FFA5
:1004A000120EDBCFEAFFEFCFDFFFDF5014E0D7DB28
:1004B00012E2E4DB03E1151C01E168D267DB01E332
:1004C000DB2A090EDB2A110EDB2ADBCFE9FF120E35
:1004D000E8E3DB2AE6D77DDA01E15ED257D2030EEC
:1004E000DB8E070EDB0410E195DB040E5ADB0A0EEF
:1004F000EECFDBFF0B0EEECFDBFF0C0EEECFDBFF04
:100500000D0EEECFDBFF6CD0070EDB5003082CE1A5
:10051000030EDBAE0DD0B2DA020E76DAEFCF14F0B6
:10052000156A166A176A14AE39D01568166835D080
:10053000F70EDBCF15F0F80EDBCF16F0020E155ECE
:10054000000E165AF70E15C0DBFFF80E16C0DBFFC3
:1005500015C0E9FF16C0EAFFEFCF14F00A0E14C071
:10056000DBFF0B0EDB6A38D0070EDB50020809E117
:10057000030EDBAE04D059DB16AE10D00ED055DB27
:100580000DD0030EDBAE12D079DA020E3DDAF9DAC5
:10059000166A176A15AE02D016681768E2DA0C0EF2
:1005A00016C0DBFF0D0E17C0DBFF1AD0F70EDBCF36
:1005B00016F0F80EDBCF17F0020E165E000E175A7B
:1005C000F70E16C0DBFFF80E17C0DBFF16C0E9FF01
:1005D00017C0EAFFD6DAC5DA0C0EDB6A0D0EDB6A4D
:1005E000060EDB5005E1010EF36E050EF3CFDBFFC7
:1005F000150EDB6A160EDB6AD950370F146E000E2B
:10060000DA20156E390E14C0DBFF3A0E15C0DBFF81
:10061000380EDB6A080EDB6A0A0EAEDADF50780AA3
:1006200012E0200A10E0280A0CE0200A0AE03F0A43
:1006300006E00D0A02E0200A08E1020E05D0080ECD
:1006400003D0080EDF26100E97DA030EDBBE02D0B1
:10065000DB92DB94DB50800B24E08ADAD890030E27
:10066000EB50000A08E6000EEE5C000EEE58000E9D
:10067000EE58000EEE5815E213DA0B680C680D68A0
:100680000E68B2EC1BF00A0E02C0DBFF0B0E03C0BB
:10069000DBFF0C0E04C0DBFF0D0E05C0DBFF2D0ED3
:1006A00008D0030EDBA202D02B0E03D0DBA408D0AF
:1006B000200EF36E170EF3CFDBFF150EDB2A02D0F0
:1006C000170EDB6A050EDB5003E1B7D901E189D0D3
:1006D000800E146E390E156E000E166E070EDBCFEF
:1006E00017F0186A196A1A6A17C00BF018C00CF0D4
:1006F00019C00DF01AC00EF0D3D91DEC1CF0145027
:100700000224F36E15500320F46E16500420F86E88
:10071000F4CFF7FFF3CFF6FF0800090EF5CFDBFFAC
:10072000580EDF5C0FE1610EF36E090E7BD90AE310
:10073000200E146E090EDBCFE7FF1450E75E090EA2
:10074000E7CFDBFF070EDBCF14F0156A166A176AD6
:100750000FDA14C00BF015C00CF016C00DF017C066
:100760000EF0EECF06F0EECF07F0EECF08F0EFCFB1
:1007700009F01DEC1CF009C0EDFF08C0EDFF07C03B
:10078000EDFF06C0EFFF390EDBCFE9FFDB063A0EC7
:10079000DBCFEAFF01E2DB06090EDBCFEFFF150E30
:1007A000DB2A4BD995E1030EDBA61DD06F0EDF5C73
:1007B00006E1C1D918E3150EDB285BDA14D0780EF8
:1007C000DF5C09E0580EDF5C06E0620EDF5C03E0F0
:1007D000420EDF5C08E1020EF36E160EF3CFDBFF74
:1007E00002D0150EDB6A030EDB50100B0EE0040E78
:1007F000DBCF14F0050EDB50D880145406E2060E51
:10080000DB5003E1040EDB5034DA95D90AE2050E21
:10081000DBCFE7FF150EDB50E75E050EE7CFDBFF12
:1008200002D0050EDB6A040EDBCF14F0160E45D99C
:10083000D880145414E2160EDBCFE6FF150EDBCF82
:10084000E6FF040EDBCFE6FF050EDB50E552E75C6A
:10085000E552D880E754E552D880E7545FD9030EBB
:10086000DB50010B0BE1080EDB5008E0B2D801E0D1
:100870008DD0080EDB50BED8080EDB6A170EDB5099
:1008800007E088D9170EF1D903E1151C01E17ED0EC
:10089000160EDB5016E07ED9300EE66E9FD802E1D0
:1008A000151C74E077D9DFCFE6FF70EC1BF0E55242
:1008B000E552E552F4CF15F00001F31C02E1151CDE
:1008C00065E0050EDBCF14F0160EDB50D880145413
:1008D00009E2050EDBCFE7FF160EDB50E75E050EE3
:1008E000E7CFDBFF300EE66E050ECBD94FE1390EB8
:1008F000DB2ADBCFE9FF3A0E01E3DB2ADBCFEAFF9D
:10090000090EEFCFDBFFDB500EE044D9090EADD965
:1009100002E1151C3BE0390EDB2ADBCFE9FF3A0E82
:10092000EDE3DB2AEBD755D831E1160EDBCFE6FF3E
:10093000080EC3D8E552E7245DD82ED0070EDB5051
:10094000030A1CE0010A14E0030A07E07BD9DBCFAD
:10095000EEFF020EDBCFEDFF1FD0F5D8196A17AE00
:1009600002D0186819682CD8BCD819C0EEFF14D072
:10097000EAD817BE186824D8B4D80ED063D9DBCF14
:10098000EFFF0AD07BD905E1151C03E1F368F46899
:1009900010D0FCD801E3DB2A79D96BEF00F0010E0F
:1009A000DBCF14F0020EDBCF15F014C0F3FF15C03F
:1009B000F4FF3B0EE15C02E2E16AE552E16ECBD06E
:1009C00029D9020ED1EF05F061D90800F550DF6E8C
:1009D0001200200EE66E080E41EF06F070EC1BF0E0
:1009E000E552E552E552F3CF14F0F4CF15F00001D3
:1009F000F31C1200146E156AD950010F4DD9145012
:100A0000EE261550ED221200185E000E195AF70E50
:100A100018C0DBFFF80E19C0DBFF18C0E9FF19C0D2
:100A2000EAFF1200DBCFF4FFF350F45C1200DB505E
:100A3000E76E040EE7CFDBFF12000A0EDBCF14F0E7
:100A40000B0EDBCF15F00C0EDBCF16F00D0EDBCF4F
:100A500017F014501510161017101200130EEECFC9
:100A6000DBFF140EEDCFDBFF130EDBCF14F0140E03
:100A7000DBCF15F00001800E15141200F70EDBCF4E
:100A800018F0F80EDBCF19F01200050EDB50E66E01
:100A9000D950130F01D9E552E750EE6EED6A1200FE
:100AA0000A0EDBCF06F00B0EDBCF07F00C0EDBCF10
:100AB00008F00D0EDBCF09F01200DBCFE6FF150EBC
:100AC000DBCFE6FF050EDB50E552E724E552E724D5
:100AD0001200DB50CED8010EF36E060EF3CFDBFF13
:100AE0001200EE50EFCFEAFFE96E16C0EEFF17C01E
:100AF000EEFF18C0EEFF1200D9CFE6FFDACFE6FF17
:100B0000E1CFD9FFE2CFDAFF1200DFCFE6FFE66ADE
:100B100074EC1CF0E552E552F3501200E76E080E3B
:100B2000E7CFDBFF1200EECF14F0EECF15F0EFCFE2
:100B300016F0176A1200050EDBCF14F0150EDB500D
:100B4000D88014541200010EDBCF16F0020EDBCF5A
:100B500017F0186A1200E552E5CFDAFFE7CFD9FFA8
:100B600012000A0E14C0DBFF0B0E15C0DBFF1200D3
:100B7000D9500A0F4CEF06F0F36E070EF3CFDBFFF0
:100B80001200EECF14F0EFCF15F01200010EDB2AA9
:100B9000020E1200FC0EDBCFE6FFFD0EDBCFE6FF00
:100BA0001200145E000E155AF70E14C0DBFFF80E8B
:100BB00015C0DBFF14C0E9FF15C0EAFF1200DA2000
:100BC000EA6EEF2AEECFF6FF000EEF22EECFF7FF30
:100BD000EF22EECFF8FF1200040EDBCFE6FF130E7C
:100BE000DB50E552E75C9ADFDB5004DF060EDB509A
:100BF0001200090EDB500A0DF350DF24D00FE76E10
:100C0000090EE7CFDBFFE4EF04F0DB50F36E050ED7
:100C100012EF05F0F70EDBCF14F0F80EDBCF15F076
:100C20001200DFCFE6FFEEEF04F028DF030EECDE6C
:100C300093EF05F040EC00F0E552E552E552E55245
:100C400000091200BDDEEE50EFCFEAFFE96E010EA3
:100C50001200130EDB50F36E040E12EF05F0040EBB
:100C6000DB50F36E090E12EF05F0DBCFE6FFEEEF7F
:100C700004F0E76E050EE7CFDBFF12008BDF11EF0C
:100C800006F0DBCFE6FF86DF1AEF06F0D950F90F4A
:100C9000E96EFF0EDFEF05F0E96E000EDA20EA6E76
:020CA000120040
:0E0CA200D9CFE6FFE1CFD9FF020EE126DE6AD0
:100CB000DD6A6CD8C9EC0CF0AAEC0DF0C8D84AEC8F
:100CC0000BF0E50EE66E2F0EE66E060EE66EE66A99
:100CD0008BEC0DF0E552E552E552E552D00EE66E92
:100CE000070EE66E0FD8E552E55201014C51FDE0CA
:100CF0004C6BAAEC0DF068EC15F022EC10F0D2EC85
:100D00000DF0F3D7D9CFE6FFE1CFD9FF040EE126EE
:100D1000DE6ADD6ADECF14F0DDCF15F0FD0EDBCF2D
:100D200016F0FE0EDBCF17F015501718E8AE02D004
:100D3000173404D01650145C175015581DE2020EDB
:100D4000DB6A030EDB6A020EDBCF14F0030EDBCF8F
:100D500015F0D890155004E6EE0E145C000E1558F0
:100D600006E2020EDB2A030EEEE3DB2AECD7DF2AD3
:100D7000010ED0E3DB2ACED7040EE15C02E2E16A89
:100D8000E552E16EE552E7CFD9FF1200936A956A0A
:100D900043EC0CF09BEC19F04AEC0BF0570EE66EAE
:100DA000120EE66E85EC16F0E552E552AE0EE66EDA
:100DB000240EE66E9BEC16F0E552E552660EE66EEA
:100DC000B70EE66ECAEC16F0E552E552020EE66E7C
:100DD000E66A23EC17F0E552E5520A0EE66EE66A83
:100DE0002FEC17F0E552E5520A0EE66EE66A48EC83
:100DF00017F0E552E5523DEC15F0D7EC18F067EF2F
:100E000013F00101370E616F3B0E626F170E636FB7
:100E1000070E646F1F0E656F0C0E666F0D0E676F09
:100E200061C1E6FFE66A62EC19F0E552E55262C183
:100E3000E6FF010EDDDB63C1E6FF020ED9DBD7EC76
:100E40000BF0DCEC0BF0E1EC0BF0E6EF0BF0200E1E
:100E500092EC0BF0220811E0D4DFE66A100EC8DB3A
:100E6000E66A110EC5DBE66A120EC2DBE66A130EF5
:100E7000BFDB220EE66E200EBBDB1200100E92ECE2
:100E80000BF001016B6F110E92EC0BF001016C6F16
:100E9000120E92EC0BF001016D6F130E92EC0BF041
:100EA0000101716F1200B8DB146EDFDBE66EA6DBAA
:100EB000E66AE66AAADB66C114F0D7DB66C1E6FF24
:100EC0009DDB030EC2EC0BF0B0EC0BF0060EC2EC97
:100ED0000BF064C114F0C9DB64C1E6FF8FDB090EBF
:100EE000C2EC0BF09BEC0BF0E66A010EE66E8DDBBC
:100EF000A2EC0BF0030EC6EC0BF0A9EC0BF0060E07
:100F0000C6EF0BF089DB6451070A24E0010A1EE0FA
:100F1000030A18E0010A12E0070A0CE0010A06E0E1
:100F2000030A1EE1E10EE66E2F0E17D0DD0EE66E0F
:100F30002F0E13D0D90EE66E2F0E0FD0D50EE66E03
:100F40002F0E0BD0D10EE66E2F0E07D0CD0EE66E13
:100F50002F0E03D0C90EE66E2F0EE66EEEEC0BF0F0
:100F60000A0E0101635D06E290DB040EE0DBE3DBC9
:100F7000050E02D0E0DB040EC2EC0BF0C1DB060E66
:100F8000D6DB0A0E0101625D06E27FDB070ECFDBD6
:100F9000D9DB080E02D0D6DB070EC2EC0BF0B0DBBB
:100FA000090EC5DB0A0E0101615D06E26EDB0A0E69
:100FB000BEDBCFDB0B0E02D0CCDB0A0EE3DB010184
:100FC0006D51010A06E0010A0AE1C10EE66E2F0E1C
:100FD00003D0BD0EE66E2F0EE66E0D0EA8DB0101EE
:100FE00066510C0A42E0070A3CE0010A36E0030AB7
:100FF00030E0010A2AE00F0A24E0010A1EE0030A99
:1010000018E0010A12E0070A0CE0010A06E0030AF0
:1010100032E1B90EE66E2F0E2BD0B50EE66E2F0E16
:1010200027D0B10EE66E2F0E23D0AD0EE66E2F0E3A
:101030001FD0A90EE66E2F0E1BD0A50EE66E2F0E4A
:1010400017D0A10EE66E2F0E13D09D0EE66E2F0E5A
:101050000FD0990EE66E2F0E0BD0950EE66E2F0E6A
:1010600007D0910EE66E2F0E03D08D0EE66E2F0E7A
:10107000E66E020E54DB49DB050E51DB0A0E010160
:10108000655D06E242DB060E4ADB6ADB070E02D034
:1010900067DB060E7BDB39DB080E41DB140EE66EE8
:1010A000E66AE66AE66A090EDCDA53EC0EF0146EC4
:1010B000060EE15E145067C114F0D7DA67C1E6FF8F
:1010C0009DDA0B0EC6EF0BF07A0EE66E2F0EE66E73
:1010D00085DBCFDAE66A010EE66E79DA0A0E0101E7
:1010E0006B5D06E2D2DA020E1ADB53DB030E02D08E
:1010F00050DB020E4BDB04DB040E11DB0A0E010198
:101100006C5D06E2C2DA050E0ADB4ADB060E02D08F
:1011100047DB050E3BDBD5DA070E01DB01016D5124
:10112000010A06E0010A0AE1C10EE66E2F0E03D0A5
:10113000BD0EE66E2F0EE66E0A0EF1DAEBDA0D0E3C
:101140008FEF0BF0010169510B0A01E1CFD0010AC9
:1011500001E1A9D0030A01E183D0010A5FE00F0A8F
:1011600036E0010A0DE0060A01E0E3D0AFDA01E162
:10117000E3D00101720501E0DFD0060E696F1200B5
:101180002ADB03E276DA040ED2DAA3DA09E00101FF
:10119000632989DA05C063F105C0E6FF020E28DA8B
:1011A0009BDA0CE001016305636FE850170802E267
:1011B000170E636F63C1E6FF020E1ADA87DA03E0E7
:1011C0000101070E696F8BDA01E1B6D0AFD003DB06
:1011D00003E24FDA070EABDA7CDA09E0010162299B
:1011E00066DA05C062F105C0E6FF010E01DA74DAC5
:1011F0000CE001016205626FE8503B0802E23B0E21
:10120000626F62C1E6FF010EF3D960DA03E001010B
:10121000080E696F64DA01E18FD088D0DCDA02E26F
:1012200050DADCDA56DA09E001016429646FE8502B
:10123000070802E2010E646FBADA4EDA09E0010132
:101240006405646FE850070802E2070E646FAFDAC6
:101250003DDA03E00101090E696F41DA6DE066D005
:10126000BADA03E206DA060E5ADA33DA09E00101E5
:101270006529656FE8501F0802E2010E656F9CDA70
:101280002BDA09E001016505656F010E655D02E27B
:101290001F0E656F91DA1ADA03E001010A0E696F19
:1012A0001EDA4AE043D097DA03E20BDA020E37DAAD
:1012B00010DA09E001016629666FE8500C0802E2C5
:1012C000010E666F7EDA08DA09E001016605666FD5
:1012D000010E665D02E20C0E666F73DAF7D903E069
:1012E00001010B0E696FFBD927E020D074DA03E20D
:1012F00011DA090E14DAEDD908E001016729676FE8
:10130000E850630801E2676B61DAE6D909E00101A0
:101310006705676FE850630802E2630E666F56DA8E
:10132000D5D902E0C8D9696BDAD906E0C4D9696BAE
:101330001200010E726F686B120001016851FF0A02
:1013400001E18AD0FC0A61E0010A37E0030A0DE0FE
:10135000010A01E0120046DA01E18FD001017205B5
:1013600001E08BD0010E686F120001DA03E281D92F
:10137000020ED5D9040E6FD909E001016B2993D96A
:1013800005C06BF105C0E6FF100E32D9050E63D91A
:101390000CE001016B056B6FE850170802E2170EB5
:1013A0006B6F6BC1E6FF100E23D91CDA03E001015D
:1013B000020E686F63D961E04CD0D9D903E259D9E4
:1013C000050EADD9040E47D909E001016C296FD98A
:1013D00005C06CF105C0E6FF110E0AD9050E3BD918
:1013E0000CE001016C056C6FE8503B0802E23B0E1B
:1013F0006C6F6CC1E6FF110EFBD8F4D903E001015C
:10140000030E686F3BD939E024D0B1D903E259D932
:101410000A0E85D9040E1FD907E001016D29010BC1
:101420006D6FE66E120EE4D8050E15D90CE00101C1
:101430006D056D6FE850010802E2010E6D6F6DC120
:10144000E6FF120ED5D8CED902E00101686916D99F
:1014500014E031D9686B12008AD903E25BD90A0E15
:1014600066D9040EF8D803E1050EF5D801E03AD9A3
:10147000B9D903E037D90F01746F12000F01010EC3
:101480004E1903E14F5101E1010C000C0F010A0E4E
:101490004E1903E14F5101E1010C000C0F01010E47
:1014A000561903E1575101E1010C000C0F010A0E1E
:1014B000561903E1575101E1010C000C0F01010E17
:1014C000501901E1515115E00A0ED8805055000E17
:1014D000515510E250CF14F051CF15F0030E0D6EA0
:1014E0000E6A50CF08F051CF09F003D903E115502F
:1014F00001E1010C000C0F01010E581901E15951D5
:1015000015E00A0ED8805855000E595510E258CFF4
:1015100014F059CF15F0030E0D6E0E6A58CF08F077
:1015200059CF09F0E6D803E1155001E1010C000C98
:1015300001016B51635D0AE16C51625D07E161512C
:1015400005E16D0503E1720501E1010C000C0101EB
:101550006A51050A16E0010A05E0040A01E01200DA
:10156000040E0DD0E5DF000906E00101010E716FE8
:10157000E66E130E3DD80101715128E0050E6A6F29
:101580001200726B7329146E140EF6D805C073F135
:101590000A0E0101055C02E2AAEC0DF001016F2BBD
:1015A000000E7023900ED8806F55010E70550EE21C
:1015B000010E726F716B71C1E6FF130E19D8010134
:1015C0006F6B706BAAEC0DF001016A6B1200A1EC5D
:1015D0000EF0E552E552E552E55212006E29146E06
:1015E000140ECAD805C06EF1010105500F08120093
:1015F000E66E62EC19F0E552E552120015C0E6FF06
:1016000016C0E6FF17C0E6FF120053EC0EF0186E8E
:10161000060EE15E18501200E66A6DEC19F0E55214
:101620000101616F010E7ED80101626F020E7AD84E
:101630000101636F030E76D80101646F040E72D846
:101640000101656F050E6ED80101666F060E6AD83E
:101650000101676F1200E66E8AEC15F0E552000991
:101660001200E66E010EE66E1200156A166A176A1F
:101670001200770EE66E2F0EE66E1200060EE66E74
:1016800094EC15F0E55200091200C70EE66E2F0E1D
:10169000E66E1200E80EE66E030EE66E82EC06F0D1
:1016A000E552E5521200146E180EBCEF0BF0146EEA
:1016B0003C0EBCEF0BF0AAEC0DF00101010E726FB5
:1016C0001200730EE66E2F0EE66E1200D7DE0009D2
:1016D0001200F4DE000912000EDF00091200D6DE4F
:1016E00000091200AAEC0DF00101686B010E726F87
:1016F00012005EEC1CF005C015F0010E041812007B
:10170000C50EE66E2F0EE66E12008B0EE66E2F0EE5
:10171000E66E12006E0EE66E2F0EE66E1200A1DF70
:10172000E7EF0AF0E66E6DEC19F0E5521200E66E96
:10173000E66AE7EF0AF063C114F097DF63C1E6FFE2
:10174000FEEF0AF062C114F090DF62C1E6FFFEEF27
:101750000AF061C114F089DF61C1E6FFFEEF0AF013
:1017600065C114F082DF65C1E6FFFEEF0AF0726B1F
:10177000ABDC0101EEEF0AF0156E0E6E14C009F03D
:10178000B2EF1CF0E66EE66A05EF0BF06ADF05EFDC
:101790000BF06BC114F069DF6BC1E6FFFEEF0AF0DE
:1017A0006CC114F062DF6CC1E6FFFEEF0AF064C1A9
:1017B000E6FF030EF8EF0AF065C1E6FF040EF8EF4E
:1017C0000AF066C1E6FF050EF8EF0AF067C1E6FF12
:1017D000060EF8EF0AF0726BEEEF0AF0E66AE66AC0
:0A17E000E7EF0AF0060E2BEF0BF006
:0617EA0009EC10F07BDBAE
:1017F00015AE02D01668176820DB13E289DB49DBDF
:1018000004E6050E145C000E155806E2020EDB2AF3
:10181000030EF5E3DB2AF3D7DF2A010EE8E3DB2A28
:10182000E6D7040EE15C02E2E16AE552E16EBBD26A
:10183000F0DB59DB15AE02D016681768FEDA13E24A
:1018400067DB27DB04E6EE0E145C000E155806E29B
:10185000020EDB2A030EF5E3DB2AF3D7DF2A010EA3
:10186000E8E3DB2AE6D7040EE15C02E2E16AE55236
:10187000E16E99D2D4DBF00B6BDBFE0EDB38F00BA4
:10188000811278DA90D2C2DB190E50DB0F0E81166E
:10189000F80E81160F0E8116300E5ADB300E58DB13
:1018A000300E56DB818A66DA280EE66EE3DFE552FB
:1018B0000C0EE66EDFDFE552E55275D29DDB010EC0
:1018C000DB6A81944ADBE76E010EE7CFDBFF81968E
:1018D00044DBDF6E010EDB50DF128196010E51DA20
:1018E000DF50146E020EE15C02E2E16AE552E16E45
:1018F000145059D28BDBDF6AE1DFDF6EDFBEFCD72D
:10190000DF50E55250D28BDB81128186050E39DA29
:101910008196050E36DA47D241DA8194050E31DA26
:1019200098DA41D23BDA8184050E2BDA92DA81947F
:101930003AD23BD33AD332DAFD0EDBCFF6FFFE0EBE
:10194000DBCFF7FF0800F5500DE0FD0EDBCFF6FF13
:10195000DB2AFE0EDBCFF7FF01E3DB2A0800F550A0
:101960001BDBEAD720D252DBFD0EDB500F0B146ECF
:10197000FE0EDB50010B400DF3501424DF6E7F0E82
:10198000DF14800FDF6EDFCFE6FFC6DFE552E552E2
:101990000AD2010EE66EC0DFE552E66AE66A15EF8E
:1019A00010F0FCD9050EE126010EF36EDB6EB0DA05
:1019B000040EDB6ADF6ADFCF14F0156A14BE156807
:1019C00099DA15501718E8AE02D0173404D0165023
:1019D000145C175015581FE2FD0EDBCF14F0FE0EFD
:1019E000DBCF15F0166A176A15AE02D016681768B5
:1019F000D950010FE96EDACFEAFF14C00BF015C021
:101A00000CF016C00DF017C00EF0DBDAB2EC1BF0D4
:101A1000E1DADF2AD0D7010EDBCF14F0020EDBCFE4
:101A200015F0030EDBCF16F0040EDBCF17F014C059
:101A300006F015C007F016C008F017C009F0050E33
:101A4000E15C02E2E16AE552E16EADD1D5DAFB0E6E
:101A5000DBCF14F0FC0EDBCF15F0FD0EDBCF16F064
:101A6000FE0EDBCF17F0145015101610171003E1FF
:101A7000300E92DA36D0D950FB0F14DA01E618DABC
:101A800005E22D0E89DAD950FB0FCAD9DE52070EB6
:101A9000DD6E37DAE8AE02D0143403D0E750D880D8
:101AA00014541FE217DA18BE196871D936DA5EDAF3
:101AB00008DA0BE0010EDF6EDB041C6E1D6A1CBE33
:101AC0001D6883D953DA9FD903D0DF5002E0300E6E
:101AD00063DA00DA18BE19685AD9D950FB0F6CD9ED
:101AE000D8D7020EE15C02E2E16AE552E16E5BD119
:101AF00055D9C7D9D950F90F53DAEECFE6FFEECF5B
:101B0000E6FFEECFE6FFEFCFE6FFA0DFE552E552BE
:101B1000E552E55248D142D9B4D9FB0EDBCFE6FFFE
:101B2000FC0EDBCFE6FF07DFE552E5523CD136D9AC
:101B3000FCC014F0FDC015F0040ED8901436153614
:101B4000E806FBE192D9FE0EDBCFEFFFFE2B000E85
:101B5000FF2329D15BDADF6ADFCF14F0100EE76EC6
:101B60001418E8AE02D0E73402D0E750145C18E253
:101B7000DFCFE9FFEA6AE9BEEA68C10EE926000E96
:101B8000EA22200EEF6EDFCFE9FFEA6AE9BEEA68DB
:101B9000D10EE926000EEA22200EEF6EDF2ADCD7F6
:101BA000E55201D133DA0001C051030A29E0010AEC
:101BB0001CE0030A0CE0010A32E13BDA080EDF5CAC
:101BC00003E2DF50B9D9FAD70001010E17D0080E91
:101BD000E66EE66A09D9080EDF5C04E2080EDF242F
:101BE000ABD9F9D70001020E09D00BDA080EDF5C81
:101BF00003E2DF50A7D9FAD70001030EC06F10D05F
:101C0000080EE66E010EE66EEFD8080EDF5C04E209
:101C1000080EDF2497D9F9D70001C06B01D0C06B43
:101C2000E552C1D0F3D90001C051010A0DE0010A0B
:101C300015E1FFD9100EDF5C03E2DF507DD9FAD742
:101C40000001010EC06F0BD0DCD9100EDF5C03E287
:101C5000DF5078D9FAD70001C06B01D0C06BE552D4
:101C6000A2D0D4D9E6D9100EDF5C03E2DF5064D9EC
:101C7000FAD7C7D9100EDF5C03E2DF5063D9FAD779
:101C8000E55291D08BD8B3D8FCC014F0FDC015F04C
:101C9000040ED89014361536E806FBE1E6D8FC0EA3
:101CA000DBCFEFFF80D0A8D9A2D8F90EDBCF14F09C
:101CB000FA0EDBCF15F01ED91450151016101710A0
:101CC00003E1300E0CD936D0D950F90FEBD801E62C
:101CD000EFD805E22D0E03D9D950F90FA1D8DE5265
:101CE000070EDD6E0ED9E8AE02D0143403D0E750F3
:101CF000D88014541FE2EED818BE196848D80DD900
:101D000040D9DFD80BE0010EDF6EDB041C6E1D6ACC
:101D10001CBE1D685AD835D976D803D0DF5002E0F2
:101D2000300EDDD8D7D818BE196831D8D950F90F80
:101D300043D8D8D7020EE15C02E2E16AE552E16ED7
:101D400032D02CD854D8FB0EDBCFF6FFFC0EDBCF05
:101D5000F7FF0800F5500DE0FB0EDBCFF6FFDB2AA6
:101D6000FC0EDBCFF7FF01E3DB2A0800F550B7D804
:101D7000EAD719D08186010ED9D88196010E96EF47
:101D80000FF0E66EE66AE66AE66A2FDD56D118C005
:101D9000E6FF19C0E6FF10D9F3EF0FF0D9CFE6FF49
:101DA000E1CFD9FF1200E552E7CFD9FF1200EA22B6
:101DB000EF50F2D8DF2A1200F3D8AFD802D91DECC9
:101DC0001CF008D9010EDB0612001CC0E6FF1DC086
:101DD000E6FFF2D806C018F007C019F008C01AF0E4
:101DE00009C01BF08DEF0FF020D9DF6A1200FE0E44
:101DF000DB50010B0001FC6FFD6BFD0EDB500F0B88
:101E0000FE6FFF6B1200DBCF09F01DEC1CF0EBD86E
:101E1000300E1426000E152216221722145012001E
:101E2000BFD8000EEE6CEF1EEE22EF1EEE22EF1E6C
:101E3000EF22ED52ED52ED521200D950FB0FB0D807
:101E4000EE50145CEE501558EE501658EE501758E0
:101E50001200FE0EDBCFE6FF56DDE552FE0EDB384C
:101E6000F00BE66E50DDE5521200C10E1426000E96
:101E7000152214500001FE25E96E1550FF21EA6E6F
:101E80001200FD0EDBCFE6FFFE0EDBCFE6FF15EF07
:101E900010F0020EDBCF14F0030EDBCF15F0D8905C
:101EA000155012007DD8D890030EEB50000A120096
:101EB000000EEE5C000EEE58000EEE58000EEE58CE
:101EC0001200DBCF09F01DEC1CF0065007100810C3
:101ED00009101200010EDB04186E196A1200E66E7A
:101EE00026DEE5521200DECF14F0DDCF15F0166AC3
:101EF000176A1200FB0EDBCF16F0FC0EDBCF17F0DB
:101F00001200010EDBCF14F0000EE76E1418120061
:101F1000020EDB6A030EDB6A120006C00BF007C07C
:101F20000CF008C00DF009C00EF01200E66EE66A73
:101F3000E66AE66A7DDC81D0EA6AC10FE96E000ECE
:101F4000D7EF0EF0EA6AD10FE96E000ED7EF0EF070
:101F5000811210DF0F0E811612000F0E12DF0F0E0E
:101F6000811281860EDF0F0E81141200FB0EDBCF73
:101F700006F0FC0EDBCF07F0FD0EDBCF08F0FE0E07
:101F80001200F90EDBCF06F0FA0EDBCF07F0FB0EE6
:101F9000DBCF08F0FC0E1200E66ECCDCE55212003E
:101FA000E96EFF0EDA20EA6E1200F8DEFE0EDBCFDD
:101FB000E6FFB8DCE552F7D60A0EE66EE66AF1DC1B
:101FC0003CD0EECF06F0EECF07F0EECF08F0EFCF2B
:101FD00009F0120005C0EDFF04C0EDFF03C0EDFFE6
:101FE00002C0EFFF120006C014F007C015F008C0D1
:101FF00016F009C017F01200D1DE020EE126DF6AEA
:102000001200E66A010EE66EF4EF0EF0C7DEE6524D
:102010001200C4DE040EE126DE6ADD6A1200BEDEB6
:102020000F0E8116FE0EDB5012009DDCE552E552CC
:102030001200E66AE66AF4EF0EF0E552E552E55268
:04204000E552120053
:0C2044000F016E5102E1010E6F1901E165
:1020500019D1060E6E1901E16F5101E1F3D0070E9F
:102060006E1901E16F5101E1E9D0050E6E1901E130
:102070006F5101E1B4D0040E6E1901E16F5101E11D
:102080008ED01E0E6E1901E16F5165E0030E6E19C0
:1020900001E16F513DE0140E6E1901E16F512DE029
:1020A000020E6E1901E16F5115E0010E6E1901E18A
:1020B0006F5101E0120082EC07F0A7EC0AF0EBDAB6
:1020C00001E3F3D0020E0F016E6F6F6B010E706FA4
:1020D000716B12005C0EE66E310EA9DA4D0EE66EE3
:1020E000310EAADA05E259DA030E0F016E6F6F6B3B
:1020F000D2DA01E3DAD0140ED4D064EC08F09DEC0F
:1021000009F00F01745101E1D0D0746B020ECAD0F6
:10211000020E70190AE1715108E1400EE66E310EAF
:1021200086DA310EE66E310E07D0310EE66E310ED4
:102130007EDA240EE66E310E7FDA01E2AFDABADA29
:1021400005E22BDA020E0F016E6F6F6BA4DA01E36A
:10215000ACD01E0EA6D0BDD80F01755101E0A6D897
:10216000040E3CDA03E00F01010E756F050E36DA3E
:1021700002E00F01756B050EE66E94EC15F0E5526A
:10218000000902E00F0139DA060E28DA01E18DD0EC
:102190000F01756B32DA0F01746B030E83D0030EDF
:1021A00070190AE1715108E14D0EE66E310E3FDA09
:1021B000170EE66E310E07D0170EE66E310E37DAC7
:1021C0000A0EE66E310E38DA05E2E7D9050E0F0188
:1021D0006E6F6F6B6FDA69E2E0D9030E62D0040EA6
:1021E00070190AE1715108E1240EE66E310E1FDA12
:1021F000FD0EE66E300E07D0FD0EE66E300E17DADD
:10220000F30EE66E300E18DA01E24EDA53DA01E22E
:1022100045DA41DA4AE2CD0EE66E300ED5D99E0E91
:10222000E66E300ED1D98E0EE66E300ECDD96C0E24
:10223000E66E300EC9D9E8D9070E33D0A6D82BDA0E
:1022400034E21ED0050E70190AE1715108E10A0E40
:10225000E66E310EECD9620EE66E300E07D0620EDD
:10226000E66E300EE4D95C0EE66E300EE5D905E27E
:1022700094D90F016E6B010E6F6F1CDA16E28DD9C7
:10228000050E0FD0F30EE66E300ED1D9560EE66E67
:10229000300E17DA0FDA01E207DAFDD906E27DD94E
:1022A000010E0F016E6F6F6B12001200050E0F0111
:1022B0007927640E795D02E3796B782B3C0E785DAB
:1022C00002E3786B772B3C0E775D02E3776B762B1E
:1022D0001200460EE66E300EAAD9430EE66E300EA0
:1022E000F0D90A0E0F01765D06E282D9020EA8D956
:1022F000B6D9030E02D0B3D9020E49D9040EA0D923
:102300000A0E0F01775D06E273D9050E99D9AED991
:10231000060E02D0ABD9050E3AD9070E91D90A0E96
:102320000F01785D06E264D9080E8AD9A6D9090E94
:1023300002D0A3D9080E2BD90A0E82D90A0E0F019A
:10234000795D06E255D90B0E7BD99ED90C0E02D0D1
:102350009BD90B0E25EF13F0D9CFE6FFE1CFD9FFC4
:10236000E65201017F51EA6A010FE96E010EEA228D
:10237000EFCFDFFF7F293F0B7F6FDF50E552E55244
:10238000E7CFD9FF120004EF13F0010E0F017A1905
:1023900001E17B5101E0120090D904E276D80101FD
:1023A00080071200120089D92FE2FCD82DE30351D7
:1023B00039082AE319D928E2FED826E3035139085F
:1023C00023E329D9006F79D91FE2ECD81DE303512B
:1023D00039081AE309D918E2EED816E3035139088F
:1023E00013E319D9016F69D90FE2DCD80DE303516A
:1023F00039080AE3F9D808E2DED806E303513908C0
:1024000003E3300E045F04D02E0EE66E300E3BD098
:102410000A0E0303F3500425026FE66EE66A02D942
:1024200001CFE6FF010EE66EFDD800CFE6FF020EFB
:10243000E66EF8D80F010251E66EE66A0151E66ECB
:10244000E66A0051E66EE66A090E146E300E156EED
:10245000166A14C0E6FFE66E16C0E6FF060EE66ECC
:102460000F0EE66ECBEC1AF0176E0B0EE15E1750F6
:10247000060EE66E0F0EE66EB7EC13F0E552E5526F
:10248000F10EE66E2F0EE4EF12F0D9CFE6FFE1CFAA
:10249000D9FFE65261DFDF6EDFCFE6FFAFEC13F06E
:1024A000E552140E0F01721901E1735152E00E0E44
:1024B000721901E1735141E00C0E721901E173517F
:1024C00033E00B0E721901E1735125E00A0E721907
:1024D00001E1735117E0020E721901E1735109E035
:1024E000010E72193BE1735139E1210EDF5C36E1D7
:1024F0002CD0540EDF5C02E10A0E2ED0210EDF5CE0
:1025000026E123D0490EDF5C02E10B0E25D0210E1F
:10251000DF5C1DE11AD04D0EDF5C02E10C0E1CD019
:10252000210EDF5C14E111D0450EDF5C02E10E0EDE
:1025300013D0210EDF5C0BE108D0230EDF5C02E13B
:10254000140E0AD0210EDF5C02E1020E05D0010E4E
:1025500003D029DF010E0F01726F736BE552E55254
:10256000E7CFD9FF1200A1EC0EF0E552E552E5529B
:10257000E5521200E66E8AEC15F0E55200081200F2
:1025800015C0E6FF16C0E6FF17C0E6FF12005DD8D3
:102590003F0EE66E300EE66E12006ECF70FF6FCF0C
:1025A00071FF1200D9DE0F01036F01018007300EA9
:1025B0000F01035D1200D0DE0F01046F01018007DF
:1025C000300E0F01045D1200E66EA7EC14F0E55228
:1025D000E5521200156A166A176A1200E66E8AEC56
:1025E00015F0E55200091200300E035F5DEF13F0A5
:1025F000410EE66E300EE66E1200766B776B786BEE
:10260000796B0F01056B120001017E6B01017F6B7D
:102610000101806B1200300E045F0A0E0303F350B9
:102620000425120062EC19F0E552E5521200E66E44
:10263000E66AE66AB3EF12F044D8050EBAEF12F07C
:10264000E66E010EE66EB3EF12F0E66E010EE66E78
:1026500053EC0EF0186E060EE15E1850120076CFA5
:1026600014F0B8DF76CFE6FFC0EF12F077CF14F0AA
:10267000B1DF77CFE6FFC0EF12F078CF14F0AADF1A
:1026800078CFE6FFC0EF12F079CF14F0A3DF79CF57
:10269000E6FFC0EF12F0060EBAEF12F07EDF040E76
:1026A0000F016E6F6F6B120078DF060E0F016E6FF9
:1026B0006F6B1200040EBAEF12F001018051000896
:0E26C0001200E66EE66A010EE66EB3EF12F04F
:0226CE00B06AF0
:1026D000810EAF6EAC8AAC94B886AC98AB8EAB88EA
:1026E0009E9A9D8A9F8A949C948E120069D9040EAA
:1026F000E126DE6ADD6ADECF14F0DDCF15F097D972
:1027000015501718E8AE02D0173404D01650145CD8
:10271000175015581DE2020EDB6A030EDB6A020E2B
:10272000DBCF14F0030EDBCF15F0D890155004E684
:10273000EE0E145C000E155806E2020EDB2A030EA4
:10274000EEE3DB2AECD7DF2A010ED5E3DB2AD3D771
:10275000040EE15C02E2E16AE552E16E36D130D965
:102760009EA8FED7FE0EDB50AD6E9E982ED128D9C6
:1027700056D908E054D934D9FD0EDB2AFE0EF8E311
:10278000DB2AF6D722D11CD9050EE126010EF36E05
:10279000DB6E020EDB6A030EDB6A040EDB6ADF6AA5
:1027A000DFCF14F0156A14BE1568FB0EDBCF16F0F0
:1027B000FC0EDBCF17F015501718E8AE02D0173417
:1027C00004D01650145C175015581FE2FD0EDBCFD5
:1027D00014F0FE0EDBCF15F0166A176A15AE02D0A4
:1027E00016681768D950010FE96EDACFEAFF14C0F6
:1027F0000BF015C00CF016C00DF017C00EF0F4D899
:10280000B2EC1BF0FAD8DF2ACBD7010EDBCF14F0E5
:10281000020EDBCF15F0030EDBCF16F0040EDBCF7C
:1028200017F014C006F015C007F016C008F017C066
:1028300009F0050EE15C02E2E16AE552E16EC5D005
:10284000BFD8020EE126DF6AFB0EDBCF14F0FC0ED0
:10285000DBCF15F0ECD8145015101610171003E14B
:10286000300EBED86DD0B5D8D890030EEB50000A0C
:1028700008E6000EEE5C000EEE58000EEE58000E5C
:10288000EE580EE22D0EACD8A4D8000EEE6CEF1E62
:10289000EE22EF1EEE22EF1EEF22ED52ED52ED5230
:1028A000DE520A0EDD6E010EDBCF14F0000EE76E75
:1028B0001418E8AE02D0143403D0E750D880145472
:1028C0003FE2010EDB04186E196A18BE196871D850
:1028D00061D806500710081009101EE0010EDF6EC7
:1028E000DB041C6E1D6A1CBE1D681CC0E6FF1DC0FB
:1028F000E6FFA4D806C018F007C019F008C01AF007
:1029000009C01BF047D8A3D8300E1426000E15229C
:1029100016221722145003D0DF5002E0300E60D888
:10292000010EDB04186E196A18BE196842D851D816
:1029300097D85AD81DEC1CF060D8010EDB06B3D72F
:10294000020EE15C02E2E16AE552E16E3ED038D867
:102950005DD80CE05BD844D8FD0EDBCFF6FFDB2A58
:10296000FE0EDBCFF7FFF4E3DB2AF2D72ED028D818
:10297000E652AE50DF6E01017E51EA6A010FE96E48
:10298000010EEA22DFCFEFFF7E293F0B7E6F802B07
:10299000E5521BD065D8FB0EDBCF06F0FC0EDBCF7B
:1029A00007F0FD0EDBCF08F0FE0EDBCF09F01DEFC8
:1029B0001CF018C0E6FF19C0E6FF40D827EF15F05D
:1029C000D9CFE6FFE1CFD9FF1200E552E7CFD9FF1B
:1029D0001200D950FB0FE96EFF0EDA20EA6E1200EA
:1029E000E66EBDDEE5521200EECF06F0EECF07F048
:1029F000EECF08F0EFCF09F0120005C0EDFF04C0E4
:102A0000EDFF03C0EDFF02C0EFFF1200FD0EDBCFB4
:102A1000F6FFFE0EDBCFF7FF0800F5501200FD0EAB
:102A2000DBCFE9FFFE0EDBCFEAFFEF501200FD0E19
:102A3000DBCF16F0FE0EDBCF17F012000A0EE66EAB
:102A4000E66AA1DEE552E552E552E552120006C003
:102A500014F007C015F008C016F009C017F01200F6
:102A600006C00BF007C00CF008C00DF009C00EF056
:022A7000120052
:0E2A72000F0E946E82681200070E9410946E80
:102A8000DF0E9414946E82681200D0D808D901E643
:102A900001D917E2DDD8826EF8D8D1D801E6FAD88C
:102AA0000BE2B7D802E1FFD801D01DD9020EDB2A14
:102AB000030EF3E3DB2AF1D7DF2A010EE7E3DB2A7B
:102AC000E5D7040EE15C02E2E16AE552E16ED9D09D
:102AD000ADD8DBD8010EDE6EDD6ABAD88214826E04
:102AE000D4D8ADD804E6030E145C000E15580BE2E2
:102AF00090D802E1D8D801D0F6D8020EDB2A030E16
:102B0000F0E3DB2AEED7040EE15C02E2E16AE55273
:102B1000E16EB7D0A7D8010EEE1804E1ED5002E146
:102B2000010E01D0000EADD09DD8320EEE1804E19A
:102B3000ED5002E1010E01D0000EA3D077D8D7D816
:102B4000FD0EDBCF16F0FE0EDBCF17F01550171879
:102B5000E8AE02D0173404D01650145C1750155844
:102B600013E293D86CD804E6EE0E145C000E1558F0
:102B700006E2020EDB2A030EF5E3DB2AF3D7DF2A97
:102B8000010EDDE3DB2ADBD7040EE15C02E2E16A41
:102B9000E552E16E76D04AD882D801E67BD822E2AF
:102BA00057D8826E72D84BD801E674D80DE29BD804
:102BB00030D804E11ED8010EEE6EED6A020EDB2A5B
:102BC000030EF1E3DB2AEFD78250816EE80EE66E4A
:102BD000030EE66EB3DFE552E552DF2A010EDCE3B9
:102BE000DB2ADAD7040EE15C02E2E16AE552E16E2B
:102BF00048D07DD8D89014361536D890143615366E
:102C0000020EDB501424E96E030EDB5015207CEF1E
:102C100016F0020EDBCFE9FF030EDBCFEAFF6A0EF0
:102C2000E9260F0EEA22EF5082141200D9CFE6FFF8
:102C3000E1CFD9FF040EE126DE6ADD6A1200020E42
:102C4000DBCF14F0030EDBCF15F0D8901550120037
:102C5000DECFE9FFDDCFEAFF660EE9260F0EEA229E
:102C6000EF1C1200D9CFE6FFE1CFD9FFFE0EEA6AD2
:102C7000DB34FE0BEA36E96E460EE9260F0EEA2239
:102C80001200E552E7CFD9FF1200020EDB6A030EF5
:102C9000DB6A1200040E145C000E1558120027D8CF
:102CA000D89015501200DECF18F0DDCF19F0D89073
:102CB00018361936D89018361936020EDB501824FB
:102CC000E96E030EDB50192017D8EECF16F0EFCFC8
:102CD00017F0010E1626000E17228BDF16C0EEFF2E
:102CE00017C0EDFF120085DFEE6AED6A1200DECF3D
:102CF00014F0DDCF15F01200EA6ED890E936EA360E
:0A2D0000460EE9260F0EEA2212002B
:062D0A00F1D8D59EFD0E7C
:102D1000DBCF41F1FE0EDBCF42F1D59C05D9D59A30
:102D2000D586F28AF294F184D58EE6D0D59E120033
:102D3000FBD8D58E1200DBD8CD90FD0EDBCF43F152
:102D4000FE0EDBCF44F1F7D89D809E909F90CD8EF4
:102D5000CD8CCD98CD9ACD96CD92CD80CDD0EBD8DF
:102D6000CD801200CD901200C2D8CA94CC6AFE0E5B
:102D7000DB500101456F466BCB6E9D829E929F9208
:102D8000CA90CA92CA84B8D045C1CBFFCA84120087
:102D9000CA941200ACD8B190FD0EDBCF47F1FE0E05
:102DA000DBCF48F1CFD80750B36ECCD8B5D8B26ED0
:102DB000A082A192A292B18EB198B19AB192B18043
:102DC0009BD0C0D80350B26EBDD89ED8B36EB18030
:102DD0001200B19012000101512B000E52235951E3
:102DE000515D5A51525904E3516B526B010E496FB8
:102DF00012000101532B000E54235B51535D5C51B3
:102E0000545904E3536B546B010E4A6F12000101D5
:102E1000552B000E56235D51555D5E51565904E306
:102E2000556B566B010E4B6F12000101572B000EB4
:102E300058235F51575D6051585904E3576B586BE5
:102E4000010E4C6F120053D8FD0EDBCF59F1FE0E70
:102E5000DBCF5AF10101516B526B496B4DD047D812
:102E6000FD0EDBCF5BF1FE0EDBCF5CF1050E0D6ED0
:102E70000E6A5BC108F05CC109F04BEC1AF008C0A7
:102E80005BF109C05CF10101536B546B4A6B34D0A8
:102E90002ED8FD0EDBCF5FF1FE0EDBCF60F10A0E08
:102EA0000D6E0E6A5FC108F060C109F04BEC1AF0BC
:102EB00008C05FF109C060F10101576B586B4C6BA2
:102EC0001BD01C6A1A50175C146E1B501858156ED4
:102ED0001C501958166E0C6A010E0D6E0E6A14C045
:102EE00007F015C008F016C009F071EF1AF0D9CF3D
:102EF000E6FFE1CFD9FF1200E552E7CFD9FF12007C
:102F000017681868196A120007C014F008C015F095
:102F100009C016F00750120003C014F004C015F0E9
:102F200005C016F00350120014D80350D66E11D805
:102F3000EBDFD76E120014D80750CF6E11D8ECDF3C
:102F4000CE6E1200DDDF47C11AF048C11BF061EF01
:102F500017F0D6DF41C11AF042C11BF061EF17F044
:0E2F6000CFDF43C11AF044C11BF061EF17F040
:022F6E00202021
:102F7000202000202020002020002020414C415211
:102F80004D2020204241434B202000200044454357
:102F9000004E4F56004F4354005345500041554793
:102FA000004A554C004A554E004D4159004150527F
:102FB000004D415200464542004A414E004F4E20CE
:102FC000004F4646003A00300053415400465249F3
:102FD000005448550057454400545545004D4F4E48
:102FE0000053554E00414C41524D20434C4F434BF2
:102FF0000054696D652055706461746520636F6D60
:10300000706C657465210D0A000D0A54696D6520A8
:1030100069732073657420746F20252E3032643AF2
:10302000252E3032643A252E3032640D0A000D0A06
:10303000496E76616C69642074696D650D0A003AA9
:1030400000300020200020202053544F505741547E
:103050004348202020003E4261636B0020426163B0
:103060006B003E4C616E6775616765005468652052
:1030700074696D65206E65656420746F20626520DB
:1030800032342D6820666F726D61740D0A00215410
:10309000494D45232D48484D4D53530D0A00546F5B
:1030A0002073796E6368726F6E697A652074696DDA
:1030B000652C207573696E672073796E7461782052
:1030C000617320666F6C6C6F773A0D0A0057656C00
:1030D000636F6D6520746F20416C61726D20436C6D
:1030E0006F636B20636F6E736F6C65206D656D75BC
:1030F0000D0A00204C616E6775616765003E54697A
:103100006D65206D6F64696679002054696D652076
:103110006D6F64696679003E54696D657220436C19
:103120006F636B002054696D657220436C6F636B35
:10313000003E436F756E74657220436C6F636B0065
:1031400020416C61726D20436C6F636B0020436F94
:10315000756E74657220436C6F636B003E416C61E9
:09316000726D20436C6F636B007B
:06316A00BED8020EE126B2
:10317000FE0EDB500F0BDF6EFE0EDB380F0B0A0D61
:10318000BCD802E2E16AE552E16E1450B2D0ACD88C
:10319000020EE126BBD80550DF6EB8D80950100DDD
:1031A000ACD802E2E16AE552E16E1450A2D09486F6
:1031B0009488C79EC79CC690C692C694C686310E98
:1031C000C86EC68A120090D89E96FE0EDB50D00FB5
:1031D000C96E9EA6FED78DD09E96C5809EA6FED7B0
:1031E00012009E96C5849EA6FED712007DD89E969C
:1031F000FE0EDB50C96E9EA6FED77BD09E96C5867E
:103200009EA6FED7C95012009E96C59AC5889EA656
:10321000FED712009E96C58AC5889EA6FED71200CC
:1032200063D87CD8010E816FE85004E0C550400B94
:10323000FAE0F8D779D8010E816FE85004E0C55064
:10324000400BFAE0F8D7FD0EDBCFE6FFA0DFE5523A
:10325000E66ECCDFE5520101010E816FE85004E01B
:10326000C550400BFAE0F8D7BCDF43D03DD8E6525A
:1032700055D8010E816FE85004E0C550400BFAE0CC
:10328000F8D752D8010E816FE85004E0C550400BCA
:10329000FAE0F8D7A1DF010EE66E95DFE5520101F5
:1032A000010E816FE85004E0C550400BFAE0F8D7FA
:1032B000A5DFDF6EDFCFE6FF58DFE552DF6EDF50C0
:1032C000E55217D011D8FD0EDBCFE6FFFE0EDBCFA7
:1032D000E6FFA6DFE552E5520CD006D8FE0EDBCFA6
:1032E000E6FFC4DFE55205D0D9CFE6FFE1CFD9FF35
:1032F0001200E552E7CFD9FF1200010EF3CFDBFF3A
:10330000DB50DF24146E020EE15C12000A0E146E14
:103310000E6EFE0EDBCF09F0B2EF1CF05DDFE66A49
:1033200052DFE55201011200FE0EDBCFE6FF5EDF49
:06333000E552010112004C
:0A333600F28ED08EF28C1200F19C92
:10334000F292F2881200D8CFE4FFE0CFE4FFE46EFF
:1033500065D800EE00F0140EE80403E3EECFE4FFBE
:10336000FBD700EE14F00A0EE80403E3EECFE4FF0F
:10337000FBD7E652F2B47AD89EB07FD8A1B284D8F7
:10338000F2B2F2929EBA9E9AE55200EE1DF00A0E3B
:10339000E80403E3E5CFEDFFFBD700EE13F0140ED6
:1033A000E80403E3E5CFEDFFFBD74DD8E550E5CFCB
:1033B000E0FFE5CFD8FF100031D800EE00F0140E8A
:1033C000E80403E3EECFE4FFFBD700EE14F00A0EAF
:1033D000E80403E3EECFE4FFFBD7E652F2B446D8AD
:1033E0009EB04BD8A1B250D8F2B2F2929EAA03D0AE
:1033F000B7EC14F09E9AE55200EE1DF00A0EE804B8
:1034000003E3E5CFEDFFFBD700EE13F0140EE80465
:1034100003E3E5CFEDFFFBD716D81100DACFE4FFC9
:10342000E2CFDAFFE9CFE4FFEACFE4FFF6CFE4FF33
:10343000F7CFE4FFF5CFE4FFF3CFE4FFF4CFE4FFF1
:10344000FACFE4FF1200E5CFFAFFE5CFF4FFE5CFB6
:10345000F3FFE5CFF5FFE5CFF7FFE5CFF6FFE5CFCB
:10346000EAFFE5CFE9FFE5CFDAFF120096EC16F0B0
:10347000F29498EC16F0EBEF16F0B2EC16F09E908A
:10348000AFEC16F0F9EF16F0E9EC16F0A192E1ECD2
:0634900016F015EF17F025
:0A349600006A0EAE54EF1AF00D6C40
:1034A0000E1EE86A0E22001E09AE5CEF1AF0086CD0
:1034B000091EE86A0922001E5EEC1CF009BE6CEFD2
:1034C0001AF000AE000C086C091EE86A0922046CB0
:1034D000051EE86A0522000C00BE63EF1AF00188A1
:1034E000FF0C006A0EAE7CEF1AF00C6C0D1E0E1E67
:1034F000E86A0D220E22001E09AE86EF1AF0076C54
:10350000081E091EE86A08220922001E41EC1CF070
:1035100009BE99EF1AF000AE000C076C081E091ED8
:10352000E86A08220922036C041E051E04220522F3
:10353000000C00BE8DEF1AF00188FF0C09C013F0DB
:1035400008C012F008500D02F4CF07F0F3CF06F0D8
:1035500009500E02F4CF09F0F3CF08F00D02F3503A
:103560000726F4500822E86A092212500E02F3508E
:103570000726F4500822E86A09220EAEC4EF1AF0BA
:103580001250085E1350095A13AE000C0D50085E1D
:063590000E50095A000C68
:0A359600D9CFE6FFDACFE6FFE1CF60
:1035A000D9FFE2CFDAFFE652E652E652E652D950B0
:1035B000F90F146EFF0EDA20156E020E14C0DBFF39
:1035C000030E15C0DBFF020EDBCFE6FF030EDBCFE1
:1035D000E6FFF90EDBCFE6FFFA0EDBCFE6FFFB0ED0
:1035E000DBCFE6FFD950FC0FE66EFF0EDA20E66E69
:1035F00056EC00F0146E070EE15C02E2E16AE5525F
:10360000E16E1450F3CFDEFFF4CFDDFFFC0EDBCF15
:10361000E9FFFD0EDBCFEAFFEF6ADECF14F0DDCF6E
:1036200015F014C0F3FF15C0F4FF040EE15C02E2D4
:10363000E16AE552E16EE552E5CFDAFFE7CFD9FF67
:02364000120076
:0E3642001E0EF66E000EF76E000EF86E010101
:103650000900F550796F0900F5507A6F03E1796739
:1036600001D03DD00900F550746F0900F550756F19
:103670000900F550766F09000900F550E96E090060
:10368000F550EA6E090009000900F550776F09004E
:10369000F550786F09000900F6CF7BF1F7CF7CF188
:1036A000F8CF7DF174C1F6FF75C1F7FF76C1F8FF61
:1036B0000101775302E1785307E00900F550EE6EFF
:1036C0007707F8E27807F9D77BC1F6FF7CC1F7FFEF
:1036D0007DC1F8FF01017907000E7A5BBFD71200A8
:1036E000D9CFE6FFDACFE6FFE1CFD9FFE2CFDAFFAD
:1036F000FB0EDBCF14F0FC0EDBCF15F00001800ECB
:1037000015141AE1FB0EDBCFE9FFFC0EDBCFEAFF5D
:10371000EECFF3FFEDCFF4FFEE2A000EEF22F3CF52
:10372000E9FFF4CFEAFFFD0EDBCFEFFFEF50156AA4
:10373000F36E15C0F4FF10D0FB0EDB50FE0806E15F
:10374000FD0EDBCFE6FFA4EC1CF005D0FD0EDBCFB9
:10375000E6FF03EC00F0E552E552E5CFDAFFE7CFF4
:04376000D9FF12007B
:0C37640006500B02F3CF02F0F4CF03F08C
:103770000C02F3500326000EF420046E06500D02D6
:10378000F3500426000EF420056E06500E02F3508E
:10379000052607500B02F3500326F4500422000EB6
:1037A000052207500C02F3500426F450052207505E
:1037B0000D02F350052608500B02F3500426F45076
:1037C000052208500C02F350052609500B02F35055
:0437D00005261200B8
:0C37D400FE0EE3CFE9FFFF0EE3CFEAFF9B
:1037E000F36AF46AEE5203E0F34AF42AFBD71200BC
:1037F000FF0EE3CFF8FFE552FF0EE3CFF7FFE552F0
:10380000FF0EE3CFF6FFE552E66AE66AE66A0900D4
:10381000F55209E0FD0EE32A05E1FE0EE32A02E17E
:10382000FF0EE32AF4D7FD0EE3CF07F0FE0EE3CF41
:0A38300008F0FF0EE3CF09F01200CC
:06383A00056A046A036A3E
:10384000026A200EE76ED89006360736083609362B
:1038500002360336043605360B50025C0C50035812
:103860000D5004580E50055809E30B50025E0C50E1
:10387000035A0D50045A0E50055A062AE72EE4D773
:02388000120034
:0E388200056A046A036A180EE76ED8900736CE
:10389000083609360336043605360C50035C0D50E5
:1038A00004580E50055807E30C50035E0D50045A9F
:0C38B0000E50055A072AE72EEAD7120036
:0438BC00056A046A2B
:1038C000100EE76ED89008360936043605360D50CE
:1038D000045C0E50055805E30D50045E0E50055A69
:0838E000082AE72EF0D71200C0
:0838E800F36AF46AFF0EE1240B
:1038F000E96EFF0EE220EA6EED6607D02F0EEF6450
:0C39000004D03A0EEF6001D0F32A120050
:04390C00800EF36EC8
:1039100000EE00F00F0E01D81200EA6002D0EE6A4D
:0C392000FCD7F350E9601200EE6AFCD7FF
:04392C001EEE00F09B
:103930002EEE00F0F86A019C21EC1BF007EC00F081
:0839400051EC06F0FBD7120068
:08394800FF0EE350ACBA04D0FD
:10395000AF6AAB8EAC8A949CACA2FED7AD6EF36E10
:04396000F46A1200F3
:0C396400056A080EE76ED890093605369B
:103970000E50055C02E3056E092AE72EF7D7120008
:1039800030313233343536373839616263646566D5
:013990000036
:0F39910000000000000000000000000000000027
:1039A0000000000000000000000100010001000113
:0139B0000016
:0E39B100010000000100000000000000010005
:0139BF000007
:1039C00000000000000000000000000000000000F7
:0239D0000100F4
:0E39D200000000000000000010101010101087
:1039E000101018181818181818181C1C1C1C1C1C4F
:1039F0001C1C1E1E1E1E1E1E1E1E1F1F1F1F1F1FE5
:103A00001F1F000000000000000000000000000078
:103A100000000000000000000000000000000000A6
:103A20000000000000000000000000000000000096
:033A300000000093
:0D3A3300000000D00022222207250910000B
:0E3A4000010000000000000000000000000077
:023A4E00000076
:103A50000000000000000000000000000000000066
:103A60000000000000000000000000000000102026
:063A700040800102040881
:020000040030CA
:0100010002FC
:0100020003FA
:010003001EDE
:010005008179
:010006008178
:010008000FE8
:01000900C036
:01000A000FE6
:01000B00E014
:01000C000FE4
:01000D0040B2
:00000001FF
