:020000040000FA
:0600000045EF34F0120090
:020006000700F1
:060008006CEF32F0120063
:02000E001200DE
:03001000000000ED
:0400130000000000E9
:06001800FAEF31F01200C6
:02001E000800D8
:10002000A869000000010000280000008D690000A0
:10003000E10000001B00000013000000780F00002A
:10004000040000002C690000800000006100000036
:10005000196900004801000013000000E268000078
:10006000410F000037000000C268000028010000B6
:1000700020000000100000007C0F000003000000C2
:100080000F01415102E1010E421901E1A1D30C0E11
:10009000411901E1425101E11AD30B0E411901E16D
:1000A000425101E1F1D20A0E411901E1425101E14F
:1000B00087D2080E411901E1425101E17FD2070EBA
:1000C000411901E1425101E11FD2090E411901E13B
:1000D000425101E1E7D1060E411901E1425101E12E
:1000E000DFD1050E411901E1425101E180D1280E15
:1000F000411901E1425101E177D1040E411901E1B9
:10010000425101E117D11E0E411901E1425101E1B5
:10011000CAD0030E411901E142516FE0140E41199A
:1001200001E142515FE0020E411901E142511AE042
:10013000010E411901E1425101E012007BEC16F081
:1001400003EC1FF0060EE66E72EC2DF0E55200088F
:1001500001E385D3020E0F01416F426B010E436F25
:10016000446B1200FC0EE66E520EE66EE66AE66A1C
:100170003DEC26F0E552E552E552E552ED0EE66E15
:10018000520EE66EE66A010EE66E3DEC26F0E55292
:10019000E552E552E552050EE66E72EC2DF0E552A1
:1001A000000808E241CF43FF42CF44FF030E0F0196
:1001B000416F426B060EE66E72EC2DF0E5520008C0
:1001C00004E2140E0F01416F426B040EE66E72ECF6
:1001D0002DF0E552000801E342D30F01416B010EFF
:1001E000426F1200B1EC18F098EC1CF00F016F5147
:1001F00001E135D36F6B020E2FD3020E431912E1CA
:10020000445110E1E00EE66E520EE66EE66AE66AD2
:100210003DEC26F0E552E552E552E552D10EE66E90
:10022000520E0FD0D10EE66E520EE66EE66AE66A08
:100230003DEC26F0E552E552E552E552C40EE66E7D
:10024000520EE66EE66A010EE66E3DEC26F0E552D1
:10025000E552E552E552050EE66E72EC2DF0E552E0
:10026000000808E241CF43FF42CF44FF040E0F01D4
:10027000416F426B040EE66E72EC2DF0E552000801
:1002800008E241CF43FF42CF44FF020E0F01416F0E
:10029000426B060EE66E72EC2DF0E552000801E3AB
:1002A000DED21E0ED8D207DB0F01715101E0D8DA81
:1002B000040EE66E72EC2DF0E552000910E0E66ADD
:1002C000E5EC31F0E5520F015D6F5E6BE66AE5EC3F
:1002D00031F0E5520F015F6F606B010E716F050E1B
:1002E000E66E72EC2DF0E552000902E00F01716B31
:1002F000050EE66E8CEC2DF0E552000907E00F01CB
:10030000726B736B746B756B01016A6B060EE66E34
:1003100072EC2DF0E552000901E1A1D20F01716BE1
:10032000726B736B746B756B01016A6B0F016F6B92
:10033000030E92D2030E431912E1445110E1ED0E67
:10034000E66E520EE66EE66AE66A3DEC26F0E5528F
:10035000E552E552E552B70EE66E520E0FD0B70EDB
:10036000E66E520EE66EE66AE66A3DEC26F0E5526F
:10037000E552E552E552AA0EE66E520EE66EE66AC8
:10038000010EE66E3DEC26F0E552E552E552E552EF
:10039000050EE66E72EC2DF0E552000808E241CF42
:1003A00043FF42CF44FF050E0F01416F426B040E25
:1003B000E66E72EC2DF0E552000808E241CF43FFF3
:1003C00042CF44FF030E0F01416F426B060EE66EF3
:1003D00072EC2DF0E552000801E341D2280E0F0126
:1003E000416F426B496B120044DB5CEF06F0040E78
:1003F000431912E1445110E1C40EE66E520EE66E4E
:10040000E66AE66A3DEC26F0E552E552E552E55231
:100410009D0EE66E520E0FD09D0EE66E520EE66EEB
:10042000E66AE66A3DEC26F0E552E552E552E55211
:10043000910EE66E520EE66EE66A010EE66E3DEC39
:1004400026F0E552E552E552E552050EE66E72ECF5
:100450002DF0E552000808E241CF43FF42CF44FFB0
:10046000070E0F01416F426B040EE66E72EC2DF029
:10047000E552000808E241CF43FF42CF44FF040E9B
:100480000F01416F426B060EE66E72EC2DF0E552E5
:10049000000801E3E4D10F01456B466B060EDCD189
:1004A000B4EF0DF0820EE66E520EE66EE66AE66A74
:1004B0003DEC26F0E552E552E552E552730EE66E4C
:1004C000520EE66EE66A010EE66E3DEC26F0E5524F
:1004D000E552E552E552C4EC08F0060EE66E72EC09
:1004E0002DF0E552000804E2010E0F01416F426B4E
:1004F0000F01695101E1B3D1650501E0B0D1010EF1
:10050000416F426B696B1200050E431912E14451B1
:1005100010E1AA0EE66E520EE66EE66AE66A3DEC61
:1005200026F0E552E552E552E552670EE66E520EB0
:100530000FD0670EE66E520EE66EE66AE66A3DEC96
:1005400026F0E552E552E552E5525E0EE66E520E99
:10055000E66EE66A010EE66E3DEC26F0E552E552E7
:10056000E552E552050EE66E72EC2DF0E5520008FC
:1005700008E241CF43FF42CF44FF0A0E0F01416F13
:10058000426B040EE66E72EC2DF0E552000808E2B4
:1005900041CF43FF42CF44FF050E0F01416F426B35
:1005A000060EE66E72EC2DF0E552000801E357D11D
:1005B000080E0F01416F426B7AEF12F0D0EF0FF08F
:1005C000070E431912E1445110E1910EE66E520EEE
:1005D000E66EE66AE66A3DEC26F0E552E552E55243
:1005E000E552550EE66E520E0FD0550EE66E520EC7
:1005F000E66EE66AE66A3DEC26F0E552E552E55223
:10060000E5524F0EE66E520EE66EE66A010EE66E9B
:100610003DEC26F0E552E552E552E552050EE66E58
:1006200072EC2DF0E552000808E241CF43FF42CFC3
:1006300044FF0F01416B010E426F040EE66E72EC37
:100640002DF0E552000808E241CF43FF42CF44FFBE
:10065000070E0F01416F426B060EE66E72EC2DF035
:10066000E552000801E3FBD00B0E0F01416F426B16
:10067000470EE66E520EE66E96EC30F0E552E5520D
:100680000F01010E616F1200370EE66E520EE66E1C
:10069000E66AE66A3DEC26F0E552E552E552E5529F
:1006A0000F01676BE66AE5EC31F0E5520F015F6F11
:1006B000606B5D6F60CF5EFFC4EC08F0060EE66E07
:1006C00072EC2DF0E552000801E3C9D07FD02C0E6A
:1006D000E66E520EE66EE66AE66A3DEC26F0E552FC
:1006E000E552E552E552220EE66E520EE66EE66ADD
:1006F000010EE66E3DEC26F0E552E552E552E5527C
:1007000062CF14F0156A166A176A62CFE6FF15C049
:10071000E6FF16C0E6FF17C0E6FF060EE66EE66AC5
:1007200016EC25F0186E060EE15E185063CF14F03B
:10073000156A166A176A63CFE6FF15C0E6FF16C092
:10074000E6FF17C0E6FF060EE66E010EE66E16EC3B
:1007500025F0186E060EE15E1850E66AE5EC31F001
:10076000E5520F015F6F606B010E156A5D25146E17
:100770005E51152214505F1902E11550601908E00E
:100780003B0E5D190AE15E5108E15F51601105E120
:100790005FCF5DFF60CF5EFF672B050E675D0DE1EC
:1007A00068050BE1470EE66E520EE66E96EC30F0F1
:1007B000E552E5520F01676B686BC4EC08F0060E5A
:1007C000E66E72EC2DF0E552000849E20A0E43D0C5
:1007D0005E0EE66E520EE66EE66AE66A3DEC26F0C6
:1007E000E552E552E552E5521C0EE66E520EE66EFB
:1007F000E66A010EE66E3DEC26F0E552E552E55262
:10080000E552040EE66E72EC2DF0E552000808E2A7
:1008100041CF43FF42CF44FF0A0E0F01416F426BAD
:10082000050EE66E72EC2DF0E552000808E241CFAD
:1008300043FF42CF44FF020E0F01416F426B060E91
:10084000E66E72EC2DF0E552000809E241CF43FF5D
:1008500042CF44FF010E0F01416F426B12001200A4
:10086000E66AE5EC31F0E5520F015F6F606B010E57
:10087000156A5D25146E5E51152214505F1902E150
:100880001550601908E03B0E5D190AE15E5108E160
:100890005F51601105E1742B5FCF5DFF60CF5EFF9C
:1008A0003C0E745D02E3746B732B3C0E735D02E3CC
:1008B000736B722B12000C0EE66E520EE66EE66A39
:1008C000E66A3DEC26F0E552E552E552E552090EA6
:1008D000E66E520EE66EE66A010EE66E3DEC26F01E
:1008E000E552E552E552E5520A0E0F01725D1DE236
:1008F000070EE66E520EE66E040EE66E010EE66E12
:100900003DEC26F0E552E552E552E55272CF14F087
:10091000156A166A176A72CFE6FF15C0E6FF16C0A1
:10092000E6FF17C0E6FF050E0ED072CF14F0156A71
:10093000166A176A72CFE6FF15C0E6FF16C0E6FF1B
:1009400017C0E6FF040EE66E010EE66E16EC25F00B
:10095000186E060EE15E1850050EE66E520EE66E3B
:10096000060EE66E010EE66E3DEC26F0E552E5520F
:10097000E552E5520A0E0F01735D1DE2070EE66EA9
:10098000520EE66E070EE66E010EE66E3DEC26F0A8
:10099000E552E552E552E55273CF14F0156A166A36
:1009A000176A73CFE6FF15C0E6FF16C0E6FF17C053
:1009B000E6FF080E0ED073CF14F0156A166A176A98
:1009C00073CFE6FF15C0E6FF16C0E6FF17C0E6FFCF
:1009D000070EE66E010EE66E16EC25F0186E060E9A
:1009E000E15E1850050EE66E520EE66E090EE66EDA
:1009F000010EE66E3DEC26F0E552E552E552E55279
:100A00000A0E0F01745D1DE2070EE66E520EE66ED1
:100A10000A0EE66E010EE66E3DEC26F0E552E5525A
:100A2000E552E55274CF14F0156A166A176A74CF4E
:100A3000E6FF15C0E6FF16C0E6FF17C0E6FF0B0E87
:100A40000ED074CF14F0156A166A176A74CFE6FFD9
:100A500015C0E6FF16C0E6FF17C0E6FF0A0EE66EF9
:100A6000010EE66E16EC25F0186E060EE15E1850CB
:100A70001200F40EE66E510EE66EE66AE66A3DEC92
:100A800026F0E552E552E552E552090EE66E520EA9
:100A9000E66EE66A010EE66E3DEC26F0E552E552A2
:100AA000E552E5520F015C5104E0EF0EE66E510E87
:100AB00003D0EB0EE66E510EE66E0C0EE66E010EE6
:100AC000E66E3DEC26F0E552E552E552E5520A0E9F
:100AD0000F0156AF02D0D89003D0555D000E565985
:100AE00023E2070EE66E520EE66E010EE66EE66E2D
:100AF0003DEC26F0E552E552E552E55255CF14F0B3
:100B000056CF15F0166A176A15AE02D01668176828
:100B100014C0E6FF15C0E6FF16C0E6FF17C0E6FFEB
:100B2000020EE66E010E14D055CF14F056CF15F01C
:100B3000166A176A15AE02D01668176814C0E6FF69
:100B400015C0E6FF16C0E6FF17C0E6FF010EE66E11
:100B5000E66E16EC25F0186E060EE15E1850050ED6
:100B6000E66E520EE66E030EE66E010EE66E3DEC8C
:100B700026F0E552E552E552E5520A0E0F0158AF54
:100B800002D0D89003D0575D000E585922E2070ECC
:100B9000E66E520EE66E040EE66E010EE66E3DEC5B
:100BA00026F0E552E552E552E55257CF14F058CF02
:100BB00015F0166A176A15AE02D01668176814C0C9
:100BC000E6FF15C0E6FF16C0E6FF17C0E6FF050EFC
:100BD00013D057CF14F058CF15F0166A176A15AE18
:100BE00002D01668176814C0E6FF15C0E6FF16C0ED
:100BF000E6FF17C0E6FF040EE66E010EE66E16EC89
:100C000025F0186E060EE15E1850050EE66E520EC7
:100C1000E66E060EE66E010EE66E3DEC26F0E5523F
:100C2000E552E552E5520A0E0F015AAF02D0D890B4
:100C300003D0595D000E5A5922E2070EE66E520E9D
:100C4000E66E070EE66E010EE66E3DEC26F0E5520E
:100C5000E552E552E55259CF14F05ACF15F0166A15
:100C6000176A15AE02D01668176814C0E6FF15C0E3
:100C7000E6FF16C0E6FF17C0E6FF080E13D059CFF7
:100C800014F05ACF15F0166A176A15AE02D016681E
:100C9000176814C0E6FF15C0E6FF16C0E6FF17C0D0
:100CA000E6FF070EE66E010EE66E16EC25F0186EF6
:100CB000060EE15E185012000F014951040A01E1CD
:100CC00005D2070A01E164D1010A01E1EDD0030A6E
:100CD00001E176D0010A01E012005B29146E140EC6
:100CE000156E0E6E14C009F053EC34F005C05BFFB6
:100CF0000F0105500F080DE2090EE66E520EE66E6A
:100D0000010EE66EE66E3DEC26F0E552E552E55248
:100D1000E552040EE66E72EC2DF0E55200080DE28D
:100D20000F01552B000E5623563507E25551170873
:100D3000000E565502E2556B566B050EE66E72ECD0
:100D40002DF0E55200080AE20F015507000E565B30
:100D5000800E561503E0170E556F566B040EE66EA7
:100D60008CEC2DF0E55200080EE2030E0F01552722
:100D7000000E5623563507E255511708000E5655FA
:100D800002E2556B566B050EE66E8CEC2DF0E552CB
:100D900000080BE2030E0F01555F000E565B800E3C
:100DA000561503E0170E556F566B060EE66E72EC85
:100DB0002DF0E552000801E3C8D10F01010E84D1E6
:100DC0005B29146E140E156E0E6E14C009F053ECF0
:100DD00034F005C05BFF0F0105500F080EE2090E4D
:100DE000E66E520EE66E040EE66E010EE66E3DEC09
:100DF00026F0E552E552E552E552040EE66E72EC3D
:100E00002DF0E55200080DE20F01572B000E58237C
:100E1000583507E257513B08000E585502E2576B10
:100E2000586B050EE66E72EC2DF0E55200080AE2F2
:100E30000F015707000E585B800E581503E03B0E5C
:100E4000576F586B040EE66E8CEC2DF0E5520008DF
:100E50000EE2090E0F015727000E5823583507E2FE
:100E600057513B08000E585502E2576B586B050E60
:100E7000E66E8CEC2DF0E55200080BE2090E0F0136
:100E8000575F000E585B800E581503E03B0E576FFE
:100E9000586B060EE66E72EC2DF0E552000801E389
:100EA00054D10F01020E10D15B29146E140E156E71
:100EB0000E6E14C009F053EC34F005C05BFF0F0157
:100EC00005500F080EE2090EE66E520EE66E070E92
:100ED000E66E010EE66E3DEC26F0E552E552E55277
:100EE000E552040EE66E72EC2DF0E55200080DE2BC
:100EF0000F01592B000E5A235A3507E259513B086E
:100F0000000E5A5502E2596B5A6B050EE66E72ECF2
:100F10002DF0E55200080AE20F015907000E5A5B56
:100F2000800E5A1503E03B0E596F5A6B040EE66EA5
:100F30008CEC2DF0E55200080EE2090E0F01592746
:100F4000000E5A235A3507E259513B08000E5A55F4
:100F500002E2596B5A6B050EE66E8CEC2DF0E552F1
:100F600000080BE2090E0F01595F000E5A5B800E5C
:100F70005A1503E03B0E596F5A6B060EE66E72EC83
:100F80002DF0E552000801E3E0D00F01030E9CD0E4
:100F9000040EE66E72EC2DF0E552000811E20F012E
:100FA000010E5C6FE66AE5EC31F0E5520F015D6F12
:100FB0005E6BE66AE5EC31F0E5520F015F6F606B46
:100FC000050EE66E72EC2DF0E552000802E20F010C
:100FD0005C6B0F015C5145E0E66AE5EC31F0E552EF
:100FE0000F015F6F606B010E156A5D25146E5E5117
:100FF000152214505F1902E11550601908E03B0EEC
:101000005D192FE15E512DE15F5160112AE15FCF43
:101010005DFF60CF5EFF5A3509E259510008000EAE
:101020005A5504E25907000E5A5B1BD059515A1108
:1010300018E15751581107E03B0E596F5A6B57078B
:10104000000E585B0ED0575158110BE155515611F7
:1010500008E05507000E565B3B0E576F586B596FF3
:101060005A6B5551561107E15751581104E1595126
:101070005A1101E15C6B5C511DE15B29146E140E89
:10108000156E0E6E14C009F053EC34F005C05BFF12
:101090000F0105500F080EE2E60EE66E510EE66EE9
:1010A0000C0EE66E010EE66E3DEC26F0E552E552C2
:1010B000E552E552060EE66E72EC2DF0E5520008A0
:1010C00044E20F015C6B040E496F12005B29146E41
:1010D000140E156E0E6E14C009F053EC34F005C0FA
:1010E0005BFF0F0105500F080DE2E60EE66E510E94
:1010F000E66E0C0EE66EE66A3DEC26F0E552E55231
:10110000E552E552040EE66E72EC2DF0E552000950
:1011100007E1050EE66E72EC2DF0E552000902E0E3
:101120000F0111D0060EE66E72EC2DF0E5520008AC
:101130000CE2040E0F01416F426B556B566B576BFF
:10114000586B596B5A6B496B12001200D9CFE6FFEE
:10115000E1CFD9FFE6520F017D51EA6A010FE96E36
:101160000F0EEA22EFCFDFFF7D293F0B7D6FDF50AF
:10117000E552E552E7CFD9FF12000F017C6B0F015A
:101180007D6B0F017E6B1200010E0F01761901E1DC
:10119000775101E012000F017E51000804E204D8EB
:1011A0000F017E0712001200D9CFE6FFE1CFD9FF71
:1011B000E652CCDFDF6EDFCFE6FFDCEC2EF0E5524F
:1011C000630E0F016B1901E16C5101E159D1690EF8
:1011D0006B1901E16C5101E11DD1680E6B1901E140
:1011E0006C5101E1F8D0670E6B1901E16C5101E11E
:1011F000C8D0660E6B1901E16C5101E1A7D0650EF4
:101200006B1901E16C5101E176D0640E6B1901E1BB
:101210006C5155E00E0E6B1901E16C5144E00C0E5F
:101220006B1901E16C5136E00B0E6B1901E16C5149
:1012300028E00A0E6B1901E16C511AE0020E6B19DD
:1012400001E16C510CE0010E6B1901E05ED16C51B3
:1012500001E05BD1210EDF5C01E057D12CD0540EB0
:10126000DF5C02E10A0E4FD1210EDF5C26E123D0C4
:10127000490EDF5C02E10B0E46D1210EDF5C1DE161
:101280001AD04D0EDF5C02E10C0E3DD1210EDF5C69
:1012900014E111D0450EDF5C02E10E0E34D1210EB7
:1012A000DF5C0BE108D03A0EDF5C02E1640E2BD16B
:1012B000210EDF5C02E1020E26D1010E24D1DFCF28
:1012C000E6FFB2EC12F0E552F3CF50FFF4CF51FF3E
:1012D0000F01F31C01E1511D01E198D00A0E086EC7
:1012E000096A50CF0DF051CF0EF02AEC33F006C052
:1012F0005DF1650E07D1DFCFE6FFB2EC12F0E552EB
:10130000F3CF50FFF4CF51FF0F01F31C01E1511D4A
:1013100001E17CD0505101015D27170EE66EE66AAF
:101320005D51E66EE66AD0EC12F0E552E552E55208
:10133000E552F3CF14F0F4CF15F0F350F41002E0BF
:10134000660EE0D0AA0EE66E510E8DD0DFCFE6FF1E
:10135000B2EC12F0E552F3CF50FFF4CF51FF0F0182
:10136000F31C01E1511D52E00A0E086E096A50CFCC
:101370000DF051CF0EF02AEC33F006C05EF1670E8F
:10138000C1D0DFCFE6FFB2EC12F0E552F3CF50FF51
:10139000F4CF51FF0F01F31C01E1511D37E0505113
:1013A00001015E273B0EE66EE66A5E51E66EE66A76
:1013B000D0EC12F0E552E552E552E552F3CF14F0CD
:1013C000F4CF15F0F350F41002E0680E9BD06F0ECE
:1013D000E66E510E48D0DFCFE6FFB2EC12F0E552D8
:1013E000F3CF50FFF4CF51FF0F01F31C01E1511D6A
:1013F0000DE00A0E086E096A50CF0DF051CF0EF0C5
:101400002AEC33F006C05FF1690E7CD0CD0EE66E9B
:10141000510E72D0DFCFE6FFB2EC12F0E552F3CFFF
:1014200050FFF4CF51FF0F01F31C01E1511D24E0E7
:10143000505101015F273B0EE66EE66A5F51E66E92
:10144000E66AD0EC12F0E552E552E552E552F3CFF0
:1014500014F0F4CF15F0F350F41002E0630E52D004
:101460004A0EE66E510EE66E96EC30F0E552E5520D
:10147000940EE66E510E40D0300EE66E510E3CD00A
:10148000230EDF5C26E1010E6B6F6C6B5DC1E6FF26
:10149000020EE66ED4EC31F0E552E5525EC1E6FF95
:1014A000010EE66ED4EC31F0E552E5525FC1E6FF85
:1014B000E66A64EC31F0E552E5520F016A5125E02D
:1014C000100EE66E510EE66E96EC30F0E552E552E7
:1014D0001CD0F80EE66E500EE66E96EC30F0E5523B
:1014E000E552DB0EE66E500EE66E96EC30F0E552FD
:1014F000E552C20EE66E500EE66E96EC30F0E55206
:10150000E552010E0F016B6F6C6B630E0F016D19CD
:1015100001E16E5101E130D2740E6D1901E16E519D
:1015200001E1E5D1760E6D1901E16E5101E121D1A4
:10153000750E6D1901E16E5101E1FDD0730E6D194B
:1015400001E16E5101E1BBD0720E6D1901E16E51E6
:1015500001E194D06F0E6D1901E16E5101E177D078
:101560006E0E6D1901E16E5155E06D0E6D1901E1C0
:101570006E5144E06C0E6D1901E16E5136E06B0E58
:101580006D1901E16E5128E06A0E6D1901E16E518D
:101590001AE0020E6D1901E16E510CE0010E6D1999
:1015A00001E03BD26E5101E038D2210EDF5C01E058
:1015B00034D22CD0440EDF5C02E16A0EDAD1210E67
:1015C000DF5C26E123D0410EDF5C02E16B0ED1D15E
:1015D000210EDF5C1DE11AD0540EDF5C02E16C0EBF
:1015E000C8D1210EDF5C14E111D0450EDF5C02E1B1
:1015F0006D0EBFD1210EDF5C0BE108D03A0EDF5C2F
:1016000002E16E0EB6D1210EDF5C02E1020EB1D115
:10161000010EAFD1DFCFE6FFB2EC12F0E552F3CF0F
:1016200052FFF4CF53FF0F01F31C01E1531D43E0C0
:101630000A0E086E096A52CF0DF053CF0EF02AEC55
:1016400033F006C062F107C063F16F0E91D1DFCFB6
:10165000E6FFB2EC12F0E552F3CF52FFF4CF53FFA6
:101660000F01F31C01E1531D26E0525101016227D5
:101670000F01535101016323720E7AD1DFCFE6FFD0
:10168000B2EC12F0E552F3CF52FFF4CF53FF0F014B
:10169000F31C01E1531D0FE00A0E086E096A52CFD8
:1016A0000DF053CF0EF02AEC33F006C064F107C002
:1016B00065F1730E5DD1CD0EE66E510E53D1DFCFC5
:1016C000E6FFB2EC12F0E552F3CF52FFF4CF53FF36
:1016D0000F01F31C01E1531D01E141D15251010100
:1016E00064270F015351010165230C0EE66EE66A73
:1016F00064C1E6FF65C1E6FFD0EC12F0E552E552A9
:10170000E552E552F3CF14F0F4CF15F0F350F41096
:1017100006E001016451651102E0750E29D19E0EAB
:10172000E66E500EE66E96EC30F0E552E552940E01
:10173000E66E510E17D1DFCFE6FFB2EC12F0E552A4
:10174000F3CF52FFF4CF53FF0F01F31C01E1531D00
:1017500001E105D10A0E086E096A52CF0DF053CF90
:101760000EF02AEC33F006C066F107C067F1760E82
:10177000FFD0DFCFE6FFB2EC12F0E552F3CF52FF1D
:10178000F4CF53FF0F01F31C01E1531D01E1E7D03A
:101790005251010166270F01535101016723665120
:1017A000671109E1880EE66E500EE66E96EC30F099
:1017B000E552E55232D164C1E6FF65C1E6FFF4ECC3
:1017C00012F0E552E552F3CF14F0F4CF15F0F350D8
:1017D000F4100CE10101673509E266511E08000EA4
:1017E000675504E2660EE66E500EB0D064C1E6FFA7
:1017F00065C1E6FFF4EC12F0E552E552F3CF14F0C8
:10180000F4CF15F0010EF3180EE115500CE10101B3
:10181000673509E266511F08000E675504E22E0E77
:10182000E66E500E93D064C1E6FF65C1E6FFF4ECAE
:1018300012F0E552E552F3CF14F0F4CF15F0020E9A
:10184000F31822E1155020E162C116F063C117F0D0
:10185000040E0D6E0E6A62C108F063C109F0D7EC88
:1018600032F004C016F005C017F0045005100CE16A
:101870000101673509E266511D08000E675504E253
:101880000C0EE66E500E62D064C1E6FF65C1E6FF45
:10189000F4EC12F0E552E552F3CF14F0F4CF15F06A
:1018A000020EF31822E1155020E162C116F063C167
:1018B00017F0040E0D6E0E6A62C108F063C109F0E4
:1018C000D7EC32F004C016F005C017F00450051034
:1018D0000CE00101673509E266511C08000E6755EE
:1018E00004E2EA0EE66E4F0E31D0740E41D0DFCF27
:1018F000E6FFB2EC12F0E552F3CF52FFF4CF53FF04
:101900000F01F31C01E1531D2AE052CF68F153CFC0
:1019100069F1070EE66EE66A52CFE6FF53CFE6FFA7
:10192000D0EC12F0E552E552E552E552F3CF14F057
:10193000F4CF15F0F350F41006E00101685169117D
:1019400002E0630E15D0C80EE66E4F0EE66E96EC02
:1019500030F0E552E552500EE66E500E03D0300ED8
:10196000E66E510EE66E96EC30F0E552E552010E51
:101970000F016D6F6E6B51D0230EDF5C32E1010EF3
:101980006D6F6E6B62C1E6FF060EE66ED4EC31F051
:10199000E552E55264C1E6FF050EE66ED4EC31F087
:1019A000E552E55266C1E6FF040EE66ED4EC31F076
:1019B000E552E55268C1E6FF030EE66ED4EC31F065
:1019C000E552E5520F016A5108E0A80EE66E4F0E8F
:1019D000E66E96EC30F0E552E5520F01010E696FAC
:1019E0001CD0890EE66E4F0EE66E96EC30F0E55296
:1019F000E552DB0EE66E500EE66E96EC30F0E552E8
:101A0000E552C20EE66E500EE66E96EC30F0E552F0
:101A1000E552010E0F016B6F6C6B0F016151630A90
:101A200001E189D0AD0A6DE0030A5AE0010A49E0FC
:101A3000070A36E0010A2AE0030A1FE0010A14E05F
:101A4000CA0A08E0030A01E08AD0210EDF5C01E047
:101A500086D024D0440EDF5C02E1C80E7FD0210E78
:101A6000DF5C01E07AD01AD0480EDF5C02E1C90EDB
:101A700075D0210EDF5C71E111D0540EDF5C02E104
:101A8000CA0E6CD0210EDF5C68E108D03A0EDF5C34
:101A900002E1CB0E63D0210EDF5C5FE1020E5ED06F
:101AA000DFCFE6FFB2EC12F0E552F3CF64FFFF0E9A
:101AB0000F01F35C35E00A0E6403F3CF62FFCC0E36
:101AC0004DD0DFCFE6FFB2EC12F0E552F3CF64FF6A
:101AD000FF0E0F01F35C24E064516227CD0E3ED06F
:101AE000DFCFE6FFB2EC12F0E552F3CF64FFFF0E5A
:101AF0000F01F35C15E00A0E6403F3CF63FFCE0E13
:101B00002DD0DFCFE6FFB2EC12F0E552F3CF64FF49
:101B1000FF0E0F01F35C04E064516327630E1ED0D7
:101B2000010E616F7A0EE66E4F0EE66E96EC30F0A7
:101B3000E552E55214D0230EDF5C06E10C0E416F36
:101B4000426B010E686F0AD0690EE66E4F0EE66EAC
:101B500096EC30F0E552E5520F01010E616FE5524F
:101B6000E552E7CFD9FF12000F01455102E1010E06
:101B7000461901E1B5D0040E451901E1465101E1D4
:101B8000ADD0030E451901E1465101E199D0010E96
:101B9000451901E1465145E0455101E1465101E059
:101BA00012005F0EE66E4F0EE66EE66AE66A3DECE8
:101BB00026F0E552E552E552E552530EE66E4F0E21
:101BC000E66EE66A010EE66E3DEC26F0E552E55261
:101BD000E552E552060EE66E72EC2DF0E552000875
:101BE00006E2040E0F01456F466B656B666B050ED2
:101BF000E66E72EC2DF0E552000806E2010E0F01D0
:101C0000456F466B476B486B040EE66E72EC2DF029
:101C1000E552000801E3A0D00F01456B010E466FAD
:101C200012004751481110E0470EE66E4F0EE66E67
:101C3000E66AE66A3DEC26F0E552E552E552E552E9
:101C40004F0EE66E520E0FD03D0EE66E4F0EE66E54
:101C5000E66AE66A3DEC26F0E552E552E552E552C9
:101C6000470EE66E4F0EE66EE66A010EE66E3DEC3E
:101C700026F0E552E552E552E552050EE66E72ECAD
:101C80002DF0E552000804E20F01456B010E466F8E
:101C9000040EE66E72EC2DF0E552000803E20F012F
:101CA000456B466B060EE66E72EC2DF0E5520008B1
:101CB00053E2030E0F01456F466B010E546F120085
:101CC0007BEC16F07DEC19F00F01705145E0456B8F
:101CD000466B706B010E416F426B1200ADEF0EF060
:101CE000530EE66E4F0EE66EE66AE66A3DEC26F0AF
:101CF000E552E552E552E5521C0EE66E520EE66ED6
:101D0000E66A010EE66E3DEC26F0E552E552E5523C
:101D1000E552060EE66E72EC2DF0E552000804E284
:101D2000050E0F01416F426B050EE66E72EC2DF051
:101D3000E552000803E20F01456B466B040EE66EA8
:101D400072EC2DF0E552000807E2010E0F01456F1D
:101D5000466B476F486B120012000F016551020A73
:101D600001E1E1D0030A01E177D0010A01E01200AC
:101D70002C0EE66E4F0EE66EE66AE66A3DEC26F045
:101D8000E552E552E552E552220EE66E4F0EE66E42
:101D9000E66A010EE66E3DEC26F0E552E552E552AC
:101DA000E552060EE66E72EC2DF0E55200083CE2BC
:101DB000FA0EE66E4E0EE66E96EC30F0E552E55207
:101DC000C90EE66E4E0EE66E96EC30F0E552E55228
:101DD000B90EE66E4E0EE66E96EC30F0E552E55228
:101DE000970EE66E4E0EE66E96EC30F0E552E5523A
:101DF000660EE66E4E0EE66E96EC30F0E552E5525B
:101E0000550EE66E4E0EE66E96EC30F0E552E5525B
:101E10000F017C6B0F017D6B0F017E6B0F01010EBB
:101E20006A6F090E416F426B040EE66E72EC2DF084
:101E3000E552000804E20F01020E656F666B050EA5
:101E4000E66E72EC2DF0E552000801E3A8D00F0118
:101E5000010E656F666B1200665110E1440EE66E6E
:101E60004E0EE66EE66AE66A3DEC26F0E552E55275
:101E7000E552E5523A0EE66E4E0E0FD03A0EE66E81
:101E80004E0EE66EE66AE66A3DEC26F0E552E55255
:101E9000E552E5524F0EE66E520EE66EE66A010E10
:101EA000E66E3DEC26F0E552E552E552E552060EAF
:101EB000E66E72EC2DF0E55200081EE2310EE66E81
:101EC0004E0EE66E96EC30F0E552E5520F016A6B6D
:101ED0000F017C6B0F017D6B0F017E6B090E0F01F3
:101EE000416F426B060EF66E000EF76E070EF56E32
:101EF0000D00F56A0E00696B040EE66E72EC2DF0B3
:101F0000E552000804E20F01656B010E666F050ED5
:101F1000E66E72EC2DF0E552000841E20F01020E70
:101F2000656F010E3AD0220EE66E4F0EE66EE66A3F
:101F3000E66A3DEC26F0E552E552E552E5521C0E0C
:101F4000E66E520EE66EE66A010EE66E3DEC26F097
:101F5000E552E552E552E552060EE66E72EC2DF0C2
:101F6000E552000804E2050E0F01416F426B040EBA
:101F7000E66E72EC2DF0E552000805E20F01010E4D
:101F8000656F020E666F050EE66E72EC2DF0E5527F
:101F9000000805E20F01656B020E666F1200120069
:101FA0000F014A5102E1010E4B1901E1DAD1370E5E
:101FB0004A1901E14B5101E183D1360E4A1901E181
:101FC0004B5101E131D1350E4A1901E14B5101E18B
:101FD000DDD0340E4A1901E14B5101E18BD0330EB3
:101FE0004A1901E14B513AE0320E4A1901E14B51D5
:101FF00001E01200200EE66E4E0EE66EE66AE66A1C
:102000003DEC26F0E552E552E552E5520F0EE66E44
:102010004E0EE66EE66A010EE66E3DEC26F0E552E7
:10202000E552E552E552050EE66E72EC2DF0E552F2
:10203000000807E2320E0F014C6F4D6B330E4A6FF2
:102040004B6B040EE66E72EC2DF0E552000804E2D4
:102050000F014A6B010E4B6F090E7DD1320E4C19E8
:1020600012E14D5110E1FE0EE66E4D0EE66EE66A8F
:10207000E66A3DEC26F0E552E552E552E552ED0EFA
:10208000E66E4D0E0FD0ED0EE66E4D0EE66EE66A74
:10209000E66A3DEC26F0E552E552E552E552DC0EEB
:1020A000E66E4D0EE66EE66A010EE66E3DEC26F03B
:1020B000E552E552E552E552050EE66E72EC2DF062
:1020C000E552000807E2330E0F014C6F4D6B340EE2
:1020D0004A6F4B6B040EE66E72EC2DF0E552000871
:1020E00007E2330E0F014C6F4D6B320E4A6F4B6B94
:1020F000080E31D1330E4C1912E14D5110E10F0E83
:10210000E66E4E0EE66EE66AE66A3DEC26F0E552B5
:10211000E552E552E552CB0EE66E4D0E0FD0CB0EDA
:10212000E66E4D0EE66EE66AE66A3DEC26F0E55296
:10213000E552E552E552BA0EE66E4D0EE66EE66ADF
:10214000010EE66E3DEC26F0E552E552E552E55211
:10215000050EE66E72EC2DF0E552000807E2340E33
:102160000F014C6F4D6B350E4A6F4B6B040EE66ED4
:1021700072EC2DF0E552000807E2340E0F014C6FAF
:102180004D6B330E4A6F4B6B010EE5D0340E4C197C
:1021900012E14D5110E1DC0EE66E4D0EE66EE66A80
:1021A000E66A3DEC26F0E552E552E552E552A90E0D
:1021B000E66E4D0E0FD0A90EE66E4D0EE66EE66A87
:1021C000E66A3DEC26F0E552E552E552E552980EFE
:1021D000E66E4D0EE66EE66A010EE66E3DEC26F00A
:1021E000E552E552E552E552050EE66E72EC2DF031
:1021F000E552000807E2350E0F014C6F4D6B360EAD
:102200004A6F4B6B040EE66E72EC2DF0E55200083F
:1022100007E2350E0F014C6F4D6B340E4A6F4B6B5E
:10222000FB0EE66EE66899D0350E4C1912E14D5161
:1022300010E1BA0EE66E4D0EE66EE66AE66A3DEC19
:1022400026F0E552E552E552E552870EE66E4D0E58
:102250000FD0870EE66E4D0EE66EE66AE66A3DEC3E
:1022600026F0E552E552E552E552760EE66E4D0E49
:10227000E66EE66A010EE66E3DEC26F0E552E552AA
:10228000E552E552050EE66E72EC2DF0E5520008BF
:1022900007E2360E0F014C6F4D6B370E4A6F4B6BDA
:1022A000040EE66E72EC2DF0E552000807E2360EE1
:1022B0000F014C6F4D6B350E4A6F4B6B000E4BD0C0
:1022C000360E4C1912E14D5110E1980EE66E4D0E8E
:1022D000E66EE66AE66A3DEC26F0E552E552E55226
:1022E000E552650EE66E4D0E0FD0650EE66E4D0E94
:1022F000E66EE66AE66A3DEC26F0E552E552E55206
:10230000E5525F0EE66E4D0EE66EE66A010EE66E73
:102310003DEC26F0E552E552E552E552050EE66E3B
:1023200072EC2DF0E552000807E2370E0F014C6FFA
:102330004D6B4A6B010E4B6F040EE66E72EC2DF086
:10234000E552000807E2370E0F014C6F4D6B360E59
:102350004A6F4B6B070EE66EE66A45D8E552E552CA
:102360001200760EE66E4D0EE66EE66AE66A3DEC0B
:1023700026F0E552E552E552E552590EE66E4D0E55
:10238000E66EE66A010EE66E3DEC26F0E552E55299
:10239000E552E552040EE66E72EC2DF0E5520008AF
:1023A00007E2370E0F014A6F4B6B4C6B010E4D6FFE
:1023B000050EE66E72EC2DF0E552000807E2320ED3
:1023C0000F014A6F4B6B4C6B010E4D6F060EE66EA4
:1023D00072EC2DF0E552000805E2070E0F01416F87
:1023E000426B12001200D9CFE6FFE1CFD9FF060EF3
:1023F000E66E72EC2DF0E55200086DE2060EF66E08
:10240000000EF76E0900F5CF14F00800F5CF15F0B7
:10241000FD0EDB50141803E1FE0EDB5015185BE0D7
:10242000FD0EDBCF14F0FE0EDBCF15F0060EF66EC0
:10243000000EF76E0F010900F550145C4E6F090095
:10244000F55015584F6F060EF66E000EF76EFD0E26
:10245000DBCFF5FF0D00FE0EDBCFF5FF0E00020E09
:10246000E66EE5EC31F0E55201015B6F5C6BE85024
:102470000F014E2501015B6F5C510F014F210101DE
:102480005C6F800E5C1508E0180E5B255B6F000E1C
:102490005C215C6FE66A0DD05C350DE25B5117087C
:1024A000000E5C5508E2180E5B5F000E5C5B010ECF
:1024B000E66EE0D8E5525BC1E6FF020EE66ED4ECB4
:1024C00031F0E552E552010E0F01416F426B380EBB
:1024D0004A6F4B6B0BD0060EE66E72EC2DF0E55298
:1024E000000804E2010E0F01416F426BE552E7CF95
:1024F000D9FF1200060EF66E000EF76E0900F5CF3A
:1025000014F00800F5CF15F0070E141801E115506E
:1025100024E0145001E115501EE0FB0E141802E1F6
:10252000E868151816E0010E141801E115500FE0C7
:10253000080E141801E1155008E0090E141801E105
:10254000155001E01200320E09D0330E07D0340EC0
:1025500005D0350E03D0360E01D0370E0F014A6F6D
:102560004B6B1200D9CFE6FFE1CFD9FF300EF36EEF
:10257000FE0EDBCFF4FFF350F45C0CE3FE0EDB50F9
:10258000390808E3FE0EDB50D00F156AF36E15C054
:10259000F4FF02D0F368F468E552E7CFD9FF1200E8
:1025A000D9CFE6FFE1CFD9FFFD0EDBCF14F0FE0E51
:1025B000DBCF15F0FB0EDBCF16F0FC0EDBCF17F0F8
:1025C00017501518E8AE02D0153404D01450165C1C
:1025D0001550175802E2F36A02D0010EF36EF46A46
:1025E000E552E7CFD9FF1200D9CFE6FFE1CFD9FFFF
:1025F000E150FD0FE96EFF0EDA20EA6E020EEE18D2
:1026000004E1ED5002E1020E2FD0D950FD0FE96E2A
:10261000FF0EDA20EA6E040EEE1801E1ED5021E023
:10262000D950FD0FE96EFF0EDA20EA6E060EEE18A5
:1026300001E1ED5016E0D950FD0FE96EFF0EDA20F2
:10264000EA6E090EEE1801E1ED500BE0D950FD0FD6
:10265000E96EFF0EDA20EA6E0B0EEE1804E1ED5083
:1026600002E1F36A02D0010EF36EF46AE552E7CF9D
:10267000D9FF1200D9CFE6FFE1CFD9FF040EE12642
:10268000E66EE5EC31F0E552DF6E030EE66EE5EC4A
:1026900031F0E552E76E010EE7CFDBFF050EE66E87
:1026A000E5EC31F0E552E76E020EE7CFDBFF060EF8
:1026B000E66EE5EC31F0E552E76E030EE7CFDBFFA7
:1026C000FE0EDB5064E1DF06010EDB06F36EDBCFAE
:1026D000F4FFE850F45C03E2DE52070EDD6E010EFB
:1026E000DF5C01E3C4D0020EDB040AE11F0EDF6EE3
:1026F0000C0EF36E020EF3CFDBFF030EDB06B7D03A
:10270000020EDBCFE6FFE66A6FDFE552E552F3CF5C
:1027100014F0F4CF15F0F350F41004E1020EDB06D0
:102720001F0EA4D0020EDBCFE6FFE66A5DDFE552A6
:10273000E552F3CF14F0F4CF15F0010EF3180DE1CC
:1027400015500BE1020EDB50030807E0010EF36E9B
:10275000020EF3CFDBFF1E0E89D0020EDBCFE6FFA9
:10276000E66A42DFE552E552F3CF14F0F4CF15F0FC
:10277000010EF31801E07BD0155001E078D0030E74
:10278000DB50030B02E11D0E71D01C0E6FD0DF2A4F
:10279000010EDB2ADB50070803E2DE52010EDD6E7C
:1027A000020EDB500C080DE1DF501F080AE2010E9B
:1027B000F36E020EF3CFDBFF010EDF6E030EDB2A9A
:1027C00056D0020EDBCFE6FFE66A0EDFE552E55299
:1027D000F3CF14F0F4CF15F0F350F41003E1DF5011
:1027E0001E0841E3020EDBCFE6FFE66AFDDEE5529E
:1027F000E552F3CF14F0F4CF15F0010EF31805E114
:10280000155003E1DF501F082EE3020EDBCFE6FF79
:10281000E66AEADEE552E552F3CF14F0F4CF15F0A4
:10282000020EF31809E1155007E1030EDB50030B0C
:1028300003E1DF501D0817E3020EDBCFE6FFE66A77
:10284000D3DEE552E552F3CF14F0F4CF15F0020ECB
:10285000F3180DE115500BE1030EDB50030B07E0FD
:10286000DF501C0804E2020EDB2A010EDF6EDFCF10
:10287000E6FF040EE66ED4EC31F0E552E552010EAF
:10288000DBCFE6FF030EE66ED4EC31F0E552E55205
:10289000020EDBCFE6FF050EE66ED4EC31F0E5521A
:1028A000E552030EDBCFE6FF060EE66ED4EC31F008
:1028B000E552E552146E040EE15C02E2E16AE55273
:0C28C000E16E1450E552E7CFD9FF120082
:0428CC00D9CFE6FF7B
:1028D000E1CFD9FF020EE126DE6ADD6A71D8D1ECC4
:1028E00021F0C8EC23F0F3D8E80EE66E030EE66E96
:1028F00023D8E552E5524B0EE66E4D0EE66E060EFF
:10290000E66EE66A8BEC23F0E552E552E552E552BD
:10291000D00EE66E070EE66E0FD8E552E5520101C5
:102920003351FDE0336BC8EC23F0CEEC2CF040ECDF
:1029300000F0F7EC23F0F3D7D9CFE6FFE1CFD9FFD2
:10294000040EE126DE6ADD6ADECF14F0DDCF15F07D
:10295000FD0EDBCF16F0FE0EDBCF17F0155017186B
:10296000E8AE02D0173404D01650145C1750155836
:102970001DE2020EDB6A030EDB6A020EDBCF14F0EF
:10298000030EDBCF15F0D890155004E6EE0E145C64
:10299000000E155806E2020EDB2A030EEEE3DB2AD8
:1029A000ECD7DF2A010ED0E3DB2ACED7040EE15CA0
:1029B00002E2E16AE552E16EE552E7CFD9FF12008B
:1029C000936A956A28EC20F0F2EC31F0E80EE66E9E
:1029D000030EE66EB1DFE552E552570EE66E120EBB
:1029E000E66E85EC29F0E552E552AE0EE66E240E59
:1029F000E66E27EC2AF0E552E552660EE66EB70E5B
:102A0000E66EE8EC2AF0E552E552020EE66EE66A62
:102A1000C3EC2BF0E552E5520A0EE66EE66AD5EC01
:102A20002BF0E552E5520A0EE66EE66AF4EC2BF066
:102A3000E552E55217EC2CF01FEC31F089EF2EF047
:102A40000101370E486F3B0E496F170E4A6F070E94
:102A50004B6F1F0E4C6F0C0E4D6F0D0E4E6F48C11D
:102A6000E6FFE66AD4EC31F0E552E55249C1E6FFF3
:102A7000010EE66ED4EC31F0E552E5524AC1E6FFB4
:102A8000020EE66ED4EC31F0E552E5524BC1E6FFA2
:102A9000030EE66ED4EC31F0E552E5524CC1E6FF90
:102AA000040EE66ED4EC31F0E552E5524DC1E6FF7E
:102AB000050EE66ED4EC31F0E552E5524EC1E6FF6C
:102AC000060EE66ED4EC31F0E552E5521200200E0F
:102AD000E66EE5EC31F0E552220825E0B1DFE66A6A
:102AE000100EE66ED4EC31F0E552E552E66A110EB6
:102AF000E66ED4EC31F0E552E552E66A120EE66E6F
:102B0000D4EC31F0E552E552E66A130EE66ED4ECF1
:102B100031F0E552E552220EE66E200EE66ED4EC60
:102B200031F0E552E5521200100EE66EE5EC31F0A0
:102B3000E5520101526F110EE66EE5EC31F0E552FF
:102B40000101536F120EE66EE5EC31F0E552010122
:102B5000546F130EE66EE5EC31F0E5520101586F4B
:102B60001200E66AE5EC31F0E5520101486F010E12
:102B7000E66EE5EC31F0E5520101496F020EE66EBA
:102B8000E5EC31F0E55201014A6F030EE66EE5EC2B
:102B900031F0E55201014B6F040EE66EE5EC31F0C9
:102BA000E55201014C6F050EE66EE5EC31F0E552A1
:102BB00001014D6F060EE66EE5EC31F0E5520101C4
:102BC0004E6F146E156A166A176AE66E15C0E6FF38
:102BD00016C0E6FF17C0E6FFE66AE66A16EC25F0C7
:102BE000186E060EE15E18504DC114F0156A166A93
:102BF000176A4DC1E6FF15C0E6FF16C0E6FF17C015
:102C0000E6FF030EE66EE66A16EC25F0186E060E79
:102C1000E15E18504CC114F0156A166A176A4CC16F
:102C2000E6FF15C0E6FF16C0E6FF17C0E6FF060E7A
:102C3000E66EE66A16EC25F0186E060EE15E185098
:102C40004BC114F0156A166A176A4BC1E6FF15C02E
:102C5000E6FF16C0E6FF17C0E6FF090EE66EE66A5D
:102C600016EC25F0186E060EE15E18504AC114F0FD
:102C7000156A166A176A4AC1E6FF15C0E6FF16C054
:102C8000E6FF17C0E6FFE66A010EE66E16EC25F0D9
:102C9000186E060EE15E185049C114F0156A166AE6
:102CA000176A49C1E6FF15C0E6FF16C0E6FF17C068
:102CB000E6FF030EE66E010EE66E16EC25F0186ECA
:102CC000060EE15E185048C114F0156A166A176ABC
:102CD00048C1E6FF15C0E6FF16C0E6FF17C0E6FFD5
:102CE000060EE66E010EE66E16EC25F0186E060E68
:102CF000E15E18501200E66AE5EC31F0E5520101A0
:102D0000486F010EE66EE5EC31F0E5520101496FC6
:102D1000020EE66EE5EC31F0E55201014A6F030E5A
:102D2000E66EE5EC31F0E55201014B6F040EE66E04
:102D3000E5EC31F0E55201014C6F050EE66EE5EC75
:102D400031F0E55201014D6F060EE66EE5EC31F013
:102D5000E55201014E6F4B51070A24E0010A1EE0C3
:102D6000030A18E0010A12E0070A0CE0010A06E073
:102D7000030A24E1470EE66E4D0E17D0430EE66EB1
:102D80004D0E13D03F0EE66E4D0E0FD03B0EE66E8D
:102D90004D0E0BD0370EE66E4D0E07D0330EE66E9D
:102DA0004D0E03D02F0EE66E4D0EE66EE66AE66A15
:102DB0003DEC26F0E552E552E552E5520A0E0101DE
:102DC0004A5D1CE22D0EE66E4D0EE66E040EE66EBA
:102DD000E66A3DEC26F0E552E552E552E5524AC17D
:102DE00014F0156A166A176A4AC1E6FF15C0E6FFB5
:102DF00016C0E6FF17C0E6FF050E0ED04AC114F05C
:102E0000156A166A176A4AC1E6FF15C0E6FF16C0C2
:102E1000E6FF17C0E6FF040EE66EE66A16EC25F044
:102E2000186E060EE15E18502B0EE66E4D0EE66E25
:102E3000060EE66EE66A3DEC26F0E552E552E552F6
:102E4000E5520A0E0101495D1CE22D0EE66E4D0EA3
:102E5000E66E070EE66EE66A3DEC26F0E552E552B8
:102E6000E552E55249C114F0156A166A176A49C15C
:102E7000E6FF15C0E6FF16C0E6FF17C0E6FF080E26
:102E80000ED049C114F0156A166A176A49C1E6FFE7
:102E900015C0E6FF16C0E6FF17C0E6FF070EE66E98
:102EA000E66A16EC25F0186E060EE15E18502B0E41
:102EB000E66E4D0EE66E090EE66EE66A3DEC26F015
:102EC000E552E552E552E5520A0E0101485D1CE269
:102ED0002D0EE66E4D0EE66E0A0EE66EE66A3DECCF
:102EE00026F0E552E552E552E55248C114F0156A64
:102EF000166A176A48C1E6FF15C0E6FF16C0E6FF6E
:102F000017C0E6FF0B0E0ED048C114F0156A166A02
:102F1000176A48C1E6FF15C0E6FF16C0E6FF17C0F6
:102F2000E6FF0A0EE66EE66A16EC25F0186E060E4F
:102F3000E15E185001015451010A06E0010A11E155
:102F4000270EE66E4D0E03D0230EE66E4D0EE66E96
:102F50000D0EE66EE66A3DEC26F0E552E552E552CE
:102F6000E5520F0154510DE01F0EE66E4D0EE66E58
:102F70000D0EE66EE66A3DEC26F0E552E552E552AE
:102F8000E55201014D510C0A42E0070A3CE0010AFA
:102F900036E0030A30E0010A2AE00F0A24E0010AC1
:102FA0001EE0030A18E0010A12E0070A0CE0010A19
:102FB00006E0030A3AE11B0EE66E4D0E2BD0170E0B
:102FC000E66E4D0E27D0130EE66E4D0E23D00F0E7B
:102FD000E66E4D0E1FD00B0EE66E4D0E1BD0070E8B
:102FE000E66E4D0E17D0030EE66E4D0E13D0FF0E9B
:102FF000E66E4C0E0FD0FB0EE66E4C0E0BD0F70EAD
:10300000E66E4C0E07D0F30EE66E4C0E03D0EF0EBC
:10301000E66E4C0EE66E020EE66E010EE66E3DECBE
:1030200026F0E552E552E552E552ED0EE66E4C0E05
:10303000E66E050EE66E010EE66E3DEC26F0E552FC
:10304000E552E552E5520A0E01014C5D1DE2ED0E1E
:10305000E66E4C0EE66E060EE66E010EE66E3DEC7A
:1030600026F0E552E552E552E5524CC114F0156ADE
:10307000166A176A4CC1E6FF15C0E6FF16C0E6FFE8
:1030800017C0E6FF070E0ED04CC114F0156A166A81
:10309000176A4CC1E6FF15C0E6FF16C0E6FF17C071
:1030A000E6FF060EE66E010EE66E16EC25F0186ED3
:1030B000060EE15E1850ED0EE66E4C0EE66E080E42
:1030C000E66E010EE66E3DEC26F0E552E552E55265
:1030D000E552140EE66EE66AE66AE66A090EE66EE8
:1030E000010EE66E16EC25F0146E060EE15E14502D
:1030F0000A0E01014E5D1DE2E66AE66AE66AE66ACC
:103100000B0EE66E010EE66E16EC25F0146E060E42
:10311000E15E14504EC114F0156A166A176A4EC16A
:10312000E6FF15C0E6FF16C0E6FF17C0E6FF0C0E6F
:103130000ED04EC114F0156A166A176A4EC1E6FF2A
:1031400015C0E6FF16C0E6FF17C0E6FF0B0EE66EE1
:10315000010EE66E16EC25F0186E060EE15E1850B4
:103160001200DC0EE66E4C0EE66EE66AE66A3DEC98
:1031700026F0E552E552E552E552D90EE66E4C0EC8
:10318000E66EE66A010EE66E3DEC26F0E552E5528B
:10319000E552E5520A0E0101525D1DE22D0EE66E6A
:1031A0004D0EE66E020EE66E010EE66E3DEC26F06A
:1031B000E552E552E552E55252C114F0156A166A1D
:1031C000176A52C1E6FF15C0E6FF16C0E6FF17C03A
:1031D000E6FF030E0ED052C114F0156A166A176A84
:1031E00052C1E6FF15C0E6FF16C0E6FF17C0E6FFB6
:1031F000020EE66E010EE66E16EC25F0186E060E57
:10320000E15E18502B0EE66E4D0EE66E040EE66E75
:10321000010EE66E3DEC26F0E552E552E552E55230
:103220000A0E0101535D1DE22D0EE66E4D0EE66E97
:10323000050EE66E010EE66E3DEC26F0E552E55217
:10324000E552E55253C114F0156A166A176A53C164
:10325000E6FF15C0E6FF16C0E6FF17C0E6FF060E44
:103260000ED053C114F0156A166A176A53C1E6FFEF
:1032700015C0E6FF16C0E6FF17C0E6FF050EE66EB6
:10328000010EE66E16EC25F0186E060EE15E185083
:10329000D50EE66E4C0EE66E070EE66E010EE66E7D
:1032A0003DEC26F0E552E552E552E552010154515C
:1032B000010A06E0010A12E1270EE66E4D0E03D068
:1032C000230EE66E4D0EE66E0A0EE66E010EE66EFB
:1032D0003DEC26F0E552E552E552E552D50EE66E9C
:1032E0004C0EE66E0D0EE66E010EE66E3DEC26F01F
:1032F000E552E552E552E552120001015051FF0A34
:1033000001E1D0D2F40A01E167D2010A01E105D25C
:10331000030A01E1A3D1010A01E143D10F0A01E14E
:10332000AAD0010A12E0060A01E01200060EE66EBB
:1033300072EC2DF0E552000901E1F9D201015905C5
:1033400001E0F5D2060E506F1200596B5529146E2C
:10335000140E156E0E6E14C009F053EC34F005C057
:1033600055F1010105500F080DE2D90EE66E4C0E25
:10337000E66E040EE66EE66A3DEC26F0E552E55296
:10338000E552E552040EE66E72EC2DF0E5520009AE
:1033900014E001014A29146E180E156E0E6E14C049
:1033A00009F053EC34F005C04AF105C0E6FF020E07
:1033B000E66ED4EC31F0E552E552050EE66E72ECA5
:1033C0002DF0E552000910E001014A054A6FE8506E
:1033D000170802E2170E4A6F4AC1E6FF020EE66EB8
:1033E000D4EC31F0E552E552040EE66E8CEC2DF093
:1033F000E552000915E0030E01014A25146E180E6E
:10340000156E0E6E14C009F053EC34F005C04AF18D
:1034100005C0E6FF020EE66ED4EC31F0E552E5524F
:10342000050EE66E8CEC2DF0E552000911E0030E5E
:1034300001014A5D4A6FE850170802E2170E4A6F11
:103440004AC1E6FF020EE66ED4EC31F0E552E552D9
:10345000060EE66E72EC2DF0E552000903E0010164
:10346000070E506F060EE66E8CEC2DF0E55200094B
:1034700001E15DD210D2596B5529146E140E156EF0
:103480000E6E14C009F053EC34F005C055F1010183
:1034900005500F080DE2D90EE66E4C0EE66E070ED3
:1034A000E66EE66A3DEC26F0E552E552E552E5525D
:1034B000040EE66E72EC2DF0E552000914E00101F5
:1034C0004929146E3C0E156E0E6E14C009F053ECB3
:1034D00034F005C049F105C0E6FF010EE66ED4ECFC
:1034E00031F0E552E552050EE66E72EC2DF0E55234
:1034F000000910E001014905496FE8503B0802E26C
:103500003B0E496F49C1E6FF010EE66ED4EC31F087
:10351000E552E552040EE66E8CEC2DF0E552000902
:1035200015E0090E01014925146E3C0E156E0E6E54
:1035300014C009F053EC34F005C049F105C0E6FFB2
:10354000010EE66ED4EC31F0E552E552050EE66E62
:103550008CEC2DF0E552000911E0090E0101495DE6
:10356000496FE8503B0802E23B0E496F49C1E6FF54
:10357000010EE66ED4EC31F0E552E552060EE66E31
:1035800072EC2DF0E552000903E00101080E506FC6
:10359000060EE66E8CEC2DF0E552000901E1C7D174
:1035A0007AD1596B5529146E140E156E0E6E14C017
:1035B00009F053EC34F005C055F1010105500F0836
:1035C0000CE2D50EE66E4C0EE66EE66AE66A3DEC5F
:1035D00026F0E552E552E552E552040EE66E72EC35
:1035E0002DF0E552000910E001014B294B6FE85026
:1035F000070802E2010E4B6F4BC1E6FF030EE66EB9
:10360000D4EC31F0E552E552050EE66E72EC2DF089
:10361000E552000910E001014B054B6FE850070827
:1036200002E2070E4B6F4BC1E6FF030EE66ED4ECD1
:1036300031F0E552E552060EE66E72EC2DF0E552E1
:10364000000903E00101090E506F060EE66E8CECD6
:103650002DF0E552000901E16AD11DD1596B5529C0
:10366000146E140E156E0E6E14C009F053EC34F087
:1036700005C055F1010105500F080EE2D90EE66EA6
:103680004C0EE66E060EE66E010EE66E3DEC26F082
:10369000E552E552E552E552040EE66E72EC2DF06D
:1036A000E552000910E001014C294C6FE8501F0859
:1036B00002E2010E4C6F4CC1E6FF040EE66ED4EC44
:1036C00031F0E552E552050EE66E72EC2DF0E55252
:1036D000000910E001014C054C6F010E4C5D02E247
:1036E0001F0E4C6F4CC1E6FF040EE66ED4EC31F0B9
:1036F000E552E552060EE66E72EC2DF0E552000939
:1037000003E001010A0E506F060EE66E8CEC2DF000
:10371000E552000901E10BD1BED0596B5529146E59
:10372000140E156E0E6E14C009F053EC34F005C083
:1037300055F1010105500F080EE2D50EE66E4C0E54
:10374000E66E020EE66E010EE66E3DEC26F0E552E8
:10375000E552E552E552040EE66E72EC2DF0E552AC
:10376000000910E001014D294D6FE8500C0802E2FC
:10377000010E4D6F4DC1E6FF050EE66ED4EC31F043
:10378000E552E552050EE66E72EC2DF0E5520009A9
:1037900010E001014D054D6F010E4D5D02E20C0E72
:1037A0004D6F4DC1E6FF050EE66ED4EC31F0E552EB
:1037B000E552060EE66E72EC2DF0E552000903E0CC
:1037C00001010B0E506F060EE66E8CEC2DF0E552EB
:1037D000000901E1ACD05FD0596B5529146E140E6D
:1037E000156E0E6E14C009F053EC34F005C055F19F
:1037F000010105500F080EE2D00EE66E4C0EE66E8B
:10380000090EE66E010EE66E3DEC26F0E552E5523D
:10381000E552E552040EE66E72EC2DF0E552000919
:103820000FE001014E294E6FE850630801E24E6B34
:103830004EC1E6FF060EE66ED4EC31F0E552E552DD
:10384000050EE66E72EC2DF0E552000910E0010164
:103850004E054E6F630E4E5D02E2630E4E6F4EC11B
:10386000E6FF060EE66ED4EC31F0E552E552060EA8
:10387000E66E72EC2DF0E552000906E0C8EC23F08C
:103880000101010E596F5069060EE66E8CEC2DF0A9
:10389000E55200094CE0C8EC23F00101010E596F1C
:1038A000506B1200596B7BEC16F001015529146E18
:1038B000140E156E0E6E14C009F053EC34F005C0F2
:1038C00055F1010105500F080DE2D00EE66E4C0EC9
:1038D000E66E0C0EE66EE66A3DEC26F0E552E55229
:1038E000E552E552060EE66E72EC2DF0E552000947
:1038F0000AE0C8EC23F00101506B010E596F0F0173
:10390000706F0F01546B040EE66E72EC2DF0E552F1
:10391000000907E1050EE66E72EC2DF0E552000994
:1039200006E0C8EC23F00101506B010E596F120044
:1039300001014F51FF0A01E1AFD1FC0A01E14BD176
:10394000010A01E1AED0030A12E0010A01E012000F
:10395000060EE66E72EC2DF0E552000901E1DFD1B2
:103960000101590501E0DBD1010E4F6F1200596BC7
:10397000B1EC18F001015529146E140E156E0E6E7F
:1039800014C009F053EC34F005C055F101010550A5
:103990000F080EE2D90EE66E4C0EE66E020EE66ED3
:1039A000010EE66E3DEC26F0E552E552E552E55299
:1039B000040EE66E72EC2DF0E552000914E00101F0
:1039C0005229146E180E156E0E6E14C009F053ECC9
:1039D00034F005C052F105C0E6FF100EE66ED4ECDF
:1039E00031F0E552E552040EE66E8CEC2DF0E55216
:1039F000000915E0030E01015225146E180E156E14
:103A00000E6E14C009F053EC34F005C052F105C03D
:103A1000E6FF100EE66ED4EC31F0E552E552050EED
:103A2000E66E72EC2DF0E552000910E0010152053E
:103A3000526FE850170802E2170E526F52C1E6FFAC
:103A4000100EE66ED4EC31F0E552E552050EE66E4E
:103A50008CEC2DF0E552000911E0030E0101525DDE
:103A6000526FE850170802E2170E526F52C1E6FF7C
:103A7000100EE66ED4EC31F0E552E552060EE66E1D
:103A800072EC2DF0E552000903E00101020E4F6FC8
:103A9000060EE66E8CEC2DF0E552000901E13FD1F7
:103AA000F4D0596BB1EC18F001015529146E140EC5
:103AB000156E0E6E14C009F053EC34F005C055F1CC
:103AC000010105500F080EE2D90EE66E4C0EE66EAF
:103AD000050EE66E010EE66E3DEC26F0E552E5526F
:103AE000E552E552040EE66E72EC2DF0E552000947
:103AF00014E001015329146E3C0E156E0E6E14C0B5
:103B000009F053EC34F005C053F105C0E6FF110E87
:103B1000E66ED4EC31F0E552E552040EE66E8CEC24
:103B20002DF0E552000915E0090E01015325146E30
:103B30003C0E156E0E6E14C009F053EC34F005C047
:103B400053F105C0E6FF110EE66ED4EC31F0E552FC
:103B5000E552050EE66E72EC2DF0E552000910E01C
:103B600001015305536FE8503B0802E23B0E536FCF
:103B700053C1E6FF110EE66ED4EC31F0E552E5528A
:103B8000050EE66E8CEC2DF0E552000911E0090EF1
:103B90000101535D536FE8503B0802E23B0E536F47
:103BA00053C1E6FF110EE66ED4EC31F0E552E5525A
:103BB000060EE66E72EC2DF0E552000903E00101FD
:103BC000030E4F6F060EE66E8CEC2DF0E5520009E9
:103BD00001E1A5D05AD0596BB1EC18F0010155297B
:103BE000146E140E156E0E6E14C009F053EC34F002
:103BF00005C055F1010105500F080EE2D50EE66E25
:103C00004C0EE66E0A0EE66E010EE66E3DEC26F0F8
:103C1000E552E552E552E552040EE66E72EC2DF0E7
:103C2000E55200090BE001015429010B546FE66EC7
:103C3000120EE66ED4EC31F0E552E552050EE66E5A
:103C400072EC2DF0E552000910E001015405546FAB
:103C5000E850010802E2010E546F54C1E6FF120E53
:103C6000E66ED4EC31F0E552E552060EE66E72ECEB
:103C70002DF0E552000902E001014F69060EE66EE3
:103C80008CEC2DF0E55200094AE0C8EC23F001016C
:103C9000010E596F4F6B1200596BB1EC18F0010116
:103CA0005529146E140E156E0E6E14C009F053ECE7
:103CB00034F005C055F1010105500F080DE2D00E9A
:103CC000E66E4C0EE66E0A0EE66EE66A3DEC26F0F7
:103CD000E552E552E552E552040EE66E72EC2DF027
:103CE000E552000907E1050EE66E72EC2DF0E55293
:103CF000000906E0C8EC23F001014F6B010E596F7B
:103D0000060EE66E72EC2DF0E552000908E0C8ECF4
:103D100023F001014F6B010E596F0F016F6F1200FD
:103D20000101010E081903E1095101E1010C000C28
:103D300001010A0E081903E1095101E1010C000C0F
:103D40000101010E101903E1115101E1010C000CF8
:103D500001010A0E101903E1115101E1010C000CDF
:103D60000101010E0A1901E10B511AE00A0ED88077
:103D70000A55000E0B5515E20AC114F00BC115F0DF
:103D8000030E0D6E0E6A0AC108F00BC109F01FEC9C
:103D900034F005C015F0010E041803E1155001E1DF
:103DA000010C000C0101010E121901E113511AE07E
:103DB0000A0ED8801255000E135515E212C114F0E8
:103DC00013C115F0030E0D6E0E6A12C108F013C177
:103DD00009F01FEC34F005C015F0010E041803E1E2
:103DE000155001E1010C000C010152514A5D0AE13C
:103DF0005351495D07E1485105E1540503E1590577
:103E000001E1010C000C01015151050A1AE0010AFF
:103E100005E0040A01E01200040E11D0E5DF0009FC
:103E20000AE00101010E586FE66E130EE66ED4EC47
:103E300031F0E552E5520101585139E0050E516F5C
:103E40001200596B5A29146E140E156E0E6E14C0A2
:103E500009F053EC34F005C05AF10A0E0101055C7B
:103E600002E2C8EC23F00101562B000E5723900EFE
:103E7000D8805655010E575507E3040EE66E72ECD6
:103E80002DF0E552000913E00101010E596F586B46
:103E900058C1E6FF130EE66ED4EC31F0E552E55260
:103EA0000101566B576BC8EC23F00101516B1200F6
:103EB000D9CFE6FFE1CFD9FF040EE126DE6ADD6A45
:103EC000DECF14F0DDCF15F0166A176A15AE02D0FA
:103ED00016681768D950FB0FE96EFF0EDA20EA6EFC
:103EE000EE50145CEE501558EE501658EE50175820
:103EF0001DE2020EDB6A030EDB6A020EDBCF14F05A
:103F0000030EDBCF15F0D890155004E6050E145CB7
:103F1000000E155806E2020EDB2A030EEEE3DB2A42
:103F2000ECD7DF2A010ECCE3DB2ACAD7040EE15C12
:103F300002E2E16AE552E16EE552E7CFD9FF1200F5
:103F4000D9CFE6FFE1CFD9FF040EE126DE6ADD6AB4
:103F5000DECF14F0DDCF15F0166A176A15AE02D069
:103F600016681768D950FB0FE96EFF0EDA20EA6E6B
:103F7000EE50145CEE501558EE501658EE5017588F
:103F80001DE2020EDB6A030EDB6A020EDBCF14F0C9
:103F9000030EDBCF15F0D890155004E6EE0E145C3E
:103FA000000E155806E2020EDB2A030EEEE3DB2AB2
:103FB000ECD7DF2A010ECCE3DB2ACAD7040EE15C82
:103FC00002E2E16AE552E16EE552E7CFD9FF120065
:103FD000D9CFE6FFE1CFD9FF0F0E8116FE0EDB50E1
:103FE000F00B81128186010EE66EE66AE66AE66AE9
:103FF000A7DFE552E552E552E5528196010EE66EE5
:10400000E66AE66AE66A9CDFE552E552E552E55269
:104010000F0E8116FE0EDB38F00B81128186010E29
:10402000E66EE66AE66AE66A8BDFE552E552E5523D
:10403000E5528196010EE66EE66AE66AE66A80DF80
:10404000E552E552E552E552E552E7CFD9FF1200BD
:10405000D9CFE6FFE1CFD9FFE652190EE66EE66A48
:10406000E66AE66A6DDFE552E552E552E5520F0E6B
:104070008116F80E81160F0E8116300E8112818680
:10408000010EE66EE66AE66AE66A5ADFE552E55236
:10409000E552E5528196010EE66EE66AE66AE66A48
:1040A0004FDFE552E552E552E5520F0E8116300E14
:1040B00081128186010EE66EE66AE66AE66A40DFF4
:1040C000E552E552E552E5528196010EE66EE66A4A
:1040D000E66AE66A35DFE552E552E552E5520F0E33
:1040E0008116300E81128186010EE66EE66AE66A5E
:1040F000E66A26DFE552E552E552E5528196010E69
:10410000E66EE66AE66AE66A1BDFE552E552E552CC
:10411000E5520F0E8116818A8186010EE66EE66AEF
:10412000E66AE66A0DDFE552E552E552E552819610
:10413000010EE66EE66AE66AE66A02DFE552E552DD
:10414000E552E552280EE66E43DFE5520C0EE66EB0
:104150003FDFE552E552E552E7CFD9FF1200D9CF54
:10416000E6FFE1CFD9FF020EE126DF6A010EDB6A2E
:1041700081940F0EE66EE66AE66AE66A99DEE5521B
:10418000E552E552E5520F0E81128186E66EE66A2F
:10419000E66AE66A8DDEE552E552E552E5520F0E1B
:1041A0008114E76E010EE7CFDBFF81960F0EE66EFE
:1041B000E66AE66AE66A7CDEE552E552E552E552D9
:1041C0000F0E81128186E66EE66AE66AE66A70DEA6
:1041D000E552E552E552E5520F0E8114DF6E010EF5
:1041E000DB50DF128196010EE66EE66AE66AE66A49
:1041F0005FDEE552E552E552E552DF50146E020EE5
:10420000E15C02E2E16AE552E16E1450E552E7CF6B
:10421000D9FF1200D9CFE6FFE1CFD9FFE652DF6A1E
:104220009EDFDF6EDFBEFCD7DF50E552E552E7CF01
:10423000D9FF1200D9CFE6FFE1CFD9FF0F0E8116CB
:10424000FE0EDB5081128186050EE66EE66AE66A96
:10425000E66A2EDEE552E552E552E5528196050EFC
:10426000E66EE66AE66AE66A23DEE552E552E55264
:10427000E552E552E7CFD9FF1200D9CFE6FFE1CFF3
:10428000D9FF8194050EE66EE66AE66AE66A10DEFC
:10429000E552E552E552E552FE0EDBCFE6FFCADFFE
:1042A000E552FE0EDB38F00BE66EC4DFE552E55258
:1042B000E7CFD9FF1200D9CFE6FFE1CFD9FF818444
:1042C000050EE66EE66AE66AE66AF2DDE552E5525A
:1042D000E552E552FE0EDBCFE6FFACDFE552FE0E07
:1042E000DB38F00BE66EA6DFE5528194E552E7CFAE
:1042F000D9FF1200D9CFE6FFE1CFD9FFFE0EDBCF09
:10430000E6FFD9DFE552E552E7CFD9FF1200D9CF5A
:10431000E6FFE1CFD9FFFE0EDBCFE6FFCCDFE552B3
:10432000E552E7CFD9FF1200D9CFE6FFE1CFD9FFA1
:10433000FD0EDBCFF6FFFE0EDBCFF7FF0800F550DA
:104340000FE0FD0EDBCFF6FFDB2AFE0EDBCFF7FF23
:1043500001E3DB2A0800F550E66ED9DFE552E8D725
:10436000E552E7CFD9FF1200D9CFE6FFE1CFD9FF61
:10437000E652FD0EDB500F0B146EFE0EDB50010BF0
:10438000400DF3501424DF6E7F0EDF14800FDF6EBC
:10439000DFCFE6FF72DFE552E552E552E7CFD9FF06
:1043A0001200010EE66E69DFE552E66AE66ADCDFBE
:1043B000E552E5521200D9CFE6FFE1CFD9FF050E55
:1043C000E126010EF36EDB6E020EDB6A030EDB6A82
:1043D000040EDB6ADF6ADFCF14F0156A14BE1568BD
:1043E000FB0EDBCF16F0FC0EDBCF17F015501718C5
:1043F000E8AE02D0173404D01650145C175015588C
:104400002DE2FD0EDBCF14F0FE0EDBCF15F0166AA9
:10441000176A15AE02D016681768D950010FE96EF9
:10442000DACFEAFF14C00BF015C00CF016C00DF087
:1044300017C00EF0EECF06F0EECF07F0EECF08F08B
:10444000EFCF09F0A6EC33F005C0EDFF04C0EDFF9F
:1044500003C0EDFF02C0EFFFDF2ABDD7010EDBCFA7
:1044600014F0020EDBCF15F0030EDBCF16F0040EB6
:10447000DBCF17F014C006F015C007F016C008F027
:1044800017C009F0050EE15C02E2E16AE552E16E57
:10449000E552E7CFD9FF1200D9CFE6FFE1CFD9FF30
:1044A000020EE126DF6AFB0EDBCF14F0FC0EDBCF41
:1044B00015F0FD0EDBCF16F0FE0EDBCF17F014501B
:1044C00015101610171005E1300EE66E20DFE552CC
:1044D000F4D0D950FB0FE96EFF0EDA20EA6ED890C7
:1044E000030EEB50000A08E6000EEE5C000EEE58DC
:1044F000000EEE58000EEE5815E22D0EE66E07DFA8
:10450000E552D950FB0FE96EFF0EDA20EA6E000E7D
:10451000EE6CEF1EEE22EF1EEE22EF1EEF22ED52AA
:10452000ED52ED52DE52070EDD6E010EDBCF14F0C0
:10453000000EE76E1418E8AE02D0143403D0E75032
:10454000D880145401E3B9D0010EDB04186E196A47
:1045500018BE196818C0E6FF19C0E6FF0A0EE66E1D
:10456000E66A29DFE552E552E552E55206C014F04D
:1045700007C015F008C016F009C017F006C00BF010
:1045800007C00CF008C00DF009C00EF0FB0EDBCF29
:1045900006F0FC0EDBCF07F0FD0EDBCF08F0FE0EC1
:1045A000DBCF09F0DEEC33F00650071008100910DD
:1045B00041E0010EDF6EDB041C6E1D6A1CBE1D682F
:1045C0001CC0E6FF1DC0E6FF0A0EE66EE66AF3DEDB
:1045D000E552E552E552E55206C018F007C019F061
:1045E00008C01AF009C01BF006C00BF007C00CF0A1
:1045F00008C00DF009C00EF0FB0EDBCF06F0FC0E7C
:10460000DBCF07F0FD0EDBCF08F0FE0EDBCF09F0AD
:10461000DEEC33F006C014F007C015F008C016F049
:1046200009C017F0300E1426000E1522162217228C
:10463000145003D0DF5004E0300EE66E68DEE55221
:10464000010EDB04186E196A18BE196818C0E6FF5F
:1046500019C0E6FF0A0EE66EE66AADDEE552E552E7
:10466000E552E55206C014F007C015F008C016F078
:1046700009C017F0D950FB0FE96EFF0EDA20EA6E81
:1046800006C00BF007C00CF008C00DF009C00EF01A
:10469000EECF06F0EECF07F0EECF08F0EFCF09F047
:1046A000DEEC33F005C0EDFF04C0EDFF03C0EDFF0D
:1046B00002C0EFFF010EDB0638D7020EE15C02E21A
:1046C000E16AE552E16EE552E7CFD9FF1200D9CF9A
:1046D000E6FFE1CFD9FFFD0EDBCFE6FFFE0EDBCF1D
:1046E000E6FF42DEE552E552D950F90FE96EFF0EC2
:1046F000DA20EA6EEECFE6FFEECFE6FFEECFE6FF82
:10470000EFCFE6FFC9DEE552E552E552E552E5524C
:10471000E7CFD9FF1200D9CFE6FFE1CFD9FFFD0ED9
:10472000DBCFE6FFFE0EDBCFE6FF1EDEE552E552F5
:10473000FB0EDBCFE6FFFC0EDBCFE6FFF5DDE5523F
:10474000E552E552E7CFD9FF1200D9CFE6FFE1CF1E
:10475000D9FFFCC014F0FDC015F0040ED89014363B
:104760001536E806FBE1C10E1426000E1522145082
:104770000001FE25E96E1550FF21EA6EFE0EDBCF2B
:10478000EFFFFE2B000EFF23E552E7CFD9FF12000B
:10479000D9CFE6FFE1CFD9FFE652DF6ADFCF14F0D1
:1047A000100EE76E1418E8AE02D0E73402D0E750DE
:1047B000145C18E2DFCFE9FFEA6AE9BEEA68C10EDD
:1047C000E926000EEA22200EEF6EDFCFE9FFEA6A4B
:1047D000E9BEEA68D10EE926000EEA22200EEF6E4D
:1047E000DF2ADCD7E552E552E7CFD9FF1200D9CF57
:1047F000E6FFE1CFD9FFE6520001C051030A52E0C3
:10480000010A36E0030A1AE0010A67E1E66AE66A8D
:10481000ABDDE552E552DF6A080EDF5C0CE2DF50EB
:10482000EA6AC10FE96E000EEA22EF50E66E6FDD14
:10483000E552DF2AF1D70001010E32D0080EE66EF4
:10484000E66A92DDE552E552DF6A080EDF5C0DE2B2
:10485000080EDF24EA6AC10FE96E000EEA22EF506B
:10486000E66E55DDE552DF2AF0D70001020E18D0C2
:10487000E66A010EE66E78DDE552E552DF6A080E63
:10488000DF5C0CE2DF50EA6AD10FE96E000EEA222B
:10489000EF50E66E3CDDE552DF2AF1D70001030E52
:1048A000C06F1CD0080EE66E010EE66E5DDDE552AF
:1048B000E552DF6A080EDF5C0DE2080EDF24EA6ACB
:1048C000D10FE96E000EEA22EF50E66E20DDE552D0
:1048D000DF2AF0D70001C06B01D0C06BE552E55272
:1048E000E7CFD9FF1200D9CFE6FFE1CFD9FFE652DB
:1048F0000001C051010A1BE0010A32E1E66AE66AE2
:1049000033DDE552E552DF6A100EDF5C0CE2DF506A
:10491000EA6AC10FE96E000EEA22EF50E66EF7DC9C
:10492000E552DF2AF1D70001010EC06F1AD0E66A06
:10493000010EE66E19DDE552E552DF6A100EDF5C0E
:104940000CE2DF50EA6AD10FE96E000EEA22EF5066
:10495000E66EDDDCE552DF2AF1D70001C06B01D045
:10496000C06BE552E552E7CFD9FF1200D9CFE6FF81
:10497000E1CFD9FFE652E66AE66AF6DCE552E55297
:10498000DF6A100EDF5C0CE2DF50EA6AC10FE96EED
:10499000000EEA22EF50E66EBADCE552DF2AF1D7CC
:1049A000E66A010EE66EE0DCE552E552DF6A100EC3
:1049B000DF5C0CE2DF50EA6AD10FE96E000EEA22FA
:1049C000EF50E66EA4DCE552DF2AF1D7E552E5525E
:1049D000E7CFD9FF1200D9CFE6FFE1CFD9FFFE0E16
:1049E000DB50010B0001FC6FFD6BFD0EDB500F0B6C
:1049F000FE6FFF6BFCC014F0FDC015F0040ED890E4
:104A000014361536E806FBE1C10E1426000E1522F9
:104A100014500001FE25E96E1550FF21EA6EFC0ED0
:104A2000DBCFEFFFE552E7CFD9FF1200D9CFE6FF8A
:104A3000E1CFD9FF020EE126DF6AFE0EDB50010B4B
:104A40000001FC6FFD6BFD0EDB500F0BFE6FFF6B6B
:104A5000F90EDBCF14F0FA0EDBCF15F0FB0EDBCF37
:104A600016F0FC0EDBCF17F01450151016101710AF
:104A700005E1300EE66E69DEE552F5D0D950F90F4A
:104A8000E96EFF0EDA20EA6ED890030EEB50000AB2
:104A900008E6000EEE5C000EEE58000EEE58000E1A
:104AA000EE5815E22D0EE66E50DEE552D950F90FA4
:104AB000E96EFF0EDA20EA6E000EEE6CEF1EEE22BB
:104AC000EF1EEE22EF1EEF22ED52ED52ED52DE52BE
:104AD000070EDD6E010EDBCF14F0000EE76E14182A
:104AE000E8AE02D0143403D0E750D880145401E368
:104AF000BAD0010EDB04186E196A18BE196818C006
:104B0000E6FF19C0E6FF0A0EE66EE66A54DCE552DF
:104B1000E552E552E55206C014F007C015F008C092
:104B200016F009C017F006C00BF007C00CF008C063
:104B30000DF009C00EF0F90EDBCF06F0FA0EDBCF58
:104B400007F0FB0EDBCF08F0FC0EDBCF09F0DEEC4C
:104B500033F0065007100810091041E0010EDF6E17
:104B6000DB041C6E1D6A1CBE1D681CC0E6FF1DC058
:104B7000E6FF0A0EE66EE66A1EDCE552E552E552F5
:104B8000E55206C018F007C019F008C01AF009C0B5
:104B90001BF006C00BF007C00CF008C00DF009C0F8
:104BA0000EF0F90EDBCF06F0FA0EDBCF07F0FB0EAE
:104BB000DBCF08F0FC0EDBCF09F0DEEC33F006C0F3
:104BC00014F007C015F008C016F009C017F0300E39
:104BD0001426000E152216221722145003D0DF507F
:104BE00004E0300EE66EB1DDE552010EDB04186E16
:104BF000196A18BE196818C0E6FF19C0E6FF0A0E48
:104C0000E66EE66ADBEC21F0E552E552E552E5524C
:104C100006C014F007C015F008C016F009C017F060
:104C2000D950F90FE96EFF0EDA20EA6E06C00BF0DC
:104C300007C00CF008C00DF009C00EF0EECF06F072
:104C4000EECF07F0EECF08F0EFCF09F0DEEC33F057
:104C500005C0EDFF04C0EDFF03C0EDFF02C0EFFF94
:104C6000010EDB0637D7020EE15C02E2E16AE55293
:104C7000E16EE552E7CFD9FF1200D9CFE6FFE1CFD1
:104C8000D9FFFE0EDB50010B0001FC6FFD6BFD0E2A
:104C9000DB500F0BFE6FFF6BFB0EDBCFF6FFFC0E46
:104CA000DBCFF7FF0800F5500FE0FB0EDBCFF6FF80
:104CB000DB2AFC0EDBCFF7FF01E3DB2A0800F5500F
:104CC000E66E43DDE552E8D7E552E7CFD9FF1200A3
:104CD0002020202000202020002020002020414CE7
:104CE00041524D2020204241434B202000200044CF
:104CF0004543004E4F56004F43540053455000412A
:104D00005547004A554C004A554E004D4159004107
:104D10005052004D415200464542004A414E004F1C
:104D20004B20004F4E20004F4646003A00300053C3
:104D300041540046524900544855005745440054D8
:104D40005545004D4F4E0053554E00444947495478
:104D5000414C20434C4F434B003E4241434B0020CB
:104D60004241434B003E48414E4F492020202055B0
:104D700054432B3037002048414E4F4920202020FB
:104D80005554432B3037003E4C4F4E444F4E20205D
:104D9000205554432B303000204C4F4E444F4E2072
:104DA00020205554432B3030003E4E4557594F522A
:104DB0004B20205554432D303500204E4557594F38
:104DC000524B20205554432D3035003E504152491E
:104DD00053202020205554432B3031002050415285
:104DE0004953202020205554432B3031003E42456A
:104DF000494A494E4720205554432B30380020540F
:104E00004F4B594F202020205554432B3039002040
:104E10004245494A494E4720205554432B303800DB
:104E20003E544F4B594F202020205554432B3039AE
:104E3000002154494D45230D0A003E496E746572A8
:104E40006E657400205669727475616C5465726D7C
:104E5000696E616C0021444154453A59594D4D44A5
:104E60004464230D0A000D0A546F2073796E636841
:104E7000726F6E697A6520646174652C2075736940
:104E80006E672073796E74617820617320666F6C31
:104E90006C6F773A0D0A005468652074696D65205F
:104EA0006E65656420746F2062652032342D682041
:104EB000666F726D61740D0A002154494D453A4880
:104EC000484D4D5353230D0A000D0A546F2073793A
:104ED0006E6368726F6E697A652074696D652C20E7
:104EE0007573696E672073796E74617820617320C1
:104EF000666F6C6C6F773A0D0A000D0A57656C632C
:104F00006F6D6520746F20416C61726D20436C6F12
:104F1000636B20636F6E736F6C65206D656D750DCF
:104F20000A0020496E7465726E6574003E5669729F
:104F30007475616C5465726D696E616C0020557397
:104F4000652055415254003E557365204275747476
:104F50006F6E002055736520427574746F6E003E4D
:104F6000557365205541525400436F6E6669726DEA
:104F7000204572726F72210D0A00526561642065CE
:104F800072726F7220210D0A000D0A4E6565642051
:104F9000636F6E6669726D20646174652063686119
:104FA0006E676520210D0A000D0A436F6E66696702
:104FB00075726174696F6E20446174652053756306
:104FC00063657373210D0A000D0A44415445206D39
:104FD00075737420626520696E2072616E6765204A
:104FE0005B312C375D20210D0A000D0A44617920C8
:104FF0006D75737420626520696E2072616E6765DD
:10500000205B312C32385D20210D0A000D0A4461ED
:1050100079206D75737420626520696E2072616EEF
:105020006765205B312C32395D20210D0A000D0AA5
:10503000446179206D75737420626520696E2072F9
:10504000616E6765205B312C33315D20210D0A00D4
:10505000506C6561736520656E746572206167616F
:10506000696E210D0A000D0A446179206D75737413
:1050700020626520696E2072616E6765205B312C4D
:1050800033305D20210D0A000D0A20446179206D26
:10509000757374206265203E2030210D0A000D0AD0
:1050A0004D6F6E7468206D75737420626520696E33
:1050B0002072616E6765205B312C31325D20210DDD
:1050C0000A000D0A506C6561736520656E74657227
:1050D00020616761696E20210D0A000D0A43686135
:1050E00072616374657220636F6E6669726D2069A8
:1050F00073202723270D0A000D0A4E65656420637F
:105100006F6E6669726D2074696D6520210D0A00ED
:105110000D0A436F6E66696775726174696F6E2000
:1051200054696D652053756363657373210D0A00BF
:105130000D0A506C6561736520656E746572206E32
:10514000756D62657220210D0A000D0A5365636F4B
:105150006E64206D75737420626520696E207261C3
:105160006E6765205B302C35395D20210D0A000DFE
:105170000A4D696E757465206D75737420626520C3
:10518000696E2072616E6765205B302C35395D2059
:10519000210D0A00706C6561736520656E7465721F
:1051A00020616761696E210D0A000D0A486F7572F2
:1051B000206D75737420626520696E2072616E6760
:1051C00065205B302C32335D20210D0A000D0A5022
:1051D0006C6561736520656E746572206E756D62B5
:1051E0006572210D0A00202020200052554E0053E8
:1051F000544F500054494D455220434C4F434B208F
:105200004241434B003A0030002020002020205330
:10521000544F502057415443482020003E42616380
:105220006B0048554D493A202020250054454D50EB
:105230003A2020202A43005265636576696E672014
:10524000646174612E2E0021444854230D0A00200D
:105250004261636B003E5765617468657200205758
:10526000656174686572003E576F726C64205469A2
:105270006D65005541525420746F206D6F646966EE
:105280007900506C6561736520636F6E6E65637441
:105290000020576F726C642054696D65003E54693C
:1052A0006D65204D6F64696679002054696D6520D5
:1052B0004D6F64696679003E54696D657220436C78
:1052C0006F636B002054696D657220436C6F636B74
:1052D000003E436F756E74657220436C6F636B00A4
:1052E00020416C61726D20436C6F636B0020436FD3
:1052F000756E74657220436C6F636B003E416C6128
:09530000726D20436C6F636B00B9
:06530A00D9CFE6FFE1CF60
:10531000D9FFD59EFD0EDBCF28F1FE0EDBCF29F1A4
:10532000D59C17681868196A28C11AF029C11BF0A2
:105330001C6A1A50175C146E1B501858156E1C50BE
:105340001958166E0C6A010E0D6E0E6A14C007F025
:1053500015C008F016C009F0FDEC32F00350D66E0F
:1053600017681868196A28C11AF029C11BF01C6A4D
:105370001A50175C146E1B501858156E1C50195893
:10538000166E0C6A010E0D6E0E6A14C007F015C081
:1053900008F016C009F0FDEC32F007C014F008C0A8
:1053A00015F009C016F00750D76ED59AD586F28A47
:1053B000F294F184D58EE552E7CFD9FF1200D59E45
:1053C000120017681868196A28C11AF029C11BF061
:1053D0001C6A1A50175C146E1B501858156E1C501E
:1053E0001958166E0C6A010E0D6E0E6A14C007F085
:1053F00015C008F016C009F0FDEC32F00350D66E6F
:1054000017681868196A28C11AF029C11BF01C6AAC
:105410001A50175C146E1B501858156E1C501958F2
:10542000166E0C6A010E0D6E0E6A14C007F015C0E0
:1054300008F016C009F0FDEC32F007C014F008C007
:1054400015F009C016F00750D76ED58E1200D9CFCF
:10545000E6FFE1CFD9FFCD90FD0EDBCF2AF1FE0EA6
:10546000DBCF2BF117681868196A2AC11AF02BC113
:105470001BF01C6A1A50175C146E1B501858156EDE
:105480001C501958166E0C6A010E0D6E0E6A14C06F
:1054900007F015C008F016C009F0FDEC32F0075017
:1054A000CF6E17681868196A2AC11AF02BC11BF051
:1054B0001C6A1A50175C146E1B501858156E1C503D
:1054C0001958166E0C6A010E0D6E0E6A14C007F0A4
:1054D00015C008F016C009F0FDEC32F003C014F05E
:1054E00004C015F005C016F00350CE6E9D809E904E
:1054F0009F90CD8ECD8CCD98CD9ACD96CD92CD80EE
:10550000E552E7CFD9FF120017681868196A2AC157
:105510001AF02BC11BF01C6A1A50175C146E1B503A
:105520001858156E1C501958166E0C6A010E0D6E27
:105530000E6A14C007F015C008F016C009F0FDECA3
:1055400032F00750CF6E17681868196A2AC11AF02E
:105550002BC11BF01C6A1A50175C146E1B50185894
:10556000156E1C501958166E0C6A010E0D6E0E6ADF
:1055700014C007F015C008F016C009F0FDEC32F0B9
:1055800003C014F004C015F005C016F00350CE6E31
:10559000CD801200CD901200D9CFE6FFE1CFD9FF28
:1055A000CA94CC6AFE0EDB5001012C6F2D6BCB6EC2
:1055B0009D829E929F92CA90CA92CA84E552E7CF7A
:1055C000D9FF12002CC1CBFFCA841200CA9412006A
:1055D000D9CFE6FFE1CFD9FFB190FD0EDBCF2EF1A1
:1055E000FE0EDBCF2FF117681868196A2EC11AF06A
:1055F0002FC11BF01C6A1A50175C146E1B501858F0
:10560000156E1C501958166E0C6A010E0D6E0E6A3E
:1056100014C007F015C008F016C009F0FDEC32F018
:105620000750B36E17681868196A2EC11AF02FC197
:105630001BF01C6A1A50175C146E1B501858156E1C
:105640001C501958166E0C6A010E0D6E0E6A14C0AD
:1056500007F015C008F016C009F0FDEC32F003C0E9
:1056600014F004C015F005C016F00350B26EA0820D
:10567000A192A292B18EB198B19AB192B180E55245
:10568000E7CFD9FF120017681868196A2EC11AF0FF
:105690002FC11BF01C6A1A50175C146E1B5018584F
:1056A000156E1C501958166E0C6A010E0D6E0E6A9E
:1056B00014C007F015C008F016C009F0FDEC32F078
:1056C0000350B26E17681868196A2EC11AF02FC1FC
:1056D0001BF01C6A1A50175C146E1B501858156E7C
:1056E0001C501958166E0C6A010E0D6E0E6A14C00D
:1056F00007F015C008F016C009F0FDEC32F007C045
:1057000014F008C015F009C016F00750B36EB18050
:105710001200B19012000101382B000E39234051C4
:10572000385D4151395904E3386B396B010E306FE4
:10573000120001013A2B000E3B2342513A5D4351C6
:105740003B5904E33A6B3B6B010E316F12000101D0
:105750003C2B000E3D2344513C5D45513D5904E333
:105760003C6B3D6B010E326F120001013E2B000EAF
:105770003F2346513E5D47513F5904E33E6B3F6B2B
:10578000010E336F1200D9CFE6FFE1CFD9FFFD0E36
:10579000DBCF40F1FE0EDBCF41F10101386B396BFD
:1057A000306BE552E7CFD9FF1200D9CFE6FFE1CF4A
:1057B000D9FFFD0EDBCF42F1FE0EDBCF43F1050E2C
:1057C0000D6E0E6A42C108F043C109F0D7EC32F009
:1057D00008C042F109C043F101013A6B3B6B316BE8
:1057E000E552E7CFD9FF1200D9CFE6FFE1CFD9FFCD
:1057F000FD0EDBCF46F1FE0EDBCF47F10A0E0D6E3C
:105800000E6A46C108F047C109F0D7EC32F008C073
:1058100046F109C047F101013E6B3F6B336BE55226
:06582000E7CFD9FF1200E2
:0A5826000F0E946E82681200070E48
:105830009410946EDF0E9414946E82681200D9CF87
:10584000E6FFE1CFD9FF040EE126DE6ADD6ADECF96
:1058500014F0DDCF15F0D890155004E6040E145C5A
:10586000000E155801E390D0DECFE9FFDDCFEAFF4F
:10587000200EE926010EEA22EF1C826E020EDB6A80
:10588000030EDB6A020EDBCF14F0030EDBCF15F044
:10589000D890155004E6040E145C000E15586EE204
:1058A000020EDBCFE9FF030EDBCFEAFF240EE92671
:1058B000010EEA22EF5082143FE1DECF18F0DDCF77
:1058C00019F0D89018361936D89018361936020EB5
:1058D000DB501824E96E030EDB501920EA6ED890D5
:1058E000E936EA36000EE926010EEA22EECF16F07E
:1058F000EFCF17F0010E1626000E1722DECF14F0A0
:10590000DDCF15F0D89014361536D89014361536EC
:10591000020EDB501424E96E030EDB501520EA6EF4
:10592000D890E936EA36000EE926010EEA2216C0C2
:10593000EEFF17C0EDFF1BD0DECF14F0DDCF15F06A
:10594000D89014361536D89014361536020EDB5022
:105950001424E96E030EDB501520EA6ED890E93668
:10596000EA36000EE926010EEA22EE6AED6A020E20
:10597000DB2A030E01E286D7DB2A84D7DF2A010E59
:1059800001E265D7DB2A63D7040EE15C02E2E16A3B
:10599000E552E16EE552E7CFD9FF1200D9CFE6FF1D
:1059A000E1CFD9FF040EE126DE6ADD6A020EDB6A72
:1059B000030EDB6A010EDE6EDD6ADECFE9FFDDCFAE
:1059C000EAFF200EE926010EEA22EF1C8214826E05
:1059D000020EDB6A030EDB6A020EDBCF14F0030E4D
:1059E000DBCF15F0D890155004E6030E145C000EC2
:1059F00015586EE2020EDBCFE9FF030EDBCFEAFFA4
:105A0000240EE926010EEA22EF5082143FE1DECF98
:105A100018F0DDCF19F0D89018361936D89018360E
:105A20001936020EDB501824E96E030EDB501920E4
:105A3000EA6ED890E936EA36000EE926010EEA222F
:105A4000EECF16F0EFCF17F0010E1626000E17223C
:105A5000DECF14F0DDCF15F0D89014361536D8907F
:105A600014361536020EDB501424E96E030EDB509B
:105A70001520EA6ED890E936EA36000EE926010EC6
:105A8000EA2216C0EEFF17C0EDFF1BD0DECF14F0E8
:105A9000DDCF15F0D89014361536D890143615365B
:105AA000020EDB501424E96E030EDB501520EA6E63
