:020000040000FA
:0600000029EF40F01200A0
:020006001200E6
:0600080050EF3EF0120073
:02000E000000F0
:0100100000EF
:0400110000000000EB
:06001800DEEF3DF01200D6
:02001E000900D7
:100020006C820000410200002800000051820000A4
:10003000E10000001B00000011000000FA010000B8
:1000400004000000F081000080000000610000005A
:10005000DE8100006C0F0000120000009A81000099
:10006000000F0000440000007A81000069020000D7
:10007000200000000E0000008902000003000000C4
:0C0080008A80000000010000F000000079
:04008C000F0100510F
:1000900002E1010E011902E16CEF05F00F0E0019EB
:1000A00001E1015102E1EBEF04F00E0E001901E154
:1000B000015102E1C8EF04F00D0E001901E10151F8
:1000C00002E164EF04F00B0E001901E1015101E1BE
:1000D000F9D30A0E001901E1015101E199D30C0E87
:1000E000001901E1015101E161D3090E001901E19B
:1000F000015101E159D3080E001901E1015101E15B
:10010000FAD2070E001901E1015101E1F0D2060E09
:10011000001901E1015101E190D2120E001901E133
:10012000015101E188D2050E001901E1015101E1FF
:10013000F3D1040E001901E1015101E191D1110E39
:10014000001901E1015101E1EFD0100E001901E1A8
:10015000015173E0030E001901E1015161E0020E4B
:10016000001901E101511BE0010E001901E10151EB
:1001700001E01200B3EC24F025EC2AF0060EE66E46
:10018000AEEC36F0E552000802E3B3EF05F0020EE4
:100190000F01006F016B010E026F036B1200900ED6
:1001A000E66E6A0EE66EE66AE66A66EC31F0E552E5
:1001B000E552E552E552800EE66E6A0EE66EE66A9C
:1001C000010EE66E66EC31F0E552E552E552E5527D
:1001D000050EE66EAEEC36F0E552000808E200CF00
:1001E00002FF01CF03FF100E0F01006F016B060E1F
:1001F000E66EAEEC36F0E552000804E2030E0F01A5
:10020000006F016B040EE66EAEEC36F0E5520008AE
:1002100002E3B3EF05F00F01006B010E016F120056
:10022000F2EC26F0BEEC27F00F01395102E1B3EFFA
:1002300005F0396B020EB0EF05F0020E021912E163
:10024000035110E1730EE66E6A0EE66EE66AE66A28
:1002500066EC31F0E552E552E552E552630EE66E8A
:100260006A0E0FD0630EE66E6A0EE66EE66AE66A06
:1002700066EC31F0E552E552E552E552570EE66E76
:100280006A0EE66EE66A010EE66E66EC31F0E55245
:10029000E552E552E552050EE66EAEEC36F0E5525B
:1002A000000808E200CF02FF01CF03FF040E0F0198
:1002B000006F016B060EE66EAEEC36F0E5520008FC
:1002C00023E2040EE66EC9EC3DF0E5520F01596FD2
:1002D000050EE66EC9EC3DF0E5520F015A6F060EB1
:1002E000E66EC9EC3DF0E5520F015B6FE66E5ACF4A
:1002F000E6FF59CFE6FFC6EC20F0E552E552E552A5
:10030000110E0F01006F016B040EE66EAEEC36F0BD
:10031000E552000802E3B3EF05F000CF02FF01CF82
:1003200003FF020EAFEF05F0060EE66EAEEC36F000
:10033000E552000904E0100E0F01006F016B0F0180
:100340005851146E156AD00E1426070E15220A0E87
:100350000D6E0E6A14C008F015C009F0BBEC3EF03B
:1003600004C014F005C015F004C0E6FF05C0E6FFA8
:10037000ACEC21F0E552E5520F015851146E156AAC
:10038000D00E1426070E15220C0E0D6E0E6A14C028
:1003900008F015C009F0BBEC3EF004C014F005C035
:1003A00015F004C0E6FF05C0E6FF1CEC22F0E552A4
:1003B000E552520EE66E6A0EE66E010EE66EE66AD3
:1003C00066EC31F0E552E552E552E5524C0EE66E30
:1003D0006A0EE66EE66A010EE66E66EC31F0E552F4
:1003E000E552E552E55256CF14F0156A166A176ABF
:1003F00056CFE6FF15C0E6FF16C0E6FF17C0E6FFC2
:10040000050EE66E010EE66E3FEC30F0186E060E3D
:10041000E15E1850450EE66E6A0EE66E080EE66E58
:10042000010EE66E66EC31F0E552E552E552E5521A
:1004300057CF14F0156A166A176A57CFE6FF15C032
:10044000E6FF16C0E6FF17C0E6FF0E0EE66E010ED1
:10045000E66E3FEC30F0186E060EE15E18501200AA
:10046000100E021912E1035110E1800EE66E6A0EC1
:10047000E66EE66AE66A66EC31F0E552E552E55270
:10048000E552390EE66E6A0E0FD0390EE66E6A0E30
:10049000E66EE66AE66A66EC31F0E552E552E55250
:1004A000E5522C0EE66E6A0EE66EE66A010EE66E08
:1004B00066EC31F0E552E552E552E552050EE66E86
:1004C000AEEC36F0E552000808E200CF02FF01CFA3
:1004D00003FF060E0F01006F016B040EE66EAEEC1B
:1004E00036F0E552000808E200CF02FF01CF03FF1B
:1004F000100E0F01006F016B060EE66EAEEC36F0CB
:10050000E552000801E32FD3050E0F01006F016BC8
:1005100056DB0F013C6B1200AFEC0AF00F013C51AF
:1005200001E022DB040EE66EEEEC36F0E552000947
:1005300006E00F013C6B3D6B3E6B3F6B26D0040E1B
:10054000E66EAEEC36F0E552000914E00F013C51C6
:1005500011E1010E3C6FE66AC9EC3DF0E5520F0176
:100560001F6F206BE66AC9EC3DF0E5520F01216F69
:10057000226B0BD0040EE66EAEEC36F0E5520009AD
:1005800004E00F013C0501E13C6B050EE66EAEECAC
:1005900036F0E55200092EE0050E0F01405D2AE21B
:1005A0004051030DF3CFE9FFF4CFEAFF440EE926F3
:1005B0000F0EEA223DCFEFFF4051030DF3CFE9FFCD
:1005C000F4CFEAFF440EE9260F0EEA22EE523ECFA8
:1005D000EFFF4051030DF3CFE9FFF4CFEAFF440EE4
:1005E000E9260F0EEA22020EE926000EEA223FCF8C
:1005F000EFFF402B050EE66EEEEC36F0E5520009FB
:100600000AE0120E0F01006F016B3C6B0F013A0EF6
:100610006B6F0F01416F060EE66EAEEC36F0E552E1
:10062000000901E1A0D20F013C6B3D6B3E6B3F6BBB
:10063000396B040E95D23FEF06F0040E021912E159
:10064000035110E1570EE66E6A0EE66EE66AE66A40
:1006500066EC31F0E552E552E552E5521F0EE66ECA
:100660006A0E0FD01F0EE66E6A0EE66EE66AE66A46
:1006700066EC31F0E552E552E552E552120EE66EB7
:100680006A0EE66EE66A010EE66E66EC31F0E55241
:10069000E552E552E552050EE66EAEEC36F0E55257
:1006A000000808E200CF02FF01CF03FF080E0F0190
:1006B000006F016B040EE66EAEEC36F0E5520008FA
:1006C00008E200CF02FF01CF03FF040E0F01006F0D
:1006D000016B060EE66EAEEC36F0E552000801E363
:1006E00042D2070E0F01006F016B096B12008DECF7
:1006F0000BF0B0EF0CF0060E021912E1035110E1FD
:100700002C0EE66E6A0EE66EE66AE66A66EC31F07C
:10071000E552E552E552E552050EE66E6A0E0FD03F
:10072000050EE66E6A0EE66EE66AE66A66EC31F083
:10073000E552E552E552E552F80EE66E690EE66EB8
:10074000E66A010EE66E66EC31F0E552E552E552DE
:10075000E552050EE66EAEEC36F0E552000808E212
:1007600000CF02FF01CF03FF0A0E0F01006F016BE4
:10077000040EE66EAEEC36F0E552000808E200CF5B
:1007800002FF01CF03FF060E0F01006F016B060E83
:10079000E66EAEEC36F0E552000801E3E4D10F015D
:1007A000046B056B090EDCD1F4EF13F0E90EE66E75
:1007B000690EE66EE66AE66A66EC31F0E552E552ED
:1007C000E552E552DA0EE66E690EE66EE66A010E55
:1007D000E66E66EC31F0E552E552E552E55218EC72
:1007E0000FF0060EE66EAEEC36F0E552000804E2BD
:1007F000010E0F01006F016B0F012B5101E1B3D10D
:10080000270501E0B0D1010E006F016B2B6B1200C8
:10081000080E021912E1035110E1120EE66E6A0E83
:10082000E66EE66AE66A66EC31F0E552E552E552BC
:10083000E552CD0EE66E690E0FD0CD0EE66E690E56
:10084000E66EE66AE66A66EC31F0E552E552E5529C
:10085000E552C40EE66E690EE66EE66A010EE66EBD
:1008600066EC31F0E552E552E552E552050EE66ED2
:10087000AEEC36F0E552000808E200CF02FF01CFEF
:1008800003FF0D0E0F01006F016B040EE66EAEEC60
:1008900036F0E552000808E200CF02FF01CF03FF67
:1008A000080E0F01006F016B060EE66EAEEC36F01F
:1008B000E552000801E357D10B0E0F01006F016BE9
:1008C000D1EF18F03AEF16F00A0E021912E10351B7
:1008D00010E1F80EE66E690EE66EE66AE66A66EC10
:1008E00031F0E552E552E552E552BB0EE66E690E77
:1008F0000FD0BB0EE66E690EE66EE66AE66A66EC3F
:1009000031F0E552E552E552E552B50EE66E690E5C
:10091000E66EE66A010EE66E66EC31F0E552E552EF
:10092000E552E552050EE66EAEEC36F0E5520008F3
:1009300008E200CF02FF01CF03FF0F01006B010EA1
:10094000016F040EE66EAEEC36F0E552000808E2E8
:1009500000CF02FF01CF03FF0A0E0F01006F016BF2
:10096000060EE66EAEEC36F0E552000801E3FBD071
:100970000E0E0F01006F016BAD0EE66E690EE66E96
:100980007AEC3CF0E552E5520F01010E236F1200A4
:100990009D0EE66E690EE66EE66AE66A66EC31F07A
:1009A000E552E552E552E5520F01296BE66AC9ECC2
:1009B0003DF0E5520F01216F226B1F6F22CF20FF08
:1009C00018EC0FF0060EE66EAEEC36F0E5520008BD
:1009D00001E3C9D07FD0930EE66E690EE66EE66A3B
:1009E000E66A66EC31F0E552E552E552E552890ED1
:1009F000E66E690EE66EE66A010EE66E66EC31F0B2
:100A0000E552E552E552E55224CF14F0156A166A14
:100A1000176A24CFE6FF15C0E6FF16C0E6FF17C031
:100A2000E6FF060EE66EE66A3FEC30F0186E060E44
:100A3000E15E185025CF14F0156A166A176A25CFA3
:100A4000E6FF15C0E6FF16C0E6FF17C0E6FF060E7C
:100A5000E66E010EE66E3FEC30F0186E060EE15EBB
:100A60001850E66AC9EC3DF0E5520F01216F226B88
:100A7000010E156A1F25146E2051152214502119DC
:100A800002E11550221908E03B0E1F190AE120511E
:100A900008E12151221105E121CF1FFF22CF20FFC4
:100AA000292B050E295D0DE12A050BE1AD0EE66E41
:100AB000690EE66E7AEC3CF0E552E5520F01296BC7
:100AC0002A6B18EC0FF0060EE66EAEEC36F0E5522F
:100AD000000849E20D0E43D0C40EE66E690EE66EC4
:100AE000E66AE66A66EC31F0E552E552E552E55217
:100AF000830EE66E690EE66EE66A010EE66E66EC41
:100B000031F0E552E552E552E552040EE66EAEECE8
:100B100036F0E552000808E200CF02FF01CF03FFE4
:100B20000D0E0F01006F016B050EE66EAEEC36F098
:100B3000E552000808E200CF02FF01CF03FF020EDA
:100B40000F01006F016B060EE66EAEEC36F0E5525B
:100B5000000809E200CF02FF01CF03FF010E0F01E1
:100B6000006F016B12001200E66AC9EC3DF0E5521D
:100B70000F01216F226B010E156A1F25146E205183
:100B800015221450211902E11550221908E03B0EDC
:100B90001F190AE1205108E12151221105E13F2BE3
:100BA00021CF1FFF22CF20FF3C0E3F5D02E33F6BB2
:100BB0003E2B3C0E3E5D02E33E6B3D2B1200D9CF37
:100BC000E6FFE1CFD9FF020EE126DE6ADD6A0F0102
:100BD000406BDECF14F0DDCF15F0D890155004E651
:100BE000060E145C000E155840E2DECFE9FFDDCFA3
:100BF000EAFF030EEA02F3CFEAFFE902F3CFE9FFCF
:100C0000F450EA26440EE9260F0EEA22EF6ADECF00
:100C1000E9FFDDCFEAFF030EEA02F3CFEAFFE902C4
:100C2000F3CFE9FFF450EA26440EE9260F0EEA223C
:100C3000EE52EF6ADECFE9FFDDCFEAFF030EEA02F4
:100C4000F3CFEAFFE902F3CFE9FFF450EA26440EBE
:100C5000E9260F0EEA22020EE926000EEA22EF6ACA
:100C6000DF2A010EB6E3DB2AB4D7020EE15C02E212
:100C7000E16AE552E16EE552E7CFD9FF12000F01BC
:100C80006B513E0A01E104D3030A01E137D2010AA4
:100C900001E16AD1070A01E19DD0010A01E01200D9
:100CA0007E0EE66E690EE66EE66AE66A66EC31F086
:100CB000E552E552E552E552790EE66E690EE66EB2
:100CC000E66A010EE66E66EC31F0E552E552E55259
:100CD000E552770EE66E690EE66E060EE66EE66A81
:100CE00066EC31F0E552E552E552E552770EE66EDC
:100CF000690EE66E090EE66EE66A66EC31F0E552C4
:100D0000E552E552E552770EE66E690EE66E060E86
:100D1000E66E010EE66E66EC31F0E552E552E55204
:100D2000E552770EE66E690EE66E090EE66E010E6E
:100D3000E66E66EC31F0E552E552E552E55244CFFD
:100D4000E6FF45CFE6FF46CFE6FFE66A40DBE55229
:100D5000E552E552E55247CFE6FF48CFE6FF49CFDF
:100D6000E6FF010EE66E33DBE552E552E552E55251
:100D7000050EE66EAEEC36F0E552000806E20F0115
:100D80003B0E6B6F0F013A0E416F040EE66EAEEC38
:100D900036F0E552000806E20F013E0E6B6F0F01C0
:100DA0003A0E416F040EE66EC8EC36F0E5520009CB
:100DB00007E1050EE66EC8EC36F0E552000901E0E9
:100DC000FEDE060EE66EAEEC36F0E552000901E1FD
:100DD000FDD2F7D23A0E0F01415D2CE1720EE66EA4
:100DE000690EE66EE66AE66A66EC31F0E552E552B7
:100DF000E552E5526D0EE66E690EE66EE66A010E8C
:100E0000E66E66EC31F0E552E552E552E55244CF2C
:100E1000E6FF45CFE6FF46CFE6FFE66AD8DAE552C1
:100E2000E552E552E55247CFE6FF48CFE6FF49CF0E
:100E3000E6FF2BD06D0EE66E690EE66EE66AE66A98
:100E400066EC31F0E552E552E552E552680EE66E89
:100E5000690EE66EE66A010EE66E66EC31F0E5526A
:100E6000E552E552E55247CFE6FF48CFE6FF49CFCE
:100E7000E6FFE66AACDAE552E552E552E5524ACFC2
:100E8000E6FF4BCFE6FF4CCFE6FF010EE66E9FDAA2
:100E9000E552E552E552E552770EE66E690EE66ED2
:100EA000060EE66EE66A66EC31F0E552E552E55272
:100EB000E552770EE66E690EE66E090EE66EE66A9C
:100EC00066EC31F0E552E552E552E552770EE66EFA
:100ED000690EE66E060EE66E010EE66E66EC31F009
:100EE000E552E552E552E552770EE66E690EE66E82
:100EF000090EE66E010EE66E66EC31F0E552E55243
:100F0000E552E552050EE66EAEEC36F0E55200080D
:100F100006E20F013C0E6B6F0F013B0E416F040E9A
:100F2000E66EAEEC36F0E552000806E20F013A0E2E
:100F30006B6F0F013B0E416F040EE66EC8EC36F08E
:100F4000E552000907E1050EE66EC8EC36F0E55201
:100F5000000901E034DE060EE66EAEEC36F0E55236
:100F6000000901E133D22DD23B0E0F01415D2CE18E
:100F7000790EE66E690EE66EE66AE66A66EC31F0B8
:100F8000E552E552E552E552630EE66E690EE66EF5
:100F9000E66A010EE66E66EC31F0E552E552E55286
:100FA000E55247CFE6FF48CFE6FF49CFE6FFE66AC6
:100FB0000EDAE552E552E552E5524ACFE6FF4BCF55
:100FC000E6FF4CCFE6FF2BD0630EE66E690EE66EB1
:100FD000E66AE66A66EC31F0E552E552E552E55222
:100FE0005E0EE66E690EE66EE66A010EE66E66EC71
:100FF00031F0E552E552E552E5524ACFE6FF4BCFDC
:10100000E6FF4CCFE6FFE66AE2D9E552E552E5524B
:10101000E5524DCFE6FF4ECFE6FF4FCFE6FF010E84
:10102000E66ED5D9E552E552E552E552770EE66E09
:10103000690EE66E060EE66EE66A66EC31F0E55283
:10104000E552E552E552770EE66E690EE66E090E40
:10105000E66EE66A66EC31F0E552E552E552E5529D
:10106000770EE66E690EE66E060EE66E010EE66E11
:1010700066EC31F0E552E552E552E552770EE66E48
:10108000690EE66E090EE66E010EE66E66EC31F054
:10109000E552E552E552E552050EE66EAEEC36F04D
:1010A000E552000806E20F013D0E6B6F0F013C0E8A
:1010B000416F040EE66EAEEC36F0E552000806E233
:1010C0000F013B0E6B6F0F013C0E416F040EE66E7D
:1010D000C8EC36F0E552000907E1050EE66EC8ECF3
:1010E00036F0E552000901E06ADD060EE66EAEEC70
:1010F00036F0E552000901E169D163D13C0E0F01E0
:10110000415D2CE1680EE66E690EE66EE66AE66AFF
:1011100066EC31F0E552E552E552E552590EE66EC5
:10112000690EE66EE66A010EE66E66EC31F0E55297
:10113000E552E552E5524ACFE6FF4BCFE6FF4CCFF2
:10114000E6FFE66A44D9E552E552E552E5524DCF55
:10115000E6FF4ECFE6FF4FCFE6FF2BD0590EE66EEF
:10116000690EE66EE66AE66A66EC31F0E552E55233
:10117000E552E552540EE66E690EE66EE66A010E21
:10118000E66E66EC31F0E552E552E552E5524DCFA0
:10119000E6FF4ECFE6FF4FCFE6FFE66A18D9E552ED
:1011A000E552E552E55250CFE6FF51CFE6FF52CF70
:1011B000E6FF010EE66E0BD9E552E552E552E55227
:1011C000770EE66E690EE66E060EE66EE66A66EC71
:1011D00031F0E552E552E552E552770EE66E690EC2
:1011E000E66E090EE66EE66A66EC31F0E552E5520F
:1011F000E552E552770EE66E690EE66E060EE66E75
:10120000010EE66E66EC31F0E552E552E552E5522C
:10121000770EE66E690EE66E090EE66E010EE66E5C
:1012200066EC31F0E552E552E552E552050EE66E08
:10123000AEEC36F0E552000806E20F013E0E6B6F91
:101240000F013D0E416F040EE66EAEEC36F0E55236
:10125000000806E20F013C0E6B6F0F013D0E416F5F
:10126000040EE66EC8EC36F0E552000907E1050E03
:10127000E66EC8EC36F0E552000901E0A0DC060E8F
:10128000E66EAEEC36F0E552000901E19FD099D050
:101290005E0EE66E690EE66EE66AE66A66EC31F0B0
:1012A000E552E552E552E5524F0EE66E690EE66EE6
:1012B000E66A010EE66E66EC31F0E552E552E55263
:1012C000E5524DCFE6FF4ECFE6FF4FCFE6FFE66A91
:1012D0007ED8E552E552E552E55250CFE6FF51CFB8
:1012E000E6FF52CFE6FF010EE66E71D8E552E552F9
:1012F000E552E552770EE66E690EE66E060EE66E74
:10130000E66A66EC31F0E552E552E552E552770EB9
:10131000E66E690EE66E090EE66EE66A66EC31F080
:10132000E552E552E552E552770EE66E690EE66E3D
:10133000060EE66E010EE66E66EC31F0E552E55201
:10134000E552E552770EE66E690EE66E090EE66E20
:10135000010EE66E66EC31F0E552E552E552E552DB
:10136000050EE66EAEEC36F0E552000806E20F011F
:101370003A0E6B6F0F013E0E416F040EE66EAEEC3F
:1013800036F0E552000806E20F013D0E6B6F0F01CB
:101390003E0E416F040EE66EC8EC36F0E5520009D1
:1013A00007E1050EE66EC8EC36F0E552000902E0F2
:1013B000DFEC05F0060EE66EAEEC36F0E552000905
:1013C00005E0050E0F01006F016B12001200D9CF6E
:1013D000E6FFE1CFD9FF0A0EF36EFB0EDBCFF4FF81
:1013E000F350F45C1FE2E66AE66AE66AE66A040E17
:1013F000E66EFE0EDBCFE6FF3FEC30F0146E060E1D
:10140000E15E1450FB0EDBCF14F0156A166A176A02
:1014100014C0E6FF15C0E6FF16C0E6FF17C0E6FFE2
:10142000050E0FD0FB0EDBCF14F0156A166A176A93
:1014300014C0E6FF15C0E6FF16C0E6FF17C0E6FFC2
:10144000040EE66EFE0EDBCFE6FF3FEC30F0186ECA
:10145000060EE15E18500A0EF36EFC0EDBCFF4FFB1
:10146000F350F45C1FE2E66AE66AE66AE66A070E93
:10147000E66EFE0EDBCFE6FF3FEC30F0146E060E9C
:10148000E15E1450FC0EDBCF14F0156A166A176A81
:1014900014C0E6FF15C0E6FF16C0E6FF17C0E6FF62
:1014A000080E0FD0FC0EDBCF14F0156A166A176A0F
:1014B00014C0E6FF15C0E6FF16C0E6FF17C0E6FF42
:1014C000070EE66EFE0EDBCFE6FF3FEC30F0186E47
:1014D000060EE15E18500A0EF36EFD0EDBCFF4FF30
:1014E000F350F45C1FE2E66AE66AE66AE66A0A0E10
:1014F000E66EFE0EDBCFE6FF3FEC30F0146E060E1C
:10150000E15E1450FD0EDBCF14F0156A166A176AFF
:1015100014C0E6FF15C0E6FF16C0E6FF17C0E6FFE1
:101520000B0E0FD0FD0EDBCF14F0156A166A176A8A
:1015300014C0E6FF15C0E6FF16C0E6FF17C0E6FFC1
:101540000A0EE66EFE0EDBCFE6FF3FEC30F0186EC3
:10155000060EE15E1850E552E7CFD9FF12003F0EAC
:10156000E66E690EE66EE66AE66A66EC31F0E55212
:10157000E552E552E5523C0EE66E690EE66EE66A0D
:10158000010EE66E66EC31F0E552E552E552E552A9
:101590000A0E0F013D5D1DE23A0EE66E690EE66E23
:1015A000040EE66E010EE66E66EC31F0E552E55291
:1015B000E552E5523DCF14F0156A166A176A3DCF21
:1015C000E6FF15C0E6FF16C0E6FF17C0E6FF050EF2
:1015D0000ED03DCF14F0156A166A176A3DCFE6FFAC
:1015E00015C0E6FF16C0E6FF17C0E6FF040EE66E64
:1015F000010EE66E3FEC30F0186E060EE15E1850FC
:10160000770EE66E690EE66E060EE66E010EE66E6B
:1016100066EC31F0E552E552E552E5520A0E0F0153
:101620003E5D1DE23A0EE66E690EE66E070EE66E50
:10163000010EE66E66EC31F0E552E552E552E552F8
:101640003ECF14F0156A166A176A3ECFE6FF15C042
:10165000E6FF16C0E6FF17C0E6FF080E0ED03ECF2D
:1016600014F0156A166A176A3ECFE6FF15C0E6FF4A
:1016700016C0E6FF17C0E6FF070EE66E010EE66E27
:101680003FEC30F0186E060EE15E1850770EE66EF5
:10169000690EE66E090EE66E010EE66E66EC31F03E
:1016A000E552E552E552E5520A0E0F013F5D1DE29B
:1016B0003A0EE66E690EE66E0A0EE66E010EE66EF4
:1016C00066EC31F0E552E552E552E5523FCF14F0B9
:1016D000156A166A176A3FCFE6FF15C0E6FF16C007
:1016E000E6FF17C0E6FF0B0E0ED03FCF14F0156AD1
:1016F000166A176A3FCFE6FF15C0E6FF16C0E6FF81
:1017000017C0E6FF0A0EE66E010EE66E3FEC30F003
:10171000186E060EE15E18501200290EE66E690E74
:10172000E66EE66AE66A66EC31F0E552E552E552AD
:10173000E5523C0EE66E690EE66EE66A010EE66E56
:1017400066EC31F0E552E552E552E5520F011E51CB
:1017500004E0240EE66E690E03D0200EE66E690EDC
:10176000E66E0C0EE66E010EE66E66EC31F0E552AA
:10177000E552E552E5520A0E0F0118AF02D0D8909B
:1017800003D0175D000E185923E23A0EE66E690E7B
:10179000E66E010EE66EE66E66EC31F0E552E5525D
:1017A000E552E55217CF14F018CF15F0166A176AF4
:1017B00015AE02D01668176814C0E6FF15C0E6FF24
:1017C00016C0E6FF17C0E6FF020EE66E010E14D04B
:1017D00017CF14F018CF15F0166A176A15AE02D09D
:1017E0001668176814C0E6FF15C0E6FF16C0E6FFCE
:1017F00017C0E6FF010EE66EE66E3FEC30F0186EA5
:10180000060EE15E1850770EE66E690EE66E030E68
:10181000E66E010EE66E66EC31F0E552E552E552F9
:10182000E5520A0E0F011AAF02D0D89003D0195D0D
:10183000000E1A5922E23A0EE66E690EE66E040EAA
:10184000E66E010EE66E66EC31F0E552E552E552C9
:10185000E55219CF14F01ACF15F0166A176A15AEB3
:1018600002D01668176814C0E6FF15C0E6FF16C060
:10187000E6FF17C0E6FF050E13D019CF14F01ACFFC
:1018800015F0166A176A15AE02D01668176814C0EC
:10189000E6FF15C0E6FF16C0E6FF17C0E6FF040E20
:1018A000E66E010EE66E3FEC30F0186E060EE15E5D
:1018B0001850770EE66E690EE66E060EE66E010EA5
:1018C000E66E66EC31F0E552E552E552E5520A0E5D
:1018D0000F011CAF02D0D89003D01B5D000E1C5925
:1018E00022E23A0EE66E690EE66E070EE66E010E15
:1018F000E66E66EC31F0E552E552E552E5521BCF5B
:1019000014F01CCF15F0166A176A15AE02D01668CF
:10191000176814C0E6FF15C0E6FF16C0E6FF17C043
:10192000E6FF080E13D01BCF14F01CCF15F0166A7B
:10193000176A15AE02D01668176814C0E6FF15C006
:10194000E6FF16C0E6FF17C0E6FF070EE66E010EC3
:10195000E66E3FEC30F0186E060EE15E1850120095
:101960000F010951040A01E105D2070A01E164D11E
:10197000010A01E1EDD0030A01E176D0010A01E09C
:1019800012001D29146E140E156E0E6E14C009F08F
:1019900037EC40F005C01DFF0F0105500F080DE2A8
:1019A0003C0EE66E690EE66E010EE66EE66E66ECC5
:1019B00031F0E552E552E552E552040EE66EAEEC2A
:1019C00036F0E55200080DE20F01172B000E182328
:1019D000183507E217511708000E185502E2176B69
:1019E000186B050EE66EAEEC36F0E55200080AE222
:1019F0000F011707000E185B800E181503E0170E75
:101A0000176F186B040EE66EC8EC36F0E55200084E
:101A10000EE2050E0F011727000E1823183507E2F6
:101A200017511708000E185502E2176B186B050EB8
:101A3000E66EC8EC36F0E55200080BE2050E0F0129
:101A4000175F000E185B800E181503E0170E176F56
:101A5000186B060EE66EAEEC36F0E552000801E3B8
:101A6000C8D10F01010E84D11D29146E140E156EFC
:101A70000E6E14C009F037EC40F005C01DFF0F01D9
:101A800005500F080EE23C0EE66E690EE66E040E7F
:101A9000E66E010EE66E66EC31F0E552E552E55277
:101AA000E552040EE66EAEEC36F0E55200080DE2AB
:101AB0000F01192B000E1A231A3507E219513B08A2
:101AC000000E1A5502E2196B1A6B050EE66EAEECAB
:101AD00036F0E55200080AE20F011907000E1A5B02
:101AE000800E1A1503E03B0E196F1A6B040EE66E9A
:101AF000C8EC36F0E55200080EE2140E0F0119276B
:101B0000000E1A231A3507E219513B08000E1A5528
:101B100002E2196B1A6B050EE66EC8EC36F0E55260
:101B200000080BE2140E0F01195F000E1A5B800E05
:101B30001A1503E03B0E196F1A6B060EE66EAEEC3B
:101B400036F0E552000801E354D10F01020E10D126
:101B50001D29146E140E156E0E6E14C009F037ECAC
:101B600040F005C01DFF0F0105500F080EE23C0EAE
:101B7000E66E690EE66E070EE66E010EE66E66EC28
:101B800031F0E552E552E552E552040EE66EAEEC58
:101B900036F0E55200080DE20F011B2B000E1C234E
:101BA0001C3507E21B513B08000E1C5502E21B6B63
:101BB0001C6B050EE66EAEEC36F0E55200080AE24C
:101BC0000F011B07000E1C5B800E1C1503E03B0E73
:101BD0001B6F1C6B040EE66EC8EC36F0E552000875
:101BE0000EE2140E0F011B27000E1C231C3507E20A
:101BF0001B513B08000E1C5502E21B6B1C6B050EB3
:101C0000E66EC8EC36F0E55200080BE2140E0F0148
:101C10001B5F000E1C5B800E1C1503E03B0E1B6F50
:101C20001C6B060EE66EAEEC36F0E552000801E3E2
:101C3000E0D00F01030E9CD0040EE66EAEEC36F041
:101C4000E552000811E20F01010E1E6FE66AC9ECB1
:101C50003DF0E5520F011F6F206BE66AC9EC3DF0C5
:101C6000E5520F01216F226B050EE66EAEEC36F0E9
:101C7000E552000802E20F011E6B0F011E5145E004
:101C8000E66AC9EC3DF0E5520F01216F226B010EAF
:101C9000156A1F25146E205115221450211902E1D6
:101CA0001550221908E03B0E1F192FE120512DE19C
:101CB000215122112AE121CF1FFF22CF20FF1C3505
:101CC00009E21B510008000E1C5504E21B07000E20
:101CD0001C5B1BD01B511C1118E119511A1107E094
:101CE0003B0E1B6F1C6B1907000E1A5B0ED01951AF
:101CF0001A110BE11751181108E01707000E185BB5
:101D00003B0E196F1A6B1B6F1C6B1751181107E1F3
:101D100019511A1104E11B511C1101E11E6B1E51D6
:101D20001DE11D29146E140E156E0E6E14C009F0FF
:101D300037EC40F005C01DFF0F0105500F080EE203
:101D40001B0EE66E690EE66E0C0EE66E010EE66E7A
:101D500066EC31F0E552E552E552E552060EE66ECC
:101D6000AEEC36F0E552000844E20F011E6B040EA3
:101D7000096F12001D29146E140E156E0E6E14C01C
:101D800009F037EC40F005C01DFF0F0105500F08AA
:101D90000DE21B0EE66E690EE66E0C0EE66EE66A4E
:101DA00066EC31F0E552E552E552E552040EE66E7E
:101DB000AEEC36F0E552000907E1050EE66EAEEC3A
:101DC00036F0E552000902E00F0111D0060EE66E72
:101DD000AEEC36F0E55200080CE2060E0F01006F83
:101DE000016B176B186B196B1A6B1B6B1C6B096BF8
:101DF00012001200D9CFE6FFE1CFD9FFE65202016F
:101E00008A51EA6A010FE96E020EEA22EFCFDFFF84
:101E10008A293F0B8A6FDF50E552E552E7CFD9FFA1
:101E200012000201896B02018A6B02018B6B1200A6
:101E3000010E0F01421901E1435101E012000201BC
:101E40008B51000804E204D802018B071200120033
:101E5000D9CFE6FFE1CFD9FFE652CCDFDF6EDFCF8F
:101E6000E6FFC0EC3AF0E552630E0F01351901E1CF
:101E7000365101E159D1690E351901E1365101E1BF
:101E80001DD1680E351901E1365101E1F8D0670E18
:101E9000351901E1365101E1C8D0660E351901E16D
:101EA000365101E1A7D0650E351901E1365101E146
:101EB00076D0640E351901E1365155E00E0E351914
:101EC00001E1365144E00C0E351901E1365136E09E
:101ED0000B0E351901E1365128E00A0E351901E1E2
:101EE00036511AE0020E351901E136510CE0010EAF
:101EF000351901E05ED1365101E05BD1210EDF5C86
:101F000001E057D12CD0540EDF5C02E10A0E4FD114
:101F1000210EDF5C26E123D0490EDF5C02E10B0ECF
:101F200046D1210EDF5C1DE11AD04D0EDF5C02E1CF
:101F30000C0E3DD1210EDF5C14E111D0450EDF5CAB
:101F400002E10E0E34D1210EDF5C0BE108D03A0E17
:101F5000DF5C02E1640E2BD1210EDF5C02E1020E98
:101F600026D1010E24D1DFCFE6FFEEEC18F0E552CA
:101F7000F3CF12FFF4CF13FF0F01F31C01E1131D88
:101F800001E198D00A0E086E096A12CF0DF013CF46
:101F90000EF00EEC3FF006C05EFF650E07D1DFCFFE
:101FA000E6FFEEEC18F0E552F3CF12FFF4CF13FF8B
:101FB0000F01F31C01E1131D01E17CD012510F014F
:101FC0005E27170EE66EE66A5E51E66EE66A0CEC78
:101FD00019F0E552E552E552E552F3CF14F0F4CF93
:101FE00015F0F350F41002E0660EE0D0DF0EE66E5E
:101FF000680E8DD0DFCFE6FFEEEC18F0E552F3CFA0
:1020000012FFF4CF13FF0F01F31C01E1131D52E087
:102010000A0E086E096A12CF0DF013CF0EF00EEC07
:102020003FF006C05FFF670EC1D0DFCFE6FFEEECEA
:1020300018F0E552F3CF12FFF4CF13FF0F01F31C9A
:1020400001E1131D37E012510F015F273B0EE66ED1
:10205000E66A5F51E66EE66A0CEC19F0E552E5526D
:10206000E552E552F3CF14F0F4CF15F0F350F4102D
:1020700002E0680E9BD0A40EE66E680E48D0DFCF5B
:10208000E6FFEEEC18F0E552F3CF12FFF4CF13FFAA
:102090000F01F31C01E1131D0DE00A0E086E096A21
:1020A00012CF0DF013CF0EF00EEC3FF006C060FF24
:1020B000690E7CD0020EE66E690E72D0DFCFE6FFAD
:1020C000EEEC18F0E552F3CF12FFF4CF13FF0F013F
:1020D000F31C01E1131D24E012510F0160273B0E98
:1020E000E66EE66A6051E66EE66A0CEC19F0E552BF
:1020F000E552E552E552F3CF14F0F4CF15F0F3506A
:10210000F41002E0630E52D07F0EE66E680EE66EAB
:102110007AEC3CF0E552E552C90EE66E680E40D00E
:10212000650EE66E680E3CD0230EDF5C26E1010EE4
:10213000356F366B5ECFE6FF020EE66EB8EC3DF013
:10214000E552E5525FCFE6FF010EE66EB8EC3DF0DA
:10215000E552E55260CFE6FFE66A48EC3DF0E55215
:10216000E5520F012C5125E0450EE66E680EE66E35
:102170007AEC3CF0E552E5521CD02D0EE66E680E6E
:10218000E66E7AEC3CF0E552E552100EE66E680E13
:10219000E66E7AEC3CF0E552E552F70EE66E670E1D
:1021A000E66E7AEC3CF0E552E552010E0F01356F18
:1021B000366B630E0F01371901E1385101E11CD272
:1021C000740E371901E1385101E1D1D1760E37197A
:1021D00001E1385101E121D1750E371901E1385182
:1021E00001E1FDD0730E371901E1385101E1BBD097
:1021F000720E371901E1385101E194D06F0E371991
:1022000001E1385101E177D06E0E371901E1385103
:1022100055E06D0E371901E1385144E06C0E371965
:1022200001E1385136E06B0E371901E1385128E0F1
:102230006A0E371901E138511AE0020E371901E12F
:1022400038510CE0010E371901E027D2385101E076
:1022500024D2210EDF5C01E020D22CD0440EDF5CC2
:1022600002E16A0EC6D1210EDF5C26E123D0410EC9
:10227000DF5C02E16B0EBDD1210EDF5C1DE11AD0E7
:10228000540EDF5C02E16C0EB4D1210EDF5C14E170
:1022900011D0450EDF5C02E16D0EABD1210EDF5C8B
:1022A0000BE108D03A0EDF5C02E16E0EA2D1210EE6
:1022B000DF5C02E1020E9DD1010E9BD1DFCFE6FF74
:1022C000EEEC18F0E552F3CF14FFF4CF15FF0F0139
:1022D000F31C01E1151D43E00A0E086E096A14CFD4
:1022E0000DF015CF0EF00EEC3FF006C063FF07C0F7
:1022F00064FF6F0E7DD1DFCFE6FFEEEC18F0E55204
:10230000F3CF14FFF4CF15FF0F01F31C01E1151DEE
:1023100026E014510F0163270F0115510F016423AB
:10232000720E66D1DFCFE6FFEEEC18F0E552F3CF88
:1023300014FFF4CF15FF0F01F31C01E1151D0FE091
:102340000A0E086E096A14CF0DF015CF0EF00EECD0
:102350003FF006C065FF07C066FF730E49D1020E4D
:10236000E66E690E3FD1DFCFE6FFEEEC18F0E552E6
:10237000F3CF14FFF4CF15FF0F01F31C01E1151D7E
:1023800001E12DD114510F0165270F0115510F01E6
:1023900066230C0EE66EE66A65CFE6FF66CFE6FFC3
:1023A0000CEC19F0E552E552E552E552F3CF14F08A
:1023B000F4CF15F0F350F41006E00F0165516611EB
:1023C00002E0750E15D1D30EE66E670EE66E7AEC5E
:1023D0003CF0E552E552C90EE66E680E03D1DFCF40
:1023E000E6FFEEEC18F0E552F3CF14FFF4CF15FF43
:1023F0000F01F31C01E1151D01E1F1D00A0E086E79
:10240000096A14CF0DF015CF0EF00EEC3FF006C0A8
:1024100067FF07C068FF760EEBD0DFCFE6FFEEEC7C
:1024200018F0E552F3CF14FFF4CF15FF0F01F31CA2
:1024300001E1151D01E1D3D014510F0167270F01F0
:1024400015510F0168236751681109E1BD0EE66E51
:10245000670EE66E7AEC3CF0E552E5521ED165CF90
:10246000E6FF66CFE6FF30EC19F0E552E552F3CF18
:1024700014F0F4CF15F0F350F4100CE10F016835AF
:1024800009E267511E08000E685504E29B0EE66ED5
:10249000670E9CD065CFE6FF66CFE6FF30EC19F003
:1024A000E552E552F3CF14F0F4CF15F0010EF31816
:1024B0000EE115500CE10F01683509E267511F0864
:1024C000000E685504E2630EE66E670E7FD065CF9E
:1024D000E6FF66CFE6FF30EC19F0E552E552F3CFA8
:1024E00014F0F4CF15F0020EF31818E1155016E1B0
:1024F00063CFE6FF64CFE6FF76EC19F0E552E552D4
:1025000000090CE00F01683509E267511D08000E53
:10251000685504E2410EE66E670E58D065CFE6FFBF
:1025200066CFE6FF30EC19F0E552E552F3CF14F038
:10253000F4CF15F0020EF31818E1155016E163CF31
:10254000E6FF64CFE6FF76EC19F0E552E5520009AC
:102550000CE10F01683509E267511C08000E68554F
:1025600004E21F0EE66E670E31D0740E41D0DFCF4D
:10257000E6FFEEEC18F0E552F3CF14FFF4CF15FFB1
:102580000F01F31C01E1151D2AE014CF69FF15CFDF
:102590006AFF070EE66EE66A14CFE6FF15CFE6FF88
:1025A0000CEC19F0E552E552E552E552F3CF14F088
:1025B000F4CF15F0F350F41006E00F0169516A11E1
:1025C00002E0630E15D0FD0EE66E660EE66E7AEC46
:1025D0003CF0E552E552850EE66E670E03D0650EBF
:1025E000E66E680EE66E7AEC3CF0E552E552010EBE
:1025F0000F01376F386B51D0230EDF5C32E1010ED3
:10260000376F386B63CFE6FF060EE66EB8EC3DF031
:10261000E552E55265CFE6FF050EE66EB8EC3DF0FB
:10262000E552E55267CFE6FF040EE66EB8EC3DF0EA
:10263000E552E55269CFE6FF030EE66EB8EC3DF0D9
:10264000E552E5520F012C5108E0DD0EE66E660EF4
:10265000E66E7AEC3CF0E552E5520F01010E2B6F6D
:102660001CD0BE0EE66E660EE66E7AEC3CF0E552CD
:10267000E552100EE66E680EE66E7AEC3CF0E5521E
:10268000E552F70EE66E670EE66E7AEC3CF0E55228
:10269000E552010E0F01356F366B0F012351630AAE
:1026A00001E189D0AD0A6DE0030A5AE0010A49E070
:1026B000070A36E0010A2AE0030A1FE0010A14E0D3
:1026C000CA0A08E0030A01E08AD0210EDF5C01E0BB
:1026D00086D024D0440EDF5C02E1C80E7FD0210EEC
:1026E000DF5C01E07AD01AD0480EDF5C02E1C90E4F
:1026F00075D0210EDF5C71E111D0540EDF5C02E178
:10270000CA0E6CD0210EDF5C68E108D03A0EDF5CA7
:1027100002E1CB0E63D0210EDF5C5FE1020E5ED0E2
:10272000DFCFE6FFEEEC18F0E552F3CF26FFFF0E09
:102730000F01F35C35E00A0E2603F3CF24FFCC0E25
:102740004DD0DFCFE6FFEEEC18F0E552F3CF26FFD9
:10275000FF0E0F01F35C24E026512427CD0E3ED05E
:10276000DFCFE6FFEEEC18F0E552F3CF26FFFF0EC9
:102770000F01F35C15E00A0E2603F3CF25FFCE0E02
:102780002DD0DFCFE6FFEEEC18F0E552F3CF26FFB9
:10279000FF0E0F01F35C04E026512527630E1ED0C7
:1027A000010E236FAF0EE66E660EE66E7AEC3CF01D
:1027B000E552E55214D0230EDF5C06E10F0E006FE8
:1027C000016B010E2A6F0AD09E0EE66E660EE66E53
:1027D0007AEC3CF0E552E5520F01010E236FE55211
:1027E000E552E7CFD9FF12000F01045102E1010EBB
:1027F000051901E1E6D0040E041901E1055101E1DA
:10280000DED0030E041901E1055101E1CAD0010E29
:10281000041901E1055145E0045101E1055101E0D0
:102820001200940EE66E660EE66EE66AE66A66ECE6
:1028300031F0E552E552E552E552880EE66E660E3D
:10284000E66EE66A010EE66E66EC31F0E552E552A0
:10285000E552E552060EE66EAEEC36F0E5520008A3
:1028600006E2040E0F01046F056B276B286B050E43
:10287000E66EAEEC36F0E552000806E2010E0F01FE
:10288000046F056B076B086B040EE66EAEEC36F05A
:10289000E552000801E3D1D00F01046B010E056F72
:1028A00012000751081110E07C0EE66E660EE66E0F
:1028B000E66AE66A66EC31F0E552E552E552E55229
:1028C000760EE66E660E0FD06C0EE66E660EE66E47
:1028D000E66AE66A66EC31F0E552E552E552E55209
:1028E0007C0EE66E660EE66EE66A010EE66E66EC3D
:1028F00031F0E552E552E552E552050EE66EAEECDA
:1029000036F0E552000804E20F01046B010E056F7A
:10291000040EE66EAEEC36F0E552000803E20F015D
:10292000046B056B060EE66EAEEC36F0E552000861
:1029300001E383D0030E0F01046F056B010E166FC8
:10294000E66AC9EC3DF0E5520F012D6F010EE66E0F
:10295000C9EC3DF0E5520F012E6F020EE66EC9EC98
:102960003DF0E5520F012F6F030EE66EC9EC3DF00E
:10297000E5520F01306F040EE66EC9EC3DF0E552F2
:102980000F01316F050EE66EC9EC3DF0E5520F0107
:10299000326F060EE66EC9EC3DF0E5520F01336F63
:1029A0001200F0EC1AF0FDEC1CF00F013A5145E07A
:1029B000046B056B3A6B010E006F016B12001EEF8A
:1029C00015F0880EE66E660EE66EE66AE66A66EC5E
:1029D00031F0E552E552E552E552660EE66E660EBE
:1029E000E66EE66A010EE66E66EC31F0E552E552FF
:1029F000E552E552060EE66EAEEC36F0E552000802
:102A000004E2080E0F01006F016B050EE66EAEECDE
:102A100036F0E552000803E20F01046B056B040E6B
:102A2000E66EAEEC36F0E552000807E2010E0F014B
:102A3000046F056B076F086B120012000F0127511E
:102A4000020A01E1DAD0030A01E177D0010A01E0CC
:102A50001200550EE66E660EE66EE66AE66A66ECF3
:102A600031F0E552E552E552E5524B0EE66E660E48
:102A7000E66EE66A010EE66E66EC31F0E552E5526E
:102A8000E552E552060EE66EAEEC36F0E552000871
:102A90003CE2230EE66E660EE66E7AEC3CF0E55202
:102AA000E552F20EE66E650EE66E7AEC3CF0E5520B
:102AB000E552E20EE66E650EE66E7AEC3CF0E5520B
:102AC000E552C00EE66E650EE66E7AEC3CF0E5521D
:102AD000E5528F0EE66E650EE66E7AEC3CF0E5523E
:102AE000E5527E0EE66E650EE66E7AEC3CF0E5523F
:102AF000E5520201896B02018A6B02018B6B0F01A7
:102B0000010E2C6F0C0E006F016B040EE66EAEEC26
:102B100036F0E552000804E20F01020E276F286B21
:102B2000050EE66EAEEC36F0E552000801E3A1D0EA
:102B30000F01010E276F286B1200285110E16D0E56
:102B4000E66E650EE66EE66AE66A66EC31F0E55220
:102B5000E552E552E552630EE66E650E0FD0630E48
:102B6000E66E650EE66EE66AE66A66EC31F0E55200
:102B7000E552E552E552760EE66E660EE66EE66AC0
:102B8000010EE66E66EC31F0E552E552E552E55293
:102B9000060EE66EAEEC36F0E552000817E25A0E6D
:102BA000E66E650EE66E7AEC3CF0E552E5520F01FA
:102BB0002C6B0201896B02018A6B02018B6B0C0E7C
:102BC0000F01006F016B070E116F2B6B040EE66E89
:102BD000AEEC36F0E552000804E20F01276B010E5F
:102BE000286F050EE66EAEEC36F0E552000841E2C5
:102BF0000F01020E276F010E3AD04B0EE66E660EE5
:102C0000E66EE66AE66A66EC31F0E552E552E552B8
:102C1000E552660EE66E660EE66EE66A010EE66E3A
:102C200066EC31F0E552E552E552E552060EE66EED
:102C3000AEEC36F0E552000804E2080E0F01006F1A
:102C4000016B040EE66EAEEC36F0E552000805E2CC
:102C50000F01010E276F020E286F050EE66EAEEC17
:102C600036F0E552000805E20F01276B020E286FCF
:102C7000120012000F010B5102E1010E0C1901E1CB
:102C8000DAD1370E0B1901E10C5101E183D1360E77
:102C90000B1901E10C5101E131D1350E0B1901E1A4
:102CA0000C5101E1DDD0340E0B1901E10C5101E1B1
:102CB0008BD0330E0B1901E10C513AE0320E0B1997
:102CC00001E10C5101E01200490EE66E650EE66E60
:102CD000E66AE66A66EC31F0E552E552E552E55205
:102CE000380EE66E650EE66EE66A010EE66E66EC7E
:102CF00031F0E552E552E552E552050EE66EAEECD6
:102D000036F0E552000807E2320E0F010D6F0E6B30
:102D1000330E0B6F0C6B040EE66EAEEC36F0E55224
:102D2000000804E20F010B6B010E0C6F090E7DD140
:102D3000320E0D1912E10E5110E1270EE66E650EEE
:102D4000E66EE66AE66A66EC31F0E552E552E55277
:102D5000E552160EE66E650E0FD0160EE66E650E87
:102D6000E66EE66AE66A66EC31F0E552E552E55257
:102D7000E552050EE66E650EE66EE66A010EE66E3B
:102D800066EC31F0E552E552E552E552050EE66E8D
:102D9000AEEC36F0E552000807E2330E0F010D6F7E
:102DA0000E6B340E0B6F0C6B040EE66EAEEC36F051
:102DB000E552000807E2330E0F010D6F0E6B320E65
:102DC0000B6F0C6B080E31D1330E0D1912E10E5141
:102DD00010E1380EE66E650EE66EE66AE66A66ECAF
:102DE00031F0E552E552E552E552F40EE66E640E1E
:102DF0000FD0F40EE66E640EE66EE66AE66A66ECE6
:102E000031F0E552E552E552E552E30EE66E640E0E
:102E1000E66EE66A010EE66E66EC31F0E552E552CA
:102E2000E552E552050EE66EAEEC36F0E5520008CE
:102E300007E2340E0F010D6F0E6B350E0B6F0C6B2E
:102E4000040EE66EAEEC36F0E552000807E2340EF2
:102E50000F010D6F0E6B330E0B6F0C6B010EE5D077
:102E6000340E0D1912E10E5110E1050EE66E650EDD
:102E7000E66EE66AE66A66EC31F0E552E552E55246
:102E8000E552D20EE66E640E0FD0D20EE66E640EE0
:102E9000E66EE66AE66A66EC31F0E552E552E55226
:102EA000E552C10EE66E640EE66EE66A010EE66E4F
:102EB00066EC31F0E552E552E552E552050EE66E5C
:102EC000AEEC36F0E552000807E2350E0F010D6F4B
:102ED0000E6B360E0B6F0C6B040EE66EAEEC36F01E
:102EE000E552000807E2350E0F010D6F0E6B340E30
:102EF0000B6F0C6BFB0EE66EE66899D0350E0D1964
:102F000012E10E5110E1E30EE66E640EE66EE66A23
:102F1000E66A66EC31F0E552E552E552E552B00E54
:102F2000E66E640E0FD0B00EE66E640EE66EE66AD4
:102F3000E66A66EC31F0E552E552E552E5529F0E45
:102F4000E66E640EE66EE66A010EE66E66EC31F041
:102F5000E552E552E552E552050EE66EAEEC36F06E
:102F6000E552000807E2360E0F010D6F0E6B370EAB
:102F70000B6F0C6B040EE66EAEEC36F0E5520008FB
:102F800007E2360E0F010D6F0E6B350E0B6F0C6BDB
:102F9000000E4BD0360E0D1912E10E5110E1C10E8C
:102FA000E66E640EE66EE66AE66A66EC31F0E552BD
:102FB000E552E552E5528E0EE66E640E0FD08E0E8F
:102FC000E66E640EE66EE66AE66A66EC31F0E5529D
:102FD000E552E552E552B50EE66E690EE66EE66A1A
:102FE000010EE66E66EC31F0E552E552E552E5522F
:102FF000050EE66EAEEC36F0E552000807E2370E3D
:103000000F010D6F0E6B0B6B010E0C6F040EE66E55
:10301000AEEC36F0E552000807E2370E0F010D6FF7
:103020000E6B360E0B6F0C6B070EE66EE66A45D81C
:10303000E552E55212009F0EE66E640EE66EE66AF9
:10304000E66A66EC31F0E552E552E552E552830E50
:10305000E66E690EE66EE66A010EE66E66EC31F02B
:10306000E552E552E552E552040EE66EAEEC36F05E
:10307000E552000807E2370E0F010B6F0C6B0D6B6A
:10308000010E0E6F050EE66EAEEC36F0E55200084E
:1030900007E2320E0F010B6F0C6B0D6B010E0E6F02
:1030A000060EE66EAEEC36F0E552000805E20A0EBA
:1030B0000F01006F016B12001200D9CFE6FFE1CFC4
:1030C000D9FF060EE66EAEEC36F0E55200085AE285
:1030D0000F011151146E156AFD0EDB50141803E137
:1030E000FE0EDB5015184EE01151146E156AFD0EE0
:1030F000DBCF08F0FE0EDBCF09F01450085C0F6F39
:1031000015500958106FFD0EDBCF11FF020EE66E51
:10311000C9EC3DF0E5520F015C6F5D6BE8500F01AB
:103120000F250F015C6F5D510F0110210F015D6FC5
:10313000800E5D1508E0180E5C255C6F000E5D21A9
:103140005D6FE66A0DD05D350DE25C511708000E2B
:103150005D5508E2180E5C5F000E5D5B010EE66EC9
:1031600013D9E5525CCFE6FF020EE66EB8EC3DF0F7
:10317000E552E552010E0F01006F016B380E0B6F27
:103180000C6B0BD0060EE66EAEEC36F0E552000886
:1031900004E2010E0F01006F016BE552E7CFD9FF8A
:1031A00012000F011151070A15E0070A11E0FB0A8E
:1031B0000DE0FA0A09E0090A05E0010A01E012003F
:1031C000320E09D0330E07D0340E05D0350E03D0A1
:1031D000360E01D0370E0B6F0C6B1200D9CFE6FF05
:1031E000E1CFD9FF300EF36EFE0EDBCFF4FFF350CC
:1031F000F45C0CE3FE0EDB50390808E3FE0EDB50F6
:10320000D00F156AF36E15C0F4FF02D0F368F468AE
:10321000E552E7CFD9FF1200D9CFE6FFE1CFD9FFC2
:10322000FD0EDBCF14F0FE0EDBCF15F0FB0EDBCF77
:1032300016F0FC0EDBCF17F017501518E8AE02D0D1
:10324000153404D01450165C1550175802E2F36A76
:1032500002D0010EF36EF46AE552E7CFD9FF1200F7
:10326000D9CFE6FFE1CFD9FFE150FD0FE96EFF0EA8
:10327000DA20EA6E020EEE1804E1ED5002E1020ED1
:103280002FD0D950FD0FE96EFF0EDA20EA6E040E42
:10329000EE1801E1ED5021E0D950FD0FE96EFF0E6F
:1032A000DA20EA6E060EEE1801E1ED5016E0D95074
:1032B000FD0FE96EFF0EDA20EA6E090EEE1801E14D
:1032C000ED500BE0D950FD0FE96EFF0EDA20EA6EEB
:1032D0000B0EEE1804E1ED5002E1F36A02D0010E8C
:1032E000F36EF46AE552E7CFD9FF1200D9CFE6FFBB
:1032F000E1CFD9FFFD0EDBCF14F0FE0EDBCF15F0D2
:10330000040E0D6E0E6A14C008F015C009F0BBEC77
:103310003EF004C014F005C015F00450051016E18D
:10332000FD0EDBCF16F0FE0EDBCF17F0640E0D6E38
:103330000E6A16C008F017C009F0BBEC3EF004C0DE
:1033400016F005C017F00450051017E1FD0EDBCF95
:1033500018F0FE0EDBCF19F0900E0D6E010E0E6E02
:1033600018C008F019C009F0BBEC3EF004C018F01A
:1033700005C019F00450051002E1010E01D0000E45
:10338000E552E7CFD9FF1200D9CFE6FFE1CFD9FF51
:10339000040EE126E66EC9EC3DF0E552DF6E030E49
:1033A000E66EC9EC3DF0E552E76E010EE7CFDBFFBC
:1033B000050EE66EC9EC3DF0E552E76E020EE7CF72
:1033C000DBFF060EE66EC9EC3DF0E552E76E030E3C
:1033D000E7CFDBFFFE0EDB5064E1DF06010EDB060C
:1033E000F36EDBCFF4FFE850F45C03E2DE52070E2D
:1033F000DD6E010EDF5C01E3C4D0020EDB040AE1E6
:103400001F0EDF6E0C0EF36E020EF3CFDBFF030E0A
:10341000DB06B7D0020EDBCFE6FFE66A21DFE5521E
:10342000E552F3CF14F0F4CF15F0F350F41004E1AB
:10343000020EDB061F0EA4D0020EDBCFE6FFE66A0B
:103440000FDFE552E552F3CF14F0F4CF15F0010E83
:10345000F3180DE115500BE1020EDB50030807E0F5
:10346000010EF36E020EF3CFDBFF1E0E89D0020EAB
:10347000DBCFE6FFE66AF4DEE552E552F3CF14F067
:10348000F4CF15F0010EF31801E07BD0155001E0E8
:1034900078D0030EDB50030B02E11D0E71D01C0E21
:1034A0006FD0DF2A010EDB2ADB50070803E2DE5271
:1034B000010EDD6E020EDB500C080DE1DF501F081F
:1034C0000AE2010EF36E020EF3CFDBFF010EDF6E98
:1034D000030EDB2A56D0020EDBCFE6FFE66AC0DE23
:1034E000E552E552F3CF14F0F4CF15F0F350F41099
:1034F00003E1DF501E0841E3020EDBCFE6FFE66A80
:10350000AFDEE552E552F3CF14F0F4CF15F0010E23
:10351000F31805E1155003E1DF501F082EE3020EFA
:10352000DBCFE6FFE66A9CDEE552E552F3CF14F00E
:10353000F4CF15F0020EF31809E1155007E1030E60
:10354000DB50030B03E1DF501D0817E3020EDBCF56
:10355000E6FFE66A85DEE552E552F3CF14F0F4CFDC
:1035600015F0020EF3180DE115500BE1030EDB50C0
:10357000030B07E0DF501C0804E2020EDB2A010EF9
:10358000DF6EDFCFE6FF040EE66EB8EC3DF0E552ED
:10359000E552010EDBCFE6FF030EE66EB8EC3DF020
:1035A000E552E552020EDBCFE6FF050EE66EB8EC03
:1035B0003DF0E552E552030EDBCFE6FF060EE66E68
:1035C000B8EC3DF0E552E552146E040EE15C02E207
:1035D000E16AE552E16E1450E552E7CFD9FF1200DF
:1035E0000F013B5101E0EFD13051070A24E0010AFD
:1035F0001EE0030A18E0010A12E0070A0CE0010AC3
:1036000006E0030A24E18A0EE66E640E17D0860EE9
:10361000E66E640E13D0820EE66E640E0FD07E0E40
:10362000E66E640E0BD07A0EE66E640E07D0760E50
:10363000E66E640E03D0720EE66E640EE66EE66A07
:10364000E66A66EC31F0E552E552E552E5520A0EC3
:103650000F012F5D1CE23A0EE66E690EE66E040E57
:10366000E66EE66A66EC31F0E552E552E552E55267
:103670002FCF14F0156A166A176A2FCFE6FF15C010
:10368000E6FF16C0E6FF17C0E6FF050E0ED02FCFEF
:1036900014F0156A166A176A2FCFE6FF15C0E6FF09
:1036A00016C0E6FF17C0E6FF040EE66EE66A3FECC2
:1036B00030F0186E060EE15E1850770EE66E690E59
:1036C000E66E060EE66EE66A66EC31F0E552E5520D
:1036D000E552E5520A0E0F012E5D1CE23A0EE66E2F
:1036E000690EE66E070EE66EE66A66EC31F0E552AC
:1036F000E552E552E5522ECF14F0156A166A176AA4
:103700002ECFE6FF15C0E6FF16C0E6FF17C0E6FFA6
:10371000080E0ED02ECF14F0156A166A176A2ECF37
:10372000E6FF15C0E6FF16C0E6FF17C0E6FF070E6E
:10373000E66EE66A3FEC30F0186E060EE15E185059
:10374000770EE66E690EE66E090EE66EE66A66ECC8
:1037500031F0E552E552E552E5520A0E0F012D5DBA
:103760001CE23A0EE66E690EE66E0A0EE66EE66A38
:1037700066EC31F0E552E552E552E5522DCF14F0FA
:10378000156A166A176A2DCFE6FF15C0E6FF16C048
:10379000E6FF17C0E6FF0B0E0ED02DCF14F0156A12
:1037A000166A176A2DCFE6FF15C0E6FF16C0E6FFC2
:1037B00017C0E6FF0A0EE66EE66A3FEC30F0186EC0
:1037C000060EE15E18500F0116050DE16E0EE66E55
:1037D000640EE66E0D0EE66EE66A66EC31F0E552BA
:1037E000E552E552E5520F0132510C0A42E0070A58
:1037F0003CE0010A36E0030A30E0010A2AE00F0A41
:1038000024E0010A1EE0030A18E0010A12E0070A98
:103810000CE0010A06E0030A3AE16A0EE66E640E65
:103820002BD0660EE66E640E27D0620EE66E640E36
:1038300023D05E0EE66E640E1FD05A0EE66E640E46
:103840001BD0560EE66E640E17D0520EE66E640E56
:1038500013D04E0EE66E640E0FD04A0EE66E640E66
:103860000BD0460EE66E640E07D0420EE66E640E76
:1038700003D03E0EE66E640EE66E020EE66E010E9C
:10388000E66E66EC31F0E552E552E552E5523C0E4B
:10389000E66E640EE66E050EE66E010EE66E66ECF2
:1038A00031F0E552E552E552E5520A0E0F01315D65
:1038B0001DE23C0EE66E640EE66E060EE66E010E2E
:1038C000E66E66EC31F0E552E552E552E55231CF55
:1038D00014F0156A166A176A31CFE6FF15C0E6FFC5
:1038E00016C0E6FF17C0E6FF070E0ED031CF14F06A
:1038F000156A166A176A31CFE6FF15C0E6FF16C0D3
:10390000E6FF17C0E6FF060EE66E010EE66E3FEC20
:1039100030F0186E060EE15E18503C0EE66E640E36
:10392000E66E080EE66E010EE66E66EC31F0E552CC
:10393000E552E552E552140EE66EE66AE66AE66A7C
:10394000090EE66E010EE66E3FEC30F0146E060EC8
:10395000E15E14500A0E0F01335D1DE2E66AE66A6D
:10396000E66AE66A0B0EE66E010EE66E3FEC30F09C
:10397000146E060EE15E145033CF14F0156A166A09
:10398000176A33CFE6FF15C0E6FF16C0E6FF17C083
:10399000E6FF0C0E0ED033CF14F0156A166A176AC4
:1039A00033CFE6FF15C0E6FF16C0E6FF17C0E6FFFF
:1039B0000B0EE66E010EE66E3FEC30F0186E060E52
:1039C000E15E185012002B0EE66E640EE66EE66A9B
:1039D000E66A66EC31F0E552E552E552E5521A0E20
:1039E000E66E640EE66EE66A010EE66E66EC31F097
:1039F000E552E552E552E55212000F010A517B0AE9
:103A000001E16ED3840A01E129D3F30A01E1B0D2C6
:103A1000070A01E13ED2010A01E1CCD1030A01E12A
:103A20007CD1010A01E103D10F0A01E18AD0010A28
:103A300012E0060A01E01200060EE66EAEEC36F069
:103A4000E552000901E1A1D30F01340501E09DD346
:103A5000060E0A6F1200346B0629146E140E156ED2
:103A60000E6E14C009F037EC40F005C006FF0F01E0
:103A700005500F080DE23C0EE66E690EE66E040E70
:103A8000E66EE66A66EC31F0E552E552E552E55243
:103A9000040EE66EAEEC36F0E55200090CE00F01C4
:103AA0002F29146E180E156E0E6E14C009F037EC27
:103AB00040F005C02FFF050EE66EAEEC36F0E55285
:103AC000000908E00F012F052F6FE850170802E2E8
:103AD000170E2F6F040EE66EC8EC36F0E5520009A3
:103AE0000DE0050E0F012F25146E180E156E0E6ECB
:103AF00014C009F037EC40F005C02FFF050EE66E4C
:103B0000C8EC36F0E552000909E0050E0F012F5D03
:103B10002F6FE850170802E2170E2F6F060EE66EA1
:103B2000AEEC36F0E552000903E00F01070E0A6F14
:103B3000060EE66EC8EC36F0E552000901E125D329
:103B400086D2346B0629146E140E156E0E6E14C0D8
:103B500009F037EC40F005C006FF0F0105500F08D3
:103B60000DE23C0EE66E690EE66E070EE66EE66A44
:103B700066EC31F0E552E552E552E552040EE66E90
:103B8000AEEC36F0E55200090CE00F012E29146E60
:103B90003C0E156E0E6E14C009F037EC40F005C0F7
:103BA0002EFF050EE66EAEEC36F0E552000908E099
:103BB0000F012E052E6FE8503B0802E23B0E2E6FE0
:103BC000040EE66EC8EC36F0E55200090DE0140E66
:103BD0000F012E25146E3C0E156E0E6E14C009F0EA
:103BE00037EC40F005C02EFF050EE66EC8EC36F04F
:103BF000E552000909E0140E0F012E5D2E6FE8500A
:103C00003B0802E23B0E2E6F060EE66EAEEC36F07F
:103C1000E552000903E00F01080E0A6F060EE66E7A
:103C2000C8EC36F0E552000901E1AFD210D2346B96
:103C30000629146E140E156E0E6E14C009F037ECC2
:103C400040F005C006FF0F0105500F080DE23C0EC5
:103C5000E66E690EE66E0A0EE66EE66A66EC31F016
:103C6000E552E552E552E552040EE66EAEEC36F052
:103C7000E55200090CE00F012D29146E3C0E156E63
:103C80000E6E14C009F037EC40F005C02DFF050E94
:103C9000E66EAEEC36F0E552000908E00F012D05A6
:103CA0002D6FE8503B0802E23B0E2D6F040EE66ECE
:103CB000C8EC36F0E55200090DE0140E0F012D2579
:103CC000146E3C0E156E0E6E14C009F037EC40F009
:103CD00005C02DFF050EE66EC8EC36F0E552000972
:103CE00009E0140E0F012D5D2D6FE8503B0802E234
:103CF0003B0E2D6F060EE66EAEEC36F0E552000977
:103D000003E00F01090E0A6F060EE66EC8EC36F0EE
:103D1000E552000901E139D29AD1346B0629146EBB
:103D2000140E156E0E6E14C009F037EC40F005C08D
:103D300006FF0F0105500F080CE2160EE66E640E2A
:103D4000E66EE66AE66A66EC31F0E552E552E55267
:103D5000E552040EE66EAEEC36F0E552000908E0DE
:103D60000F013029306FE850070802E2010E306F72
:103D7000050EE66EAEEC36F0E552000908E00F01E4
:103D80003005306FE850070802E2070E306F060E6C
:103D9000E66EAEEC36F0E552000903E00F010A0EC4
:103DA0000A6F060EE66EC8EC36F0E552000901E136
:103DB000ECD14DD1346B0629146E140E156E0E6EB7
:103DC00014C009F037EC40F005C006FF0F010550A4
:103DD0000F080EE23C0EE66E690EE66E060EE66E0B
:103DE000010EE66E66EC31F0E552E552E552E55221
:103DF000040EE66EAEEC36F0E552000908E00F0165
:103E00003129316FE8501F0802E2010E316F050EB3
:103E1000E66EAEEC36F0E552000908E00F01310520
:103E2000316F010E315D02E21F0E316F040EE66E3E
:103E3000C8EC36F0E552000909E00A0E0F01312501
:103E4000316FE8501F0802E2010E316F050EE66E79
:103E5000C8EC36F0E552000909E00A0E0F01315DA9
:103E6000316F010E315D02E21F0E316F060EE66EFC
:103E7000AEEC36F0E552000903E00F010B0E0A6FBD
:103E8000060EE66EC8EC36F0E552000901E17DD180
:103E9000DED0346B0629146E140E156E0E6E14C02F
:103EA00009F037EC40F005C006FF0F0105500F0880
:103EB0000EE2160EE66E640EE66E020EE66E010E61
:103EC000E66E66EC31F0E552E552E552E552040E3D
:103ED000E66EAEEC36F0E552000908E00F0132293B
:103EE000326FE8500C0802E2010E326F050EE66EEA
:103EF000AEEC36F0E552000908E00F013205326FF2
:103F0000010E325D02E20C0E326F040EE66EC8EC5A
:103F100036F0E552000909E0030E0F013225326F39
:103F2000E8500C0802E2010E326F050EE66EC8EC96
:103F300036F0E552000909E0030E0F01325D326FE1
:103F4000010E325D02E20C0E326F060EE66EAEEC32
:103F500036F0E552000903E00F010C0E0A6F060E61
:103F6000E66EC8EC36F0E552000901E10ED16FD0E3
:103F7000346B0629146E140E156E0E6E14C009F003
:103F800037EC40F005C006FF0F0105500F080EE2A8
:103F90001B0EE66E690EE66E090EE66E010EE66E0B
:103FA00066EC31F0E552E552E552E552040EE66E5C
:103FB000AEEC36F0E552000907E00F013329336F0C
:103FC000E850630801E2336B050EE66EAEEC36F0A6
:103FD000E552000908E00F013305336FE85063082C
:103FE00002E2630E336F050EE66EC8EC36F0E55262
:103FF000000909E0050E0F01335D336FE8506308D7
:1040000002E2630E336F040EE66EC8EC36F0E55242
:10401000000908E0050E0F013325336FE8506308EF
:1040200001E2336B060EE66EAEEC36F0E5520009A7
:1040300006E0F1EC2EF00F01010E346F0A69060E56
:10404000E66EC8EC36F0E552000901E19ED0F1ECD5
:104050002EF00F01010E346F0A691200346BF0EC80
:104060001AF00F010629146E140E156E0E6E14C090
:1040700009F037EC40F005C006FF0F0105500F08AE
:104080000DE21B0EE66E690EE66E0C0EE66EE66A3B
:1040900066EC31F0E552E552E552E552060EE66E69
:1040A000AEEC36F0E552000905E00F017B0E0A6F19
:1040B000010E3B6F040EE66EAEEC36F0E5520009E1
:1040C00007E1050EE66EAEEC36F0E55200095DE064
:1040D000F1EC2EF00F01060E0A6F010E346F120084
:1040E000040EE66EAEEC36F0E55200083FE20F013A
:1040F0000A6B010E346F3A6F166B2DCFE6FFE66A3E
:10410000B8EC3DF0E552E5522FCFE6FF020EE66E29
:10411000B8EC3DF0E552E5522ECFE6FF010EE66E1B
:10412000B8EC3DF0E552E55230CFE6FF030EE66E07
:10413000B8EC3DF0E552E55231CFE6FF040EE66EF5
:10414000B8EC3DF0E552E55232CFE6FF050EE66EE3
:10415000B8EC3DF0E552E55233CFE6FF060EE66ED1
:10416000B8EC3DF0E552E5520F013B6B050EE66EF3
:10417000AEEC36F0E552000808E20F010A6B010EC2
:10418000346F3A6F166B3B6B12001200D9CFE6FF0B
:10419000E1CFD9FF100EE126FE0EDB50DF6EFD0EE3
:1041A000DB50E76E010EE7CFDBFFFC0EDB50E76E66
:1041B000020EE7CFDBFF080EDFCFDBFF010EDB5087
:1041C000E76E090EE7CFDBFF020EDB50E76E0A0E4B
:1041D000E7CFDBFFDB50EB0F1E0801E2B3D00A0E86
:1041E000DB50EB0F0C0DF3CF14F0F4CF15F0000EF5
:1041F0001426010E1522090EDB041424E96E000EAC
:104200001520EA6E060EEFCFDBFF0A0EDB50EB0F38
:104210000C0DF3CF14F0F4CF15F0780E1426010E28
:104220001522090EDB041424E96E000E1520EA6E37
:10423000070EEFCFDBFFDBCFE6FF080EDB50E552CA
:10424000E75CE76E030EE7CFDBFFDB50000818E307
:10425000040EDB6A080EDBCFE6FF070EDB50E552EB
:10426000E75C010F0F01566F0A0EDB50EB0F0C0DD0
:10427000F3CF14F0F4CF15F0B40E1426010E34D0A1
:10428000040EDB68030EDB501F0819E2080EDBCFBB
:10429000E6FF070EDB50E552E75C010F0F01566F9A
:1042A0000A0EDB50EB0F0C0DF3CF14F0F4CF15F02A
:1042B0003C0E1426010E1522090EDB5018D0060EF6
:1042C000DBCFE6FF080EDB50E552E724FF0F0F01BE
:1042D000566F0A0EDB50EB0F0C0DF3CF14F0F4CF3A
:1042E00015F03C0E1426010E1522090EDB041424D1
:1042F000E96E000E1520EA6EEFCF57FF0B0E57CF79
:10430000DBFF090EDBCFE6FF0B0EDB50E552E75C6F
:10431000E76E050EE7CFDBFFDB50640810E2050E09
:10432000DB50146E156AD890155004E6FF0E145C2D
:10433000000E155804E20A0EDB04586F03D00A0E73
:10434000DBCF58FF100EE15C02E2E16AE552E16E5C
:10435000E552E7CFD9FF1200D9CFE6FFE1CFD9FF71
:10436000FD0EDBCF08F0FE0EDBCF09F0030E0818C0
:1043700001E1095050E0020E081801E1095047E040
:10438000010E081801E109503EE0085001E1095012
:1043900036E0090E081801E109502DE0080E081852
:1043A00001E1095024E0070E081801E109501BE063
:1043B000060E081801E1095012E0050E081801E187
:1043C000095009E0040E081833E1095031E1100EDC
:1043D000E66E640E23D00C0EE66E640E1FD0060E41
:1043E000E66E640E1BD0000EE66E640E17D0FB0E58
:1043F000E66E630E13D0F70EE66E630E0FD0F10E6D
:10440000E66E630E0BD0EC0EE66E630E07D0E60E82
:10441000E66E630E03D0E10EE66E630EE66E050EE9
:10442000E66EE66A66EC31F0E552E552E552E55299
:10443000E552E7CFD9FF1200D9CFE6FFE1CFD9FF90
:10444000FD0EDBCF08F0FE0EDBCF09F0030E0818DF
:1044500001E1095062E0020E081801E1095059E03B
:10446000010E081801E1095050E0085001E109501F
:1044700048E00B0E081801E109503FE00A0E081849
:1044800001E1095036E0090E081801E109502DE05C
:10449000080E081801E1095024E0070E081801E190
:1044A00009501BE0060E081801E1095012E0050E44
:1044B000081801E1095009E0040E08183BE1095011
:1044C00039E1DE0EE66E630E2BD0DA0EE66E630E79
:1044D00027D0D60EE66E630E23D0D20EE66E630EA4
:1044E0001FD0CD0EE66E630E1BD0CA0EE66E630EB5
:1044F00017D0C60EE66E630E13D0C20EE66E630EC4
:104500000FD0BD0EE66E630E0BD0B90EE66E630ED5
:1045100007D0B40EE66E630E03D0B00EE66E630EE7
:10452000E66E0A0EE66EE66A66EC31F0E552E5529A
:0C453000E552E552E552E7CFD9FF12003A
:04453C00D9CFE6FFEE
:10454000E1CFD9FF020EE126DE6ADD6A71D8FAEC0E
:104550002CF0F1EC2EF0F3D8E80EE66E030EE66ECA
:1045600023D8E552E552A20EE66E630EE66E060E05
:10457000E66EE66AB4EC2EF0E552E552E552E552FD
:10458000D00EE66E070EE66E0FD8E552E552020138
:104590007451FDE0746BF1EC2EF00AEC36F046EC51
:1045A00000F020EC2FF0F3D7D9CFE6FFE1CFD9FF11
:1045B000040EE126DE6ADD6ADECF14F0DDCF15F0F1
:1045C000FD0EDBCF16F0FE0EDBCF17F015501718DF
:1045D000E8AE02D0173404D01650145C17501558AA
:1045E0001DE2020EDB6A030EDB6A020EDBCF14F063
:1045F000030EDBCF15F0D890155004E6EE0E145CD8
:10460000000E155806E2020EDB2A030EEEE3DB2A4B
:10461000ECD7DF2A010ED0E3DB2ACED7040EE15C13
:1046200002E2E16AE552E16EE552E7CFD9FF1200FE
:10463000936A956A51EC2BF0D6EC3DF0E80EE66EED
:10464000030EE66EB1DFE552E552570EE66E120E2E
:10465000E66EDFEC37F0E552E552AE0EE66E240E64
:10466000E66E81EC38F0E552E552660EE66EB70E66
:10467000E66E42EC39F0E552E552020EE66EE66A6D
:104680001DEC3AF0E552E5520A0EE66EE66A2FECB2
:104690003AF0E552E5520A0EE66EE66A4EEC3AF062
:1046A000E552E55253EC35F003EC3DF06DEF3AF096
:1046B0000F01370E6C6F3B0E6D6F170E6E6F070E8E
:1046C0006F6F1F0E706F0C0E716F0D0E726F6CCFCF
:1046D000E6FFE66AB8EC3DF0E552E5526DCFE6FF45
:1046E000010EE66EB8EC3DF0E552E5526ECFE6FF06
:1046F000020EE66EB8EC3DF0E552E5526FCFE6FFF4
:10470000030EE66EB8EC3DF0E552E55270CFE6FFE1
:10471000040EE66EB8EC3DF0E552E55271CFE6FFCF
:10472000050EE66EB8EC3DF0E552E55272CFE6FFBD
:10473000060EE66EB8EC3DF0E552E5521200200E92
:10474000E66EC9EC3DF0E552220825E0B1DFE66AED
:10475000100EE66EB8EC3DF0E552E552E66A110E39
:10476000E66EB8EC3DF0E552E552E66A120EE66EF2
:10477000B8EC3DF0E552E552E66A130EE66EB8EC91
:104780003DF0E552E552220EE66E200EE66EB8ECE4
:104790003DF0E552E5521200100EE66EC9EC3DF018
:1047A000E5520F01756F110EE66EC9EC3DF0E55252
:1047B0000F01766F120EE66EC9EC3DF0E5520F0167
:1047C000776F130EE66EC9EC3DF0E5520F017B6F7B
:1047D0001200E66AC9EC3DF0E5520F016C6F010E64
:1047E000E66EC9EC3DF0E5520F016D6F020EE66E0C
:1047F000C9EC3DF0E5520F016E6F030EE66EC9EC99
:104800003DF0E5520F016F6F040EE66EC9EC3DF00E
:10481000E5520F01706F050EE66EC9EC3DF0E552F2
:104820000F01716F060EE66EC9EC3DF0E5520F0107
:10483000726F146E156A166A176AE66E15C0E6FF87
:1048400016C0E6FF17C0E6FFE66AE66A3FEC30F006
:10485000186E060EE15E185071CF14F0156A166AD4
:10486000176A71CFE6FF15C0E6FF16C0E6FF17C056
:10487000E6FF030EE66EE66A3FEC30F0186E060EB9
:10488000E15E185070CF14F0156A166A176A70CF7F
:10489000E6FF15C0E6FF16C0E6FF17C0E6FF060EEE
:1048A000E66EE66A3FEC30F0186E060EE15E1850D8
:1048B0006FCF14F0156A166A176A6FCFE6FF15C03E
:1048C000E6FF16C0E6FF17C0E6FF090EE66EE66AD1
:1048D0003FEC30F0186E060EE15E18506ECF14F00B
:1048E000156A166A176A6ECFE6FF15C0E6FF16C096
:1048F000E6FF17C0E6FFE66A010EE66E3FEC30F019
:10490000186E060EE15E18506DCF14F0156A166A27
:10491000176A6DCFE6FF15C0E6FF16C0E6FF17C0A9
:10492000E6FF030EE66E010EE66E3FEC30F0186E09
:10493000060EE15E18506CCF14F0156A166A176AFD
:104940006CCFE6FF15C0E6FF16C0E6FF17C0E6FF16
:10495000060EE66E010EE66E3FEC30F0186E060EA7
:10496000E15E18501200E66AC9EC3DF0E5520F0115
:104970006C6F010EE66EC9EC3DF0E5520F016D6FF4
:10498000020EE66EC9EC3DF0E5520F016E6F030EAC
:10499000E66EC9EC3DF0E5520F016F6F040EE66E56
:1049A000C9EC3DF0E5520F01706F050EE66EC9ECE3
:1049B0003DF0E5520F01716F060EE66EC9EC3DF059
:1049C000E5520F01726F6F51070A24E0010A1EE0E1
:1049D000030A18E0010A12E0070A0CE0010A06E0E7
:1049E000030A24E19E0EE66E630E17D09A0EE66E61
:1049F000630E13D0960EE66E630E0FD0920EE66E27
:104A0000630E0BD08E0EE66E630E07D08A0EE66E36
:104A1000630E03D0860EE66E630EE66EE66AE66A05
:104A200066EC31F0E552E552E552E5520A0E0F010F
:104A30006E5D1CE2840EE66E630EE66E040EE66E9C
:104A4000E66A66EC31F0E552E552E552E5526ECF8A
:104A500014F0156A166A176A6ECFE6FF15C0E6FFF6
:104A600016C0E6FF17C0E6FF050E0ED06ECF14F09D
:104A7000156A166A176A6ECFE6FF15C0E6FF16C004
:104A8000E6FF17C0E6FF040EE66EE66A3FEC30F084
:104A9000186E060EE15E1850820EE66E630EE66E2C
:104AA000060EE66EE66A66EC31F0E552E552E55236
:104AB000E5520A0E0F016D5D1CE2840EE66E630E78
:104AC000E66E070EE66EE66A66EC31F0E552E552F8
:104AD000E552E5526DCF14F0156A166A176A6DCF6C
:104AE000E6FF15C0E6FF16C0E6FF17C0E6FF080E9A
:104AF0000ED06DCF14F0156A166A176A6DCFE6FFF7
:104B000015C0E6FF16C0E6FF17C0E6FF070EE66E0B
:104B1000E66A3FEC30F0186E060EE15E1850820E29
:104B2000E66E630EE66E090EE66EE66A66EC31F03E
:104B3000E552E552E552E5520A0E0F016C5D1CE2AA
:104B4000840EE66E630EE66E0A0EE66EE66A66ECAC
:104B500031F0E552E552E552E5526CCF14F0156A9A
:104B6000166A176A6CCFE6FF15C0E6FF16C0E6FFAF
:104B700017C0E6FF0B0E0ED06CCF14F0156A166A44
:104B8000176A6CCFE6FF15C0E6FF16C0E6FF17C038
:104B9000E6FF0A0EE66EE66A3FEC30F0186E060E8F
:104BA000E15E18500F017751010A06E0010A11E198
:104BB0007E0EE66E630E03D07A0EE66E630EE66E30
:104BC0000D0EE66EE66A66EC31F0E552E552E5520E
:104BD000E5520F01160506E1760EE66E630EE66EEF
:104BE0000D0E08D0020E165D0DE1710EE66E630E1D
:104BF000E66E0C0EE66EE66A66EC31F0E552E552C2
:104C0000E552E5520F0171510C0A42E0070A3CE0FF
:104C1000010A36E0030A30E0010A2AE00F0A24E024
:104C2000010A1EE0030A18E0010A12E0070A0CE07C
:104C3000010A06E0030A3AE16D0EE66E630E2BD020
:104C4000690EE66E630E27D0650EE66E630E23D006
:104C5000610EE66E630E1FD05D0EE66E630E1BD016
:104C6000590EE66E630E17D0550EE66E630E13D026
:104C7000510EE66E630E0FD04D0EE66E630E0BD036
:104C8000490EE66E630E07D0450EE66E630E03D046
:104C9000410EE66E630EE66E020EE66E010EE66EE5
:104CA00066EC31F0E552E552E552E5523F0EE66E14
:104CB000630EE66E050EE66E010EE66E66EC31F0F2
:104CC000E552E552E552E5520A0E0F01705D1DE214
:104CD0003F0EE66E630EE66E060EE66E010EE66EA3
:104CE00066EC31F0E552E552E552E55270CF14F032
:104CF000156A166A176A70CFE6FF15C0E6FF16C080
:104D0000E6FF17C0E6FF070E0ED070CF14F0156A4D
:104D1000166A176A70CFE6FF15C0E6FF16C0E6FFF9
:104D200017C0E6FF060EE66E010EE66E3FEC30F0B1
:104D3000186E060EE15E18503F0EE66E630EE66ECC
:104D4000080EE66E010EE66E66EC31F0E552E552B5
:104D5000E552E552140EE66EE66AE66AE66A090E68
:104D6000E66E010EE66E3FEC30F0146E060EE15E6C
:104D700014500A0E0F01725D1DE2E66AE66AE66AE9
:104D8000E66A0B0EE66E010EE66E3FEC30F0146E36
:104D9000060EE15E145072CF14F0156A166A176A97
:104DA00072CFE6FF15C0E6FF16C0E6FF17C0E6FFAC
:104DB0000C0E0ED072CF14F0156A166A176A72CFF5
:104DC000E6FF15C0E6FF16C0E6FF17C0E6FF0B0EB4
:104DD000E66E010EE66E3FEC30F0186E060EE15EF8
:104DE000185012002E0EE66E630EE66EE66AE66A54
:104DF00066EC31F0E552E552E552E5522B0EE66ED7
:104E0000630EE66EE66A010EE66E66EC31F0E55280
:104E1000E552E552E5520A0E0F01755D1DE2840E62
:104E2000E66E630EE66E020EE66E010EE66E66EC50
:104E300031F0E552E552E552E55275CF14F0156AAE
:104E4000166A176A75CFE6FF15C0E6FF16C0E6FFC3
:104E500017C0E6FF030E0ED075CF14F0156A166A60
:104E6000176A75CFE6FF15C0E6FF16C0E6FF17C04C
:104E7000E6FF020EE66E010EE66E3FEC30F0186EB5
:104E8000060EE15E1850820EE66E630EE66E040EAC
:104E9000E66E010EE66E66EC31F0E552E552E55243
:104EA000E5520A0E0F01765D1DE2840EE66E630E7A
:104EB000E66E050EE66E010EE66E66EC31F0E5522A
:104EC000E552E552E55276CF14F0156A166A176A74
:104ED00076CFE6FF15C0E6FF16C0E6FF17C0E6FF77
:104EE000060E0ED076CF14F0156A166A176A76CFC2
:104EF000E6FF15C0E6FF16C0E6FF17C0E6FF050E89
:104F0000E66E010EE66E3FEC30F0186E060EE15EC6
:104F10001850270EE66E630EE66E070EE66E010E63
:104F2000E66E66EC31F0E552E552E552E5520F01CE
:104F30007751010A06E0010A12E17E0EE66E630E69
:104F400003D07A0EE66E630EE66E0A0EE66E010E72
:104F5000E66E66EC31F0E552E552E552E552270E79
:104F6000E66E630EE66E0D0EE66E010EE66E66EC04
:104F700031F0E552E552E552E55212000F0173514E
:104F8000FF0A01E1ACD1FC0A01E149D1010A01E1CA
:104F9000ADD0030A12E0010A01E01200060EE66E2F
:104FA000AEEC36F0E552000901E1DBD10F017C05E2
:104FB00001E0D7D1010E736F12007C6B13DF0F017C
:104FC0007A29146E140E156E0E6E14C009F037ECAB
:104FD00040F005C07AFF0F0105500F080EE22B0EBE
:104FE000E66E630EE66E020EE66E010EE66E66EC8F
:104FF00031F0E552E552E552E552040EE66EAEECB4
:1050000036F0E552000914E00F017529146E180EF0
:10501000156E0E6E14C009F037EC40F005C075FF38
:1050200005C0E6FF100EE66EB8EC3DF0E552E55225
:10503000040EE66EC8EC36F0E552000915E0050EE8
:105040000F017525146E180E156E0E6E14C009F042
:1050500037EC40F005C075FF05C0E6FF100EE66EA8
:10506000B8EC3DF0E552E552050EE66EAEEC36F0DA
:10507000E552000910E00F017505756FE85017083B
:1050800002E2170E756F75CFE6FF100EE66EB8ECF4
:105090003DF0E552E552050EE66EC8EC36F0E552FD
:1050A000000911E0050E0F01755D756FE8501708D6
:1050B00002E2170E756F75CFE6FF100EE66EB8ECC4
:1050C0003DF0E552E552060EE66EAEEC36F0E552E6
:1050D000000903E00F01020E736F060EE66EC8ECC6
:1050E00036F0E552000901E13CD1F2D07C6B7ADE6A
:1050F0000F017A29146E140E156E0E6E14C009F08D
:1051000037EC40F005C07AFF0F0105500F080EE2A2
:105110002B0EE66E630EE66E050EE66E010EE66E73
:1051200066EC31F0E552E552E552E552040EE66ECA
:10513000AEEC36F0E552000914E00F017629146E4A
:105140003C0E156E0E6E14C009F037EC40F005C031
:1051500076FF05C0E6FF110EE66EB8EC3DF0E552B5
:10516000E552040EE66EC8EC36F0E552000915E093
:105170000A0E0F017625146E3C0E156E0E6E14C0CD
:1051800009F037EC40F005C076FF05C0E6FF110ED0
:10519000E66EB8EC3DF0E552E552050EE66EAEEC7B
:1051A00036F0E552000910E00F017605766FE85001
:1051B0003B0802E23B0E766F76CFE6FF110EE66EFD
:1051C000B8EC3DF0E552E552050EE66EC8EC36F05F
:1051D000E552000911E00A0E0F01765D766FE85086
:1051E0003B0802E23B0E766F76CFE6FF110EE66ECD
:1051F000B8EC3DF0E552E552060EE66EAEEC36F048
:10520000E552000903E00F01030E736F060EE66E10
:10521000C8EC36F0E552000901E1A3D059D07C6B0F
:10522000E1DD0F017A29146E140E156E0E6E14C096
:1052300009F037EC40F005C07AFF0F0105500F0868
:105240000EE2270EE66E630EE66E0A0EE66E010EA5
:10525000E66E66EC31F0E552E552E552E552040E99
:10526000E66EAEEC36F0E55200090BE00F0177294F
:10527000010B776FE66E120EE66EB8EC3DF0E5526C
:10528000E552050EE66EAEEC36F0E552000910E090
:105290000F017705776FE850010802E2010E776F82
:1052A00077CFE6FF120EE66EB8EC3DF0E552E55220
:1052B000060EE66EAEEC36F0E552000902E00F0194
:1052C0007369060EE66EC8EC36F0E552000949E057
:1052D000F1EC2EF00F01010E7C6F736B12007C6BF2
:1052E00081DD0F017A29146E140E156E0E6E14C036
:1052F00009F037EC40F005C07AFF0F0105500F08A8
:105300000DE2220EE66E630EE66E0A0EE66EE66AA9
:1053100066EC31F0E552E552E552E552040EE66ED8
:10532000AEEC36F0E552000907E1050EE66EAEEC94
:1053300036F0E552000906E0F1EC2EF00F01736B38
:10534000010E7C6F060EE66EAEEC36F0E5520009FB
:1053500008E0F1EC2EF00F01736B010E7C6F0F0172
:10536000396F12000201010E491903E14A5101E1AE
:10537000010C000C02010A0E491903E14A5101E136
:10538000010C000C0201010E511903E1525101E11F
:10539000010C000C02010A0E511903E1525101E106
:1053A000010C000C0201010E4B1901E14C511AE0F5
:1053B0000A0ED8804B55000E4C5515E24BC214F026
:1053C0004CC215F0030E0D6E0E6A4BC208F04CC2B3
:1053D00009F003EC40F005C015F0010E041803E1DC
:1053E000155001E1010C000C0201010E531901E1FD
:1053F00054511AE00A0ED8805355000E545515E248
:1054000053C214F054C215F0030E0D6E0E6A53C24F
:1054100008F054C209F003EC40F005C015F0010E8D
:10542000041803E1155001E1010C000C0F01755146
:105430006E5D0AE176516D5D07E16C5105E177051E
:1054400003E17C0501E1010C000C0F017451050A18
:105450001AE0010A05E0040A01E01200040E11D06E
:10546000E5DF00090AE00F01010E7B6FE66E130E07
:10547000E66EB8EC3DF0E552E5520F017B5140E09D
:10548000050E746F12007C6B7D29146E140E156E60
:105490000E6E14C009F037EC40F005C07DFF0A0E17
:1054A0000F01055C02E2F1EC2EF00F01782B000EEB
:1054B0007923900ED8807855010E79550EE3040EAD
:1054C000E66EAEEC36F0E552000907E1050EE66E39
:1054D000AEEC36F0E552000913E00F01010E7C6FCF
:1054E0007B6B7BCFE6FF130EE66EB8EC3DF0E5522A
:1054F000E5520F01786B796BF1EC2EF00F01746BB4
:02550000120097
:0E550200D9CFE6FFE1CFD9FF040EE126DE6A25
:10551000DD6ADECF14F0DDCF15F0166A176A15AE1E
:1055200002D016681768D950FB0FE96EFF0EDA201B
:10553000EA6EEE50145CEE501558EE501658EE50D0
:1055400017581DE2020EDB6A030EDB6A020EDBCF88
:1055500014F0030EDBCF15F0D890155004E6050EBD
:10556000145C000E155806E2020EDB2A030EEEE371
:10557000DB2AECD7DF2A010ECCE3DB2ACAD7040EE4
:10558000E15C02E2E16AE552E16EE552E7CFD9FF64
:105590001200D9CFE6FFE1CFD9FF040EE126DE6A83
:1055A000DD6ADECF14F0DDCF15F0166A176A15AE8E
:1055B00002D016681768D950FB0FE96EFF0EDA208B
:1055C000EA6EEE50145CEE501558EE501658EE5040
:1055D00017581DE2020EDB6A030EDB6A020EDBCFF8
:1055E00014F0030EDBCF15F0D890155004E6EE0E44
:1055F000145C000E155806E2020EDB2A030EEEE3E1
:10560000DB2AECD7DF2A010ECCE3DB2ACAD7040E53
:10561000E15C02E2E16AE552E16EE552E7CFD9FFD3
:105620001200D9CFE6FFE1CFD9FF0F0E8116FE0E93
:10563000DB50F00B81128186010EE66EE66AE66AA7
:10564000E66AA7DFE552E552E552E5528196010E82
:10565000E66EE66AE66AE66A9CDFE552E552E552E6
:10566000E5520F0E8116FE0EDB38F00B811281869B
:10567000010EE66EE66AE66AE66A8BDFE552E552FF
:10568000E552E5528196010EE66EE66AE66AE66A42
:1056900080DFE552E552E552E552E552E7CFD9FF0A
:1056A0001200D9CFE6FFE1CFD9FFE652190EE66E20
:1056B000E66AE66AE66A6DDFE552E552E552E552D2
:1056C0000F0E8116F80E81160F0E8116300E811204
:1056D0008186010EE66EE66AE66AE66A5ADFE55200
:1056E000E552E552E5528196010EE66EE66AE66AFB
:1056F000E66A4FDFE552E552E552E5520F0E81169C
:10570000300E81128186010EE66EE66AE66AE66A6E
:1057100040DFE552E552E552E5528196010EE66E14
:10572000E66AE66AE66A35DFE552E552E552E55299
:105730000F0E8116300E81128186010EE66EE66A2A
:10574000E66AE66A26DFE552E552E552E5528196C1
:10575000010EE66EE66AE66AE66A1BDFE552E5528E
:10576000E552E5520F0E8116818A8186010EE66EA2
:10577000E66AE66AE66A0DDFE552E552E552E55271
:105780008196010EE66EE66AE66AE66A02DFE55297
:10579000E552E552E552280EE66E43DFE5520C0E67
:1057A000E66E3FDFE552E552E552E7CFD9FF120042
:1057B000D9CFE6FFE1CFD9FF020EE126DF6A010E65
:1057C000DB6A81940F0EE66EE66AE66AE66A99DEA7
:1057D000E552E552E552E5520F0E81128186E66EE2
:1057E000E66AE66AE66A8DDEE552E552E552E55282
:1057F0000F0E8114E76E010EE7CFDBFF81960F0ECF
:10580000E66EE66AE66AE66A7CDEE552E552E55255
:10581000E5520F0E81128186E66EE66AE66AE66A56
:1058200070DEE552E552E552E5520F0E8114DF6E4F
:10583000010EDB50DF128196010EE66EE66AE66A23
:10584000E66A5FDEE552E552E552E552DF50146E3E
:10585000020EE15C02E2E16AE552E16E1450E552AB
:10586000E7CFD9FF1200D9CFE6FFE1CFD9FFE6524B
:10587000DF6A9EDFDF6EDFBEFCD7DF50E552E55208
:10588000E7CFD9FF1200D9CFE6FFE1CFD9FF0F0E46
:105890008116FE0EDB5081128186050EE66EE66AE9
:1058A000E66AE66A2EDEE552E552E552E552819659
:1058B000050EE66EE66AE66AE66A23DEE552E55222
:1058C000E552E552E552E7CFD9FF1200D9CFE6FF06
:1058D000E1CFD9FF8194050EE66EE66AE66AE66AD4
:1058E00010DEE552E552E552E552FE0EDBCFE6FF53
:1058F000CADFE552FE0EDB38F00BE66EC4DFE55280
:10590000E552E7CFD9FF1200D9CFE6FFE1CFD9FFAB
:105910008184050EE66EE66AE66AE66AF2DDE55225
:10592000E552E552E552FE0EDBCFE6FFACDFE55275
:10593000FE0EDB38F00BE66EA6DFE5528194E552F1
:10594000E7CFD9FF1200D9CFE6FFE1CFD9FFFE0E96
:10595000DBCFE6FFD9DFE552E552E7CFD9FF1200F2
:10596000D9CFE6FFE1CFD9FFFE0EDBCFE6FFCCDFDC
:10597000E552E552E7CFD9FF1200D9CFE6FFE1CFDC
:10598000D9FFFD0EDBCFF6FFFE0EDBCFF7FF0800E1
:10599000F5500FE0FD0EDBCFF6FFDB2AFE0EDBCF6E
:1059A000F7FF01E3DB2A0800F550E66ED9DFE55288
:1059B000E8D7E552E7CFD9FF1200D9CFE6FFE1CF14
:1059C000D9FFE652FD0EDB500F0B146EFE0EDB50BE
:1059D000010B400DF3501424DF6E7F0EDF14800F97
:1059E000DF6EDFCFE6FF72DFE552E552E552E7CF2B
:1059F000D9FF1200010EE66E69DFE552E66AE66A3B
:105A0000DCDFE552E5521200D9CFE6FFE1CFD9FF46
:105A1000050EE126010EF36EDB6E020EDB6A030E4D
:105A2000DB6A040EDB6ADF6ADFCF14F0156A14BE8E
:105A30001568FB0EDBCF16F0FC0EDBCF17F0155010
:105A40001718E8AE02D0173404D01650145C175063
:105A500015582DE2FD0EDBCF14F0FE0EDBCF15F056
:105A6000166A176A15AE02D016681768D950010F6A
:105A7000E96EDACFEAFF14C00BF015C00CF016C0C7
:105A80000DF017C00EF0EECF06F0EECF07F0EECF20
:105A900008F0EFCF09F08AEC3FF005C0EDFF04C03D
:105AA000EDFF03C0EDFF02C0EFFFDF2ABDD7010EFF
