:020000040000FA
:06000000A5EF1FF0120045
:020006001200E6
:06000800C8EF1DF012001C
:02000E000000F0
:0100100000EF
:0400110000000000EB
:060018008FEF1DF0120045
:02001E000800D8
:100020006040000000010000280000004540000082
:10003000E10000001B00000011000000650100004D
:1000400004000000E43F00008000000061000000A8
:10005000D13F00004801000013000000A23F000053
:10006000410F00002F000000823F00002801000027
:10007000200000000E0000006901000003000000E5
:100080000F01415102E1010E421901E162D1080E56
:10009000411901E1425101E15AD1070E411901E133
:1000A000425101E126D1090E411901E1425101E11C
:1000B00011D1060E411901E1425101E109D1050EAC
:1000C000411901E1425101E1DBD0280E411901E162
:1000D000425101E1D2D0040E411901E1425101E146
:1000E000A1D01E0E411901E1425172E0030E4119E7
:1000F00001E1425147E0140E411901E1425137E05C
:10010000020E411901E1425115E0010E411901E1D0
:10011000425101E01200ADEC0CF0F5EC0FF004ECF4
:100120000BF001E331D1020EBAEC0AF0010E436F7D
:10013000446B1200940EE66E300EF7EC0AF0850E5A
:10014000E66E300EFCEC0AF002E249EC0BF004EC37
:100150000BF004E2140E0F01416F426B01EC0BF047
:1001600001E312D10F01416B010E426F1200A5ECA9
:100170000DF0F3EC0EF00F01675101E105D1676B53
:10018000020EFFD0020E43190BE1445109E1780E33
:10019000E66E300EF7EC0AF0690EE66E300E08D00F
:1001A000690EE66E300EF7EC0AF05C0EE66E300E6D
:1001B000FCEC0AF002E24CEC0BF001EC0BF002E27A
:1001C0004FEC0BF004EC0BF001E3DED01E0ED8D0A8
:1001D000FCD80F01695101E0D8D8040E8AEC0AF06E
:1001E00004E01BEC0BF0010E696F050E8AEC0AF0BF
:1001F00002E00F01696B050EE66E7EEC1AF0E55227
:10020000000903E00F01BFEC0AF0060E8AEC0AF0C9
:1002100001E1BAD00F01696BBFEC0AF00F01676B07
:10022000030EAFD0030E43190BE1445109E1850ED3
:10023000E66E300EF7EC0AF04F0EE66E300E08D088
:100240004F0EE66E300EF7EC0AF0420EE66E300E00
:10025000FCEC0AF004E250EC0AF0F0EC0AF001ECDD
:100260000BF002E249EC0BF004EC0BF001E38CD054
:10027000280EBAEC0AF0496B1200E6D8AEEF02F095
:10028000040E43190BE1445109E15C0EE66E300E99
:10029000F7EC0AF0350EE66E300E08D0350EE66E3D
:1002A000300EF7EC0AF0290EE66E300EFCEC0AF088
:1002B00002E252EC0BF001EC0BF002E24CEC0BF022
:1002C00004EC0BF061E20F01456B466B060E59D052
:1002D000A6EF06F0180EE66E300EF7EC0AF0090EE7
:1002E000E66E300E60EC0BF06BDA04EC0BF04CE2D7
:1002F00046D0050E43190BE1445109E1420EE66E6A
:10030000300EF7EC0AF0FD0EE66E2F0E08D0FD0E53
:10031000E66E2F0EF7EC0AF0F70EE66E2F0EFCECF1
:100320000AF006E250EC0AF00F01416B010E426F39
:1003300001EC0BF004E250EC0AF0F0EC0AF004ECF3
:100340000BF022E2080EBAEC0AF0B0EF08F045EF2D
:1003500007F0290EE66E300EF7EC0AF024EC0BF0F5
:1003600001EC0BF002E252EC0BF067EC0BF002E256
:100370004FEC0BF004EC0BF007E250EC0AF0010E2E
:100380000F01416F426B1200120069EC0AF0ACECF5
:100390000AF002E11550621908E03B0E5F190AE10C
:1003A000605108E16151621105E16C2B61CF5FFF83
:1003B00062CF60FF3C0E6C5D02E36C6B6B2B3C0EFE
:1003C0006B5D02E36B6B6A2B1200E10EE66E2F0E83
:1003D000F7EC0AF03EEC0BF00A0E0F016A5D09E241
:1003E00099EC0AF0040EFFEC0AF029EC0BF0050E74
:1003F00003D029EC0BF0040E6AEC0BF00F016B5DDF
:1004000009E299EC0AF0070EFFEC0AF030EC0BF071
:10041000080E03D030EC0BF0070E55EC0BF0090E74
:10042000FFEC0AF00A0E0F016C5D09E299EC0AF08C
:100430000A0EFFEC0AF037EC0BF00B0E03D037EC92
:100440000BF00A0E4CEF0AF0C90EE66E2F0EF7EC19
:100450000AF03EEC0BF00F015E5104E0C40EE66EB4
:100460002F0E03D0C00EE66E2F0EE66E0C0EFFECC4
:100470000AF00A0E0F0158AF02D0D89003D0575D92
:10048000000E585913E299EC0AF0010EE66EE66E82
:10049000F2EC09F0C6EC0AF015AE02D01668176847
:1004A00007EC0BF0020EE66E010E0AD0C6EC0AF065
:1004B00015AE02D01668176807EC0BF0010EE66E59
:1004C00041EC0BF0B5EC0AF0030EFFEC0AF00A0E5B
:1004D0000F015AAF02D0D89003D0595D000E5A597F
:1004E0000FE299EC0AF0040EFFEC0AF0CDEC0AF0F2
:1004F00015AE02D01668176807EC0BF0050E09D090
:10050000CDEC0AF015AE02D01668176807EC0BF0B8
:10051000040E6AEC0BF00F015CAF02D0D89003D050
:100520005B5D000E5C590FE299EC0AF0070EFFECE0
:100530000AF0D4EC0AF015AE02D01668176807EC82
:100540000BF0080E09D0D4EC0AF015AE02D01668F4
:10055000176807EC0BF0070E4CEF0AF00F0149513A
:10056000040A01E1F7D0070A01E18DD0010A5FE03A
:10057000030A31E0010A01E0120017EC0AF007E279
:10058000A2EC0AF0010EE66EE66EF2EC09F001EC68
:100590000BF00DE20F01572B000E5823583507E2E0
:1005A00057511708000E585502E2576B586B67EC0D
:1005B0000BF00AE20F015707000E585B800E58152A
:1005C00003E0170E576F586B04EC0BF001E3E2D019
:1005D0000F01010EBDD017EC0AF005E2A2EC0AF003
:1005E000040EFFEC0AF001EC0BF00DE20F01592BA9
:1005F000000E5A235A3507E259513B08000E5A554E
:1006000002E2596B5A6B67EC0BF00AE20F015907D3
:10061000000E5A5B800E5A1503E03B0E596F5A6B61
:1006200004EC0BF001E3B6D00F01020E91D017ECF1
:100630000AF005E2A2EC0AF0070EFFEC0AF001EC6A
:100640000BF00DE20F015B2B000E5C235C3507E223
:100650005B513B08000E5C5502E25B6B5C6B67EC28
:100660000BF00AE20F015B07000E5C5B800E5C156D
:1006700003E03B0E5B6F5C6B04EC0BF001E38AD094
:100680000F01030E65D001EC0BF005E20F01010E26
:100690005E6F1BEC0BF067EC0BF002E20F015E6B80
:1006A0000F015E513AE069EC0AF0ACEC0AF002E1AD
:1006B0001550621908E03B0E5F192FE160512DE1E2
:1006C000615162112AE161CF5FFF62CF60FF5C354B
:1006D00009E25B510008000E5C5504E25B07000E66
:1006E0005C5B1BD05B515C1118E159515A1107E05A
:1006F0003B0E5B6F5C6B5907000E5A5B0ED0595175
:100700005A110BE15751581108E05707000E585B7A
:100710003B0E596F5A6B5B6F5C6B5751581107E179
:1007200059515A1104E15B515C1101E15E6B5E515C
:1007300009E117EC0AF006E2DBEC0AF0010EE66EC6
:10074000F2EC09F004EC0BF025E20F015E6B040EF5
:10075000496F120017EC0AF005E2DBEC0AF0E66ADA
:10076000F2EC09F0040E8AEC0AF004E1050E8AECC2
:100770000AF002E00F010CD004EC0BF00BE2040EC7
:10078000BAEC0AF0576B586B596B5A6B5B6B5C6B2E
:10079000496B1200120094EC0AF0E65201016A5112
:1007A000EA6A010FE96E0F0EEA22EFCFDFFF6A2936
:1007B0003F0B6A6FDF50E55290EF0AF0E2EF0AF06C
:1007C000010E0F016E1901E16F5101E012000101EC
:1007D0006B51000804E204D801016B0712001200FB
:1007E00094EC0AF0E652D7DFDF6EDFCFE6FF99EC3C
:1007F00018F0E552630E0F01631901E1645101E144
:10080000E4D0690E631901E1645101E1C0D0680EC2
:10081000631901E1645101E1ABD0670E631901E195
:10082000645101E190D0660E631901E1645101E168
:100830007FD0650E631901E1645165E0640E6319B0
:1008400001E1645155E00E0E631901E1645144E089
:100850000C0E631901E1645136E00B0E631901E1DE
:10086000645128E00A0E631901E164511AE0020E96
:10087000631901E164510CE0010E631901E0CDD070
:10088000645101E0CAD0210EDF5C01E0C6D02CD05B
:10089000540EDF5C02E10A0EBED0210EDF5C26E1C1
:1008A00023D0490EDF5C02E10B0EB5D0210EDF5CD8
:1008B0001DE11AD04D0EDF5C02E10C0EACD0210E12
:1008C000DF5C14E111D0450EDF5C02E10E0EA3D017
:1008D000210EDF5C0BE108D03A0EDF5C02E1640E12
:1008E0009AD0210EDF5C02E1020E95D0010E93D06A
:1008F00026EC0AF001E1531D46E071EC0AF006C057
:1009000072FF650E87D026EC0AF001E1531D3BE033
:1009100052510F017227170EE66EE66A725158ECBB
:100920000BF002E0660E76D07F0EE66E2F0E43D0FF
:1009300026EC0AF001E1531D26E071EC0AF006C036
:1009400073FF670E67D026EC0AF001E1531D1BE030
:1009500052510F0173273B0EE66EE66A735158EC55
:100960000BF002E0680E56D0440EE66E2F0E23D038
:1009700026EC0AF001E1531D06E071EC0AF006C016
:1009800074FF690E47D0A20EE66E2F0E40D026EC03
:100990000AF001E1531D15E052510F0174273B0E7F
:1009A000E66EE66A745158EC0BF002E0630E32D04A
:1009B0001F0EE66E2F0E11EC0AF0690EE66E2F0E7A
:1009C00026D0050EE66E2F0E22D0230EDF5C1AE134
:1009D000010E636F646B72CFE6FF020E46EC0AF005
:1009E00073CFE6FF010E46EC0AF074CFE6FFE66A2D
:1009F000FCEC1CF0E552E552E50EE66E2E0E11EC15
:100A00000AF00BD0CD0EE66E2E0E0BEC0BF011ECB7
:100A10000AF0010E0F01636F646B630E0F0165191D
:100A200001E1665101E16BD1740E651901E1665176
:100A300001E13DD1760E651901E1665101E1D1D0A8
:100A4000750E651901E1665101E1BDD0730E65199E
:100A500001E1665101E191D0720E651901E1665123
:100A600001E17AD06F0E651901E1665167E06E0E03
:100A7000651901E1665155E06D0E651901E1665198
:100A800044E06C0E651901E1665136E06B0E6519A4
:100A900001E1665128E06A0E651901E166511AE02C
:100AA000020E651901E166510CE0010E651901E0C5
:100AB0004BD1665101E048D1210EDF5C01E044D109
:100AC0002CD0440EDF5C02E16A0E16D1210EDF5CF1
:100AD00026E123D0410EDF5C02E16B0E0DD1210E29
:100AE000DF5C1DE11AD0540EDF5C02E16C0E04D114
:100AF000210EDF5C14E111D0450EDF5C02E16D0ECA
:100B0000FBD0210EDF5C0BE108D03A0EDF5C02E186
:100B10006E0EF2D0210EDF5C02E1020EEDD0010E6E
:100B2000EBD006EC0AF001E1551D23E07AEC0AF067
:100B300006C077FF07C078FF6F0EDDD006EC0AF025
:100B400001E1551D16E054510F0177270F01555152
:100B50000F017823720ECFD006EC0AF001E1551D8B
:100B600008E07AEC0AF006C079FF07C07AFF730E3E
:100B7000C2D0A20EE66E2F0EBCD006EC0AF001E148
:100B8000551D01E1B3D054510F0179270F01555183
:100B90000F017A230C0EE66EE66A79CFE6FF7ACF74
:100BA000E6FF38EC0AF006E00F0179517A1102E015
:100BB000750EA1D0730EE66E2E0E11EC0AF0690EC2
:100BC000E66E2F0E96D006EC0AF001E1551D01E10C
:100BD0008DD07AEC0AF006C07BFF07C07CFF760E52
:100BE0008AD006EC0AF001E1551D01E17FD0545195
:100BF0000F017B270F0155510F017C237B517C1185
:100C000004E15D0EE66E2E0E93D03FEC0AF0F35039
:100C1000F4100CE10F017C3509E27B511E08000E37
:100C20007C5504E23B0EE66E2E0E5BD03FEC0AF0E4
:100C3000010EF3180EE115500CE10F017C3509E2AD
:100C40007B511F08000E7C5504E2030EE66E2E0E4B
:100C500048D03FEC0AF0020EF31811E115500FE1F5
:100C600055EC0AF00CE10F017C3509E27B511D08BF
:100C7000000E7C5504E2E10EE66E2D0E32D03FEC04
:100C80000AF0020EF31811E115500FE155EC0AF0CD
:100C90000CE00F017C3509E27B511C08000E7C55ED
:100CA00004E2BF0EE66E2D0E1CD0740E24D0AEDB17
:100CB00001E1551D1BE054CF7DFF55CF7EFF070E90
:100CC000E66EE66A54CFE6FF55CFE6FFD1DB06E0DD
:100CD0000F017D517E1102E0630E0DD09D0EE66E78
:100CE0002D0E9FDB250EE66E2E0E03D0050EE66E52
:100CF0002F0E97DB010E0F01656F666B25D0230E5B
:100D0000DF5C18E1010E656F666B77CFE6FF060EBC
:100D1000BDDB79CFE6FF050EB9DB7BCFE6FF040E26
:100D2000B5DB7DCFE6FF030EB1DB7D0EE66E2D0E4B
:100D300078DB0AD05E0EE66E2D0E0BEC0BF071DB4D
:100D4000010E0F01636F646BE552EAD30F01455149
:100D500002E1010E461901E180D0030E451901E1BF
:100D600046516DE0010E451901E1465141E0455102
:100D700001E1465101E01200540EE66E2D0EF7EC33
:100D80000AF0480EE66E2D0E60EC0BF004EC0BF052
:100D90001EE2200EE66E2D0E44DBEF0EE66E2C0EEC
:100DA00040DBDF0EE66E2C0E3CDBBD0EE66E2C0E3D
:100DB00038DB8C0EE66E2C0E34DB7B0EE66E2C0ED2
:100DC00030DBE2EC0AF0090E0F01416F426B67EC79
:100DD0000BF006E2010E0F01456F466B476B486B47
:100DE00001EC0BF051E20F01456B010E466F120052
:100DF0004751481109E06F0EE66E2C0EF7EC0AF031
:100E0000F70EE66E2F0E07D0650EE66E2C0EEFDBAA
:100E10006F0EE66E2C0EF0DB04E20F01456B010E47
:100E2000466FEFDB03E20F01456B466BEDDB2CE217
:100E3000030E0F01456F466B010E566F1200ADECAD
:100E40000CF0E3EC0DF00F0168511EE0456B466BB2
:100E5000686B050E416F426B1200480EE66E2D0E58
:100E6000C6DBF2DBD1DB01E2BBDB67EC0BF003E2BC
:100E70000F01456B466BC5DB07E2010E0F01456FA5
:100E8000466B476F486B120012000F014A5102E196
:100E9000010E4B1901E1F2D0370E4A1901E14B5115
:100EA00001E1C3D0360E4A1901E14B5101E199D05D
:100EB000350E4A1901E14B516EE0340E4A1901E139
:100EC0004B5145E0330E4A1901E14B511CE0320E03
:100ED0004A1901E14B5101E01200540EE66E2C0E4E
:100EE00086DB430EE66E2C0E87DB05E2320E26DB38
:100EF000330E4A6F4B6B85DB04E20F014A6B010E28
:100F00004B6F090EB5D0320E4C190AE14D5108E174
:100F1000320EE66E2C0E6BDB210EE66E2C0E07D029
:100F2000210EE66E2C0E63DB100EE66E2C0E64DBDB
:100F300005E2330E03DB340E4A6F4B6B62DB05E2D6
:100F4000330EFCDA320E4A6F4B6B080E91D0330E23
:100F50004C190AE14D5108E1430EE66E2C0E47DBB9
:100F6000FF0EE66E2B0E07D0FF0EE66E2B0E3FDB5C
:100F7000EE0EE66E2B0E40DB05E2340EDFDA350EA8
:100F80004A6F4B6B3EDB05E2340ED8DA330E4A6F04
:100F90004B6B010E6DD0340E4C190AE14D5108E136
:100FA000100EE66E2C0E23DBDD0EE66E2B0E07D048
:100FB000DD0EE66E2B0E1BDBCC0EE66E2B0E1CDB65
:100FC00005E2350EBBDA360E4A6F4B6B1ADB05E2D3
:100FD000350EB4DA340E4A6F4B6BFB0EE66EE668E4
:100FE00049D0350E4C190AE14D5108E1EE0EE66E7E
:100FF0002B0EFDDABB0EE66E2B0E07D0BB0EE66E97
:101000002B0EF5DAAA0EE66E2B0EF6DA05E2360E98
:1010100095DA370E4A6F4B6BF4DA05E2360E8EDA4C
:10102000350E4A6F4B6B000E23D0360E4C190AE179
:101030004D5108E1CC0EE66E2B0ED9DA990EE66E14
:101040002B0E07D0990EE66E2B0ED1DA930EE66EBC
:101050002B0ED2DA05E2370E71DA4A6B010E4B6FB6
:10106000D0DA05E2370E6ADA360E4A6F4B6B070E9E
:10107000E66EE66A19D8E552E5521200AA0EE66E4F
:101080002B0EB5DA8D0EE66E2B0E1ADBBADA02E203
:10109000370E9FDA1CDB02E2320E9BDAB5DA03E28E
:1010A000070EBAEF0AF012003FDAAEDA52E250CF82
:1010B00014F051CF15F0FD0EDB50141803E1FE0EB5
:1010C000DB50151846E0FD0EDBCF08F0FE0EDBCF3F
:1010D00009F00F015051085C4E6F515109584F6F84
:1010E000FD0EDBCF50FFFE0EDBCF51FF020E2FDADD
:1010F0000F01706F716BE8500F014E250F01706F7B
:1011000071510F014F210F01716F800E711508E0B1
:10111000180E7025706F000E7121716FE66A0DD088
:1011200071350DE270511708000E715508E2180E66
:10113000705F000E715B010EE66EA2D8E55270CFB3
:10114000E6FF020EA3D9010E15DA380E4A6F4B6B7B
:1011500006D05ADA04E2010E0F01416F426BE0D172
:10116000070E0F01501901E1515124E0505101E1E6
:1011700051511EE0FB0E501902E1E868511916E0CA
:10118000010E501901E151510FE0080E501901E113
:10119000515108E0090E501901E1515101E01200CE
:1011A000320E09D0330E07D0340E05D0350E03D0E1
:1011B000360E01D0370E4A6F4B6B1200B5D9300E88
:1011C000F36EFE0EDBCFF4FFF350F45C0CE3FE0E87
:1011D000DB50390808E3FE0EDB50D00F156AF36EC2
:1011E00015C0F4FF02D0F368F4689AD19DD9FD0EC2
:1011F000DBCF14F0FE0EDBCF15F0FB0EDBCF16F0CD
:10120000FC0EDBCF17F017501518E8AE02D01534DE
:1012100004D01450165C1550175802E2F36A02D03D
:10122000010EF36EF46A7CD17FD9E150FD0FE96EB7
:10123000FF0EDA20EA6E020EEE1804E1ED5002E134
:10124000020E1BD060D9040EEE1801E1ED5012E041
:101250005AD9060EEE1801E1ED500CE054D9090EF2
:10126000EE1801E1ED5006E04ED90B0EEE1804E148
:10127000ED5002E1F36A02D0010EF36EF46A50D130
:1012800053D9040EE12663D9DF6E030E60D9E76EF1
:10129000010EE7CFDBFF050E5AD9E76E020EE7CF4E
:1012A000DBFF060E54D9E76E030EE7CFDBFFFE0E21
:1012B000DB5039E1DF06010EDB06F36EDBCFF4FF16
:1012C000E850F45C03E2DE52070EDD6E010EDF5CD7
:1012D0006DE2020EDB0407E11F0EDF6E0C0E82D9F9
:1012E000030EDB0663D08BD8F350F41004E1020E3A
:1012F000DB061F0E5AD0E0D90AE1155008E1020EB4
:10130000DB50030804E0010E6DD91E0E4ED0D4D977
:101310004DE115504BE1030EDB50030B02E11D0EB6
:1013200044D01C0E42D0DF2A010EDB2ADB50070816
:1013300003E2DE52010EDD6E020EDB500C080AE104
:10134000DF501F0807E2010E4DD9010EDF6E030EBC
:10135000DB2A2CD054D8F350F41003E1DF501E08E0
:1013600021E3AAD905E1155003E1DF501F081AE374
:1013700046D8020EF31809E1155007E1030EDB50C1
:10138000030B03E1DF501D080DE339D8020EF318FB
:101390000DE115500BE1030EDB50030B07E0DF50AE
:1013A0001C0804E2020EDB2A010EDF6EDFCFE6FF2F
:1013B000040E6CD8010EDBCFE6FF030E67D8020ED9
:1013C000DBCFE6FF050E62D8030EDBCFE6FF060E8D
:1013D0005DD8146E040EE15C02E2E16AE552E16E52
:1013E00014509ED001EC14F0E552E552E552E5525E
:1013F0001200E66E74EC1AF0E55200081200020EBC
:10140000DBCFE6FFE66A10DF14EF0BF0DFCFE6FF7D
:10141000D5DEE552F3CF54FFF4CF55FF0F01F31C97
:101420001200E66E91EC19F0E552E55212005D29CA
:10143000146E140E156E0E6E14C009F0B3EC1FF08E
:1014400005C05DFF0F0105500F081200DFCFE6FF5A
:10145000B5DEE552F3CF52FFF4CF53FF0F01F31C7B
:10146000120015C0E6FF16C0E6FF17C0E6FF120027
:10147000BDDEE552E552D8D8F350F410120079CF12
:10148000E6FF7ACFE6FFD0DE14EF0BF0E66E4EEC0F
:101490001DF0E552E5521200E66E010E41EF0BF031
:1014A00041CF43FF42CF44FF120077CF16F078CFF1
:1014B00017F0040E0D6E0E6A77CF08F078CF09F0A2
:1014C00037EC1EF004C016F005C017F004500510EC
:1014D0001200E66A59EC1DF0E5520F01616F626B74
:1014E00012000A0E086E096A52CF0DF053CF0EF0AB
:1014F0008AEF1EF00A0E086E096A54CF0DF055CF20
:101500000EF08AEF1EF0D950FD0FE96EFF0EDA20C3
:10151000EA6E1200E66E74EC1AF0E5520009120051
:10152000E552E7CFD9FF1200D9CFE6FFE1CFD9FFCF
:101530001200DC0EE66E2F0EE66E12000F014C6FED
:101540004D6B1200DE0EE66E2F0EE66E1200E66E9A
:1015500059EC1DF0E5521200010E156A5F25146E5C
:1015600060511522145061191200DA0EE66E2F0E2A
:10157000E66E1200A8D0156A166A176A12006A6B26
:101580006B6B6C6B6D6B0F017F6B120057CF14F0A0
:1015900058CF15F0166A176A120059CF14F05ACFB7
:1015A00015F0166A176A12005BCF14F05CCF15F0C5
:1015B000166A176A1200BB0EE66E2F0EE66E0C0E50
:1015C000E66E12000101696B01016A6B01016B6B30
:1015D00012000F014A6F4B6B4C6B010E4D6F1200E6
:1015E000050E71D0F36E020EF3CFDBFF1200E66E34
:1015F000E66AE66AF2EF09F063D867EF0BF0E66E91
:101600006ED0040EF9EF09F0060EF9EF09F014C0E0
:10161000E6FF31EF0AF005DFB00EE66E2E0E01DFB9
:10162000970EE66E2E0E1200E552E552F3CF14F03F
:10163000F4CF15F01200E66A59EC1DF0E5520F01E7
:101640005F6F606B69EF0AF0F10EE66E2F0E60EFD0
:101650000BF06ACF14F08FDF6ACFE6FF31EF0AF0AC
:101660006BCF14F088DF6BCFE6FF31EF0AF06CCF61
:1016700014F081DF6CCFE6FF31EF0AF063DFE66A3A
:101680002ED0E66EB3EC13F0186E060EE15E185025
:10169000120006DF030E17D003DF040E14D000DFA4
:1016A000020E11D0FDDE070E0ED0F6DEB5EF0AF009
:1016B000E66EE66A38EF0AF0A2DE010EF3181200B9
:1016C000E66EE66A0CD00F01416F426B1200050E08
:1016D000F9EF09F0EADF060E92DF0A0E1200010EA2
:0616E000E66EF2EF09F0D6
:0A16E600D9CFE6FFE1CFD9FF020ED5
:1016F000E126DE6ADD6A6CD829EC12F00AEC13F000
:10170000CAD8A0EC10F07F0EE66E2B0EE66E060E29
:10171000E66EE66AEBEC12F0E552E552E552E55270
:10172000D00EE66E070EE66E0FD8E552E5520101C7
:101730003351FDE0336B0AEC13F052EC1AF040EC3D
:1017400000F032EC13F0F3D7D9CFE6FFE1CFD9FFA9
:10175000040EE126DE6ADD6ADECF14F0DDCF15F07F
:10176000FD0EDBCF16F0FE0EDBCF17F0155017186D
:10177000E8AE02D0173404D01650145C1750155838
:101780001DE2020EDB6A030EDB6A020EDBCF14F0F1
:10179000030EDBCF15F0D890155004E6EE0E145C66
:1017A000000E155806E2020EDB2A030EEEE3DB2ADA
:1017B000ECD7DF2A010ED0E3DB2ACED7040EE15CA2
:1017C00002E2E16AE552E16EE552E7CFD9FF12008D
:1017D000936A956AA3EC11F087EC1DF0A0EC10F071
:1017E000570EE66E120EE66E6FEC1BF0E552E552F8
:1017F000AE0EE66E240EE66E85EC1BF0E552E55269
:10180000660EE66EB70EE66EB4EC1BF0E552E552DE
:10181000020EE66EE66A0DEC1CF0E552E5520A0E89
:10182000E66EE66A19EC1CF0E552E5520A0EE66E29
:10183000E66A32EC1CF0E552E55227EC1AF0C3ECF4
:101840001CF051EF18F00101370E486F3B0E496F45
:10185000170E4A6F070E4B6F1F0E4C6F0C0E4D6F1D
:101860000D0E4E6F48C1E6FFE66A4EEC1DF0E552E4
:10187000E55249C1E6FF010E4FEC10F04AC1E6FF08
:10188000020E4FEC10F03AEC11F03FEC11F044EC8A
:1018900011F049EF11F0200EE5EC10F0220815E0F0
:1018A000D2DFE66A100E4FEC10F0E66A110E4FEC34
:1018B00010F0E66A120E4FEC10F0E66A130E4FECD1
:1018C00010F0220EE66E200EEADB1200100EE5ECA0
:1018D00010F00101526F110EE5EC10F00101536F91
:1018E000120EE5EC10F00101546F130EE5EC10F050
:1018F0000101586F1200E7DB146E8DEC10F0E66EFC
:10190000D4DBE66AE66AD8DB4DC114F08DEC10F04A
:101910004DC1E6FFCADB030E1BEC11F003EC11F026
:10192000060E1BEC11F04BC114F08DEC10F04BC106
:10193000E6FFBBDB090E1BEC11F0EEEC10F0E66AE3
:10194000010EE66EB9DBF5EC10F0030E1FEC11F0A2
:10195000FCEC10F0060E1FEF11F0B5DB4B51070A3F
:1019600024E0010A1EE0030A18E0010A12E0070A57
:101970000CE0010A06E0030A1EE17B0EE66E2B0E68
:1019800017D0770EE66E2B0E13D0730EE66E2B0E6D
:101990000FD06F0EE66E2B0E0BD06B0EE66E2B0E7D
:1019A00007D0670EE66E2B0E03D0630EE66E2B0E8D
:1019B000E66E51EC11F00A0E01014A5D08E2B6DB59
:1019C000040EEAEC10F0EEEC10F0050E03D0EEEC95
:1019D00010F0040E1BEC11F0E6DB060EEAEC10F042
:1019E0000A0E0101495D08E2A1DB070EEAEC10F0E6
:1019F000F5EC10F0080E03D0F5EC10F0070E1BEC20
:101A000011F0D1DB090EE6DB0A0E0101485D07E2A9
:101A10008DDB0A0EDFDBFCEC10F00B0E02D0ECDBF2
:101A20000A0E1BEC11F001015451010A06E0010AF3
:101A30000AE15B0EE66E2B0E03D0570EE66E2B0E00
:101A4000E66E0D0EC7DB0F01565106E0530EE66E33
:101A50002B0EE66E0D0EBEDB01014D510C0A42E06D
:101A6000070A3CE0010A36E0030A30E0010A2AE0F6
:101A70000F0A24E0010A1EE0030A18E0010A12E03E
:101A8000070A0CE0010A06E0030A32E14F0EE66E97
:101A90002B0E2BD04B0EE66E2B0E27D0470EE66E8C
:101AA0002B0E23D0430EE66E2B0E1FD03F0EE66E9C
:101AB0002B0E1BD03B0EE66E2B0E17D0370EE66EAC
:101AC0002B0E13D0330EE66E2B0E0FD02F0EE66EBC
:101AD0002B0E0BD02B0EE66E2B0E07D0270EE66ECC
:101AE0002B0E03D0230EE66E2B0EE66E020E6ADB83
:101AF0005FDB050E67DB0A0E01014C5D06E258DB79
:101B0000060E60DB80DB070E02D07DDB060E97DB66
:101B10004FDB080E57DB140EE66EE66AE66AE66AED
:101B2000090EF7DA24DB0A0E01014E5D0AE2E66ACD
:101B3000E66AE66AE66A0B0EECDA19DB86DB0C0E67
:101B400002D083DB0B0E1FEF11F0100EE66E2B0E92
:101B5000E66EA7DBE6DAE66A010EE66E93DA0A0EB7
:101B60000101525D06E2E2DA020E2CDB75DB030EA8
:101B700002D072DB020E63DB16DB040E23DB0A0EDF
:101B80000101535D06E2D2DA050E1CDB6CDB060EAA
:101B900002D069DB050E53DBCEDA070E13DB010141
:101BA0005451010A06E0010A0AE15B0EE66E2B0EB3
:101BB00003D0570EE66E2B0EE66E0A0E03DBBBDA81
:101BC0000D0EE2EF10F001015051FF0A01E1F6D0D5
:101BD000F40A01E1D0D0010A01E1AAD0030A01E12F
:101BE00084D0010A5FE00F0A36E0010A0DE0060A20
:101BF00001E012001ADB01E1F5D00101590501E015
:101C0000F1D0060E506F120049DB03E28ADA040EAF
:101C1000E1DA0EDB09E001014A299BDA05C04AF14D
:101C200005C0E6FF020E3BDA0DDB0CE001014A05C0
:101C30004A6FE850170802E2170E4A6F4AC1E6FFE2
:101C4000020E2DDAF2DA03E00101070E506F5ADAC4
:101C500001E1C8D0B0D022DB03E263DA070EBADAC2
:101C6000E7DA09E00101492978DA05C049F105C040
:101C7000E6FF010E14DAE6DA0CE001014905496FCE
:101C8000E8503B0802E23B0E496F49C1E6FF010EF6
:101C900006DACBDA03E00101080E506F33DA01E116
:101CA000A1D089D0FBDA02E246DAFBDAC1DA09E038
:101CB00001014B294B6FE850070802E2010E4B6F00
:101CC000D9DAC0DA09E001014B054B6FE85007088B
:101CD00002E2070E4B6FCEDAA8DA03E00101090E2B
:101CE000506F10DA01E17ED066D0D8DA03E219DA5B
:101CF000060E68DA9DDA09E001014C294C6FE850C4
:101D00001F0802E2010E4C6FBADA9CDA09E0010109
:101D10004C054C6F010E4C5D02E21F0E4C6FAFDAAA
:101D200084DA03E001010A0E506FECD95BE043D086
:101D3000B5DA03E200DA020E45DA7ADA09E00101E7
:101D40004D294D6FE8500C0802E2010E4D6F9CDAF0
:101D500079DA09E001014D054D6F010E4D5D02E29A
:101D60000C0E4D6F91DA61DA03E001010B0E506F3A
:101D7000C9D938E020D092DA03E21FDA090E22DA5C
:101D800057DA08E001014E294E6FE850630801E27E
:101D90004E6B7FDA57DA09E001014E054E6F630E94
:101DA0004E5D02E2630E4E6F74DA3FDA02E0D9D97B
:101DB0005069A8D917E0D5D9506B1200596BCDDD09
:101DC000010156D903E2F9D90C0E04DA2EDA05E046
:101DD000D5D90F01686F0F01566B2ADA02E132DAAA
:101DE00001E0CCD9120001014F51FF0A01E184D07A
:101DF000FC0A5DE0010A35E0030A0DE0010A01E09A
:101E0000120013DA01E187D00101590501E083D006
:101E1000010E4F6F1200FED903E283D9020ED2D910
:101E200007DA09E00101522994D905C052F105C031
:101E3000E6FF100E34D906DA0CE001015205526FAC
:101E4000E850170802E2170E526F52C1E6FF100E5B
:101E500026D9EBD903E00101020E4F6F53D95BE0A5
:101E600048D0D8D903E25DD9050EACD9E1D909E053
:101E70000101532972D905C053F105C0E6FF110EC7
:101E80000ED9E0D90CE001015305536FE8503B082F
:101E900002E23B0E536F53C1E6FF110E00D9C5D9C4
:101EA00003E00101030E4F6F2DD935E022D0B2D9E6
:101EB00003E241D90A0E86D9BBD907E001015429B2
:101EC000010B546FE66E120EEAD8BCD90CE001018A
:101ED0005405546FE850010802E2010E546F54C1DA
:101EE000E6FF120EDCD8A1D902E001014F690AD940
:101EF00012E037D94F6B12008DD903E25ED90A0E7A
:101F000069D996D902E19ED901E03FD98ED903E083
:101F10003CD90F01676F12000101010E081903E19E
:101F2000095101E1010C000C01010A0E081903E13D
:101F3000095101E1010C000C0101010E101903E12E
:101F4000115101E1010C000C01010A0E101903E10D
:101F5000115101E1010C000C0101010E0A1901E10E
:101F60000B5115E00A0ED8800A55000E0B5510E2F1
:101F70000AC114F00BC115F0030E0D6E0E6A0AC1F2
:101F800008F00BC109F008D903E1155001E1010C7B
:101F9000000C0101010E121901E1135115E00A0EA6
:101FA000D8801255000E135510E212C114F013C15F
:101FB00015F0030E0D6E0E6A12C108F013C109F080
:101FC000EBD803E1155001E1010C000C0101525165
:101FD0004A5D0AE15351495D07E1485105E1540565
:101FE00003E1590501E1010C000C01015151050A01
:101FF00016E0010A05E0040A01E01200040E0DD00B
:10200000E5DF000906E00101010E586FE66E130ED0
:1020100046D8010158512BE0050E516F1200596B43
:102020005A29146E140EFBD805C05AF10A0E01018C
:10203000055C02E20AEC13F00101562B000E572357
:10204000900ED8805655010E575502E3F1D80FE097
:102050000101010E596F586B58C1E6FF130E1FD8CE
:102060000101566B576B0AEC13F00101516B120022
:102070005529146E140ED3D805C055F10101055031
:102080000F08120001EC14F0E552E552E552E5525A
:102090001200E66E74EC1AF0E55200091200E66ECA
:1020A0004EEC1DF0E552E552120015C0E6FF16C0D9
:1020B000E6FF17C0E6FF1200B3EC13F0186E060E31
:1020C000E15E18501200E66A59EC1DF0E55201017C
:1020D000486F010E7AD80101496F020E76D80101CE
:1020E0004A6F030E72D801014B6F040E6ED80101C6
:1020F0004C6F050E6AD801014D6F060E66D80101BE
:102100004E6F1200060EE66E7EEC1AF0E5520009E4
:102110001200E66E010EE66E1200156A166A176A64
:1021200012000D0EE66E2B0EE66E1200610EE66ECC
:102130002B0EE66E1200090EE66E2B0EE66E1200F6
:10214000E80EE66E030EE66EA4EC0BF0E552E552E7
:102150001200146E180E0FEF11F0146E3C0E0FEFFC
:1021600011F00AEC13F00101010E596F1200B3ECEB
:1021700013F0146E060EE15E145012000AEC13F018
:102180000101506B010E596F12000AEC13F00101AE
:102190004F6B010E596F12007FEC1FF005C015F058
:1021A000010E041812005F0EE66E2B0EE66E120092
:1021B000210EE66E2B0EE66E1200040EE66E2B0E5E
:1021C000E66E1200A6DF42EF10F0E66E59EC1DF04D
:1021D000E5521200E66EE66A42EF10F04AC114F0D2
:1021E0009CDF4AC1E6FF55EF10F049C114F095DFBE
:1021F00049C1E6FF55EF10F048C114F08EDF48C129
:10220000E6FF55EF10F04CC114F087DF4CC1E6FF3C
:1022100055EF10F0596B99DC010138EF10F0156E95
:102220000E6E14C009F0B3EF1FF0060E49EF10F068
:10223000040E49EF10F0E66EE66A5CEF10F069DF1D
:102240005CEF10F0050E49EF10F04EC114F065DFA1
:102250004EC1E6FF55EF10F052C114F05EDF52C1DF
:10226000E6FF55EF10F053C114F057DF53C1E6FFFE
:1022700055EF10F04BC1E6FF030E4FEF10F04CC1CD
:10228000E6FF040E4FEF10F04DC1E6FF050E4FEFD5
:1022900010F04EC1E6FF060E4FEF10F0596B38EF0D
:0A22A00010F0E66AE66A42EF10F063
:0622AA0069EC15F07BDB7E
:1022B00015AE02D01668176820DB13E289DB49DB14
:1022C00004E6050E145C000E155806E2020EDB2A29
:1022D000030EF5E3DB2AF3D7DF2A010EE8E3DB2A5E
:1022E000E6D7040EE15C02E2E16AE552E16EBBD2A0
:1022F000F0DB59DB15AE02D016681768FEDA13E280
:1023000067DB27DB04E6EE0E145C000E155806E2D0
:10231000020EDB2A030EF5E3DB2AF3D7DF2A010ED8
:10232000E8E3DB2AE6D7040EE15C02E2E16AE5526B
:10233000E16E99D2D4DBF00B6BDBFE0EDB38F00BD9
:10234000811278DA90D2C2DB190E50DB0F0E8116A3
:10235000F80E81160F0E8116300E5ADB300E58DB48
:10236000300E56DB818A66DA280EE66EE3DFE55230
:102370000C0EE66EDFDFE552E55275D29DDB010EF5
:10238000DB6A81944ADBE76E010EE7CFDBFF8196C3
:1023900044DBDF6E010EDB50DF128196010E51DA55
:1023A000DF50146E020EE15C02E2E16AE552E16E7A
:1023B000145059D28BDBDF6AE1DFDF6EDFBEFCD762
:1023C000DF50E55250D28BDB81128186050E39DA5F
:1023D0008196050E36DA47D241DA8194050E31DA5C
:1023E00098DA41D23BDA8184050E2BDA92DA8194B5
:1023F0003AD23BD33AD332DAFD0EDBCFF6FFFE0EF4
:10240000DBCFF7FF0800F5500DE0FD0EDBCFF6FF48
:10241000DB2AFE0EDBCFF7FF01E3DB2A0800F550D5
:102420001BDBEAD720D252DBFD0EDB500F0B146E04
:10243000FE0EDB50010B400DF3501424DF6E7F0EB7
:10244000DF14800FDF6EDFCFE6FFC6DFE552E55217
:102450000AD2010EE66EC0DFE552E66AE66A75EF63
:1024600015F0FCD9050EE126010EF36EDB6EB0DA35
:10247000040EDB6ADF6ADFCF14F0156A14BE15683C
:1024800099DA15501718E8AE02D0173404D0165058
:10249000145C175015581FE2FD0EDBCF14F0FE0E32
:1024A000DBCF15F0166A176A15AE02D016681768EA
:1024B000D950010FE96EDACFEAFF14C00BF015C056
:1024C0000CF016C00DF017C00EF0DBDA06EC1FF0B2
:1024D000E1DADF2AD0D7010EDBCF14F0020EDBCF1A
:1024E00015F0030EDBCF16F0040EDBCF17F014C08F
:1024F00006F015C007F016C008F017C009F0050E69
:10250000E15C02E2E16AE552E16EADD1D5DAFB0EA3
:10251000DBCF14F0FC0EDBCF15F0FD0EDBCF16F099
:10252000FE0EDBCF17F0145015101610171003E134
:10253000300E92DA36D0D950FB0F14DA01E618DAF1
:1025400005E22D0E89DAD950FB0FCAD9DE52070EEB
:10255000DD6E37DAE8AE02D0143403D0E750D8800D
:1025600014541FE217DA18BE196871D936DA5EDA28
:1025700008DA0BE0010EDF6EDB041C6E1D6A1CBE68
:102580001D6883D953DA9FD903D0DF5002E0300EA3
:1025900063DA00DA18BE19685AD9D950FB0F6CD922
:1025A000D8D7020EE15C02E2E16AE552E16E5BD14E
:1025B00055D9C7D9D950F90F53DAEECFE6FFEECF90
:1025C000E6FFEECFE6FFEFCFE6FFA0DFE552E552F4
:1025D000E552E55248D142D9B4D9FB0EDBCFE6FF34
:1025E000FC0EDBCFE6FF07DFE552E5523CD136D9E2
:1025F000FCC014F0FDC015F0040ED890143615364A
:10260000E806FBE192D9FE0EDBCFEFFFFE2B000EBA
:10261000FF2329D15BDADF6ADFCF14F0100EE76EFB
:102620001418E8AE02D0E73402D0E750145C18E288
:10263000DFCFE9FFEA6AE9BEEA68C10EE926000ECB
:10264000EA22200EEF6EDFCFE9FFEA6AE9BEEA6810
:10265000D10EE926000EEA22200EEF6EDF2ADCD72B
:10266000E55201D133DA0001C051030A29E0010A21
:102670001CE0030A0CE0010A32E13BDA080EDF5CE1
:1026800003E2DF50B9D9FAD70001010E17D0080EC6
:10269000E66EE66A09D9080EDF5C04E2080EDF2464
:1026A000ABD9F9D70001020E09D00BDA080EDF5CB6
:1026B00003E2DF50A7D9FAD70001030EC06F10D094
:1026C000080EE66E010EE66EEFD8080EDF5C04E23F
:1026D000080EDF2497D9F9D70001C06B01D0C06B79
:1026E000E552C1D0F3D90001C051010A0DE0010A41
:1026F00015E1FFD9100EDF5C03E2DF507DD9FAD778
:102700000001010EC06F0BD0DCD9100EDF5C03E2BC
:10271000DF5078D9FAD70001C06B01D0C06BE55209
:10272000A2D0D4D9E6D9100EDF5C03E2DF5064D921
:10273000FAD7C7D9100EDF5C03E2DF5063D9FAD7AE
:10274000E55291D08BD8B3D8FCC014F0FDC015F081
:10275000040ED89014361536E806FBE1E6D8FC0ED8
:10276000DBCFEFFF80D0A8D9A2D8F90EDBCF14F0D1
:10277000FA0EDBCF15F01ED91450151016101710D5
:1027800003E1300E0CD936D0D950F90FEBD801E661
:10279000EFD805E22D0E03D9D950F90FA1D8DE529A
:1027A000070EDD6E0ED9E8AE02D0143403D0E75028
:1027B000D88014541FE2EED818BE196848D80DD935
:1027C00040D9DFD80BE0010EDF6EDB041C6E1D6A02
:1027D0001CBE1D685AD835D976D803D0DF5002E028
:1027E000300EDDD8D7D818BE196831D8D950F90FB6
:1027F00043D8D8D7020EE15C02E2E16AE552E16E0D
:1028000032D02CD854D8FB0EDBCFF6FFFC0EDBCF3A
:10281000F7FF0800F5500DE0FB0EDBCFF6FFDB2ADB
:10282000FC0EDBCFF7FF01E3DB2A0800F550B7D839
:10283000EAD719D08186010ED9D88196010EF6EF1C
:1028400014F0E66EE66AE66AE66A2FDD56D118C035
:10285000E6FF19C0E6FF10D953EF15F0D9CFE6FF18
:10286000E1CFD9FF1200E552E7CFD9FF1200EA22EB
:10287000EF50F2D8DF2A1200F3D8AFD802D93EECDD
:102880001FF008D9010EDB0612001CC0E6FF1DC0B8
:10289000E6FFF2D806C018F007C019F008C01AF019
:1028A00009C01BF0EDEF14F020D9DF6A1200FE0E14
:1028B000DB50010B0001FC6FFD6BFD0EDB500F0BBD
:1028C000FE6FFF6B1200DBCF09F03EEC1FF0EBD880
:1028D000300E1426000E1522162217221450120054
:1028E000BFD8000EEE6CEF1EEE22EF1EEE22EF1EA2
:1028F000EF22ED52ED52ED521200D950FB0FB0D83D
:10290000EE50145CEE501558EE501658EE50175815
:102910001200FE0EDBCFE6FF56DDE552FE0EDB3881
:10292000F00BE66E50DDE5521200C10E1426000ECB
:10293000152214500001FE25E96E1550FF21EA6EA4
:102940001200FD0EDBCFE6FFFE0EDBCFE6FF75EFDC
:1029500015F0020EDBCF14F0030EDBCF15F0D8908C
:10296000155012007DD8D890030EEB50000A1200CB
:10297000000EEE5C000EEE58000EEE58000EEE5803
:102980001200DBCF09F03EEC1FF0065007100810D4
:1029900009101200010EDB04186E196A1200E66EAF
:1029A00026DEE5521200DECF14F0DDCF15F0166AF8
:1029B000176A1200FB0EDBCF16F0FC0EDBCF17F010
:1029C0001200010EDBCF14F0000EE76E1418120097
:1029D000020EDB6A030EDB6A120006C00BF007C0B2
:1029E0000CF008C00DF009C00EF01200E66EE66AA9
:1029F000E66AE66A7DDC81D0EA6AC10FE96E000E04
:102A000037EF14F0EA6AD10FE96E000E37EF14F0D9
:102A1000811210DF0F0E811612000F0E12DF0F0E43
:102A2000811281860EDF0F0E81141200FB0EDBCFA8
:102A300006F0FC0EDBCF07F0FD0EDBCF08F0FE0E3C
:102A40001200F90EDBCF06F0FA0EDBCF07F0FB0E1B
:102A5000DBCF08F0FC0E1200E66ECCDCE552120073
:102A6000E96EFF0EDA20EA6E1200F8DEFE0EDBCF12
:102A7000E6FFB8DCE552F7D60A0EE66EE66AF1DC50
:102A80003CD0EECF06F0EECF07F0EECF08F0EFCF60
:102A900009F0120005C0EDFF04C0EDFF03C0EDFF1B
:102AA00002C0EFFF120006C014F007C015F008C006
:102AB00016F009C017F01200D1DE020EE126DF6A1F
:102AC0001200E66A010EE66E54EF14F0C7DEE6521D
:102AD0001200C4DE040EE126DE6ADD6A1200BEDEEC
:102AE0000F0E8116FE0EDB5012009DDCE552E55202
:102AF0001200E66AE66A54EF14F0E552E552E55238
:042B0000E552120088
:0C2B0400202020200020202000202000A5
:102B10002020414C41524D2020204241434B202057
:102B2000002000444543004E4F56004F435400538D
:102B3000455000415547004A554C004A554E004DFE
:102B4000415900415052004D415200464542004A11
:102B5000414E004F4B20004F4E20004F4646003A5A
:102B60000030005341540046524900544855005724
:102B7000454400545545004D4F4E0053554E0044BA
:102B800049474954414C20434C4F434B003E42413E
:102B9000434B00204241434B003E48414E4F4920A9
:102BA0002020205554432B3037002048414E4F49B8
:102BB000202020205554432B3037003E4C4F4E44AC
:102BC0004F4E2020205554432B303000204C4F4E88
:102BD000444F4E2020205554432B3030003E4E456C
:102BE00057594F524B20205554432D303500204E1D
:102BF0004557594F524B20205554432D3035003EF8
:102C00005041524953202020205554432B3031004D
:102C1000205041524953202020205554432B30311D
:102C2000003E4245494A494E4720205554432B30E7
:102C3000380020544F4B594F202020205554432B0F
:102C4000303900204245494A494E472020555443D7
:102C50002B3038003E544F4B594F202020205554E4
:102C6000432B303900205573652055415254003EA6
:102C700055736520427574746F6E0021444154454C
:102C80003A59594D4D444464230D0A000D0A546FBE
:102C90002073796E6368726F6E697A6520646174FF
:102CA000652C207573696E672073796E7461782066
:102CB000617320666F6C6C6F773A0D0A005468651B
:102CC0002074696D65206E65656420746F2062658F
:102CD0002032342D6820666F726D61740D0A0021F8
:102CE00054494D453A48484D4D5353230D0A000D64
:102CF0000A546F2073796E6368726F6E697A65200B
:102D000074696D652C207573696E672073796E74B4
:102D1000617820617320666F6C6C6F773A0D0A00E2
:102D20000D0A57656C636F6D6520746F20416C618F
:102D3000726D20436C6F636B20636F6E736F6C6595
:102D4000206D656D750D0A00205573652042757400
:102D5000746F6E003E5573652055415254000D0A44
:102D60004E65656420636F6E6669726D2064617480
:102D700065206368616E676520210D0A000D0A43B6
:102D80006F6E66696775726174696F6E20446174F5
:102D9000652053756363657373210D0A000D0A4442
:102DA000415445206D75737420626520696E2072F0
:102DB000616E6765205B312C375D20210D0A000DA7
:102DC0000A446179206D75737420626520696E20F4
:102DD00072616E6765205B312C32385D20210D0AEF
:102DE000000D0A446179206D757374206265206955
:102DF0006E2072616E6765205B312C32395D202157
:102E00000D0A000D0A446179206D757374206265A6
:102E100020696E2072616E6765205B312C33315DF5
:102E200020210D0A00506C6561736520656E746524
:102E30007220616761696E210D0A000D0A44617993
:102E4000206D75737420626520696E2072616E67F3
:102E500065205B312C33305D20210D0A000D0A20E6
:102E6000446179206D757374206265203E203021A5
:102E70000D0A000D0A4D6F6E7468206D7573742015
:102E8000626520696E2072616E6765205B312C314E
:102E9000325D20210D0A000D0A506C6561736520BA
:102EA000656E74657220616761696E20210D0A008C
:102EB0000D0A43686172616374657220636F6E66A8
:102EC00069726D206973202723270D0A000D0A4EB1
:102ED00065656420636F6E6669726D2074696D65E7
:102EE00020210D0A000D0A436F6E666967757261D5
:102EF00074696F6E2054696D6520537563636573E3
:102F000073210D0A000D0A506C6561736520656EB2
:102F1000746572206E756D62657220210D0A000D58
:102F20000A5365636F6E64206D757374206265204B
:102F3000696E2072616E6765205B302C35395D20CB
:102F4000210D0A000D0A4D696E757465206D75734B
:102F50007420626520696E2072616E6765205B3047
:102F60002C35395D20210D0A00706C656173652078
:102F7000656E74657220616761696E210D0A000DCE
:102F80000A486F7572206D75737420626520696ED2
:102F90002072616E6765205B302C32335D20210D1D
:102FA0000A000D0A506C6561736520656E74657268
:102FB000206E756D626572210D0A002020202000B0
:102FC00052554E0053544F500054494D45522043E2
:102FD0004C4F434B204241434B003A0030002020ED
:102FE0000020202053544F50205741544348202064
:102FF000003E4261636B00204261636B003E576F8D
:10300000726C642054696D65007761726520746F1D
:10301000204D6F6469667900506C65617365206F3F
:1030200070656E20736F66740020576F726C642039
:1030300054696D65003E54696D65204D6F64696625
:1030400079002054696D65204D6F64696679003E92
:1030500054696D657220436C6F636B002054696D19
:10306000657220436C6F636B003E436F756E7465D1
:103070007220436C6F636B0020416C61726D204362
:103080006C6F636B0020436F756E74657220436CC8
:103090006F636B003E416C61726D20436C6F636BBC
:0130A000002F
:0E30A200B06A810EAF6EAC8AAC94B886AC9862
:1030B000AB8EAB889E9A9D8A9F8A949C948E1200B8
:1030C00069D9040EE126DE6ADD6ADECF14F0DDCFB9
:1030D00015F097D915501718E8AE02D0173404D060
:1030E0001650145C175015581DE2020EDB6A030ED1
:1030F000DB6A020EDBCF14F0030EDBCF15F0D890A5
:10310000155004E6EE0E145C000E155806E2020E91
:10311000DB2A030EEEE3DB2AECD7DF2A010ED5E330
:10312000DB2AD3D7040EE15C02E2E16AE552E16EEC
:1031300036D130D99EA8FED7FE0EDB50AD6E9E98DC
:103140002ED128D956D908E054D934D9FD0EDB2A1E
:10315000FE0EF8E3DB2AF6D722D11CD9050EE126B4
:10316000010EF36EDB6E020EDB6A030EDB6A040EE9
:10317000DB6ADF6ADFCF14F0156A14BE1568FB0E38
:10318000DBCF16F0FC0EDBCF17F015501718E8AEAA
:1031900002D0173404D01650145C175015581FE293
:1031A000FD0EDBCF14F0FE0EDBCF15F0166A176AAA
:1031B00015AE02D016681768D950010FE96EDACF44
:1031C000EAFF14C00BF015C00CF016C00DF017C0CC
:1031D0000EF0F4D806EC1FF0FAD8DF2ACBD7010E98
:1031E000DBCF14F0020EDBCF15F0030EDBCF16F0B1
:1031F000040EDBCF17F014C006F015C007F016C0A0
:1032000008F017C009F0050EE15C02E2E16AE55240
:10321000E16EC5D0BFD8020EE126DF6AFB0EDBCF20
:1032200014F0FC0EDBCF15F0ECD81450151016106E
:10323000171003E1300EBED86DD0B5D8D890030E6C
:10324000EB50000A08E6000EEE5C000EEE58000E91
:10325000EE58000EEE580EE22D0EACD8A4D8000E9B
:10326000EE6CEF1EEE22EF1EEE22EF1EEF22ED526D
:10327000ED52ED52DE520A0EDD6E010EDBCF14F080
:10328000000EE76E1418E8AE02D0143403D0E750F5
:10329000D88014543FE2010EDB04186E196A18BE80
:1032A000196871D861D806500710081009101EE07F
:1032B000010EDF6EDB041C6E1D6A1CBE1D681CC087
:1032C000E6FF1DC0E6FFA4D806C018F007C019F03D
:1032D00008C01AF009C01BF047D8A3D8300E142636
:1032E000000E152216221722145003D0DF5002E0E0
:1032F000300E60D8010EDB04186E196A18BE19680A
:1033000042D851D897D85AD83EEC1FF060D8010E59
:10331000DB06B3D7020EE15C02E2E16AE552E16E40
:103320003ED038D85DD80CE05BD844D8FD0EDBCF5A
:10333000F6FFDB2AFE0EDBCFF7FFF4E3DB2AF2D742
:103340002ED028D8E652AE50DF6E01016951EA6AEC
:10335000010FE96E0F0EEA22DFCFEFFF69293F0B65
:10336000696F6B2BE5521BD065D8FB0EDBCF06F0E7
:10337000FC0EDBCF07F0FD0EDBCF08F0FE0EDBCF3F
:1033800009F03EEF1FF018C0E6FF19C0E6FF40D875
:1033900011EF1AF0D9CFE6FFE1CFD9FF1200E552C5
:1033A000E7CFD9FF1200D950FB0FE96EFF0EDA20EC
:1033B000EA6E1200E66EBDDEE5521200EECF06F0B8
:1033C000EECF07F0EECF08F0EFCF09F0120005C006
:1033D000EDFF04C0EDFF03C0EDFF02C0EFFF1200E0
:1033E000FD0EDBCFF6FFFE0EDBCFF7FF0800F5503A
:1033F0001200FD0EDBCFE9FFFE0EDBCFEAFFEF5040
:103400001200FD0EDBCF16F0FE0EDBCF17F0120020
:103410000A0EE66EE66AA1DEE552E552E552E55295
:10342000120006C014F007C015F008C016F009C05D
:1034300017F0120006C00BF007C00CF008C00DF02A
:0634400009C00EF01200AD
:0A3446000F0E946E82681200070E4C
:103450009410946EDF0E9414946E82681200D0D88B
:1034600008D901E601D917E2DDD8826EF8D8D1D8A3
:1034700001E6FAD80BE2B7D802E1FFD801D01DD996
:10348000020EDB2A030EF3E3DB2AF1D7DF2A010E5B
:10349000E7E3DB2AE5D7040EE15C02E2E16AE552EC
:1034A000E16ED9D0ADD8DBD8010EDE6EDD6ABAD8B8
:1034B0008214826ED4D8ADD804E6030E145C000EDC
:1034C00015580BE290D802E1D8D801D0F6D8020EF8
:1034D000DB2A030EF0E3DB2AEED7040EE15C02E206
:1034E000E16AE552E16EB7D0A7D8010EEE1804E10B
:1034F000ED5002E1010E01D0000EADD09DD8320E8C
:10350000EE1804E1ED5002E1010E01D0000EA3D04F
:1035100077D8D7D8FD0EDBCF16F0FE0EDBCF17F035
:1035200015501718E8AE02D0173404D01650145CAA
:103530001750155813E293D86CD804E6EE0E145CBD
:10354000000E155806E2020EDB2A030EF5E3DB2A15
:10355000F3D7DF2A010EDDE3DB2ADBD7040EE15CC3
:1035600002E2E16AE552E16E76D04AD882D801E6FD
:103570007BD822E257D8826E72D84BD801E674D835
:103580000DE29BD830D804E11ED8010EEE6EED6A34
:10359000020EDB2A030EF1E3DB2AEFD78250816EA5
:1035A000E80EE66E030EE66EB3DFE552E552DF2A63
:1035B000010EDCE3DB2ADAD7040EE15C02E2E16A09
:1035C000E552E16E48D07DD8D89014361536D890A3
:1035D00014361536020EDB501424E96E030EDB5050
:1035E000152066EF1BF0020EDBCFE9FF030EDBCFE9
:1035F000EAFF240EE926010EEA22EF50821412009F
:10360000D9CFE6FFE1CFD9FF040EE126DE6ADD6AFD
:103610001200020EDBCF14F0030EDBCF15F0D890B2
:1036200015501200DECFE9FFDDCFEAFF200EE926BC
:10363000010EEA22EF1C1200D9CFE6FFE1CFD9FF3D
:10364000FE0EEA6ADB34FE0BEA36E96E000EE9266E
:10365000010EEA221200E552E7CFD9FF1200020E56
:10366000DB6A030EDB6A1200040E145C000E1558B0
:10367000120027D8D89015501200DECF18F0DDCFF9
:1036800019F0D89018361936D89018361936020E17
:10369000DB501824E96E030EDB50192017D8EECF4B
:1036A00016F0EFCF17F0010E1626000E17228BDF53
:1036B00016C0EEFF17C0EDFF120085DFEE6AED6A5F
:1036C0001200DECF14F0DDCF15F01200EA6ED890B4
:0E36D000E936EA36000EE926010EEA22120063
:0236DE00F1D821
:1036E000D59EFD0EDBCF28F1FE0EDBCF29F1D59C58
:1036F00005D9D59AD586F28AF294F184D58EE6D092
:10370000D59E1200FBD8D58E1200DBD8CD90FD0ED1
:10371000DBCF2AF1FE0EDBCF2BF1F7D89D809E90F8
:103720009F90CD8ECD8CCD98CD9ACD96CD92CD80DB
:10373000CDD0EBD8CD801200CD901200C2D8CA9463
:10374000CC6AFE0EDB5001012C6F2D6BCB6E9D827F
:103750009E929F92CA90CA92CA84B8D02CC1CBFFC5
:10376000CA841200CA941200ACD8B190FD0EDBCF0F
:103770002EF1FE0EDBCF2FF1CFD80750B36ECCD891
:10378000B5D8B26EA082A192A292B18EB198B19A30
:10379000B192B1809BD0C0D80350B26EBDD89ED834
:1037A000B36EB1801200B19012000101382B000EEF
:1037B00039234051385D4151395904E3386B396B35
:1037C000010E306F120001013A2B000E3B234251D3
:1037D0003A5D43513B5904E33A6B3B6B010E316F49
:1037E000120001013C2B000E3D2344513C5D45512C
:1037F0003D5904E33C6B3D6B010E326F1200010139
:103800003E2B000E3F2346513E5D47513F5904E396
:103810003E6B3F6B010E336F120053D8FD0EDBCFB2
:1038200040F1FE0EDBCF41F10101386B396B306B9B
:103830004DD047D8FD0EDBCF42F1FE0EDBCF43F17A
:10384000050E0D6E0E6A42C108F043C109F037EC57
:103850001EF008C042F109C043F101013A6B3B6B15
:10386000316B34D02ED8FD0EDBCF46F1FE0EDBCF10
:1038700047F10A0E0D6E0E6A46C108F047C109F005
:1038800037EC1EF008C046F109C047F101013E6B5C
:103890003F6B336B1BD01C6A1A50175C146E1B50A5
:1038A0001858156E1C501958166E0C6A010E0D6EC4
:1038B0000E6A14C007F015C008F016C009F05DEFDD
:1038C0001EF0D9CFE6FFE1CFD9FF1200E552E7CFD6
:1038D000D9FF120017681868196A120007C014F09F
:1038E00008C015F009C016F00750120003C014F00C
:1038F00004C015F005C016F00350120014D8035090
:10390000D66E11D8EBDFD76E120014D80750CF6EE9
:1039100011D8ECDFCE6E1200DDDF2EC11AF02FC100
:103920001BF04BEF1CF0D6DF28C11AF029C11BF0A9
:103930004BEF1CF0CFDF2AC11AF02BC11BF04BEF6D
:023940001CF079
:0E394200BED8020EE126FE0EDB500F0BDF6E2C
:10395000FE0EDB380F0B0A0DBCD802E2E16AE5521D
:10396000E16E1450B2D0ACD8020EE126BBD805509F
:10397000DF6EB8D80950100DACD802E2E16AE5520A
:10398000E16E1450A2D094869488C79EC79CC690BE
:10399000C692C694C686310EC86EC68A120090D8EA
:1039A0009E96FE0EDB50D00FC96E9EA6FED78DD020
:1039B0009E96C5809EA6FED712009E96C5849EA6A2
:1039C000FED712007DD89E96FE0EDB50C96E9EA6D5
:1039D000FED77BD09E96C5869EA6FED7C950120004
:1039E0009E96C59AC5889EA6FED712009E96C58A49
:1039F000C5889EA6FED7120063D87CD8010E6C6FD6
:103A0000E85004E0C550400BFAE0F8D779D8010E31
:103A10006C6FE85004E0C550400BFAE0F8D7FD0E9B
:103A2000DBCFE6FFA0DFE552E66ECCDFE552010119
:103A3000010E6C6FE85004E0C550400BFAE0F8D777
:103A4000BCDF43D03DD8E65255D8010E6C6FE8502C
:103A500004E0C550400BFAE0F8D752D8010E6C6F65
:103A6000E85004E0C550400BFAE0F8D7A1DF010EA2
:103A7000E66E95DFE5520101010E6C6FE85004E03F
:103A8000C550400BFAE0F8D7A5DFDF6EDFCFE6FFC9
:103A900058DFE552DF6EDF50E55217D011D8FD0E2A
:103AA000DBCFE6FFFE0EDBCFE6FFA6DFE552E552F9
:103AB0000CD006D8FE0EDBCFE6FFC4DFE55205D002
:103AC000D9CFE6FFE1CFD9FF1200E552E7CFD9FF0A
:103AD0001200010EF3CFDBFFDB50DF24146E020E69
:103AE000E15C12000A0E146E0E6EFE0EDBCF09F0C2
:103AF000B3EF1FF05DDFE66A52DFE552010112000D
:0E3B0000FE0EDBCFE6FF5EDFE5520101120094
:023B0E00F28E35
:103B1000D08EF28C1200F19CF292F2881200D8CF73
:103B2000E4FFE0CFE4FFE46E65D800EE00F0140E91
:103B3000E80403E3EECFE4FFFBD700EE14F00A0E37
:103B4000E80403E3EECFE4FFFBD7E652F2B47AD801
:103B50009EB07FD8A1B284D8F2B2F2929EBA9E9A59
:103B6000E55200EE1DF00A0EE80403E3E5CFEDFF99
:103B7000FBD700EE13F0140EE80403E3E5CFEDFFEE
:103B8000FBD74DD8E550E5CFE0FFE5CFD8FF1000DB
:103B900031D800EE00F0140EE80403E3EECFE4FFAA
:103BA000FBD700EE14F00A0EE80403E3EECFE4FFC7
:103BB000FBD7E652F2B446D89EB04BD8A1B250D84B
:103BC000F2B2F2929EAA03D0A1EC19F09E9AE552AD
:103BD00000EE1DF00A0EE80403E3E5CFEDFFFBD78E
:103BE00000EE13F0140EE80403E3E5CFEDFFFBD77E
:103BF00016D81100DACFE4FFE2CFDAFFE9CFE4FF15
:103C0000EACFE4FFF6CFE4FFF7CFE4FFF5CFE4FF20
:103C1000F3CFE4FFF4CFE4FFFACFE4FF1200E5CFE7
:103C2000FAFFE5CFF4FFE5CFF3FFE5CFF5FFE5CFF2
:103C3000F7FFE5CFF6FFE5CFEAFFE5CFE9FFE5CFF8
:103C4000DAFF120080EC1BF0F29482EC1BF0D5EF4F
:103C50001BF09CEC1BF09E9099EC1BF0E3EF1BF02B
:0E3C6000D3EC1BF0A192CBEC1BF0FFEF1BF09E
:023C6E00006AEA
:103C70000EAE40EF1EF00D6C0E1EE86A0E22001E06
:103C800009AE48EF1EF0086C091EE86A0922001E02
:103C90007FEC1FF009BE58EF1EF000AE000C086C60
:103CA000091EE86A0922046C051EE86A0522000C58
:103CB00000BE4FEF1EF00188FF0C006A0EAE68EFE9
:103CC0001EF00C6C0D1E0E1EE86A0D220E22001E48
:103CD00009AE72EF1EF0076C081E091EE86A082282
:103CE0000922001E62EC1FF009BE85EF1EF000AE37
:103CF000000C076C081E091EE86A08220922036CE2
:103D0000041E051E04220522000C00BE79EF1EF0E1
:103D10000188FF0C09C013F008C012F008500D0212
:103D2000F4CF07F0F3CF06F009500E02F4CF09F0FC
:103D3000F3CF08F00D02F3500726F4500822E86A8A
:103D4000092212500E02F3500726F4500822E86AA6
:103D500009220EAEB0EF1EF01250085E1350095A41
:0E3D600013AE000C0D50085E0E50095A000CF8
:023D6E001E0E27
:103D7000F66E000EF76E000EF86E01010900F550A8
:103D8000606F0900F550616F03E1606701D03DD0BD
:103D90000900F5505B6F0900F5505C6F0900F550A4
:103DA0005D6F09000900F550E96E0900F550EA6EF3
:103DB000090009000900F5505E6F0900F5505F6FBA
:103DC00009000900F6CF62F1F7CF63F1F8CF64F193
:103DD0005BC1F6FF5CC1F7FF5DC1F8FF01015E53F7
:103DE00002E15F5307E00900F550EE6E5E07F8E26E
:103DF0005F07F9D762C1F6FF63C1F7FF64C1F8FF3F
:0C3E000001016007000E615BBFD71200DB
:043E0C0006500B024F
:103E1000F3CF02F0F4CF03F00C02F3500326000EB0
:103E2000F420046E06500D02F3500426000EF42018
:103E3000056E06500E02F350052607500B02F35094
:103E40000326F4500422000E052207500C02F35002
:103E50000426F450052207500D02F35005260850A1
:103E60000B02F3500426F450052208500C02F350C4
:0C3E7000052609500B02F3500526120035
:043E7C00056A046A65
:103E8000036A026A200EE76ED890063607360836B7
:103E9000093602360336043605360B50025C0C50E8
:103EA00003580D5004580E50055809E30B50025E9C
:103EB0000C50035A0D50045A0E50055A062AE72E8C
:043EC000E4D7120031
:0C3EC400056A046A036A180EE76ED890C5
:103ED0000736083609360336043605360C50035CBF
:103EE0000D5004580E50055807E30C50035E0D505A
:0E3EF000045A0E50055A072AE72EEAD7120090
:023EFE00056A53
:103F0000046A100EE76ED890083609360436053676
:103F10000D50045C0E50055805E30D50045E0E5024
:0A3F2000055A082AE72EF0D7120018
:063F2A00800EF36E00EEB4
:103F300000F00F0E01D81200EA6002D0EE6AFCD742
:0A3F4000F350E9601200EE6AFCD7AE
:063F4A001EEE00F02EEE59
:103F500000F0F86A019CB7EC1EF003EC00F073EC83
:063F60000BF0FBD712007C
:0A3F6600056A080EE76ED8900936D0
:103F700005360E50055C02E3056E092AE72EF7D7D9
:023F800012002D
:0E3F8200000000000000000000000000000031
:103F9000000000000000000000000100010001001E
:023FA00001001E
:0E3FA2000100000000000000003200320007A5
:103FB000000700FFFFFFFF000000000000000000FE
:103FC00000000000010001000000000000000001EE
:013FD00000F0
:0F3FD100000000000000000000000000000000E1
:043FE00000000100DC
:0C3FE40000000000000000001010101091
:103FF0001010101018181818181818181C1C1C1C51
:104000001C1C1C1C1E1E1E1E1E1E1E1E1F1F1F1FD4
:104010001F1F1F1F00000000000000000000000024
:104020000000000000000000000000000000000090
:104030000000000000000000000000000000000080
:0540400000000000007B
:0B404500000000D00022222207250905
:10405000100001000000000000000000000000004F
:104060000000000000000000000000000000000050
:104070000000000000000000000000000000000040
:08408000102040800102040839
:020000040030CA
:0100010002FC
:0100020003FA
:010003001EDE
:010005008179
:010006008178
:010008000FE8
:01000900C036
:01000A000FE6
:01000B00E014
:01000C000FE4
:01000D0040B2
:00000001FF
