:020000040000FA
:06000000A2EF22F0120045
:020006000700F1
:06000800C5EF20F012001C
:02000E001200DE
:03001000000000ED
:0400130000000000E9
:060018008CEF20F0120045
:02001E000800D8
:100020006246000000010000280000004746000072
:10003000E10000001B00000013000000780F00002A
:1000400004000000E64500008000000061000000A0
:10005000D345000048010000130000009C4500004B
:10006000410F0000370000007C450000280100001F
:1000700020000000100000007C0F000003000000C2
:100080000F01415102E1010E421901E106D20C0EAD
:10009000411901E1425101E1BBD10B0E411901E1CE
:1000A000425101E1A5D10A0E411901E1425101E19C
:1000B0006ED1080E411901E1425101E166D1070EEE
:1000C000411901E1425101E135D1090E411901E126
:1000D000425101E112D1060E411901E1425101E103
:1000E0000AD1050E411901E1425101E1DBD0280E90
:1000F000411901E1425101E1D2D0040E411901E15F
:10010000425101E1A1D01E0E411901E1425172E0BC
:10011000030E411901E1425147E0140E411901E17A
:10012000425137E0020E411901E1425115E0010E42
:10013000411901E1425101E01200E7EC0EF073ECCD
:1001400012F08FEC0DF001E3C3D1020ED2EC0CF0F3
:10015000010E436F446B1200840EE66E360E19ECEE
:100160000DF0750EE66E360E1EEC0DF002E272EC2E
:100170000DF08FEC0DF004E2140E0F01416F426B95
:1001800026EC0DF001E3A4D10F01416B010E426F8B
:100190001200E8EC0FF04EEC11F00F016F5101E18D
:1001A00097D16F6B020E91D1020E43190BE14451AE
:1001B00009E1680EE66E360E19EC0DF0590EE66E8A
:1001C000360E08D0590EE66E360E19EC0DF04C0EB8
:1001D000E66E360E1EEC0DF002E275EC0DF026EC2C
:1001E0000DF002E278EC0DF08FEC0DF001E370D130
:1001F0001E0E6AD18AD90F01715101E06AD9040E2D
:10020000A1EC0CF004E091EC0CF0010E716F050E06
:10021000A1EC0CF002E00F01716B050EE66E76ECBE
:100220001DF0E552000903E00F01DEEC0CF0060EB4
:10023000A1EC0CF001E14CD10F01716BDEEC0CF084
:100240000F016F6B030E41D1030E43190BE14451B3
:1002500009E1750EE66E360E19EC0DF03F0EE66EF6
:10026000360E08D03F0EE66E360E19EC0DF0320E4B
:10027000E66E360E1EEC0DF004E259EC0CF0D7ECF5
:100280000CF026EC0DF002E272EC0DF08FEC0DF0AC
:1002900001E31ED1280ED2EC0CF0496B120074D988
:1002A0004FEF03F0040E43190BE1445109E14C0EEA
:1002B000E66E360E19EC0DF0250EE66E360E08D001
:1002C000250EE66E360E19EC0DF0190EE66E360EA2
:1002D0001EEC0DF002E27BEC0DF026EC0DF002E2DC
:1002E00075EC0DF08FEC0DF001E3F2D00F01456BD2
:1002F000466B060EEAD033EF08F00A0EE66E360EB5
:1003000019EC0DF0FB0EE66E350E8CEC0DF061EC89
:100310000DF004E2010E0F01416F426B0F016951B4
:1003200001E1D6D0650501E0D3D0010E416F426BEB
:10033000696B1200050E43190BE1445109E1320EBD
:10034000E66E360E19EC0DF0EF0EE66E350E08D0A7
:10035000EF0EE66E350E19EC0DF0E60EE66E350E7C
:100360001EEC0DF002E27EEC0DF026EC0DF004E246
:1003700059EC0CF0D7EC0CF08FEC0DF001E3A8D0A9
:10038000080ED2EC0CF0B8EF0AF04FEF09F0070EB0
:1003900043190BE1445109E1190EE66E360E19ECD2
:1003A0000DF0DD0EE66E350E05D0DD0EE66E350E77
:1003B00099EC0DF01EEC0DF006E259EC0CF00F017B
:1003C000416B010E426F26EC0DF002E27BEC0DF06A
:1003D0008FEC0DF001E37CD00B0ED2EC0CF0CF0EC5
:1003E000E66E350E03EC0CF00F01010E616F12008A
:1003F000BF0EE66E350E19EC0DF00F01676B29ECA0
:100400000DF05D6F60CF5EFF61EC0DF061E243D0F7
:10041000B40EE66E350E19EC0DF0AA0EE66E350E32
:100420008CEC0DF062CF14F0D3EC0CF062CFE6FF51
:1004300018EC0CF0060EE66EE66A3EEC0DF063CFAB
:1004400014F0D3EC0CF063CFE6FF18EC0CF0060EC2
:100450003DEC0CF04FEC0CF002E11550601908E097
:100460003B0E5D1908E15E5106E15F51601103E149
:100470000FEC0DF0672B050E675D0AE1680508E1DA
:10048000CF0EE66E350E03EC0CF00F01676B686B58
:1004900061EC0DF01DE20A0E17D0E60EE66E350E89
:1004A0009EEC0DF08CEC0DF026EC0DF002E27EECF3
:1004B0000DF096EC0DF002E278EC0DF08FEC0DF003
:1004C00007E259EC0CF0010E0F01416F426B120074
:1004D00012004FEC0CF002E11550601908E03B0EE1
:1004E0005D1908E15E5106E15F51601103E1742B73
:1004F0000FEC0DF03C0E745D02E3746B732B3C0E3D
:10050000735D02E3736B722B1200940EE66E350E70
:1005100019EC0DF06FEC0DF00A0E0F01725D09E29F
:10052000B0EC0CF0040E21EC0DF04CEC0DF0050ECF
:1005300003D04CEC0DF0040EA3EC0DF00F01735D35
:1005400009E2B0EC0CF0070E21EC0DF053EC0DF0CD
:10055000080E03D053EC0DF0070E81EC0DF0090EE0
:1005600021EC0DF00A0E0F01745D09E2B0EC0CF005
:100570000A0E21EC0DF05AEC0DF00B0E03D05AECE4
:100580000DF00A0E3DEF0CF07C0EE66E350E19EC08
:100590000DF06FEC0DF00F015C5104E0770EE66E8C
:1005A000350E03D0730EE66E350EE66E0C0E21ECA2
:1005B0000DF00A0E0F0156AF02D0D89003D0555D52
:1005C000000E565913E2B0EC0CF0010EE66EE66E2A
:1005D000F6EC0BF0E5EC0CF015AE02D016681768DF
:1005E00031EC0DF0020EE66E010E0AD0E5EC0CF0D7
:1005F00015AE02D01668176831EC0DF0010EE66EEC
:10060000E66E3EEC0DF0D9EC0CF0030E21EC0DF093
:100610000A0E0F0158AF02D0D89003D0575D000EDC
:1006200058590FE2B0EC0CF0040E21EC0DF0ECEC9C
:100630000CF015AE02D01668176831EC0DF0050EFF
:1006400009D0ECEC0CF015AE02D01668176831EC4E
:100650000DF0040EA3EC0DF00F015AAF02D0D890AC
:1006600003D0595D000E5A590FE2B0EC0CF0070EA2
:1006700021EC0DF0F3EC0CF015AE02D01668176803
:1006800031EC0DF0080E09D0F3EC0CF015AE02D0F1
:100690001668176831EC0DF0070E3DEF0CF00F01F6
:1006A0004951040A01E157D1070A01E1F1D0010AD9
:1006B00001E1A1D0030A52E0010A01E012001FEC9F
:1006C0000CF007E2C8EC0CF0010EE66EE66EF6ECFC
:1006D0000BF026EC0DF00DE20F01552B000E56230A
:1006E000563507E255511708000E565502E2556B74
:1006F000566B96EC0DF00AE20F015507000E565BA3
:10070000800E561503E0170E556F566B040E79ECEC
:100710000CF00EE2030E0F015527000E562356353E
:1007200007E255511708000E565502E2556B566BFD
:10073000050E79EC0CF00BE2030E0F01555F000E75
:10074000565B800E561503E0170E556F566B8FECF7
:100750000DF001E320D10F01010EFBD01FEC0CF0D6
:1007600005E2C8EC0CF0040E21EC0DF026EC0DF0C7
:100770000DE20F01572B000E5823583507E2575151
:100780003B08000E585502E2576B586B96EC0DF083
:100790000AE20F015707000E585B800E581503E060
:1007A0003B0E576F586B040E79EC0CF00EE2090EFD
:1007B0000F015727000E5823583507E257513B08C1
:1007C000000E585502E2576B586B050E79EC0CF091
:1007D0000BE2090E0F01575F000E585B800E581593
:1007E00003E03B0E576F586B8FEC0DF001E3D3D055
:1007F0000F01020EAED01FEC0CF005E2C8EC0CF0BD
:10080000070E21EC0DF026EC0DF00DE20F01592B37
:10081000000E5A235A3507E259513B08000E5A552B
:1008200002E2596B5A6B96EC0DF00AE20F01590780
:10083000000E5A5B800E5A1503E03B0E596F5A6B3F
:10084000040E79EC0CF00EE2090E0F015927000E90
:100850005A235A3507E259513B08000E5A5502E215
:10086000596B5A6B050E79EC0CF00BE2090E0F0177
:10087000595F000E5A5B800E5A1503E03B0E596F0C
:100880005A6B8FEC0DF001E386D00F01030E61D09F
:1008900026EC0DF005E20F01010E5C6F91EC0CF0FF
:1008A00096EC0DF002E20F015C6B0F015C5136E03B
:1008B0004FEC0CF002E11550601908E03B0E5D1999
:1008C0002DE15E512BE15F51601128E10FEC0DF03D
:1008D0005A3509E259510008000E5A5504E25907E9
:1008E000000E5A5B1BD059515A1118E1575158113B
:1008F00007E03B0E596F5A6B5707000E585B0ED03E
:10090000575158110BE15551561108E05507000E8B
:10091000565B3B0E576F586B596F5A6B55515611BA
:1009200007E15751581104E159515A1101E15C6B2B
:100930005C5109E11FEC0CF006E2FAEC0CF0010E40
:10094000E66EF6EC0BF08FEC0DF025E20F015C6B20
:10095000040E496F12001FEC0CF005E2FAEC0CF0EB
:10096000E66AF6EC0BF0040EA1EC0CF004E1050EC7
:10097000A1EC0CF002E00F010CD08FEC0DF00BE2BB
:10098000040ED2EC0CF0556B566B576B586B596BD1
:100990005A6B496B12001200ABEC0CF0E6520F01DF
:1009A0007D51EA6A010FE96E0F0EEA22EFCFDFFFF9
:1009B0007D293F0B7D6FDF50E552A7EF0CF0C1EFB3
:1009C0000CF0010E0F01761901E1775101E01200E0
:1009D0000F017E51000804E204D80F017E071200C7
:1009E0001200ABEC0CF0E652D7DFDF6EDFCFE6FF94
:1009F00091EC1BF0E552630E0F016B1901E16C5194
:100A000001E1E4D0690E6B1901E16C5101E1C0D044
:100A1000680E6B1901E16C5101E1ABD0670E6B19E7
:100A200001E16C5101E190D0660E6B1901E16C514E
:100A300001E17FD0650E6B1901E16C5165E0640E38
:100A40006B1901E16C5155E00E0E6B1901E16C510F
:100A500044E00C0E6B1901E16C5136E00B0E6B1982
:100A600001E16C5128E00A0E6B1901E16C511AE0AA
:100A7000020E6B1901E16C510CE0010E6B1901E0E3
:100A8000D0D06C5101E0CDD0210EDF5C01E0C9D0A7
:100A90002CD0540EDF5C02E10A0EC1D0210EDF5CC7
:100AA00026E123D0490EDF5C02E10B0EB8D0210E07
:100AB000DF5C1DE11AD04D0EDF5C02E10C0EAFD001
:100AC000210EDF5C14E111D0450EDF5C02E10E0E59
:100AD000A6D0210EDF5C0BE108D03A0EDF5C02E10C
:100AE000640E9DD0210EDF5C02E1020E98D0010E53
:100AF00096D02EEC0CF001E1511D46E07FEC0CF09D
:100B000006C05DF1650E8AD02EEC0CF001E1511D9E
:100B10003BE0505101015D27170EE66EE66A5D511C
:100B200084EC0DF002E0660E79D0320EE66E350EE2
:100B300043D02EEC0CF001E1511D26E07FEC0CF0CF
:100B400006C05EF1670E6AD02EEC0CF001E1511D7B
:100B50001BE0505101015E273B0EE66EE66A5E51D6
:100B600084EC0DF002E0680E59D0F70EE66E340EFC
:100B700023D02EEC0CF001E1511D06E07FEC0CF0CF
:100B800006C05FF1690E4AD0550EE66E350E43D0B1
:100B90002EEC0CF001E1511D15E0505101015F27D1
:100BA0003B0EE66EE66A5F5184EC0DF002E0630EE8
:100BB00035D0D20EE66E340E03EC0CF01C0EE66E51
:100BC000350E29D0B80EE66E340E25D0230EDF5C2C
:100BD0001DE1010E6B6F6C6B5DC1E6FF020E49EC0F
:100BE0000CF05EC1E6FF010E49EC0CF05FC1E6FFC0
:100BF000E66AF9EC1FF0E552E5520F016A5111E087
:100C0000980EE66E340E03EC0CF00BD0800EE66E00
:100C1000340E35EC0DF003EC0CF0010E0F016B6F90
:100C20006C6B630E0F016D1901E16E5101E171D121
:100C3000740E6D1901E16E5101E13FD1760E6D190F
:100C400001E16E5101E1D1D0750E6D1901E16E51D6
:100C500001E1BDD0730E6D1901E16E5101E191D03A
:100C6000720E6D1901E16E5101E17AD06F0E6D19AE
:100C700001E16E5167E06E0E6D1901E16E5155E0B4
:100C80006D0E6D1901E16E5144E06C0E6D1901E1BC
:100C90006E5136E06B0E6D1901E16E5128E06A0E5F
:100CA0006D1901E16E511AE0020E6D1901E16E51EC
:100CB0000CE0010E6D1901E05DD16E5101E05AD1D9
:100CC000210EDF5C01E056D12CD0440EDF5C02E146
:100CD0006A0E1CD1210EDF5C26E123D0410EDF5CC1
:100CE00002E16B0E13D1210EDF5C1DE11AD0540E10
:100CF000DF5C02E16C0E0AD1210EDF5C14E111D041
:100D0000450EDF5C02E16D0E01D1210EDF5C0BE1CF
:100D100008D03A0EDF5C02E16E0EF8D0210EDF5CE7
:100D200002E1020EF3D0010EF1D010EC0CF001E163
:100D3000531D23E088EC0CF006C062F107C063F19C
:100D40006F0EE3D010EC0CF001E1531D16E0525190
:100D5000010162270F01535101016323720ED5D0A7
:100D600010EC0CF001E1531D08E088EC0CF006C01B
:100D700064F107C065F1730EC8D0550EE66E350EEE
:100D8000C1D010EC0CF001E1531D01E1B8D052517B
:100D9000010164270F015351010165230C0EE66E1A
:100DA000E66A64C1E6FF65C1E6FF36EC0CF006E0DA
:100DB00001016451651102E0750EA7D0260EE66EA2
:100DC000340E03EC0CF01C0EE66E350E9BD010ECCE
:100DD0000CF001E1531D01E192D088EC0CF006C04B
:100DE00066F107C067F1760E90D010EC0CF001E1CF
:100DF000531D01E184D05251010166270F01535167
:100E0000010167236651671106E1100EE66E340E8C
:100E100003EC0CF0AFD042EC0CF0F350F4100CE10A
:100E20000101673509E266511E08000E675504E2AC
:100E3000EE0EE66E330E5DD042EC0CF0010EF318B0
:100E40000EE115500CE10101673509E266511F08FA
:100E5000000E675504E2B60EE66E330E4AD042EC41
:100E60000CF0020EF31811E115500FE165EC0CF0D7
:100E70000CE10101673509E266511D08000E675556
:100E800004E2940EE66E330E34D042EC0CF0020E07
:100E9000F31811E115500FE165EC0CF00CE00101C5
:100EA000673509E266511C08000E675504E2720EB0
:100EB000E66E330E1ED0740E28D010EC0CF001E15B
:100EC000531D1DE052CF68F153CF69F1070EE66E56
:100ED000E66A52CFE6FF53CFE6FF36EC0CF006E0B1
:100EE00001016851691102E0630E0FD0500EE66EE9
:100EF000330E03EC0CF0D80EE66E330E03D0B80EB2
:100F0000E66E340E03EC0CF0010E0F016D6F6E6B8C
:100F100031D0230EDF5C23E1010E6D6F6E6B62C179
:100F2000E6FF060E49EC0CF064C1E6FF050E49EC45
:100F30000CF066C1E6FF040E49EC0CF068C1E6FF58
:100F4000030E49EC0CF00F016A5105E0300EE66E1D
:100F5000330E03EC0CF00F01010E696F0BD0110E74
:100F6000E66E330E35EC0DF003EC0CF0010E0F01C4
:100F70006B6F6C6B0F016151630A62E0AD0A52E066
:100F8000030A47E0010A3EE0070A33E0010A27E0CE
:100F9000030A1CE0010A11E0CA0A06E0030A60E144
:100FA000210EDF5C5DE123D0440EDF5C02E1C80E60
:100FB00056D0210EDF5C52E11AD0480EDF5C02E110
:100FC000C90E4DD0210EDF5C49E111D0540EDF5C1B
:100FD00002E1CA0E44D0210EDF5C40E108D03A0E97
:100FE000DF5C02E1CB0E3BD0210EDF5C37E1020E6D
:100FF00036D05EEC0CF01DE00A0E6403F3CF62FF06
:10100000CC0E2DD05EEC0CF014E064516227CD0EB6
:1010100026D05EEC0CF00DE00A0E6403F3CF63FF04
:10102000CE0E1DD05EEC0CF004E064516327630E1D
:1010300016D0010E616F020EE66E330EE4DB10D0A7
:10104000230EDF5C06E10C0E416F426B010E686FF0
:1010500006D0F10EE66E320ED6DB0F01010E616F87
:10106000E552A7EF0CF00F01455102E1010E4619C0
:101070006EE0040E451901E1465167E0030E451983
:1010800001E1465154E0010E451901E1465127E0C6
:10109000455101E1465101E01200E70EE66E320EC5
:1010A00019EC0DF0DB0EE66E320E23EC0DF006E2CD
:1010B000040E0F01456F466B656B666B96EC0DF089
:1010C00006E2010E0F01456F466B476B486B26EC3D
:1010D0000DF057E20F01456B010E466F12004751AC
:1010E000481106E0CF0EE66E320E99EC0DF008D0F6
:1010F000C50EE66E320E19EC0DF0CF0EE66E320E16
:101100001EEC0DF004E20F01456B010E466F26EC5C
:101110000DF003E20F01456B466B8FEC0DF031E2F1
:10112000030E0F01456F466B010E546F1200E7EC82
:101130000EF027EC10F00F01705123E0456B466B69
:10114000706B010E416F426B1200C2EF08F0DB0EB4
:10115000E66E320E9EEC0DF023EC0DF002E2D7ECC1
:101160000CF096EC0DF003E20F01456B466B26EC9C
:101170000DF007E2010E0F01456F466B476F486B9C
:10118000120012000F016551020A71E0030A3CE0EF
:10119000010A01E01200B40EE66E320E19EC0DF0F9
:1011A000AA0EE66E320E23EC0DF01FE2820EE66E02
:1011B000320E29DB510EE66E320E25DB410EE66E55
:1011C000320E21DB1F0EE66E320E1DDBEE0EE66EDA
:1011D000310E19DBDD0EE66E310E15DBD2DB0F01B1
:1011E000010E6A6F090E416F426B26EC0DF004E2AE
:1011F0000F01020E656F666B96EC0DF04FE20F016A
:10120000010E656F666B1200665109E1CC0EE66E49
:10121000310E19EC0DF0C20EE66E310E05D0C20E85
:10122000E66E310E99EC0DF023EC0DF011E2B90EE3
:10123000E66E310EE8DA0F016A6BA3DB090EB2DB52
:101240006AEC0DF0070EF56E0D00F56A0E00696B85
:1012500026EC0DF004E20F01656B010E666F96EC53
:101260000DF01CE20F01020E656F010E15D0AA0EE3
:10127000E66E320E9EEC0DF0E6DB01E298DBE6DB7B
:1012800005E20F01010E656F020E666F96EC0DF020
:1012900005E20F01656B020E666F120012000F016E
:1012A0004A5102E1010E4B1901E1F2D0370E4A1901
:1012B00001E14B5101E1C3D0360E4A1901E14B5116
:1012C00001E199D0350E4A1901E14B516EE0340E1F
:1012D0004A1901E14B5145E0330E4A1901E14B51E6
:1012E0001CE0320E4A1901E14B5101E01200A80E38
:1012F000E66E310E9EDB970EE66E310E9FDB05E249
:10130000320E33DB330E4A6F4B6BA0DB04E20F016E
:101310004A6B010E4B6F090EB5D0320E4C190AE123
:101320004D5108E1860EE66E310E83DB750EE66EDA
:10133000310E07D0750EE66E310E7BDB640EE66E65
:10134000310E7CDB05E2330E10DB340E4A6F4B6B43
:101350007DDB05E2330E09DB320E4A6F4B6B080E64
:1013600091D0330E4C190AE14D5108E1970EE66E0B
:10137000310E5FDB530EE66E310E07D0530EE66E74
:10138000310E57DB420EE66E310E58DB05E2340EAD
:10139000ECDA350E4A6F4B6B59DB05E2340EE5DAB9
:1013A000330E4A6F4B6B010E6DD0340E4C190AE1AF
:1013B0004D5108E1640EE66E310E3BDB310EE66EF8
:1013C000310E07D0310EE66E310E33DB200EE66EA5
:1013D000310E34DB05E2350EC8DA360E4A6F4B6B40
:1013E00035DB05E2350EC1DA340E4A6F4B6BFB0E6E
:1013F000E66EE66849D0350E4C190AE14D5108E118
:10140000420EE66E310E15DB0F0EE66E310E07D082
:101410000F0EE66E310E0DDBFE0EE66E300E0EDBAD
:1014200005E2360EA2DA370E4A6F4B6B0FDB05E290
:10143000360E9BDA350E4A6F4B6B000E23D0360EFC
:101440004C190AE14D5108E1200EE66E310EF1DA39
:10145000ED0EE66E300E07D0ED0EE66E300EE9DAD8
:10146000E70EE66E300EEADA05E2370E7EDA4A6BF8
:10147000010E4B6FEBDA05E2370E77DA360E4A6F64
:101480004B6B070EE66EE66A19D8E552E55212007C
:10149000FE0EE66E300ECDDAE10EE66E300E3CDB6F
:1014A000D5DA02E2370EADDA41DB02E2320EA9DA1A
:1014B00036DB03E2070ED2EF0CF012004CDA2FDB22
:1014C00050E257DAFD0EDB50141803E1FE0EDB503C
:1014D000151847E09DDAFEDA0F010900F550145C9B
:1014E0004E6F0900F55015584F6FF4DAFD0EDBCF43
:1014F000F5FF0D00FE0EDBCFF5FF0E00020E4DDAFC
:1015000001015B6F5C6BE8500F014E2501015B6FC1
:101510005C510F014F2101015C6F800E5C1508E0EA
:10152000180E5B255B6F000E5C215C6FE66A0DD0C8
:101530005C350DE25B511708000E5C5508E2180E91
:101540005B5F000E5C5B010EE66E9ED8E5525BC1F0
:10155000E6FF020E9ED9010E25DA380E4A6F4B6B5C
:1015600006D0DDDA04E2010E0F01416F426BEFD1CC
:1015700000DA070E141801E1155024E0145001E1BF
:1015800015501EE0FB0E141802E1E868151816E06D
:10159000010E141801E115500FE0080E141801E1B6
:1015A000155008E0090E141801E1155001E0120071
:1015B000320E09D0330E07D0340E05D0350E03D0CD
:1015C000360E01D0370E0F014A6F4B6B1200C3D994
:1015D000300EF36EFE0EDBCFF4FFF350F45C0CE341
:1015E000FE0EDB50390808E3FE0EDB50D00F156A03
:1015F000F36E15C0F4FF02D0F368F468A8D1ABD93C
:1016000007DAFB0EDBCF16F0FC0EDBCF17F017501E
:101610001518E8AE02D0153404D01450165C1550DD
:10162000175802E2F36A02D0010EF36EF46A8FD10A
:1016300092D9E150FD0FE96EFF0EDA20EA6E020E3C
:10164000EE1804E1ED5002E1020E1BD073D9040E36
:10165000EE1801E1ED5012E06DD9060EEE1801E131
:10166000ED500CE067D9090EEE1801E1ED5006E0EF
:1016700061D90B0EEE1804E1ED5002E1F36A02D0DD
:10168000010EF36EF46A63D166D9040EE12685D9A2
:10169000DF6E030E82D9E76E010EE7CFDBFF050E8A
:1016A0007CD9E76E020EE7CFDBFF060E76D9E76E38
:1016B000030EE7CFDBFFFE0EDB5039E1DF06010E44
:1016C000DB06F36EDBCFF4FFE850F45C03E2DE529E
:1016D000070EDD6E010EDF5C6DE2020EDB0407E13A
:1016E0001F0EDF6E0C0EA0D9030EDB0663D091D85F
:1016F000F350F41004E1020EDB061F0E5AD008DA94
:101700000AE1155008E1020EDB50030804E0010E67
:101710008BD91E0E4ED0FCD94DE115504BE1030E76
:10172000DB50030B02E11D0E44D01C0E42D0DF2A19
:10173000010EDB2ADB50070803E2DE52010EDD6EEC
:10174000020EDB500C080AE1DF501F0807E2010E11
:101750006BD9010EDF6E030EDB2A2CD05AD8F35062
:10176000F41003E1DF501E0821E3D2D905E1155042
:1017700003E1DF501F081AE34CD8020EF31809E109
:10178000155007E1030EDB50030B03E1DF501D088A
:101790000DE33FD8020EF3180DE115500BE1030ED7
:1017A000DB50030B07E0DF501C0804E2020EDB2ACB
:1017B000010EDF6EDFCFE6FF040E6BD8010EDBCF2C
:1017C000E6FF030E66D8020EDBCFE6FF050E61D8FA
:1017D000030EDBCFE6FF060E5CD8146E040EE15C50
:1017E00002E2E16AE552E16E1450B1D0ABEC16F0C2
:1017F000E552E552E552E5521200E66E6CEC1DF042
:10180000E55200081200E66E89EC1CF0E552E55244
:101810001200020EDBCFE6FFE66A0ADF45EF0DF0AD
:1018200054D9F3CF52FFF4CF53FF0F01F31C120032
:1018300015C0E6FF16C0E6FF17C0E6FF12005B29E1
:10184000146E140E156E0E6E14C009F0B0EC22F07A
:1018500005C05BFF0F0105500F08120036D9F3CF0A
:1018600050FFF4CF51FF0F01F31C1200C8DEE55208
:10187000E5520BD9F350F4101200E66E010EE66E3D
:101880003EEF0DF064C1E6FF65C1E6FFD1DE45EF36
:101890000DF0E66E4BEC20F0E552E5521200D9D87F
:1018A000010E156A5D25146E5E51152214505F19E4
:1018B000120041CF43FF42CF44FF120006D9F3CFBD
:1018C00064FFFF0E0F01F35C120062C116F063C1EA
:1018D00017F0040E0D6E0E6A62C108F063C109F0C4
:1018E00034EC21F004C016F005C017F004500510C8
:1018F0001200E66E76EC1DF0E552000812000A0EAA
:10190000086E096A50CF0DF051CF0EF087EF21F02D
:101910000A0E086E096A52CF0DF053CF0EF087EF12
:1019200021F0E66A56EC20F0E5520F015D6F5E6B28
:1019300029EF0DF0D950FD0FE96EFF0EDA20EA6EA7
:101940001200E66E6CEC1DF0E55200091200E55243
:10195000E7CFD9FF1200D9CFE6FFE1CFD9FF1200C0
:101960008F0EE66E350EE66E12000F014C6F4D6B5A
:101970001200B0D80900F5CF14F00800F5CF15F02B
:1019800012000F017C6B0F017D6B0F017E6B12004B
:10199000910EE66E350EE66E1200E66E56EC20F005
:1019A000E5521200BFD0156A166A176A1200050EBA
:1019B000B9D08D0EE66E350EE66E1200726B736B4B
:1019C000746B756B01016A6B120055CF14F056CF22
:1019D00015F0166A176A120057CF14F058CF15F099
:1019E000166A176A120059CF14F05ACF15F0166A0A
:1019F000176A12006E0EE66E350EE66E0C0EE66E7F
:101A000012000F014A6F4B6B4C6B010E4D6F1200B1
:101A1000FD0EDBCF14F0FE0EDBCF15F012005FCF12
:101A20005DFF60CF5EFF1200F36E020EF3CFDBFFAF
:101A30001200E66EE66AE66AF6EF0BF06DD896EFF6
:101A40000DF0E66E85D068D88FEF0DF0040EFDEF37
:101A50000BF0E66A56EC20F0E5520F015F6F606B09
:101A6000120014C0E6FF18EF0CF0CDDE630EE66E38
:101A7000340EC9DE4A0EE66E340E12005DEC16F02E
:101A8000186E060EE15E18501200E552E552F3CFD3
:101A900014F0F4CF15F0120072CF14F084DF72CF7F
:101AA000E6FF18EF0CF073CF14F07DDF73CFE6FF85
:101AB00018EF0CF074CF14F076DF74CFE6FF18EF58
:101AC0000CF0E1EC04F08FEF0DF0DFCFE6FF7FDDEF
:101AD000E5521200060EF66E000EF76E120058DF89
:101AE000E66A36D0E6DE030E1DD0E3DE040E1AD021
:101AF000E0DE020E17D0DDDE070E14D0DADE0A0EAD
:101B000011D0BBDED9EF0CF0E66EE66A36EF0CF0D2
:101B100080DE010EF3181200E66EE66A19D0060E9A
:101B2000FDEF0BF00F01416F426B1200050EFDEF50
:101B30000BF07FDFD70EE66E350E12007ADFA40EB3
:101B4000E66E350E1200DDDF060E7BDF0A0E120098
:081B5000010EE66EF6EF0BF04A
:081B5800D9CFE6FFE1CFD9FF70
:101B6000020EE126DE6ADD6A6CD8D3EC14F0B4EC28
:101B700015F0C4D825EC13F0D30EE66E300EE66EE9
:101B8000060EE66EE66A95EC15F0E552E552E55272
:101B9000E552D00EE66E070EE66E0FD8E552E5521E
:101BA00001013351FDE0336BB4EC15F04AEC1DF04C
:101BB00040EC00F0DCEC15F0F3D7D9CFE6FFE1CF35
:101BC000D9FF040EE126DE6ADD6ADECF14F0DDCF38
:101BD00015F0FD0EDBCF16F0FE0EDBCF17F0155023
:101BE0001718E8AE02D0173404D01650145C175002
:101BF00015581DE2020EDB6A030EDB6A020EDBCF14
:101C000014F0030EDBCF15F0D890155004E6EE0E5D
:101C1000145C000E155806E2020EDB2A030EEEE3FA
:101C2000DB2AECD7DF2A010ED0E3DB2ACED7040E65
:101C3000E15C02E2E16AE552E16EE552E7CFD9FFED
:101C40001200936A956A4DEC14F084EC20F025ECB8
:101C500013F0570EE66E120EE66E6CEC1EF0E552B7
:101C6000E552AE0EE66E240EE66E82EC1EF0E552F4
:101C7000E552660EE66EB70EE66EB1EC1EF0E5526A
:101C8000E552020EE66EE66A0AEC1FF0E552E552F6
:101C90000A0EE66EE66A16EC1FF0E552E5520A0EF1
:101CA000E66EE66A2FEC1FF0E552E5521FEC1DF0E0
:101CB000C0EC1FF049EF1BF00101370E486F3B0EDF
:101CC000496F170E4A6F070E4B6F1F0E4C6F0C0EAD
:101CD0004D6F0D0E4E6F48C1E6FFE66A4BEC20F0EB
:101CE000E552E552DFEC13F0DAEC13F0E4EC13F01C
:101CF000E9EC13F0EEEC13F0F3EF13F0200E62ECCE
:101D000013F0220816E0D8DFE66A100EC7EC12F0D6
:101D1000E66A110EC7EC12F0E66A120EC7EC12F07A
:101D2000E66A130EC7EC12F0220EE66E200EC7EC28
:101D300012F01200100E62EC13F00101526F110E3E
:101D400062EC13F00101536F120E62EC13F001010B
:101D5000546F130E62EC13F00101586F1200E7ECA0
:101D600012F0146E0AEC13F0E66ED3EC12F0E66A91
:101D7000E66ADAEC12F04DC114F00AEC13F04DC132
:101D8000E6FFD3EC12F0030E98EC13F080EC13F0A6
:101D9000060E98EC13F04BC114F00AEC13F04BC193
:101DA000E6FFD3EC12F0090E98EC13F06BEC13F095
:101DB000E66A010EE66EDAEC12F072EC13F0030E36
:101DC0009CEC13F079EC13F0060E9CEF13F0E7ECAB
:101DD00012F04B51070A24E0010A1EE0030A18E042
:101DE000010A12E0070A0CE0010A06E0030A1EE1FC
:101DF000CF0EE66E300E17D0CB0EE66E300E13D03F
:101E0000C70EE66E300E0FD0C30EE66E300E0BD04E
:101E1000BF0EE66E300E07D0BB0EE66E300E03D05E
:101E2000B70EE66E300EE66EFBEC13F00A0E010103
:101E30004A5D09E21BEC13F0040E67EC13F06BEC47
:101E400013F0050E03D06BEC13F0040E98EC13F0B6
:101E500050EC13F0060E67EC13F00A0E0101495D19
:101E600008E2E9DB070E67EC13F072EC13F0080EE2
:101E700003D072EC13F0070E98EC13F050EC13F053
:101E8000090E67EC13F00A0E0101485D08E2D3DB8E
:101E90000A0E67EC13F079EC13F00B0E03D079EC1B
:101EA00013F00A0E98EC13F001015451010A06E0F8
:101EB000010A0BE1AF0EE66E300E03D0AB0EE66EFC
:101EC000300EE66E0D0E67EC13F00F01545107E073
:101ED000A70EE66E300EE66E0D0E67EC13F00101F4
:101EE0004D510C0A42E0070A3CE0010A36E0030AC1
:101EF00030E0010A2AE00F0A24E0010A1EE0030A8A
:101F000018E0010A12E0070A0CE0010A06E0030AE1
:101F100032E1A30EE66E300E2BD09F0EE66E300E31
:101F200027D09B0EE66E300E23D0970EE66E300E55
:101F30001FD0930EE66E300E1BD08F0EE66E300E65
:101F400017D08B0EE66E300E13D0870EE66E300E75
:101F50000FD0830EE66E300E0BD07F0EE66E300E85
:101F600007D07B0EE66E300E03D0770EE66E300E95
:101F7000E66E020EA4DB99DB050EA1DB0A0E010161
:101F80004C5D06E292DB060E9ADBBADB070E02D04E
:101F9000B7DB060ED1DB89DB080E91DB140EE66E93
:101FA000E66AE66AE66A090E31DB5EDB0A0E0101CB
:101FB0004E5D0AE2E66AE66AE66AE66A0B0E26DB30
:101FC00053DBE3DB0C0E02D0E0DB0B0E9CEF13F0D7
:101FD000640EE66E300EE66EFBEC13F027DBE66A6D
:101FE000010EE66ECDDA0A0E0101525D06E223DB38
:101FF000020E65DBD1DB030E02D0CEDB020E9CDBD2
:102000004FDB040E5CDB0A0E0101535D06E213DBBD
:10201000050E55DBC8DB060E02D0C5DB050E8CDBDA
:102020000FDB070E4CDB01015451010A06E0010AE7
:102030000AE1AF0EE66E300E03D0AB0EE66E300E48
:10204000E66E0A0E3CDBFCDA0D0E5FEF13F00101C9
:102050005051FF0A01E10DD1F40A01E1E7D0010A74
:1020600001E1C1D0030A01E19BD0010A01E175D071
:102070000F0A41E0010A0DE0060A01E0120052DBFE
:1020800001E10BD10101590501E007D1060E506FA6
:102090001200AEDB03E2CADA040E19DB46DB03E012
:1020A00001014A2952DB4BDB09E001014A054A6F75
:1020B000E850170802E2170E4A6F7CDB040E81DA43
:1020C00004E0030E01014A2540DB050E7ADA0AE03E
:1020D000030E01014A5D4A6FE850170802E2170E2D
:1020E0004A6F68DB1FDB03E00101070E506F2ADB3C
:1020F00001E1D3D0BBD07CDB03E298DA070EE7DA4C
:1021000014DB03E00101492928DB19DB09E00101A7
:102110004905496FE8503B0802E23B0E496F4FDB2F
:10212000040E4FDA04E0090E0101492516DB050E05
:1021300048DA0AE0090E0101495D496FE8503B08A1
:1021400002E23B0E496F3BDBEDDA03E00101080ED2
:10215000506FF8DA01E1A1D089D04ADB02E270DAEF
:102160004ADBE3DA09E001014B294B6FE85007082D
:1021700002E2010E4B6F28DBE2DA09E001014B05B8
:102180004B6FE850070802E2070E4B6F1DDBCADAFF
:1021900003E00101090E506FD5DA01E17ED066D06F
:1021A00027DB03E243DA060E8ADABFDA09E001012F
:1021B0004C294C6FE8501F0802E2010E4C6F09DBFE
:1021C000BEDA09E001014C054C6F010E4C5D02E2E4
:1021D0001F0E4C6FFEDAA6DA03E001010A0E506F03
:1021E000B1DA5BE043D004DB03E22ADA020E67DAFD
:1021F0009CDA09E001014D294D6FE8500C0802E21C
:10220000010E4D6FEBDA9BDA09E001014D054D6FD0
:10221000010E4D5D02E20C0E4D6FE0DA83DA03E051
:1022200001010B0E506F8EDA38E020D0E1DA03E2C4
:1022300041DA090E44DA79DA08E001014E294E6FDD
:10224000E850630801E24E6BCEDA79DA09E0010169
:102250004E054E6F630E4E5D02E2630E4E6FC3DAA3
:1022600061DA02E0FBD950696DDA17E0F7D9506BFB
:102270001200596BACDD010179D903E21BDA0C0EB7
:1022800026DA50DA05E0F7D90F01706F0F01546BB1
:102290004CDA02E154DA01E0EED9120001014F51AB
:1022A000FF0A01E1A7D0FC0A01E17FD0010A46E064
:1022B000030A0DE0010A01E0120034DA01E1A9D0BD
:1022C0000101590501E0A5D0010E4F6F12001FDA80
:1022D00003E2ACD9020EF3D928DA03E00101522956
:1022E00044DA040E6ED904E0030E010152253DDAF2
:1022F00026DA0CE001015205526FE850170802E29D
:10230000170E526F52C1E6FF100E41D9050E59D972
:102310000DE0030E0101525D526FE850170802E212
:10232000170E526F52C1E6FF100E31D9FBD903E0F0
:102330000101020E4F6F06DA6CE059D0E8D903E2D2
:1023400075D9050EBCD9F1D903E00101532915DA7D
:10235000040E37D904E0090E010153250EDAEFD936
:102360000CE001015305536FE8503B0802E23B0EBD
:10237000536F53C1E6FF110E0AD9050E22D90DE0A5
:10238000090E0101535D536FE8503B0802E23B0E1A
:10239000536F53C1E6FF110EFAD8C4D903E001010F
:1023A000030E4F6FCFD935E022D0B1D903E248D91F
:1023B0000A0E85D9BAD907E001015429010B546FDF
:1023C000E66E120EE4D8BBD90CE001015405546F3F
:1023D000E850010802E2010E546F54C1E6FF120EEC
:1023E000D6D8A0D902E001014F69ACD912E036D9A4
:1023F0004F6B12008CD903E25DD90A0E68D995D9CA
:1024000002E19DD901E03ED98DD903E03BD90F010E
:102410006F6F12000101010E081903E1095101E17A
:10242000010C000C01010A0E081903E1095101E138
:10243000010C000C0101010E101903E1115101E121
:10244000010C000C01010A0E101903E1115101E108
:10245000010C000C0101010E0A1901E10B5115E0FC
:102460000A0ED8800A55000E0B5510E20AC114F06E
:102470000BC115F0030E0D6E0E6A0AC108F00BC1F8
:1024800009F007D903E1155001E1010C000C01012D
:10249000010E121901E1135115E00A0ED8801255F0
:1024A000000E135510E212C114F013C115F0030E03
:1024B0000D6E0E6A12C108F013C109F0EAD803E1EB
:1024C000155001E1010C000C010152514A5D0AE175
:1024D0005351495D07E1485105E1540503E15905B0
:1024E00001E1010C000C01015151050A16E0010A3D
:1024F00005E0040A01E01200040E0DD0E5DF00093A
:1025000006E00101010E586FE66E130E40D801017E
:1025100058512BE0050E516F1200596B5A29146E59
:10252000140EFAD805C05AF10A0E0101055C02E248
:10253000B4EC15F00101562B000E5723900ED880F5
:102540005655010E575502E3F0D80FE00101010E78
:10255000596F586B58C1E6FF130E19D80101566B1D
:10256000576BB4EC15F00101516B12005529146E34
:10257000140ED2D805C055F1010105500F08120004
:10258000ABEC16F0E552E552E552E5521200E66E6C
:102590004BEC20F0E552E5521200E66E6CEC1DF0BB
:1025A000E5520009120015C0E6FF16C0E6FF17C08D
:1025B000E6FF12005DEC16F0186E060EE15E185094
:1025C0001200E66E76EC1DF0E55200091200E66A94
:1025D00056EC20F0E5520101486F010E73D801015D
:1025E000496F020E6FD801014A6F030E6BD80101CB
:1025F0004B6F040E67D801014C6F050E63D80101C3
:102600004D6F060E5FD801014E6F1200E66E010E8F
:10261000E66E1200156A166A176A1200146E180E1A
:102620008CEF13F0146E3C0E8CEF13F0610EE66E1F
:10263000300EE66E1200B50EE66E300EE66E12003B
:102640005D0EE66E300EE66E1200E80EE66E030ECC
:10265000E66EDDEC0DF0E552E5521200B4EC15F03B
:102660000101010E596F12005DEC16F0146E060E9A
:10267000E15E14501200B4EC15F00101506B010E34
:10268000596F1200B4EC15F001014F6B010E596F38
:1026900012007CEC22F005C015F0010E04181200A7
:1026A000B30EE66E300EE66E1200750EE66E300E5C
:1026B000E66E1200580EE66E300EE66E1200A6DFD1
:1026C000C0EF12F0E66E56EC20F0E5521200E66E16
:1026D000E66AC0EF12F04AC114F09CDF4AC1E6FF7F
:1026E000D3EF12F049C114F095DF49C1E6FFD3EFF3
:1026F00012F048C114F08EDF48C1E6FFD3EF12F0AC
:102700004CC114F087DF4CC1E6FFD3EF12F0596BD8
:102710005FDC0101B6EF12F0156E0E6E14C009F009
:10272000B0EF22F0060ECDEF12F0040ECDEF12F056
:10273000E66EE66ADAEF12F069DFDAEF12F0050E04
:10274000CDEF12F0060EE1EF12F068DF05C04AF19E
:1027500005C0E6FF020EC7EF12F064DF05C049F1C5
:1027600005C0E6FF010EC7EF12F058DF05C052F1B9
:1027700005C0E6FF100EC7EF12F054DF05C053F19D
:1027800005C0E6FF110EC7EF12F04EC114F042DF94
:102790004EC1E6FFD3EF12F052C114F03BDF52C13D
:1027A000E6FFD3EF12F053C114F034DF53C1E6FF5C
:1027B000D3EF12F04AC1E6FF020EC7EF12F049C193
:1027C000E6FF010EC7EF12F04BC1E6FF030EC7EFA5
:1027D00012F04CC1E6FF040EC7EF12F04DC1E6FF48
:1027E000050EC7EF12F04EC1E6FF060EC7EF12F05E
:0E27F000596BB6EF12F0E66AE66AC0EF12F01F
:0227FE0013ECDA
:1028000018F07BDB15AE02D01668176820DB13E2E8
:1028100089DB49DB04E6050E145C000E155806E260
:10282000020EDB2A030EF5E3DB2AF3D7DF2A010EC3
:10283000E8E3DB2AE6D7040EE15C02E2E16AE55256
:10284000E16EBBD2F0DB59DB15AE02D0166817681B
:10285000FEDA13E267DB27DB04E6EE0E145C000E03
:10286000155806E2020EDB2A030EF5E3DB2AF3D746
:10287000DF2A010EE8E3DB2AE6D7040EE15C02E280
:10288000E16AE552E16E99D2D4DBF00B6BDBFE0E10
:10289000DB38F00B811278DA90D2C2DB190E50DBF4
:1028A0000F0E8116F80E81160F0E8116300E5ADBB0
:1028B000300E58DB300E56DB818A66DA280EE66E63
:1028C000E3DFE5520C0EE66EDFDFE552E55275D22E
:1028D0009DDB010EDB6A81944ADBE76E010EE7CFD8
:1028E000DBFF819644DBDF6E010EDB50DF12819649
:1028F000010E51DADF50146E020EE15C02E2E16A71
:10290000E552E16E145059D28BDBDF6AE1DFDF6EF6
:10291000DFBEFCD7DF50E55250D28BDB81128186BF
:10292000050E39DA8196050E36DA47D241DA8194FE
:10293000050E31DA98DA41D23BDA8184050E2BDAC2
:1029400092DA81943AD23BD33AD332DAFD0EDBCF1E
:10295000F6FFFE0EDBCFF7FF0800F5500DE0FD0E91
:10296000DBCFF6FFDB2AFE0EDBCFF7FF01E3DB2A2E
:102970000800F5501BDBEAD720D252DBFD0EDB50FE
:102980000F0B146EFE0EDB50010B400DF3501424A0
:10299000DF6E7F0EDF14800FDF6EDFCFE6FFC6DF56
:1029A000E552E5520AD2010EE66EC0DFE552E66A54
:1029B000E66A1FEF18F0FCD9050EE126010EF36E52
:1029C000DB6EB0DA040EDB6ADF6ADFCF14F0156A63
:1029D00014BE156899DA15501718E8AE02D01734EE
:1029E00004D01650145C175015581FE2FD0EDBCFB3
:1029F00014F0FE0EDBCF15F0166A176A15AE02D082
:102A000016681768D950010FE96EDACFEAFF14C0D3
:102A10000BF015C00CF016C00DF017C00EF0DBDA8D
:102A200003EC22F0E1DADF2AD0D7010EDBCF14F07D
:102A3000020EDBCF15F0030EDBCF16F0040EDBCF5A
:102A400017F014C006F015C007F016C008F017C044
:102A500009F0050EE15C02E2E16AE552E16EADD1FA
:102A6000D5DAFB0EDBCF14F0FC0EDBCF15F0FD0E3C
:102A7000DBCF16F0FE0EDBCF17F01450151016103A
:102A8000171003E1300E92DA36D0D950FB0F14DA6A
:102A900001E618DA05E22D0E89DAD950FB0FCAD902
:102AA000DE52070EDD6E37DAE8AE02D0143403D002
:102AB000E750D88014541FE217DA18BE196871D98C
:102AC00036DA5EDA08DA0BE0010EDF6EDB041C6E2C
:102AD0001D6A1CBE1D6883D953DA9FD903D0DF500D
:102AE00002E0300E63DA00DA18BE19685AD9D950FC
:102AF000FB0F6CD9D8D7020EE15C02E2E16AE55225
:102B0000E16E5BD155D9C7D9D950F90F53DAEECF61
:102B1000E6FFEECFE6FFEECFE6FFEFCFE6FFA0DF6A
:102B2000E552E552E552E55248D142D9B4D9FB0EFF
:102B3000DBCFE6FFFC0EDBCFE6FF07DFE552E55219
:102B40003CD136D9FCC014F0FDC015F0040ED8906D
:102B500014361536E806FBE192D9FE0EDBCFEFFF07
:102B6000FE2B000EFF2329D15BDADF6ADFCF14F0E2
:102B7000100EE76E1418E8AE02D0E73402D0E7502A
:102B8000145C18E2DFCFE9FFEA6AE9BEEA68C10E29
:102B9000E926000EEA22200EEF6EDFCFE9FFEA6A97
:102BA000E9BEEA68D10EE926000EEA22200EEF6E99
:102BB000DF2ADCD7E55201D133DA0001C051030A24
:102BC00029E0010A1CE0030A0CE0010A32E13BDAC9
:102BD000080EDF5C03E2DF50B9D9FAD70001010E1D
:102BE00017D0080EE66EE66A09D9080EDF5C04E22B
:102BF000080EDF24ABD9F9D70001020E09D00BDA99
:102C0000080EDF5C03E2DF50A7D9FAD70001030EFC
:102C1000C06F10D0080EE66E010EE66EEFD8080EFB
:102C2000DF5C04E2080EDF2497D9F9D70001C06BFE
:102C300001D0C06BE552C1D0F3D90001C051010AE7
:102C40000DE0010A15E1FFD9100EDF5C03E2DF5051
:102C50007DD9FAD70001010EC06F0BD0DCD9100E60
:102C6000DF5C03E2DF5078D9FAD70001C06B01D0F6
:102C7000C06BE552A2D0D4D9E6D9100EDF5C03E2D6
:102C8000DF5064D9FAD7C7D9100EDF5C03E2DF50FA
:102C900063D9FAD7E55291D08BD8B3D8FCC014F0E1
:102CA000FDC015F0040ED89014361536E806FBE189
:102CB000E6D8FC0EDBCFEFFF80D0A8D9A2D8F90E62
:102CC000DBCF14F0FA0EDBCF15F01ED9145015101F
:102CD0001610171003E1300E0CD936D0D950F90F69
:102CE000EBD801E6EFD805E22D0E03D9D950F90F44
:102CF000A1D8DE52070EDD6E0ED9E8AE02D0143434
:102D000003D0E750D88014541FE2EED818BE1968DB
:102D100048D80DD940D9DFD80BE0010EDF6EDB04B7
:102D20001C6E1D6A1CBE1D685AD835D976D803D0D2
:102D3000DF5002E0300EDDD8D7D818BE196831D880
:102D4000D950F90F43D8D8D7020EE15C02E2E16A0C
:102D5000E552E16E32D02CD854D8FB0EDBCFF6FF13
:102D6000FC0EDBCFF7FF0800F5500DE0FB0EDBCFCC
:102D7000F6FFDB2AFC0EDBCFF7FF01E3DB2A0800BE
:102D8000F550B7D8EAD719D08186010ED9D88196E7
:102D9000010EA0EF17F0E66EE66AE66AE66A2FDD3E
:102DA00056D118C0E6FF19C0E6FF10D9FDEF17F0A5
:102DB000D9CFE6FFE1CFD9FF1200E552E7CFD9FF27
:102DC0001200EA22EF50F2D8DF2A1200F3D8AFD86F
:102DD00002D93BEC22F008D9010EDB0612001CC020
:102DE000E6FF1DC0E6FFF2D806C018F007C019F0D4
:102DF00008C01AF009C01BF097EF17F020D9DF6A5E
:102E00001200FE0EDB50010B0001FC6FFD6BFD0E8E
:102E1000DB500F0BFE6FFF6B1200DBCF09F03BECBA
:102E200022F0EBD8300E1426000E1522162217229F
:102E300014501200BFD8000EEE6CEF1EEE22EF1EF3
:102E4000EE22EF1EEF22ED52ED52ED521200D9505C
:102E5000FB0FB0D8EE50145CEE501558EE501658DB
:102E6000EE5017581200FE0EDBCFE6FF56DDE5529E
:102E7000FE0EDB38F00BE66E50DDE5521200C10E9F
:102E80001426000E152214500001FE25E96E15507F
:102E9000FF21EA6E1200FD0EDBCFE6FFFE0EDBCF58
:102EA000E6FF1FEF18F0020EDBCF14F0030EDBCFAE
:102EB00015F0D890155012007DD8D890030EEB5025
:102EC000000A1200000EEE5C000EEE58000EEE58E6
:102ED000000EEE581200DBCF09F03BEC22F006505A
:102EE0000710081009101200010EDB04186E196A91
:102EF0001200E66E26DEE5521200DECF14F0DDCFC2
:102F000015F0166A176A1200FB0EDBCF16F0FC0EE6
:102F1000DBCF17F01200010EDBCF14F0000EE76ECE
:102F200014181200020EDB6A030EDB6A120006C0E0
:102F30000BF007C00CF008C00DF009C00EF0120035
:102F4000E66EE66AE66AE66A7DDC81D0EA6AC10F6F
:102F5000E96E000EE1EF16F0EA6AD10FE96E000E9D
:102F6000E1EF16F0811210DF0F0E811612000F0E26
:102F700012DF0F0E811281860EDF0F0E81141200F8
:102F8000FB0EDBCF06F0FC0EDBCF07F0FD0EDBCF38
:102F900008F0FE0E1200F90EDBCF06F0FA0EDBCFC2
:102FA00007F0FB0EDBCF08F0FC0E1200E66ECCDC67
:102FB000E5521200E96EFF0EDA20EA6E1200F8DE2A
:102FC000FE0EDBCFE6FFB8DCE552F7D60A0EE66E62
:102FD000E66AF1DC3CD0EECF06F0EECF07F0EECFA4
:102FE00008F0EFCF09F0120005C0EDFF04C0EDFFBF
:102FF00003C0EDFF02C0EFFF120006C014F007C0CF
:1030000015F008C016F009C017F01200D1DE020E4C
:10301000E126DF6A1200E66A010EE66EFEEF16F0A8
:10302000C7DEE6521200C4DE040EE126DE6ADD6A67
:103030001200BEDE0F0E8116FE0EDB5012009DDC6C
:10304000E552E5521200E66AE66AFEEF16F0E55236
:08305000E552E552E5521200C1
:08305800202020200020202090
:10306000002020002020414C41524D202020424190
:10307000434B2020002000444543004E4F56004F54
:1030800043540053455000415547004A554C004AAF
:10309000554E004D415900415052004D415200469D
:1030A0004542004A414E004F4B20004F4E20004FFA
:1030B0004646003A003000534154004652490054FD
:1030C00048550057454400545545004D4F4E005358
:1030D000554E004449474954414C20434C4F434BC3
:1030E000003E4241434B00204241434B003E484199
:1030F0004E4F49202020205554432B303700204884
:10310000414E4F49202020205554432B3037003E5C
:103110004C4F4E444F4E2020205554432B3030000E
:10312000204C4F4E444F4E2020205554432B3030DE
:10313000003E4E4557594F524B20205554432D3099
:103140003500204E4557594F524B20205554432DA2
:103150003035003E504152495320202020555443E1
:103160002B3031002050415249532020202055540B
:10317000432B3031003E4245494A494E47202055B5
:1031800054432B30380020544F4B594F20202020DF
:103190005554432B303900204245494A494E472077
:1031A000205554432B3038003E544F4B594F20206C
:1031B00020205554432B3039002154494D45230DCF
:1031C0000A003E496E7465726E657400205669721D
:1031D0007475616C5465726D696E616C0021444157
:1031E00054453A59594D4D444464230D0A000D0A83
:1031F000546F2073796E6368726F6E697A652064AC
:103200006174652C207573696E672073796E7461C3
:103210007820617320666F6C6C6F773A0D0A0054EA
:1032200068652074696D65206E65656420746F2023
:1032300062652032342D6820666F726D61740D0AEC
:10324000002154494D453A48484D4D5353230D0AEA
:10325000000D0A546F2073796E6368726F6E697A1D
:10326000652074696D652C207573696E67207379AC
:103270006E74617820617320666F6C6C6F773A0DA5
:103280000A000D0A57656C636F6D6520746F2041ED
:103290006C61726D20436C6F636B20636F6E736F34
:1032A0006C65206D656D750D0A0020496E74657240
:1032B0006E6574003E5669727475616C5465726D0A
:1032C000696E616C00205573652055415254003E73
:1032D00055736520427574746F6E002055736520B8
:1032E000427574746F6E003E55736520554152549B
:1032F00000436F6E6669726D204572726F72210DA8
:103300000A0052656164206572726F7220210D0A95
:10331000000D0A4E65656420636F6E6669726D20EC
:1033200064617465206368616E676520210D0A0021
:103330000D0A436F6E66696775726174696F6E20FE
:10334000446174652053756363657373210D0A00CE
:103350000D0A44415445206D7573742062652069DF
:103360006E2072616E6765205B312C375D20210D08
:103370000A000D0A446179206D757374206265201E
:10338000696E2072616E6765205B312C32385D207A
:10339000210D0A000D0A446179206D757374206255
:1033A0006520696E2072616E6765205B312C323951
:1033B0005D20210D0A000D0A446179206D7573743A
:1033C00020626520696E2072616E6765205B312C1A
:1033D00033315D20210D0A00506C656173652065F5
:1033E0006E74657220616761696E210D0A000D0AB5
:1033F000446179206D75737420626520696E207256
:10340000616E6765205B312C33305D20210D0A0031
:103410000D0A20446179206D757374206265203E29
:103420002030210D0A000D0A4D6F6E7468206D75F5
:10343000737420626520696E2072616E6765205B1F
:10344000312C31325D20210D0A000D0A506C65616E
:10345000736520656E74657220616761696E2021F5
:103460000D0A000D0A43686172616374657220631E
:103470006F6E6669726D206973202723270D0A001D
:103480000D0A4E65656420636F6E6669726D207407
:10349000696D6520210D0A000D0A436F6E6669672C
:1034A00075726174696F6E2054696D652053756320
:1034B00063657373210D0A000D0A506C65617365B5
:1034C00020656E746572206E756D62657220210DC7
:1034D0000A000D0A5365636F6E64206D7573742066
:1034E000626520696E2072616E6765205B302C35E5
:1034F000395D20210D0A000D0A4D696E7574652035
:103500006D75737420626520696E2072616E6765E7
:10351000205B302C35395D20210D0A00706C65610F
:10352000736520656E74657220616761696E210D37
:103530000A000D0A486F7572206D757374206265FC
:1035400020696E2072616E6765205B302C32335DBE
:1035500020210D0A000D0A506C6561736520656EAF
:10356000746572206E756D626572210D0A002020EF
:1035700020200052554E0053544F500054494D45A1
:103580005220434C4F434B204241434B003A0030C2
:103590000020200020202053544F502057415443F6
:1035A000482020003E4261636B0048554D493A2057
:1035B0002020250054454D503A2020202A43005217
:1035C00065636576696E6720646174612E2E0021E3
:1035D000444854230D0A00204261636B003E576546
:1035E0006174686572002057656174686572003E99
:1035F000576F726C642054696D65005541525420B8
:10360000746F206D6F6469667900506C65617365D5
:1036100020636F6E6E6563740020576F726C642058
:1036200054696D65003E54696D65204D6F6469662F
:1036300079002054696D65204D6F64696679003E9C
:1036400054696D657220436C6F636B002054696D23
:10365000657220436C6F636B003E436F756E7465DB
:103660007220436C6F636B0020416C61726D20436C
:103670006C6F636B0020436F756E74657220436CD2
:103680006F636B003E416C61726D20436C6F636BC6
:013690000039
:0E369200B06A810EAF6EAC8AAC94B886AC986C
:1036A000AB8EAB889E9A9D8A9F8A949C948E1200C2
:1036B00069D9040EE126DE6ADD6ADECF14F0DDCFC3
:1036C00015F097D915501718E8AE02D0173404D06A
:1036D0001650145C175015581DE2020EDB6A030EDB
:1036E000DB6A020EDBCF14F0030EDBCF15F0D890AF
:1036F000155004E6EE0E145C000E155806E2020E9C
:10370000DB2A030EEEE3DB2AECD7DF2A010ED5E33A
:10371000DB2AD3D7040EE15C02E2E16AE552E16EF6
:1037200036D130D99EA8FED7FE0EDB50AD6E9E98E6
:103730002ED128D956D908E054D934D9FD0EDB2A28
:10374000FE0EF8E3DB2AF6D722D11CD9050EE126BE
:10375000010EF36EDB6E020EDB6A030EDB6A040EF3
:10376000DB6ADF6ADFCF14F0156A14BE1568FB0E42
:10377000DBCF16F0FC0EDBCF17F015501718E8AEB4
:1037800002D0173404D01650145C175015581FE29D
:10379000FD0EDBCF14F0FE0EDBCF15F0166A176AB4
:1037A00015AE02D016681768D950010FE96EDACF4E
:1037B000EAFF14C00BF015C00CF016C00DF017C0D6
:1037C0000EF0F4D803EC22F0FAD8DF2ACBD7010EA2
:1037D000DBCF14F0020EDBCF15F0030EDBCF16F0BB
:1037E000040EDBCF17F014C006F015C007F016C0AA
:1037F00008F017C009F0050EE15C02E2E16AE5524B
:10380000E16EC5D0BFD8020EE126DF6AFB0EDBCF2A
:1038100014F0FC0EDBCF15F0ECD814501510161078
:10382000171003E1300EBED86DD0B5D8D890030E76
:10383000EB50000A08E6000EEE5C000EEE58000E9B
:10384000EE58000EEE580EE22D0EACD8A4D8000EA5
:10385000EE6CEF1EEE22EF1EEE22EF1EEF22ED5277
:10386000ED52ED52DE520A0EDD6E010EDBCF14F08A
:10387000000EE76E1418E8AE02D0143403D0E750FF
:10388000D88014543FE2010EDB04186E196A18BE8A
:10389000196871D861D806500710081009101EE089
:1038A000010EDF6EDB041C6E1D6A1CBE1D681CC091
:1038B000E6FF1DC0E6FFA4D806C018F007C019F047
:1038C00008C01AF009C01BF047D8A3D8300E142640
:1038D000000E152216221722145003D0DF5002E0EA
:1038E000300E60D8010EDB04186E196A18BE196814
:1038F00042D851D897D85AD83BEC22F060D8010E64
:10390000DB06B3D7020EE15C02E2E16AE552E16E4A
:103910003ED038D85DD80CE05BD844D8FD0EDBCF64
:10392000F6FFDB2AFE0EDBCFF7FFF4E3DB2AF2D74C
:103930002ED028D8E652AE50DF6E0F017C51EA6AD5
:10394000010FE96E0F0EEA22DFCFEFFF7C293F0B5C
:103950007C6F7E2BE5521BD065D8FB0EDBCF06F0CB
:10396000FC0EDBCF07F0FD0EDBCF08F0FE0EDBCF49
:1039700009F03BEF22F018C0E6FF19C0E6FF40D87F
:1039800009EF1DF0D9CFE6FFE1CFD9FF1200E552D4
:10399000E7CFD9FF1200D950FB0FE96EFF0EDA20F6
:1039A000EA6E1200E66EBDDEE5521200EECF06F0C2
:1039B000EECF07F0EECF08F0EFCF09F0120005C010
:1039C000EDFF04C0EDFF03C0EDFF02C0EFFF1200EA
:1039D000FD0EDBCFF6FFFE0EDBCFF7FF0800F55044
:1039E0001200FD0EDBCFE9FFFE0EDBCFEAFFEF504A
:1039F0001200FD0EDBCF16F0FE0EDBCF17F012002B
:103A00000A0EE66EE66AA1DEE552E552E552E5529F
:103A1000120006C014F007C015F008C016F009C067
:103A200017F0120006C00BF007C00CF008C00DF034
:063A300009C00EF01200B7
:0A3A36000F0E946E82681200070E56
:103A40009410946EDF0E9414946E82681200D3D892
:103A500007D901E600D917E2EBD8826EF7D8D4D89F
:103A600001E6F9D80BE2BAD802E1FED801D022D99A
:103A7000020EDB2A030EF3E3DB2AF1D7DF2A010E65
:103A8000E7E3DB2AE5D7040EE15C02E2E16AE552F6
:103A9000E16ED8D0B0D8DAD8010EDE6EDD6AC8D8B3
:103AA0008214826ED3D8B0D804E6030E145C000EE4
:103AB00015580BE293D802E1D7D801D0FBD8020EFB
:103AC000DB2A030EF0E3DB2AEED7040EE15C02E210
:103AD000E16AE552E16EB6D0E7D8010EEE1804E1D6
:103AE000ED5002E1010E01D0000EACD0DDD8320E57
:103AF000EE1807E1ED5005E190D8EE6AED6A010E8F
:103B000001D0000E9FD077D8D9D8FD0EDBCF16F0AC
:103B1000FE0EDBCF17F015501718E8AE02D01734A1
:103B200004D01650145C1750155813E28FD86CD877
:103B300004E6EE0E145C000E155806E2020EDB2AB7
:103B4000030EF5E3DB2AF3D7DF2A010EDDE3DB2AE0
:103B5000DBD7040EE15C02E2E16AE552E16E72D06D
:103B60004AD87ED801E677D822E262D8826E6ED833
:103B70004BD801E670D80DE29DD830D804E11ED8AC
:103B8000010EEE6EED6A020EDB2A030EF1E3DB2A74
:103B9000EFD78250816EE80EE66E030EE66EB3DF5D
:103BA000E552E552DF2A010EDCE3DB2ADAD7040E08
:103BB000E15C02E2E16AE552E16E44D07FD8D89040
:103BC00014361536D89014361536020EDB501424F0
:103BD000E96E030EDB50152063EF1EF0020EDBCF03
:103BE000E9FF030EDBCFEAFF240EE926010EEA22ED
:103BF000EF5082141200D9CFE6FFE1CFD9FF040EB7
:103C0000E126DE6ADD6A1200020EDBCF14F0030E3D
:103C1000DBCF15F0D89015501200FE0EEA6ADB34A7
:103C2000FE0BEA36E96E000EE926010EEA221200CA
:103C3000DECFE9FFDDCFEAFF200EE926010EEA2202
:103C4000EF1C1200E552E7CFD9FF1200020EDB6A2B
:103C5000030EDB6A1200040E145C000E15581200ED
:103C60002DD8D89015501200DECF18F0DDCF19F006
:103C7000D89018361936D89018361936020EDB50FF
:103C80001824E96E030EDB5019201DD8EECF16F074
:103C9000EFCF17F0010E1626000E17228FDF16C089
:103CA000EEFF17C0EDFF1200D9CFE6FFE1CFD9FF3D
:103CB0000DEF1EF083DFEE6AED6A1200DECF14F026
:103CC000DDCF15F01200EA6ED890E936EA36000E24
:083CD000E926010EEA221200B0
:083CD800F1D8D59EFD0EDBCFF3
:103CE00028F1FE0EDBCF29F1D59C05D9D59AD586D2
:103CF000F28AF294F184D58EE6D0D59E1200FBD8DC
:103D0000D58E1200DBD8CD90FD0EDBCF2AF1FE0E52
:103D1000DBCF2BF1F7D89D809E909F90CD8ECD8CE0
:103D2000CD98CD9ACD96CD92CD80CDD0EBD8CD800B
:103D30001200CD901200C2D8CA94CC6AFE0EDB509D
:103D400001012C6F2D6BCB6E9D829E929F92CA902B
:103D5000CA92CA84B8D02CC1CBFFCA841200CA94BC
:103D60001200ACD8B190FD0EDBCF2EF1FE0EDBCFF2
:103D70002FF1CFD80750B36ECCD8B5D8B26EA08291
:103D8000A192A292B18EB198B19AB192B1809BD01A
:103D9000C0D80350B26EBDD89ED8B36EB1801200A9
:103DA000B19012000101382B000E39234051385DCB
:103DB0004151395904E3386B396B010E306F1200F1
:103DC00001013A2B000E3B2342513A5D43513B59CE
:103DD00004E33A6B3B6B010E316F120001013C2B87
:103DE000000E3D2344513C5D45513D5904E33C6B7D
:103DF0003D6B010E326F120001013E2B000E3F237E
:103E000046513E5D47513F5904E33E6B3F6B010E07
:103E1000336F120053D8FD0EDBCF40F1FE0EDBCF27
:103E200041F10101386B396B306B4DD047D8FD0E35
:103E3000DBCF42F1FE0EDBCF43F1050E0D6E0E6AB5
:103E400042C108F043C109F034EC21F008C042F14E
:103E500009C043F101013A6B3B6B316B34D02ED872
:103E6000FD0EDBCF46F1FE0EDBCF47F10A0E0D6EE5
:103E70000E6A46C108F047C109F034EC21F008C0D1
:103E800046F109C047F101013E6B3F6B336B1BD01C
:103E90001C6A1A50175C146E1B501858156E1C5073
:103EA0001958166E0C6A010E0D6E0E6A14C007F0DA
:103EB00015C008F016C009F05AEF21F0D9CFE6FF7F
:103EC000E1CFD9FF1200E552E7CFD9FF1200176802
:103ED0001868196A120007C014F008C015F009C06C
:103EE00016F00750120003C014F004C015F005C00E
:103EF00016F00350120014D80350D66E11D8EBDF21
:103F0000D76E120014D80750CF6E11D8ECDFCE6EEA
:103F10001200DDDF2EC11AF02FC11BF048EF1FF099
:103F2000D6DF28C11AF029C11BF048EF1FF0CFDF00
:0C3F30002AC11AF02BC11BF048EF1FF053
:043F3C00BED8020EDB
:103F4000E126FE0EDB500F0BDF6EFE0EDB380F0B93
:103F50000A0DBCD802E2E16AE552E16E1450B2D01B
:103F6000ACD8020EE126BBD80550DF6EB8D8095098
:103F7000100DACD802E2E16AE552E16E1450A2D015
:103F800094869488C79EC79CC690C692C694C686DF
:103F9000310EC86EC68A120090D89E96FE0EDB5077
:103FA000D00FC96E9EA6FED78DD09E96C5809EA6C8
:103FB000FED712009E96C5849EA6FED712007DD81D
:103FC0009E96FE0EDB50C96E9EA6FED77BD09E96B7
:103FD000C5869EA6FED7C95012009E96C59AC58872
:103FE0009EA6FED712009E96C58AC5889EA6FED7BD
:103FF000120063D87CD8010E7F6FE85004E0C550F2
:10400000400BFAE0F8D779D8010E7F6FE85004E052
:10401000C550400BFAE0F8D7FD0EDBCFE6FFA0DF7E
:10402000E552E66ECCDFE5520F01010E7F6FE850DE
:1040300004E0C550400BFAE0F8D7BCDF43D03DD8D0
:10404000E65255D8010E7F6FE85004E0C550400B92
:10405000FAE0F8D752D8010E7F6FE85004E0C5505F
:10406000400BFAE0F8D7A1DF010EE66E95DFE552CE
:104070000F01010E7F6FE85004E0C550400BFAE0DD
:10408000F8D7A5DFDF6EDFCFE6FF58DFE552DF6E42
:10409000DF50E55217D011D8FD0EDBCFE6FFFE0E44
:1040A000DBCFE6FFA6DFE552E5520CD006D8FE0EC8
:1040B000DBCFE6FFC4DFE55205D0D9CFE6FFE1CF85
:1040C000D9FF1200E552E7CFD9FF1200010EF3CF5E
:1040D000DBFFDB50DF24146E020EE15C12000A0EDF
:1040E000146E0E6EFE0EDBCF09F0B0EF22F05DDF36
:1040F000E66A52DFE5520F011200FE0EDBCFE6FF4B
:084100005EDFE5520F01120021
:08410800F28ED08EF28C120041
:10411000F19CF292F2881200D8CFE4FFE0CFE4FFE6
:10412000E46E65D800EE00F0140EE80403E3EECF71
:10413000E4FFFBD700EE14F00A0EE80403E3EECF31
:10414000E4FFFBD7E652F2B47AD89EB07FD8A1B292
:1041500084D8F2B2F2929EBA9E9AE55200EE1DF019
:104160000A0EE80403E3E5CFEDFFFBD700EE13F002
:10417000140EE80403E3E5CFEDFFFBD74DD8E5507F
:10418000E5CFE0FFE5CFD8FF100031D800EE00F01A
:10419000140EE80403E3EECFE4FFFBD700EE14F0C7
:1041A0000A0EE80403E3EECFE4FFFBD7E652F2B4D5
:1041B00046D89EB04BD8A1B250D8F2B2F2929EAA85
:1041C00003D099EC1CF09E9AE55200EE1DF00A0E09
:1041D000E80403E3E5CFEDFFFBD700EE13F0140E88
:1041E000E80403E3E5CFEDFFFBD716D81100DACFE3
:1041F000E4FFE2CFDAFFE9CFE4FFEACFE4FFF6CF56
:10420000E4FFF7CFE4FFF5CFE4FFF3CFE4FFF4CF13
:10421000E4FFFACFE4FF1200E5CFFAFFE5CFF4FFA9
:10422000E5CFF3FFE5CFF5FFE5CFF7FFE5CFF6FFED
:10423000E5CFEAFFE5CFE9FFE5CFDAFF12007DEC3D
:104240001EF0F2947FEC1EF0D2EF1EF099EC1EF0FF
:104250009E9096EC1EF0E0EF1EF0D0EC1EF0A192C6
:08426000C8EC1EF0FCEF1EF09B
:08426800006A0EAE3DEF21F0EB
:104270000D6C0E1EE86A0E22001E09AE45EF21F0FD
:10428000086C091EE86A0922001E7CEC22F009BEB7
:1042900055EF21F000AE000C086C091EE86A0922F7
:1042A000046C051EE86A0522000C00BE4CEF21F0EC
:1042B0000188FF0C006A0EAE65EF21F00C6C0D1E3C
:1042C0000E1EE86A0D220E22001E09AE6FEF21F0CD
:1042D000076C081E091EE86A08220922001E5FEC0E
:1042E00022F009BE82EF21F000AE000C076C081E20
:1042F000091EE86A08220922036C041E051E042216
:104300000522000C00BE76EF21F00188FF0C09C0E9
:1043100013F008C012F008500D02F4CF07F0F3CFED
:1043200006F009500E02F4CF09F0F3CF08F00D02A9
:10433000F3500726F4500822E86A092212500E02B0
:10434000F3500726F4500822E86A09220EAEADEFBA
:1043500021F01250085E1350095A13AE000C0D5094
:08436000085E0E50095A000C22
:084368001E0EF66E000EF76E4A
:10437000000EF86E01010900F550706F0900F5504C
:10438000716F03E1706701D03DD00900F5506B6F8C
:104390000900F5506C6F0900F5506D6F09000900B8
:1043A000F550E96E0900F550EA6E090009000900B0
:1043B000F5506E6F0900F5506F6F09000900F6CFD8
:1043C00072F1F7CF73F1F8CF74F16BC1F6FF6CC1E6
:1043D000F7FF6DC1F8FF01016E5302E16F5307E073
:1043E0000900F550EE6E6E07F8E26F07F9D772C15B
:1043F000F6FF73C1F7FF74C1F8FF01017007000EEB
:06440000715BBFD7120042
:0A44060006500B02F3CF02F0F4CFD2
:1044100003F00C02F3500326000EF420046E065045
:104420000D02F3500426000EF420056E06500E0215
:10443000F350052607500B02F3500326F4500422D4
:10444000000E052207500C02F3500426F4500522FA
:1044500007500D02F350052608500B02F3500426B6
:10446000F450052208500C02F350052609500B02A7
:06447000F35005261200C6
:0A447600056A046A036A026A200E58
:10448000E76ED89006360736083609360236033608
:10449000043605360B50025C0C5003580D5004587E
:1044A0000E50055809E30B50025E0C50035A0D5094
:0E44B000045A0E50055A062AE72EE4D71200D1
:0244BE00056A8D
:1044C000046A036A180EE76ED89007360836093674
:1044D0000336043605360C50035C0D5004580E505C
:1044E000055807E30C50035E0D50045A0E50055A50
:0844F000072AE72EEAD71200AB
:0844F800056A046A100EE76E6C
:10450000D89008360936043605360D50045C0E5036
:10451000055805E30D50045E0E50055A082AE72E93
:04452000F0D71200BE
:0C452400800EF36E00EE00F00F0E01D8C8
:104530001200EA6002D0EE6AFCD7F350E960120084
:04454000EE6AFCD74C
:0C4544001EEE00F02EEE00F0F86A019C64
:10455000B4EC21F007EC00F0ACEC0DF0FBD712004E
:10456000056A080EE76ED890093605360E50055CD0
:0C45700002E3056E092AE72EF7D71200BF
:04457C00000000003B
:10458000000000000000000000000000000000002B
:0C4590000000000001000100010001001B
:04459C00010000001A
:1045A0000000000000320032000700FFFFFFFF00A4
:1045B00000000000000000000000000001000000FA
:1045C00000000000000001000100000000000000E9
:0345D000000100E7
:0D45D30000000000000000000000000000DB
:0645E000000000000100D4
:0A45E60000000000000000001010AB
:1045F00010101010101018181818181818181C1C63
:104600001C1C1C1C1C1C1E1E1E1E1E1E1E1E1F1FD4
:104610001F1F1F1F1F1F00000000000000000000E0
:10462000000000000000000000000000000000008A
:10463000000000000000000000000000000000007A
:074640000000000000000073
:09464700000000D000222222072D
:10465000250910000100000000000000000000001B
:02466000000058
:0E46620000000000000000000000000000004A
:10467000000000000000000000000000000000003A
:0A4680000000102040800102040831
:020000040030CA
:0100010002FC
:0100020003FA
:010003001EDE
:010005008179
:010006008178
:010008000FE8
:01000900C036
:01000A000FE6
:01000B00E014
:01000C000FE4
:01000D0040B2
:00000001FF
