:020000040000FA
:06000000EFEF1CF01200FE
:020006001200E6
:0600080012EF1BF01200D4
:02000E000000F0
:0100100000EF
:0400110000000000EB
:06001800D9EF1AF01200FE
:02001E000800D8
:10002000E53A0000410F000028000000CA3A000035
:10003000E10000001B000000110000007C0F000028
:1000400004000000693A0000800000006100000028
:10005000563A0000690F000013000000363A000015
:100060002001000020000000163A000000010000FE
:10007000200000000E0000005A01000003000000F4
:100080000101205102E1010E211901E158D1DF0ED9
:10009000201902E1040E211901E14FD1070E2019A8
:1000A00001E1215101E119D1080E201901E121518D
:1000B00001E104D1060E201901E1215101E1FCD03A
:1000C000050E201901E1215101E1CCD0040E2019C7
:1000D00001E1215101E1A2D01E0E201901E12151BF
:1000E00001E173D0030E201901E1215146E0140E05
:1000F000201901E1215136E0020E201901E12151C0
:1001000014E0010E201901E1215101E0120073EC0D
:100110000AF09EEC0DF0F1EC08F001E32FD1D6ECE3
:1001200008F0010E226F236B1200290EE66E2B0ED3
:10013000E1EC08F01A0EE66E2B0EE6EC08F002E297
:1001400026EC09F0F1EC08F004E2140E0101206F36
:10015000216BEEEC08F001E311D10101206B010EDF
:10016000216F120055EC0BF091EC0CF001013851AD
:1001700001E104D1386B020EFED0020E22190BE110
:10018000235109E10D0EE66E2B0EE1EC08F0FE0E98
:10019000E66E2A0E08D0FE0EE66E2A0EE1EC08F09E
:1001A000F10EE66E2A0EE6EC08F002E229EC09F008
:1001B000EEEC08F004E26EEC08F0D6EC08F0F1EC9E
:1001C00008F001E3DBD01E0ED5D0ECD80101395187
:1001D00001E0D5D8040EB6EC08F003E00101010EF1
:1001E000396F050EB6EC08F002E00101396B050E1F
:1001F000E66EC8EC17F0E552000903E00101C1EC1E
:1002000008F0060EB6EC08F001E1B8D00101396B38
:10021000C1EC08F00101386B030EADD0030E2219BA
:100220000BE1235109E11A0EE66E2B0EE1EC08F00A
:10023000E40EE66E2A0E08D0E40EE66E2A0EE1EC1D
:1002400008F0D70EE66E2A0EE6EC08F004E26EEC3B
:1002500008F0D8EC08F0EEEC08F002E226EC09F029
:10026000F1EF08F0040E22190BE1235109E1F10E20
:10027000E66E2A0EE1EC08F0CA0EE66E2A0E08D0F1
:10028000CA0EE66E2A0EE1EC08F0BE0EE66E2A0EED
:10029000E6EC08F004E26EEC08F0DAEC08F0EEECC4
:1002A00008F002E229EC09F0F1EC08F067E2010144
:1002B000246B256B060E5FD0EFEF04F0AD0EE66EFB
:1002C0002A0EE1EC08F09E0EE66E2A0E35EC09F0DF
:1002D000D9D8F1EC08F052E24CD0050E22190BE10E
:1002E000235109E1D70EE66E2A0EE1EC08F0920EDA
:1002F000E66E2A0E08D0920EE66E2A0EE1EC08F0A9
:100300008C0EE66E2A0EE6EC08F006E26EEC08F0C3
:100310000101206B010E216FEEEC08F004E26EEC9F
:1003200008F0D8EC08F0F1EC08F028E20101DF0E4B
:10033000206F040E216FDBEF06F06FEF05F0BE0EAD
:10034000E66E2A0EE1EC08F0FBEC08F0EEEC08F0AB
:1003500004E26EEC08F0DAEC08F03FEC09F004E29D
:100360006EEC08F0D6EC08F0F1EC08F007E26EEC69
:1003700008F0010E0101206F216B12001200050E22
:1003800001013D27640E3D5D02E33D6B3C2B3C0EBD
:100390003C5D02E33C6B3B2B3C0E3B5D02E33B6B65
:1003A0003A2B1200760EE66E2A0EE1EC08F0730E80
:1003B000E66E2A0E35EC09F00A0E01013A5D09E2FB
:1003C000BCEC08F0020EE9EC08F00AEC09F0030EB0
:1003D00003D00AEC09F0020E68EC08F0040EE9EC18
:1003E00008F00A0E01013B5D09E2BCEC08F0050EC5
:1003F000E9EC08F011EC09F0060E03D011EC09F05D
:10040000050E68EC08F0070EE9EC08F00A0E010191
:100410003C5D09E2BCEC08F0080EE9EC08F018ECD1
:1004200009F0090E03D018EC09F0080E68EC08F08A
:100430000A0EE9EC08F00A0E01013D5D09E2BCEC90
:1004400008F00B0EE9EC08F01FEC09F00C0E03D0DD
:100450001FEC09F00B0E00EF09F0A4EC08F0E652D7
:1004600001015B51EA6A010FE96E0F0EEA22EFCF3C
:10047000DFFF5B293F0B5B6FDF50E552A0EF08F019
:10048000C8EF08F0010E01013E1901E13F5101E002
:10049000120001015C51000804E204D801015C076C
:1004A00012001200A4EC08F0E652D7DFDF6EDFCFB7
:1004B000E6FFE3EC15F0E552630E0101341901E1AA
:1004C000355101E1EAD0690E341901E1355101E1FC
:1004D000C0D0680E341901E1355101E1ABD0670E8F
:1004E000341901E1355101E190D0660E341901E172
:1004F000355101E17FD0650E341901E1355165E0D8
:10050000640E341901E1355155E00E0E341901E144
:10051000355144E00C0E341901E1355136E00B0E33
:10052000341901E1355128E00A0E341901E1355141
:100530001AE0020E341901E135510CE0010E3419B4
:1005400001E0C7D0355101E0C4D0210EDF5C01E0ED
:10055000C0D02CD0540EDF5C02E10A0E9BD0210EDD
:10056000DF5C26E123D0490EDF5C02E10B0E92D066
:10057000210EDF5C1DE11AD04D0EDF5C02E10C0E96
:1005800089D0210EDF5C14E111D0450EDF5C02E161
:100590000E0E80D0210EDF5C0BE108D03A0EDF5C3E
:1005A00002E1640E77D0210EDF5C02E1020E72D010
:1005B000010E70D03CEC08F001E1311D46E087EC03
:1005C00008F006C042F1650E64D03CEC08F001E191
:1005D000311D3BE0305101014227170EE66EE66AFD
:1005E00042512CEC09F002E0660E53D0330EE66E59
:1005F0002A0E43D03CEC08F001E1311D26E087ECE7
:1006000008F006C043F1670E44D03CEC08F001E16D
:10061000311D1BE03051010143273B0EE66EE66AB7
:1006200043512CEC09F002E0680E33D0F80EE66E70
:10063000290E23D03CEC08F001E1311D06E087ECE7
:1006400008F006C044F1690E24D0560EE66E2A0E5C
:100650001DD03CEC08F001E1311D15E030510101E5
:1006600044273B0EE66EE66A44512CEC09F002E0AA
:10067000630E0FD0D30EE66E290E4EEC08F01D0E61
:10068000E66E2A0E03D0B90EE66E290E4EEC08F087
:10069000010E0101346F356B1CD0230EDF5C19E1B4
:1006A000010E346F356B42C1E6FF020E5BEC08F0C1
:1006B00043C1E6FF010E5BEC08F044C1E6FFE66AC9
:1006C00046EC1AF0E552E552990EE66E290E4EEC14
:1006D00008F0630E0101361901E1375101E163D1E0
:1006E000740E361901E1375101E135D1760E361914
:1006F00001E1375101E1D0D0750E361901E13751D2
:1007000001E1BDD0730E361901E1375101E191D0FD
:10071000720E361901E1375101E17AD06F0E3619A8
:1007200001E1375167E06E0E361901E1375155E0AE
:100730006D0E361901E1375144E06C0E361901E1B6
:10074000375136E06B0E361901E1375128E06A0E59
:10075000361901E137511AE0020E361901E137511D
:100760000CE0010E361901E038D1375101E035D1E6
:10077000210EDF5C01E031D12CD0440EDF5C02E1C0
:100780006A0E0ED1210EDF5C26E123D0410EDF5C24
:1007900002E16B0E05D1210EDF5C1DE11AD0540E73
:1007A000DF5C02E16C0EFCD0210EDF5C14E111D0A5
:1007B000450EDF5C02E16D0EF3D0210EDF5C0BE134
:1007C00008D03A0EDF5C02E16E0EEAD0210EDF5C4B
:1007D00002E1020EE5D0010EE3D031EC08F001E1B8
:1007E000331D23E090EC08F006C047F107C048F144
:1007F0006F0ED5D031EC08F001E1331D16E0325117
:10080000010147270101335101014823720EC7D06E
:1008100031EC08F001E1331D08E090EC08F006C06F
:1008200049F107C04AF1730EBAD0560EE66E2A0E91
:10083000B4D031EC08F001E1331D01E1ABD032510D
:10084000010149270101335101014A230C0EE66ED3
:10085000E66A49C1E6FF4AC1E6FF47EC08F006E058
:10086000010149514A1102E0750E99D0750EE66EEC
:10087000290E4EEC08F01D0EE66E2A0E8ED0F1DB2E
:1008800001E1331D01E186D090EC08F006C04BF188
:1008900007C04CF1760E83D0E4DB01E1331D01E1AA
:1008A00079D0325101014B270101335101014C2311
:1008B0004B514C1104E15F0EE66E290E8DD0F4DB36
:1008C000F350F4100CE101014C3509E24B511E08C4
:1008D000000E4C5504E23D0EE66E290E56D0E4DBC8
:1008E000010EF3180EE115500CE101014C3509E23F
:1008F0004B511F08000E4C5504E2050EE66E290E02
:1009000044D0D2DB020EF31810E115500EE1EBDB00
:100910000CE101014C3509E24B511D08000E4C550C
:1009200004E2E30EE66E280E30D0BEDB020EF318B2
:1009300010E115500EE1D7DB0CE001014C3509E266
:100940004B511C08000E4C5504E2C10EE66E280EF9
:100950001CD0740E24D085DB01E1331D1BE032C1B5
:100960004DF133C14EF1070EE66EE66A32C1E6FF85
:1009700033C1E6FF8CDB06E001014D514E1102E070
:10098000630E0DD09F0EE66E280E88DB270EE66EF6
:10099000290E03D0B90EE66E290E80DB010E01018F
:1009A000366F376B1AD0230EDF5C17E1010E366FFE
:1009B000376B47C1E6FF060E7EDB49C1E6FF050E39
:1009C0007ADB4BC1E6FF040E76DB4DC1E6FF030E7A
:1009D00072DB7F0EE66E280E61DBE552B1D30101BA
:1009E000245102E1010E251963E0010E241901E1F1
:1009F00025513DE0245101E1255101E01200750E21
:100A0000E66E280EDEDB690EE66E280E35EC09F088
:100A1000E8DB1DE2410EE66E280E40DB100EE66EAE
:100A2000280E3CDB000EE66E280E38DBDE0EE66E8E
:100A3000270E34DBAD0EE66E270E30DB9C0EE66E25
:100A4000270E2CDBA5DB080E0101206F216B3FEC8C
:100A500009F006E2010E0101246F256B266B276B5E
:100A6000BDDB3CE20101246B010E256F1200265113
:100A7000271108E0900EE66E270EA3DB8C0EE66EC3
:100A80002A0E07D0860EE66E270E9BDB900EE66ED2
:100A9000270E9CDB04E20101246B010E256F9EDB17
:100AA00003E20101246B256B9CDB18E293EF0BF052
:100AB000690EE66E280E85DB9EDB93DB01E278DBB8
:100AC000DEDB03E20101246B256B88DB07E2010E0C
:100AD0000101246F256B266F276B120012000101A4
:100AE000285102E1010E291901E1F2D0370E28192F
:100AF00001E1295101E1C3D0360E281901E1295144
:100B000001E199D0350E281901E129516EE0340E2A
:100B1000281901E1295145E0330E281901E1295135
:100B20001CE0320E281901E1295101E01200750E76
:100B3000E66E270E46DB640EE66E270E47DB05E207
:100B4000320E07DB330E286F296B48DB04E201010C
:100B5000286B010E296F090EB5D0320E2A190AE151
:100B60002B5108E1530EE66E270E2BDB420EE66E8C
:100B7000270E07D0420EE66E270E23DB310EE66EFF
:100B8000270E24DB05E2330EE4DA340E286F296BDE
:100B900025DB05E2330EDDDA320E286F296B080EF5
:100BA00091D0330E2A190AE12B5108E1640EE66E4A
:100BB000270E07DB200EE66E270E07D0200EE66E0E
:100BC000270EFFDA0F0EE66E270E00DB05E2340E6D
:100BD000C0DA350E286F296B01DB05E2340EB9DA75
:100BE000330E286F296B010E6DD0340E2A190AE1DD
:100BF0002B5108E1310EE66E270EE3DAFE0EE66EAB
:100C0000260E07D0FE0EE66E260EDBDAED0EE66E41
:100C1000260EDCDA05E2350E9CDA360E286F296BDB
:100C2000DDDA05E2350E95DA340E286F296BFB0EFE
:100C3000E66EE66849D0350E2A190AE12B5108E123
:100C40000F0EE66E270EBDDADC0EE66E260E07D01E
:100C5000DC0EE66E260EB5DACB0EE66E260EB6DAA2
:100C600005E2360E76DA370E286F296BB7DA05E221
:100C7000360E6FDA350E286F296B000E23D0360E34
:100C80002A190AE12B5108E1ED0EE66E260E99DADB
:100C9000BA0EE66E260E07D0BA0EE66E260E91DA72
:100CA000B40EE66E260E92DA05E2370E52DA286BA3
:100CB000010E296F93DA05E2370E4BDA360E286FF4
:100CC000296B070EE66EE66A18D8E552E552120067
:100CD000CB0EE66E260E75DAAE0EE66E260EC5DA81
:100CE0007DDA02E2370E5BDACADA02E2320E57DA56
:100CF00078DA02E2DAEF08F0120026DA72DA54E269
:100D00002EC114F02FC115F0FD0EDB50141803E1B5
:100D1000FE0EDB50151848E0FD0EDBCF08F0FE0E8E
:100D2000DBCF09F001012E51085C2C6F2F510958BF
:100D30002D6FFD0EDBCF2EF1FE0EDBCF2FF1020E5D
:100D40000CDA0101406F416BE85001012C250101D3
:100D5000406F415101012D210101416F800E41156C
:100D600008E0180E4025406F000E4121416FE66AF1
:100D70000DD041350DE240511708000E415508E2F3
:100D8000180E405F000E415B010EE66EA4D8E552DE
:100D900040C1E6FF020E8FD9010E0101206F216BC9
:100DA000380E286F296B06D01CDA04E2010E01010F
:100DB000206F216BC5D1070E01012E1901E12F51C2
:100DC00024E02E5101E12F511EE0FB0E2E1902E10D
:100DD000E8682F1916E0010E2E1901E12F510FE0DE
:100DE000080E2E1901E12F5108E0090E2E1901E11C
:100DF0002F5101E01200320E09D0330E07D0340E0D
:100E000005D0350E03D0360E01D0370E286F296B72
:100E100012009AD9300EF36EFE0EDBCFF4FFF350C2
:100E2000F45C0CE3FE0EDB50390808E3FE0EDB50E9
:100E3000D00F156AF36E15C0F4FF02D0F368F468A2
:100E40007FD182D9FD0EDBCF14F0FE0EDBCF15F083
:100E5000FB0EDBCF16F0FC0EDBCF17F0175015188A
:100E6000E8AE02D0153404D01450165C1550175853
:100E700002E2F36A02D0010EF36EF46A61D164D922
:100E8000E150FD0FE96EFF0EDA20EA6E020EEE1859
:100E900004E1ED5002E1020E1BD04BD9040EEE1816
:100EA00001E1ED5012E045D9060EEE1801E1ED50DA
:100EB0000CE03FD9090EEE1801E1ED5006E039D9FA
:100EC0000B0EEE1804E1ED5002E1F36A02D0010EC0
:100ED000F36EF46A35D138D9040EE1263ED9DF6EBF
:100EE000030E3BD9E76E010EE7CFDBFF050E35D9C8
:100EF000E76E020EE7CFDBFF060E2FD9E76E030E7B
:100F0000E7CFDBFFFE0EDB5039E1DF06010EDB062B
:100F1000F36EDBCFF4FFE850F45C03E2DE52070E21
:100F2000DD6E010EDF5C6DE2020EDB0407E11F0ED9
:100F3000DF6E0C0E41D9030EDB0663D08BD8F35065
:100F4000F41004E1020EDB061F0E5AD089D90AE123
:100F5000155008E1020EDB50030804E0010E2CD905
:100F60001E0E4ED07DD94DE115504BE1030EDB50E6
:100F7000030B02E11D0E44D01C0E42D0DF2A010EED
:100F8000DB2ADB50070803E2DE52010EDD6E020EA3
:100F9000DB500C080AE1DF501F0807E2010E0CD9F4
:100FA000010EDF6E030EDB2A2CD054D8F350F41060
:100FB00003E1DF501E0821E353D905E1155003E199
:100FC000DF501F081AE346D8020EF31809E1155046
:100FD00007E1030EDB50030B03E1DF501D080DE3B7
:100FE00039D8020EF3180DE115500BE1030EDB505A
:100FF000030B07E0DF501C0804E2020EDB2A010E9F
:10100000DF6EDFCFE6FF040E56D8010EDBCFE6FF22
:10101000030E51D8020EDBCFE6FF050E4CD8030EAF
:10102000DBCFE6FF060E47D8146E040EE15C02E249
:10103000E16AE552E16E145083D093EC11F0E55271
:10104000E552E552E5521200E66EBEEC17F0E552AD
:1010500000081200020EDBCFE6FFE66A10DFF4EFB5
:1010600008F0DFCFE6FFD5DEE552F3CF32F1F4CF63
:1010700033F10101F31C1200DFCFE6FFCADEE552B7
:10108000F3CF30F1F4CF31F10101F31C1200D9DEBE
:10109000E552E552A9D8F350F4101200E66EDBECED
:1010A00016F0E552E552120049C1E6FF4AC1E6FFDB
:1010B000E6DEF4EF08F0E66E98EC1AF0E552E55241
:1010C000120015C0E6FF16C0E6FF17C0E6FF1200CB
:1010D00097D86F0EE66E2A0EE66E120020C122F13E
:1010E00021C123F1120047C116F048C117F0040EC8
:1010F0000D6E0E6A47C108F048C109F081EC1BF083
:1011000004C016F005C017F00450051012000A0EB6
:10111000086E096A30C10DF031C10EF0D4EF1BF03A
:101120000A0E086E096A32C10DF033C10EF0D4EF19
:101130001BF0D950FD0FE96EFF0EDA20EA6E1200A7
:10114000E552E7CFD9FF1200D9CFE6FFE1CFD9FFB3
:10115000120001012A6F2B6B1200E66EA3EC1AF04D
:10116000E5521200156A166A176A1200E66EBEECA6
:1011700017F0E55200091200710EE66E2A0EE66EB7
:1011800012003A6B3B6B3C6B3D6B01014F6B1200E5
:1011900001015A6B01015B6B01015C6B12000101E3
:1011A000286F296B2A6B010E2B6F1200020E5CD088
:1011B000050E5AD0070E58D0F36E020EF3CFDBFFA8
:1011C0001200E66EE66AE66A1DEF08F04ED83FEFC1
:1011D00009F0E66E010EE66E1DEF08F0040E24EF36
:1011E00008F0060E24EF08F0E552E552F3CF14F0B4
:1011F000F4CF15F01200860EE66E2A0E35EF09F0D8
:10120000E66E010EE66E45EC11F0186E060EE15E1C
:10121000185012003AC114F0A5DF3AC1E6FF61EFA1
:1012200008F03BC114F09EDF3BC1E6FF61EF08F020
:101230003CC114F097DF3CC1E6FF61EF08F03DC10F
:1012400014F090DF3DC1E6FF61EF08F047DF030EC9
:1012500012D044DF040E0FD0E66EE66A47EF08F0C6
:10126000F9DE010EF318120006D0E66EE66A010EF2
:10127000E66E1DEF08F00101206F216B1200050ED4
:0412800024EF08F05F
:0C128400D9CFE6FFE1CFD9FF020EE12632
:10129000DE6ADD6A6CD8BBEC0FF09CEC10F0C8D8AD
:1012A00046EC0EF09F0EE66E260EE66E060EE66E1D
:1012B000E66A7DEC10F0E552E552E552E552D00EBB
:1012C000E66E070EE66E0FD8E552E55201010B51AE
:1012D000FDE00B6B9CEC10F09CEC17F040EC00F088
:1012E000C4EC10F0F3D7D9CFE6FFE1CFD9FF040E5D
:1012F000E126DE6ADD6ADECF14F0DDCF15F0FD0EEB
:10130000DBCF16F0FE0EDBCF17F015501718E8AE46
:1013100002D0173404D01650145C175015581DE233
:10132000020EDB6A030EDB6A020EDBCF14F0030E43
:10133000DBCF15F0D890155004E6EE0E145C000ECD
:10134000155806E2020EDB2A030EEEE3DB2AECD789
:10135000DF2A010ED0E3DB2ACED7040EE15C02E2E5
:10136000E16AE552E16EE552E7CFD9FF1200936AD8
:10137000956A35EC0FF0D1EC1AF046EC0EF0570EF2
:10138000E66E120EE66EB9EC18F0E552E552AE0EBE
:10139000E66E240EE66ECFEC18F0E552E552660ECE
:1013A000E66EB70EE66EFEEC18F0E552E552020E60
:1013B000E66EE66A57EC19F0E552E5520A0EE66E63
:1013C000E66A63EC19F0E552E5520A0EE66EE66A4B
:1013D0007CEC19F0E552E55271EC17F00DEC1AF0C7
:1013E0009BEF15F00F01370E696F3B0E6A6F170EFA
:1013F0006B6F070E6C6F1F0E6D6F0C0E6E6F0D0E08
:101400006F6F69CFE6FFE66A98EC1AF0E552E55295
:101410006ACFE6FF010EE3DB6BCFE6FF020EDFDBF8
:10142000C9EC0EF0CEEC0EF0D3EC0EF0D8EF0EF0CF
:10143000200E84EC0EF0220811E0D4DFE66A100ED4
:10144000CEDBE66A110ECBDBE66A120EC8DBE66A7B
:10145000130EC5DB220EE66E200EC1DB1200100E4D
:1014600084EC0EF00F01736F110E84EC0EF00F017F
:10147000746F120E84EC0EF00F01756F130E84EC76
:101480000EF00F01796F1200BEDB146EE5DBE66E25
:10149000ACDBE66AE66AB0DB6ECF14F0DDDB6ECF64
:1014A000E6FFA3DB030EB4EC0EF0A2EC0EF0060E8A
:1014B000B4EC0EF06CCF14F0CFDB6CCFE6FF95DB15
:1014C000090EB4EC0EF08DEC0EF0E66A010EE66E3D
:1014D00093DB94EC0EF0030EB8EC0EF09BEC0EF0E8
:1014E000060EB8EF0EF08FDB6C51070A24E0010AFC
:1014F0001EE0030A18E0010A12E0070A0CE0010AE4
:1015000006E0030A1EE19B0EE66E260E17D0970E2C
:10151000E66E260E13D0930EE66E260E0FD08F0EBB
:10152000E66E260E0BD08B0EE66E260E07D0870ECB
:10153000E66E260E03D0830EE66E260EE66EE0EC17
:101540000EF00A0E0F016B5D06E296DB040EE1DB86
:10155000E4DB050E02D0E1DB040EB4EC0EF0C7DBD9
:10156000060ED7DB0A0E0F016A5D06E285DB070E69
:10157000D0DBDADB080E02D0D7DB070EB4EC0EF0BE
:10158000B6DB090EC6DB0A0E0F01695D06E274DBED
:101590000A0EBFDBD0DB0B0E02D0CDDB0A0EE4DB84
:1015A0000F017551010A06E0010A0AE17B0EE66EA1
:1015B000260E03D0770EE66E260EE66E0D0EA9DB24
:1015C0000F016E510C0A42E0070A3CE0010A36E0C6
:1015D000030A30E0010A2AE00F0A24E0010A1EE0B3
:1015E000030A18E0010A12E0070A0CE0010A06E00B
:1015F000030A32E1730EE66E260E2BD06F0EE66EF6
:10160000260E27D06B0EE66E260E23D0670EE66EF2
:10161000260E1FD0630EE66E260E1BD05F0EE66E02
:10162000260E17D05B0EE66E260E13D0570EE66E12
:10163000260E0FD0530EE66E260E0BD04F0EE66E22
:10164000260E07D04B0EE66E260E03D0470EE66E32
:10165000260EE66E020E55DB4FDB050E52DB0A0E40
:101660000F016D5D06E248DB060E4BDB6BDB070E00
:1016700002D068DB060E7CDB3FDB080E42DB140E7B
:10168000E66EE66AE66AE66A090EE2DA45EC11F011
:10169000146E060EE15E14506FCF14F0DDDA6FCFDA
:1016A000E6FFA3DA0B0EB8EF0EF0340EE66E260E50
:1016B000E66E86DBD5DAE66A010EE66E7FDA0A0EA2
:1016C0000F01735D06E2D8DA020E1BDB54DB030E5A
:1016D00002D051DB020E4CDB0ADB040E12DB0A0ED9
:1016E0000F01745D06E2C8DA050E0BDB4BDB060E5C
:1016F00002D048DB050E3CDBC4DA070E02DB0F012B
:101700007551010A06E0010A0AE17B0EE66E260E1B
:1017100003D0770EE66E260EE66E0A0EF2DAB1DA26
:101720000D0E81EF0EF00F0171510B0A01E1CFD0C8
:10173000010A01E1A9D0030A01E183D0010A5FE0B7
:101740000F0A36E0010A0DE0060A01E0E6D0B5DA3C
:1017500001E1E6D00F017A0501E0E2D0060E716FDB
:1017600012002BDB03E27CDA040ED3DAA9DA09E0FB
:101770000F016B2994DA05C06BFF05C0E6FF020E6E
:101780002EDAA1DA0CE00F016B056B6FE850170839
:1017900002E2170E6B6F6BCFE6FF020E20DA8DDAD6
:1017A00003E00F01070E716F91DA01E1B9D0B2D0F9
:1017B00004DB03E255DA070EACDA82DA09E00F0146
:1017C0006A2971DA05C06AFF05C0E6FF010E07DA73
:1017D0007ADA0CE00F016A056A6FE8503B0802E212
:1017E0003B0E6A6F6ACFE6FF010EF9D966DA03E0B5
:1017F0000F01080E716F6ADA01E192D08BD0DDDA49
:1018000002E23FDADDDA5CDA09E00F016C296C6F85
:10181000E850070802E2010E6C6FBBDA54DA09E007
:101820000F016C056C6FE850070802E2070E6C6F41
:10183000B0DA43DA03E00F01090E716F47DA70E0A6
:1018400069D0BBDA03E20CDA060E5BDA39DA09E0BA
:101850000F016D296D6FE8501F0802E2010E6D6FD8
:101860009DDA31DA09E00F016D056D6F010E6D5DD6
:1018700002E21F0E6D6F92DA20DA03E00F010A0E0A
:10188000716F24DA4DE046D098DA03E2FAD9020EFD
:1018900038DA16DA09E00F016E296E6FE8500C088D
:1018A00002E2010E6E6F7FDA0EDA09E00F016E05BB
:1018B0006E6F010E6E5D02E20C0E6E6F74DAFDD972
:1018C00003E00F010B0E716F01DA2AE023D075DA05
:1018D00006E2280EE66E260EE66E090E12DAF0D942
:1018E00008E00F016F296F6FE850630801E26F6B2A
:1018F0005FDAE9D909E00F016F056F6FE8506308FF
:1019000002E2630E6E6F54DAD8D902E0D0D9716B5F
:10191000DDD906E0CCD9716B1200010E7A6F706BC5
:1019200012000F017051FF0A01E18AD0FC0A61E048
:10193000010A37E0030A0DE0010A01E0120044DA6F
:1019400001E192D00F017A0501E08ED0010E706F97
:101950001200FFD903E284D9020ED3D9040E72D942
:1019600009E00F0173299BD905C073FF05C0E6FF8D
:10197000100E35D9050E66D90CE00F017305736F93
:10198000E850170802E2170E736F73CFE6FF100ED0
:1019900026D91ADA03E00F01020E706F66D964E0EF
:1019A0004CD0D7D903E25CD9050EABD9040E4AD985
:1019B00009E00F01742977D905C074FF05C0E6FF5F
:1019C000110E0DD9050E3ED90CE00F017405746F90
:1019D000E8503B0802E23B0E746F74CFE6FF110E35
:1019E000FED8F2D903E00F01030E706F3ED93CE040
:1019F00024D0AFD903E245D90A0E83D9040E22D9E7
:101A000007E00F017529010B756FE66E120EE7D81E
:101A1000050E18D90CE00F017505756FE850010827
:101A200002E2010E756F75CFE6FF120ED8D8CCD941
:101A300002E00F01706919D917E039D9706B1200F3
:101A400088D906E2280EE66E260EE66E0A0E61D9E9
:101A5000040EF8D803E1050EF5D801E03AD9B4D95F
:101A600003E037D90101386F12000F01010E491947
:101A700003E14A5101E1010C000C0F010A0E491962
:101A800003E14A5101E1010C000C0F01010E511953
:101A900003E1525101E1010C000C0F010A0E511932
:101AA00003E1525101E1010C000C0F01010E4B1931
:101AB00001E14C5115E00A0ED8804B55000E4C55F3
:101AC00010E24BCF14F04CCF15F0030E0D6E0E6AE2
:101AD0004BCF08F04CCF09F003D903E1155001E1D9
:101AE000010C000C0F01010E531901E1545115E0D6
:101AF0000A0ED8805355000E545510E253CF14F0FF
:101B000054CF15F0030E0D6E0E6A53CF08F054CF6C
:101B100009F0E6D803E1155001E1010C000C0F01BA
:101B200073516B5D0AE174516A5D07E1695105E12A
:101B3000750503E17A0501E1010C000C0F017251FA
:101B4000050A16E0010A05E0040A01E01200040E8D
:101B50000DD0E5DF000906E00F01010E796FE66E9A
:101B6000130E3DD80F01795128E0050E726F120057
:101B70007A6B7B29146E140EF1D805C07BFF0A0E18
:101B80000F01055C02E29CEC10F00F01772B000EB8
:101B90007823900ED8807755010E78550EE2010E0D
:101BA0007A6F796B79CFE6FF130E19D80F01776B37
:101BB000786B9CEC10F00F01726B120093EC11F03B
:101BC000E552E552E552E55212007629146E140EE4
:101BD000C5D805C076FF0F0105500F081200E66E4C
:101BE00098EC1AF0E552E552120015C0E6FF16C057
:101BF000E6FF17C0E6FF120045EC11F0186E060E66
:101C0000E15E18501200E66AA3EC1AF0E5520F01EB
:101C1000696F010E79D80F016A6F020E75D80F0136
:101C20006B6F030E71D80F016C6F040E6DD80F012E
:101C30006D6F050E69D80F016E6F060E65D80F0126
:101C40006F6F1200E66EBEEC17F0E552000912004D
:101C5000E66E010EE66E1200156A166A176A120029
:101C6000310EE66E260EE66E1200060EE66EC8EC2B
:101C700017F0E55200091200810EE66E260EE66EA0
:101C800012002D0EE66E260EE66E1200E80EE66ECF
:101C9000030EE66E73EC09F0E552E5521200146E85
:101CA000180EAEEF0EF0146E3C0EAEEF0EF09CEC84
:101CB00010F00F01010E7A6F1200D7DE000912003A
:101CC000F4DE000912000EDF00091200D6DE000962
:101CD00012009CEC10F00F01706B010E7A6F120075
:101CE000C9EC1CF005C015F0010E041812007F0E9F
:101CF000E66E260EE66E1200450EE66E260EE66EC7
:101D00001200A6DFDEEF0DF0E66EA3EC1AF0E5524E
:101D10001200E66EE66ADEEF0DF06BCF14F09CDF8A
:101D20006BCFE6FFF5EF0DF06ACF14F095DF6ACFC9
:101D3000E6FFF5EF0DF069CF14F08EDF69CFE6FF17
:101D4000F5EF0DF06DCF14F087DF6DCFE6FFF5EF07
:101D50000DF07A6BAADC0F01E5EF0DF0156E0E6E3B
:101D600014C009F0FDEF1CF0E66EE66AFCEF0DF022
:101D70006FDFFCEF0DF073CF14F06EDF73CFE6FF73
:101D8000F5EF0DF074CF14F067DF74CFE6FFF5EFD9
:101D90000DF06CCFE6FF030EEFEF0DF06DCFE6FF19
:101DA000040EEFEF0DF06ECFE6FF050EEFEF0DF036
:101DB0006FCFE6FF060EEFEF0DF07A6BE5EF0DF05B
:0E1DC000E66AE66ADEEF0DF0060E22EF0EF088
:021DCE00FBEC2C
:101DD00012F07BDB15AE02D01668176820DB13E229
:101DE00089DB49DB04E6050E145C000E155806E29B
:101DF000020EDB2A030EF5E3DB2AF3D7DF2A010EFE
:101E0000E8E3DB2AE6D7040EE15C02E2E16AE55290
:101E1000E16EBBD2F0DB59DB15AE02D01668176855
:101E2000FEDA13E267DB27DB04E6EE0E145C000E3D
:101E3000155806E2020EDB2A030EF5E3DB2AF3D780
:101E4000DF2A010EE8E3DB2AE6D7040EE15C02E2BA
:101E5000E16AE552E16E99D2D4DBF00B6BDBFE0E4A
:101E6000DB38F00B811278DA90D2C2DB190E50DB2E
:101E70000F0E8116F80E81160F0E8116300E5ADBEA
:101E8000300E58DB300E56DB818A66DA280EE66E9D
:101E9000E3DFE5520C0EE66EDFDFE552E55275D268
:101EA0009DDB010EDB6A81944ADBE76E010EE7CF12
:101EB000DBFF819644DBDF6E010EDB50DF12819683
:101EC000010E51DADF50146E020EE15C02E2E16AAB
:101ED000E552E16E145059D28BDBDF6AE1DFDF6E31
:101EE000DFBEFCD7DF50E55250D28BDB81128186FA
:101EF000050E39DA8196050E36DA47D241DA819439
:101F0000050E31DA98DA41D23BDA8184050E2BDAFC
:101F100092DA81943AD23BD33AD332DAFD0EDBCF58
:101F2000F6FFFE0EDBCFF7FF0800F5500DE0FD0ECB
:101F3000DBCFF6FFDB2AFE0EDBCFF7FF01E3DB2A68
:101F40000800F5501BDBEAD720D252DBFD0EDB5038
:101F50000F0B146EFE0EDB50010B400DF3501424DA
:101F6000DF6E7F0EDF14800FDF6EDFCFE6FFC6DF90
:101F7000E552E5520AD2010EE66EC0DFE552E66A8E
:101F8000E66A07EF13F0FCD9050EE126010EF36EA9
:101F9000DB6EB0DA040EDB6ADF6ADFCF14F0156A9D
:101FA00014BE156899DA15501718E8AE02D0173428
:101FB00004D01650145C175015581FE2FD0EDBCFED
:101FC00014F0FE0EDBCF15F0166A176A15AE02D0BC
:101FD00016681768D950010FE96EDACFEAFF14C00E
:101FE0000BF015C00CF016C00DF017C00EF0DBDAC8
:101FF00050EC1CF0E1DADF2AD0D7010EDBCF14F071
:10200000020EDBCF15F0030EDBCF16F0040EDBCF94
:1020100017F014C006F015C007F016C008F017C07E
:1020200009F0050EE15C02E2E16AE552E16EADD134
:10203000D5DAFB0EDBCF14F0FC0EDBCF15F0FD0E76
:10204000DBCF16F0FE0EDBCF17F014501510161074
:10205000171003E1300E92DA36D0D950FB0F14DAA4
:1020600001E618DA05E22D0E89DAD950FB0FCAD93C
:10207000DE52070EDD6E37DAE8AE02D0143403D03C
:10208000E750D88014541FE217DA18BE196871D9C6
:1020900036DA5EDA08DA0BE0010EDF6EDB041C6E66
:1020A0001D6A1CBE1D6883D953DA9FD903D0DF5047
:1020B00002E0300E63DA00DA18BE19685AD9D95036
:1020C000FB0F6CD9D8D7020EE15C02E2E16AE5525F
:1020D000E16E5BD155D9C7D9D950F90F53DAEECF9C
:1020E000E6FFEECFE6FFEECFE6FFEFCFE6FFA0DFA5
:1020F000E552E552E552E55248D142D9B4D9FB0E3A
:10210000DBCFE6FFFC0EDBCFE6FF07DFE552E55253
:102110003CD136D9FCC014F0FDC015F0040ED890A7
:1021200014361536E806FBE192D9FE0EDBCFEFFF41
:10213000FE2B000EFF2329D15BDADF6ADFCF14F01C
:10214000100EE76E1418E8AE02D0E73402D0E75064
:10215000145C18E2DFCFE9FFEA6AE9BEEA68C10E63
:10216000E926000EEA22200EEF6EDFCFE9FFEA6AD1
:10217000E9BEEA68D10EE926000EEA22200EEF6ED3
:10218000DF2ADCD7E55201D133DA0001C051030A5E
:1021900029E0010A1CE0030A0CE0010A32E13BDA03
:1021A000080EDF5C03E2DF50B9D9FAD70001010E57
:1021B00017D0080EE66EE66A09D9080EDF5C04E265
:1021C000080EDF24ABD9F9D70001020E09D00BDAD3
:1021D000080EDF5C03E2DF50A7D9FAD70001030E37
:1021E000C06F10D0080EE66E010EE66EEFD8080E36
:1021F000DF5C04E2080EDF2497D9F9D70001C06B39
:1022000001D0C06BE552C1D0F3D90001C051010A21
:102210000DE0010A15E1FFD9100EDF5C03E2DF508B
:102220007DD9FAD70001010EC06F0BD0DCD9100E9A
:10223000DF5C03E2DF5078D9FAD70001C06B01D030
:10224000C06BE552A2D0D4D9E6D9100EDF5C03E210
:10225000DF5064D9FAD7C7D9100EDF5C03E2DF5034
:1022600063D9FAD7E55291D08BD8B3D8FCC014F01B
:10227000FDC015F0040ED89014361536E806FBE1C3
:10228000E6D8FC0EDBCFEFFF80D0A8D9A2D8F90E9C
:10229000DBCF14F0FA0EDBCF15F01ED91450151059
:1022A0001610171003E1300E0CD936D0D950F90FA3
:1022B000EBD801E6EFD805E22D0E03D9D950F90F7E
:1022C000A1D8DE52070EDD6E0ED9E8AE02D014346E
:1022D00003D0E750D88014541FE2EED818BE196816
:1022E00048D80DD940D9DFD80BE0010EDF6EDB04F2
:1022F0001C6E1D6A1CBE1D685AD835D976D803D00D
:10230000DF5002E0300EDDD8D7D818BE196831D8BA
:10231000D950F90F43D8D8D7020EE15C02E2E16A46
:10232000E552E16E32D02CD854D8FB0EDBCFF6FF4D
:10233000FC0EDBCFF7FF0800F5500DE0FB0EDBCF06
:10234000F6FFDB2AFC0EDBCFF7FF01E3DB2A0800F8
:10235000F550B7D8EAD719D08186010ED9D8819621
:10236000010E88EF12F0E66EE66AE66AE66A2FDD95
:1023700056D118C0E6FF19C0E6FF10D9E5EF12F0FC
:10238000D9CFE6FFE1CFD9FF1200E552E7CFD9FF61
:102390001200EA22EF50F2D8DF2A1200F3D8AFD8A9
:1023A00002D988EC1CF008D9010EDB0612001CC013
:1023B000E6FF1DC0E6FFF2D806C018F007C019F00E
:1023C00008C01AF009C01BF07FEF12F020D9DF6AB5
:1023D0001200FE0EDB50010B0001FC6FFD6BFD0EC9
:1023E000DB500F0BFE6FFF6B1200DBCF09F088ECA8
:1023F0001CF0EBD8300E1426000E152216221722E0
:1024000014501200BFD8000EEE6CEF1EEE22EF1E2D
:10241000EE22EF1EEF22ED52ED52ED521200D95096
:10242000FB0FB0D8EE50145CEE501558EE50165815
:10243000EE5017581200FE0EDBCFE6FF56DDE552D8
:10244000FE0EDB38F00BE66E50DDE5521200C10ED9
:102450001426000E152214500001FE25E96E1550B9
:10246000FF21EA6E1200FD0EDBCFE6FFFE0EDBCF92
:10247000E6FF07EF13F0020EDBCF14F0030EDBCF05
:1024800015F0D890155012007DD8D890030EEB505F
:10249000000A1200000EEE5C000EEE58000EEE5820
:1024A000000EEE581200DBCF09F088EC1CF006504D
:1024B0000710081009101200010EDB04186E196ACB
:1024C0001200E66E26DEE5521200DECF14F0DDCFFC
:1024D00015F0166A176A1200FB0EDBCF16F0FC0E21
:1024E000DBCF17F01200010EDBCF14F0000EE76E09
:1024F00014181200020EDB6A030EDB6A120006C01B
:102500000BF007C00CF008C00DF009C00EF012006F
:10251000E66EE66AE66AE66A7DDC81D0EA6AC10FA9
:10252000E96E000EC9EF11F0EA6AD10FE96E000EF4
:10253000C9EF11F0811210DF0F0E811612000F0E7D
:1025400012DF0F0E811281860EDF0F0E8114120032
:10255000FB0EDBCF06F0FC0EDBCF07F0FD0EDBCF72
:1025600008F0FE0E1200F90EDBCF06F0FA0EDBCFFC
:1025700007F0FB0EDBCF08F0FC0E1200E66ECCDCA1
:10258000E5521200E96EFF0EDA20EA6E1200F8DE64
:10259000FE0EDBCFE6FFB8DCE552F7D60A0EE66E9C
:1025A000E66AF1DC3CD0EECF06F0EECF07F0EECFDE
:1025B00008F0EFCF09F0120005C0EDFF04C0EDFFF9
:1025C00003C0EDFF02C0EFFF120006C014F007C009
:1025D00015F008C016F009C017F01200D1DE020E87
:1025E000E126DF6A1200E66A010EE66EE6EF11F000
:1025F000C7DEE6521200C4DE040EE126DE6ADD6AA2
:102600001200BEDE0F0E8116FE0EDB5012009DDCA6
:10261000E552E5521200E66AE66AE6EF11F0E5528D
:08262000E552E552E5521200FB
:082628002020202000202020CA
:10263000002020002020414C41524D2020204241CA
:10264000434B2020002000444543004E4F56004F8E
:1026500043540053455000415547004A554C004AE9
:10266000554E004D415900415052004D41520046D7
:102670004542004A414E004F4E20004F4646003A28
:102680000030005341540046524900544855005709
:10269000454400545545004D4F4E0053554E0020C3
:1026A0004449474954414C20434C4F434B003E4220
:1026B00041434B00204241434B003E564945544E56
:1026C000414D20205554432B303700205649455466
:1026D0004E414D20205554432B3037003E4C4F4E39
:1026E000444F4E2020205554432B303000204C4F77
:1026F0004E444F4E2020205554432B3030003E4E48
:102700004557594F524B20205554432D303500200A
:102710004E4557594F524B20205554432D303500CC
:102720003E5041524953202020205554432B3031F4
:1027300000205041524953202020205554432B3033
:1027400031003E4245494A494E4720205554432BCB
:1027500030380020544F4B594F20202020555443EF
:102760002B303900204245494A494E4720205554D4
:10277000432B3038003E544F4B594F2020202055DA
:1027800054432B3039002055736520554152540075
:102790003E55736520427574746F6E002144415438
:1027A000453A59594D4D444464230D0A000D0A54CD
:1027B0006F2073796E6368726F6E697A65206461E9
:1027C00074652C207573696E672073796E746178F7
:1027D00020617320666F6C6C6F773A0D0A00546845
:1027E000652074696D65206E65656420746F206274
:1027F000652032342D6820666F726D61740D0A0099
:102800002154494D453A48484D4D5353230D0A0034
:102810000D0A546F2073796E6368726F6E697A6502
:102820002074696D652C207573696E672073796EED
:1028300074617820617320666F6C6C6F773A0D0A53
:10284000000D0A57656C636F6D6520746F20416CD5
:1028500061726D20436C6F636B20636F6E736F6C7E
:1028600065206D656D750D0A0020557365204275F4
:1028700074746F6E003E5573652055415254000DBF
:102880000A436F6E66696775726174696F6E204482
:102890006174652053756363657373210D0A000DC0
:1028A0000A44415445206D75737420626520696E39
:1028B0002072616E6765205B312C375D20210D0A27
:1028C000000D0A446179206D75737420626520697A
:1028D0006E2072616E6765205B312C32385D20217D
:1028E0000D0A000D0A446179206D757374206265CC
:1028F00020696E2072616E6765205B312C32395D14
:1029000020210D0A000D0A446179206D7573742031
:10291000626520696E2072616E6765205B312C33C1
:10292000315D20210D0A00506C6561736520656E74
:1029300074657220616761696E210D0A000D0A4499
:102940006179206D75737420626520696E207261F3
:102950006E6765205B312C33305D20210D0A000D40
:102960000A20446179206D757374206265203E20D1
:1029700030210D0A000D0A4D6F6E7468206D75735D
:102980007420626520696E2072616E6765205B311C
:102990002C31325D20210D0A000D0A436F6E6669ED
:1029A0006775726174696F6E2054696D6520537527
:1029B0006363657373210D0A000D0A506C656173C2
:1029C0006520656E746572206E756D62657220217A
:1029D0000D0A000D0A5365636F6E64206D75737484
:1029E00020626520696E2072616E6765205B302C05
:1029F00035395D20210D0A000D0A4D696E7574652B
:102A0000206D75737420626520696E2072616E6737
:102A100065205B302C35395D20210D0A00706C6516
:102A200061736520656E74657220616761696E21EE
:102A30000D0A000D0A486F7572206D75737420625F
:102A40006520696E2072616E6765205B302C3233C1
:102A50005D20210D0A000D0A506C656173652065CB
:102A60006E746572206E756D626572210D0A003A92
:102A700000300020200020202053544F5057415454
:102A80004348202020003E4261636B002042616386
:102A90006B003E576F726C642054696D65007761FE
:102AA000726520746F204D6F6469667900506C65A3
:102AB000617365206F70656E20736F6674002057B8
:102AC0006F726C642054696D65003E54696D6520B9
:102AD0004D6F64696679002054696D65204D6F649F
:102AE000696679003E54696D657220436C6F636B53
:102AF000002054696D657220436C6F636B003E4328
:102B00006F756E74657220436C6F636B0020416C4F
:102B100061726D20436C6F636B0020436F756E7440
:102B2000657220436C6F636B003E416C61726D2077
:062B3000436C6F636B00B3
:0A2B3600B06A810EAF6EAC8AAC9459
:102B4000B886AC98AB8EAB889E9A9D8A9F8A949CDF
:102B5000948E120069D9040EE126DE6ADD6ADECFAA
:102B600014F0DDCF15F097D915501718E8AE02D044
:102B7000173404D01650145C175015581DE2020E7D
:102B8000DB6A030EDB6A020EDBCF14F0030EDBCF31
:102B900015F0D890155004E6EE0E145C000E155892
:102BA00006E2020EDB2A030EEEE3DB2AECD7DF2A75
:102BB000010ED5E3DB2AD3D7040EE15C02E2E16A21
:102BC000E552E16E36D130D99EA8FED7FE0EDB501D
:102BD000AD6E9E982ED128D956D908E054D934D953
:102BE000FD0EDB2AFE0EF8E3DB2AF6D722D11CD934
:102BF000050EE126010EF36EDB6E020EDB6A030E9C
:102C0000DB6A040EDB6ADF6ADFCF14F0156A14BEDC
:102C10001568FB0EDBCF16F0FC0EDBCF17F015505E
:102C20001718E8AE02D0173404D01650145C1750B1
:102C300015581FE2FD0EDBCF14F0FE0EDBCF15F0B2
:102C4000166A176A15AE02D016681768D950010FB8
:102C5000E96EDACFEAFF14C00BF015C00CF016C015
:102C60000DF017C00EF0F4D850EC1CF0FAD8DF2AA3
:102C7000CBD7010EDBCF14F0020EDBCF15F0030E25
:102C8000DBCF16F0040EDBCF17F014C006F015C032
:102C900007F016C008F017C009F0050EE15C02E26B
:102CA000E16AE552E16EC5D0BFD8020EE126DF6AC7
:102CB000FB0EDBCF14F0FC0EDBCF15F0ECD814507C
:102CC00015101610171003E1300EBED86DD0B5D810
:102CD000D890030EEB50000A08E6000EEE5C000EE2
:102CE000EE58000EEE58000EEE580EE22D0EACD847
:102CF000A4D8000EEE6CEF1EEE22EF1EEE22EF1EA9
:102D0000EF22ED52ED52ED52DE520A0EDD6E010E53
:102D1000DBCF14F0000EE76E1418E8AE02D01434C6
:102D200003D0E750D88014543FE2010EDB04186E44
:102D3000196A18BE196871D861D8065007100810B2
:102D400009101EE0010EDF6EDB041C6E1D6A1CBE46
:102D50001D681CC0E6FF1DC0E6FFA4D806C018F021
:102D600007C019F008C01AF009C01BF047D8A3D853
:102D7000300E1426000E152216221722145003D0EE
:102D8000DF5002E0300E60D8010EDB04186E196AC5
:102D900018BE196842D851D897D85AD888EC1CF078
:102DA00060D8010EDB06B3D7020EE15C02E2E16AF5
:102DB000E552E16E3ED038D85DD80CE05BD844D8FF
:102DC000FD0EDBCFF6FFDB2AFE0EDBCFF7FFF4E3D1
:102DD000DB2AF2D72ED028D8E652AE50DF6E0101A2
:102DE0005A51EA6A010FE96E0F0EEA22DFCFEFFFB8
:102DF0005A293F0B5A6F5C2BE5521BD065D8FB0E4E
:102E0000DBCF06F0FC0EDBCF07F0FD0EDBCF08F0CA
:102E1000FE0EDBCF09F088EF1CF018C0E6FF19C0EA
:102E2000E6FF40D85BEF17F0D9CFE6FFE1CFD9FF3F
:102E30001200E552E7CFD9FF1200D950FB0FE96E1F
:102E4000FF0EDA20EA6E1200E66EBDDEE5521200D9
:102E5000EECF06F0EECF07F0EECF08F0EFCF09F09F
:102E6000120005C0EDFF04C0EDFF03C0EDFF02C07E
:102E7000EFFF1200FD0EDBCFF6FFFE0EDBCFF7FFFC
:102E80000800F5501200FD0EDBCFE9FFFE0EDBCF90
:102E9000EAFFEF501200FD0EDBCF16F0FE0EDBCF87
:102EA00017F012000A0EE66EE66AA1DEE552E55260
:102EB000E552E552120006C014F007C015F008C034
:102EC00016F009C017F0120006C00BF007C00CF096
:0A2ED00008C00DF009C00EF012005A
:062EDA000F0E946E8268E9
:102EE0001200070E9410946EDF0E9414946E826894
:102EF0001200D0D808D901E601D917E2DDD8826ED8
:102F0000F8D8D1D801E6FAD80BE2B7D802E1FFD859
:102F100001D01DD9020EDB2A030EF3E3DB2AF1D721
:102F2000DF2A010EE7E3DB2AE5D7040EE15C02E2CB
:102F3000E16AE552E16ED9D0ADD8DBD8010EDE6E84
:102F4000DD6ABAD88214826ED4D8ADD804E6030EF6
:102F5000145C000E15580BE290D802E1D8D801D0CD
:102F6000F6D8020EDB2A030EF0E3DB2AEED7040EBE
:102F7000E15C02E2E16AE552E16EB7D0A7D8010E4A
:102F8000EE1804E1ED5002E1010E01D0000EADD0CB
:102F90009DD8320EEE1804E1ED5002E1010E01D091
:102FA000000EA3D077D8D7D8FD0EDBCF16F0FE0EDB
:102FB000DBCF17F015501718E8AE02D0173404D045
:102FC0001650145C1750155813E293D86CD804E6C9
:102FD000EE0E145C000E155806E2020EDB2A030EFC
:102FE000F5E3DB2AF3D7DF2A010EDDE3DB2ADBD7AB
:102FF000040EE15C02E2E16AE552E16E76D04AD865
:1030000082D801E67BD822E257D8826E72D84BD89C
:1030100001E674D80DE29BD830D804E11ED8010E29
:10302000EE6EED6A020EDB2A030EF1E3DB2AEFD728
:103030008250816EE80EE66E030EE66EB3DFE55257
:10304000E552DF2A010EDCE3DB2ADAD7040EE15C6D
:1030500002E2E16AE552E16E48D07DD8D89014369C
:103060001536D89014361536020EDB501424E96E4E
:10307000030EDB501520B0EF18F0020EDBCFE9FF96
:10308000030EDBCFEAFF650EE9260F0EEA22EF50B2
:1030900082141200D9CFE6FFE1CFD9FF040EE1265A
:1030A000DE6ADD6A1200020EDBCF14F0030EDBCF06
:1030B00015F0D89015501200DECFE9FFDDCFEAFF02
:1030C000610EE9260F0EEA22EF1C1200D9CFE6FFAF
:1030D000E1CFD9FFFE0EEA6ADB34FE0BEA36E96E79
:1030E000410EE9260F0EEA221200E552E7CFD9FF82
:1030F0001200020EDB6A030EDB6A1200040E145C7F
:10310000000E1558120027D8D89015501200DECFA7
:1031100018F0DDCF19F0D89018361936D890183637
:103120001936020EDB501824E96E030EDB5019200D
:1031300017D8EECF16F0EFCF17F0010E1626000EBF
:1031400017228BDF16C0EEFF17C0EDFF120085DFE0
:10315000EE6AED6A1200DECF14F0DDCF15F012003A
:10316000EA6ED890E936EA36410EE9260F0EEA22D9
:0231700012004B
:0E317200F1D8D59EFD0EDBCF00F1FE0EDBCFB7
:1031800001F1D59C05D9D59AD586F28AF294F184BD
:10319000D58EE6D0D59E1200FBD8D58E1200DBD896
:1031A000CD90FD0EDBCF02F1FE0EDBCF03F1F7D8A1
:1031B0009D809E909F90CD8ECD8CCD98CD9ACD96B2
:1031C000CD92CD80CDD0EBD8CD801200CD90120025
:1031D000C2D8CA94CC6AFE0EDB500101046F056BA5
:1031E000CB6E9D829E929F92CA90CA92CA84B8D09A
:1031F00004C1CBFFCA841200CA941200ACD8B190AB
:10320000FD0EDBCF06F1FE0EDBCF07F1CFD8075066
:10321000B36ECCD8B5D8B26EA082A192A292B18E74
:10322000B198B19AB192B1809BD0C0D80350B26E20
:10323000BDD89ED8B36EB1801200B19012000101CA
:10324000102B000E11231851105D1951115904E370
:10325000106B116B010E086F12000101122B000E92
:1032600013231A51125D1B51135904E3126B136B94
:10327000010E096F12000101142B000E15231C51C1
:10328000145D1D51155904E3146B156B010E0A6F83
:1032900012000101162B000E17231E51165D1F513F
:1032A000175904E3166B176B010E0B6F120053D8FE
:1032B000FD0EDBCF18F1FE0EDBCF19F10101106B13
:1032C000116B086B4DD047D8FD0EDBCF1AF1FE0E07
:1032D000DBCF1BF1050E0D6E0E6A1AC108F01BC183
:1032E00009F081EC1BF008C01AF109C01BF10101C3
:1032F000126B136B096B34D02ED8FD0EDBCF1EF191
:10330000FE0EDBCF1FF10A0E0D6E0E6A1EC108F015
:103310001FC109F081EC1BF008C01EF109C01FF1AC
:103320000101166B176B0B6B1BD01C6A1A50175CD4
:10333000146E1B501858156E1C501958166E0C6AD6
:10334000010E0D6E0E6A14C007F015C008F016C00D
:1033500009F0A7EF1BF0D9CFE6FFE1CFD9FF1200AC
:10336000E552E7CFD9FF120017681868196A1200F2
:1033700007C014F008C015F009C016F0075012007D
:1033800003C014F004C015F005C016F0035012007D
:1033900014D80350D66E11D8EBDFD76E120014D8B4
:1033A0000750CF6E11D8ECDFCE6E1200DDDF06C104
:1033B0001AF007C11BF095EF19F0D6DF00C11AF023
:1033C00001C11BF095EF19F0CFDF02C11AF003C164
:0633D0001BF095EF19F05F
:0A33D600BED8020EE126FE0EDB5009
:1033E0000F0BDF6EFE0EDB380F0B0A0DBCD802E2AE
:1033F000E16AE552E16E1450B2D0ACD8020EE1267B
:10340000BBD80550DF6EB8D80950100DACD802E219
:10341000E16AE552E16E1450A2D094869488C79E6A
:10342000C79CC690C692C694C686310EC86EC68A20
:10343000120090D89E96FE0EDB50D00FC96E9EA64D
:10344000FED78DD09E96C5809EA6FED712009E9672
:10345000C5849EA6FED712007DD89E96FE0EDB5038
:10346000C96E9EA6FED77BD09E96C5869EA6FED729
:10347000C95012009E96C59AC5889EA6FED7120016
:103480009E96C58AC5889EA6FED7120063D87CD8B2
:10349000010E5D6FE85004E0C550400BFAE0F8D72C
:1034A00079D8010E5D6FE85004E0C550400BFAE09A
:1034B000F8D7FD0EDBCFE6FFA0DFE552E66ECCDFEE
:1034C000E5520101010E5D6FE85004E0C550400B6C
:1034D000FAE0F8D7BCDF43D03DD8E65255D8010E0C
:1034E0005D6FE85004E0C550400BFAE0F8D752D8C1
:1034F000010E5D6FE85004E0C550400BFAE0F8D7CC
:10350000A1DF010EE66E95DFE5520101010E5D6F50
:10351000E85004E0C550400BFAE0F8D7A5DFDF6EB5
:10352000DFCFE6FF58DFE552DF6EDF50E55217D000
:1035300011D8FD0EDBCFE6FFFE0EDBCFE6FFA6DFE8
:10354000E552E5520CD006D8FE0EDBCFE6FFC4DF15
:10355000E55205D0D9CFE6FFE1CFD9FF1200E55201
:10356000E7CFD9FF1200010EF3CFDBFFDB50DF24E2
:10357000146E020EE15C12000A0E146E0E6EFE0E48
:10358000DBCF09F0FDEF1CF05DDFE66A52DFE552AC
:1035900001011200FE0EDBCFE6FF5EDFE552010106
:0235A000120017
:0E35A200F28ED08EF28C1200F19CF292F28822
:1035B0001200D8CFE4FFE0CFE4FFE46E65D800EE60
:1035C00000F0140EE80403E3EECFE4FFFBD700EEB7
:1035D00014F00A0EE80403E3EECFE4FFFBD7E65253
:1035E000F2B47AD89EB07FD8A1B284D8F2B2F29267
:1035F0009EBA9E9AE55200EE1DF00A0EE80403E31F
:10360000E5CFEDFFFBD700EE13F0140EE80403E363
:10361000E5CFEDFFFBD74DD8E550E5CFE0FFE5CF97
:10362000D8FF100031D800EE00F0140EE80403E3D8
:10363000EECFE4FFFBD700EE14F00A0EE80403E33C
:10364000EECFE4FFFBD7E652F2B446D89EB04BD89B
:10365000A1B250D8F2B2F2929EAA03D0EBEC16F0CF
:103660009E9AE55200EE1DF00A0EE80403E3E5CF52
:10367000EDFFFBD700EE13F0140EE80403E3E5CFF3
:10368000EDFFFBD716D81100DACFE4FFE2CFDAFF67
:10369000E9CFE4FFEACFE4FFF6CFE4FFF7CFE4FFA2
:1036A000F5CFE4FFF3CFE4FFF4CFE4FFFACFE4FF7C
:1036B0001200E5CFFAFFE5CFF4FFE5CFF3FFE5CF4A
:1036C000F5FFE5CFF7FFE5CFF6FFE5CFEAFFE5CF62
:1036D000E9FFE5CFDAFF1200CAEC18F0F294CCEC67
:1036E00018F01FEF19F0E6EC18F09E90E3EC18F0DC
:1036F0002DEF19F01DEC19F0A19215EC19F049EF1E
:0237000019F0BE
:0E370200006A0EAE8AEF1BF00D6C0E1EE86A18
:103710000E22001E09AE92EF1BF0086C091EE86A2B
:103720000922001EC9EC1CF009BEA2EF1BF000AE7E
:10373000000C086C091EE86A0922046C051EE86A80
:103740000522000C00BE99EF1BF00188FF0C006AF7
:103750000EAEB2EF1BF00C6C0D1E0E1EE86A0D22B1
:103760000E22001E09AEBCEF1BF0076C081E091EDE
:10377000E86A08220922001EACEC1CF009BECFEF5B
:103780001BF000AE000C076C081E091EE86A082238
:103790000922036C041E051E04220522000C00BE33
:1037A000C3EF1BF00188FF0C09C013F008C012F032
:1037B00008500D02F4CF07F0F3CF06F009500E02C7
:1037C000F4CF09F0F3CF08F00D02F3500726F450C0
:1037D0000822E86A092212500E02F3500726F4501C
:1037E0000822E86A09220EAEFAEF1BF01250085EBA
:1037F0001350095A13AE000C0D50085E0E50095AB2
:02380000000CBA
:0E3802001E0EF66E000EF76E000EF86E01013F
:103810000900F550556F0900F550566F03E15567E3
:1038200001D03DD00900F550506F0900F550516F9F
:103830000900F550526F09000900F550E96E0900C2
:10384000F550EA6E090009000900F550536F0900B0
:10385000F550546F09000900F6CF57F1F7CF58F132
:10386000F8CF59F150C1F6FF51C1F7FF52C1F8FF2F
:103870000101535302E1545307E00900F550EE6E85
:103880005307F8E25407F9D757C1F6FF58C1F7FFBD
:1038900059C1F8FF01015507000E565BBFD7120052
:1038A00006500B02F3CF02F0F4CF03F00C02F350FA
:1038B0000326000EF420046E06500D02F350042679
:1038C000000EF420056E06500E02F3500526075038
:1038D0000B02F3500326F4500422000E0522075079
:1038E0000C02F3500426F450052207500D02F35049
:1038F000052608500B02F3500426F4500522085008
:103900000C02F350052609500B02F3500526120055
:10391000056A046A036A026A200EE76ED8900636CA
:1039200007360836093602360336043605360B509C
:10393000025C0C5003580D5004580E50055809E312
:103940000B50025E0C50035A0D50045A0E50055A8B
:08395000062AE72EE4D712005D
:08395800056A046A036A180EF7
:10396000E76ED89007360836093603360436053632
:103970000C50035C0D5004580E50055807E30C50D2
:10398000035E0D50045A0E50055A072AE72EEAD757
:02399000120023
:0E399200056A046A100EE76ED89008360936F2
:1039A000043605360D50045C0E50055805E30D50E5
:0E39B000045E0E50055A082AE72EF0D71200CA
:0239BE00800E79
:1039C000F36E00EE00F00F0E01D81200EA6002D094
:0E39D000EE6AFCD7F350E9601200EE6AFCD7F5
:0239DE001EEEDB
:1039E00000F02EEE00F0F86A019C01EC1CF003ECF4
:0A39F00000F042EC09F0FBD71200D2
:0639FA00056A080EE76EED
:103A0000D890093605360E50055C02E3056E092A8A
:063A1000E72EF7D71200BB
:0A3A160000000000000000000000A6
:103A20000000000000000000000000000000010095
:063A30000100010001008D
:0A3A36000100000000000000320053
:103A4000320007000700FFFFFFFF01000100000038
:063A50000000000001006F
:0A3A56000000000000000000000066
:093A60000000000000000001005C
:073A69000000000000000056
:103A7000001010101010101010181818181818181E
:103A8000181C1C1C1C1C1C1C1C1E1E1E1E1E1E1E6C
:103A90001E1F1F1F1F1F1F1F1F0000000000000010
:103AA0000000000000000000000000000000000016
:103AB0000000000000000000000000000000000006
:0A3AC00000000000000000000000FC
:063ACA00000000D0002204
:103AD000222207250910000100000000000000005C
:053AE0000000000000E1
:0B3AE5000000000000000000000000D6
:103AF00000000000000000000000000000000000C6
:0D3B000000000000001020408001020408B9
:020000040030CA
:0100010002FC
:0100020003FA
:010003001EDE
:010005008179
:010006008178
:010008000FE8
:01000900C036
:01000A000FE6
:01000B00E014
:01000C000FE4
:01000D0040B2
:00000001FF
