:020000040000FA
:0600000083EF21F0120065
:020006001200E6
:06000800A6EF1FF012003C
:02000E000000F0
:0100100000EF
:0400110000000000EB
:060018006DEF1FF0120065
:02001E000800D8
:1000200023440000000100002800000008440000F4
:10003000E10000001B00000011000000770F00002D
:1000400004000000A74300008000000061000000E1
:100050009443000048010000130000005E430000CC
:10006000410F0000360000003E4300002801000060
:10007000200000000E0000007B0F000003000000C5
:100080000F01415102E1010E421901E1F5D10C0EBF
:10009000411901E1425101E1ADD10B0E411901E1DC
:1000A000425101E197D10A0E411901E1425101E1AA
:1000B00060D1080E411901E1425101E158D1070E0A
:1000C000411901E1425101E127D1090E411901E134
:1000D000425101E112D1060E411901E1425101E103
:1000E0000AD1050E411901E1425101E1DBD0280E90
:1000F000411901E1425101E1D2D0040E411901E15F
:10010000425101E1A1D01E0E411901E1425172E0BC
:10011000030E411901E1425147E0140E411901E17A
:10012000425137E0020E411901E1425115E0010E42
:10013000411901E1425101E012003FEC0EF087EC61
:1001400011F0E8EC0CF001E3B2D1020E3AEC0CF045
:10015000010E436F446B1200500EE66E340E6FECCE
:100160000CF0410EE66E340E74EC0CF002E2C3ECBF
:100170000CF0E8EC0CF004E2140E0F01416F426B3E
:100180007CEC0CF001E393D10F01416B010E426F47
:10019000120037EC0FF085EC10F00F016E5101E109
:1001A00086D16E6B020E80D1020E43190BE14451D1
:1001B00009E1340EE66E340E6FEC0CF0250EE66E9F
:1001C000340E08D0250EE66E340E6FEC0CF0180ECF
:1001D000E66E340E74EC0CF002E2C6EC0CF07CEC33
:1001E0000CF002E2C9EC0CF0E8EC0CF001E35FD19A
:1001F0001E0E59D179D90F01705101E059D9040E61
:100200000AEC0CF004E0FAEC0BF0010E706F050E36
:100210000AEC0CF002E00F01706B050EE66E5CEC70
:100220001CF0E552000903E00F013BEC0CF0060E58
:100230000AEC0CF001E13BD10F01706B3BEC0CF0D0
:100240000F016E6B030E30D1030E43190BE14451C5
:1002500009E1410EE66E340E6FEC0CF00B0EE66E0B
:10026000340E08D00B0EE66E340E6FEC0CF0FE0E62
:10027000E66E330E74EC0CF004E2C8EC0BF033ECD9
:100280000CF07CEC0CF002E2C3EC0CF0E8EC0CF0AF
:1002900001E30DD1280E3AEC0CF0496B120063D942
:1002A0003EEF03F0040E43190BE1445109E1180E2F
:1002B000E66E340E6FEC0CF0F10EE66E330E08D0E5
:1002C000F10EE66E330E6FEC0CF0E50EE66E330EBB
:1002D00074EC0CF002E2CCEC0CF07CEC0CF002E2E2
:1002E000C6EC0CF0E8EC0CF001E3E1D00F01456B3B
:1002F000466B060ED9D0B1EF07F0D60EE66E330E80
:100300006FEC0CF0C70EE66E330EE5EC0CF0B7ECBC
:100310000CF001E3CCD0C6D0050E43190BE14451DB
:1003200009E1FE0EE66E330E6FEC0CF0BB0EE66ECE
:10033000330E08D0BB0EE66E330E6FEC0CF0B20E2F
:10034000E66E330E74EC0CF002E2CFEC0CF07CECB9
:100350000CF004E2C8EC0BF033EC0CF0E8EC0CF021
:1003600001E3A5D0080E3AEC0CF023EF0AF0B8EF49
:1003700008F0070E43190BE1445109E1E50EE66E62
:10038000330E6FEC0CF0A90EE66E330E05D0A90EFD
:10039000E66E330EF2EC0CF074EC0CF006E2C8ECF6
:1003A0000BF00F01416B010E426F7CEC0CF002E28E
:1003B000CCEC0CF0E8EC0CF001E379D00B0E3AEC4D
:1003C0000CF09D0EE66E330E72EC0BF00F01010E79
:1003D000636F12008D0EE66E330E6FEC0CF00F01A2
:1003E000696B7FEC0CF05F6F62CF60FFB7EC0CF0D5
:1003F0005EE240D0820EE66E330E6FEC0CF0780EAB
:10040000E66E330EE5EC0CF064CF14F02FEC0CF03C
:1004100064CFE6FF87EC0BF0060EE66EE66A94EC1E
:100420000CF065CF14F02FEC0CF065CFE6FF87ECF5
:100430000BF0060EACEC0BF0BEEC0BF002E115502D
:10044000621908E03B0E5F1908E1605106E1615155
:10045000621103E165EC0CF0692B020E695D07E1A6
:100460009D0EE66E330E72EC0BF00F01696BB7EC6C
:100470000CF01DE20A0E17D0B20EE66E330EF7EC4A
:100480000CF0E5EC0CF07CEC0CF002E2CFEC0CF0A4
:10049000EBEC0CF002E2C9EC0CF0E8EC0CF007E23B
:1004A000C8EC0BF0010E0F01416F426B12001200FD
:1004B000BEEC0BF002E11550621908E03B0E5F192B
:1004C00008E1605106E16151621103E1732B65ECB3
:1004D0000CF03C0E735D02E3736B722B3C0E725D8D
:1004E00002E3726B712B1200620EE66E330E6FEC3C
:1004F0000CF0C0EC0CF00A0E0F01715D09E219EC72
:100500000CF0040E77EC0CF0A2EC0CF0050E03D00E
:10051000A2EC0CF0040EFCEC0CF00F01725D09E291
:1005200019EC0CF0070E77EC0CF0A9EC0CF0080EAF
:1005300003D0A9EC0CF0070ED9EC0CF0090E77EC07
:100540000CF00A0E0F01735D09E219EC0CF00A0EB3
:1005500077EC0CF0B0EC0CF00B0E03D0B0EC0CF020
:100560000A0EACEF0BF04A0EE66E330E6FEC0CF099
:10057000C0EC0CF00F015E5104E0450EE66E330E48
:1005800003D0410EE66E330EE66E0C0E77EC0CF0E7
:100590000A0E0F0158AF02D0D89003D0575D000E5D
:1005A000585913E219EC0CF0010EE66EE66E65EC9C
:1005B0000BF042EC0CF015AE02D01668176887EC11
:1005C0000CF0020EE66E010E0AD042EC0CF015AEF5
:1005D00002D01668176887EC0CF0010EE66EE66E26
:1005E00094EC0CF035EC0CF0030E77EC0CF00A0EEA
:1005F0000F015AAF02D0D89003D0595D000E5A595E
:100600000FE219EC0CF0040E77EC0CF049EC0CF056
:1006100015AE02D01668176887EC0CF0050E09D0ED
:1006200049EC0CF015AE02D01668176887EC0CF098
:10063000040EFCEC0CF00F015CAF02D0D89003D09C
:100640005B5D000E5C590FE219EC0CF0070E77ECC5
:100650000CF050EC0CF015AE02D01668176887EC61
:100660000CF0080E09D050EC0CF015AE02D0166854
:10067000176887EC0CF0070EACEF0BF00F01495137
:10068000040A01E1F3D0070A01E18DD0010A5FE01D
:10069000030A31E0010A01E012008EEC0BF007E2E0
:1006A00025EC0CF0010EE66EE66E65EC0BF07CECD2
:1006B0000CF00DE20F01572B000E5823583507E2BE
:1006C00057511708000E585502E2576B586BEBEC68
:1006D0000CF00AE20F015707000E585B800E581508
:1006E00003E0170E576F586BE8EC0CF001E3DED017
:1006F0000F01010EB9D08EEC0BF005E225EC0CF0E9
:10070000040E77EC0CF07CEC0CF00DE20F01592B91
:10071000000E5A235A3507E259513B08000E5A552C
:1007200002E2596B5A6BEBEC0CF00AE20F0159072D
:10073000000E5A5B800E5A1503E03B0E596F5A6B40
:10074000E8EC0CF001E3B2D00F01020E8DD08EEC7C
:100750000BF005E225EC0CF0070E77EC0CF07CECCE
:100760000CF00DE20F015B2B000E5C235C3507E201
:100770005B513B08000E5C5502E25B6B5C6BEBEC83
:100780000CF00AE20F015B07000E5C5B800E5C154B
:1007900003E03B0E5B6F5C6BE8EC0CF001E386D092
:1007A0000F01030E61D07CEC0CF005E20F01010E8D
:1007B0005E6FFAEC0BF0EBEC0CF002E20F015E6BFB
:1007C0000F015E5136E0BEEC0BF002E115506219EC
:1007D00008E03B0E5F192DE160512BE16151621180
:1007E00028E165EC0CF05C3509E25B510008000E75
:1007F0005C5504E25B07000E5C5B1BD05B515C1137
:1008000018E159515A1107E03B0E5B6F5C6B5907B9
:10081000000E5A5B0ED059515A110BE15751581125
:1008200008E05707000E585B3B0E596F5A6B5B6F21
:100830005C6B5751581107E159515A1104E15B5152
:100840005C1101E15E6B5E5109E18EEC0BF006E29A
:1008500057EC0CF0010EE66E65EC0BF0E8EC0CF0DA
:1008600025E20F015E6B040E496F12008EEC0BF057
:1008700005E257EC0CF0E66A65EC0BF0040E0AECAE
:100880000CF004E1050E0AEC0CF002E00F010CD0B4
:10089000E8EC0CF00BE2040E3AEC0CF0576B586BE2
:1008A000596B5A6B5B6B5C6B496B1200120014EC5A
:1008B0000CF0E6520F017C51EA6A010FE96E0F0E4F
:1008C000EA22EFCFDFFF7C293F0B7C6FDF50E55240
:1008D00010EF0CF0D2EF0CF0010E0F01751901E1D1
:1008E000765101E012000F017D51000804E204D8A6
:1008F0000F017D071200120014EC0CF0E652D7DF56
:10090000DF6EDFCFE6FF77EC1AF0E552630E0F01E2
:100910006A1901E16B5101E1E4D0690E6A1901E144
:100920006B5101E1C0D0680E6A1901E16B5101E120
:10093000ABD0670E6A1901E16B5101E190D0660EF0
:100940006A1901E16B5101E17FD0650E6A1901E17D
:100950006B5165E0640E6A1901E16B5155E00E0EB2
:100960006A1901E16B5144E00C0E6A1901E16B5107
:1009700036E00B0E6A1901E16B5128E00A0E6A1984
:1009800001E16B511AE0020E6A1901E16B510CE0B2
:10099000010E6A1901E0CDD06B5101E0CAD0210EE1
:1009A000DF5C01E0C6D02CD0540EDF5C02E10A0E01
:1009B000BED0210EDF5C26E123D0490EDF5C02E1D0
:1009C0000B0EB5D0210EDF5C1DE11AD04D0EDF5CA1
:1009D00002E10C0EACD0210EDF5C14E111D0450E0B
:1009E000DF5C02E10E0EA3D0210EDF5C0BE108D02C
:1009F0003A0EDF5C02E1640E9AD0210EDF5C02E168
:100A0000020E95D0010E93D09DEC0BF001E1531D29
:100A100046E0E8EC0BF006C05DF1650E87D09DEC7A
:100A20000BF001E1531D3BE0525101015D27170E10
:100A3000E66EE66A5D51DCEC0CF002E0660E76D004
:100A4000000EE66E330E43D09DEC0BF001E1531D1A
:100A500026E0E8EC0BF006C05EF1670E67D09DEC77
:100A60000BF001E1531D1BE0525101015E273B0ECB
:100A7000E66EE66A5E51DCEC0CF002E0680E56D0E1
:100A8000C50EE66E320E23D09DEC0BF001E1531D36
:100A900006E0E8EC0BF006C05FF1690E47D0230ECC
:100AA000E66E330E40D09DEC0BF001E1531D15E0D6
:100AB000525101015F273B0EE66EE66A5F51DCECA6
:100AC0000CF002E0630E32D0A00EE66E320E72EC35
:100AD0000BF0EA0EE66E320E26D0860EE66E320E71
:100AE00022D0230EDF5C1AE1010E6A6F6B6B5DC1D1
:100AF000E6FF020EB8EC0BF05EC1E6FF010EB8ECAB
:100B00000BF05FC1E6FFE66ADAEC1EF0E552E55253
:100B1000660EE66E320E72EC0BF00BD04E0EE66EE9
:100B2000320E8BEC0CF072EC0BF0010E0F016A6FC1
:100B30006B6B630E0F016C1901E16D5101E16FD117
:100B4000740E6C1901E16D5101E13DD1760E6C1905
:100B500001E16D5101E1D1D0750E6C1901E16D51CA
:100B600001E1BDD0730E6C1901E16D5101E191D02D
:100B7000720E6C1901E16D5101E17AD06F0E6C19A2
:100B800001E16D5167E06E0E6C1901E16D5155E0A8
:100B90006D0E6C1901E16D5144E06C0E6C1901E1B0
:100BA0006D5136E06B0E6C1901E16D5128E06A0E53
:100BB0006C1901E16D511AE0020E6C1901E16D51E1
:100BC0000CE0010E6C1901E055D16D5101E052D1DC
:100BD000210EDF5C01E04ED12CD0440EDF5C02E13F
:100BE0006A0E1AD1210EDF5C26E123D0410EDF5CB4
:100BF00002E16B0E11D1210EDF5C1DE11AD0540E03
:100C0000DF5C02E16C0E08D1210EDF5C14E111D033
:100C1000450EDF5C02E16D0EFFD0210EDF5C0BE1C3
:100C200008D03A0EDF5C02E16E0EF6D0210EDF5CDA
:100C300002E1020EF1D0010EEFD07FEC0BF001E1EA
:100C4000551D23E0F1EC0BF006C062F107C063F123
:100C50006F0EE1D07FEC0BF001E1551D16E0545111
:100C6000010162270F01555101016323720ED3D098
:100C70007FEC0BF001E1551D08E0F1EC0BF006C034
:100C800064F107C065F1730EC6D0230EE66E330E15
:100C9000BFD07FEC0BF001E1551D01E1B6D05451FE
:100CA000010164270F015551010165230C0EE66E09
:100CB000E66A64C1E6FF65C1E6FFA5EC0BF006E05D
:100CC00001016451651102E0750EA5D0F40EE66EC7
:100CD000310E72EC0BF0EA0EE66E320E99D07FEC1C
:100CE0000BF001E1551D01E190D0F1EC0BF006C0D5
:100CF00066F107C067F1760E8ED07FEC0BF001E154
:100D0000551D01E182D05451010166270F01555153
:100D1000010167236651671104E1DE0EE66E310EB4
:100D20009BD0B1EC0BF0F350F4100CE101016735EE
:100D300009E266511E08000E675504E2BC0EE66E1D
:100D4000310E5DD0B1EC0BF0010EF3180EE1155031
:100D50000CE10101673509E266511F08000E675575
:100D600004E2840EE66E310E4AD0B1EC0BF0020EB6
:100D7000F31811E115500FE1D4EC0BF00CE1010177
:100D8000673509E266511D08000E675504E2620EE0
:100D9000E66E310E34D0B1EC0BF0020EF31811E117
:100DA00015500FE1D4EC0BF00CE00101673509E2BE
:100DB00066511C08000E675504E2400EE66E310EC7
:100DC0001ED0740E28D07FEC0BF001E1551D1DE004
:100DD00054CF68F155CF69F1070EE66EE66A54CF3D
:100DE000E6FF55CFE6FFA5EC0BF006E001016851E8
:100DF000691102E0630E0FD01E0EE66E310E72EC2A
:100E00000BF0A60EE66E310E03D0860EE66E320EA5
:100E100072EC0BF0010E0F016C6F6D6B2BD0230E7B
:100E2000DF5C1DE1010E6C6F6D6B62C1E6FF060EAB
:100E3000B8EC0BF064C1E6FF050EB8EC0BF066C130
:100E4000E6FF040EB8EC0BF068C1E6FF030EB8EC49
:100E50000BF0FE0EE66E300E72EC0BF00BD0DF0ED8
:100E6000E66E300E8BEC0CF072EC0BF0010E0F0105
:100E70006A6F6B6B0F016351630A62E0AD0A52E067
:100E8000030A47E0010A3EE0070A33E0010A27E0CF
:100E9000030A1CE0010A11E0CA0A06E0030A5EE147
:100EA000210EDF5C5BE123D0440EDF5C02E1C80E63
:100EB00054D0210EDF5C50E11AD0480EDF5C02E115
:100EC000C90E4BD0210EDF5C47E111D0540EDF5C20
:100ED00002E1CA0E42D0210EDF5C3EE108D03A0E9C
:100EE000DF5C02E1CB0E39D0210EDF5C35E1020E72
:100EF00034D0CDEC0BF01DE00A0E6603F3CF64FF97
:100F0000CC0E2BD0CDEC0BF014E066516427CD0E47
:100F100024D0CDEC0BF00DE00A0E6603F3CF65FF95
:100F2000CE0E1BD0CDEC0BF004E066516527630EAE
:100F300014D0010E636FD00EE66E300ED3DB0ED0F0
:100F4000230EDF5C04E10C0E416F426B05D0BF0E37
:100F5000E66E300EC7DB0F01010E636FE55210EF36
:100F60000CF00F01455102E1010E46196EE0040E2E
:100F7000451901E1465167E0030E451901E146516B
:100F800054E0010E451901E1465127E0455101E1C8
:100F9000465101E01200B50EE66E300E6FEC0CF01B
:100FA000A90EE66E300E79EC0CF006E2040E0F018D
:100FB000456F466B676B686BEBEC0CF006E2010E5D
:100FC0000F01456F466B476B486B7CEC0CF057E2AA
:100FD0000F01456B010E466F12004751481106E0A4
:100FE0009D0EE66E300EF2EC0CF008D0930EE66E1D
:100FF000300E6FEC0CF09D0EE66E300E74EC0CF0C3
:1010000004E20F01456B010E466F7CEC0CF003E22D
:101010000F01456B466BE8EC0CF031E2030E0F015B
:10102000456F466B010E566F12003FEC0EF075ECEB
:101030000FF00F016F5123E0456B466B6F6B010E94
:10104000416F426B120040EF08F0A90EE66E300EC1
:10105000F7EC0CF079EC0CF002E233EC0CF0EBEC7A
:101060000CF003E20F01456B466B7CEC0CF007E2E1
:10107000010E0F01456F466B476F486B120012005F
:101080000F016751020A5CE0030A36E0010A01E041
:101090001200820EE66E300E6FEC0CF0780EE66EEB
:1010A000300E79EC0CF019E2500EE66E300E1ADBC1
:1010B0001F0EE66E300E16DB0F0EE66E300E12DBE4
:1010C000ED0EE66E2F0E0EDBBC0EE66E2F0E0ADB6B
:1010D000AB0EE66E2F0E06DBB5DB7CEC0CF004E20B
:1010E0000F01020E676F686BEBEC0CF040E20F0132
:1010F000010E676F686B1200685108E19A0EE66E88
:101100002F0EEDDB900EE66E2F0E05D0900EE66EE4
:101110002F0EF2EC0CF0EDDB05E2890EE66E2F0EE1
:10112000E1DA90DBE9DB04E20F01676B010E686F27
:10113000EBEC0CF01CE20F01020E676F010E15D0F4
:10114000780EE66E300EF7EC0CF0D3DB01E28BDBB1
:10115000D3DB05E20F01010E676F020E686FEBEC47
:101160000CF005E20F01676B020E686F12001200AF
:101170000F014A5102E1010E4B1901E1F2D0370E85
:101180004A1901E14B5101E1C3D0360E4A1901E180
:101190004B5101E199D0350E4A1901E14B516EE0F6
:1011A000340E4A1901E14B5145E0330E4A1901E171
:1011B0004B511CE0320E4A1901E14B5101E0120083
:1011C000780EE66E2F0E8BDB670EE66E2F0E8CDB35
:1011D00005E2320E33DB330E4A6F4B6B8DDB04E2DC
:1011E0000F014A6B010E4B6F090EB5D0320E4C1930
:1011F0000AE14D5108E1560EE66E2F0E70DB450EEA
:10120000E66E2F0E07D0450EE66E2F0E68DB340E0D
:10121000E66E2F0E69DB05E2330E10DB340E4A6FEB
:101220004B6B6ADB05E2330E09DB320E4A6F4B6B08
:10123000080E91D0330E4C190AE14D5108E1670EAA
:10124000E66E2F0E4CDB230EE66E2F0E07D0230E1C
:10125000E66E2F0E44DB120EE66E2F0E45DB05E226
:10126000340EECDA350E4A6F4B6B46DB05E2340E7A
:10127000E5DA330E4A6F4B6B010E6DD0340E4C190C
:101280000AE14D5108E1340EE66E2F0E28DB010E07
:10129000E66E2F0E07D0010EE66E2F0E20DBF00E4D
:1012A000E66E2E0E21DB05E2350EC8DA360E4A6FE9
:1012B0004B6B22DB05E2350EC1DA340E4A6F4B6B05
:1012C000FB0EE66EE66849D0350E4C190AE14D5129
:1012D00008E1120EE66E2F0E02DBDF0EE66E2E0E1A
:1012E00007D0DF0EE66E2E0EFADACE0EE66E2E0E6A
:1012F000FBDA05E2360EA2DA370E4A6F4B6BFCDAE8
:1013000005E2360E9BDA350E4A6F4B6B000E23D08A
:10131000360E4C190AE14D5108E1F00EE66E2E0E24
:10132000DEDABD0EE66E2E0E07D0BD0EE66E2E0E78
:10133000D6DAB70EE66E2E0ED7DA05E2370E7EDA73
:101340004A6B010E4B6FD8DA05E2370E77DA360EAC
:101350004A6F4B6B070EE66EE66A19D8E552E55206
:101360001200CE0EE66E2E0EBADAB10EE66E2E0E1C
:101370002CDBC2DA02E2370EA1DA2DDB02E2320EFA
:101380009DDA26DB03E2070E3AEF0CF012004CDA8E
:101390001FDB52E250CF14F051CF15F0FD0EDB50A1
:1013A000141803E1FE0EDB50151846E0FD0EDBCFEE
:1013B00008F0FE0EDBCF09F00F015051085C4E6FB4
:1013C000515109584F6FFD0EDBCF50FFFE0EDBCFA2
:1013D00051FF020E3FDA01015B6F5C6BE8500F01B9
:1013E0004E2501015B6F5C510F014F2101015C6FC4
:1013F000800E5C1508E0180E5B255B6F000E5C210B
:101400005C6FE66A0DD05C350DE25B511708000E8B
:101410005C5508E2180E5B5F000E5C5B010EE66E29
:10142000A2D8E5525BC1E6FF020EA2D9010E22DA74
:10143000380E4A6F4B6B06D0CBDA04E2010E0F0177
:10144000416F426BEDD1070E0F01501901E151516F
:1014500024E0505101E151511EE0FB0E501902E110
:10146000E868511916E0010E501901E151510FE0E1
:10147000080E501901E1515108E0090E501901E11F
:10148000515101E01200320E09D0330E07D0340E54
:1014900005D0350E03D0360E01D0370E4A6F4B6B98
:1014A0001200C2D9300EF36EFE0EDBCFF4FFF35004
:1014B000F45C0CE3FE0EDB50390808E3FE0EDB5053
:1014C000D00F156AF36E15C0F4FF02D0F368F4680C
:1014D000A7D1AAD9FD0EDBCF14F0FE0EDBCF15F09D
:1014E000FB0EDBCF16F0FC0EDBCF17F017501518F4
:1014F000E8AE02D0153404D01450165C15501758BD
:1015000002E2F36A02D0010EF36EF46A89D18CD93B
:10151000E150FD0FE96EFF0EDA20EA6E020EEE18C2
:1015200004E1ED5002E1020E1BD06DD9040EEE185D
:1015300001E1ED5012E067D9060EEE1801E1ED5021
:101540000CE061D9090EEE1801E1ED5006E05BD91F
:101550000B0EEE1804E1ED5002E1F36A02D0010E29
:10156000F36EF46A5DD160D9040EE12673D9DF6EA3
:10157000030E70D9E76E010EE7CFDBFF050E6AD9C7
:10158000E76E020EE7CFDBFF060E64D9E76E030EAF
:10159000E7CFDBFFFE0EDB5039E1DF06010EDB0695
:1015A000F36EDBCFF4FFE850F45C03E2DE52070E8B
:1015B000DD6E010EDF5C6DE2020EDB0407E11F0E43
:1015C000DF6E0C0E87D9030EDB0663D091D8F35083
:1015D000F41004E1020EDB061F0E5AD0F1D90AE125
:1015E000155008E1020EDB50030804E0010E72D929
:1015F0001E0E4ED0E5D94DE115504BE1030EDB50E8
:10160000030B02E11D0E44D01C0E42D0DF2A010E56
:10161000DB2ADB50070803E2DE52010EDD6E020E0C
:10162000DB500C080AE1DF501F0807E2010E52D917
:10163000010EDF6E030EDB2A2CD05AD8F350F410C3
:1016400003E1DF501E0821E3BBD905E1155003E19A
:10165000DF501F081AE34CD8020EF31809E11550A9
:1016600007E1030EDB50030B03E1DF501D080DE320
:101670003FD8020EF3180DE115500BE1030EDB50BD
:10168000030B07E0DF501C0804E2020EDB2A010E08
:10169000DF6EDFCFE6FF040E6BD8010EDBCFE6FF77
:1016A000030E66D8020EDBCFE6FF050E61D8030EEF
:1016B000DBCFE6FF060E5CD8146E040EE15C02E29E
:1016C000E16AE552E16E1450ABD093EC15F0E552AF
:1016D000E552E552E5521200E66E52EC1CF0E5527E
:1016E00000081200E66E6FEC1BF0E552E5521200A6
:1016F000020EDBCFE6FFE66A0ADF9BEF0CF03BD978
:10170000F3CF54FFF4CF55FF0F01F31C120015C0A7
:10171000E6FF16C0E6FF17C0E6FF12005D29146E53
:10172000140E156E0E6E14C009F091EC21F005C078
:101730005DFF0F0105500F0812001DD9F3CF52FFB6
:10174000F4CF53FF0F01F31C1200C3DEE552E55244
:10175000F2D8F350F4101200E66E010EE66E94EF2C
:101760000CF064C1E6FF65C1E6FFD1DE9BEF0CF033
:10177000E66E2CEC1FF0E552E5521200C0D8010EC7
:10178000156A5F25146E60511522145061191200FC
:1017900041CF43FF42CF44FF1200EDD8F3CF66FFA5
:1017A000FF0E0F01F35C120062C116F063C117F067
:1017B000040E0D6E0E6A62C108F063C109F015ECEB
:1017C00020F004C016F005C017F0045005101200F8
:1017D0000A0E086E096A52CF0DF053CF0EF068EF73
:1017E00020F00A0E086E096A54CF0DF055CF0EF0A6
:1017F00068EF20F0E66A37EC1FF0E5520F015F6FEB
:10180000606B7FEF0CF0D950FD0FE96EFF0EDA2010
:10181000EA6E1200E66E52EC1CF0E552000912006E
:10182000E552E7CFD9FF1200D9CFE6FFE1CFD9FFCC
:1018300012005D0EE66E330EE66E12000F014C6F65
:101840004D6B1200AFD8090EBFD05F0EE66E330E9F
:10185000E66E1200E66E37EC1FF0E5521200156AD4
:10186000166A176A1200050EAFD05B0EE66E330ED5
:10187000E66E1200A9D0716B726B736B746B010111
:101880006A6B120057CF14F058CF15F0166A176A1A
:10189000120059CF14F05ACF15F0166A176A1200C9
:1018A0005BCF14F05CCF15F0166A176A12003C0E7D
:1018B000E66E330EE66E0C0EE66E12000F014A6FF6
:1018C0004B6B4C6B010E4D6F120061CF5FFF62CF0F
:1018D00060FF1200F36E020EF3CFDBFF1200E66E24
:1018E000E66AE66A65EF0BF070D8EBEF0CF0E66E97
:1018F00088D06BD8E8EF0CF0040E6CEF0BF0E66AC2
:1019000037EC1FF0E5520F01616F626B120014C0DB
:10191000E6FF87EF0BF0E6DE310EE66E320EE2DE1A
:10192000180EE66E320E120045EC15F0186E060E1B
:10193000E15E18501200E552E552F3CF14F0F4CFF7
:1019400015F0120071CF14F08ADF71CFE6FF87EF38
:101950000BF072CF14F083DF72CFE6FF87EF0BF04E
:1019600073CF14F07CDF73CFE6FF87EF0BF06CECE6
:1019700004F0E8EF0CF0DFCFE6FF93DDE552120054
:1019800064DFE66A3ED004DF030E28D001DF040ED8
:1019900025D0FEDE020E22D0FBDE070E1FD0F8DEC1
:1019A0000A0E1CD00F017B6B0F017C6B0F017D6B4E
:1019B0001200D2DE35EF0CF0E66EE66AA5EF0BF012
:1019C00097DE010EF318120009D0E66EE66A19D010
:1019D000060E6CEF0BF0050E6CEF0BF00F01416F74
:1019E000426B12007CDFA30EE66E330E120077DF2F
:1019F000720EE66E330E1200DCDF060E78DF0A0E82
:0A1A00001200010EE66E65EF0BF018
:061A0A00D9CFE6FFE1CF99
:101A1000D9FF020EE126DE6ADD6A6CD8BBEC13F05A
:101A20009CEC14F0CAD832EC12F0A30EE66E2E0E27
:101A3000E66E060EE66EE66A7DEC14F0E552E552BF
:101A4000E552E552D00EE66E070EE66E0FD8E5526F
:101A5000E55201013351FDE0336B9CEC14F030ECA6
:101A60001CF040EC00F0C4EC14F0F3D7D9CFE6FF43
:101A7000E1CFD9FF040EE126DE6ADD6ADECF14F085
:101A8000DDCF15F0FD0EDBCF16F0FE0EDBCF17F02D
:101A900015501718E8AE02D0173404D01650145C55
:101AA000175015581DE2020EDB6A030EDB6A020EA8
:101AB000DBCF14F0030EDBCF15F0D890155004E601
:101AC000EE0E145C000E155806E2020EDB2A030E21
:101AD000EEE3DB2AECD7DF2A010ED0E3DB2ACED7F8
:101AE000040EE15C02E2E16AE552E16EE552E7CF05
:101AF000D9FF1200936A956A35EC13F065EC1FF07C
:101B000032EC12F0570EE66E120EE66E4DEC1DF042
:101B1000E552E552AE0EE66E240EE66E63EC1DF065
:101B2000E552E552660EE66EB70EE66E92EC1DF0DB
:101B3000E552E552020EE66EE66AEBEC1DF0E55268
:101B4000E5520A0EE66EE66AF7EC1DF0E552E55244
:101B50000A0EE66EE66A10EC1EF0E552E55205EC60
:101B60001CF0A1EC1EF02FEF1AF00101370E486FA8
:101B70003B0E496F170E4A6F070E4B6F1F0E4C6FCF
:101B80000C0E4D6F0D0E4E6F48C1E6FFE66A2CEC51
:101B90001FF0E552E55249C1E6FF010EE1EC11F0FC
:101BA0004AC1E6FF020EE1EC11F0CCEC12F0D1ECF0
:101BB00012F0D6EC12F0DBEF12F0200E77EC12F000
:101BC000220815E0D2DFE66A100EE1EC11F0E66AB9
:101BD000110EE1EC11F0E66A120EE1EC11F0E66A8A
:101BE000130EE1EC11F0220EE66E200EEADB12007D
:101BF000100E77EC12F00101526F110E77EC12F01B
:101C00000101536F120E77EC12F00101546F130EA5
:101C100077EC12F00101586F1200E7DB146E1FEC35
:101C200012F0E66ED4DBE66AE66AD8DB4DC114F04A
:101C30001FEC12F04DC1E6FFCADB030EADEC12F053
:101C400095EC12F0060EADEC12F04BC114F01FEC47
:101C500012F04BC1E6FFBBDB090EADEC12F080ECDD
:101C600012F0E66A010EE66EB9DB87EC12F0030EA5
:101C7000B1EC12F08EEC12F0060EB1EF12F0B5DB03
:101C80004B51070A24E0010A1EE0030A18E0010A8A
:101C900012E0070A0CE0010A06E0030A1EE19F0EAB
:101CA000E66E2E0E17D09B0EE66E2E0E13D0970EFC
:101CB000E66E2E0E0FD0930EE66E2E0E0BD08F0E0C
:101CC000E66E2E0E07D08B0EE66E2E0E03D0870E1C
:101CD000E66E2E0EE66EE3EC12F00A0E01014A5D8E
:101CE00008E2B6DB040E7CEC12F080EC12F0050E7C
:101CF00003D080EC12F0040EADEC12F0E6DB060E21
:101D00007CEC12F00A0E0101495D08E2A1DB070E2E
:101D10007CEC12F087EC12F0080E03D087EC12F086
:101D2000070EADEC12F0D1DB090EE6DB0A0E010165
:101D3000485D07E28DDB0A0EDFDB8EEC12F00B0E46
:101D400002D0ECDB0A0EADEC12F001015451010A95
:101D500006E0010A0AE17F0EE66E2E0E03D07B0E2E
:101D6000E66E2E0EE66E0D0EC7DB0F01565106E035
:101D7000770EE66E2E0EE66E0D0EBEDB01014D51A6
:101D80000C0A42E0070A3CE0010A36E0030A30E0B0
:101D9000010A2AE00F0A24E0010A1EE0030A18E003
:101DA000010A12E0070A0CE0010A06E0030A32E128
:101DB000730EE66E2E0E2BD06F0EE66E2E0E27D013
:101DC0006B0EE66E2E0E23D0670EE66E2E0E1FD023
:101DD000630EE66E2E0E1BD05F0EE66E2E0E17D033
:101DE0005B0EE66E2E0E13D0570EE66E2E0E0FD043
:101DF000530EE66E2E0E0BD04F0EE66E2E0E07D053
:101E00004B0EE66E2E0E03D0470EE66E2E0EE66EDD
:101E1000020E6ADB5FDB050E67DB0A0E01014C5D1B
:101E200006E258DB060E60DB80DB070E02D07DDBAE
:101E3000060E97DB4FDB080E57DB140EE66EE66AE4
:101E4000E66AE66A090EF7DA24DB0A0E01014E5D46
:101E50000AE2E66AE66AE66AE66A0B0EECDA19DB83
:101E600086DB0C0E02D083DB0B0EB1EF12F0340ECA
:101E7000E66E2E0EE66EA7DBE6DAE66A010EE66E89
:101E800093DA0A0E0101525D06E2E2DA020E2CDB61
:101E900075DB030E02D072DB020E63DB16DB040E71
:101EA00023DB0A0E0101535D06E2D2DA050E1CDBCC
:101EB0006CDB060E02D069DB050E53DBCEDA070EB3
:101EC00013DB01015451010A06E0010A0AE17F0E09
:101ED000E66E2E0E03D07B0EE66E2E0EE66E0A0E1A
:101EE00003DBBBDA0D0E74EF12F001015051FF0A53
:101EF00001E1F6D0F40A01E1D0D0010A01E1AAD053
:101F0000030A01E184D0010A5FE00F0A36E0010A0A
:101F10000DE0060A01E012001ADB01E1F5D0010133
:101F2000590501E0F1D0060E506F120049DB03E2C3
:101F30008ADA040EE1DA0EDB09E001014A299BDAB4
:101F400005C04AF105C0E6FF020E3BDA0DDB0CE0EE
:101F500001014A054A6FE850170802E2170E4A6F5E
:101F60004AC1E6FF020E2DDAF2DA03E00101070EA4
:101F7000506F5ADA01E1C8D0B0D022DB03E263DA55
:101F8000070EBADAE7DA09E00101492978DA05C073
:101F900049F105C0E6FF010E14DAE6DA0CE00101B2
:101FA0004905496FE8503B0802E23B0E496F49C1C1
:101FB000E6FF010E06DACBDA03E00101080E506FEE
:101FC00033DA01E1A1D089D0FBDA02E246DAFBDAAA
:101FD000C1DA09E001014B294B6FE850070802E222
:101FE000010E4B6FD9DAC0DA09E001014B054B6FE6
:101FF000E850070802E2070E4B6FCEDAA8DA03E0DA
:102000000101090E506F10DA01E17ED066D0D8DAF6
:1020100003E219DA060E68DA9DDA09E001014C29BB
:102020004C6FE8501F0802E2010E4C6FBADA9CDADE
:1020300009E001014C054C6F010E4C5D02E21F0EE0
:102040004C6FAFDA84DA03E001010A0E506FECD96D
:102050005BE043D0B5DA03E200DA020E45DA7ADA61
:1020600009E001014D294D6FE8500C0802E2010E14
:102070004D6F9CDA79DA09E001014D054D6F010ED3
:102080004D5D02E20C0E4D6F91DA61DA03E0010161
:102090000B0E506FC9D938E020D092DA03E21FDA74
:1020A000090E22DA57DA08E001014E294E6FE85096
:1020B000630801E24E6B7FDA57DA09E001014E0551
:1020C0004E6F630E4E5D02E2630E4E6F74DA3FDABE
:1020D00002E0D9D95069A8D917E0D5D9506B1200C0
:1020E000596BCDDD010156D903E2F9D90C0E04DAA2
:1020F0002EDA05E0D5D90F016F6F0F01566B2ADA82
:1021000002E132DA01E0CCD9120001014F51FF0A9D
:1021100001E184D0FC0A5DE0010A35E0030A0DE02C
:10212000010A01E0120013DA01E187D0010159052B
:1021300001E083D0010E4F6F1200FED903E283D974
:10214000020ED2D907DA09E00101522994D905C05B
:1021500052F105C0E6FF100E34D906DA0CE0010199
:102160005205526FE850170802E2170E526F52C123
:10217000E6FF100E26D9EBD903E00101020E4F6FE6
:1021800053D95BE048D0D8D903E25DD9050EACD96C
:10219000E1D909E00101532972D905C053F105C005
:1021A000E6FF110E0ED9E0D90CE001015305536F83
:1021B000E8503B0802E23B0E536F53C1E6FF110E9D
:1021C00000D9C5D903E00101030E4F6F2DD935E0C9
:1021D00022D0B2D903E241D90A0E86D9BBD907E091
:1021E00001015429010B546FE66E120EEAD8BCD9D6
:1021F0000CE001015405546FE850010802E2010EA1
:10220000546F54C1E6FF120EDCD8A1D902E00101DF
:102210004F690AD912E037D94F6B12008DD903E20A
:102220005ED90A0E69D996D902E19ED901E03FD95B
:102230008ED903E03CD90F016E6F12000101010E2F
:10224000081903E1095101E1010C000C01010A0E1A
:10225000081903E1095101E1010C000C0101010E13
:10226000101903E1115101E1010C000C01010A0EEA
:10227000101903E1115101E1010C000C0101010EE3
:102280000A1901E10B5115E00A0ED8800A55000E1B
:102290000B5510E20AC114F00BC115F0030E0D6EC0
:1022A0000E6A0AC108F00BC109F008D903E1155004
:1022B00001E1010C000C0101010E121901E11351A1
:1022C00015E00A0ED8801255000E135510E212C107
:1022D00014F013C115F0030E0D6E0E6A12C108F052
:1022E00013C109F0EBD803E1155001E1010C000C1A
:1022F000010152514A5D0AE15351495D07E14851DC
:1023000005E1540503E1590501E1010C000C01014F
:102310005151050A16E0010A05E0040A01E0120025
:10232000040E0DD0E5DF000906E00101010E586F33
:10233000E66E130E46D8010158512BE0050E516F81
:102340001200596B5A29146E140EFBD805C05AF1AD
:102350000A0E0101055C02E29CEC14F00101562B0F
:10236000000E5723900ED8805655010E575502E3A4
:10237000F1D80FE00101010E596F586B58C1E6FF0B
:10238000130E1FD80101566B576B9CEC14F0010122
:10239000516B12005529146E140ED3D805C055F197
:1023A000010105500F08120093EC15F0E552E552BB
:1023B000E552E5521200E66E52EC1CF0E5520009BF
:1023C0001200E66E2CEC1FF0E552E552120015C02B
:1023D000E6FF16C0E6FF17C0E6FF120045EC15F059
:1023E000186E060EE15E18501200E66A37EC1FF018
:1023F000E5520101486F010E7AD80101496F020EC2
:1024000076D801014A6F030E72D801014B6F040E9A
:102410006ED801014C6F050E6AD801014D6F060E92
:1024200066D801014E6F1200060EE66E5CEC1CF0E1
:10243000E55200091200E66E010EE66E1200156A02
:10244000166A176A1200310EE66E2E0EE66E120044
:10245000850EE66E2E0EE66E12002D0EE66E2E0E28
:10246000E66E1200E80EE66E030EE66E36EC0DF038
:10247000E552E5521200146E180EA1EF12F0146E20
:102480003C0EA1EF12F09CEC14F00101010E596F0B
:10249000120045EC15F0146E060EE15E14501200A9
:1024A0009CEC14F00101506B010E596F12009CEC72
:1024B00014F001014F6B010E596F12005DEC21F019
:1024C00005C015F0010E04181200830EE66E2E0EE4
:1024D000E66E1200450EE66E2E0EE66E1200280E17
:1024E000E66E2E0EE66E1200A6DFD4EF11F0E66E59
:1024F00037EC1FF0E5521200E66EE66AD4EF11F0F9
:102500004AC114F09CDF4AC1E6FFE7EF11F049C170
:1025100014F095DF49C1E6FFE7EF11F048C114F070
:102520008EDF48C1E6FFE7EF11F04CC114F087DF02
:102530004CC1E6FFE7EF11F0596B99DC0101CAEFDE
:1025400011F0156E0E6E14C009F091EF21F0060E19
:10255000DBEF11F0040EDBEF11F0E66EE66AEEEF52
:1025600011F069DFEEEF11F0050EDBEF11F04EC157
:1025700014F065DF4EC1E6FFE7EF11F052C114F031
:102580005EDF52C1E6FFE7EF11F053C114F057DFF1
:1025900053C1E6FFE7EF11F04BC1E6FF030EE1EF99
:1025A00011F04CC1E6FF040EE1EF11F04DC1E6FF62
:1025B000050EE1EF11F04EC1E6FF060EE1EF11F05E
:0E25C000596BCAEF11F0E66AE66AD4EF11F02B
:0225CE00FBEC24
:1025D00016F07BDB15AE02D01668176820DB13E21D
:1025E00089DB49DB04E6050E145C000E155806E293
:1025F000020EDB2A030EF5E3DB2AF3D7DF2A010EF6
:10260000E8E3DB2AE6D7040EE15C02E2E16AE55288
:10261000E16EBBD2F0DB59DB15AE02D0166817684D
:10262000FEDA13E267DB27DB04E6EE0E145C000E35
:10263000155806E2020EDB2A030EF5E3DB2AF3D778
:10264000DF2A010EE8E3DB2AE6D7040EE15C02E2B2
:10265000E16AE552E16E99D2D4DBF00B6BDBFE0E42
:10266000DB38F00B811278DA90D2C2DB190E50DB26
:102670000F0E8116F80E81160F0E8116300E5ADBE2
:10268000300E58DB300E56DB818A66DA280EE66E95
:10269000E3DFE5520C0EE66EDFDFE552E55275D260
:1026A0009DDB010EDB6A81944ADBE76E010EE7CF0A
:1026B000DBFF819644DBDF6E010EDB50DF1281967B
:1026C000010E51DADF50146E020EE15C02E2E16AA3
:1026D000E552E16E145059D28BDBDF6AE1DFDF6E29
:1026E000DFBEFCD7DF50E55250D28BDB81128186F2
:1026F000050E39DA8196050E36DA47D241DA819431
:10270000050E31DA98DA41D23BDA8184050E2BDAF4
:1027100092DA81943AD23BD33AD332DAFD0EDBCF50
:10272000F6FFFE0EDBCFF7FF0800F5500DE0FD0EC3
:10273000DBCFF6FFDB2AFE0EDBCFF7FF01E3DB2A60
:102740000800F5501BDBEAD720D252DBFD0EDB5030
:102750000F0B146EFE0EDB50010B400DF3501424D2
:10276000DF6E7F0EDF14800FDF6EDFCFE6FFC6DF88
:10277000E552E5520AD2010EE66EC0DFE552E66A86
:10278000E66A07EF17F0FCD9050EE126010EF36E9D
:10279000DB6EB0DA040EDB6ADF6ADFCF14F0156A95
:1027A00014BE156899DA15501718E8AE02D0173420
:1027B00004D01650145C175015581FE2FD0EDBCFE5
:1027C00014F0FE0EDBCF15F0166A176A15AE02D0B4
:1027D00016681768D950010FE96EDACFEAFF14C006
:1027E0000BF015C00CF016C00DF017C00EF0DBDAC0
:1027F000E4EC20F0E1DADF2AD0D7010EDBCF14F0D1
:10280000020EDBCF15F0030EDBCF16F0040EDBCF8C
:1028100017F014C006F015C007F016C008F017C076
:1028200009F0050EE15C02E2E16AE552E16EADD12C
:10283000D5DAFB0EDBCF14F0FC0EDBCF15F0FD0E6E
:10284000DBCF16F0FE0EDBCF17F01450151016106C
:10285000171003E1300E92DA36D0D950FB0F14DA9C
:1028600001E618DA05E22D0E89DAD950FB0FCAD934
:10287000DE52070EDD6E37DAE8AE02D0143403D034
:10288000E750D88014541FE217DA18BE196871D9BE
:1028900036DA5EDA08DA0BE0010EDF6EDB041C6E5E
:1028A0001D6A1CBE1D6883D953DA9FD903D0DF503F
:1028B00002E0300E63DA00DA18BE19685AD9D9502E
:1028C000FB0F6CD9D8D7020EE15C02E2E16AE55257
:1028D000E16E5BD155D9C7D9D950F90F53DAEECF94
:1028E000E6FFEECFE6FFEECFE6FFEFCFE6FFA0DF9D
:1028F000E552E552E552E55248D142D9B4D9FB0E32
:10290000DBCFE6FFFC0EDBCFE6FF07DFE552E5524B
:102910003CD136D9FCC014F0FDC015F0040ED8909F
:1029200014361536E806FBE192D9FE0EDBCFEFFF39
:10293000FE2B000EFF2329D15BDADF6ADFCF14F014
:10294000100EE76E1418E8AE02D0E73402D0E7505C
:10295000145C18E2DFCFE9FFEA6AE9BEEA68C10E5B
:10296000E926000EEA22200EEF6EDFCFE9FFEA6AC9
:10297000E9BEEA68D10EE926000EEA22200EEF6ECB
:10298000DF2ADCD7E55201D133DA0001C051030A56
:1029900029E0010A1CE0030A0CE0010A32E13BDAFB
:1029A000080EDF5C03E2DF50B9D9FAD70001010E4F
:1029B00017D0080EE66EE66A09D9080EDF5C04E25D
:1029C000080EDF24ABD9F9D70001020E09D00BDACB
:1029D000080EDF5C03E2DF50A7D9FAD70001030E2F
:1029E000C06F10D0080EE66E010EE66EEFD8080E2E
:1029F000DF5C04E2080EDF2497D9F9D70001C06B31
:102A000001D0C06BE552C1D0F3D90001C051010A19
:102A10000DE0010A15E1FFD9100EDF5C03E2DF5083
:102A20007DD9FAD70001010EC06F0BD0DCD9100E92
:102A3000DF5C03E2DF5078D9FAD70001C06B01D028
:102A4000C06BE552A2D0D4D9E6D9100EDF5C03E208
:102A5000DF5064D9FAD7C7D9100EDF5C03E2DF502C
:102A600063D9FAD7E55291D08BD8B3D8FCC014F013
:102A7000FDC015F0040ED89014361536E806FBE1BB
:102A8000E6D8FC0EDBCFEFFF80D0A8D9A2D8F90E94
:102A9000DBCF14F0FA0EDBCF15F01ED91450151051
:102AA0001610171003E1300E0CD936D0D950F90F9B
:102AB000EBD801E6EFD805E22D0E03D9D950F90F76
:102AC000A1D8DE52070EDD6E0ED9E8AE02D0143466
:102AD00003D0E750D88014541FE2EED818BE19680E
:102AE00048D80DD940D9DFD80BE0010EDF6EDB04EA
:102AF0001C6E1D6A1CBE1D685AD835D976D803D005
:102B0000DF5002E0300EDDD8D7D818BE196831D8B2
:102B1000D950F90F43D8D8D7020EE15C02E2E16A3E
:102B2000E552E16E32D02CD854D8FB0EDBCFF6FF45
:102B3000FC0EDBCFF7FF0800F5500DE0FB0EDBCFFE
:102B4000F6FFDB2AFC0EDBCFF7FF01E3DB2A0800F0
:102B5000F550B7D8EAD719D08186010ED9D8819619
:102B6000010E88EF16F0E66EE66AE66AE66A2FDD89
:102B700056D118C0E6FF19C0E6FF10D9E5EF16F0F0
:102B8000D9CFE6FFE1CFD9FF1200E552E7CFD9FF59
:102B90001200EA22EF50F2D8DF2A1200F3D8AFD8A1
:102BA00002D91CEC21F008D9010EDB0612001CC072
:102BB000E6FF1DC0E6FFF2D806C018F007C019F006
:102BC00008C01AF009C01BF07FEF16F020D9DF6AA9
:102BD0001200FE0EDB50010B0001FC6FFD6BFD0EC1
:102BE000DB500F0BFE6FFF6B1200DBCF09F01CEC0C
:102BF00021F0EBD8300E1426000E152216221722D3
:102C000014501200BFD8000EEE6CEF1EEE22EF1E25
:102C1000EE22EF1EEF22ED52ED52ED521200D9508E
:102C2000FB0FB0D8EE50145CEE501558EE5016580D
:102C3000EE5017581200FE0EDBCFE6FF56DDE552D0
:102C4000FE0EDB38F00BE66E50DDE5521200C10ED1
:102C50001426000E152214500001FE25E96E1550B1
:102C6000FF21EA6E1200FD0EDBCFE6FFFE0EDBCF8A
:102C7000E6FF07EF17F0020EDBCF14F0030EDBCFF9
:102C800015F0D890155012007DD8D890030EEB5057
:102C9000000A1200000EEE5C000EEE58000EEE5818
:102CA000000EEE581200DBCF09F01CEC21F00650AC
:102CB0000710081009101200010EDB04186E196AC3
:102CC0001200E66E26DEE5521200DECF14F0DDCFF4
:102CD00015F0166A176A1200FB0EDBCF16F0FC0E19
:102CE000DBCF17F01200010EDBCF14F0000EE76E01
:102CF00014181200020EDB6A030EDB6A120006C013
:102D00000BF007C00CF008C00DF009C00EF0120067
:102D1000E66EE66AE66AE66A7DDC81D0EA6AC10FA1
:102D2000E96E000EC9EF15F0EA6AD10FE96E000EE8
:102D3000C9EF15F0811210DF0F0E811612000F0E71
:102D400012DF0F0E811281860EDF0F0E811412002A
:102D5000FB0EDBCF06F0FC0EDBCF07F0FD0EDBCF6A
:102D600008F0FE0E1200F90EDBCF06F0FA0EDBCFF4
:102D700007F0FB0EDBCF08F0FC0E1200E66ECCDC99
:102D8000E5521200E96EFF0EDA20EA6E1200F8DE5C
:102D9000FE0EDBCFE6FFB8DCE552F7D60A0EE66E94
:102DA000E66AF1DC3CD0EECF06F0EECF07F0EECFD6
:102DB00008F0EFCF09F0120005C0EDFF04C0EDFFF1
:102DC00003C0EDFF02C0EFFF120006C014F007C001
:102DD00015F008C016F009C017F01200D1DE020E7F
:102DE000E126DF6A1200E66A010EE66EE6EF15F0F4
:102DF000C7DEE6521200C4DE040EE126DE6ADD6A9A
:102E00001200BEDE0F0E8116FE0EDB5012009DDC9E
:102E1000E552E5521200E66AE66AE6EF15F0E55281
:082E2000E552E552E5521200F3
:082E28002020202000202020C2
:102E3000002020002020414C41524D2020204241C2
:102E4000434B2020002000444543004E4F56004F86
:102E500043540053455000415547004A554C004AE1
:102E6000554E004D415900415052004D41520046CF
:102E70004542004A414E004F4B20004F4E20004F2C
:102E80004646003A0030005341540046524900542F
:102E900048550057454400545545004D4F4E00538A
:102EA000554E004449474954414C20434C4F434BF5
:102EB000003E4241434B00204241434B003E4841CB
:102EC0004E4F49202020205554432B3037002048B6
:102ED000414E4F49202020205554432B3037003E8F
:102EE0004C4F4E444F4E2020205554432B30300041
:102EF000204C4F4E444F4E2020205554432B303011
:102F0000003E4E4557594F524B20205554432D30CB
:102F10003500204E4557594F524B20205554432DD4
:102F20003035003E50415249532020202055544313
:102F30002B3031002050415249532020202055543D
:102F4000432B3031003E4245494A494E47202055E7
:102F500054432B30380020544F4B594F2020202011
:102F60005554432B303900204245494A494E4720A9
:102F7000205554432B3038003E544F4B594F20209E
:102F800020205554432B3039002154494D4523000E
:102F90003E496E7465726E65740020566972747570
:102FA000616C5465726D696E616C002144415445D9
:102FB0003A59594D4D444464230D0A000D0A546F8B
:102FC0002073796E6368726F6E697A6520646174CC
:102FD000652C207573696E672073796E7461782033
:102FE000617320666F6C6C6F773A0D0A00546865E8
:102FF0002074696D65206E65656420746F2062655C
:103000002032342D6820666F726D61740D0A0021C4
:1030100054494D453A48484D4D5353230D0A000D30
:103020000A546F2073796E6368726F6E697A6520D7
:1030300074696D652C207573696E672073796E7481
:10304000617820617320666F6C6C6F773A0D0A00AF
:103050000D0A57656C636F6D6520746F20416C615C
:10306000726D20436C6F636B20636F6E736F6C6562
:10307000206D656D750D0A0020496E7465726E6570
:1030800074003E5669727475616C5465726D696E38
:10309000616C00205573652055415254003E5573B4
:1030A0006520427574746F6E0020557365204275FB
:1030B00074746F6E003E5573652055415254004341
:1030C0006F6E6669726D204572726F72210D0A0013
:1030D00052656164206572726F7220210D0A000DC5
:1030E0000A4E65656420636F6E6669726D20646167
:1030F0007465206368616E676520210D0A000D0A02
:10310000436F6E66696775726174696F6E204461A2
:1031100074652053756363657373210D0A000D0A8E
:1031200044415445206D75737420626520696E209A
:1031300072616E6765205B312C375D20210D0A00BE
:103140000D0A446179206D75737420626520696E83
:103150002072616E6765205B312C32385D20210D55
:103160000A000D0A446179206D7573742062652030
:10317000696E2072616E6765205B312C32395D208B
:10318000210D0A000D0A446179206D757374206267
:103190006520696E2072616E6765205B312C33316A
:1031A0005D20210D0A00506C6561736520656E74A9
:1031B000657220616761696E210D0A000D0A446124
:1031C00079206D75737420626520696E2072616E5E
:1031D0006765205B312C33305D20210D0A000D0A1C
:1031E00020446179206D757374206265203E203023
:1031F000210D0A000D0A4D6F6E7468206D75737491
:1032000020626520696E2072616E6765205B312CDB
:1032100031325D20210D0A000D0A506C6561736525
:1032200020656E74657220616761696E20210D0AE8
:10323000000D0A43686172616374657220636F6E8A
:103240006669726D206973202723270D0A000D0A15
:103250004E65656420636F6E6669726D2074696D7A
:103260006520210D0A000D0A436F6E66696775724D
:103270006174696F6E2054696D6520537563636571
:103280007373210D0A000D0A506C6561736520652A
:103290006E746572206E756D62657220210D0A0074
:1032A0000D0A5365636F6E64206D757374206265DB
:1032B00020696E2072616E6765205B302C35395D48
:1032C00020210D0A000D0A4D696E757465206D751B
:1032D000737420626520696E2072616E6765205B81
:1032E000302C35395D20210D0A00706C65617365E5
:1032F00020656E74657220616761696E210D0A0038
:103300000D0A486F7572206D7573742062652069AF
:103310006E2072616E6765205B302C32335D202138
:103320000D0A000D0A506C6561736520656E746549
:1033300072206E756D626572210D0A0020202020BA
:103340000052554E0053544F500054494D455220A1
:10335000434C4F434B204241434B003A0030002046
:10336000200020202053544F5020574154434820E0
:1033700020003E4261636B0048554D493A202020B1
:10338000250054454D503A2020202A4300526563C1
:103390006576696E6720646174612E2E0021444851
:1033A000542300204261636B003E57656174686579
:1033B00072002057656174686572003E576F726CC9
:1033C000642054696D65005541525420746F206D1E
:1033D0006F6469667900506C6561736520636F6E18
:1033E0006E6563740020576F726C642054696D655C
:1033F000003E54696D65204D6F6469667900205404
:10340000696D65204D6F64696679003E54696D652C
:103410007220436C6F636B002054696D65722043AA
:103420006C6F636B003E436F756E74657220436C06
:103430006F636B0020416C61726D20436C6F636B36
:103440000020436F756E74657220436C6F636B0070
:0D3450003E416C61726D20436C6F636B0038
:02345E00B06A52
:10346000810EAF6EAC8AAC94B886AC98AB8EAB884C
:103470009E9A9D8A9F8A949C948E120069D9040E0C
:10348000E126DE6ADD6ADECF14F0DDCF15F097D9D4
:1034900015501718E8AE02D0173404D01650145C3B
:1034A000175015581DE2020EDB6A030EDB6A020E8E
:1034B000DBCF14F0030EDBCF15F0D890155004E6E7
:1034C000EE0E145C000E155806E2020EDB2A030E07
:1034D000EEE3DB2AECD7DF2A010ED5E3DB2AD3D7D4
:1034E000040EE15C02E2E16AE552E16E36D130D9C8
:1034F0009EA8FED7FE0EDB50AD6E9E982ED128D929
:1035000056D908E054D934D9FD0EDB2AFE0EF8E373
:10351000DB2AF6D722D11CD9050EE126010EF36E67
:10352000DB6E020EDB6A030EDB6A040EDB6ADF6A07
:10353000DFCF14F0156A14BE1568FB0EDBCF16F052
:10354000FC0EDBCF17F015501718E8AE02D0173479
:1035500004D01650145C175015581FE2FD0EDBCF37
:1035600014F0FE0EDBCF15F0166A176A15AE02D006
:1035700016681768D950010FE96EDACFEAFF14C058
:103580000BF015C00CF016C00DF017C00EF0F4D8FB
:10359000E4EC20F0FAD8DF2ACBD7010EDBCF14F011
:1035A000020EDBCF15F0030EDBCF16F0040EDBCFDF
:1035B00017F014C006F015C007F016C008F017C0C9
:1035C00009F0050EE15C02E2E16AE552E16EC5D068
:1035D000BFD8020EE126DF6AFB0EDBCF14F0FC0E33
:1035E000DBCF15F0ECD8145015101610171003E1AE
:1035F000300EBED86DD0B5D8D890030EEB50000A6F
:1036000008E6000EEE5C000EEE58000EEE58000EBE
:10361000EE580EE22D0EACD8A4D8000EEE6CEF1EC4
:10362000EE22EF1EEE22EF1EEF22ED52ED52ED5292
:10363000DE520A0EDD6E010EDBCF14F0000EE76ED7
:103640001418E8AE02D0143403D0E750D8801454D4
:103650003FE2010EDB04186E196A18BE196871D8B2
:1036600061D806500710081009101EE0010EDF6E29
:10367000DB041C6E1D6A1CBE1D681CC0E6FF1DC05D
:10368000E6FFA4D806C018F007C019F008C01AF069
:1036900009C01BF047D8A3D8300E1426000E1522FF
:1036A00016221722145003D0DF5002E0300E60D8EB
:1036B000010EDB04186E196A18BE196842D851D879
:1036C00097D85AD81CEC21F060D8010EDB06B3D78E
:1036D000020EE15C02E2E16AE552E16E3ED038D8CA
:1036E0005DD80CE05BD844D8FD0EDBCFF6FFDB2ABB
:1036F000FE0EDBCFF7FFF4E3DB2AF2D72ED028D87B
:10370000E652AE50DF6E0F017B51EA6A010FE96E9F
:103710000F0EEA22DFCFEFFF7B293F0B7B6F7D2B64
:10372000E5521BD065D8FB0EDBCF06F0FC0EDBCFDD
:1037300007F0FD0EDBCF08F0FE0EDBCF09F01CEF2B
:1037400021F018C0E6FF19C0E6FF40D8EFEF1BF0EC
:10375000D9CFE6FFE1CFD9FF1200E552E7CFD9FF7D
:103760001200D950FB0FE96EFF0EDA20EA6E12004C
:10377000E66EBDDEE5521200EECF06F0EECF07F0AA
:10378000EECF08F0EFCF09F0120005C0EDFF04C046
:10379000EDFF03C0EDFF02C0EFFF1200FD0EDBCF17
:1037A000F6FFFE0EDBCFF7FF0800F5501200FD0E0E
:1037B000DBCFE9FFFE0EDBCFEAFFEF501200FD0E7C
:1037C000DBCF16F0FE0EDBCF17F012000A0EE66E0E
:1037D000E66AA1DEE552E552E552E552120006C066
:1037E00014F007C015F008C016F009C017F0120059
:1037F00006C00BF007C00CF008C00DF009C00EF0B9
:023800001200B4
:0E3802000F0E946E82681200070E9410946EE2
:10381000DF0E9414946E82681200D0D808D901E6A5
:1038200001D917E2DDD8826EF8D8D1D801E6FAD8EE
:103830000BE2B7D802E1FFD801D01DD9020EDB2A76
:10384000030EF3E3DB2AF1D7DF2A010EE7E3DB2ADD
:10385000E5D7040EE15C02E2E16AE552E16ED9D0FF
:10386000ADD8DBD8010EDE6EDD6ABAD88214826E66
:10387000D4D8ADD804E6030E145C000E15580BE244
:1038800090D802E1D8D801D0F6D8020EDB2A030E78
:10389000F0E3DB2AEED7040EE15C02E2E16AE552D6
:1038A000E16EB7D0A7D8010EEE1804E1ED5002E1A9
:1038B000010E01D0000EADD09DD8320EEE1804E1FD
:1038C000ED5002E1010E01D0000EA3D077D8D7D879
:1038D000FD0EDBCF16F0FE0EDBCF17F015501718DC
:1038E000E8AE02D0173404D01650145C17501558A7
:1038F00013E293D86CD804E6EE0E145C000E155853
:1039000006E2020EDB2A030EF5E3DB2AF3D7DF2AF9
:10391000010EDDE3DB2ADBD7040EE15C02E2E16AA3
:10392000E552E16E76D04AD882D801E67BD822E211
:1039300057D8826E72D84BD801E674D80DE29BD866
:1039400030D804E11ED8010EEE6EED6A020EDB2ABD
:10395000030EF1E3DB2AEFD78250816EE80EE66EAC
:10396000030EE66EB3DFE552E552DF2A010EDCE31B
:10397000DB2ADAD7040EE15C02E2E16AE552E16E8D
:1039800048D07DD8D89014361536D89014361536D0
:10399000020EDB501424E96E030EDB50152044EFB9
:1039A0001DF0020EDBCFE9FF030EDBCFEAFF240E92
:1039B000E926010EEA22EF5082141200D9CFE6FF69
:1039C000E1CFD9FF040EE126DE6ADD6A1200020EA5
:1039D000DBCF14F0030EDBCF15F0D890155012009A
:1039E000DECFE9FFDDCFEAFF200EE926010EEA2255
:1039F000EF1C1200D9CFE6FFE1CFD9FFFE0EEA6A35
:103A0000DB34FE0BEA36E96E000EE926010EEA22EF
:103A10001200E552E7CFD9FF1200020EDB6A030E57
:103A2000DB6A1200040E145C000E1558120027D831
:103A3000D89015501200DECF18F0DDCF19F0D890D5
:103A400018361936D89018361936020EDB5018245D
:103A5000E96E030EDB50192017D8EECF16F0EFCF2A
:103A600017F0010E1626000E17228BDF16C0EEFF90
:103A700017C0EDFF120085DFEE6AED6A1200DECF9F
:103A800014F0DDCF15F01200EA6ED890E936EA3670
:0A3A9000000EE926010EEA221200E2
:063A9A00F1D8D59EFD0EDF
:103AA000DBCF28F1FE0EDBCF29F1D59C05D9D59AC5
:103AB000D586F28AF294F184D58EE6D0D59E120096
:103AC000FBD8D58E1200DBD8CD90FD0EDBCF2AF1CE
:103AD000FE0EDBCF2BF1F7D89D809E909F90CD8E70
:103AE000CD8CCD98CD9ACD96CD92CD80CDD0EBD842
:103AF000CD801200CD901200C2D8CA94CC6AFE0EBE
:103B0000DB5001012C6F2D6BCB6E9D829E929F929C
:103B1000CA90CA92CA84B8D02CC1CBFFCA84120002
:103B2000CA941200ACD8B190FD0EDBCF2EF1FE0E80
:103B3000DBCF2FF1CFD80750B36ECCD8B5D8B26E4B
:103B4000A082A192A292B18EB198B19AB192B180A5
:103B50009BD0C0D80350B26EBDD89ED8B36EB18092
:103B60001200B19012000101382B000E3923405190
:103B7000385D4151395904E3386B396B010E306FB0
:103B8000120001013A2B000E3B2342513A5D435192
:103B90003B5904E33A6B3B6B010E316F120001019C
:103BA0003C2B000E3D2344513C5D45513D5904E3FF
:103BB0003C6B3D6B010E326F120001013E2B000E7B
:103BC0003F2346513E5D47513F5904E33E6B3F6BF7
:103BD000010E336F120053D8FD0EDBCF40F1FE0E05
:103BE000DBCF41F10101386B396B306B4DD047D8D9
:103BF000FD0EDBCF42F1FE0EDBCF43F1050E0D6E65
:103C00000E6A42C108F043C109F015EC20F008C06B
:103C100042F109C043F101013A6B3B6B316B34D087
:103C20002ED8FD0EDBCF46F1FE0EDBCF47F10A0E9C
:103C30000D6E0E6A46C108F047C109F015EC20F080
:103C400008C046F109C047F101013E6B3F6B336B81
:103C50001BD01C6A1A50175C146E1B501858156E36
:103C60001C501958166E0C6A010E0D6E0E6A14C0A7
:103C700007F015C008F016C009F03BEF20F0D9CFCF
:103C8000E6FFE1CFD9FF1200E552E7CFD9FF1200DE
:103C900017681868196A120007C014F008C015F0F8
:103CA00009C016F00750120003C014F004C015F04C
:103CB00005C016F00350120014D80350D66E11D868
:103CC000EBDFD76E120014D80750CF6E11D8ECDF9F
:103CD000CE6E1200DDDF2EC11AF02FC11BF029EFCE
:103CE0001EF0D6DF28C11AF029C11BF029EF1EF003
:0E3CF000CFDF2AC11AF02BC11BF029EF1EF006
:023CFE00BED82E
:103D0000020EE126FE0EDB500F0BDF6EFE0EDB38DF
:103D10000F0B0A0DBCD802E2E16AE552E16E1450C5
:103D2000B2D0ACD8020EE126BBD80550DF6EB8D8B1
:103D30000950100DACD802E2E16AE552E16E145070
:103D4000A2D094869488C79EC79CC690C692C694FB
:103D5000C686310EC86EC68A120090D89E96FE0E98
:103D6000DB50D00FC96E9EA6FED78DD09E96C58023
:103D70009EA6FED712009E96C5849EA6FED7120070
:103D80007DD89E96FE0EDB50C96E9EA6FED77BD0D8
:103D90009E96C5869EA6FED7C95012009E96C59ACD
:103DA000C5889EA6FED712009E96C58AC5889EA687
:103DB000FED7120063D87CD8010E7E6FE85004E075
:103DC000C550400BFAE0F8D779D8010E7E6FE85065
:103DD00004E0C550400BFAE0F8D7FD0EDBCFE6FF5C
:103DE000A0DFE552E66ECCDFE5520F01010E7E6FDB
:103DF000E85004E0C550400BFAE0F8D7BCDF43D0F0
:103E00003DD8E65255D8010E7E6FE85004E0C5500B
:103E1000400BFAE0F8D752D8010E7E6FE85004E06C
:103E2000C550400BFAE0F8D7A1DF010EE66E95DF32
:103E3000E5520F01010E7E6FE85004E0C550400BC3
:103E4000FAE0F8D7A5DFDF6EDFCFE6FF58DFE552F7
:103E5000DF6EDF50E55217D011D8FD0EDBCFE6FF45
:103E6000FE0EDBCFE6FFA6DFE552E5520CD006D80A
:103E7000FE0EDBCFE6FFC4DFE55205D0D9CFE6FF6B
:103E8000E1CFD9FF1200E552E7CFD9FF1200010EB2
:103E9000F3CFDBFFDB50DF24146E020EE15C120077
:103EA0000A0E146E0E6EFE0EDBCF09F091EF21F0BC
:103EB0005DDFE66A52DFE5520F011200FE0EDBCF36
:0A3EC000E6FF5EDFE5520F0112007D
:063ECA00F28ED08EF28C96
:103ED0001200F19CF292F2881200D8CFE4FFE0CFFA
:103EE000E4FFE46E65D800EE00F0140EE80403E38E
:103EF000EECFE4FFFBD700EE14F00A0EE80403E374
:103F0000EECFE4FFFBD7E652F2B47AD89EB07FD86A
:103F1000A1B284D8F2B2F2929EBA9E9AE55200EE15
:103F20001DF00A0EE80403E3E5CFEDFFFBD700EE3A
:103F300013F0140EE80403E3E5CFEDFFFBD74DD8F3
:103F4000E550E5CFE0FFE5CFD8FF100031D800EE17
:103F500000F0140EE80403E3EECFE4FFFBD700EE1D
:103F600014F00A0EE80403E3EECFE4FFFBD7E652B9
:103F7000F2B446D89EB04BD8A1B250D8F2B2F29269
:103F80009EAA03D07FEC1BF09E9AE55200EE1DF036
:103F90000A0EE80403E3E5CFEDFFFBD700EE13F0D4
:103FA000140EE80403E3E5CFEDFFFBD716D81100AC
:103FB000DACFE4FFE2CFDAFFE9CFE4FFEACFE4FFB4
:103FC000F6CFE4FFF7CFE4FFF5CFE4FFF3CFE4FF54
:103FD000F4CFE4FFFACFE4FF1200E5CFFAFFE5CF1C
:103FE000F4FFE5CFF3FFE5CFF5FFE5CFF7FFE5CF32
:103FF000F6FFE5CFEAFFE5CFE9FFE5CFDAFF1200F4
:104000005EEC1DF0F29460EC1DF0B3EF1DF07AEC65
:104010001DF09E9077EC1DF0C1EF1DF0B1EC1DF08E
:0A402000A192A9EC1DF0DDEF1DF0E8
:06402A00006A0EAE1EEF5D
:1040300020F00D6C0E1EE86A0E22001E09AE26EF5F
:1040400020F0086C091EE86A0922001E5DEC21F0D0
:1040500009BE36EF20F000AE000C086C091EE86ABD
:104060000922046C051EE86A0522000C00BE2DEF33
:1040700020F00188FF0C006A0EAE46EF20F00C6CB9
:104080000D1E0E1EE86A0D220E22001E09AE50EF14
:1040900020F0076C081E091EE86A08220922001E8B
:1040A00040EC21F009BE63EF20F000AE000C076C7D
:1040B000081E091EE86A08220922036C041E051E58
:1040C00004220522000C00BE57EF20F00188FF0CEF
:1040D00009C013F008C012F008500D02F4CF07F029
:1040E000F3CF06F009500E02F4CF09F0F3CF08F039
:1040F0000D02F3500726F4500822E86A09221250F4
:104100000E02F3500726F4500822E86A09220EAE88
:104110008EEF20F01250085E1350095A13AE000CB7
:0A4120000D50085E0E50095A000C05
:06412A001E0EF66E000EF1
:10413000F76E000EF86E01010900F550706F09006E
:10414000F550716F03E1706701D03DD00900F55063
:104150006B6F0900F5506C6F0900F5506D6F090029
:104160000900F550E96E0900F550EA6E09000900F2
:104170000900F5506E6F0900F5506F6F09000900D6
:10418000F6CF72F1F7CF73F1F8CF74F16BC1F6FF90
:104190006CC1F7FF6DC1F8FF01016E5302E16F536F
:1041A00007E00900F550EE6E6E07F8E26F07F9D7E9
:1041B00072C1F6FF73C1F7FF74C1F8FF0101700708
:0841C000000E715BBFD7120075
:0841C80006500B02F3CF02F0D8
:1041D000F4CF03F00C02F3500326000EF420046E1B
:1041E00006500D02F3500426000EF420056E065012
:1041F0000E02F350052607500B02F3500326F4502D
:104200000422000E052207500C02F3500426F4503D
:10421000052207500D02F350052608500B02F350FB
:104220000426F450052208500C02F35005260950CC
:084230000B02F35005261200F9
:08423800056A046A036A026AC8
:10424000200EE76ED8900636073608360936023655
:104250000336043605360B50025C0C5003580D50E3
:1042600004580E50055809E30B50025E0C50035AD7
:104270000D50045A0E50055A062AE72EE4D71200B4
:10428000056A046A036A180EE76ED8900736083686
:1042900009360336043605360C50035C0D500458BD
:1042A0000E50055807E30C50035E0D50045A0E5093
:0A42B000055A072AE72EEAD712008C
:0642BA00056A046A100E03
:1042C000E76ED89008360936043605360D50045C82
:1042D0000E50055805E30D50045E0E50055A082A8D
:0642E000E72EF0D71200EA
:0A42E600800EF36E00EE00F00F0EE4
:1042F00001D81200EA6002D0EE6AFCD7F350E96000
:064300001200EE6AFCD77A
:0A4306001EEE00F02EEE00F0F86A43
:10431000019C95EC20F003EC00F005EC0DF0FBD7D0
:02432000120089
:0E432200056A080EE76ED890093605360E5073
:0E433000055C02E3056E092AE72EF7D712009E
:02433E0000007D
:10434000000000000000000000000000000000006D
:0E43500000000000000001000100010001005B
:02435E0001005C
:10436000000000000000003200320007000700FFDC
:10437000FFFFFF0000000000000000000000000040
:10438000010000000000000100010000000000002A
:044390000000010028
:0C4394000000000000000000000000001D
:0743A0000000000000010015
:0943A700000000000000000010FD
:1043B0001010101010101018181818181818181CB1
:1043C0001C1C1C1C1C1C1C1E1E1E1E1E1E1E1E1F1A
:1043D0001F1F1F1F1F1F1F00000000000000000004
:1043E00000000000000000000000000000000000CD
:1043F00000000000000000000000000000000000BD
:084400000000000000000000B4
:08440800000000D00022222276
:104410000725091000010000000000000000000056
:0344200000000099
:0D442300000000000000000000000000008C
:10443000000000000000000000000000000000007C
:0B444000000000102040800102040872
:020000040030CA
:0100010002FC
:0100020003FA
:010003001EDE
:010005008179
:010006008178
:010008000FE8
:01000900C036
:01000A000FE6
:01000B00E014
:01000C000FE4
:01000D0040B2
:00000001FF
