:020000040000FA
:0600000074EF21F0120074
:020006001200E6
:0600080097EF1FF012004B
:02000E000000F0
:0100100000EF
:0400110000000000EB
:060018005EEF1FF0120074
:02001E000800D8
:10002000054400000001000028000000EA43000031
:10003000E10000001B00000011000000770F00002D
:1000400004000000894300008000000061000000FF
:100050007643000048010000130000004043000008
:10006000410F00003600000020430000280100007E
:10007000200000000E0000007B0F000003000000C5
:100080000F01415102E1010E421901E1EED10C0EC6
:10009000411901E1425101E1A6D10B0E411901E1E3
:1000A000425101E196D10A0E411901E1425101E1AB
:1000B00060D1080E411901E1425101E158D1070E0A
:1000C000411901E1425101E127D1090E411901E134
:1000D000425101E112D1060E411901E1425101E103
:1000E0000AD1050E411901E1425101E1DBD0280E90
:1000F000411901E1425101E1D2D0040E411901E15F
:10010000425101E1A1D01E0E411901E1425172E0BC
:10011000030E411901E1425147E0140E411901E17A
:10012000425137E0020E411901E1425115E0010E42
:10013000411901E1425101E0120038EC0EF080EC6F
:1001400011F0E1EC0CF001E3ABD1020E33EC0CF05A
:10015000010E436F446B1200320EE66E340E68ECF3
:100160000CF0230EE66E340E6DEC0CF002E2BCECEB
:100170000CF0E1EC0CF004E2140E0F01416F426B45
:1001800075EC0CF001E38CD10F01416B010E426F55
:10019000120030EC0FF07EEC10F00F016E5101E117
:1001A0007FD16E6B020E79D1020E43190BE14451DF
:1001B00009E1160EE66E340E68EC0CF0070EE66EE2
:1001C000340E08D0070EE66E340E68EC0CF0FA0E12
:1001D000E66E330E6DEC0CF002E2BFEC0CF075EC49
:1001E0000CF002E2C2EC0CF0E1EC0CF001E358D1AF
:1001F0001E0E52D172D90F01705101E052D9040E76
:1002000003EC0CF004E0F3EC0BF0010E706F050E44
:1002100003EC0CF002E00F01706B050EE66E4DEC86
:100220001CF0E552000903E00F0134EC0CF0060E5F
:1002300003EC0CF001E134D10F01706B34EC0CF0E5
:100240000F016E6B030E29D1030E43190BE14451CC
:1002500009E1230EE66E340E68EC0CF0ED0EE66E4E
:10026000330E08D0ED0EE66E330E68EC0CF0E00EA7
:10027000E66E330E6DEC0CF004E2C1EC0BF02CECEE
:100280000CF075EC0CF002E2BCEC0CF0E1EC0CF0C4
:1002900001E306D1280E33EC0CF0496B12005CD957
:1002A00037EF03F0040E43190BE1445109E1FA0E54
:1002B000E66E330E68EC0CF0D30EE66E330E08D00B
:1002C000D30EE66E330E68EC0CF0C70EE66E330EFE
:1002D0006DEC0CF002E2C5EC0CF075EC0CF002E2F7
:1002E000BFEC0CF0E1EC0CF001E3DAD00F01456B50
:1002F000466B060ED2D0AAEF07F0B80EE66E330EAC
:1003000068EC0CF0A90EE66E330EDEEC0CF0B0ECEF
:100310000CF001E3C5D0BFD0050E43190BE14451E9
:1003200009E1E00EE66E330E68EC0CF09D0EE66E11
:10033000330E08D09D0EE66E330E68EC0CF0940E72
:10034000E66E330E6DEC0CF002E2C8EC0CF075ECCE
:100350000CF004E2C1EC0BF02CEC0CF0E1EC0CF036
:1003600001E39ED0080E33EC0CF01CEF0AF0B1EF65
:1003700008F0070E43190BE1445109E1C70EE66E80
:10038000330E68EC0CF08B0EE66E330E05D08B0E40
:10039000E66E330EEBEC0CF06DEC0CF006E2C1EC0B
:1003A0000BF00F01416B010E426F75EC0CF002E295
:1003B000C5EC0CF0E1EC0CF073E20B0E33EC0CF03E
:1003C0007F0EE66E330E6BEC0BF00F01010E636FC8
:1003D0001200696B78EC0CF05F6F62CF60FFB0ECDD
:1003E0000CF05EE240D0740EE66E330E68EC0CF05A
:1003F0006A0EE66E330EDEEC0CF064CF14F028ECDF
:100400000CF064CFE6FF80EC0BF0060EE66EE66AB9
:100410008DEC0CF065CF14F028EC0CF065CFE6FF06
:1004200080EC0BF0060EA5EC0BF0B7EC0BF002E144
:100430001550621908E03B0E5F1908E1605106E1B2
:100440006151621103E15EEC0CF0692B020E695DF3
:1004500007E17F0EE66E330E6BEC0BF00F01696B5C
:10046000B0EC0CF01DE20A0E17D0940EE66E330EBF
:10047000F0EC0CF0DEEC0CF075EC0CF002E2C8ECE9
:100480000CF0E4EC0CF002E2C2EC0CF0E1EC0CF04D
:1004900007E2C1EC0BF0010E0F01416F426B12003D
:1004A0001200B7EC0BF002E11550621908E03B0EA8
:1004B0005F1908E1605106E16151621103E1732B9C
:1004C0005EEC0CF03C0E735D02E3736B722B3C0E22
:1004D000725D02E3726B712B1200540EE66E330EE6
:1004E00068EC0CF0B9EC0CF00A0E0F01715D09E23A
:1004F00012EC0CF0040E70EC0CF09BEC0CF0050E02
:1005000003D09BEC0CF0040EF5EC0CF00F01725DC7
:1005100009E212EC0CF0070E70EC0CF0A2EC0CF0FF
:10052000080E03D0A2EC0CF0070ED2EC0CF0090E72
:1005300070EC0CF00A0E0F01735D09E212EC0CF086
:100540000A0E70EC0CF0A9EC0CF00B0E03D0A9EC29
:100550000CF00A0EA5EF0BF03C0EE66E330E68ECC5
:100560000CF0B9EC0CF00F015E5104E0370EE66EB2
:10057000330E03D0330EE66E330EE66E0C0E70ECC7
:100580000CF00A0E0F0158AF02D0D89003D0575D7F
:10059000000E585913E212EC0CF0010EE66EE66EF6
:1005A0005EEC0BF03BEC0CF015AE02D01668176851
:1005B00080EC0CF0020EE66E010E0AD03BEC0CF063
:1005C00015AE02D01668176880EC0CF0010EE66ECE
:1005D000E66E8DEC0CF02EEC0CF0030E70EC0CF0D3
:1005E0000A0E0F015AAF02D0D89003D0595D000E09
:1005F0005A590FE212EC0CF0040E70EC0CF042ECC5
:100600000CF015AE02D01668176880EC0CF0050EE1
:1006100009D042EC0CF015AE02D01668176880ECD9
:100620000CF0040EF5EC0CF00F015CAF02D0D8908A
:1006300003D05B5D000E5C590FE212EC0CF0070E6C
:1006400070EC0CF049EC0CF015AE02D0166817688F
:1006500080EC0CF0080E09D049EC0CF015AE02D07D
:100660001668176880EC0CF0070EA5EF0BF00F0171
:100670004951040A01E1F3D0070A01E18DD0010AD2
:100680005FE0030A31E0010A01E0120087EC0BF0A1
:1006900007E21EEC0CF0010EE66EE66E5EEC0BF06F
:1006A00075EC0CF00DE20F01572B000E5823583556
:1006B00007E257511708000E585502E2576B586B66
:1006C000E4EC0CF00AE20F015707000E585B800EB5
:1006D000581503E0170E576F586BE1EC0CF001E36F
:1006E000DED00F01010EB9D087EC0BF005E21EEC55
:1006F0000CF0040E70EC0CF075EC0CF00DE20F0138
:10070000592B000E5A235A3507E259513B08000E67
:100710005A5502E2596B5A6BE4EC0CF00AE20F01F5
:100720005907000E5A5B800E5A1503E03B0E596FB5
:100730005A6BE1EC0CF001E3B2D00F01020E8DD048
:1007400087EC0BF005E21EEC0CF0070E70EC0CF0E1
:1007500075EC0CF00DE20F015B2B000E5C235C3599
:1007600007E25B513B08000E5C5502E25B6B5C6B81
:10077000E4EC0CF00AE20F015B07000E5C5B800EFC
:100780005C1503E03B0E5B6F5C6BE1EC0CF001E38E
:1007900086D00F01030E61D075EC0CF005E20F015D
:1007A000010E5E6FF3EC0BF0E4EC0CF002E20F01D3
:1007B0005E6B0F015E5136E0B7EC0BF002E11550B5
:1007C000621908E03B0E5F192DE160512BE1615188
:1007D000621128E15EEC0CF05C3509E25B51000827
:1007E000000E5C5504E25B07000E5C5B1BD05B51A6
:1007F0005C1118E159515A1107E03B0E5B6F5C6BBD
:100800005907000E5A5B0ED059515A110BE157513E
:10081000581108E05707000E585B3B0E596F5A6B92
:100820005B6F5C6B5751581107E159515A1104E144
:100830005B515C1101E15E6B5E5109E187EC0BF0ED
:1008400006E250EC0CF0010EE66E5EEC0BF0E1EC13
:100850000CF025E20F015E6B040E496F120087EC6D
:100860000BF005E250EC0CF0E66A5EEC0BF0040EC7
:1008700003EC0CF004E1050E03EC0CF002E00F01B8
:100880000CD0E1EC0CF00BE2040E33EC0CF0576BE7
:10089000586B596B5A6B5B6B5C6B496B12001200A7
:1008A0000DEC0CF0E6520F017C51EA6A010FE96E83
:1008B0000F0EEA22EFCFDFFF7C293F0B7C6FDF506A
:1008C000E55209EF0CF0CBEF0CF0010E0F0175199A
:1008D00001E1765101E012000F017D51000804E2B0
:1008E00004D80F017D07120012000DEC0CF0E65247
:1008F000D7DFDF6EDFCFE6FF68EC1AF0E552630E5C
:100900000F016A1901E16B5101E1E4D0690E6A1926
:1009100001E16B5101E1C0D0680E6A1901E16B5130
:1009200001E1ABD0670E6A1901E16B5101E190D092
:10093000660E6A1901E16B5101E17FD0650E6A19FB
:1009400001E16B5165E0640E6A1901E16B5155E0FC
:100950000E0E6A1901E16B5144E00C0E6A1901E1B7
:100960006B5136E00B0E6A1901E16B5128E00A0E5B
:100970006A1901E16B511AE0020E6A1901E16B512B
:100980000CE0010E6A1901E0CDD06B5101E0CAD034
:10099000210EDF5C01E0C6D02CD0540EDF5C02E1FA
:1009A0000A0EBED0210EDF5C26E123D0490EDF5CAB
:1009B00002E10B0EB5D0210EDF5C1DE11AD04D0E09
:1009C000DF5C02E10C0EACD0210EDF5C14E111D033
:1009D000450EDF5C02E10E0EA3D0210EDF5C0BE1C1
:1009E00008D03A0EDF5C02E1640E9AD0210EDF5C83
:1009F00002E1020E95D0010E93D096EC0BF001E1CE
:100A0000531D46E0E1EC0BF006C05DF1650E87D0AA
:100A100096EC0BF001E1531D3BE0525101015D27C3
:100A2000170EE66EE66A5D51D5EC0CF002E0660E3C
:100A300076D0F20EE66E320E43D096EC0BF001E16A
:100A4000531D26E0E1EC0BF006C05EF1670E67D0A7
:100A500096EC0BF001E1531D1BE0525101015E27A2
:100A60003B0EE66EE66A5E51D5EC0CF002E0680ED5
:100A700056D0B70EE66E320E23D096EC0BF001E1A5
:100A8000531D06E0E1EC0BF006C05FF1690E47D0A4
:100A9000150EE66E330E40D096EC0BF001E1531DBF
:100AA00015E0525101015F273B0EE66EE66A5F5189
:100AB000D5EC0CF002E0630E32D0920EE66E320EF0
:100AC0006BEC0BF0DC0EE66E320E26D0780EE66E86
:100AD000320E22D0230EDF5C1AE1010E6A6F6B6BBF
:100AE0005DC1E6FF020EB1EC0BF05EC1E6FF010E48
:100AF000B1EC0BF05FC1E6FFE66ACBEC1EF0E5520D
:100B0000E552580EE66E320E6BEC0BF00BD0400E39
:100B1000E66E320E84EC0CF06BEC0BF0010E0F0164
:100B20006A6F6B6B630E0F016C1901E16D5101E18E
:100B30006FD1740E6C1901E16D5101E13DD1760E5A
:100B40006C1901E16D5101E1D1D0750E6C1901E113
:100B50006D5101E1BDD0730E6C1901E16D5101E1E0
:100B600091D0720E6C1901E16D5101E17AD06F0ED6
:100B70006C1901E16D5167E06E0E6C1901E16D5168
:100B800055E06D0E6C1901E16D5144E06C0E6C196D
:100B900001E16D5136E06B0E6C1901E16D5128E0F9
:100BA0006A0E6C1901E16D511AE0020E6C1901E137
:100BB0006D510CE0010E6C1901E055D16D5101E051
:100BC00052D1210EDF5C01E04ED12CD0440EDF5C0F
:100BD00002E16A0E1AD1210EDF5C26E123D0410E1C
:100BE000DF5C02E16B0E11D1210EDF5C1DE11AD03A
:100BF000540EDF5C02E16C0E08D1210EDF5C14E1C3
:100C000011D0450EDF5C02E16D0EFFD0210EDF5CDE
:100C10000BE108D03A0EDF5C02E16E0EF6D0210E39
:100C2000DF5C02E1020EF1D0010EEFD078EC0BF0A8
:100C300001E1551D23E0EAEC0BF006C062F107C0AC
:100C400063F16F0EE1D078EC0BF001E1551D16E079
:100C50005451010162270F01555101016323720EA6
:100C6000D3D078EC0BF001E1551D08E0EAEC0BF075
:100C700006C064F107C065F1730EC6D0150EE66EAE
:100C8000330EBFD078EC0BF001E1551D01E1B6D079
:100C90005451010164270F015551010165230C0EC8
:100CA000E66EE66A64C1E6FF65C1E6FF9EEC0BF006
:100CB00006E001016451651102E0750EA5D0E60E53
:100CC000E66E310E6BEC0BF0DC0EE66E320E99D058
:100CD00078EC0BF001E1551D01E190D0EAEC0BF04E
:100CE00006C066F107C067F1760E8ED078EC0BF087
:100CF00001E1551D01E182D05451010166270F0128
:100D00005551010167236651671104E1D00EE66E6B
:100D1000310E9BD0AAEC0BF0F350F4100CE1010162
:100D2000673509E266511E08000E675504E2AE0EF3
:100D3000E66E310E5DD0AAEC0BF0010EF3180EE159
:100D400015500CE10101673509E266511F08000EDC
:100D5000675504E2760EE66E310E4AD0AAEC0BF02F
:100D6000020EF31811E115500FE1CDEC0BF00CE180
:100D70000101673509E266511D08000E675504E25E
:100D8000540EE66E310E34D0AAEC0BF0020EF318BE
:100D900011E115500FE1CDEC0BF00CE001016735CE
:100DA00009E266511C08000E675504E2320EE66E39
:100DB000310E1ED0740E28D078EC0BF001E1551DD9
:100DC0001DE054CF68F155CF69F1070EE66EE66A73
:100DD00054CFE6FF55CFE6FF9EEC0BF006E0010195
:100DE0006851691102E0630E0FD0100EE66E310EED
:100DF0006BEC0BF0980EE66E310E03D0780EE66EBB
:100E0000320E6BEC0BF0010E0F016C6F6D6B2BD083
:100E1000230EDF5C1DE1010E6C6F6D6B62C1E6FF9E
:100E2000060EB1EC0BF064C1E6FF050EB1EC0BF061
:100E300066C1E6FF040EB1EC0BF068C1E6FF030EDD
:100E4000B1EC0BF0F00EE66E300E6BEC0BF00BD04D
:100E5000D10EE66E300E84EC0CF06BEC0BF0010E54
:100E60000F016A6F6B6B0F016351630A62E0AD0A99
:100E700052E0030A47E0010A3EE0070A33E0010AB4
:100E800027E0030A1CE0010A11E0CA0A06E0030A8F
:100E90005EE1210EDF5C5BE123D0440EDF5C02E10A
:100EA000C80E54D0210EDF5C50E11AD0480EDF5C32
:100EB00002E1C90E4BD0210EDF5C47E111D0540E88
:100EC000DF5C02E1CA0E42D0210EDF5C3EE108D0B9
:100ED0003A0EDF5C02E1CB0E39D0210EDF5C35E14A
:100EE000020E34D0C6EC0BF01DE00A0E6603F3CF01
:100EF00064FFCC0E2BD0C6EC0BF014E066516427D7
:100F0000CD0E24D0C6EC0BF00DE00A0E6603F3CF35
:100F100065FFCE0E1BD0C6EC0BF004E066516527D2
:100F2000630E14D0010E636FC20EE66E300ED3DB7B
:100F30000ED0230EDF5C04E10C0E416F426B05D036
:100F4000B10EE66E300EC7DB0F01010E636FE55286
:100F500009EF0CF00F01455102E1010E46196EE058
:100F6000040E451901E1465167E0030E451901E100
:100F7000465154E0010E451901E1465127E0455123
:100F800001E1465101E01200A70EE66E300E68EC5A
:100F90000CF09B0EE66E300E72EC0CF006E2040EC6
:100FA0000F01456F466B676B686BE4EC0CF006E273
:100FB000010E0F01456F466B476B486B75EC0CF0EB
:100FC00057E20F01456B010E466F12004751481161
:100FD00006E08F0EE66E300EEBEC0CF008D0850EBE
:100FE000E66E300E68EC0CF08F0EE66E300E6DEC97
:100FF0000CF004E20F01456B010E466F75EC0CF02E
:1010000003E20F01456B466BE1EC0CF031E2030E9D
:101010000F01456F466B010E566F120038EC0EF053
:101020006EEC0FF00F016F5123E0456B466B6F6B59
:10103000010E416F426B120039EF08F09B0EE66E15
:10104000300EF0EC0CF072EC0CF002E22CEC0CF038
:10105000E4EC0CF003E20F01456B466B75EC0CF011
:1010600007E2010E0F01456F466B476F486B120098
:1010700012000F016751020A5CE0030A36E0010A20
:1010800001E01200740EE66E300E68EC0CF06A0E91
:10109000E66E300E72EC0CF019E2420EE66E300E87
:1010A0001ADB110EE66E300E16DB010EE66E300E08
:1010B00012DBDF0EE66E2F0E0EDBAE0EE66E2F0E8F
:1010C0000ADB9D0EE66E2F0E06DBB5DB75EC0CF031
:1010D00004E20F01020E676F686BE4EC0CF040E273
:1010E0000F01010E676F686B1200685108E18C0EEA
:1010F000E66E2F0EEDDB820EE66E2F0E05D0820E11
:10110000E66E2F0EEBEC0CF0EDDB05E27B0EE66EEF
:101110002F0EE1DA90DBE9DB04E20F01676B010ED1
:10112000686FE4EC0CF01CE20F01020E676F010E19
:1011300015D06A0EE66E300EF0EC0CF0D3DB01E257
:101140008BDBD3DB05E20F01010E676F020E686FC8
:10115000E4EC0CF005E20F01676B020E686F120001
:1011600012000F014A5102E1010E4B1901E1F2D0C8
:10117000370E4A1901E14B5101E1C3D0360E4A192D
:1011800001E14B5101E199D0350E4A1901E14B5172
:101190006EE0340E4A1901E14B5145E0330E4A1915
:1011A00001E14B511CE0320E4A1901E14B5101E0C3
:1011B00012006A0EE66E2F0E8BDB590EE66E2F0EB6
:1011C0008CDB05E2320E33DB330E4A6F4B6B8DDB6B
:1011D00004E20F014A6B010E4B6F090EB5D0320EBF
:1011E0004C190AE14D5108E1480EE66E2F0E70DBF6
:1011F000370EE66E2F0E07D0370EE66E2F0E68DB29
:10120000260EE66E2F0E69DB05E2330E10DB340E80
:101210004A6F4B6B6ADB05E2330E09DB320E4A6F15
:101220004B6B080E91D0330E4C190AE14D5108E179
:10123000590EE66E2F0E4CDB150EE66E2F0E07D004
:10124000150EE66E2F0E44DB040EE66E2F0E45DB08
:1012500005E2340EECDA350E4A6F4B6B46DB05E2E5
:10126000340EE5DA330E4A6F4B6B010E6DD0340E3F
:101270004C190AE14D5108E1260EE66E2F0E28DBCF
:10128000F30EE66E2E0E07D0F30EE66E2E0E20DB6A
:10129000E20EE66E2E0E21DB05E2350EC8DA360EC2
:1012A0004A6F4B6B22DB05E2350EC1DA340E4A6F12
:1012B0004B6BFB0EE66EE66849D0350E4C190AE121
:1012C0004D5108E1040EE66E2F0E02DBD10EE66EE4
:1012D0002E0E07D0D10EE66E2E0EFADAC00EE66E96
:1012E0002E0EFBDA05E2360EA2DA370E4A6F4B6B92
:1012F000FCDA05E2360E9BDA350E4A6F4B6B000EB8
:1013000023D0360E4C190AE14D5108E1E20EE66E8B
:101310002E0EDEDAAF0EE66E2E0E07D0AF0EE66EA4
:101320002E0ED6DAA90EE66E2E0ED7DA05E2370EAD
:101330007EDA4A6B010E4B6FD8DA05E2370E77DAA8
:10134000360E4A6F4B6B070EE66EE66A19D8E55209
:10135000E5521200C00EE66E2E0EBADAA30EE66E4D
:101360002E0E2CDBC2DA02E2370EA1DA2DDB02E20E
:10137000320E9DDA26DB03E2070E33EF0CF012008B
:101380004CDA1FDB52E250CF14F051CF15F0FD0EB6
:10139000DB50141803E1FE0EDB50151846E0FD0E7D
:1013A000DBCF08F0FE0EDBCF09F00F015051085CD7
:1013B0004E6F515109584F6FFD0EDBCF50FFFE0E9F
:1013C000DBCF51FF020E3FDA01015B6F5C6BE8502F
:1013D0000F014E2501015B6F5C510F014F2101018F
:1013E0005C6F800E5C1508E0180E5B255B6F000ECD
:1013F0005C215C6FE66A0DD05C350DE25B5117082D
:10140000000E5C5508E2180E5B5F000E5C5B010E7F
:10141000E66EA2D8E5525BC1E6FF020EA2D9010E2C
:1014200022DA380E4A6F4B6B06D0CBDA04E2010E9B
:101430000F01416F426BEDD1070E0F01501901E111
:10144000515124E0505101E151511EE0FB0E501961
:1014500002E1E868511916E0010E501901E15151FD
:101460000FE0080E501901E1515108E0090E501922
:1014700001E1515101E01200320E09D0330E07D0C4
:10148000340E05D0350E03D0360E01D0370E4A6F1C
:101490004B6B1200C2D9300EF36EFE0EDBCFF4FFA1
:1014A000F350F45C0CE3FE0EDB50390808E3FE0E4B
:1014B000DB50D00F156AF36E15C0F4FF02D0F3684D
:1014C000F468A7D1AAD9FD0EDBCF14F0FE0EDBCF56
:1014D00015F0FB0EDBCF16F0FC0EDBCF17F017502C
:1014E0001518E8AE02D0153404D01450165C15500F
:1014F000175802E2F36A02D0010EF36EF46A89D142
:101500008CD9E150FD0FE96EFF0EDA20EA6E020E73
:10151000EE1804E1ED5002E1020E1BD06DD9040E6D
:10152000EE1801E1ED5012E067D9060EEE1801E168
:10153000ED500CE061D9090EEE1801E1ED5006E026
:101540005BD90B0EEE1804E1ED5002E1F36A02D014
:10155000010EF36EF46A5DD160D9040EE12673D9F1
:10156000DF6E030E70D9E76E010EE7CFDBFF050ECD
:101570006AD9E76E020EE7CFDBFF060E64D9E76E8D
:10158000030EE7CFDBFFFE0EDB5039E1DF06010E75
:10159000DB06F36EDBCFF4FFE850F45C03E2DE52CF
:1015A000070EDD6E010EDF5C6DE2020EDB0407E16B
:1015B0001F0EDF6E0C0E87D9030EDB0663D091D8A9
:1015C000F350F41004E1020EDB061F0E5AD0F1D9DD
:1015D0000AE1155008E1020EDB50030804E0010E99
:1015E00072D91E0E4ED0E5D94DE115504BE1030ED8
:1015F000DB50030B02E11D0E44D01C0E42D0DF2A4B
:10160000010EDB2ADB50070803E2DE52010EDD6E1D
:10161000020EDB500C080AE1DF501F0807E2010E42
:1016200052D9010EDF6E030EDB2A2CD05AD8F350AC
:10163000F41003E1DF501E0821E3BBD905E115508A
:1016400003E1DF501F081AE34CD8020EF31809E13A
:10165000155007E1030EDB50030B03E1DF501D08BB
:101660000DE33FD8020EF3180DE115500BE1030E08
:10167000DB50030B07E0DF501C0804E2020EDB2AFC
:10168000010EDF6EDFCFE6FF040E6BD8010EDBCF5D
:10169000E6FF030E66D8020EDBCFE6FF050E61D82B
:1016A000030EDBCFE6FF060E5CD8146E040EE15C81
:1016B00002E2E16AE552E16E1450ABD08CEC15F019
:1016C000E552E552E552E5521200E66E43EC1CF09D
:1016D000E55200081200E66E60EC1BF0E552E552A0
:1016E0001200020EDBCFE6FFE66A0ADF94EF0CF091
:1016F0003BD9F3CF54FFF4CF55FF0F01F31C120079
:1017000015C0E6FF16C0E6FF17C0E6FF12005D2910
:10171000146E140E156E0E6E14C009F082EC21F0DA
:1017200005C05DFF0F0105500F0812001DD9F3CF52
:1017300052FFF4CF53FF0F01F31C1200C3DEE5523A
:10174000E552F2D8F350F4101200E66E010EE66E88
:101750008DEF0CF064C1E6FF65C1E6FFD1DE94EFCA
:101760000CF0E66E1DEC1FF0E552E5521200C0D8F9
:10177000010E156A5F25146E60511522145061190F
:10178000120041CF43FF42CF44FF1200EDD8F3CF08
:1017900066FFFF0E0F01F35C120062C116F063C119
:1017A00017F0040E0D6E0E6A62C108F063C109F0F5
:1017B00006EC20F004C016F005C017F00450051028
:1017C00012000A0E086E096A52CF0DF053CF0EF0C8
:1017D00059EF20F00A0E086E096A54CF0DF055CF6C
:1017E0000EF059EF20F0E66A28EC1FF0E5520F01E9
:1017F0005F6F606B78EF0CF0D950FD0FE96EFF0E54
:10180000DA20EA6E1200E66E43EC1CF0E5520009A5
:101810001200E552E7CFD9FF1200D9CFE6FFE1CFA2
:10182000D9FF12004F0EE66E330EE66E12000F0166
:101830004C6F4D6B1200AFD8090EBFD0510EE66E43
:10184000330EE66E1200E66E28EC1FF0E552120031
:10185000156A166A176A1200050EAFD04D0EE66EB5
:10186000330EE66E1200A9D0716B726B736B746BE2
:1018700001016A6B120057CF14F058CF15F0166AA9
:10188000176A120059CF14F05ACF15F0166A176A6A
:1018900012005BCF14F05CCF15F0166A176A1200C5
:1018A0002E0EE66E330EE66E0C0EE66E12000F0183
:1018B0004A6F4B6B4C6B010E4D6F120061CF5FFF97
:1018C00062CF60FF1200F36E020EF3CFDBFF120057
:1018D000E66EE66AE66A5EEF0BF070D8E4EF0CF0B5
:1018E000E66E88D06BD8E1EF0CF0040E65EF0BF0DC
:1018F000E66A28EC1FF0E5520F01616F626B12007F
:1019000014C0E6FF80EF0BF0E6DE230EE66E320E2B
:10191000E2DE0A0EE66E320E12003EEC15F0186E94
:10192000060EE15E18501200E552E552F3CF14F0B6
:10193000F4CF15F0120071CF14F08ADF71CFE6FFFB
:1019400080EF0BF072CF14F083DF72CFE6FF80EFF1
:101950000BF073CF14F07CDF73CFE6FF80EF0BF05A
:1019600065EC04F0E1EF0CF0DFCFE6FF93DDE5522C
:10197000120064DFE66A3ED004DF030E28D001DFE8
:10198000040E25D0FEDE020E22D0FBDE070E1FD095
:10199000F8DE0A0E1CD00F017B6B0F017C6B0F0170
:1019A0007D6B1200D2DE2EEF0CF0E66EE66A9EEF43
:1019B0000BF097DE010EF318120009D0E66EE66A0E
:1019C00019D0060E65EF0BF0050E65EF0BF00F0159
:1019D000416F426B12007CDF850EE66E330E120003
:1019E00077DF640EE66E330E1200DCDF060E78DF62
:0C19F0000A0E1200010EE66E5EEF0BF016
:0419FC00D9CFE6FF5A
:101A0000E1CFD9FF020EE126DE6ADD6A6CD8B4ECC4
:101A100013F095EC14F0CAD82BEC12F0950EE66E8C
:101A20002E0EE66E060EE66EE66A76EC14F0E552D1
:101A3000E552E552E552D00EE66E070EE66E0FD87F
:101A4000E552E55201013351FDE0336B95EC14F0A2
:101A500021EC1CF040EC00F0BDEC14F0F3D7D9CF32
:101A6000E6FFE1CFD9FF040EE126DE6ADD6ADECFB4
:101A700014F0DDCF15F0FD0EDBCF16F0FE0EDBCF40
:101A800017F015501718E8AE02D0173404D01650CE
:101A9000145C175015581DE2020EDB6A030EDB6A58
:101AA000020EDBCF14F0030EDBCF15F0D8901550EB
:101AB00004E6EE0E145C000E155806E2020EDB2A58
:101AC000030EEEE3DB2AECD7DF2A010ED0E3DB2A9C
:101AD000CED7040EE15C02E2E16AE552E16EE55226
:101AE000E7CFD9FF1200936A956A2EEC13F056ECFB
:101AF0001FF02BEC12F0570EE66E120EE66E3EEC67
:101B00001DF0E552E552AE0EE66E240EE66E54EC84
:101B10001DF0E552E552660EE66EB70EE66E83ECFA
:101B20001DF0E552E552020EE66EE66ADCEC1DF0B1
:101B3000E552E5520A0EE66EE66AE8EC1DF0E55263
:101B4000E5520A0EE66EE66A01EC1EF0E552E55239
:101B5000F6EC1BF092EC1EF020EF1AF00101370EAC
:101B6000486F3B0E496F170E4A6F070E4B6F1F0EE3
:101B70004C6F0C0E4D6F0D0E4E6F48C1E6FFE66ABE
:101B80001DEC1FF0E552E55249C1E6FF010EDAEC0B
:101B900011F04AC1E6FF020EDAEC11F0C5EC12F0CA
:101BA000CAEC12F0CFEC12F0D4EF12F0200E70EC71
:101BB00012F0220815E0D2DFE66A100EDAEC11F01E
:101BC000E66A110EDAEC11F0E66A120EDAEC11F0A8
:101BD000E66A130EDAEC11F0220EE66E200EEADB56
:101BE0001200100E70EC12F00101526F110E70EC29
:101BF00012F00101536F120E70EC12F00101546FDC
:101C0000130E70EC12F00101586F1200E7DB146E36
:101C100018EC12F0E66ED4DBE66AE66AD8DB4DC15A
:101C200014F018EC12F04DC1E6FFCADB030EA6EC6F
:101C300012F08EEC12F0060EA6EC12F04BC114F06E
:101C400018EC12F04BC1E6FFBBDB090EA6EC12F05C
:101C500079EC12F0E66A010EE66EB9DB80EC12F068
:101C6000030EAAEC12F087EC12F0060EAAEF12F0A7
:101C7000B5DB4B51070A24E0010A1EE0030A18E015
:101C8000010A12E0070A0CE0010A06E0030A1EE15D
:101C9000910EE66E2E0E17D08D0EE66E2E0E13D020
:101CA000890EE66E2E0E0FD0850EE66E2E0E0BD030
:101CB000810EE66E2E0E07D07D0EE66E2E0E03D040
:101CC000790EE66E2E0EE66EDCEC12F00A0E0101C5
:101CD0004A5D08E2B6DB040E75EC12F079EC12F006
:101CE000050E03D079EC12F0040EA6EC12F0E6DB40
:101CF000060E75EC12F00A0E0101495D08E2A1DB47
:101D0000070E75EC12F080EC12F0080E03D080EC98
:101D100012F0070EA6EC12F0D1DB090EE6DB0A0E7C
:101D20000101485D07E28DDB0A0EDFDB87EC12F074
:101D30000B0E02D0ECDB0A0EA6EC12F0010154519E
:101D4000010A06E0010A0AE1710EE66E2E0E03D0CA
:101D50006D0EE66E2E0EE66E0D0EC7DB0F015651B0
:101D600006E0690EE66E2E0EE66E0D0EBEDB01017C
:101D70004D510C0A42E0070A3CE0010A36E0030A32
:101D800030E0010A2AE00F0A24E0010A1EE0030AFB
:101D900018E0010A12E0070A0CE0010A06E0030A53
:101DA00032E1650EE66E2E0E2BD0610EE66E2E0E23
:101DB00027D05D0EE66E2E0E23D0590EE66E2E0E47
:101DC0001FD0550EE66E2E0E1BD0510EE66E2E0E57
:101DD00017D04D0EE66E2E0E13D0490EE66E2E0E67
:101DE0000FD0450EE66E2E0E0BD0410EE66E2E0E77
:101DF00007D03D0EE66E2E0E03D0390EE66E2E0E87
:101E0000E66E020E6ADB5FDB050E67DB0A0E010180
:101E10004C5D06E258DB060E60DB80DB070E02D06D
:101E20007DDB060E97DB4FDB080E57DB140EE66EEC
:101E3000E66AE66AE66A090EF7DA24DB0A0E0101B1
:101E40004E5D0AE2E66AE66AE66AE66A0B0EECDADC
:101E500019DB86DB0C0E02D083DB0B0EAAEF12F02F
:101E6000260EE66E2E0EE66EA7DBE6DAE66A010EB9
:101E7000E66E93DA0A0E0101525D06E2E2DA020E24
:101E80002CDB75DB030E02D072DB020E63DB16DB8C
:101E9000040E23DB0A0E0101535D06E2D2DA050EC1
:101EA0001CDB6CDB060E02D069DB050E53DBCEDAE1
:101EB000070E13DB01015451010A06E0010A0AE191
:101EC000710EE66E2E0E03D06D0EE66E2E0EE66ED1
:101ED0000A0E03DBBBDA0D0E6DEF12F0010150515B
:101EE000FF0A01E1F6D0F40A01E1D0D0010A01E1D4
:101EF000AAD0030A01E184D0010A5FE00F0A36E0AC
:101F0000010A0DE0060A01E012001ADB01E1F5D03A
:101F10000101590501E0F1D0060E506F120049DBB6
:101F200003E28ADA040EE1DA0EDB09E001014A2954
:101F30009BDA05C04AF105C0E6FF020E3BDA0DDB75
:101F40000CE001014A054A6FE850170802E2170E3B
:101F50004A6F4AC1E6FF020E2DDAF2DA03E0010110
:101F6000070E506F5ADA01E1C8D0B0D022DB03E28D
:101F700063DA070EBADAE7DA09E00101492978DA0B
:101F800005C049F105C0E6FF010E14DAE6DA0CE0FF
:101F900001014905496FE8503B0802E23B0E496FD9
:101FA00049C1E6FF010E06DACBDA03E00101080EB3
:101FB000506F33DA01E1A1D089D0FBDA02E246DAD0
:101FC000FBDAC1DA09E001014B294B6FE850070841
:101FD00002E2010E4B6FD9DAC0DA09E001014B05CC
:101FE0004B6FE850070802E2070E4B6FCEDAA8DA13
:101FF00003E00101090E506F10DA01E17ED066D0D6
:10200000D8DA03E219DA060E68DA9DDA09E001018E
:102010004C294C6FE8501F0802E2010E4C6FBADAEF
:102020009CDA09E001014C054C6F010E4C5D02E2A7
:102030001F0E4C6FAFDA84DA03E001010A0E506F15
:10204000ECD95BE043D0B5DA03E200DA020E45DA00
:102050007ADA09E001014D294D6FE8500C0802E2DF
:10206000010E4D6F9CDA79DA09E001014D054D6FE3
:10207000010E4D5D02E20C0E4D6F91DA61DA03E064
:1020800001010B0E506FC9D938E020D092DA03E27B
:102090001FDA090E22DA57DA08E001014E294E6FE5
:1020A000E850630801E24E6B7FDA57DA09E001017C
:1020B0004E054E6F630E4E5D02E2630E4E6F74DA94
:1020C0003FDA02E0D9D95069A8D917E0D5D9506BC9
:1020D0001200596BCDDD010156D903E2F9D90C0E7E
:1020E00004DA2EDA05E0D5D90F016F6F0F01566BB8
:1020F0002ADA02E132DA01E0CCD9120001014F51B3
:10210000FF0A01E184D0FC0A5DE0010A35E0030A20
:102110000DE0010A01E0120013DA01E187D00101AC
:10212000590501E083D0010E4F6F1200FED903E282
:1021300083D9020ED2D907DA09E00101522994D9D4
:1021400005C052F105C0E6FF100E34D906DA0CE0E6
:1021500001015205526FE850170802E2170E526F44
:1021600052C1E6FF100E26D9EBD903E00101020EA1
:102170004F6F53D95BE048D0D8D903E25DD9050E43
:10218000ACD9E1D909E00101532972D905C053F155
:1021900005C0E6FF110E0ED9E0D90CE00101530590
:1021A000536FE8503B0802E23B0E536F53C1E6FF0A
:1021B000110E00D9C5D903E00101030E4F6F2DD9CF
:1021C00035E022D0B2D903E241D90A0E86D9BBD973
:1021D00007E001015429010B546FE66E120EEAD894
:1021E000BCD90CE001015405546FE850010802E22B
:1021F000010E546F54C1E6FF120EDCD8A1D902E0E3
:1022000001014F690AD912E037D94F6B12008DD9FD
:1022100003E25ED90A0E69D996D902E19ED901E09E
:102220003FD98ED903E03CD90F016E6F1200010136
:10223000010E081903E1095101E1010C000C010133
:102240000A0E081903E1095101E1010C000C01011A
:10225000010E101903E1115101E1010C000C010103
:102260000A0E101903E1115101E1010C000C0101EA
:10227000010E0A1901E10B5115E00A0ED8800A552A
:10228000000E0B5510E20AC114F00BC115F0030E3D
:102290000D6E0E6A0AC108F00BC109F008D903E1FE
:1022A000155001E1010C000C0101010E121901E1B0
:1022B000135115E00A0ED8801255000E135510E286
:1022C00012C114F013C115F0030E0D6E0E6A12C187
:1022D00008F013C109F0EBD803E1155001E1010C3E
:1022E000000C010152514A5D0AE15351495D07E179
:1022F000485105E1540503E1590501E1010C000CC9
:1023000001015151050A16E0010A05E0040A01E045
:102310001200040E0DD0E5DF000906E00101010EF8
:10232000586FE66E130E46D8010158512BE0050E8A
:10233000516F1200596B5A29146E140EFBD805C048
:102340005AF10A0E0101055C02E295EC14F001015C
:10235000562B000E5723900ED8805655010E575518
:1023600002E3F1D80FE00101010E596F586B58C11B
:10237000E6FF130E1FD80101566B576B95EC14F056
:102380000101516B12005529146E140ED3D805C0EB
:1023900055F1010105500F0812008CEC15F0E552C3
:1023A000E552E552E5521200E66E43EC1CF0E552B0
:1023B00000091200E66E1DEC1FF0E552E552120016
:1023C00015C0E6FF16C0E6FF17C0E6FF12003EECA0
:1023D00015F0186E060EE15E18501200E66A28EC41
:1023E0001FF0E5520101486F010E7AD80101496FD3
:1023F000020E76D801014A6F030E72D801014B6FAD
:10240000040E6ED801014C6F050E6AD801014D6FA4
:10241000060E66D801014E6F1200060EE66E4DECF8
:102420001CF0E55200091200E66E010EE66E120085
:10243000156A166A176A1200230EE66E2E0EE66EF5
:102440001200770EE66E2E0EE66E12001F0EE66E7E
:102450002E0EE66E1200E80EE66E030EE66E2FEC10
:102460000DF0E552E5521200146E180E9AEF12F0BC
:10247000146E3C0E9AEF12F095EC14F00101010E6F
:10248000596F12003EEC15F0146E060EE15E14500A
:10249000120095EC14F00101506B010E596F1200FF
:1024A00095EC14F001014F6B010E596F12004EECC8
:1024B00021F005C015F0010E04181200750EE66E2D
:1024C0002E0EE66E1200370EE66E2E0EE66E12002F
:1024D0001A0EE66E2E0EE66E1200A6DFCDEF11F09C
:1024E000E66E28EC1FF0E5521200E66EE66ACDEFCC
:1024F00011F04AC114F09CDF4AC1E6FFE0EF11F091
:1025000049C114F095DF49C1E6FFE0EF11F048C181
:1025100014F08EDF48C1E6FFE0EF11F04CC114F07B
:1025200087DF4CC1E6FFE0EF11F0596B99DC010148
:10253000C3EF11F0156E0E6E14C009F082EF21F09A
:10254000060ED4EF11F0040ED4EF11F0E66EE66A39
:10255000E7EF11F069DFE7EF11F0050ED4EF11F0AE
:102560004EC114F065DF4EC1E6FFE0EF11F052C13D
:1025700014F05EDF52C1E6FFE0EF11F053C114F03A
:1025800057DF53C1E6FFE0EF11F04BC1E6FF030E4A
:10259000DAEF11F04CC1E6FF040EDAEF11F04DC195
:1025A000E6FF050EDAEF11F04EC1E6FF060EDAEF98
:1025B00011F0596BC3EF11F0E66AE66ACDEF11F046
:1025C000F4EC16F07BDB15AE02D01668176820DB42
:1025D00013E289DB49DB04E6050E145C000E155896
:1025E00006E2020EDB2A030EF5E3DB2AF3D7DF2A2D
:1025F000010EE8E3DB2AE6D7040EE15C02E2E16AC1
:10260000E552E16EBBD2F0DB59DB15AE02D01668A5
:102610001768FEDA13E267DB27DB04E6EE0E145CD4
:10262000000E155806E2020EDB2A030EF5E3DB2A44
:10263000F3D7DF2A010EE8E3DB2AE6D7040EE15CDC
:1026400002E2E16AE552E16E99D2D4DBF00B6BDB7A
:10265000FE0EDB38F00B811278DA90D2C2DB190E55
:1026600050DB0F0E8116F80E81160F0E8116300EFC
:102670005ADB300E58DB300E56DB818A66DA280EC4
:10268000E66EE3DFE5520C0EE66EDFDFE552E55263
:1026900075D29DDB010EDB6A81944ADBE76E010E89
:1026A000E7CFDBFF819644DBDF6E010EDB50DF12EC
:1026B0008196010E51DADF50146E020EE15C02E2E7
:1026C000E16AE552E16E145059D28BDBDF6AE1DF3B
:1026D000DF6EDFBEFCD7DF50E55250D28BDB8112BC
:1026E0008186050E39DA8196050E36DA47D241DA4F
:1026F0008194050E31DA98DA41D23BDA8184050EF5
:102700002BDA92DA81943AD23BD33AD332DAFD0E05
:10271000DBCFF6FFFE0EDBCFF7FF0800F5500DE034
:10272000FD0EDBCFF6FFDB2AFE0EDBCFF7FF01E36A
:10273000DB2A0800F5501BDBEAD720D252DBFD0E66
:10274000DB500F0B146EFE0EDB50010B400DF350EF
:102750001424DF6E7F0EDF14800FDF6EDFCFE6FF05
:10276000C6DFE552E5520AD2010EE66EC0DFE55241
:10277000E66AE66A00EF17F0FCD9050EE126010EC5
:10278000F36EDB6EB0DA040EDB6ADF6ADFCF14F0C3
:10279000156A14BE156899DA15501718E8AE02D0FC
:1027A000173404D01650145C175015581FE2FD0E54
:1027B000DBCF14F0FE0EDBCF15F0166A176A15AEEC
:1027C00002D016681768D950010FE96EDACFEAFF18
:1027D00014C00BF015C00CF016C00DF017C00EF0B1
:1027E000DBDAD5EC20F0E1DADF2AD0D7010EDBCF3F
:1027F00014F0020EDBCF15F0030EDBCF16F0040E43
:10280000DBCF17F014C006F015C007F016C008F0B3
:1028100017C009F0050EE15C02E2E16AE552E16EE3
:10282000ADD1D5DAFB0EDBCF14F0FC0EDBCF15F00B
:10283000FD0EDBCF16F0FE0EDBCF17F01450151097
:102840001610171003E1300E92DA36D0D950FB0F74
:1028500014DA01E618DA05E22D0E89DAD950FB0FF9
:10286000CAD9DE52070EDD6E37DAE8AE02D0143474
:1028700003D0E750D88014541FE217DA18BE196845
:1028800071D936DA5EDA08DA0BE0010EDF6EDB04AE
:102890001C6E1D6A1CBE1D6883D953DA9FD903D0F4
:1028A000DF5002E0300E63DA00DA18BE19685AD938
:1028B000D950FB0F6CD9D8D7020EE15C02E2E16A75
:1028C000E552E16E5BD155D9C7D9D950F90F53DA2A
:1028D000EECFE6FFEECFE6FFEECFE6FFEFCFE6FF6F
:1028E000A0DFE552E552E552E55248D142D9B4D9CC
:1028F000FB0EDBCFE6FFFC0EDBCFE6FF07DFE5528A
:10290000E5523CD136D9FCC014F0FDC015F0040EE0
:10291000D89014361536E806FBE192D9FE0EDBCFCF
:10292000EFFFFE2B000EFF2329D15BDADF6ADFCF3A
:1029300014F0100EE76E1418E8AE02D0E73402D09F
:10294000E750145C18E2DFCFE9FFEA6AE9BEEA6803
:10295000C10EE926000EEA22200EEF6EDFCFE9FF5E
:10296000EA6AE9BEEA68D10EE926000EEA22200EE4
:10297000EF6EDF2ADCD7E55201D133DA0001C05116
:10298000030A29E0010A1CE0030A0CE0010A32E113
:102990003BDA080EDF5C03E2DF50B9D9FAD7000159
:1029A000010E17D0080EE66EE66A09D9080EDF5C44
:1029B00004E2080EDF24ABD9F9D70001020E09D0DA
:1029C0000BDA080EDF5C03E2DF50A7D9FAD700016B
:1029D000030EC06F10D0080EE66E010EE66EEFD843
:1029E000080EDF5C04E2080EDF2497D9F9D7000156
:1029F000C06B01D0C06BE552C1D0F3D90001C0510A
:102A0000010A0DE0010A15E1FFD9100EDF5C03E2B7
:102A1000DF507DD9FAD70001010EC06F0BD0DCD991
:102A2000100EDF5C03E2DF5078D9FAD70001C06BEB
:102A300001D0C06BE552A2D0D4D9E6D9100EDF5C2C
:102A400003E2DF5064D9FAD7C7D9100EDF5C03E286
:102A5000DF5063D9FAD7E55291D08BD8B3D8FCC0F8
:102A600014F0FDC015F0040ED89014361536E806A3
:102A7000FBE1E6D8FC0EDBCFEFFF80D0A8D9A2D8CF
:102A8000F90EDBCF14F0FA0EDBCF15F01ED914507F
:102A900015101610171003E1300E0CD936D0D9508E
:102AA000F90FEBD801E6EFD805E22D0E03D9D95086
:102AB000F90FA1D8DE52070EDD6E0ED9E8AE02D0B6
:102AC000143403D0E750D88014541FE2EED818BE57
:102AD000196848D80DD940D9DFD80BE0010EDF6E58
:102AE000DB041C6E1D6A1CBE1D685AD835D976D809
:102AF00003D0DF5002E0300EDDD8D7D818BE1968F9
:102B000031D8D950F90F43D8D8D7020EE15C02E290
:102B1000E16AE552E16E32D02CD854D8FB0EDBCFFF
:102B2000F6FFFC0EDBCFF7FF0800F5500DE0FB0EC3
:102B3000DBCFF6FFDB2AFC0EDBCFF7FF01E3DB2A5E
:102B40000800F550B7D8EAD719D08186010ED9D838
:102B50008196010E81EF16F0E66EE66AE66AE66A95
:102B60002FDD56D118C0E6FF19C0E6FF10D9DEEF01
:102B700016F0D9CFE6FFE1CFD9FF1200E552E7CF3B
:102B8000D9FF1200EA22EF50F2D8DF2A1200F3D860
:102B9000AFD802D90DEC21F008D9010EDB061200E6
:102BA0001CC0E6FF1DC0E6FFF2D806C018F007C043
:102BB00019F008C01AF009C01BF078EF16F020D900
:102BC000DF6A1200FE0EDB50010B0001FC6FFD6B93
:102BD000FD0EDB500F0BFE6FFF6B1200DBCF09F019
:102BE0000DEC21F0EBD8300E1426000E1522162223
:102BF000172214501200BFD8000EEE6CEF1EEE220A
:102C0000EF1EEE22EF1EEF22ED52ED52ED521200BA
:102C1000D950FB0FB0D8EE50145CEE501558EE5062
:102C20001658EE5017581200FE0EDBCFE6FF56DDA9
:102C3000E552FE0EDB38F00BE66E50DDE552120079
:102C4000C10E1426000E152214500001FE25E96E57
:102C50001550FF21EA6E1200FD0EDBCFE6FFFE0EDF
:102C6000DBCFE6FF00EF17F0020EDBCF14F0030E10
:102C7000DBCF15F0D890155012007DD8D890030EF8
:102C8000EB50000A1200000EEE5C000EEE58000E33
:102C9000EE58000EEE581200DBCF09F00DEC21F0DB
:102CA00006500710081009101200010EDB04186E00
:102CB000196A1200E66E26DEE5521200DECF14F02D
:102CC000DDCF15F0166A176A1200FB0EDBCF16F087
:102CD000FC0EDBCF17F01200010EDBCF14F0000E5C
:102CE000E76E14181200020EDB6A030EDB6A120094
:102CF00006C00BF007C00CF008C00DF009C00EF0C4
:102D00001200E66EE66AE66AE66A7DDC81D0EA6A6F
:102D1000C10FE96E000EC2EF15F0EA6AD10FE96E3D
:102D2000000EC2EF15F0811210DF0F0E8116120097
:102D30000F0E12DF0F0E811281860EDF0F0E81142F
:102D40001200FB0EDBCF06F0FC0EDBCF07F0FD0E12
:102D5000DBCF08F0FE0E1200F90EDBCF06F0FA0E04
:102D6000DBCF07F0FB0EDBCF08F0FC0E1200E66EA7
:102D7000CCDCE5521200E96EFF0EDA20EA6E12009A
:102D8000F8DEFE0EDBCFE6FFB8DCE552F7D60A0E22
:102D9000E66EE66AF1DC3CD0EECF06F0EECF07F04F
:102DA000EECF08F0EFCF09F0120005C0EDFF04C030
:102DB000EDFF03C0EDFF02C0EFFF120006C014F0EC
:102DC00007C015F008C016F009C017F01200D1DED8
:102DD000020EE126DF6A1200E66A010EE66EDFEF00
:102DE00015F0C7DEE6521200C4DE040EE126DE6AEC
:102DF000DD6A1200BEDE0F0E8116FE0EDB501200E1
:102E00009DDCE552E5521200E66AE66ADFEF15F056
:0A2E1000E552E552E552E5521200CA
:062E1A0020202020002012
:102E20002020002020002020414C41524D20202015
:102E30004241434B2020002000444543004E4F5662
:102E4000004F43540053455000415547004A554CEC
:102E5000004A554E004D415900415052004D4152DB
:102E600000464542004A414E004F4B20004F4E2045
:102E7000004F4646003A0030005341540046524944
:102E8000005448550057454400545545004D4F4E99
:102E90000053554E004449474954414C20434C4F40
:102EA000434B003E4241434B00204241434B003ED6
:102EB00048414E4F49202020205554432B303700A5
:102EC0002048414E4F49202020205554432B303775
:102ED000003E4C4F4E444F4E2020205554432B3043
:102EE0003000204C4F4E444F4E2020205554432B51
:102EF0003030003E4E4557594F524B2020555443D9
:102F00002D303500204E4557594F524B20205554F7
:102F1000432D3035003E504152495320202020554A
:102F200054432B303100205041524953202020205F
:102F30005554432B3031003E4245494A494E4720C3
:102F4000205554432B30380020544F4B594F2020EC
:102F500020205554432B303900204245494A494EE0
:102F60004720205554432B3038003E544F4B594F87
:102F7000202020205554432B3039002154494D4501
:102F800023003E496E7465726E6574002056697246
:102F90007475616C5465726D696E616C0021444199
:102FA00054453A59594D4D444464230D0A000D0AC5
:102FB000546F2073796E6368726F6E697A652064EE
:102FC0006174652C207573696E672073796E746106
:102FD0007820617320666F6C6C6F773A0D0A00542D
:102FE00068652074696D65206E65656420746F2066
:102FF00062652032342D6820666F726D61740D0A2F
:10300000002154494D453A48484D4D5353230D0A2C
:10301000000D0A546F2073796E6368726F6E697A5F
:10302000652074696D652C207573696E67207379EE
:103030006E74617820617320666F6C6C6F773A0DE7
:103040000A000D0A57656C636F6D6520746F20412F
:103050006C61726D20436C6F636B20636F6E736F76
:103060006C65206D656D750D0A0020496E74657282
:103070006E6574003E5669727475616C5465726D4C
:10308000696E616C00205573652055415254003EB5
:1030900055736520427574746F6E002055736520FA
:1030A000427574746F6E003E5573652055415254DD
:1030B00000436F6E6669726D204572726F72210DEA
:1030C0000A0052656164206572726F7220210D0AD8
:1030D000000D0A4E65656420636F6E6669726D202F
:1030E00064617465206368616E676520210D0A0064
:1030F0000D0A436F6E66696775726174696F6E2041
:10310000446174652053756363657373210D0A0010
:103110000D0A44415445206D757374206265206921
:103120006E2072616E6765205B312C375D20210D4A
:103130000A000D0A446179206D7573742062652060
:10314000696E2072616E6765205B312C32385D20BC
:10315000210D0A000D0A446179206D757374206297
:103160006520696E2072616E6765205B312C323993
:103170005D20210D0A000D0A446179206D7573747C
:1031800020626520696E2072616E6765205B312C5C
:1031900033315D20210D0A00506C65617365206537
:1031A0006E74657220616761696E210D0A000D0AF7
:1031B000446179206D75737420626520696E207298
:1031C000616E6765205B312C33305D20210D0A0074
:1031D0000D0A20446179206D757374206265203E6C
:1031E0002030210D0A000D0A4D6F6E7468206D7538
:1031F000737420626520696E2072616E6765205B62
:10320000312C31325D20210D0A000D0A506C6561B0
:10321000736520656E74657220616761696E202137
:103220000D0A000D0A436861726163746572206360
:103230006F6E6669726D206973202723270D0A005F
:103240000D0A4E65656420636F6E6669726D207449
:10325000696D6520210D0A000D0A436F6E6669676E
:1032600075726174696F6E2054696D652053756362
:1032700063657373210D0A000D0A506C65617365F7
:1032800020656E746572206E756D62657220210D09
:103290000A000D0A5365636F6E64206D75737420A8
:1032A000626520696E2072616E6765205B302C3527
:1032B000395D20210D0A000D0A4D696E7574652077
:1032C0006D75737420626520696E2072616E67652A
:1032D000205B302C35395D20210D0A00706C656152
:1032E000736520656E74657220616761696E210D7A
:1032F0000A000D0A486F7572206D7573742062653F
:1033000020696E2072616E6765205B302C32335D00
:1033100020210D0A000D0A506C6561736520656EF1
:10332000746572206E756D626572210D0A00202031
:1033300020200052554E0053544F500054494D45E3
:103340005220434C4F434B204241434B003A003004
:103350000020200020202053544F50205741544338
:10336000482020003E4261636B0048554D493A2099
:103370002020250054454D503A2020202A4300218A
:103380004448542300204261636B003E57656174DA
:10339000686572002057656174686572003E576FFA
:1033A000726C642054696D65005541525420746FED
:1033B000206D6F6469667900506C65617365206388
:1033C0006F6E6E6563740020576F726C6420546971
:1033D0006D65003E54696D65204D6F6469667900C6
:1033E0002054696D65204D6F64696679003E5469AB
:1033F0006D657220436C6F636B002054696D65725C
:1034000020436C6F636B003E436F756E7465722072
:10341000436C6F636B0020416C61726D20436C6F75
:10342000636B0020436F756E74657220436C6F632D
:0F3430006B003E416C61726D20436C6F636B00EB
:10344000B06A810EAF6EAC8AAC94B886AC98AB8E85
:10345000AB889E9A9D8A9F8A949C948E120069D90B
:10346000040EE126DE6ADD6ADECF14F0DDCF15F052
:1034700097D915501718E8AE02D0173404D016505B
:10348000145C175015581DE2020EDB6A030EDB6A4E
:10349000020EDBCF14F0030EDBCF15F0D8901550E1
:1034A00004E6EE0E145C000E155806E2020EDB2A4E
:1034B000030EEEE3DB2AECD7DF2A010ED5E3DB2A8D
:1034C000D3D7040EE15C02E2E16AE552E16E36D147
:1034D00030D99EA8FED7FE0EDB50AD6E9E982ED141
:1034E00028D956D908E054D934D9FD0EDB2AFE0E6E
:1034F000F8E3DB2AF6D722D11CD9050EE126010E0E
:10350000F36EDB6E020EDB6A030EDB6A040EDB6A0F
:10351000DF6ADFCF14F0156A14BE1568FB0EDBCF2F
:1035200016F0FC0EDBCF17F015501718E8AE02D0DE
:10353000173404D01650145C175015581FE2FD0EB6
:10354000DBCF14F0FE0EDBCF15F0166A176A15AE4E
:1035500002D016681768D950010FE96EDACFEAFF7A
:1035600014C00BF015C00CF016C00DF017C00EF013
:10357000F4D8D5EC20F0FAD8DF2ACBD7010EDBCF78
:1035800014F0020EDBCF15F0030EDBCF16F0040EA5
:10359000DBCF17F014C006F015C007F016C008F016
:1035A00017C009F0050EE15C02E2E16AE552E16E46
:1035B000C5D0BFD8020EE126DF6AFB0EDBCF14F0C8
:1035C000FC0EDBCF15F0ECD81450151016101710A8
:1035D00003E1300EBED86DD0B5D8D890030EEB50B5
:1035E000000A08E6000EEE5C000EEE58000EEE58E3
:1035F000000EEE580EE22D0EACD8A4D8000EEE6CE4
:10360000EF1EEE22EF1EEE22EF1EEF22ED52ED52E4
:10361000ED52DE520A0EDD6E010EDBCF14F0000E0D
:10362000E76E1418E8AE02D0143403D0E750D88007
:1036300014543FE2010EDB04186E196A18BE1968B3
:1036400071D861D806500710081009101EE0010E4D
:10365000DF6EDB041C6E1D6A1CBE1D681CC0E6FF0D
:103660001DC0E6FFA4D806C018F007C019F008C0B6
:103670001AF009C01BF047D8A3D8300E1426000E4C
:10368000152216221722145003D0DF5002E0300E0C
:1036900060D8010EDB04186E196A18BE196842D88A
:1036A00051D897D85AD80DEC21F060D8010EDB061E
:1036B000B3D7020EE15C02E2E16AE552E16E3ED070
:1036C00038D85DD80CE05BD844D8FD0EDBCFF6FFD0
:1036D000DB2AFE0EDBCFF7FFF4E3DB2AF2D72ED096
:1036E00028D8E652AE50DF6E0F017B51EA6A010F17
:1036F000E96E0F0EEA22DFCFEFFF7B293F0B7B6FD6
:103700007D2BE5521BD065D8FB0EDBCF06F0FC0EFF
:10371000DBCF07F0FD0EDBCF08F0FE0EDBCF09F0AC
:103720000DEF21F018C0E6FF19C0E6FF40D8E0EF2A
:103730001BF0D9CFE6FFE1CFD9FF1200E552E7CF6A
:10374000D9FF1200D950FB0FE96EFF0EDA20EA6EA6
:103750001200E66EBDDEE5521200EECF06F0EECFAF
:1037600007F0EECF08F0EFCF09F0120005C0EDFF33
:1037700004C0EDFF03C0EDFF02C0EFFF1200FD0E1D
:10378000DBCFF6FFFE0EDBCFF7FF0800F55012008F
:10379000FD0EDBCFE9FFFE0EDBCFEAFFEF5012009C
:1037A000FD0EDBCF16F0FE0EDBCF17F012000A0E77
:1037B000E66EE66AA1DEE552E552E552E5521200F8
:1037C00006C014F007C015F008C016F009C017F0C5
:1037D000120006C00BF007C00CF008C00DF009C0C5
:0437E0000EF01200D5
:0C37E4000F0E946E82681200070E941005
:1037F000946EDF0E9414946E82681200D0D808D9AB
:1038000001E601D917E2DDD8826EF8D8D1D801E6F9
:10381000FAD80BE2B7D802E1FFD801D01DD9020EC9
:10382000DB2A030EF3E3DB2AF1D7DF2A010EE7E3FD
:10383000DB2AE5D7040EE15C02E2E16AE552E16EC3
:10384000D9D0ADD8DBD8010EDE6EDD6ABAD88214CD
:10385000826ED4D8ADD804E6030E145C000E155861
:103860000BE290D802E1D8D801D0F6D8020EDB2ABC
:10387000030EF0E3DB2AEED7040EE15C02E2E16A1C
:10388000E552E16EB7D0A7D8010EEE1804E1ED5075
:1038900002E1010E01D0000EADD09DD8320EEE181F
:1038A00004E1ED5002E1010E01D0000EA3D077D863
:1038B000D7D8FD0EDBCF16F0FE0EDBCF17F015507C
:1038C0001718E8AE02D0173404D01650145C175005
:1038D000155813E293D86CD804E6EE0E145C000E73
:1038E000155806E2020EDB2A030EF5E3DB2AF3D7B6
:1038F000DF2A010EDDE3DB2ADBD7040EE15C02E206
:10390000E16AE552E16E76D04AD882D801E67BD8EA
:1039100022E257D8826E72D84BD801E674D80DE2F5
:103920009BD830D804E11ED8010EEE6EED6A020E6F
:10393000DB2A030EF1E3DB2AEFD78250816EE80E1B
:10394000E66E030EE66EB3DFE552E552DF2A010EA6
:10395000DCE3DB2ADAD7040EE15C02E2E16AE5523D
:10396000E16E48D07DD8D89014361536D8901436EC
:103970001536020EDB501424E96E030EDB501520C1
:1039800035EF1DF0020EDBCFE9FF030EDBCFEAFFC0
:10399000240EE926010EEA22EF5082141200D9CF3C
:1039A000E6FFE1CFD9FF040EE126DE6ADD6A1200F0
:1039B000020EDBCF14F0030EDBCF15F0D8901550BC
:1039C0001200DECFE9FFDDCFEAFF200EE926010E6F
:1039D000EA22EF1C1200D9CFE6FFE1CFD9FFFE0E9D
:1039E000EA6ADB34FE0BEA36E96E000EE926010EC8
:1039F000EA221200E552E7CFD9FF1200020EDB6A7D
:103A0000030EDB6A1200040E145C000E155812003F
:103A100027D8D89015501200DECF18F0DDCF19F05E
:103A2000D89018361936D89018361936020EDB5051
:103A30001824E96E030EDB50192017D8EECF16F0CC
:103A4000EFCF17F0010E1626000E17228BDF16C0DF
:103A5000EEFF17C0EDFF120085DFEE6AED6A12007F
:103A6000DECF14F0DDCF15F01200EA6ED890E93603
:0C3A7000EA36000EE926010EEA221200E0
:043A7C00F1D8D59E0A
:103A8000FD0EDBCF28F1FE0EDBCF29F1D59C05D949
:103A9000D59AD586F28AF294F184D58EE6D0D59E59
:103AA0001200FBD8D58E1200DBD8CD90FD0EDBCFF7
:103AB0002AF1FE0EDBCF2BF1F7D89D809E909F90D0
:103AC000CD8ECD8CCD98CD9ACD96CD92CD80CDD0CA
:103AD000EBD8CD801200CD901200C2D8CA94CC6A27
:103AE000FE0EDB5001012C6F2D6BCB6E9D829E92E2
:103AF0009F92CA90CA92CA84B8D02CC1CBFFCA8404
:103B00001200CA941200ACD8B190FD0EDBCF2EF19A
:103B1000FE0EDBCF2FF1CFD80750B36ECCD8B5D87F
:103B2000B26EA082A192A292B18EB198B19AB192D6
:103B3000B1809BD0C0D80350B26EBDD89ED8B36EB2
:103B4000B1801200B19012000101382B000E392310
:103B50004051385D4151395904E3386B396B010EDE
:103B6000306F120001013A2B000E3B2342513A5DA7
:103B700043513B5904E33A6B3B6B010E316F12002A
:103B800001013C2B000E3D2344513C5D45513D5904
:103B900004E33C6B3D6B010E326F120001013E2BC2
:103BA000000E3F2346513E5D47513F5904E33E6BB3
:103BB0003F6B010E336F120053D8FD0EDBCF40F187
:103BC000FE0EDBCF41F10101386B396B306B4DD00C
:103BD00047D8FD0EDBCF42F1FE0EDBCF43F1050EE1
:103BE0000D6E0E6A42C108F043C109F006EC20F0E8
:103BF00008C042F109C043F101013A6B3B6B316BE4
:103C000034D02ED8FD0EDBCF46F1FE0EDBCF47F1D0
:103C10000A0E0D6E0E6A46C108F047C109F006ECA7
:103C200020F008C046F109C047F101013E6B3F6B2F
:103C3000336B1BD01C6A1A50175C146E1B5018583B
:103C4000156E1C501958166E0C6A010E0D6E0E6A18
:103C500014C007F015C008F016C009F02CEF20F0D2
:103C6000D9CFE6FFE1CFD9FF1200E552E7CFD9FF68
:103C7000120017681868196A120007C014F008C00B
:103C800015F009C016F00750120003C014F004C06C
:103C900015F005C016F00350120014D80350D66E6C
:103CA00011D8EBDFD76E120014D80750CF6E11D8A1
:103CB000ECDFCE6E1200DDDF2EC11AF02FC11BF03B
:103CC0001AEF1EF0D6DF28C11AF029C11BF01AEF37
:103CD0001EF0CFDF2AC11AF02BC11BF01AEF1EF025
:103CE000BED8020EE126FE0EDB500F0BDF6EFE0E7D
:103CF000DB380F0B0A0DBCD802E2E16AE552E16E37
:103D00001450B2D0ACD8020EE126BBD80550DF6EFD
:103D1000B8D80950100DACD802E2E16AE552E16E64
:103D20001450A2D094869488C79EC79CC690C69211
:103D3000C694C686310EC86EC68A120090D89E966A
:103D4000FE0EDB50D00FC96E9EA6FED78DD09E967C
:103D5000C5809EA6FED712009E96C5849EA6FED75D
:103D600012007DD89E96FE0EDB50C96E9EA6FED731
:103D70007BD09E96C5869EA6FED7C95012009E9601
:103D8000C59AC5889EA6FED712009E96C58AC5888C
:103D90009EA6FED7120063D87CD8010E7E6FE85035
:103DA00004E0C550400BFAE0F8D779D8010E7E6FD9
:103DB000E85004E0C550400BFAE0F8D7FD0EDBCF29
:103DC000E6FFA0DFE552E66ECCDFE5520F01010E03
:103DD0007E6FE85004E0C550400BFAE0F8D7BCDF36
:103DE00043D03DD8E65255D8010E7E6FE85004E02E
:103DF000C550400BFAE0F8D752D8010E7E6FE8505C
:103E000004E0C550400BFAE0F8D7A1DF010EE66EE2
:103E100095DFE5520F01010E7E6FE85004E0C550BA
:103E2000400BFAE0F8D7A5DFDF6EDFCFE6FF58DF03
:103E3000E552DF6EDF50E55217D011D8FD0EDBCF13
:103E4000E6FFFE0EDBCFE6FFA6DFE552E5520CD023
:103E500006D8FE0EDBCFE6FFC4DFE55205D0D9CF92
:103E6000E6FFE1CFD9FF1200E552E7CFD9FF1200FC
:103E7000010EF3CFDBFFDB50DF24146E020EE15C9A
:103E800012000A0E146E0E6EFE0EDBCF09F082EFEA
:103E900021F05DDFE66A52DFE5520F011200FE0EEF
:0C3EA000DBCFE6FF5EDFE5520F011200F1
:043EAC00F28ED08E34
:103EB000F28C1200F19CF292F2881200D8CFE4FF4B
:103EC000E0CFE4FFE46E65D800EE00F0140EE804E5
:103ED00003E3EECFE4FFFBD700EE14F00A0EE80494
:103EE00003E3EECFE4FFFBD7E652F2B47AD89EB0FC
:103EF0007FD8A1B284D8F2B2F2929EBA9E9AE552CD
:103F000000EE1DF00A0EE80403E3E5CFEDFFFBD75A
:103F100000EE13F0140EE80403E3E5CFEDFFFBD74A
:103F20004DD8E550E5CFE0FFE5CFD8FF100031D800
:103F300000EE00F0140EE80403E3EECFE4FFFBD73D
:103F400000EE14F00A0EE80403E3EECFE4FFFBD723
:103F5000E652F2B446D89EB04BD8A1B250D8F2B2D5
:103F6000F2929EAA03D070EC1BF09E9AE55200EEEE
:103F70001DF00A0EE80403E3E5CFEDFFFBD700EEEA
:103F800013F0140EE80403E3E5CFEDFFFBD716D8DA
:103F90001100DACFE4FFE2CFDAFFE9CFE4FFEACFA6
:103FA000E4FFF6CFE4FFF7CFE4FFF5CFE4FFF3CF74
:103FB000E4FFF4CFE4FFFACFE4FF1200E5CFFAFF0D
:103FC000E5CFF4FFE5CFF3FFE5CFF5FFE5CFF7FF52
:103FD000E5CFF6FFE5CFEAFFE5CFE9FFE5CFDAFF72
:103FE00012004FEC1DF0F29451EC1DF0A4EF1DF007
:103FF0006BEC1DF09E9068EC1DF0B2EF1DF0A2EC92
:0C4000001DF0A1929AEC1DF0CEEF1DF017
:04400C00006A0EAE8A
:104010000FEF20F00D6C0E1EE86A0E22001E09AE96
:1040200017EF20F0086C091EE86A0922001E4EEC0A
:1040300021F009BE27EF20F000AE000C086C091E2D
:10404000E86A0922046C051EE86A0522000C00BE1D
:104050001EEF20F00188FF0C006A0EAE37EF20F053
:104060000C6C0D1E0E1EE86A0D220E22001E09AEFB
:1040700041EF20F0076C081E091EE86A0822092299
:10408000001E31EC21F009BE54EF20F000AE000C10
:10409000076C081E091EE86A08220922036C041E28
:1040A000051E04220522000C00BE48EF20F0018806
:1040B000FF0C09C013F008C012F008500D02F4CF35
:1040C00007F0F3CF06F009500E02F4CF09F0F3CF5A
:1040D00008F00D02F3500726F4500822E86A09227E
:1040E00012500E02F3500726F4500822E86A092203
:1040F0000EAE7FEF20F01250085E1350095A13AE37
:0C410000000C0D50085E0E50095A000C17
:04410C001E0EF66E1F
:10411000000EF76E000EF86E01010900F550706F89
:104120000900F550716F03E1706701D03DD00900BF
:10413000F5506B6F0900F5506C6F0900F5506D6F0D
:1041400009000900F550E96E0900F550EA6E090012
:1041500009000900F5506E6F0900F5506F6F0900F6
:104160000900F6CF72F1F7CF73F1F8CF74F16BC19C
:10417000F6FF6CC1F7FF6DC1F8FF01016E5302E15C
:104180006F5307E00900F550EE6E6E07F8E26F0717
:10419000F9D772C1F6FF73C1F7FF74C1F8FF0101CF
:0A41A0007007000E715BBFD712001C
:0641AA0006500B02F3CFEA
:1041B00002F0F4CF03F00C02F3500326000EF420BB
:1041C000046E06500D02F3500426000EF420056E16
:1041D00006500E02F350052607500B02F35003263B
:1041E000F4500422000E052207500C02F35004265E
:1041F000F450052207500D02F350052608500B021B
:10420000F3500426F450052208500C02F350052602
:0A42100009500B02F35005261200BE
:06421A00056A046A036A54
:10422000026A200EE76ED890063607360836093641
:1042300002360336043605360B50025C0C50035828
:104240000D5004580E50055809E30B50025E0C50F7
:10425000035A0D50045A0E50055A062AE72EE4D789
:0242600012004A
:0E426200056A046A036A180EE76ED8900736E4
:10427000083609360336043605360C50035C0D50FB
:1042800004580E50055807E30C50035E0D50045AB5
:0C4290000E50055A072AE72EEAD712004C
:04429C00056A046A41
:1042A000100EE76ED89008360936043605360D50E4
:1042B000045C0E50055805E30D50045E0E50055A7F
:0842C000082AE72EF0D71200D6
:0842C800800EF36E00EE00F021
:1042D0000F0E01D81200EA6002D0EE6AFCD7F3504C
:0842E000E9601200EE6AFCD750
:0842E8001EEE00F02EEE00F0C6
:1042F000F86A019C86EC20F003EC00F0FEEC0CF078
:04430000FBD71200D5
:0C430400056A080EE76ED89009360536F1
:104310000E50055C02E3056E092AE72EF7D712005E
:10432000000000000000000000000000000000008D
:104330000000000000000000010001000100010079
:1043400001000000000000000032003200070007FA
:1043500000FFFFFFFF000000000000000000000061
:10436000000001000000000000010001000000004A
:0643700000000000010046
:0A437600000000000000000000003D
:0943800000000000000000010033
:07438900000000000000002D
:1043900000101010101010101018181818181818F5
:1043A000181C1C1C1C1C1C1C1C1E1E1E1E1E1E1E43
:1043B0001E1F1F1F1F1F1F1F1F00000000000000E7
:1043C00000000000000000000000000000000000ED
:1043D00000000000000000000000000000000000DD
:0A43E00000000000000000000000D3
:0643EA00000000D00022DB
:1043F0002222072509100001000000000000000033
:054400000000000000B7
:0B4405000000000000000000000000AC
:10441000000000000000000000000000000000009C
:0D4420000000000000102040800102040890
:020000040030CA
:0100010002FC
:0100020003FA
:010003001EDE
:010005008179
:010006008178
:010008000FE8
:01000900C036
:01000A000FE6
:01000B00E014
:01000C000FE4
:01000D0040B2
:00000001FF
