:020000040000FA
:0600000030EF27F01200B2
:020006000700F1
:0600080053EF25F0120089
:02000E001200DE
:03001000000000ED
:0400130000000000E9
:060018001AEF25F01200B2
:02001E000800D8
:10002000884F0000420F0000280000006D4F0000C4
:10003000E10000001B000000130000007C0F000026
:10004000040000000C4F0000800000006100000070
:10005000FA4E00006A0F000012000000B84E0000C7
:10006000000F000042000000984E000063010000F5
:1000700020000000100000008D01000003000000BF
:100080000F01005102E1010E011901E177D20F0EBB
:10009000001901E1015101E12DD20E0E001901E11B
:1000A000015101E117D20D0E001901E1015101E1E9
:1000B000DDD10B0E001901E1015101E1D5D10A0E8C
:1000C000001901E1015101E1A4D10C0E001901E177
:1000D000015101E181D1090E001901E1015101E154
:1000E00079D1080E001901E1015101E14AD1070E51
:1000F000001901E1015101E141D1060E001901E1B0
:10010000015101E110D1120E001901E1015101E18B
:1001100008D1050E001901E1015101E1B3D0040E2F
:10012000001901E1015101E182D0110E001901E134
:10013000015101E176D0100E001901E1015147E0B3
:10014000030E001901E1015137E0020E001901E12F
:10015000015115E0010E001901E1015101E0120009
:1001600094EC14F0FFEC16F054EC12F001E321D201
:10017000020EB2EC11F0010E026F036B1200AB0E17
:10018000E66E3F0E46EC12F09B0EE66E3F0E2DEC37
:1001900013F002E20DEC13F054EC12F004E2030E43
:1001A0000F01006F016B51EC12F001E302D20F015D
:1001B000006B010E016F12008BEC15F0CBEC15F00B
:1001C0000F01385101E1F5D1386B020EEFD1020E6B
:1001D00002190BE1035109E18E0EE66E3F0E46EC6B
:1001E00012F07E0EE66E3F0E08D07E0EE66E3F0EDB
:1001F00046EC12F0720EE66E3F0E2DEC13F002E2AA
:1002000010EC13F054EC12F004E2110E0F01006F29
:10021000016B51EC12F001E3CCD12BEC11F0020E8A
:10022000C4D15AEC12F001E1C4D1100EBED1100EAF
:1002300002190BE1035109E19B0EE66E3F0E46ECFD
:1002400012F0660EE66E3F0E08D0660EE66E3F0EAA
:1002500046EC12F0590EE66E3F0E2DEC13F002E262
:1002600013EC13F051EC12F002E20DEC13F054EC2D
:1002700012F001E39ED1050EB2EC11F0B7D90F01D7
:100280003A6B12003CDB0F013A5101E093D99EEC2E
:1002900012F006E00F013A6B3B6B3C6B3D6B12D0EA
:1002A0007AEC12F008E00F013A5105E1010E3A6FC5
:1002B00090EC11F007D07AEC12F004E00F013A054F
:1002C00001E13A6BA1EC12F016E0050E0F013E5D64
:1002D00012E25EEC11F03BCFEFFF5EEC11F0EE525C
:1002E0003CCFEFFF5EEC11F0020EE926000EEA2291
:1002F0003DCFEFFF3E2BA4EC12F007E0120EB2EC64
:1003000011F03A6B1FEC12F03F6F5AEC12F001E162
:1003100050D10F013A6B3B6B3C6B3D6B386B040E5D
:1003200045D125EF03F0040E02190BE1035109E159
:10033000720EE66E3F0E46EC12F04C0EE66E3F0E6D
:1003400008D04C0EE66E3F0E46EC12F03F0EE66E05
:100350003F0E2DEC13F004E22BEC11F0D9EC11F070
:1003600051EC12F002E210EC13F054EC12F001E345
:1003700020D1070EB2EC11F0096B1200FCDA41EF4C
:1003800005F0060E02190BE1035109E1590EE66E64
:100390003F0E46EC12F0320EE66E3F0E08D0320EE3
:1003A000E66E3F0E46EC12F0250EE66E3F0E2DEC8B
:1003B00013F002E216EC13F051EC12F002E213EC2F
:1003C00013F054EC12F001E3F4D00F01046B056B51
:1003D000090EECD01FEF0AF0160EE66E3F0E46EC4B
:1003E00012F0070EE66E3F0E33EC12F056EC13F0EF
:1003F00004E2010E0F01006F016B0F012A5101E1B0
:10040000D8D0260501E0D5D0010E006F016B2A6B14
:100410001200080E02190BE1035109E13F0EE66ECE
:100420003F0E46EC12F0FA0EE66E3E0E08D0FA0EC3
:10043000E66E3E0E46EC12F0F10EE66E3E0E2DEC30
:1004400013F002E219EC13F051EC12F004E22BEC81
:1004500011F0D9EC11F054EC12F001E3AAD00B0E1C
:10046000B2EC11F007EF0DF070EF0BF00A0E02196D
:100470000BE1035109E1250EE66E3F0E46EC12F04A
:10048000E80EE66E3E0E08D0E80EE66E3E0E46EC36
:1004900012F0E20EE66E3E0E2DEC13F006E22BECAF
:1004A00011F00F01006B010E016F51EC12F002E22E
:1004B00016EC13F054EC12F001E37BD00E0EB2EC0C
:1004C00011F0DA0EE66E3E0EC3EC10F00F01010ED5
:1004D000226F1200CA0EE66E3E0E46EC12F00F01BD
:1004E000286B6BEC12F01E6F21CF1FFF56EC13F040
:1004F00060E242D0C00EE66E3E0E46EC12F0B60E42
:10050000E66E3E0E33EC12F023CF14F041EC11F006
:1005100023CFE6FFA6EC10F0EAEC11F0D0EC10F0DF
:1005200024CF14F041EC11F024CFE6FFA6EC10F03C
:10053000060E5DEC12F030EC11F002E115502119BD
:1005400008E03B0E1E1908E11F5106E12051211160
:1005500003E124EC12F0282B050E285D0AE12905A1
:1005600008E1DA0EE66E3E0EC3EC10F00F01286BC8
:10057000296B56EC13F01DE20D0E17D0F10EE66E4E
:100580003E0E46EC13F002E219EC13F04EEC12F0C2
:1005900006E22BEC11F0020E0F01006F016B54EC20
:1005A00012F007E22BEC11F0010E0F01006F016B4E
:1005B0001200120030EC11F002E11550211908E090
:1005C0003B0E1E1908E11F5106E12051211103E1E4
:1005D0003D2B24EC12F03C0E3D5D02E33D6B3C2BC9
:1005E0003C0E3C5D02E33C6B3B2B12006FEC11F0C8
:1005F000020EE126DE6ADD6A0F013E6BDECF14F0EB
:10060000DDCF15F0D890155004E6060E145C000EF0
:10061000155813E212EC11F0EF6A12EC11F0EE52E1
:10062000EF6A12EC11F0020EE926000EEA22EF6AE0
:10063000DF2A010EE3E3DB2AE1D7020EE15C02E2EE
:10064000E16AE552E16E74EF11F0010162513E0A78
:1006500001E1E5D0030A01E1A8D0010A6CE0070A34
:1006600031E0010A01E01200AB0EE66E3E0E46ECF0
:1006700012F0A60EE66E3E0E33EC12F039EC12F0DC
:1006800070EC12F09AEC12F04EEC12F006E201015E
:100690003B0E626F0F013A0E3F6F51EC12F006E213
:1006A00001013E0E626F0F013A0E3F6F9EEC12F099
:1006B00003E1A4EC12F001E099DF5AEC12F001E141
:1006C000D7D0D3D03A0E0F013F5D0DE19F0EE66EFD
:1006D0003E0E46EC12F09A0EE66E3E0E33EC12F031
:1006E00070EC12F00CD09A0EE66E3E0E46EC12F054
:1006F000950EE66E3E0E33EC12F0F4EC12F037EC91
:1007000013F006E201013C0E626F0F013B0E3F6FDA
:1007100051EC12F004E21FEC12F03B0E3F6F9EEC26
:1007200012F003E1A4EC12F001E060DF5AEC12F0E9
:1007300001E19ED09AD03B0E0F013F5D0DE1A60E68
:10074000E66E3E0E46EC12F0900EE66E3E0E33EC78
:1007500012F0F4EC12F00CD0900EE66E3E0E46EC69
:1007600012F08B0EE66E3E0E33EC12F0F9EC12F046
:1007700037EC13F006E201013D0E626F0F013C0EF3
:100780003F6F51EC12F006E201013B0E626F0F0168
:100790003C0E3F6F9EEC12F003E1A4EC12F001E07E
:1007A00025DF5AEC12F064E060D03C0E0F013F5D93
:1007B0000DE1950EE66E3E0E46EC12F0860EE66EEC
:1007C0003E0E33EC12F0F9EC12F00CD0860EE66E11
:1007D0003E0E46EC12F0810EE66E3E0E33EC12F049
:1007E000FEEC12F037EC13F006E201013E0E626FF0
:1007F0000F013D0E3F6F51EC12F006E201013C0E7D
:10080000626F0F013D0E3F6F9EEC12F003E1A4EC0E
:1008100012F001E0EBDE5AEC12F02AE026D08B0E4B
:10082000E66E3E0E46EC12F07C0EE66E3E0E33ECAB
:1008300012F0FEEC12F037EC13F004E21FEC12F0B1
:100840003E0E3F6F51EC12F006E201013D0E626F69
:100850000F013E0E3F6F9EEC12F003E1A4EC12F08C
:1008600001E0C4DE5AEC12F003E0050EB2EF11F025
:1008700012006FEC11F00A0EF36EFB0EDBEC11F0C0
:100880000AE2E0EC11F0040E69EC11F0FB0E49EC09
:1008900012F0050E04D0FB0E49EC12F0040E86ECAB
:1008A00012F00A0EF36EFC0EDBEC11F00AE2E0EC43
:1008B00011F0070E69EC11F0FC0E49EC12F0080E75
:1008C00004D0FC0E49EC12F0070E86EC12F00A0E72
:1008D000F36EFD0EDBEC11F00AE2E0EC11F00A0E13
:1008E00069EC11F0FD0E49EC12F00B0E04D0FD0E78
:1008F00049EC12F00A0E86EC12F074EF11F06C0E57
:10090000E66E3E0E52EC13F00A0E0F013B5D08E25C
:1009100060EC12F0E3EC12F0ABEC12F0050E03D039
:10092000ABEC12F0040E4DEC13F00F013C5D08E24D
:1009300060EC12F0E6EC12F0B2EC12F0080E03D00C
:10094000B2EC12F0070E5DEC12F0DFEC10F0090EC5
:1009500057EC12F00F013D5D09E260EC12F00A0E57
:1009600030EC13F0B9EC12F00B0E03D0B9EC12F02E
:100970000A0E5DEF12F0560EE66E3E0E52EC13F0CC
:100980000F011D5104E0510EE66E3E0E03D04D0ED8
:10099000E66E3E0EE66E0C0E57EC12F00F0117AF2E
:1009A00002D0D89003D0165D000E175914E2670EDE
:1009B000E66E3E0E07EC11F0E66E99EC10F0F5ECE9
:1009C00011F015AE02D0166817683BEC13F0020E5A
:1009D000E66E010E0AD0F5EC11F015AE02D01668E5
:1009E00017683BEC13F0010EE66EE66ED0EC10F0EB
:1009F000DFEC10F0030E57EC12F00F0119AF02D02C
:100A0000D89003D0185D000E19590EE260EC12F078
:100A1000E3EC12F0FCEC11F015AE02D0166817688A
:100A20003BEC13F0050E09D0FCEC11F015AE02D032
:100A3000166817683BEC13F0040E4DEC13F00F0131
:100A40001BAF02D0D89003D01A5D000E1B590EE2E6
:100A500060EC12F0E6EC12F003EC12F015AE02D0EE
:100A6000166817683BEC13F0080E09D003EC12F07F
:100A700015AE02D0166817683BEC13F0070E5DEF59
:100A800012F00F010951040A01E154D1070A01E1F2
:100A9000EFD0010A01E1A0D0030A52E0010A01E00F
:100AA0001200E8EC10F007E2A7EC12F007EC11F0EE
:100AB000E66E99EC10F051EC12F00DE20F01162BDE
:100AC000000E1723173507E216511708000E1755A9
:100AD00002E2166B176B4EEC12F00AE20F011607DA
:100AE000000E175B800E171503E0170E166F176BBD
:100AF000040E78EC11F00EE2050E0F011627000E21
:100B00001723173507E216511708000E175502E292
:100B1000166B176B050E78EC11F00BE2050E0F014A
:100B2000165F000E175B800E171503E0170E166F89
:100B3000176B54EC12F001E318D10F01010EF8D03D
:100B4000E8EC10F004E25FEC13F0E3EC12F051EC8F
:100B500012F00DE20F01182B000E1923193507E2D0
:100B600018513B08000E195502E2186B196B4EEC38
:100B700012F00AE20F011807000E195B800E19151A
:100B800003E03B0E186F196B040E78EC11F00EE2C7
:100B9000140E0F011827000E1923193507E21851FA
:100BA0003B08000E195502E2186B196B050E78EC24
:100BB00011F00BE2140E0F01185F000E195B800E8E
:100BC000191503E03B0E186F196B54EC12F001E39A
:100BD000CCD00F01020EACD0E8EC10F004E25FECD8
:100BE00013F0E6EC12F051EC12F00DE20F011A2BAB
:100BF000000E1B231B3507E21A513B08000E1B5544
:100C000002E21A6B1B6B4EEC12F00AE20F011A079C
:100C1000000E1B5B800E1B1503E03B0E1A6F1B6B57
:100C2000040E78EC11F00EE2140E0F011A27000EDC
:100C30001B231B3507E21A513B08000E1B5502E22D
:100C40001A6B1B6B050E78EC11F00BE2140E0F0102
:100C50001A5F000E1B5B800E1B1503E03B0E1A6F24
:100C60001B6B54EC12F001E380D00F01030E60D037
:100C700051EC12F005E20F01010E1D6F90EC11F026
:100C80004EEC12F002E20F011D6B0F011D5136E018
:100C900030EC11F002E11550211908E03B0E1E194D
:100CA0002DE11F512BE12051211128E124EC12F0FC
:100CB0001B3509E21A510008000E1B5504E21A0701
:100CC000000E1B5B1BD01A511B1118E11851191192
:100CD00007E03B0E1A6F1B6B1807000E195B0ED056
:100CE000185119110BE11651171108E01607000EE3
:100CF000175B3B0E186F196B1A6F1B6B1651171190
:100D000007E11851191104E11A511B1101E11D6B82
:100D10001D5108E1E8EC10F005E2E5EC11F00C0ED5
:100D200030EC13F054EC12F020E20F011D6B040EB6
:100D3000096F1200E8EC10F002E203EC13F07AEC19
:100D400012F003E1A1EC12F002E00F010CD054EC20
:100D500012F00BE2060EB2EC11F0166B176B186B6B
:100D6000196B1A6B1B6B096B120012006FEC11F000
:100D7000E65201018E51EA6A010FE96E010EEA2284
:100D8000EFCFDFFF8E293F0B8E6FDF50E55274EF00
:100D900011F0CBEF11F0010E0F01401901E14151AB
:100DA00001E0120001018F51000804E204D80101A2
:100DB0008F07120012006FEC11F0E652D7DFDF6EE2
:100DC000DFCFE6FF24EC20F0E552630E0F0134196B
:100DD00001E1355101E1E4D0690E341901E13551E9
:100DE00001E1C0D0680E341901E1355101E1ABD009
:100DF000670E341901E1355101E190D0660E3419C6
:100E000001E1355101E17FD0650E341901E1355121
:100E100065E0640E341901E1355155E00E0E3419C8
:100E200001E1355144E00C0E341901E1355136E051
:100E30000B0E341901E1355128E00A0E341901E195
:100E400035511AE0020E341901E135510CE0010E62
:100E5000341901E0D0D0355101E0CDD0210EDF5C56
:100E600001E0C9D02CD0540EDF5C02E10A0EC1D0E3
:100E7000210EDF5C26E123D0490EDF5C02E10B0E80
:100E8000B8D0210EDF5C1DE11AD04D0EDF5C02E10F
:100E90000C0EAFD0210EDF5C14E111D0450EDF5CEB
:100EA00002E10E0EA6D0210EDF5C0BE108D03A0E57
:100EB000DF5C02E1640E9DD0210EDF5C02E1020ED8
:100EC00098D0010E96D0FFEC10F001E1121D46E023
:100ED0007EEC11F006C043F1650E8AD0FFEC10F0F5
:100EE00001E1121D3BE0115101014327170EE66E8F
:100EF000E66A435125EC13F002E0660E79D00C0E41
:100F0000E66E3E0E43D0FFEC10F001E1121D26E02C
:100F10007EEC11F006C044F1670E6AD0FFEC10F0D1
:100F200001E1121D1BE01151010144273B0EE66E49
:100F3000E66A445125EC13F002E0680E59D0D10E58
:100F4000E66E3D0E23D0FFEC10F001E1121D06E02D
:100F50007EEC11F006C045F1690E4AD02F0EE66E08
:100F60003E0E43D0FFEC10F001E1121D15E01151CF
:100F7000010145273B0EE66EE66A455125EC13F06C
:100F800002E0630E35D0AC0EE66E3D0EC3EC10F001
:100F9000F60EE66E3D0E29D0920EE66E3D0E25D081
:100FA000230EDF5C1DE1010E346F356B43C1E6FF9C
:100FB000020EF9EC10F044C1E6FF010EF9EC10F05E
:100FC00045C1E6FFE66A87EC24F0E552E5520F01E1
:100FD0002B5111E0720EE66E3D0EC3EC10F00BD0FB
:100FE0005A0EE66E3D0E7DEC12F0C3EC10F0010ED1
:100FF0000F01346F356B630E0F01361901E1375164
:1010000001E171D1740E361901E1375101E13FD18F
:10101000760E361901E1375101E1D1D0750E36193E
:1010200001E1375101E1BDD0730E361901E13751AD
:1010300001E191D0720E361901E1375101E17AD008
:101040006F0E361901E1375167E06E0E361901E176
:10105000375155E06D0E361901E1375144E06C0E01
:10106000361901E1375136E06B0E361901E137517F
:1010700028E06A0E361901E137511AE0020E3619DE
:1010800001E137510CE0010E361901E05DD1375115
:1010900001E05AD1210EDF5C01E056D12CD0440E84
:1010A000DF5C02E16A0E1CD1210EDF5C26E123D059
:1010B000410EDF5C02E16B0E13D1210EDF5C1DE1FE
:1010C0001AD0540EDF5C02E16C0E0AD1210EDF5CF7
:1010D00014E111D0450EDF5C02E16D0E01D1210E4D
:1010E000DF5C0BE108D03A0EDF5C02E16E0EF8D057
:1010F000210EDF5C02E1020EF3D0010EF1D0D7EC3D
:1011000010F001E1141D23E087EC11F006C048F156
:1011100007C049F16F0EE3D0D7EC10F001E1141DC8
:1011200016E01351010148270F0114510101492311
:10113000720ED5D0D7EC10F001E1141D08E087EC59
:1011400011F006C04AF107C04BF1730EC8D02F0E44
:10115000E66E3E0EC1D0D7EC10F001E1141D01E1A6
:10116000B8D0135101014A270F01145101014B233B
:101170000C0EE66EE66A4AC1E6FF4BC1E6FF0BECD9
:1011800011F006E001014A514B1102E0750EA7D0A3
:10119000000EE66E3D0EC3EC10F0F60EE66E3D0E50
:1011A0009BD0D7EC10F001E1141D01E192D087EC47
:1011B00011F006C04CF107C04DF1760E90D0D7EC7F
:1011C00010F001E1141D01E184D0135101014C27FD
:1011D0000F01145101014D234C514D1106E1EA0E4E
:1011E000E66E3C0EC3EC10F0AFD024EC11F0F350DF
:1011F000F4100CE101014D3509E24C511E08000EBE
:101200004D5504E2C80EE66E3C0E5DD024EC11F0A4
:10121000010EF3180EE115500CE101014D3509E204
:101220004C511F08000E4D5504E2900EE66E3C0E28
:101230004AD024EC11F0020EF31811E115500FE121
:101240004AEC11F00CE101014D3509E24C511D0849
:10125000000E4D5504E26E0EE66E3C0E34D024ECCA
:1012600011F0020EF31811E115500FE14AEC11F0E4
:101270000CE001014D3509E24C511C08000E4D55A2
:1012800004E24C0EE66E3C0E1ED0740E28D0D7EC55
:1012900010F001E1141D1DE013CF4EF114CF4FF1FA
:1012A000070EE66EE66A13CFE6FF14CFE6FF0BECFF
:1012B00011F006E001014E514F1102E0630E0FD014
:1012C0002A0EE66E3C0EC3EC10F0B20EE66E3C0E3B
:1012D00003D0920EE66E3D0EC3EC10F0010E0F012E
:1012E000366F376B31D0230EDF5C23E1010E366F92
:1012F000376B48C1E6FF060EF9EC10F04AC1E6FF75
:10130000050EF9EC10F04CC1E6FF040EF9EC10F0FC
:101310004EC1E6FF030EF9EC10F00F012B5105E072
:101320000A0EE66E3C0EC3EC10F00F01010E2A6FA0
:101330000BD0EB0EE66E3B0E7DEC12F0C3EC10F022
:10134000010E0F01346F356B0F012251630A63E008
:10135000AD0A52E0030A47E0010A3EE0070A33E023
:10136000010A27E0030A1CE0010A11E0CA0A06E0AC
:10137000030A62E1210EDF5C5FE123D0440EDF5CF3
:1013800002E1C80E58D0210EDF5C54E11AD0480E9D
:10139000DF5C02E1C90E4FD0210EDF5C4BE111D0C2
:1013A000540EDF5C02E1CA0E46D0210EDF5C42E142
:1013B00008D03A0EDF5C02E1CB0E3DD0210EDF5C9F
:1013C00039E1020E38D03AEC11F01DE00A0E250387
:1013D000F3CF23FFCC0E2FD03AEC11F014E02551BF
:1013E0002327CD0E28D03AEC11F00DE00A0E25038C
:1013F000F3CF24FFCE0E1FD03AEC11F004E02551BC
:101400002427630E18D0010E226FDC0EE66E3B0E11
:10141000C3EC10F011D0230EDF5C06E10F0E006F5D
:10142000016B010E296F07D0CB0EE66E3B0EC3ECAD
:1014300010F00F01010E226FE55274EF11F00F0151
:10144000045102E1010E051901E195D0040E0419C1
:1014500001E1055101E18DD0030E041901E10551AF
:1014600001E17AD0010E041901E1055128E004518F
:1014700001E1055101E01200C10EE66E3B0E46ECA3
:1014800012F0B50EE66E3B0E43EC13F006E2040ECE
:101490000F01046F056B266B276B4EEC12F006E212
:1014A000010E0F01046F056B076B086B51EC12F016
:1014B00001E379D00F01046B010E056F1200075193
:1014C000081109E0A90EE66E3B0E46EC12F0A30EE1
:1014D000E66E3B0E08D0990EE66E3B0E46EC12F01F
:1014E000A90EE66E3B0E2DEC13F004E20F01046B27
:1014F000010E056F51EC12F003E20F01046B056B56
:1015000054EC12F050E2030E0F01046F056B010E54
:10151000156F5AEC13F00F012C6F010E45EC11F012
:101520000F012D6F020E45EC11F00F012E6F030E0F
:1015300045EC11F00F012F6F040E45EC11F00F0177
:10154000306F050E45EC11F00F01316F060E45ECC2
:1015500011F00F01326F1200A7DB40EC0FF00F010A
:10156000395121E0046B056B396B010E006F016B83
:101570001200D4EF0AF0B50EE66E3B0E62EC13F0EB
:1015800002E2D9EC11F04EEC12F003E20F01046B11
:10159000056B51EC12F007E2010E0F01046F056BB1
:1015A000076F086B120012000F012651020A01E1B9
:1015B0007ED0030A43E0010A01E01200820EE66ECB
:1015C0003B0E46EC12F0780EE66E3B0E43EC13F049
:1015D00026E2500EE66E3B0EC3EC10F01F0EE66ED8
:1015E0003B0EC3EC10F00F0EE66E3B0EC3EC10F09A
:1015F000ED0EE66E3A0EC3EC10F0BC0EE66E3A0E3F
:10160000C3EC10F0AB0EE66E3A0EC3EC10F0CBEC70
:1016100011F00F01010E2B6F0C0E006F016B51ECDE
:1016200012F004E20F01020E266F276B4EEC12F04F
:1016300056E20F01010E266F276B1200275109E1B8
:101640009A0EE66E3A0E46EC12F0900EE66E3A0EE8
:1016500008D0900EE66E3A0E46EC12F0A30EE66E3F
:101660003B0E43EC13F014E2870EE66E3A0EC3EC29
:1016700010F00F012B6BCBEC11F00C0EB2EC11F053
:10168000EFEC12F0070EF56E0D00F56A0E002A6BF6
:1016900051EC12F004E20F01266B010E276F4EECA5
:1016A00012F01DE20F01020E266F010E16D0780E09
:1016B000E66E3B0E62EC13F002E2D9EC11F051EC55
:1016C00012F005E20F01010E266F020E276F4EEC9D
:1016D00012F005E20F01266B020E276F12001200B6
:1016E0000F010B5102E1010E0C1901E115D1370E6A
:1016F0000B1901E10C5101E1E0D0360E0B1901E1AB
:101700000C5101E1B0D0350E0B1901E10C5101E192
:101710007ED0340E0B1901E10C514FE0330E0B1942
:1017200001E10C5120E0320E0B1901E10C5101E0F6
:101730001200760EE66E3A0E46EC12F0650EE66E7C
:101740003A0E2DEC13F006E2320EB3EC11F0330E2C
:101750000B6F0C6B51EC12F004E20F010B6B010EDE
:101760000C6F090ED3D0320E0D190BE10E5109E1A9
:10177000540EE66E3A0E46EC12F0430EE66E3A0E4A
:1017800008D0430EE66E3A0E46EC12F0320EE66ECC
:101790003A0E2DEC13F006E2330EB3EC11F0340EDA
:1017A0000B6F0C6B51EC12F006E2330EB3EC11F040
:1017B000320E0B6F0C6B080EA9D0330E0D190BE116
:1017C0000E5109E1650EE66E3A0E46EC12F0210E5E
:1017D000E66E3A0E08D0210EE66E3A0E46EC12F096
:1017E000100EE66E3A0E2DEC13F006E2340EB3EC5A
:1017F00011F0350E0B6F0C6B51EC12F006E2340E4B
:10180000B3EC11F0330E0B6F0C6B010E7FD0340E66
:101810000D190BE10E5109E1320EE66E3A0E46EC5F
:1018200012F0FF0EE66E390E08D0FF0EE66E390E8E
:1018300046EC12F0EE0EE66E390E2DEC13F006E2D9
:10184000350EB3EC11F0360E0B6F0C6B51EC12F041
:1018500006E2350EB3EC11F0340E0B6F0C6BFB0E81
:10186000E66EE66855D0350E0D190BE10E5109E113
:10187000100EE66E3A0E46EC12F0DD0EE66E390EF4
:1018800008D0DD0EE66E390E46EC12F0CC0EE66E98
:10189000390E2DEC13F006E2360EB3EC11F0370ED4
:1018A0000B6F0C6B51EC12F006E2360EB3EC11F03C
:1018B000350E0B6F0C6B000E29D0360E0D190BE197
:1018C0000E5109E1EE0EE66E390E46EC12F0BB0E3B
:1018D000E66E390E08D0BB0EE66E390E46EC12F0FD
:1018E000E20EE66E3E0E2DEC13F006E2370EB3EC80
:1018F00011F00B6B010E0C6F51EC12F006E2370E7B
:10190000B3EC11F0360E0B6F0C6B070EE66EE66A49
:1019100019D8E552E5521200CC0EE66E390E46ECAF
:1019200013F003E2370E0AEC12F04EEC12F003E271
:10193000320E0AEC12F054EC12F003E20A0EB2EF8F
:1019400011F012006FEC11F054EC12F057E2B7EC0A
:1019500011F0FD0EDB50141803E1FE0EDB501518DC
:101960004DE011EC12F0EFEC12F00F010900F55010
:10197000145C0F6F0900F5501558106FEFEC12F062
:10198000FD0EDBCFF5FF0D00FE0EDBCFF5FF0E00E9
:10199000020E45EC11F00101416F426BE8500F015E
:1019A0000F250101416F42510F0110210101426FCA
:1019B000800E421508E0180E4125416F000E4221AD
:1019C000426FE66A0DD042350DE241511708000E14
:1019D000425508E2180E415F000E425B010EE66EB2
:1019E000ABD8E55241C1E6FF020EF9EC10F0010E52
:1019F000B2EC11F0380E0B6F0C6B07D054EC12F0F8
:101A000004E2010E0F01006F016B74EF11F0B7ECEF
:101A100011F0070E141801E1155024E0145001E1F3
:101A200015501EE0FB0E141802E1E868151816E0C8
:101A3000010E141801E115500FE0080E141801E111
:101A4000155008E0090E141801E1155001E01200CC
:101A5000320E09D0330E07D0340E05D0350E03D028
:101A6000360E01D0370E0F010B6F0C6B12006FECAE
:101A700011F0300EF36EFE0EDBEC11F00CE3FE0EF7
:101A8000DB50390808E3FE0EDB50D00F156AF36E09
:101A900015C0F4FF02D0F368F46874EF11F06FEC36
:101AA00011F011EC12F0FB0EDBCF16F0FC0EDBCFC9
:101AB00017F017501518E8AE02D0153404D01450A2
:101AC000165C1550175802E2F36A02D0010EF36E4D
:101AD000F46A74EF11F06FEC11F0E150FD0FE96E54
:101AE000FF0EDA20EA6E020EEE1804E1ED5002E17C
:101AF000020E1FD0ABEC11F0040EEE1801E1ED5018
:101B000015E0ABEC11F0060EEE1801E1ED500EE021
:101B1000ABEC11F0090EEE1801E1ED5007E0ABEC73
:101B200011F00B0EEE1804E1ED5002E1F36A02D061
:101B3000010EF36EF46AD8D3D2DB040EE126A5DBE6
:101B4000DF6E030EA2DBE76E010EE7CFDBFF050EB3
:101B50009CDBE76E020EE7CFDBFF060E96DBE76E3F
:101B6000030EE7CFDBFFFE0EDB503DE1DF06010E8B
:101B7000DB06F36EDBCFF4FFE850F45C03E2DE52E9
:101B8000070EDD6E010EDF5C73E2020EDB0408E17E
:101B90001F0EDF6E0C0E29EC12F0030EDB0668D070
:101BA000F8DAF350F41004E1020EDB061F0E5FD0EA
:101BB00029EC13F00BE1155009E1020EDB5003088C
:101BC00005E0010E29EC12F01E0E51D029EC13F0A5
:101BD0004FE115504DE1030EDB50030B02E11D0EEA
:101BE00046D01C0E44D0DF2A010EDB2ADB5007084A
:101BF00003E2DE52010EDD6E020EDB500C080BE13B
:101C0000DF501F0808E2010E29EC12F0010EDF6E12
:101C1000030EDB2A2DD0BDDAF350F41003E1DF50C0
:101C20001E0822E329EC13F005E1155003E1DF5013
:101C30001F081AE3AEDA020EF31809E1155007E1A6
:101C4000030EDB50030B03E1DF501D080DE3A1DAA7
:101C5000020EF3180DE115500BE1030EDB50030BE0
:101C600007E0DF501C0804E2020EDB2A010EDF6EE3
:101C7000DFCFE6FF040EBDDA010EDBCFE6FF030E79
:101C8000B8DA020EDBCFE6FF050EB3DA030EDBCFC8
:101C9000E6FF060EAEDA146E040EE15C02E2E16AC3
:101CA000E552E16E145020D30F012F51070A24E0B2
:101CB000010A1EE0030A18E0010A12E0070A0CE01C
:101CC000010A06E0030A1CE1B70EE66E390E17D0D2
:101CD000B30EE66E390E13D0AF0EE66E390E0FD08E
:101CE000AB0EE66E390E0BD0A70EE66E390E07D09E
:101CF000A30EE66E390E03D09F0EE66E390EC6DBDC
:101D00000A0E0F012E5D08E2DBDB040E33EC13F04C
:101D1000C0EC12F0050E03D0C0EC12F0040E1CEC67
:101D200013F058DB06DA0A0E0F012D5D08E2C8DB5E
:101D3000070E33EC13F0C7EC12F0080E03D0C7EC1B
:101D400012F0070E1CEC13F0090E33EC13F00A0E20
:101D50000F012C5D08E2B4DB0A0E33EC13F0CEEC7D
:101D600012F00B0E03D0CEEC12F00A0EE66EE66A0D
:101D700017DA0F01150506E19B0EE66E390EE66EC9
:101D80000D0E08D0020E155D07E1960EE66E390EB7
:101D9000E66E0C0E33EC13F00F0131510C0A42E0E9
:101DA000070A3CE0010A36E0030A30E0010A2AE0B3
:101DB0000F0A24E0010A1EE0030A18E0010A12E0FB
:101DC000070A0CE0010A06E0030A31E1920EE66E12
:101DD000390E2BD08E0EE66E390E27D08A0EE66EA7
:101DE000390E23D0860EE66E390E1FD0820EE66EB7
:101DF000390E1BD07E0EE66E390E17D07A0EE66EC7
:101E0000390E13D0760EE66E390E0FD0720EE66ED6
:101E1000390E0BD06E0EE66E390E07D06A0EE66EE6
:101E2000390E03D0660EE66E390E21EC13F016DB88
:101E3000050E3DDB0F01305D07E210DB060E30ECD6
:101E400013F0B3DB070E02D0B0DB060E36DB06DB89
:101E5000080E30EC13F0140EB7D9E66A090ED7D984
:101E60005BDB0A0E0F01325D07E2AADA0B0ECFD957
:101E700053DBA2DB0C0E02D09FDB0B0E5DEF12F0EA
:101E80000F010A51FF0A01E115D1F40A01E1F3D073
:101E9000010A01E1CED0030A01E193D0010A6EE00C
:101EA0000F0A3EE0010A0DE0060A01E0120002DB23
:101EB00001E13ED10F01330501E03AD1060E0A6F70
:101EC0001200A5DB04E25FEC13F0040ECCDB12DBA6
:101ED00003E00F012E2953DA34DB08E00F012E0551
:101EE0002E6FE850170802E2170E2E6F27DB04E072
:101EF000050E0F012E2543DA27DB09E0050E0F0141
:101F00002E5D2E6FE850170802E2170E2E6FD2DA00
:101F100003E00F01070E0A6F7DDB01E109D1C8D094
:101F200076DB03E2CCDB070E9EDBE4DA03E00F0195
:101F30002D292BDA06DB08E00F012D052D6FE85067
:101F40003B0802E23B0E2D6FF9DA04E0140E0F019C
:101F50002D251BDAF9DA09E0140E0F012D5D2D6F26
:101F6000E8503B0802E23B0E2D6FA4DA03E00F01BC
:101F7000080E0A6F4FDB01E1DBD09AD048DB04E2A8
:101F8000600EE66E390E82DAB5DA08E00F012F290D
:101F90002F6FE850070802E2010E2F6FD2DA08E037
:101FA0000F012F052F6FE850070802E2070E2F6F71
:101FB00081DA03E00F01090E0A6F2CDB01E1B8D0D2
:101FC00077D025DB03E27BDB060E4ADB93DA08E001
:101FD0000F013029306FE8501F0802E2010E306F08
:101FE000B0DA08E00F013005306F010E305D02E21B
:101FF0001F0E306FA3DA09E00A0E0F013025306F93
:10200000E8501F0802E2010E306F9EDA09E00A0E66
:102010000F01305D306F010E305D02E21F0E306F38
:1020200049DA03E00F010A0E0A6FF4DA01E180D009
:102030003FD0EDDA04E2600EE66E390E02DB5ADACA
:1020400008E00F013129316FE8500C0802E2010E5F
:10205000316F77DA08E00F013105316F010E315D24
:1020600002E20C0E316F26DA03E00F010B0E0A6F4D
:10207000D1DA5EE01DD0CBDA03E2A7D9090EF0DA9F
:1020800039DA07E00F013229326FE850630801E2C4
:10209000326B57DA08E00F013205326F630E325DA2
:1020A00002E2630E326F06DA01E0C2D9B3DA40E031
:1020B00018EF12F0336BF8DD0F0155D801E2A3DA07
:1020C000F9D91EE00F0115051BE16CD9396F156BAD
:1020D0002ECFE6FF020E8DD82DCFE6FF010E89D858
:1020E0002FCFE6FF030E85D830CFE6FF040E81D850
:1020F00031CFE6FF050E7DD832CFE6FF060E79D848
:10210000D9D907E0020E0F01155D03E14BD9396FF4
:10211000156B17DA0AE00F01150502E1020E04D073
:10212000020E155D02E1010E156FE4D901E03AD906
:102130001200E8EC1AF0E552E552E552E5521200C1
:10214000E66EFFEC21F0E5520008120015C0E6FF34
:1021500016C0E6FF17C0E6FF1200E66EFFEC21F0A6
:10216000E552000912000629146E140EAED905C0FE
:1021700006FF0F0105500F081200E66E09EC22F071
:10218000E55200091200E66E1CEC21F0E552E55222
:102190001200020EDBCFE6FFE66A9DDC93EF12F041
:1021A0009AEC1AF0186E060EE15E1850120011DA61
:1021B000F3CF13FFF4CF14FF0F01F31C1200A40E92
:1021C000E66E3E0EE66E1200E66EE66AE66A120003
:1021D0001C29146E140E79D905C01CFF0F0105507F
:1021E0000F08120039EC04F0E552E552E552E552D1
:1021F0001200E66ED9EC24F0E552E5521200E9D95E
:10220000F3CF11FFF4CF12FF0F01F31C1200E66EA3
:10221000010EE66E120043DCE552E55284D9F3501C
:10222000F4101200DECFE9FFDDCFEAFF030EEA0271
:10223000F3CFEAFFE902F3CFE9FFF450EA26500EAC
:10224000E926010EEA2212004AC1E6FF4BC1E6FF71
:1022500042DC93EF12F000CF02FF01CF03FF120028
:102260003AD9010E156A1E25146E1F5115221450FD
:1022700020191200AED9F3CF25FFFF0E0F01F35C3A
:102280001200156A166A176A1200E66EE4EC24F072
:10229000E552120048C116F049C117F0040E0D6E48
:1022A0000E6A48C108F049C109F0C2EC25F004C02B
:1022B00016F005C017F00450051012003E51030D32
:1022C000F3CFE9FFF4CFEAFF500EE926010EEA2230
:1022D0001200E66EFE0EDBCFE6FF8CEF12F0D9CFD8
:1022E000E6FFE1CFD9FF1200E552E7CFD9FF120098
:1022F000E66E09EC22F0E552000812000A0E086EA4
:10230000096A11CF0DF012CF0EF015EF26F00A0E6C
:10231000086E096A13CF0DF014CF0EF015EF26F0FA
:10232000C9D90F011E6F1F6B6BEF12F053C1E6FF8F
:1023300054C1E6FF55C1E6FF120056C1E6FF57C182
:10234000E6FF58C1E6FF120059C1E6FF5AC1E6FF99
:102350005BC1E6FF1200D950FD0FE96EFF0EDA20D7
:10236000EA6E12008CD10F010D6F0E6B120037D97F
:102370000900F5CF14F00800F5CF15F01200146E27
:10238000180EA3D805C02EFF1200146E3C0E9DD867
:1023900005C02DFF120001018D6B01018E6B010143
:1023A0008F6B1200F1EC19F00F010A6B010E336F05
:1023B0001200080E64D1DBCFF4FFF350F45C12007E
:1023C000E66AE66AE66AE66A1200480EE66E3E0EC5
:1023D000E66E1200060EE66EE66A12005CC1E6FFCB
:1023E0005DC1E6FF5EC1E6FF120016CF14F017CF05
:1023F00015F0166A176A120018CF14F019CF15F0ED
:10240000166A176A12001ACF14F01BCF15F0166A5D
:10241000176A12000F010B6F0C6B0D6B010E0E6F24
:102420001200FD0EDBCF14F0FE0EDBCF15F0120014
:10243000F1EC19F00F01010E336F0A69120001016E
:102440003A0E626F0F01120020CF1EFF21CF1FFF37
:102450001200F36E020EF3CFDBFF1200640EE66E85
:10246000390EE66E1200E66EE66A010EE66E99EF30
:1024700010F0A5DEAFDF5DDEA2DE090EF4D89FDE30
:10248000060EEED89CDE090E30EF13F09DDE99EFBC
:1024900010F0DBCF14F0F5DE3BEF13F0050EA0EFEC
:1024A00010F0040EA0EF10F0060EA0EF10F0D8D838
:1024B0000A0E1200060EADEF10F0A9DED0EF10F0FC
:1024C000670EE66E3E0EE66E1200156E0E6E14C0BE
:1024D00009F03EEF27F0EED80F01206F216B1200BC
:1024E00050C1E6FF51C1E6FF52C1E6FFE66A7ADE5F
:1024F00096EF11F0040EADEF10F045DE3D0EE66EE6
:102500003D0E41DE240EE66E3D0E1200E66EFE0E1E
:10251000DBCFE6FFD0EF10F09AEC1AF0146E060E47
:10252000E15E14501200E552E552F3CF14F0F4CFFF
:1025300015F01200010EE66EF2EF10F0040EBDEF82
:1025400010F0050EADEF10F0050EBDEF10F0690EA6
:10255000E66E3E0E12003BCF14F093DE3BCFE6FF5B
:10256000A6EF10F03CCF14F08CDE3CCFE6FFA6EFD8
:1025700010F03DCF14F085DE3DCFE6FFA6EF10F062
:102580002ECF14F07EDE2ECFE6FFA6EF10F02DCF7B
:1025900014F077DE2DCFE6FFA6EF10F02CCF14F06D
:1025A00070DE2CCFE6FFA6EF10F030CF14F069DE1E
:1025B00030CFE6FFA6EF10F032CF14F062DE32CF5C
:1025C000E6FFA6EF10F0040E30EF13F0070E30EF29
:1025D00013F0DFCFE6FF37EC0DF0E5521200060EE8
:1025E000F66E000EF76E1200A1DEE66AFBDD9DEFCF
:1025F00011F0A3DEE66AF6DDA4EF11F0A5DEE66ACF
:10260000F1DDEEEF11F0E1DE0C0E33EF13F0336B82
:10261000B3EF10F0060EBDEF10F01DDE100E2FD040
:102620001ADE040E2CD017DE060E29D014DE0A0E98
:1026300026D011DE0D0E23D0E66EE66AB1DDDFEFA7
:1026400010F0E66E020E30EF13F0E66EE66A0BEF66
:1026500011F09FDD010EF318120005DF4EEF12F0AE
:10266000D6DD99EF10F0E66EE66A99EF10F062DFC2
:1026700000DF4EEF12F014C0E6FFA6EF10F00F01DE
:10268000006F016B1200EFDE54EF12F0FFDEB00EB0
:10269000E66E3E0EE8DE51EF12F00FDF90DD060E23
:1026A00057EF12F0F3DE53DF33EF12F0CBEC06F00E
:1026B00054EF12F0E66AE4EC24F0E552120047DF32
:1026C000E66E1200E3DE930EE66E3B0E43EF13F070
:1026D000D9CFE6FFE1CFD9FF020EE126DE6ADD6A3F
:1026E0006CD810EC19F0F1EC19F0D0D8A2EC17F07E
:1026F000520EE66E390EE66E060EE66EE66AD2EC15
:1027000019F0E552E552E552E552D00EE66E070E9D
:10271000E66E0FD8E552E55201016E51FDE06E6B99
:10272000F1EC19F0DDEC21F040EC00F019EC1AF0BE
:10273000F3D7D9CFE6FFE1CFD9FF040EE126DE6A59
:10274000DD6ADECF14F0DDCF15F0FD0EDBCF16F025
:10275000FE0EDBCF17F015501718E8AE02D0173475
:1027600004D01650145C175015581DE2020EDB6A97
:10277000030EDB6A020EDBCF14F0030EDBCF15F085
:10278000D890155004E6EE0E145C000E155806E2C3
:10279000020EDB2A030EEEE3DB2AECD7DF2A010E62
:1027A000D0E3DB2ACED7040EE15C02E2E16AE55217
:1027B000E16EE552E7CFD9FF1200936A956A8AEC81
:1027C00018F012EC25F0BEDB570EE66E120EE66E28
:1027D000FAEC22F0E552E552AE0EE66E240EE66EFD
:1027E00010EC23F0E552E552660EE66EB70EE66E8B
:1027F0003FEC23F0E552E552020EE66EE66A98ECF5
:1028000023F0E552E5520A0EE66EE66AA4EC23F0E8
:10281000E552E5520A0EE66EE66ABDEC23F0E5529B
:10282000E552B2EC21F04EEC24F0DCEF1FF00F018A
:10283000370E6A6F3B0E6B6F170E6C6F070E6D6F66
:102840001F0E6E6F0C0E6F6F0D0E706F6ACFE6FF6E
:10285000E66AD9EC24F0E552E5526BCFE6FF010EB3
:102860001FDB6CCFE6FF020E1BDB6DCFE6FF030E16
:1028700017DB6ECFE6FF040E13DB6FCFE6FF050E0E
:102880000FDB70CFE6FF060E50EF17F0200E95DB42
:10289000220811E0CCDFE66A100E02DBE66A110EB8
:1028A000FFDAE66A120EFCDAE66A130EF9DA220E95
:1028B000E66E200EF5DA1200100E7FDB0F01736F4B
:1028C000110E7BDB0F01746F120E77DB0F01756F3A
:1028D000130E73DB0F01796F1200FCDA146E1FDB2D
:1028E000E66ED7DAE66AE66AE1DA6FCF14F017DB54
:1028F0006FCFE6FFCEDA030E85DB7DDB060E82DBD3
:102900006DCF14F00CDB6DCFE6FFC3DA090E7ADB76
:102910005DDBE66A010EE66EC9DA5FDB030E76DB8D
:1029200063DB060E06EF18F0D5DA6D51070A24E0D6
:10293000010A1EE0030A18E0010A12E0070A0CE08F
:10294000010A06E0030A1FE14E0EE66E390E17D0AB
:102950004A0EE66E390E13D0460EE66E390E0FD0D3
:10296000420EE66E390E0BD03E0EE66E390E07D0E3
:102970003A0EE66E390E03D0360EE66E390EE66E6E
:10298000E66AE66A7FDA0A0E0F016C5D06E2D5DAC6
:10299000040E18DB1BDB050E02D018DB040E32DB45
:1029A000EFDA060E0FDB0A0E0F016B5D06E2C5DAE9
:1029B000070E08DB12DB080E02D00FDB070E22DB4E
:1029C000DFDA090EFFDA0A0E0F016A5D06E2B5DAF8
:1029D0000A0EF8DA09DB0B0E02D006DB0A0E12DB58
:1029E0000F017551010A06E0010A0AE12E0EE66E9A
:1029F000390E03D02A0EE66E390EE66E0D0EE2DABF
:102A00000F01150506E1260EE66E390EE66E0D0E77
:102A100008D0020E155D06E1210EE66E390EE66E57
:102A20000C0ED0DA0F016F510C0A42E0070A3CE0AD
:102A3000010A36E0030A30E0010A2AE00F0A24E026
:102A4000010A1EE0030A18E0010A12E0070A0CE07E
:102A5000010A06E0030A32E11D0EE66E390E2BD0A4
:102A6000190EE66E390E27D0150EE66E390E23D0FC
:102A7000110EE66E390E1FD00D0EE66E390E1BD00C
:102A8000090EE66E390E17D0050EE66E390E13D01C
:102A9000010EE66E390E0FD0FD0EE66E380E0BD02D
:102AA000F90EE66E380E07D0F50EE66E380E03D03E
:102AB000F10EE66E380EE66E020E76DA66DA050E76
:102AC00073DA0A0E0F016E5D06E25FDA060E6CDA4B
:102AD00092DA070E02D08FDA060E98DA56DA080E6E
:102AE00063DA140EE66EE66AE66AE66A090E1BDA37
:102AF00032DA0A0E0F01705D0AE2E66AE66AE66AF9
:102B0000E66A0B0E10DA27DA84DA0C0E02D081DACC
:102B10000B0E06EF18F0DE0EE66E380EE66EE66A75
:102B2000E66AB0D937DAE66A010EE66EABD90A0E6C
:102B30000F01735D06E201DA020E36DA71DA030E76
:102B400002D06EDA020E62DA1BDA040E2DDA0A0EF9
:102B50000F01745D06E2F1D9050E26DA68DA060E79
:102B600002D065DA050E52DA1ADA070E1DDA0F0105
:102B70007551010A06E0010A0AE12E0EE66E390ED1
:102B800003D02A0EE66E390EE66E0A0E0DDA07DA6B
:102B90000D0ED4EF17F00F017151FF0A01E1B2D011
:102BA000FC0A01E184D0010A49E0030A0DE0010AB0
:102BB00001E0120051DA01E1B8D00F017A0501E01D
:102BC000B4D0010E716F120078D903E2E3D9020E7E
:102BD000EBD945DA03E00F01732944DA040EA7D9D3
:102BE00004E0050E0F0173253DDA050E92D90CE0C5
:102BF0000F017305736FE850170802E2170E736F29
:102C000073CFE6FF100E4CD9050E91D90DE0050EDD
:102C10000F01735D736FE850170802E2170E736FB0
:102C200073CFE6FF100E3CD917DA03E00F01020E56
:102C3000716F060E7CD901E178D05DD03ED903E2F8
:102C4000A9D9050EB1D90BDA03E00F0174290FDA07
:102C5000040E6DD904E00A0E0F01742508DA050E82
:102C600058D90CE00F017405746FE8503B0802E27C
:102C70003B0E746F74CFE6FF110E12D9050E57D9B3
:102C80000DE00A0E0F01745D746FE8503B0802E21C
:102C90003B0E746F74CFE6FF110E02D9DDD903E04D
:102CA0000F01030E716F060E42D93FE024D005D903
:102CB00003E275D90A0E78D9D2D907E00F01752938
:102CC000010B756FE66E120EEBD8050E22D90CE0E3
:102CD0000F017505756FE850010802E2010E756F6E
:102CE00075CFE6FF120EDCD8B7D902E00F0171698B
:102CF000060E1DD91AE0F1EC19F00F01010E7A6FE2
:102D0000716B1200DAD806E2D20EE66E380EE66E6D
:102D10000A0E58D9A4D903E1050EFBD801E022D947
:102D20009BD903E01FD90F01386F12000F01010E6C
:102D30004A1903E14B5101E1010C000C0F010A0E8D
:102D40004A1903E14B5101E1010C000C0F01010E86
:102D5000521903E1535101E1010C000C0F010A0E5D
:102D6000521903E1535101E1010C000C0F01010E56
:102D70004C1901E14D5115E00A0ED8804C55000E5A
:102D80004D5510E24CCF14F04DCF15F0030E0D6EE3
:102D90000E6A4CCF08F04DCF09F0EBD803E1155087
:102DA00001E1010C000C0F01010E541901E1555114
:102DB00015E00A0ED8805455000E555510E254CF38
:102DC00014F055CF15F0030E0D6E0E6A54CF08F0B7
:102DD00055CF09F0CED803E1155001E1010C000CEC
:102DE0000F0173516C5D0AE174516B5D07E16A512B
:102DF00005E1750503E17A0501E1010C000C0F0105
:102E00007251050A16E0010A05E0040A01E0120009
:102E1000040E0DD0E5DF000906E00F01010E796F09
:102E2000E66E130E3DD80F0179512BE0050E726F3F
:102E300012007A6B7B29146E140EB9D805C07BFF83
:102E40000A0E0F01055C02E2F1EC19F00F01762B7E
:102E5000000E7723900ED8807655010E775502E349
:102E6000FED80FE00F01010E7A6F796B79CFE6FF84
:102E7000130E16D80F01766B776BF1EC19F00F017A
:102E8000726B1200E8EC1AF0E552E552E552E55299
:102E9000120015C0E6FF16C0E6FF17C0E6FF1200DD
:102EA000E66ED9EC24F0E552E55212009AEC1AF0E5
:102EB000186E060EE15E185012007A6B2CDE0F01C0
:102EC0007829146E140E73D805C078FF0F010550D1
:102ED0000F081200E66AE4EC24F0E5520F016A6F75
:102EE000010E6BD80F016B6F020E67D80F016C6F6C
:102EF000030E63D80F016D6F040E5FD80F016E6F64
:102F0000050E5BD80F016F6F060E57D80F01706F5B
:102F10001200E66EFFEC21F0E55200091200156A7E
:102F2000166A176A1200E66E010EE66E1200E66E71
:102F300009EC22F0E55200091200340EE66E390E5B
:102F4000E66E1200E80EE66E030EE66E99EC13F0E4
:102F5000E552E55212009AEC1AF0146E060EE15E8C
:102F600014501200F1EC19F00F01716B010E7A6F21
:102F700012000AEC27F005C015F0010E041812002B
:102F8000320EE66E390EE66E1200EF0EE66E380E69
:102F9000E66E1200DB0EE66E380EE66E1200D70EFD
:102FA000E66E380EE66E1200BEDF42EF17F0156EC9
:102FB0000E6E14C009F03EEF27F0E66EE4EC24F04C
:102FC000E5521200E66EE66A42EF17F06CCF14F09D
:102FD000A6DF6CCFE6FF49EF17F06BCF14F09FDF51
:102FE0006BCFE6FF49EF17F06ACF14F098DF6ACF96
:102FF000E6FF49EF17F06ECF14F091DF6ECFE6FFDA
:1030000049EF17F0E66EE66A56EF17F08CDF56EFE1
:1030100017F070CF14F083DF70CFE6FF49EF17F0A1
:1030200073CF14F07CDF73CFE6FF49EF17F074CF56
:1030300014F075DF74CFE6FF49EF17F005C073FF9A
:1030400005C0E6FF100E50EF17F005C074FF05C075
:10305000E6FF110E50EF17F0060E89EF17F0040E81
:1030600089EF17F0146E180EA2DF1EEF18F0146E21
:083070003C0E9DDF25EF18F076
:0830780050EC1CF07BDB15AEEF
:1030800002D01668176820DB13E289DB49DB04E60F
:10309000050E145C000E155806E2020EDB2A030E24
:1030A000F5E3DB2AF3D7DF2A010EE8E3DB2AE6D7D4
:1030B000040EE15C02E2E16AE552E16EBBD2F0DBB4
:1030C00059DB15AE02D016681768FEDA13E267DB2B
:1030D00027DB04E6EE0E145C000E155806E2020E25
:1030E000DB2A030EF5E3DB2AF3D7DF2A010EE8E340
:1030F000DB2AE6D7040EE15C02E2E16AE552E16E0A
:1031000099D2D4DBF00B6BDBFE0EDB38F00B8112B7
:1031100078DA90D2C2DB190E50DB0F0E8116F80E52
:1031200081160F0E8116300E5ADB300E58DB300E32
:1031300056DB818A66DA280EE66EE3DFE5520C0E76
:10314000E66EDFDFE552E55275D29DDB010EDB6AEC
:1031500081944ADBE76E010EE7CFDBFF819644DB0B
:10316000DF6E010EDB50DF128196010E51DADF5067
:10317000146E020EE15C02E2E16AE552E16E145067
:1031800059D28BDBDF6AE1DFDF6EDFBEFCD7DF50B9
:10319000E55250D28BDB81128186050E39DA819699
:1031A000050E36DA47D241DA8194050E31DA98DA23
:1031B00041D23BDA8184050E2BDA92DA81943AD23D
:1031C0003BD33AD332DAFD0EDBCFF6FFFE0EDBCF78
:1031D000F7FF0800F5500DE0FD0EDBCFF6FFDB2A10
:1031E000FE0EDBCFF7FF01E3DB2A0800F5501BDB07
:1031F000EAD720D252DBFD0EDB500F0B146EFE0E11
:10320000DB50010B400DF3501424DF6E7F0EDF14F2
:10321000800FDF6EDFCFE6FFC6DFE552E5520AD250
:10322000010EE66EC0DFE552E66AE66A5CEF1CF06E
:10323000FCD9050EE126010EF36EDB6EB0DA040E4A
:10324000DB6ADF6ADFCF14F0156A14BE156899DAFD
:1032500015501718E8AE02D0173404D01650145C7D
:10326000175015581FE2FD0EDBCF14F0FE0EDBCF1A
:1032700015F0166A176A15AE02D016681768D9508D
:10328000010FE96EDACFEAFF14C00BF015C00CF0A5
:1032900016C00DF017C00EF0DBDA91EC26F0E1DA83
:1032A000DF2AD0D7010EDBCF14F0020EDBCF15F0F2
:1032B000030EDBCF16F0040EDBCF17F014C006F0C0
:1032C00015C007F016C008F017C009F0050EE15C44
:1032D00002E2E16AE552E16EADD1D5DAFB0EDBCF59
:1032E00014F0FC0EDBCF15F0FD0EDBCF16F0FE0E5A
:1032F000DBCF17F0145015101610171003E1300E25
:1033000092DA36D0D950FB0F14DA01E618DA05E26A
:103310002D0E89DAD950FB0FCAD9DE52070EDD6EA9
:1033200037DAE8AE02D0143403D0E750D880145412
:103330001FE217DA18BE196871D936DA5EDA08DAD0
:103340000BE0010EDF6EDB041C6E1D6A1CBE1D68E7
:1033500083D953DA9FD903D0DF5002E0300E63DA0D
:1033600000DA18BE19685AD9D950FB0F6CD9D8D7D2
:10337000020EE15C02E2E16AE552E16E5BD155D9F1
:10338000C7D9D950F90F53DAEECFE6FFEECFE6FFFB
:10339000EECFE6FFEFCFE6FFA0DFE552E552E552C4
:1033A000E55248D142D9B4D9FB0EDBCFE6FFFC0E83
:1033B000DBCFE6FF07DFE552E5523CD136D9FCC052
:1033C00014F0FDC015F0040ED89014361536E8063A
:1033D000FBE192D9FE0EDBCFEFFFFE2B000EFF23A9
:1033E00029D15BDADF6ADFCF14F0100EE76E141814
:1033F000E8AE02D0E73402D0E750145C18E2DFCF29
:10340000E9FFEA6AE9BEEA68C10EE926000EEA228F
:10341000200EEF6EDFCFE9FFEA6AE9BEEA68D10E5F
:10342000E926000EEA22200EEF6EDF2ADCD7E552F5
:1034300001D133DA0001C051030A29E0010A1CE07E
:10344000030A0CE0010A32E13BDA080EDF5C03E21A
:10345000DF50B9D9FAD70001010E17D0080EE66E79
:10346000E66A09D9080EDF5C04E2080EDF24ABD956
:10347000F9D70001020E09D00BDA080EDF5C03E277
:10348000DF50A7D9FAD70001030EC06F10D0080E85
:10349000E66E010EE66EEFD8080EDF5C04E2080E61
:1034A000DF2497D9F9D70001C06B01D0C06BE5527A
:1034B000C1D0F3D90001C051010A0DE0010A15E1A4
:1034C000FFD9100EDF5C03E2DF507DD9FAD700018F
:1034D000010EC06F0BD0DCD9100EDF5C03E2DF50B1
:1034E00078D9FAD70001C06B01D0C06BE552A2D0E9
:1034F000D4D9E6D9100EDF5C03E2DF5064D9FAD7E5
:10350000C7D9100EDF5C03E2DF5063D9FAD7E5526A
:1035100091D08BD8B3D8FCC014F0FDC015F0040EC8
:10352000D89014361536E806FBE1E6D8FC0EDBCF62
:10353000EFFF80D0A8D9A2D8F90EDBCF14F0FA0E95
:10354000DBCF15F01ED9145015101610171003E11B
:10355000300E0CD936D0D950F90FEBD801E6EFD8A0
:1035600005E22D0E03D9D950F90FA1D8DE52070E6E
:10357000DD6E0ED9E8AE02D0143403D0E750D88007
:1035800014541FE2EED818BE196848D80DD940D996
:10359000DFD80BE0010EDF6EDB041C6E1D6A1CBE63
:1035A0001D685AD835D976D803D0DF5002E0300EE6
:1035B000DDD8D7D818BE196831D8D950F90F43D8FB
:1035C000D8D7020EE15C02E2E16AE552E16E32D048
:1035D0002CD854D8FB0EDBCFF6FFFC0EDBCFF7FF69
:1035E0000800F5500DE0FB0EDBCFF6FFDB2AFC0EEA
:1035F000DBCFF7FF01E3DB2A0800F550B7D8EAD7A5
:1036000019D08186010ED9D88196010EDDEF1BF00D
:10361000E66EE66AE66AE66A2FDD56D118C0E6FF76
:1036200019C0E6FF10D93AEF1CF0D9CFE6FFE1CF81
:10363000D9FF1200E552E7CFD9FF1200EA22EF507E
:10364000F2D8DF2A1200F3D8AFD802D9C9EC26F09D
:1036500008D9010EDB0612001CC0E6FF1DC0E6FF04
:10366000F2D806C018F007C019F008C01AF009C057
:103670001BF0D4EF1BF020D9DF6A1200FE0EDB50E6
:10368000010B0001FC6FFD6BFD0EDB500F0BFE6F9D
:10369000FF6B1200DBCF09F0C9EC26F0EBD8300E3F
:1036A0001426000E15221622172214501200BFD81D
:1036B000000EEE6CEF1EEE22EF1EEE22EF1EEF224A
:1036C000ED52ED52ED521200D950FB0FB0D8EE5032
:1036D000145CEE501558EE501658EE501758120064
:1036E000FE0EDBCFE6FF56DDE552FE0EDB38F00BBB
:1036F000E66E50DDE5521200C10E1426000E1522B2
:1037000014500001FE25E96E1550FF21EA6E1200EB
:10371000FD0EDBCFE6FFFE0EDBCFE6FF5CEF1CF01D
:10372000020EDBCF14F0030EDBCF15F0D89015504E
:1037300012007DD8D890030EEB50000A1200000E44
:10374000EE5C000EEE58000EEE58000EEE58120021
:10375000DBCF09F0C9EC26F006500710081009105D
:103760001200010EDB04186E196A1200E66E26DEE6
:10377000E5521200DECF14F0DDCF15F0166A176A9D
:103780001200FB0EDBCF16F0FC0EDBCF17F01200A1
:10379000010EDBCF14F0000EE76E14181200020EBB
:1037A000DB6A030EDB6A120006C00BF007C00CF0E8
:1037B00008C00DF009C00EF01200E66EE66AE66A77
:1037C000E66A7DDC81D0EA6AC10FE96E000E1EEF69
:1037D0001BF0EA6AD10FE96E000E1EEF1BF081129A
:1037E00010DF0F0E811612000F0E12DF0F0E811266
:1037F00081860EDF0F0E81141200FB0EDBCF06F068
:10380000FC0EDBCF07F0FD0EDBCF08F0FE0E120042
:10381000F90EDBCF06F0FA0EDBCF07F0FB0EDBCFA5
:1038200008F0FC0E1200E66ECCDCE5521200E96EE8
:10383000FF0EDA20EA6E1200F8DEFE0EDBCFE6FFA6
:10384000B8DCE552F7D60A0EE66EE66AF1DC3CD04B
:10385000EECF06F0EECF07F0EECF08F0EFCF09F095
:10386000120005C0EDFF04C0EDFF03C0EDFF02C074
:10387000EFFF120006C014F007C015F008C016F0E4
:1038800009C017F01200D1DE020EE126DF6A120035
:10389000E66A010EE66E3BEF1BF0C7DEE652120051
:1038A000C4DE040EE126DE6ADD6A1200BEDE0F0E03
:1038B0008116FE0EDB5012009DDCE552E55212002F
:1038C000E66AE66A3BEF1BF0E552E552E552E55247
:0238D0001200E4
:0E38D200202020200020202000202000202088
:1038E000414C41524D2020204241434B202000209A
:1038F00000444543004E4F56004F4354005345503B
:1039000000415547004A554C004A554E004D41591B
:1039100000415052004D415200464542004A414E3E
:103920000045584954004F4B20004F4E20004F4651
:1039300046003A0030005341540046524900544872
:10394000550057454400545545004D4F4E005355C2
:103950004E004449474954414C20434C4F434B008F
:10396000202020002000444543004E4F56004F4386
:10397000540053455000415547004A554C004A55A4
:103980004E004D415900415052004D4152004645B4
:1039900042004A414E0045584954004F4B200053C5
:1039A000415400465249005448550057454400547C
:1039B0005545004D4F4E0053554E003E48414E4F29
:1039C00049202020205554432B3037002048414EB9
:1039D0004F49202020205554432B3037003E4C4F78
:1039E0004E444F4E2020205554432B303000204C65
:1039F0004F4E444F4E2020205554432B3030003E34
:103A00004E4557594F524B20205554432D303500C9
:103A1000204E4557594F524B20205554432D303599
:103A2000003E5041524953202020205554432B3012
:103A30003100205041524953202020205554432B1F
:103A40003031003E4245494A494E472020555443B3
:103A50002B30380020544F4B594F202020205554F4
:103A6000432B303900204245494A494E47202055D2
:103A700054432B3038003E544F4B594F20202020C8
:103A80005554432B3039002154494D45230D0A002C
:103A90003E496E7465726E65740020566972747565
:103AA000616C5465726D696E616C002144415445CE
:103AB0003A59594D4D444464230D0A000D0A546F80
:103AC0002073796E6368726F6E697A6520646174C1
:103AD000652C207573696E672073796E7461782028
:103AE000617320666F6C6C6F773A0D0A00546865DD
:103AF0002074696D65206E65656420746F20626551
:103B00002032342D6820666F726D61740D0A0021B9
:103B100054494D453A48484D4D5353230D0A000D25
:103B20000A546F2073796E6368726F6E697A6520CC
:103B300074696D652C207573696E672073796E7476
:103B4000617820617320666F6C6C6F773A0D0A00A4
:103B50000D0A57656C636F6D6520746F20416C6151
:103B6000726D20436C6F636B20636F6E736F6C6557
:103B7000206D656D750D0A0020496E7465726E6565
:103B800074003E5669727475616C5465726D696E2D
:103B9000616C003E4261636B0020557365205541A6
:103BA000525400204261636B003E5573652042759C
:103BB00074746F6E002055736520427574746F6E57
:103BC000003E557365205541525400436F6E66693F
:103BD000726D204572726F72210D0A005265616428
:103BE000206572726F7220210D0A000D0A4E656504
:103BF0006420636F6E6669726D2064617465206312
:103C000068616E676520210D0A000D0A436F6E66BC
:103C1000696775726174696F6E20446174652053C1
:103C2000756363657373210D0A000D0A44415445A1
:103C3000206D75737420626520696E2072616E67F5
:103C400065205B312C375D20210D0A000D0A44618F
:103C500079206D75737420626520696E2072616EC3
:103C60006765205B312C32385D20210D0A000D0A7A
:103C7000446179206D75737420626520696E2072CD
:103C8000616E6765205B312C32395D20210D0A00A1
:103C90000D0A446179206D75737420626520696E28
:103CA0002072616E6765205B312C33315D20210D00
:103CB0000A00506C6561736520656E7465722061E1
:103CC0006761696E210D0A000D0A446179206D75E6
:103CD000737420626520696E2072616E6765205B77
:103CE000312C33305D20210D0A000D0A204461790A
:103CF000206D757374206265203E2030210D0A000E
:103D00000D0A4D6F6E7468206D75737420626520A6
:103D1000696E2072616E6765205B312C31325D20E7
:103D2000210D0A000D0A506C6561736520656E7483
:103D3000657220616761696E20210D0A000D0A43DA
:103D4000686172616374657220636F6E6669726D1B
:103D5000206973202723270D0A000D0A4E6565642C
:103D600020636F6E6669726D2074696D6520210D28
:103D70000A000D0A436F6E66696775726174696F38
:103D80006E2054696D652053756363657373210DEF
:103D90000A000D0A506C6561736520656E7465726A
:103DA000206E756D62657220210D0A000D0A536543
:103DB000636F6E64206D75737420626520696E2078
:103DC00072616E6765205B302C35395D20210D0AEC
:103DD000000D0A4D696E757465206D7573742062EF
:103DE0006520696E2072616E6765205B302C353905
:103DF0005D20210D0A00706C6561736520656E742D
:103E0000657220616761696E210D0A000D0A486FB5
:103E10007572206D75737420626520696E20726101
:103E20006E6765205B302C32335D20210D0A000D5A
:103E30000A506C6561736520656E746572206E75DD
:103E40006D626572210D0A00202020200052554E1F
:103E50000053544F500054494D455220434C4F435A
:103E60004B204241434B00300020200020202053B3
:103E7000544F502057415443482020003E352E20B7
:103E80000020352E20003E342E200020342E20002D
:103E90003E332E200020332E20003E322E200020E4
:103EA000312E20003A0020322E20003E312E2000FC
:103EB0003E4241434B0048554D493A2020202500C1
:103EC00054454D503A202020430052656365766981
:103ED0006E6720646174612E2E0021444854230DC6
:103EE0000A00204241434B003E5745415448455249
:103EF000002057454154484552003E474C4F4241EF
:103F00004C2054494D45005541525420746F206D4A
:103F10006F6469667900506C6561736520636F6ECC
:103F20006E6563740020474C4F42414C2054494D0C
:103F300045003E54494D45204D4F444946590020C7
:103F400054494D45204D4F44494659003E54494D32
:103F5000455220434C4F434B002054494D4552207D
:103F6000434C4F434B003E53544F50205741544312
:103F700048002053544F50205741544348003E4C72
:103F8000554E41522043414C454E44415200204140
:103F90004C41524D20434C4F434B00204C554E4119
:103FA000522043414C454E444152003E414C415207
:083FB0004D20434C4F434B0030
:083FB800B06A810EAF6EAC8A05
:103FC000AC94B886AC98AB8EAB889E9A9D8A9F8A3B
:103FD000949C948E120069D9040EE126DE6ADD6A93
:103FE000DECF14F0DDCF15F097D915501718E8AED5
:103FF00002D0173404D01650145C175015581DE227
:10400000020EDB6A030EDB6A020EDBCF14F0030E36
:10401000DBCF15F0D890155004E6EE0E145C000EC0
:10402000155806E2020EDB2A030EEEE3DB2AECD77C
:10403000DF2A010ED5E3DB2AD3D7040EE15C02E2CE
:10404000E16AE552E16E36D130D99EA8FED7FE0E68
:10405000DB50AD6E9E982ED128D956D908E054D9A0
:1040600034D9FD0EDB2AFE0EF8E3DB2AF6D722D187
:104070001CD9050EE126010EF36EDB6E020EDB6A23
:10408000030EDB6A040EDB6ADF6ADFCF14F0156A09
:1040900014BE1568FB0EDBCF16F0FC0EDBCF17F05D
:1040A00015501718E8AE02D0173404D01650145C1F
:1040B000175015581FE2FD0EDBCF14F0FE0EDBCFBC
:1040C00015F0166A176A15AE02D016681768D9502F
:1040D000010FE96EDACFEAFF14C00BF015C00CF047
:1040E00016C00DF017C00EF0F4D891EC26F0FAD8F7
:1040F000DF2ACBD7010EDBCF14F0020EDBCF15F099
:10410000030EDBCF16F0040EDBCF17F014C006F061
:1041100015C007F016C008F017C009F0050EE15CE5
:1041200002E2E16AE552E16EC5D0BFD8020EE12697
:10413000DF6AFB0EDBCF14F0FC0EDBCF15F0ECD802
:10414000145015101610171003E1300EBED86DD0A4
:10415000B5D8D890030EEB50000A08E6000EEE5CCE
:10416000000EEE58000EEE58000EEE580EE22D0E28
:10417000ACD8A4D8000EEE6CEF1EEE22EF1EEE229D
:10418000EF1EEF22ED52ED52ED52DE520A0EDD6EC1
:10419000010EDBCF14F0000EE76E1418E8AE02D06B
:1041A000143403D0E750D88014543FE2010EDB04EE
:1041B000186E196A18BE196871D861D806500710B0
:1041C000081009101EE0010EDF6EDB041C6E1D6A74
:1041D0001CBE1D681CC0E6FF1DC0E6FFA4D806C0BB
:1041E00018F007C019F008C01AF009C01BF047D832
:1041F000A3D8300E1426000E1522162217221450B2
:1042000003D0DF5002E0300E60D8010EDB04186EE0
:10421000196A18BE196842D851D897D85AD8C9EC2B
:1042200026F060D8010EDB06B3D7020EE15C02E295
:10423000E16AE552E16E3ED038D85DD80CE05BD83B
:1042400044D8FD0EDBCFF6FFDB2AFE0EDBCFF7FFF7
:10425000F4E3DB2AF2D72ED028D8E652AE50DF6E38
:1042600001018D51EA6A010FE96E010EEA22DFCFEA
:10427000EFFF8D293F0B8D6F8F2BE5521BD065D83B
:10428000FB0EDBCF06F0FC0EDBCF07F0FD0EDBCF25
:1042900008F0FE0EDBCF09F0C9EF26F018C0E6FFEC
:1042A00019C0E6FF40D89CEF21F0D9CFE6FFE1CF5F
:1042B000D9FF1200E552E7CFD9FF1200D950FB0F0A
:1042C000E96EFF0EDA20EA6E1200E66EBDDEE55200
:1042D0001200EECF06F0EECF07F0EECF08F0EFCFF2
:1042E00009F0120005C0EDFF04C0EDFF03C0EDFFB3
:1042F00002C0EFFF1200FD0EDBCFF6FFFE0EDBCF9C
:10430000F7FF0800F5501200FD0EDBCFE9FFFE0EAF
:10431000DBCFEAFFEF501200FD0EDBCF16F0FE0EF2
:10432000DBCF17F012000A0EE66EE66AA1DEE55258
:10433000E552E552E552120006C014F007C015F030
:1043400008C016F009C017F0120006C00BF007C035
:0C4350000CF008C00DF009C00EF01200C7
:04435C000F0E946E3E
:1043600082681200070E9410946EDF0E9414946EFF
:1043700082681200D0D808D901E601D917E2DDD849
:10438000826EF8D8D1D801E6FAD80BE2B7D802E1AC
:10439000FFD801D01DD9020EDB2A030EF3E3DB2A7E
:1043A000F1D7DF2A010EE7E3DB2AE5D7040EE15C53
:1043B00002E2E16AE552E16ED9D0ADD8DBD8010E58
:1043C000DE6EDD6ABAD88214826ED4D8ADD804E627
:1043D000030E145C000E15580BE290D802E1D8D8F9
:1043E00001D0F6D8020EDB2A030EF0E3DB2AEED76B
:1043F000040EE15C02E2E16AE552E16EB7D0A7D8B3
:10440000010EEE1804E1ED5002E1010E01D0000EA4
:10441000ADD09DD8320EEE1804E1ED5002E1010E50
:1044200001D0000EA3D077D8D7D8FD0EDBCF16F081
:10443000FE0EDBCF17F015501718E8AE02D0173478
:1044400004D01650145C1750155813E293D86CD84A
:1044500004E6EE0E145C000E155806E2020EDB2A8E
:10446000030EF5E3DB2AF3D7DF2A010EDDE3DB2AB7
:10447000DBD7040EE15C02E2E16AE552E16E76D040
:104480004AD882D801E67BD822E257D8826E72D809
:104490004BD801E674D80DE29BD830D804E11ED881
:1044A000010EEE6EED6A020EDB2A030EF1E3DB2A4B
:1044B000EFD78250816EE80EE66E030EE66EB3DF34
:1044C000E552E552DF2A010EDCE3DB2ADAD7040EDF
:1044D000E15C02E2E16AE552E16E48D07DD8D89015
:1044E00014361536D89014361536020EDB501424C7
:1044F000E96E030EDB501520F1EF22F0020EDBCF48
:10450000E9FF030EDBCFEAFF660EE9260F0EEA2273
:10451000EF5082141200D9CFE6FFE1CFD9FF040E8D
:10452000E126DE6ADD6A1200020EDBCF14F0030E14
:10453000DBCF15F0D89015501200DECFE9FFDDCFAC
:10454000EAFF620EE9260F0EEA22EF1C1200D9CF15
:10455000E6FFE1CFD9FFFE0EEA6ADB34FE0BEA3656
:10456000E96E420EE9260F0EEA221200E552E7CF6D
:10457000D9FF1200020EDB6A030EDB6A1200040E82
:10458000145C000E1558120027D8D8901550120050
:10459000DECF18F0DDCF19F0D89018361936D89044
:1045A00018361936020EDB501824E96E030EDB5064
:1045B000192017D8EECF16F0EFCF17F0010E162600
:1045C000000E17228BDF16C0EEFF17C0EDFF1200A2
:1045D00085DFEE6AED6A1200DECF14F0DDCF15F054
:1045E0001200EA6ED890E936EA36420EE9260F0E3E
:0445F000EA221200A9
:0C45F400F1D8D59EFD0EDBCF63F1FE0E6A
:10460000DBCF64F1D59C05D9D59AD586F28AF29490
:10461000F184D58EE6D0D59E1200FBD8D58E12003F
:10462000DBD8CD90FD0EDBCF65F1FE0EDBCF66F162
:10463000F7D89D809E909F90CD8ECD8CCD98CD9AB1
:10464000CD96CD92CD80CDD0EBD8CD801200CD903F
:104650001200C2D8CA94CC6AFE0EDB500101676F0B
:10466000686BCB6E9D829E929F92CA90CA92CA84BA
:10467000B8D067C1CBFFCA841200CA941200ACD86C
:10468000B190FD0EDBCF69F1FE0EDBCF6AF1CFD822
:104690000750B36ECCD8B5D8B26EA082A192A292C8
:1046A000B18EB198B19AB192B1809BD0C0D803506D
:1046B000B26EBDD89ED8B36EB1801200B190120018
:1046C0000101732B000E74237B51735D7C5174596F
:1046D00004E3736B746B010E6B6F12000101752B99
:1046E000000E76237D51755D7E51765904E3756B1E
:1046F000766B010E6C6F12000101772B000E782390
:104700007F51775D8051785904E3776B786B010EA8
:104710006D6F12000101792B000E7A238151795DB2
:1047200082517A5904E3796B7A6B010E6E6F120035
:1047300053D8FD0EDBCF7BF1FE0EDBCF7CF1010108
:10474000736B746B6B6B4DD047D8FD0EDBCF7DF177
:10475000FE0EDBCF7EF1050E0D6E0E6A7DC108F0F8
:104760007EC109F0C2EC25F008C07DF109C07EF1E0
:104770000101756B766B6C6B34D02ED8FD0EDBCFE0
:1047800081F1FE0EDBCF82F10A0E0D6E0E6A81C141
:1047900008F082C109F0C2EC25F008C081F109C01F
:1047A00082F10101796B7A6B6E6B1BD01C6A1A5017
:1047B000175C146E1B501858156E1C501958166E45
:1047C0000C6A010E0D6E0E6A14C007F015C008F0D9
:1047D00016C009F0E8EF25F0D9CFE6FFE1CFD9FF09
:1047E0001200E552E7CFD9FF120017681868196A5E
:1047F000120007C014F008C015F009C016F00750E9
:10480000120003C014F004C015F005C016F00350E8
:10481000120014D80350D66E11D8EBDFD76E1200F9
:1048200014D80750CF6E11D8ECDFCE6E1200DDDF4A
:1048300069C11AF06AC11BF0D6EF23F0D6DF63C15D
:104840001AF064C11BF0D6EF23F0CFDF65C11AF078
:0848500066C11BF0D6EF23F056
:08485800BED8020EE126FE0E9F
:10486000DB500F0BDF6EFE0EDB380F0B0A0DBCD8D2
:1048700002E2E16AE552E16E1450B2D0ACD8020E09
:10488000E126BBD80550DF6EB8D80950100DACD862
:1048900002E2E16AE552E16E1450A2D09486948857
:1048A000C79EC79CC690C692C694C686310EC86E77
:1048B000C68A120090D89E96FE0EDB50D00FC96EAD
:1048C0009EA6FED78DD09E96C5809EA6FED71200CE
:1048D0009E96C5849EA6FED712007DD89E96FE0E9B
:1048E000DB50C96E9EA6FED77BD09E96C5869EA63F
:1048F000FED7C95012009E96C59AC5889EA6FED7BF
:1049000012009E96C58AC5889EA6FED7120063D85F
:104910007CD8010E906FE85004E0C550400BFAE0DF
:10492000F8D779D8010E906FE85004E0C550400BDD
:10493000FAE0F8D7FD0EDBCFE6FFA0DFE552E66E2A
:10494000CCDFE5520101010E906FE85004E0C55044
:10495000400BFAE0F8D7BCDF43D03DD8E65255D83B
:10496000010E906FE85004E0C550400BFAE0F8D714
:1049700052D8010E906FE85004E0C550400BFAE0A9
:10498000F8D7A1DF010EE66E95DFE5520101010EB9
:10499000906FE85004E0C550400BFAE0F8D7A5DF6F
:1049A000DF6EDFCFE6FF58DFE552DF6EDF50E55206
:1049B00017D011D8FD0EDBCFE6FFFE0EDBCFE6FFF2
:1049C000A6DFE552E5520CD006D8FE0EDBCFE6FF9F
:1049D000C4DFE55205D0D9CFE6FFE1CFD9FF120001
:1049E000E552E7CFD9FF1200010EF3CFDBFFDB501A
:1049F000DF24146E020EE15C12000A0E146E0E6EBD
:104A0000FE0EDBCF09F03EEF27F05DDFE66A52DFF6
:104A1000E55201011200FE0EDBCFE6FF5EDFE5523C
:044A2000010112007E
:0C4A2400F28ED08EF28C1200F19CF29207
:104A3000F2881200D8CFE4FFE0CFE4FFE46E65D83F
:104A400000EE00F0140EE80403E3EECFE4FFFBD722
:104A500000EE14F00A0EE80403E3EECFE4FFFBD708
:104A6000E652F2B47AD89EB07FD8A1B284D8F2B21E
:104A7000F2929EBA9E9AE55200EE1DF00A0EE804EC
:104A800003E3E5CFEDFFFBD700EE13F0140EE804CF
:104A900003E3E5CFEDFFFBD74DD8E550E5CFE0FFD1
:104AA000E5CFD8FF100031D800EE00F0140EE80476
:104AB00003E3EECFE4FFFBD700EE14F00A0EE804A8
:104AC00003E3EECFE4FFFBD7E652F2B446D89EB044
:104AD0004BD8A1B250D8F2B2F2929EAA03D02CECDD
:104AE00021F09E9AE55200EE1DF00A0EE80403E361
:104AF000E5CFEDFFFBD700EE13F0140EE80403E35F
:104B0000E5CFEDFFFBD716D81100DACFE4FFE2CFF7
:104B1000DAFFE9CFE4FFEACFE4FFF6CFE4FFF7CF17
:104B2000E4FFF5CFE4FFF3CFE4FFF4CFE4FFFACFE7
:104B3000E4FF1200E5CFFAFFE5CFF4FFE5CFF3FF86
:104B4000E5CFF5FFE5CFF7FFE5CFF6FFE5CFEAFFCD
:104B5000E5CFE9FFE5CFDAFF12000BEC23F0F2948A
:104B60000DEC23F060EF23F027EC23F09E9024EC73
:104B700023F06EEF23F05EEC23F0A19256EC23F0CD
:044B80008AEF23F0A5
:0C4B8400006A0EAECBEF25F00D6C0E1E8B
:104B9000E86A0E22001E09AED3EF25F0086C091E4C
:104BA000E86A0922001E0AEC27F009BEE3EF25F0AF
:104BB00000AE000C086C091EE86A0922046C051E90
:104BC000E86A0522000C00BEDAEF25F00188FF0C30
:104BD000006A0EAEF3EF25F00C6C0D1E0E1EE86A97
:104BE0000D220E22001E09AEFDEF25F0076C081EF7
:104BF000091EE86A08220922001EEDEC26F009BE13
:104C000010EF26F000AE000C076C081E091EE86AC3
:104C100008220922036C041E051E04220522000C32
:104C200000BE04EF26F00188FF0C09C013F008C095
:104C300012F008500D02F4CF07F0F3CF06F0095040
:104C40000E02F4CF09F0F3CF08F00D02F35007265F
:104C5000F4500822E86A092212500E02F350072687
:104C6000F4500822E86A09220EAE3BEF26F01250FB
:104C7000085E1350095A13AE000C0D50085E0E501A
:044C8000095A000CC1
:0C4C84001E0EF66E000EF76E000EF86EAD
:104C900001010900F550886F0900F550896F03E1A3
:104CA000886701D03DD00900F550836F0900F550A9
:104CB000846F0900F550856F09000900F550E96E11
:104CC0000900F550EA6E090009000900F550866FE9
:104CD0000900F550876F09000900F6CF8AF1F7CF78
:104CE0008BF1F8CF8CF183C1F6FF84C1F7FF85C14A
:104CF000F8FF0101865302E1875307E00900F550F0
:104D0000EE6E8607F8E28707F9D78AC1F6FF8BC1F6
:104D1000F7FF8CC1F8FF01018807000E895BBFD740
:024D200012007F
:0E4D220006500B02F3CF02F0F4CF03F00C02A8
:104D3000F3500326000EF420046E06500D02F350CB
:104D40000426000EF420056E06500E02F3500526D0
:104D500007500B02F3500326F4500422000E0522E4
:104D600007500C02F3500426F450052207500D02A0
:104D7000F350052608500B02F3500426F450052288
:104D800008500C02F350052609500B02F35005267B
:024D900012000F
:0E4D9200056A046A036A026A200EE76ED89072
:104DA0000636073608360936023603360436053627
:104DB0000B50025C0C5003580D5004580E5005580F
:104DC00009E30B50025E0C50035A0D50045A0E506A
:0A4DD000055A062AE72EE4D7120068
:064DDA00056A046A036A89
:104DE000180EE76ED89007360836093603360436B3
:104DF00005360C50035C0D5004580E50055807E35F
:104E00000C50035E0D50045A0E50055A072AE72E27
:044E1000EAD71200CB
:0C4E1400056A046A100EE76ED89008369C
:104E20000936043605360D50045C0E50055805E36E
:104E30000D50045E0E50055A082AE72EF0D71200D6
:104E4000800EF36E00EE00F00F0E01D81200EA6043
:104E500002D0EE6AFCD7F350E9601200EE6AFCD78C
:104E60001EEE00F02EEE00F0F86A019C42EC26F0F7
:0C4E700007EC00F068EC13F0FBD7120018
:044E7C00056A080EAD
:104E8000E76ED890093605360E50055C02E3056ED4
:084E9000092AE72EF7D71200F2
:084E9800000000000000000012
:104EA0000000000000000000000000000000000002
:084EB0000100010001000100F6
:084EB8000100000000000000F1
:104EC000000000320032000700FFFFFFFF0000007B
:104ED00000000000000000000000010000000000D1
:104EE00000000000000000000000000101000100BF
:0A4EF000000000000000003901007E
:064EFA00000000000000B2
:0C4F0000000000000000000000000100A4
:044F0C0000000000A1
:104F100000000000101010101010101018181818B1
:104F2000181818181C1C1C1C1C1C1C1C1E1E1E1EC9
:104F30001E1E1E1E1F1F1F1F1F1F1F1F0000000001
:104F40000000000000000000000000000000000061
:104F50000000000000000000000000000000000051
:0D4F60000000000000000000000000000044
:034F6D0000000041
:104F7000D0002222220725091000010000000000B5
:084F8000000000000000000029
:084F8800000000000000000021
:104F90000000000000000000000000000000000011
:104FA0000000000000000000102040800102040802
:020000040030CA
:0100010002FC
:0100020003FA
:010003001EDE
:010005008179
:010006008178
:010008000FE8
:01000900C036
:01000A000FE6
:01000B00E014
:01000C000FE4
:01000D0040B2
:00000001FF
