:020000040000FA
:060000004CEF2AF0120093
:020006000700F1
:060008006FEF28F012006A
:02000E001200DE
:03001000000000ED
:0400130000000000E9
:0600180036EF28F0120093
:02001E000800D8
:1000200038560000000F0000280000001D56000098
:10003000E10000001B00000013000000FB010000B5
:1000400004000000BC5500008000000061000000BA
:10005000AA5500006D0F000012000000F0540000CF
:1000600000010000BA000000D05400004D0F000055
:1000700020000000100000000A0200000300000041
:100080000101005102E1010E011901E1DCD20F0E64
:10009000001901E1015101E192D20E0E001901E1B6
:1000A000015101E17CD20D0E001901E1015101E184
:1000B00042D20B0E001901E1015101E13AD20A0EC0
:1000C000001901E1015101E109D20C0E001901E111
:1000D000015101E1E6D1090E001901E1015101E1EF
:1000E000DED1080E001901E1015101E1AFD1070E87
:1000F000001901E1015101E1A6D1060E001901E14B
:10010000015101E175D1120E001901E1015101E126
:100110006DD1050E001901E1015101E118D1040E64
:10012000001901E1015101E1E5D0110E001901E1D1
:10013000015101E19AD0100E001901E1015149E08D
:10014000030E001901E1015139E0020E001901E12D
:10015000015115E0010E001901E1015101E0120009
:1001600074EC17F0DFEC19F023EC15F001E386D204
:10017000020E4CEC14F0010E026F036B1200E30E42
:10018000E66E450E15EC15F0D30EE66E450E0DEC41
:1001900016F004E296EC13F0ECEC14F023EC15F0FE
:1001A00004E2030E0101006F016B20EC15F001E386
:1001B00065D20101006B010E016F12006BEC18F0AB
:1001C000ABEC18F00101385101E158D2386B020E46
:1001D00052D2020E02190BE1035109E1C60EE66E7E
:1001E000450E15EC15F0B60EE66E450E08D0B60EAF
:1001F000E66E450E15EC15F0AA0EE66E450E0DECFA
:1002000016F002E2DCEC15F023EC15F026E2110EFC
:100210004CEC14F02A0EE66E0F0EE66E290EE66E1A
:100220000F0EE66E280EE66E0F0EE66E060EA5ECBD
:1002300013F065EC14F014C0E6FF15C0E6FF050EE0
:10024000A5EC13F0E66E040EA5EC13F0E66E8CEC54
:1002500011F0166E0A0EE15E165020EC15F001E367
:100260000DD296EC13F0020E05D22CEC15F002E044
:10027000ECEC14F00F012A5165EC14F00A0EDFECDF
:1002800015F037EC12F0E552E5520F012A5165ECFA
:1002900014F00C0EDFEC15F093EC12F0E552E55281
:1002A000A50EE66E450E70EC13F0E66A01EC13F055
:1002B0009F0EE66E450E02EC15F028CF14F0AAEC66
:1002C00013F028CFE6FF0EEC13F0050E26EC15F028
:1002D000980EE66E450EE66E080E10EC16F029CF6D
:1002E00014F0AAEC13F029CFE6FF0EEC13F00E0E7B
:1002F00026EF15F0100E02190BE1035109E1D30EA0
:10030000E66E450E15EC15F08C0EE66E450E08D027
:100310008C0EE66E450E15EC15F07F0EE66E450E62
:100320000DEC16F002E2E5EC15F020EC15F004E21D
:1003300096EC13F0ECEC14F023EC15F001E39ED1F5
:10034000050E4CEC14F0B7D901013A6B12003CDBFE
:1003500001013A5101E093D96DEC15F006E001017D
:100360003A6B3B6B3C6B3D6B12D049EC15F008E0EF
:1003700001013A5105E1010E3A6F2AEC14F007D061
:1003800049EC15F004E001013A0501E13A6B70EC2B
:1003900015F016E0050E01013E5D12E2EFEC13F0E0
:1003A0003BC1EFFFEFEC13F0EE523CC1EFFFEFEC7F
:1003B00013F0020EE926000EEA223DC1EFFF3E2BAC
:1003C00073EC15F007E0120E4CEC14F03A6BEEEC07
:1003D00014F03F6F2CEC15F001E150D101013A6BA4
:1003E0003B6B3C6B3D6B386B040E45D18AEF03F0E1
:1003F000040E02190BE1035109E1AA0EE66E450E47
:1004000015EC15F0720EE66E450E08D0720EE66E13
:10041000450E15EC15F0650EE66E450E0DEC16F06A
:1004200004E296EC13F0AAEC14F020EC15F002E2D2
:10043000DCEC15F023EC15F001E320D1070E4CECB9
:1004400014F0096B1200FCDAA6EF05F0060E021993
:100450000BE1035109E17F0EE66E450E15EC15F038
:10046000580EE66E450E08D0580EE66E450E15EC99
:1004700015F04B0EE66E450E0DEC16F002E2E8ECC0
:1004800015F020EC15F002E2E5EC15F023EC15F088
:1004900001E3F4D00101046B056B090EECD084EF8D
:1004A0000AF03C0EE66E450E15EC15F02D0EE66ECC
:1004B000450E02EC15F036EC16F004E2010E0101D7
:1004C000006F016B01012A5101E1D8D0260501E03E
:1004D000D5D0010E006F016B2A6B1200080E0219B5
:1004E0000BE1035109E1650EE66E450E15EC15F0C2
:1004F000200EE66E450E08D0200EE66E450E15EC79
:1005000015F0170EE66E450E0DEC16F002E2EBEC60
:1005100015F020EC15F004E296EC13F0AAEC14F0C0
:1005200023EC15F001E3AAD00B0E4CEC14F06DEFA8
:100530000DF0D6EF0BF00A0E02190BE1035109E1A1
:100540004B0EE66E450E15EC15F00E0EE66E450EE2
:1005500008D00E0EE66E450E15EC15F0080EE66E90
:10056000450E0DEC16F006E296EC13F00101006B5F
:10057000010E016F20EC15F002E2E8EC15F023EC1F
:1005800015F001E37BD00E0E4CEC14F0000EE66E7D
:10059000450E2BEC13F00101010E226F1200F00E3C
:1005A000E66E440E15EC15F00101286B3AEC15F0DF
:1005B0001E6F21C11FF136EC16F060E242D0E60E4C
:1005C000E66E440E15EC15F0DC0EE66E440E02EC01
:1005D00015F023C114F0AAEC13F023C1E6FF0EECD2
:1005E00013F0B6EC14F031EC13F024C114F0AAECC3
:1005F00013F024C1E6FF0EEC13F0060E26EC15F006
:100600009BEC13F002E11550211908E03B0E1E1976
:1006100008E11F5106E12051211103E1F3EC14F030
:10062000282B050E285D0AE1290508E1000EE66E7B
:10063000450E2BEC13F00101286B296B36EC16F0FC
:100640001DE20D0E17D0170EE66E450E26EC16F0C5
:1006500002E2EBEC15F01DEC15F006E296EC13F05F
:10066000020E0101006F016B23EC15F007E296EC1E
:1006700013F0010E0101006F016B120012009BECE0
:1006800013F002E11550211908E03B0E1E1908E194
:100690001F5106E12051211103E13D2BF3EC14F031
:1006A0003C0E3D5D02E33D6B3C2B3C0E3C5D02E3AA
:1006B0003C6B3B2B1200D2EC13F0020EE126DE6AFB
:1006C000DD6A01013E6BDECF14F0DDCF15F0D8906E
:1006D000155004E6060E145C000E155813E27CEC6F
:1006E00013F0EF6A7CEC13F0EE52EF6A7CEC13F03F
:1006F000020EE926000EEA22EF6ADF2A010EE3E38A
:10070000DB2AE1D7020EE15C02E2E16AE552E16E2A
:10071000D7EF13F00F014C513E0A01E1E5D0030A77
:1007200001E1A8D0010A6CE0070A31E0010A01E00A
:100730001200D10EE66E440E15EC15F0CC0EE66EEE
:10074000440E02EC15F008EC15F03FEC15F069ECE6
:1007500015F01DEC15F006E20F013B0E4C6F010188
:100760003A0E3F6F20EC15F006E20F013E0E4C6F83
:1007700001013A0E3F6F6DEC15F003E173EC15F0DB
:1007800001E099DF2CEC15F001E1D7D0D3D03A0E7F
:1007900001013F5D0DE1C50EE66E440E15EC15F04E
:1007A000C00EE66E440E02EC15F03FEC15F00CD0D6
:1007B000C00EE66E440E15EC15F0BB0EE66E440E50
:1007C00002EC15F0C3EC15F017EC16F006E20F0181
:1007D0003C0E4C6F01013B0E3F6F20EC15F004E224
:1007E000EEEC14F03B0E3F6F6DEC15F003E173EC93
:1007F00015F001E060DF2CEC15F001E19ED09AD0FD
:100800003B0E01013F5D0DE1CC0EE66E440E15EC92
:1008100015F0B60EE66E440E02EC15F0C3EC15F0C2
:100820000CD0B60EE66E440E15EC15F0B10EE66E69
:10083000440E02EC15F0C8EC15F017EC16F006E2C9
:100840000F013D0E4C6F01013C0E3F6F20EC15F087
:1008500006E20F013B0E4C6F01013C0E3F6F6DEC49
:1008600015F003E173EC15F001E025DF2CEC15F039
:1008700064E060D03C0E01013F5D0DE1BB0EE66E11
:10088000440E15EC15F0AC0EE66E440E02EC15F0BD
:10089000C8EC15F00CD0AC0EE66E440E15EC15F05D
:1008A000A70EE66E440E02EC15F0CDEC15F017EC39
:1008B00016F006E20F013E0E4C6F01013D0E3F6F38
:1008C00020EC15F006E20F013C0E4C6F01013D0ECD
:1008D0003F6F6DEC15F003E173EC15F001E0EBDE1A
:1008E0002CEC15F02AE026D0B10EE66E440E15EC85
:1008F00015F0A20EE66E440E02EC15F0CDEC15F0EC
:1009000017EC16F004E2EEEC14F03E0E3F6F20EC14
:1009100015F006E20F013D0E4C6F01013E0E3F6FD8
:100920006DEC15F003E173EC15F001E0C4DE2CEC86
:1009300015F003E0050E4CEF14F01200D2EC13F0AA
:100940000A0EF36EFB0E88EC14F00AE2ACEC14F025
:10095000040EFAEC13F0FB0E18EC15F0050E04D0A3
:10096000FB0E18EC15F0040E55EC15F00A0EF36EA4
:10097000FC0E88EC14F00AE2ACEC14F0070EFAEC72
:1009800013F0FC0E18EC15F0080E04D0FC0E18EC59
:1009900015F0070E55EC15F00A0EF36EFD0E88ECFF
:1009A00014F00AE2ACEC14F00A0EFAEC13F0FD0EAF
:1009B00018EC15F00B0E04D0FD0E18EC15F00A0E15
:1009C00055EC15F0D7EF13F0920EE66E440E32ECB4
:1009D00016F00A0E01013B5D08E22FEC15F0B2ECB7
:1009E00015F07AEC15F0050E03D07AEC15F0040E34
:1009F0002DEC16F001013C5D08E22FEC15F0B5EC92
:100A000015F081EC15F0080E03D081EC15F0070EFF
:100A100026EC15F048EC13F0090E29EC15F0010155
:100A20003D5D09E22FEC15F00A0E10EC16F088EC93
:100A300015F00B0E03D088EC15F00A0E26EF15F01A
:100A40007C0EE66E440E32EC16F001011D5104E0FE
:100A5000770EE66E440E03D0730EE66E440EE66E1D
:100A60000C0E29EC15F0010117AF02D0D89003D07D
:100A7000165D000E175914E28D0EE66E440E70ECF2
:100A800013F0E66E01EC13F0C9EC14F015AE02D0D1
:100A9000166817681BEC16F0020EE66E010E0AD0FF
:100AA000C9EC14F015AE02D0166817681BEC16F0EE
:100AB000010EE66EE66E31EC13F048EC13F0030E17
:100AC00029EC15F0010119AF02D0D89003D0185DC0
:100AD000000E19590EE22FEC15F0B2EC15F0D0EC27
:100AE00014F015AE02D0166817681BEC16F0050E50
:100AF00009D0D0EC14F015AE02D0166817681BECC4
:100B000016F0040E2DEC16F001011BAF02D0D890A8
:100B100003D01A5D000E1B590EE22FEC15F0B5EC58
:100B200015F0D7EC14F015AE02D0166817681BEC60
:100B300016F0080E09D0D7EC14F015AE02D01668E6
:100B400017681BEC16F0070E26EF15F0010109518E
:100B5000040A01E154D1070A01E1EFD0010A01E1E1
:100B6000A0D0030A52E0010A01E0120051EC13F098
:100B700007E276EC15F070EC13F0E66E01EC13F082
:100B800020EC15F00DE20101162B000E172317358E
:100B900007E216511708000E175502E2166B176B85
:100BA0001DEC15F00AE201011607000E175B800E1E
:100BB000171503E0170E166F176B040E12EC14F0E6
:100BC0000EE2050E01011627000E1723173507E266
:100BD00016511708000E175502E2166B176B050E1B
:100BE00012EC14F00BE2050E0101165F000E175B0C
:100BF000800E171503E0170E166F176B23EC15F018
:100C000001E318D10101010EF8D051EC13F004E218
:100C10003FEC16F0B2EC15F020EC15F00DE20101FE
:100C2000182B000E1923193507E218513B08000E46
:100C3000195502E2186B196B1DEC15F00AE201015F
:100C40001807000E195B800E191503E03B0E186F94
:100C5000196B040E12EC14F00EE2140E01011827A9
:100C6000000E1923193507E218513B08000E1955DB
:100C700002E2186B196B050E12EC14F00BE2140E65
:100C80000101185F000E195B800E191503E03B0E81
:100C9000186F196B23EC15F001E3CCD00101020EA3
:100CA000ACD051EC13F004E23FEC16F0B5EC15F0CB
:100CB00020EC15F00DE201011A2B000E1B231B3551
:100CC00007E21A513B08000E1B5502E21A6B1B6B20
:100CD0001DEC15F00AE201011A07000E1B5B800EE5
:100CE0001B1503E03B0E1A6F1B6B040E12EC14F085
:100CF0000EE2140E01011A27000E1B231B3507E21A
:100D00001A513B08000E1B5502E21A6B1B6B050EB5
:100D100012EC14F00BE2140E01011A5F000E1B5BC3
:100D2000800E1B1503E03B0E1A6F1B6B23EC15F0B6
:100D300001E380D00101030E60D020EC15F005E244
:100D40000101010E1D6F2AEC14F01DEC15F002E2FA
:100D500001011D6B01011D5136E09BEC13F002E116
:100D60001550211908E03B0E1E192DE11F512BE1F2
:100D70002051211128E1F3EC14F01B3509E21A513E
:100D80000008000E1B5504E21A07000E1B5B1BD067
:100D90001A511B1118E11851191107E03B0E1A6F77
:100DA0001B6B1807000E195B0ED0185119110BE1BF
:100DB0001651171108E01607000E175B3B0E186F4F
:100DC000196B1A6F1B6B1651171107E11851191186
:100DD00004E11A511B1101E11D6B1D5108E151EC99
:100DE00013F005E2B1EC14F00C0E10EC16F023EC4D
:100DF00015F020E201011D6B040E096F120051EC89
:100E000013F002E2D2EC15F049EC15F003E170ECBE
:100E100015F002E001010CD023EC15F00BE2060EF8
:100E20004CEC14F0166B176B186B196B1A6B1B6B71
:100E3000096B12001200D2EC13F0E65202010B51C2
:100E4000EA6ABB0FE96E010EEA22EFCFDFFF0B2942
:100E50003F0B0B6FDF50E552D7EF13F06CEF14F040
:100E6000010E0101401901E1415101E012000201AE
:100E70000C51000804E204D802010C071200120011
:100E8000D2EC13F0E652D7DFDF6EDFCFE6FF40ECA7
:100E900023F0E552630E0101341901E1355101E1FE
:100EA000E4D0690E341901E1355101E1C0D0680E7A
:100EB000341901E1355101E1ABD0670E341901E17C
:100EC000355101E190D0660E341901E1355101E14F
:100ED0007FD0650E341901E1355165E0640E341997
:100EE00001E1355155E00E0E341901E1355144E070
:100EF0000C0E341901E1355136E00B0E341901E1C5
:100F0000355128E00A0E341901E135511AE0020E7C
:100F1000341901E135510CE0010E341901E0D0D053
:100F2000355101E0CDD0210EDF5C01E0C9D02CD0DD
:100F3000540EDF5C02E10A0EC1D0210EDF5C26E117
:100F400023D0490EDF5C02E10B0EB8D0210EDF5C2E
:100F50001DE11AD04D0EDF5C02E10C0EAFD0210E68
:100F6000DF5C14E111D0450EDF5C02E10E0EA6D06D
:100F7000210EDF5C0BE108D03A0EDF5C02E1640E6B
:100F80009DD0210EDF5C02E1020E98D0010E96D0BA
:100F900068EC13F001E1121D46E018EC14F006C0F5
:100FA0002DFF650E8AD068EC13F001E1121D3BE0C5
:100FB00011510F012D27170EE66EE66A2D5104EC34
:100FC00016F002E0660E79D0320EE66E440E43D083
:100FD00068EC13F001E1121D26E018EC14F006C0D5
:100FE0002EFF670E6AD068EC13F001E1121D1BE0C2
:100FF00011510F012E273B0EE66EE66A2E5104ECCE
:1010000016F002E0680E59D0F70EE66E430E23D0BC
:1010100068EC13F001E1121D06E018EC14F006C0B4
:101020002FFF690E4AD0550EE66E440E43D068EC91
:1010300013F001E1121D15E011510F012F273B0E96
:10104000E66EE66A2F5104EC16F002E0630E35D02E
:10105000D20EE66E430E2BEC13F01C0EE66E440E21
:1010600029D0B80EE66E430E25D0230EDF5C1DE1BD
:10107000010E346F356B2DCFE6FF020E62EC13F0DC
:101080002ECFE6FF010E62EC13F02FCFE6FFE66AEB
:10109000A3EC27F0E552E55201012B5111E0980E27
:1010A000E66E430E2BEC13F00BD0800EE66E430E73
:1010B0004CEC15F02BEC13F0010E0101346F356B85
:1010C000630E0101361901E1375101E171D1740E4E
:1010D000361901E1375101E13FD1760E361901E1B0
:1010E000375101E1D1D0750E361901E1375101E1D7
:1010F000BDD0730E361901E1375101E191D0720E66
:10110000361901E1375101E17AD06F0E361901E14C
:10111000375167E06E0E361901E1375155E06D0E1B
:10112000361901E1375144E06C0E361901E13751AF
:1011300036E06B0E361901E1375128E06A0E361998
:1011400001E137511AE0020E361901E137510CE086
:10115000010E361901E05DD1375101E05AD1210E5F
:10116000DF5C01E056D12CD0440EDF5C02E16A0E58
:101170001CD1210EDF5C26E123D0410EDF5C02E1B1
:101180006B0E13D1210EDF5C1DE11AD0540EDF5C13
:1011900002E16C0E0AD1210EDF5C14E111D0450E84
:1011A000DF5C02E16D0E01D1210EDF5C0BE108D0A6
:1011B0003A0EDF5C02E16E0EF8D0210EDF5C02E138
:1011C000020EF3D0010EF1D040EC13F001E1141D3A
:1011D00023E021EC14F006C032FF07C033FF6F0E8E
:1011E000E3D040EC13F001E1141D16E013510F01A0
:1011F0003227010114510F013323720ED5D040EC78
:1012000013F001E1141D08E021EC14F006C034FFD6
:1012100007C035FF730EC8D0550EE66E440EC1D020
:1012200040EC13F001E1141D01E1B8D013510F019E
:101230003427010114510F0135230C0EE66EE66AC6
:1012400034CFE6FF35CFE6FF74EC13F006E00F0174
:101250003451351102E0750EA7D0260EE66E430E0E
:101260002BEC13F01C0EE66E440E9BD040EC13F0FA
:1012700001E1141D01E192D021EC14F006C036FF0B
:1012800007C037FF760E90D040EC13F001E1141D3B
:1012900001E184D013510F013627010114510F01D0
:1012A00037233651371106E1100EE66E430E2BEC54
:1012B00013F0AFD08EEC13F0F350F4100CE10F01EB
:1012C000373509E236511E08000E375504E2EE0E9E
:1012D000E66E420E5DD08EEC13F0010EF3180EE1B7
:1012E00015500CE10F01373509E236511F08000E89
:1012F000375504E2B60EE66E420E4AD08EEC13F07D
:10130000020EF31811E115500FE18DEC14F00CE012
:101310000F01373509E236511D08000E375504E23A
:10132000940EE66E420E34D08EEC13F0020EF318DB
:1013300011E115500FE18DEC14F00CE10F01373580
:1013400009E236511C08000E375504E2720EE66EB3
:10135000420E1ED0740E28D040EC13F001E1141D93
:101360001DE013C138FF14C139FF070EE66EE66AAF
:1013700013C1E6FF14C1E6FF74EC13F006E00F01A1
:101380003851391102E0630E0FD0500EE66E420E56
:101390002BEC13F0D80EE66E420E03D0B80EE66EBC
:1013A000430E2BEC13F0010E0101366F376B31D079
:1013B000230EDF5C23E1010E366F376B32CFE6FF81
:1013C000060E62EC13F034CFE6FF050E62EC13F06C
:1013D00036CFE6FF040E62EC13F038CFE6FF030EC3
:1013E00062EC13F001012B5105E0300EE66E420E67
:1013F0002BEC13F00101010E2A6F0BD0110EE66EDB
:10140000420E4CEC15F02BEC13F0010E0101346F81
:10141000356B01012251630A63E0AD0A52E0030A11
:1014200047E0010A3EE0070A33E0010A27E0030A29
:101430001CE0010A11E0CA0A06E0030A62E1210E7B
:10144000DF5C5FE123D0440EDF5C02E1C80E58D0C0
:10145000210EDF5C54E11AD0480EDF5C02E1C90EB8
:101460004FD0210EDF5C4BE111D0540EDF5C02E166
:10147000CA0E46D0210EDF5C42E108D03A0EDF5C96
:1014800002E1CB0E3DD0210EDF5C39E1020E38D0F7
:10149000C4EC13F01DE00A0E2503F3CF23F1CC0EAC
:1014A0002FD0C4EC13F014E025512327CD0E28D003
:1014B000C4EC13F00DE00A0E2503F3CF24F1CE0E99
:1014C0001FD0C4EC13F004E025512427630E18D07C
:1014D000010E226F020EE66E420E2BEC13F011D0BD
:1014E000230EDF5C06E10F0E006F016B010E296F0A
:1014F00007D0F10EE66E410E2BEC13F00101010E48
:10150000226FE552D7EF13F00101045102E1010E01
:10151000051901E196D0040E041901E1055101E11C
:101520008ED0030E041901E1055101E17AD0010EBC
:10153000041901E1055128E0045101E1055101E0E0
:101540001200E70EE66E410E15EC15F0DB0EE66EAE
:10155000410E1FEC16F006E2040E0101046F056B4C
:10156000266B276B1DEC15F006E2010E0101046FDE
:10157000056B076B086B20EC15F001E37AD00101D5
:10158000046B010E056F12000751081109E0CF0E20
:10159000E66E410E15EC15F0C90EE66E410E08D050
:1015A000BF0EE66E410E15EC15F0CF0EE66E410E45
:1015B0000DEC16F004E20101046B010E056F20EC46
:1015C00015F003E20101046B056B23EC15F051E209
:1015D000030E0101046F056B010E156F3AEC16F056
:1015E00001012C6F010EA5EC13F001012D6F020E0D
:1015F000A5EC13F001012E6F030EA5EC13F0010111
:101600002F6F040EA5EC13F00101306F050EA5EC51
:1016100013F00101316F060EA5EC13F00101326FDA
:10162000120006EC0FF003EC10F00101395121E03B
:10163000046B056B396B010E006F016B12003AEF02
:101640000BF0DB0EE66E410E42EC16F002E2AAEC65
:1016500014F01DEC15F003E20101046B056B20ECA6
:1016600015F007E2010E0101046F056B076F086BAF
:101670001200120001012651020A01E17ED0030A84
:1016800043E0010A01E01200A80EE66E410E15ECDF
:1016900015F09E0EE66E410E1FEC16F026E2760E59
:1016A000E66E410E2BEC13F0450EE66E410E2BEC70
:1016B00013F0350EE66E410E2BEC13F0130EE66EB2
:1016C000410E2BEC13F0E20EE66E400E2BEC13F005
:1016D000D10EE66E400E2BEC13F06CEC14F0010111
:1016E000010E2B6F0C0E006F016B20EC15F004E265
:1016F0000101020E266F276B1DEC15F056E2010169
:10170000010E266F276B1200275109E1C00EE66E0D
:10171000400E15EC15F0B60EE66E400E08D0B60E73
:10172000E66E400E15EC15F0C90EE66E410E1FEC8C
:1017300016F014E2AD0EE66E400E2BEC13F0010134
:101740002B6B6CEC14F00C0E4CEC14F0BEEC15F0A2
:10175000070EF56E0D00F56A0E002A6B20EC15F0F1
:1017600004E20101266B010E276F1DEC15F01DE24E
:101770000101020E266F010E16D09E0EE66E410E7E
:1017800042EC16F002E2AAEC14F020EC15F005E2AF
:101790000101010E266F020E276F1DEC15F005E208
:1017A0000101266B020E276F1200120001010B517E
:1017B00002E1010E0C1901E115D1370E0B1901E1FF
:1017C0000C5101E1E0D0360E0B1901E10C5101E1A1
:1017D000B0D0350E0B1901E10C5101E17ED0340E71
:1017E0000B1901E10C514FE0330E0B1901E10C51C3
:1017F00020E0320E0B1901E10C5101E012009C0EA9
:10180000E66E400E15EC15F08B0EE66E400E0DECFC
:1018100016F006E2320E4DEC14F0330E0B6F0C6B2B
:1018200020EC15F004E201010B6B010E0C6F090EA8
:10183000D3D0320E0D190BE10E5109E17A0EE66E8E
:10184000400E15EC15F0690EE66E400E08D0690EDC
:10185000E66E400E15EC15F0580EE66E400E0DECDF
:1018600016F006E2330E4DEC14F0340E0B6F0C6BD9
:1018700020EC15F006E2330E4DEC14F0320E0B6F37
:101880000C6B080EA9D0330E0D190BE10E5109E1B6
:101890008B0EE66E400E15EC15F0470EE66E400E10
:1018A00008D0470EE66E400E15EC15F0360EE66ECB
:1018B000400E0DEC16F006E2340E4DEC14F0350E31
:1018C0000B6F0C6B20EC15F006E2340E4DEC14F0AF
:1018D000330E0B6F0C6B010E7FD0340E0D190BE124
:1018E0000E5109E1580EE66E400E15EC15F0250E6E
:1018F000E66E400E08D0250EE66E400E15EC15F093
:10190000140EE66E400E0DEC16F006E2350E4DECB0
:1019100014F0360E0B6F0C6B20EC15F006E2350E52
:101920004DEC14F0340E0B6F0C6BFB0EE66EE6689C
:1019300055D0350E0D190BE10E5109E1360EE66E4C
:10194000400E15EC15F0030EE66E400E08D0030EA7
:10195000E66E400E15EC15F0F20EE66E3F0E0DEC45
:1019600016F006E2360E4DEC14F0370E0B6F0C6BD2
:1019700020EC15F006E2360E4DEC14F0350E0B6F30
:101980000C6B000E29D0360E0D190BE10E5109E13A
:10199000140EE66E400E15EC15F0E10EE66E3F0EED
:1019A00008D0E10EE66E3F0E15EC15F0080EE66E5F
:1019B000450E0DEC16F006E2370E4DEC14F00B6BF5
:1019C000010E0C6F20EC15F006E2370E4DEC14F012
:1019D000360E0B6F0C6B070EE66EE66A19D8E552F1
:1019E000E5521200F20EE66E3F0E26EC16F003E210
:1019F000370EDEEC14F01DEC15F003E2320EDEECD7
:101A000014F023EC15F003E20A0E4CEF14F0120070
:101A1000D2EC13F023EC15F057E251EC14F0FD0E6C
:101A2000DB50141803E1FE0EDB5015184DE073EC8B
:101A300014F0BEEC15F001010900F550145C0F6FB5
:101A40000900F5501558106FBEEC15F0FD0EDBCFF8
:101A5000F5FF0D00FE0EDBCFF5FF0E00020EA5EC2C
:101A600013F00F012B6F2C6BE85001010F250F01B4
:101A70002B6F2C51010110210F012C6F800E2C15A2
:101A800008E0180E2B252B6F000E2C212C6FE66A18
:101A90000DD02C350DE22B511708000E2C5508E205
:101AA000180E2B5F000E2C5B010EE66EE8D8E55297
:101AB0002BCFE6FF020E62EC13F0010E4CEC14F09B
:101AC000380E0B6F0C6B07D023EC15F004E2010EFF
:101AD0000101006F016BD7EF13F051EC14F0070E0A
:101AE000141801E1155024E0145001E115501EE0D6
:101AF000FB0E141802E1E868151816E0010E141820
:101B000001E115500FE0080E141801E1155008E02E
:101B1000090E141801E1155001E01200320E09D02F
:101B2000330E07D0340E05D0350E03D0360E01D05B
:101B3000370E01010B6F0C6B1200D2EC13F0300E5C
:101B4000F36EFE0E88EC14F00CE3FE0EDB50390849
:101B500008E3FE0EDB50D00F156AF36E15C0F4FFDC
:101B600002D0F368F468D7EF13F0D2EC13F073EC03
:101B700014F0FB0EDBCF16F0FC0EDBCF17F0175086
:101B80001518E8AE02D0153404D01450165C155068
:101B9000175802E2F36A02D0010EF36EF46AD7EF2F
:101BA00013F0D2EC13F0E150FD0FE96EFF0EDA20D6
:101BB000EA6E020EEE1804E1ED5002E1020E1FD0B3
:101BC00045EC14F0040EEE1801E1ED5015E045EC83
:101BD00014F0060EEE1801E1ED500EE045EC14F0A5
:101BE000090EEE1801E1ED5007E045EC14F00B0E84
:101BF000EE1804E1ED5002E1F36A02D0010EF36E3B
:101C0000F46AD7EF13F0D2EC13F073EC14F0040E77
:101C1000DBEC13F00450051016E1FD0EDBCF16F0DF
:101C2000FE0EDBCF17F0640E0D6E0E6A16C008F0C4
:101C300017C009F0DEEC28F004C016F005C017F05C
:101C40000450051017E1FD0EDBCF18F0FE0EDBCFC0
:101C500019F0900E0D6E010E0E6E18C008F019C02E
:101C600009F0DEEC28F004C018F005C019F00450AB
:101C7000051002E1010E01D0000ED7EF13F0D2ECF7
:101C800013F0040EE126A5EC13F0DF6E030EA5ECB5
:101C900013F0E76E010EE7CFDBFF050EA5EC13F0A6
:101CA000E76E020EE7CFDBFF060EA5EC13F0E76E42
:101CB000030EE7CFDBFFFE0EDB503FE1DF06010E38
:101CC000DB06F36EDBCFF4FFE850F45C03E2DE5298
:101CD000070EDD6E010EDF5C01E377D0020EDB0440
:101CE00008E11F0EDF6E0C0EF8EC14F0030EDB069D
:101CF0006CD038EC13F0F350F41004E1020EDB0664
:101D00001F0E62D008EC16F00BE1155009E1020E2F
:101D1000DB50030805E0010EF8EC14F01E0E54D061
:101D200008EC16F052E1155050E1030EDB50030BA6
:101D300002E11D0E49D01C0E47D0DF2A010EDB2A1E
:101D4000DB50070803E2DE52010EDD6E020EDB50AF
:101D50000C080BE1DF501F0808E2010EF8EC14F04C
:101D6000010EDF6E030EDB2A30D038EC13F0F35097
:101D7000F41003E1DF501E0824E308EC16F005E13F
:101D8000155003E1DF501F081CE338EC13F0020E7E
:101D9000F31809E1155007E1030EDB50030B03E1D3
:101DA000DF501D080EE338EC13F0020EF3180DE1BE
:101DB00015500BE1030EDB50030B07E0DF501C084E
:101DC00004E2020EDB2A010EDF6EDFCFE6FF040E17
:101DD00062EC13F0010EDBCFE6FF030E62EC13F0B2
:101DE000020EDBCFE6FF050E62EC13F0030EDBCF35
:101DF000E6FF060E62EC13F0146E040EE15C02E2E4
:101E0000E16AE552E16E1450D7EF13F001012F5152
:101E1000070A24E0010A1EE0030A18E0010A12E0A2
:101E2000070A0CE0010A06E0030A1DE1DD0EE66E7A
:101E30003F0E17D0D90EE66E3F0E13D0D50EE66ECC
:101E40003F0E0FD0D10EE66E3F0E0BD0CD0EE66EDC
:101E50003F0E07D0C90EE66E3F0E03D0C50EE66EEC
:101E60003F0E15EC15F00A0E01012E5D09E22FEC74
:101E700015F0040E13EC16F08FEC15F0050E03D0E0
:101E80008FEC15F0040EEEEC15F0B6EC14F0B9DBA7
:101E90000A0E01012D5D09E22FEC15F0070E13EC7F
:101EA00016F096EC15F0080E03D096EC15F0070E20
:101EB000EEEC15F0090E13EC16F00A0E01012C5D84
:101EC00009E22FEC15F00A0E13EC16F09DEC15F05C
:101ED0000B0E03D09DEC15F00A0EE66EE66AC1DB30
:101EE0000101150506E1C10EE66E3F0EE66E0D0E10
:101EF00008D0020E155D07E1BC0EE66E3F0EE66EE1
:101F00000C0E13EC16F0010131510C0A42E0070AE5
:101F10003CE0010A36E0030A30E0010A2AE00F0A39
:101F200024E0010A1EE0030A18E0010A12E0070A91
:101F30000CE0010A06E0030A31E1B80EE66E3F0E3E
:101F40002BD0B40EE66E3F0E27D0B00EE66E3F0EDD
:101F500023D0AC0EE66E3F0E1FD0A80EE66E3F0EED
:101F60001BD0A40EE66E3F0E17D0A00EE66E3F0EFD
:101F700013D09C0EE66E3F0E0FD0980EE66E3F0E0D
:101F80000BD0940EE66E3F0E07D0900EE66E3F0E1D
:101F900003D08C0EE66E3F0EF3EC15F0FDEC14F062
:101FA000050E29EC15F00101305D09E2FDEC14F09D
:101FB000060E10EC16F0A4EC15F0070E03D0A4ECFE
:101FC00015F0060E26EC15F0FDEC14F0080E10ECE2
:101FD00016F0140E62DBE66A090E82DB5BEC15F08C
:101FE0000A0E0101325D0AE2ACEC14F00B0E78DB54
:101FF0005BEC15F0ABEC15F00C0E03D0ABEC15F070
:102000000B0E26EF15F001010A51FF0A01E144D140
:10201000F40A01E11DD1010A01E1F2D0030A01E154
:10202000AED0010A01E182D00F0A49E0010A0EE0B8
:10203000060A01E012002CEC15F001E16CD101015F
:10204000330501E068D1060E0A6F1200D6EC15F0D8
:1020500005E23FEC16F0040E13EC16F049EC15F017
:1020600004E001012E2959EC14F070EC15F008E0A1
:1020700001012E052E6FE850170802E2170E2E6F91
:102080006DEC15F005E0050E01012E2559EC14F05C
:1020900073EC15F009E0050E01012E5D2E6FE8507E
:1020A000170802E2170E2E6F2CEC15F003E0010169
:1020B000070E0A6FD9EC15F001E12DD1EBD0D6EC6B
:1020C00015F005E23FEC16F0070E13EC16F049ECA4
:1020D00015F003E001012D29F2DB70EC15F008E0AA
:1020E00001012D052D6FE8503B0802E23B0E2D6FDC
:1020F0006DEC15F004E0140E01012D25E0DB73EC0E
:1021000015F009E0140E01012D5D2D6FE8503B081C
:1021100002E23B0E2D6F2CEC15F003E00101080EDE
:102120000A6FD9EC15F001E1F6D0B4D0D6EC15F079
:1021300005E2860EE66E3F0E15EC15F049EC15F043
:1021400008E001012F292F6FE850070802E2010E75
:102150002F6F70EC15F008E001012F052F6FE8508C
:10216000070802E2070E2F6F2CEC15F003E00101C7
:10217000090E0A6FD9EC15F001E1CDD08BD0D6EC69
:1021800015F005E23FEC16F0060E10EC16F049ECE7
:1021900015F008E001013029306FE8501F0802E215
:1021A000010E306F70EC15F008E001013005306F62
:1021B000010E305D02E21F0E306F6DEC15F009E08C
:1021C0000A0E01013025306FE8501F0802E2010EAF
:1021D000306F73EC15F009E00A0E0101305D306FCD
:1021E000010E305D02E21F0E306F2CEC15F003E0A3
:1021F00001010A0E0A6FD9EC15F001E18CD04AD02A
:10220000D6EC15F005E2860EE66E3F0EF3EC15F007
:1022100049EC15F008E001013129316FE8500C0854
:1022200002E2010E316F70EC15F008E0010131059A
:10223000316F010E315D02E20C0E316F2CEC15F0A6
:1022400003E001010B0E0A6FD9EC15F064E022D017
:10225000D6EC15F004E285DB090E10EC16F049EC23
:1022600015F007E001013229326FE850630801E2FE
:10227000326B70EC15F008E001013205326F630E2D
:10228000325D02E2630E326FE7DB01E09EDBD9ECE8
:1022900015F041E0E5EF14F0336BB8DD0101CBD967
:1022A00002E2D2EC15F0D8DB1EE0010115051BE1BE
:1022B00021DB396F156B2EC1E6FF020E03DA2DC14B
:1022C000E6FF010EFFD92FC1E6FF030EFBD930C197
:1022D000E6FF040EF7D931C1E6FF050EF3D932C18E
:1022E000E6FF060EEFD9B8DB07E0020E0101155D2F
:1022F00003E100DB396F156BF3DB0AE00101150523
:1023000002E1020E04D0020E155D02E1010E156F0E
:10231000C0DB01E0EFDA120045DA080EE1261EDA32
:10232000E906000EEA5A010ED890E936EA36E806C8
:10233000FBE166DADF6E1EDB010EF9DA100B01E05D
:10234000010E1D0FE76E020EF2DA200B01E0010E06
:10235000E76E030EE7CFDBFF01DA010ED890E93616
:10236000EA36E806FBE14CDAE76E040EE7CFDBFF66
:1023700001DB050EE7CFDBFF020EDB50DF5C29E15E
:10238000040EDB50020825E1FE0EDB0404E120DA36
:10239000DFCFEFFF2CD0FE0EDB501F0806E118DA6E
:1023A000010EEF6EF8D9050E24D0FE0EDB04F7EC1B
:1023B00015F0030EDB501BE1010EDB500C0802E1AF
:1023C000010E02D0010EDB28E66EE5D9E552E7509A
:1023D0002AD0FE0EDB50DF24FF0FF7EC15F0F8D902
:1023E000EFCF14F0020EDB50D880145405E3D3D99C
:1023F000010EDBCFEFFF18D0EBD9020EDB50EF5E02
:10240000030EDBCFE6FF010EDB28E552D880E75450
:10241000E66EC1D9E552E750EF6EBDD9EF500D0819
:1024200003E1B9D9010EEF6EB6D9EF50F36EFD0E90
:102430006FDA08E366DAFB0EDBCFEEFFFC0EDBCFD4
:10244000EDFF09D0DADB1406000E155A5ADA14C073
:10245000EEFF15C0EDFF55DAD00EEE5E070EED5A19
:10246000080EE15C02E2E16AE552E16EA0D19AD980
:1024700068DA01E1095050E0020E081801E1095044
:1024800047E0010E081801E109503EE0085001E163
:10249000095036E0090E081801E109502DE0080E38
:1024A000081801E1095024E0070E081801E109505D
:1024B0001BE0060E081801E1095012E0050E08188D
:1024C00001E1095009E0040E08182CE109502AE145
:1024D000800EE66E3F0E23D07C0EE66E3F0E1FD0C0
:1024E000760EE66E3F0E1BD0700EE66E3F0E17D0D6
:1024F0006B0EE66E3F0E13D0670EE66E3F0E0FD0EA
:10250000610EE66E3F0E0BD05C0EE66E3F0E07D0FE
:10251000560EE66E3F0E03D0510EE66E3F0EE66E8F
:10252000050E81DB44D13ED90CDA01E1095062E0AD
:10253000020E081801E1095059E0010E081801E1E6
:10254000095050E0085001E1095048E00B0E08180E
:1025500001E109503FE00A0E081801E1095036E098
:10256000090E081801E109502DE0080E081801E1D4
:10257000095024E0070E081801E109501BE0060E7F
:10258000081801E1095012E0050E081801E1095090
:1025900009E0040E081834E1095032E14E0EE66EEF
:1025A0003F0E2BD04A0EE66E3F0E27D0460EE66E4B
:1025B0003F0E23D0420EE66E3F0E1FD03D0EE66E5C
:1025C0003F0E1BD03A0EE66E3F0E17D0360EE66E6B
:1025D0003F0E13D0320EE66E3F0E0FD02D0EE66E7C
:1025E0003F0E0BD0290EE66E3F0E07D0240EE66E8E
:1025F0003F0E03D0200EE66E3F0EE66E0A0E13DB92
:10260000D6D0C8EC1DF0E552E552E552E552120075
:10261000E66E1BEC25F0E5520008120015C0E6FF3F
:1026200016C0E6FF17C0E6FF1200E66E1BEC25F0B1
:10263000E552000912000629146E140E15DA05C0C1
:1026400006F1010105500F081200E66E25EC25F099
:10265000E55200091200E66E38EC24F0E552E5522E
:1026600012007AEC1DF0186E060EE15E1850120092
:10267000020EDBCFE6FFE66AD1EC0DF062EF15F05B
:1026800077DAF3CF13F1F4CF14F10101F31C120048
:10269000CA0EE66E440EE66E1200E66EE66AE66A62
:1026A00012001C29146E140EDFD905C01CF10101A3
:1026B00005500F0812009EEC04F0E552E552E55279
:1026C000E5521200E66EF5EC27F0E552E5521200F5
:1026D0004FDAF3CF11F1F4CF12F10101F31C120024
:1026E000E66E010EE66E1200B5EC0DF0E552E55215
:1026F000E9D9F350F4101200DECFE9FFDDCFEAFF95
:10270000030EEA02F3CFEAFFE902F3CFE9FFF45048
:10271000EA263A0EE9260F0EEA22120034CFE6FF2F
:1027200035CFE6FFD1EC0DF062EF15F000C102F1FC
:1027300001C103F112009ED9010E156A1E25146E07
:102740001F511522145020191200E66E00EC28F0DB
:10275000E5521200156A166A176A12004EDAE50E83
:10276000145E070E155A0C0E1502F3CF15F0140265
:10277000F3CF14F0F4501526FD0EDB50F324E96E70
:10278000000E1520EA6E1200F3D9F3CF25F1FF0EEB
:102790000101F35C1200F70EDBCFE9FFF80EDBCF8F
:1027A000EAFF1200D9CFE6FFE1CFD9FF1200E552D0
:1027B000E7CFD9FF12000D6E0E6A14C008F015C0E5
:1027C00009F0DEEC28F004C014F005C015F012008A
:1027D000F90EDBCFE9FFFA0EDBCFEAFF12003E5124
:1027E000030DF3CFE9FFF4CFEAFF3A0EE9260F0E0F
:1027F000EA221200E66EFE0EDBCFE6FF5BEF15F07D
:10280000420EE926010EEA22060EEECFDBFF070E8E
:10281000EDCFDBFFD950060FE96EDACFEAFFEF50BC
:102820001F0B1200E66E25EC25F0E55200081200A1
:102830000A0E086E096A11C10DF012C10EF031EFD7
:1028400029F00A0E086E096A13C10DF014C10EF0CA
:1028500031EF29F00FDA01011E6F1F6B3AEF15F00F
:102860003DCFE6FF3ECFE6FF3FCFE6FF120040CF71
:10287000E6FF41CFE6FF42CFE6FF120043CFE6FF7F
:1028800044CFE6FF45CFE6FF1200D950FD0FE96EB9
:10289000FF0EDA20EA6E1200BFD101010D6F0E6B40
:1028A00012006CD90900F5CF14F00800F5CF15F02F
:1028B0001200146E180ED8D805C02EF11200146E36
:1028C0003C0ED2D805C02DF11200146E156AD00E40
:1028D0001426070E1522120002010A6B02010B6B6F
:1028E00002010C6B1200FD0EDBCF14F0FE0EDBCFED
:1028F00015F01200D1EC1CF001010A6B010E336FD0
:102900001200F50EDBCFE9FFF60EDBCFEAFF120077
:10291000DBCFF4FFF350F45C120032CFE6FF33CF8D
:10292000E6FF03EC0EF0E552E55200091200E7CF96
:10293000DBFFD950060FE96EDACFEAFFEE52EF5017
:102940001200FD0EDBCF08F0FE0EDBCF09F0030E08
:1029500008181200080E60D1E66AE66AE66AE66ABE
:1029600012006E0EE66E440EE66E1200060EE66E65
:10297000E66A1200D950060FE96EEE52EF500F0BC7
:10298000E76E120046CFE6FF47CFE6FF48CFE6FFEF
:10299000120016C114F017C115F0166A176A12005A
:1029A00018C114F019C115F0166A176A12001AC17D
:1029B00014F01BC115F0166A176A120001010B6FA3
:1029C0000C6B0D6B010E0E6F1200D1EC1CF00101AF
:1029D000010E336F0A691200100E1ED10F013A0E5C
:1029E0004C6F0101120020C11EF121C11FF1120024
:1029F000F36E020EF3CFDBFF12008A0EE66E3F0E7F
:102A0000E66E1200E66EE66A010EE66E01EF13F066
:102A10003FDEACDFF6DD3CDE090E05D939DE060E01
:102A2000FFD836DE090E10EF16F037DE01EF13F097
:102A3000DBCF14F08FDE1BEF16F0050E08EF13F05E
:102A4000040E08EF13F0060E08EF13F049DE31EF25
:102A500013F0E6D80A0E1200060E15EF13F08D0ED5
:102A6000E66E440EE66E1200156E0E6E14C009F08E
:102A70005AEF2AF0FFD80101206F216B12003ACFE4
:102A8000E6FF3BCFE6FF3CCFE6FFE66A14DE30EF21
:102A900014F0040E15EF13F0DEDD630EE66E430E48
:102AA000DADD4A0EE66E430E1200E66EFE0EDBCF56
:102AB000E6FF31EF13F07AEC1DF0146E060EE15EC6
:102AC00014501200E552E552F3CF14F0F4CF15F094
:102AD0001200010EE66E5BEF13F0040E25EF13F00B
:102AE000050E15EF13F0050E25EF13F08F0EE66EB1
:102AF000440E12003BC114F02DDE3BC1E6FF0EEF89
:102B000013F03CC114F026DE3CC1E6FF0EEF13F0DB
:102B10003DC114F01FDE3DC1E6FF0EEF13F02EC1E4
:102B200014F018DE2EC1E6FF0EEF13F02DC114F0E5
:102B300011DE2DC1E6FF0EEF13F02CC114F00ADEFA
:102B40002CC1E6FF0EEF13F030C114F003DE30C1EC
:102B5000E6FF0EEF13F032C114F0FCDD32C1E6FFE8
:102B60000EEF13F0040E10EF16F0070E10EF16F034
:102B7000DFCFE6FF9DEC0DF0E5521200060EF66E7B
:102B8000000EF76E12006CDEE66A95DD37EF14F08A
:102B90006EDEE66A90DD3EEF14F070DEE66A8BDDF5
:102BA000C2EF14F0DEDE0C0E13EF16F0336B1BEFEA
:102BB00013F0060E25EF13F0B9DD040E43D0FBDD54
:102BC00004C0E6FF05C0E6FF1200B0DD060E3AD0F5
:102BD000ADDD0A0E37D0AADD0D0E34D0E66EE66A02
:102BE00040DD48EF13F0E66E020E10EF16F0E66ED1
:102BF000EFDDE552E750EF6E1200FB0EDBCF14F075
:102C0000FC0EDBCF15F01200E66EE66A74EF13F0EF
:102C10002FDD010EF318120015D0F4DE1DEF15F0B4
:102C20005FDD01EF13F0E66EE66A01EF13F051DFAE
:102C3000EFDE1DEF15F014C0E6FF0EEF13F0E2DE3D
:102C400023EF15F00101006F016B1200EEDED60ECE
:102C5000E66E440ED7DE20EF15F0F8DE19DD060E25
:102C600029EF15F0E2DE42DF02EF15F030EC07F05D
:102C700023EF15F0E66A00EC28F0E552120036DF8B
:102C8000E66E1200D2DEB90EE66E410E1FEF16F0B0
:102C9000D9CFE6FFE1CFD9FF020EE126DE6ADD6A79
:102CA0006CD8F0EC1BF0D1EC1CF0D0D882EC1AF010
:102CB000120EE66E3F0EE66E060EE66EE66AB2ECA9
:102CC0001CF0E552E552E552E552D00EE66E070ED5
:102CD000E66E0FD8E552E5520F015851FDE0586BF2
:102CE000D1EC1CF0F9EC24F040EC00F0F9EC1CF015
:102CF000F3D7D9CFE6FFE1CFD9FF040EE126DE6A94
:102D0000DD6ADECF14F0DDCF15F0FD0EDBCF16F05F
:102D1000FE0EDBCF17F015501718E8AE02D01734AF
:102D200004D01650145C175015581DE2020EDB6AD1
:102D3000030EDB6A020EDBCF14F0030EDBCF15F0BF
:102D4000D890155004E6EE0E145C000E155806E2FD
:102D5000020EDB2A030EEEE3DB2AECD7DF2A010E9C
:102D6000D0E3DB2ACED7040EE15C02E2E16AE55251
:102D7000E16EE552E7CFD9FF1200936A956A6AECDB
:102D80001BF02EEC28F0BEDB570EE66E120EE66E40
:102D900016EC26F0E552E552AE0EE66E240EE66E17
:102DA0002CEC26F0E552E552660EE66EB70EE66EA6
:102DB0005BEC26F0E552E552020EE66EE66AB4ECF4
:102DC00026F0E552E5520A0EE66EE66AC0EC26F001
:102DD000E552E5520A0EE66EE66AD9EC26F0E552B7
:102DE000E552CEEC24F06AEC27F0F8EF22F00F0168
:102DF000370E6D6F3B0E6E6F170E6F6F070E706F95
:102E00001F0E716F0C0E726F0D0E736F6DCFE6FF9C
:102E1000E66AF5EC27F0E552E5526ECFE6FF010ECB
:102E20001FDB6FCFE6FF020E1BDB70CFE6FF030E4A
:102E300017DB71CFE6FF040E13DB72CFE6FF050E42
:102E40000FDB73CFE6FF060E30EF1AF0200E95DB96
:102E5000220811E0CCDFE66A100E02DBE66A110EF2
:102E6000FFDAE66A120EFCDAE66A130EF9DA220ECF
:102E7000E66E200EF5DA1200100E7FDB0F01766F82
:102E8000110E7BDB0F01776F120E77DB0F01786F6E
:102E9000130E73DB0F017C6F1200FCDA146E1FDB64
:102EA000E66ED7DAE66AE66AE1DA72CF14F017DB8B
:102EB00072CFE6FFCEDA030E85DB7DDB060E82DB0A
:102EC00070CF14F00CDB70CFE6FFC3DA090E7ADBAB
:102ED0005DDBE66A010EE66EC9DA5FDB030E76DBC8
:102EE00063DB060EE6EF1AF0D5DA7051070A24E02C
:102EF000010A1EE0030A18E0010A12E0070A0CE0CA
:102F0000010A06E0030A1FE10E0EE66E3F0E17D01F
:102F10000A0EE66E3F0E13D0060EE66E3F0E0FD081
:102F2000020EE66E3F0E0BD0FE0EE66E3E0E07D092
:102F3000FA0EE66E3E0E03D0F60EE66E3E0EE66E1E
:102F4000E66AE66A7FDA0A0E0F016F5D06E2D5DAFD
:102F5000040E18DB1BDB050E02D018DB040E32DB7F
:102F6000EFDA060E0FDB0A0E0F016E5D06E2C5DA20
:102F7000070E08DB12DB080E02D00FDB070E22DB88
:102F8000DFDA090EFFDA0A0E0F016D5D06E2B5DA2F
:102F90000A0EF8DA09DB0B0E02D006DB0A0E12DB92
:102FA0000F017851010A06E0010A0AE1EE0EE66E11
:102FB0003E0E03D0EA0EE66E3E0EE66E0D0EE2DA2F
:102FC0000101150506E1E60EE66E3E0EE66E0D0EFB
:102FD00008D0020E155D06E1E10EE66E3E0EE66ECD
:102FE0000C0ED0DA0F0172510C0A42E0070A3CE0E5
:102FF000010A36E0030A30E0010A2AE00F0A24E061
:10300000010A1EE0030A18E0010A12E0070A0CE0B8
:10301000010A06E0030A32E1DD0EE66E3E0E2BD019
:10302000D90EE66E3E0E27D0D50EE66E3E0E23D0AC
:10303000D10EE66E3E0E1FD0CD0EE66E3E0E1BD0BC
:10304000C90EE66E3E0E17D0C50EE66E3E0E13D0CC
:10305000C10EE66E3E0E0FD0BD0EE66E3E0E0BD0DC
:10306000B90EE66E3E0E07D0B50EE66E3E0E03D0EC
:10307000B10EE66E3E0EE66E020E76DA66DA050EEA
:1030800073DA0A0E0F01715D06E25FDA060E6CDA82
:1030900092DA070E02D08FDA060E98DA56DA080EA8
:1030A00063DA140EE66EE66AE66AE66A090E1BDA71
:1030B00032DA0A0E0F01735D0AE2E66AE66AE66A30
:1030C000E66A0B0E10DA27DA84DA0C0E02D081DA07
:1030D0000B0EE6EF1AF09E0EE66E3E0EE66EE66A08
:1030E000E66AB0D937DAE66A010EE66EABD90A0EA7
:1030F0000F01765D06E201DA020E36DA71DA030EAE
:1031000002D06EDA020E62DA1BDA040E2DDA0A0E33
:103110000F01775D06E2F1D9050E26DA68DA060EB0
:1031200002D065DA050E52DA1ADA070E1DDA0F013F
:103130007851010A06E0010A0AE1EE0EE66E3E0E43
:1031400003D0EA0EE66E3E0EE66E0A0E0DDA07DAE0
:103150000D0EB4EF1AF00F017451FF0A01E1B2D065
:10316000FC0A01E184D0010A49E0030A0DE0010AEA
:1031700001E0120051DA01E1B8D00F017D0501E054
:10318000B4D0010E746F120078D903E2E3D9020EB5
:10319000EBD945DA03E00F01762944DA040EA7D90A
:1031A00004E0050E0F0176253DDA050E92D90CE0FC
:1031B0000F017605766FE850170802E2170E766F5A
:1031C00076CFE6FF100E4CD9050E91D90DE0050E15
:1031D0000F01765D766FE850170802E2170E766FE2
:1031E00076CFE6FF100E3CD917DA03E00F01020E8E
:1031F000746F060E7CD901E178D05DD03ED903E230
:10320000A9D9050EB1D90BDA03E00F0177290FDA3E
:10321000040E6DD904E00A0E0F01772508DA050EB9
:1032200058D90CE00F017705776FE8503B0802E2B0
:103230003B0E776F77CFE6FF110E12D9050E57D9E7
:103240000DE00A0E0F01775D776FE8503B0802E250
:103250003B0E776F77CFE6FF110E02D9DDD903E081
:103260000F01030E746F060E42D93FE024D005D93A
:1032700003E275D90A0E78D9D2D907E00F0178296F
:10328000010B786FE66E120EEBD8050E22D90CE01A
:103290000F017805786FE850010802E2010E786F9F
:1032A00078CFE6FF120EDCD8B7D902E00F017469BF
:1032B000060E1DD91AE0D1EC1CF00F01010E7D6F36
:1032C000746B1200DAD806E2920EE66E3E0EE66EDF
:1032D0000A0E58D9A4D903E1050EFBD801E022D982
:1032E0009BD903E01FD90101386F12000F01010EB5
:1032F000081903E1095101E1010C000C0F010A0E4C
:10330000081903E1095101E1010C000C0F01010E44
:10331000101903E1115101E1010C000C0F010A0E1B
:10332000101903E1115101E1010C000C0F01010E14
:103330000A1901E10B5115E00A0ED8800A55000E5A
:103340000B5510E20ACF14F00BCF15F0030E0D6EE3
:103350000E6A0ACF08F00BCF09F0EBD803E1155045
:1033600001E1010C000C0F01010E121901E11351D2
:1033700015E00A0ED8801255000E135510E212CF38
:1033800014F013CF15F0030E0D6E0E6A12CF08F075
:1033900013CF09F0CED803E1155001E1010C000C68
:1033A0000F0176516F5D0AE177516E5D07E16D5156
:1033B00005E1780503E17D0501E1010C000C0F0139
:1033C0007551050A16E0010A05E0040A01E0120041
:1033D000040E0DD0E5DF000906E00F01010E7C6F41
:1033E000E66E130E3DD80F017C512BE0050E756F74
:1033F00012007D6B7E29146E140EB9D805C07EFFB5
:103400000A0E0F01055C02E2D1EC1CF00F01792BD2
:10341000000E7A23900ED8807955010E7A5502E37A
:10342000FED80FE00F01010E7D6F7C6B7CCFE6FFB5
:10343000130E16D80F01796B7A6BD1EC1CF00F01CB
:10344000756B1200C8EC1DF0E552E552E552E552ED
:10345000120015C0E6FF16C0E6FF17C0E6FF120017
:10346000E66EF5EC27F0E552E55212007AEC1DF01D
:10347000186E060EE15E185012007D6B2CDE0F01F7
:103480007B29146E140E73D805C07BFF0F01055005
:103490000F081200E66A00EC28F0E5520F016D6F8C
:1034A000010E6BD80F016E6F020E67D80F016F6FA0
:1034B000030E63D80F01706F040E5FD80F01716F98
:1034C000050E5BD80F01726F060E57D80F01736F90
:1034D0001200E66E1BEC25F0E55200091200156A99
:1034E000166A176A1200E66E010EE66E1200E66EAC
:1034F00025EC25F0E55200091200F40EE66E3E0EB2
:10350000E66E1200E80EE66E030EE66E79EC16F03B
:10351000E552E55212007AEC1DF0146E060EE15EE3
:1035200014501200D1EC1CF00F01746B010E7D6F72
:10353000120026EC2AF005C015F0010E0418120046
:10354000F20EE66E3E0EE66E1200AF0EE66E3E0E18
:10355000E66E12009B0EE66E3E0EE66E1200970EB1
:10356000E66E3E0EE66E1200BEDF22EF1AF0156E1A
:103570000E6E14C009F05AEF2AF0E66E00EC28F047
:10358000E5521200E66EE66A22EF1AF06FCF14F0F1
:10359000A6DF6FCFE6FF29EF1AF06ECF14F09FDFA2
:1035A0006ECFE6FF29EF1AF06DCF14F098DF6DCFE4
:1035B000E6FF29EF1AF071CF14F091DF71CFE6FF2B
:1035C00029EF1AF0E66EE66A36EF1AF08CDF36EF76
:1035D0001AF073CF14F083DF73CFE6FF29EF1AF0F0
:1035E00076CF14F07CDF76CFE6FF29EF1AF077CFA5
:1035F00014F075DF77CFE6FF29EF1AF005C076FFEC
:1036000005C0E6FF100E30EF1AF005C077FF05C0C9
:10361000E6FF110E30EF1AF0060E69EF1AF0040EF5
:1036200069EF1AF0146E180EA2DFFEEF1AF0146E96
:083630003C0E9DDF05EF1BF0CD
:0836380030EC1FF07BDB15AE46
:1036400002D01668176820DB13E289DB49DB04E649
:10365000050E145C000E155806E2020EDB2A030E5E
:10366000F5E3DB2AF3D7DF2A010EE8E3DB2AE6D70E
:10367000040EE15C02E2E16AE552E16EBBD2F0DBEE
:1036800059DB15AE02D016681768FEDA13E267DB65
:1036900027DB04E6EE0E145C000E155806E2020E5F
:1036A000DB2A030EF5E3DB2AF3D7DF2A010EE8E37A
:1036B000DB2AE6D7040EE15C02E2E16AE552E16E44
:1036C00099D2D4DBF00B6BDBFE0EDB38F00B8112F2
:1036D00078DA90D2C2DB190E50DB0F0E8116F80E8D
:1036E00081160F0E8116300E5ADB300E58DB300E6D
:1036F00056DB818A66DA280EE66EE3DFE5520C0EB1
:10370000E66EDFDFE552E55275D29DDB010EDB6A26
:1037100081944ADBE76E010EE7CFDBFF819644DB45
:10372000DF6E010EDB50DF128196010E51DADF50A1
:10373000146E020EE15C02E2E16AE552E16E1450A1
:1037400059D28BDBDF6AE1DFDF6EDFBEFCD7DF50F3
:10375000E55250D28BDB81128186050E39DA8196D3
:10376000050E36DA47D241DA8194050E31DA98DA5D
:1037700041D23BDA8184050E2BDA92DA81943AD277
:103780003BD33AD332DAFD0EDBCFF6FFFE0EDBCFB2
:10379000F7FF0800F5500DE0FD0EDBCFF6FFDB2A4A
:1037A000FE0EDBCFF7FF01E3DB2A0800F5501BDB41
:1037B000EAD720D252DBFD0EDB500F0B146EFE0E4B
:1037C000DB50010B400DF3501424DF6E7F0EDF142D
:1037D000800FDF6EDFCFE6FFC6DFE552E5520AD28B
:1037E000010EE66EC0DFE552E66AE66A3CEF1FF0C6
:1037F000FCD9050EE126010EF36EDB6EB0DA040E85
:10380000DB6ADF6ADFCF14F0156A14BE156899DA37
:1038100015501718E8AE02D0173404D01650145CB7
:10382000175015581FE2FD0EDBCF14F0FE0EDBCF54
:1038300015F0166A176A15AE02D016681768D950C7
:10384000010FE96EDACFEAFF14C00BF015C00CF0DF
:1038500016C00DF017C00EF0DBDAADEC29F0E1DA9E
:10386000DF2AD0D7010EDBCF14F0020EDBCF15F02C
:10387000030EDBCF16F0040EDBCF17F014C006F0FA
:1038800015C007F016C008F017C009F0050EE15C7E
:1038900002E2E16AE552E16EADD1D5DAFB0EDBCF93
:1038A00014F0FC0EDBCF15F0FD0EDBCF16F0FE0E94
:1038B000DBCF17F0145015101610171003E1300E5F
:1038C00092DA36D0D950FB0F14DA01E618DA05E2A5
:1038D0002D0E89DAD950FB0FCAD9DE52070EDD6EE4
:1038E00037DAE8AE02D0143403D0E750D88014544D
:1038F0001FE217DA18BE196871D936DA5EDA08DA0B
:103900000BE0010EDF6EDB041C6E1D6A1CBE1D6821
:1039100083D953DA9FD903D0DF5002E0300E63DA47
:1039200000DA18BE19685AD9D950FB0F6CD9D8D70C
:10393000020EE15C02E2E16AE552E16E5BD155D92B
:10394000C7D9D950F90F53DAEECFE6FFEECFE6FF35
:10395000EECFE6FFEFCFE6FFA0DFE552E552E552FE
:10396000E55248D142D9B4D9FB0EDBCFE6FFFC0EBD
:10397000DBCFE6FF07DFE552E5523CD136D9FCC08C
:1039800014F0FDC015F0040ED89014361536E80674
:10399000FBE192D9FE0EDBCFEFFFFE2B000EFF23E3
:1039A00029D15BDADF6ADFCF14F0100EE76E14184E
:1039B000E8AE02D0E73402D0E750145C18E2DFCF63
:1039C000E9FFEA6AE9BEEA68C10EE926000EEA22CA
:1039D000200EEF6EDFCFE9FFEA6AE9BEEA68D10E9A
:1039E000E926000EEA22200EEF6EDF2ADCD7E55230
:1039F00001D133DA0001C051030A29E0010A1CE0B9
:103A0000030A0CE0010A32E13BDA080EDF5C03E254
:103A1000DF50B9D9FAD70001010E17D0080EE66EB3
:103A2000E66A09D9080EDF5C04E2080EDF24ABD990
:103A3000F9D70001020E09D00BDA080EDF5C03E2B1
:103A4000DF50A7D9FAD70001030EC06F10D0080EBF
:103A5000E66E010EE66EEFD8080EDF5C04E2080E9B
:103A6000DF2497D9F9D70001C06B01D0C06BE552B4
:103A7000C1D0F3D90001C051010A0DE0010A15E1DE
:103A8000FFD9100EDF5C03E2DF507DD9FAD70001C9
:103A9000010EC06F0BD0DCD9100EDF5C03E2DF50EB
:103AA00078D9FAD70001C06B01D0C06BE552A2D023
:103AB000D4D9E6D9100EDF5C03E2DF5064D9FAD71F
:103AC000C7D9100EDF5C03E2DF5063D9FAD7E552A5
:103AD00091D08BD8B3D8FCC014F0FDC015F0040E03
:103AE000D89014361536E806FBE1E6D8FC0EDBCF9D
:103AF000EFFF80D0A8D9A2D8F90EDBCF14F0FA0ED0
:103B0000DBCF15F01ED9145015101610171003E155
:103B1000300E0CD936D0D950F90FEBD801E6EFD8DA
:103B200005E22D0E03D9D950F90FA1D8DE52070EA8
:103B3000DD6E0ED9E8AE02D0143403D0E750D88041
:103B400014541FE2EED818BE196848D80DD940D9D0
:103B5000DFD80BE0010EDF6EDB041C6E1D6A1CBE9D
:103B60001D685AD835D976D803D0DF5002E0300E20
:103B7000DDD8D7D818BE196831D8D950F90F43D835
:103B8000D8D7020EE15C02E2E16AE552E16E32D082
:103B90002CD854D8FB0EDBCFF6FFFC0EDBCFF7FFA3
:103BA0000800F5500DE0FB0EDBCFF6FFDB2AFC0E24
:103BB000DBCFF7FF01E3DB2A0800F550B7D8EAD7DF
:103BC00019D08186010ED9D88196010EBDEF1EF065
:103BD000E66EE66AE66AE66A2FDD56D118C0E6FFB1
:103BE00019C0E6FF10D91AEF1FF0D9CFE6FFE1CFD9
:103BF000D9FF1200E552E7CFD9FF1200EA22EF50B9
:103C0000F2D8DF2A1200F3D8AFD802D9E5EC29F0B8
:103C100008D9010EDB0612001CC0E6FF1DC0E6FF3E
:103C2000F2D806C018F007C019F008C01AF009C091
:103C30001BF0B4EF1EF020D9DF6A1200FE0EDB503D
:103C4000010B0001FC6FFD6BFD0EDB500F0BFE6FD7
:103C5000FF6B1200DBCF09F0E5EC29F0EBD8300E5A
:103C60001426000E15221622172214501200BFD857
:103C7000000EEE6CEF1EEE22EF1EEE22EF1EEF2284
:103C8000ED52ED52ED521200D950FB0FB0D8EE506C
:103C9000145CEE501558EE501658EE50175812009E
:103CA000FE0EDBCFE6FF56DDE552FE0EDB38F00BF5
:103CB000E66E50DDE5521200C10E1426000E1522EC
:103CC00014500001FE25E96E1550FF21EA6E120026
:103CD000FD0EDBCFE6FFFE0EDBCFE6FF3CEF1FF075
:103CE000020EDBCF14F0030EDBCF15F0D890155089
:103CF00012007DD8D890030EEB50000A1200000E7F
:103D0000EE5C000EEE58000EEE58000EEE5812005B
:103D1000DBCF09F0E5EC29F0065007100810091078
:103D20001200010EDB04186E196A1200E66E26DE20
:103D3000E5521200DECF14F0DDCF15F0166A176AD7
:103D40001200FB0EDBCF16F0FC0EDBCF17F01200DB
:103D5000010EDBCF14F0000EE76E14181200020EF5
:103D6000DB6A030EDB6A120006C00BF007C00CF022
:103D700008C00DF009C00EF01200E66EE66AE66AB1
:103D8000E66A7DDC81D0EA6AC10FE96E000EFEEFC3
:103D90001DF0EA6AD10FE96E000EFEEF1DF08112F0
:103DA00010DF0F0E811612000F0E12DF0F0E8112A0
:103DB00081860EDF0F0E81141200FB0EDBCF06F0A2
:103DC000FC0EDBCF07F0FD0EDBCF08F0FE0E12007D
:103DD000F90EDBCF06F0FA0EDBCF07F0FB0EDBCFE0
:103DE00008F0FC0E1200E66ECCDCE5521200E96E23
:103DF000FF0EDA20EA6E1200F8DEFE0EDBCFE6FFE1
:103E0000B8DCE552F7D60A0EE66EE66AF1DC3CD085
:103E1000EECF06F0EECF07F0EECF08F0EFCF09F0CF
:103E2000120005C0EDFF04C0EDFF03C0EDFF02C0AE
:103E3000EFFF120006C014F007C015F008C016F01E
:103E400009C017F01200D1DE020EE126DF6A12006F
:103E5000E66A010EE66E1BEF1EF0C7DEE6521200A8
:103E6000C4DE040EE126DE6ADD6A1200BEDE0F0E3D
:103E70008116FE0EDB5012009DDCE552E552120069
:103E8000E66AE66A1BEF1EF0E552E552E552E5529E
:023E900012001E
:0E3E92002020202000202020002020002020C2
:103EA000414C41524D2020204241434B20200020D4
:103EB00000444543004E4F56004F43540053455075
:103EC00000415547004A554C004A554E004D415956
:103ED00000415052004D415200464542004A414E79
:103EE0000045584954004F4B20004F4E20004F468C
:103EF00046003A00300053415400465249005448AD
:103F0000550057454400545545004D4F4E005355FC
:103F10004E004449474954414C20434C4F434B00C9
:103F2000486F69005475617400446175005468619C
:103F30006E004D7569004E676F00547900546869D2
:103F40006E004D656F0044616E00537575005469D5
:103F50000051757920004E68616D200054616E201B
:103F60000043616E6820004B7920004D6175200090
:103F700044696E68200042696E6820004174200028
:103F80004769617020002020200020004445430044
:103F90004E4F56004F435400534550004155470083
:103FA0004A554C004A554E004D415900415052006F
:103FB0004D415200464542004A414E004558495441
:103FC000004F4B200053415400465249005448557D
:103FD0000057454400545545004D4F4E0053554E33
:103FE000003E48414E4F49202020205554432B305D
:103FF00037002048414E4F49202020205554432B64
:104000003037003E4C4F4E444F4E202020555443F5
:104010002B303000204C4F4E444F4E202020555422
:10402000432B3030003E4E4557594F524B202055C0
:1040300054432D303500204E4557594F524B2020C8
:104040005554432D3035003E5041524953202020D5
:10405000205554432B3031002050415249532020E9
:1040600020205554432B3031003E4245494A494EA9
:104070004720205554432B30380020544F4B594F84
:10408000202020205554432B303900204245494AF6
:10409000494E4720205554432B3038003E544F4B57
:1040A000594F202020205554432B303900215449AA
:1040B0004D45230D0A003E496E7465726E657400AD
:1040C000205669727475616C5465726D696E616CAD
:1040D0000021444154453A59594D4D444464230DFF
:1040E0000A000D0A546F2073796E6368726F6E69EF
:1040F0007A6520646174652C207573696E6720731E
:10410000796E74617820617320666F6C6C6F773A9A
:104110000D0A005468652074696D65206E656564DC
:1041200020746F2062652032342D6820666F726DB6
:1041300061740D0A002154494D453A48484D4D538C
:1041400053230D0A000D0A546F2073796E63687251
:104150006F6E697A652074696D652C207573696E60
:10416000672073796E74617820617320666F6C6C60
:104170006F773A0D0A000D0A57656C636F6D652005
:10418000746F20416C61726D20436C6F636B2063B0
:104190006F6E736F6C65206D656D750D0A0020493B
:1041A0006E7465726E6574003E5669727475616CEA
:1041B0005465726D696E616C003E4261636B0020F4
:1041C000557365205541525400204261636B003E97
:1041D00055736520427574746F6E002055736520A9
:1041E000427574746F6E003E55736520554152548C
:1041F00000436F6E6669726D204572726F72210D99
:104200000A0052656164206572726F7220210D0A86
:10421000000D0A4E65656420636F6E6669726D20DD
:1042200064617465206368616E676520210D0A0012
:104230000D0A436F6E66696775726174696F6E20EF
:10424000446174652053756363657373210D0A00BF
:104250000D0A44415445206D7573742062652069D0
:104260006E2072616E6765205B312C375D20210DF9
:104270000A000D0A446179206D757374206265200F
:10428000696E2072616E6765205B312C32385D206B
:10429000210D0A000D0A446179206D757374206246
:1042A0006520696E2072616E6765205B312C323942
:1042B0005D20210D0A000D0A446179206D7573742B
:1042C00020626520696E2072616E6765205B312C0B
:1042D00033315D20210D0A00506C656173652065E6
:1042E0006E74657220616761696E210D0A000D0AA6
:1042F000446179206D75737420626520696E207247
:10430000616E6765205B312C33305D20210D0A0022
:104310000D0A20446179206D757374206265203E1A
:104320002030210D0A000D0A4D6F6E7468206D75E6
:10433000737420626520696E2072616E6765205B10
:10434000312C31325D20210D0A000D0A506C65615F
:10435000736520656E74657220616761696E2021E6
:104360000D0A000D0A43686172616374657220630F
:104370006F6E6669726D206973202723270D0A000E
:104380000D0A4E65656420636F6E6669726D2074F8
:10439000696D6520210D0A000D0A436F6E6669671D
:1043A00075726174696F6E2054696D652053756311
:1043B00063657373210D0A000D0A506C65617365A6
:1043C00020656E746572206E756D62657220210DB8
:1043D0000A000D0A5365636F6E64206D7573742057
:1043E000626520696E2072616E6765205B302C35D6
:1043F000395D20210D0A000D0A4D696E7574652026
:104400006D75737420626520696E2072616E6765D8
:10441000205B302C35395D20210D0A00706C656100
:10442000736520656E74657220616761696E210D28
:104430000A000D0A486F7572206D757374206265ED
:1044400020696E2072616E6765205B302C32335DAF
:1044500020210D0A000D0A506C6561736520656EA0
:10446000746572206E756D626572210D0A002020E0
:1044700020200052554E0053544F500054494D4592
:104480005220434C4F434B204241434B00300020CD
:10449000200020202053544F50205741544348209F
:1044A00020003E352E200020352E20003E342E20C8
:1044B0000020342E20003E332E200020332E2000FA
:1044C0003E322E200020312E20003A0020322E20B5
:1044D000003E312E20003E4241434B0048554D499D
:1044E0003A202020250054454D503A2020204300FA
:1044F0005265636576696E6720646174612E2E0073
:1045000021444854230D0A00204241434B003E57AA
:1045100045415448455200205745415448455200B2
:104520003E474C4F42414C2054494D450055415265
:104530005420746F206D6F6469667900506C6561FA
:10454000736520636F6E6E6563740020474C4F4245
:10455000414C2054494D45003E54494D45204D4F56
:1045600044494659002054494D45204D4F44494641
:1045700059003E54494D455220434C4F434B002077
:1045800054494D455220434C4F434B003E53544FEA
:1045900050205741544348005468616E6720004ED4
:1045A00067617920004E616D20002053544F5020E8
:1045B0005741544348003E4C554E41522043414CD4
:1045C000454E4441520020414C41524D20434C4FF6
:1045D000434B00204C554E41522043414C454E44E4
:1045E0004152003E414C41524D20434C4F434B0001
:1045F000B06A810EAF6EAC8AAC94B886AC98AB8EC4
:10460000AB889E9A9D8A9F8A949C948E120069D949
:10461000040EE126DE6ADD6ADECF14F0DDCF15F090
:1046200097D915501718E8AE02D0173404D0165099
:10463000145C175015581DE2020EDB6A030EDB6A8C
:10464000020EDBCF14F0030EDBCF15F0D89015501F
:1046500004E6EE0E145C000E155806E2020EDB2A8C
:10466000030EEEE3DB2AECD7DF2A010ED5E3DB2ACB
:10467000D3D7040EE15C02E2E16AE552E16E36D185
:1046800030D99EA8FED7FE0EDB50AD6E9E982ED17F
:1046900028D956D908E054D934D9FD0EDB2AFE0EAC
:1046A000F8E3DB2AF6D722D11CD9050EE126010E4C
:1046B000F36EDB6E020EDB6A030EDB6A040EDB6A4E
:1046C000DF6ADFCF14F0156A14BE1568FB0EDBCF6E
:1046D00016F0FC0EDBCF17F015501718E8AE02D01D
:1046E000173404D01650145C175015581FE2FD0EF5
:1046F000DBCF14F0FE0EDBCF15F0166A176A15AE8D
:1047000002D016681768D950010FE96EDACFEAFFB8
:1047100014C00BF015C00CF016C00DF017C00EF051
:10472000F4D8ADEC29F0FAD8DF2ACBD7010EDBCFD5
:1047300014F0020EDBCF15F0030EDBCF16F0040EE3
:10474000DBCF17F014C006F015C007F016C008F054
:1047500017C009F0050EE15C02E2E16AE552E16E84
:10476000C5D0BFD8020EE126DF6AFB0EDBCF14F006
:10477000FC0EDBCF15F0ECD81450151016101710E6
:1047800003E1300EBED86DD0B5D8D890030EEB50F3
:10479000000A08E6000EEE5C000EEE58000EEE5821
:1047A000000EEE580EE22D0EACD8A4D8000EEE6C22
:1047B000EF1EEE22EF1EEE22EF1EEF22ED52ED5223
:1047C000ED52DE520A0EDD6E010EDBCF14F0000E4C
:1047D000E76E1418E8AE02D0143403D0E750D88046
:1047E00014543FE2010EDB04186E196A18BE1968F2
:1047F00071D861D806500710081009101EE0010E8C
:10480000DF6EDB041C6E1D6A1CBE1D681CC0E6FF4B
:104810001DC0E6FFA4D806C018F007C019F008C0F4
:104820001AF009C01BF047D8A3D8300E1426000E8A
:10483000152216221722145003D0DF5002E0300E4A
:1048400060D8010EDB04186E196A18BE196842D8C8
:1048500051D897D85AD8E5EC29F060D8010EDB067C
:10486000B3D7020EE15C02E2E16AE552E16E3ED0AE
:1048700038D85DD80CE05BD844D8FD0EDBCFF6FF0E
:10488000DB2AFE0EDBCFF7FFF4E3DB2AF2D72ED0D4
:1048900028D8E652AE50DF6E02010A51EA6ABB0F19
:1048A000E96E010EEA22DFCFEFFF0A293F0B0A6F04
:1048B0000C2BE5521BD065D8FB0EDBCF06F0FC0EAF
:1048C000DBCF07F0FD0EDBCF08F0FE0EDBCF09F0EB
:1048D000E5EF29F018C0E6FF19C0E6FF40D8B8EFB1
:1048E00024F0D9CFE6FFE1CFD9FF1200E552E7CFA0
:1048F000D9FF1200D950FB0FE96EFF0EDA20EA6EE5
:104900001200E66EBDDEE5521200EECF06F0EECFED
:1049100007F0EECF08F0EFCF09F0120005C0EDFF71
:1049200004C0EDFF03C0EDFF02C0EFFF1200FD0E5B
:10493000DBCFF6FFFE0EDBCFF7FF0800F5501200CD
:10494000FD0EDBCFE9FFFE0EDBCFEAFFEF501200DA
:10495000FD0EDBCF16F0FE0EDBCF17F012000A0EB5
:10496000E66EE66AA1DEE552E552E552E552120036
:1049700006C014F007C015F008C016F009C017F003
:10498000120006C00BF007C00CF008C00DF009C003
:044990000EF0120013
:0C4994000F0E946E82681200070E941043
:1049A000946EDF0E9414946E82681200D0D808D9E9
:1049B00001E601D917E2DDD8826EF8D8D1D801E638
:1049C000FAD80BE2B7D802E1FFD801D01DD9020E08
:1049D000DB2A030EF3E3DB2AF1D7DF2A010EE7E33C
:1049E000DB2AE5D7040EE15C02E2E16AE552E16E02
:1049F000D9D0ADD8DBD8010EDE6EDD6ABAD882140C
:104A0000826ED4D8ADD804E6030E145C000E15589F
:104A10000BE290D802E1D8D801D0F6D8020EDB2AFA
:104A2000030EF0E3DB2AEED7040EE15C02E2E16A5A
:104A3000E552E16EB7D0A7D8010EEE1804E1ED50B3
:104A400002E1010E01D0000EADD09DD8320EEE185D
:104A500004E1ED5002E1010E01D0000EA3D077D8A1
:104A6000D7D8FD0EDBCF16F0FE0EDBCF17F01550BA
:104A70001718E8AE02D0173404D01650145C175043
:104A8000155813E293D86CD804E6EE0E145C000EB1
:104A9000155806E2020EDB2A030EF5E3DB2AF3D7F4
:104AA000DF2A010EDDE3DB2ADBD7040EE15C02E244
:104AB000E16AE552E16E76D04AD882D801E67BD829
:104AC00022E257D8826E72D84BD801E674D80DE234
:104AD0009BD830D804E11ED8010EEE6EED6A020EAE
:104AE000DB2A030EF1E3DB2AEFD78250816EE80E5A
:104AF000E66E030EE66EB3DFE552E552DF2A010EE5
:104B0000DCE3DB2ADAD7040EE15C02E2E16AE5527B
:104B1000E16E48D07DD8D89014361536D89014362A
:104B20001536020EDB501424E96E030EDB501520FF
:104B30000DEF26F0020EDBCFE9FF030EDBCFEAFF1D
:104B4000240EE9260F0EEA22EF5082141200D9CF6C
:104B5000E6FFE1CFD9FF040EE126DE6ADD6A12002E
:104B6000020EDBCF14F0030EDBCF15F0D8901550FA
:104B70001200DECFE9FFDDCFEAFF200EE9260F0E9F
:104B8000EA22EF1C1200D9CFE6FFE1CFD9FFFE0EDB
:104B9000EA6ADB34FE0BEA36E96E000EE9260F0EF8
:104BA000EA221200E552E7CFD9FF1200020EDB6ABB
:104BB000030EDB6A1200040E145C000E155812007E
:104BC00027D8D89015501200DECF18F0DDCF19F09D
:104BD000D89018361936D89018361936020EDB5090
:104BE0001824E96E030EDB50192017D8EECF16F00B
:104BF000EFCF17F0010E1626000E17228BDF16C01E
:104C0000EEFF17C0EDFF120085DFEE6AED6A1200BD
:104C1000DECF14F0DDCF15F01200EA6ED890E93641
:0C4C2000EA36000EE9260F0EEA22120010
:044C2C00F1D8D59E48
:104C3000FD0EDBCF4DFFFE0EDBCF4EFFD59C05D921
:104C4000D59AD586F28AF294F184D58EE6D0D59E97
:104C50001200FBD8D58E1200DBD8CD90FD0EDBCF35
:104C60004FFFFE0EDBCF50FFF7D89D809E909F90A8
:104C7000CD8ECD8CCD98CD9ACD96CD92CD80CDD008
:104C8000EBD8CD801200CD901200C2D8CA94CC6A65
:104C9000FE0EDB500F01516F526BCB6E9D829E92C8
:104CA0009F92CA90CA92CA84B8D051CFCBFFCA840F
:104CB0001200CA941200ACD8B190FD0EDBCF53FFA6
:104CC000FE0EDBCF54FFCFD80750B36ECCD8B5D88B
:104CD000B26EA082A192A292B18EB198B19AB19215
:104CE000B1809BD0C0D80350B26EBDD89ED8B36EF1
:104CF000B1801200B19012000F015D2B000E5E23F7
:104D000065515D5D66515E5904E35D6B5E6B010E3E
:104D1000556F12000F015F2B000E602367515F5D1E
:104D20006851605904E35F6B606B010E566F1200AF
:104D30000F01612B000E62236951615D6A51625956
:104D400004E3616B626B010E576F12000F01632B5E
:104D5000000E64236B51635D6C51645904E3636B13
:104D6000646B010E586F120053D8FD0EDBCF65FF48
:104D7000FE0EDBCF66FF0F015D6B5E6B556B4DD09A
:104D800047D8FD0EDBCF67FFFE0EDBCF68FF050EB9
:104D90000D6E0E6A67CF08F068CF09F0DEEC28F0E0
:104DA00008C067FF09C068FF0F015F6B606B566B3F
:104DB00034D02ED8FD0EDBCF6BFFFE0EDBCF6CFFA9
:104DC0000A0E0D6E0E6A6BCF08F06CCF09F0DEECA8
:104DD00028F008C06BFF09C06CFF0F01636B646BA8
:104DE000586B1BD01C6A1A50175C146E1B50185855
:104DF000156E1C501958166E0C6A010E0D6E0E6A57
:104E000014C007F015C008F016C009F004EF29F02F
:104E1000D9CFE6FFE1CFD9FF1200E552E7CFD9FFA6
:104E2000120017681868196A120007C014F008C049
:104E300015F009C016F00750120003C014F004C0AA
:104E400015F005C016F00350120014D80350D66EAA
:104E500011D8EBDFD76E120014D80750CF6E11D8DF
:104E6000ECDFCE6E1200DDDF53CF1AF054CF1BF013
:104E7000F2EF26F0D6DF4DCF1AF04ECF1BF0F2EF57
:104E800026F0CFDF4FCF1AF050CF1BF0F2EF26F015
:104E9000BED8020EE126FE0EDB500F0BDF6EFE0EBB
:104EA000DB380F0B0A0DBCD802E2E16AE552E16E75
:104EB0001450B2D0ACD8020EE126BBD80550DF6E3C
:104EC000B8D80950100DACD802E2E16AE552E16EA3
:104ED0001450A2D094869488C79EC79CC690C69250
:104EE000C694C686310EC86EC68A120090D89E96A9
:104EF000FE0EDB50D00FC96E9EA6FED78DD09E96BB
:104F0000C5809EA6FED712009E96C5849EA6FED79B
:104F100012007DD89E96FE0EDB50C96E9EA6FED76F
:104F20007BD09E96C5869EA6FED7C95012009E963F
:104F3000C59AC5889EA6FED712009E96C58AC588CA
:104F40009EA6FED7120063D87CD8010EFF6FE850F2
:104F500004E0C550400BFAE0F8D779D8010EFF6F96
:104F6000E85004E0C550400BFAE0F8D7FD0EDBCF67
:104F7000E6FFA0DFE552E66ECCDFE5520101010E4F
:104F8000FF6FE85004E0C550400BFAE0F8D7BCDFF3
:104F900043D03DD8E65255D8010EFF6FE85004E0EB
:104FA000C550400BFAE0F8D752D8010EFF6FE85019
:104FB00004E0C550400BFAE0F8D7A1DF010EE66E21
:104FC00095DFE5520101010EFF6FE85004E0C55086
:104FD000400BFAE0F8D7A5DFDF6EDFCFE6FF58DF42
:104FE000E552DF6EDF50E55217D011D8FD0EDBCF52
:104FF000E6FFFE0EDBCFE6FFA6DFE552E5520CD062
:1050000006D8FE0EDBCFE6FFC4DFE55205D0D9CFD0
:10501000E6FFE1CFD9FF1200E552E7CFD9FF12003A
:10502000010EF3CFDBFFDB50DF24146E020EE15CD8
:1050300012000A0E146E0E6EFE0EDBCF09F05AEF50
:105040002AF05DDFE66A52DFE55201011200FE0E32
:0C505000DBCFE6FF5EDFE552010112003D
:04505C00F28ED08E72
:10506000F28C1200F19CF292F2881200D8CFE4FF89
:10507000E0CFE4FFE46E65D800EE00F0140EE80423
:1050800003E3EECFE4FFFBD700EE14F00A0EE804D2
:1050900003E3EECFE4FFFBD7E652F2B47AD89EB03A
:1050A0007FD8A1B284D8F2B2F2929EBA9E9AE5520B
:1050B00000EE1DF00A0EE80403E3E5CFEDFFFBD799
:1050C00000EE13F0140EE80403E3E5CFEDFFFBD789
:1050D0004DD8E550E5CFE0FFE5CFD8FF100031D83F
:1050E00000EE00F0140EE80403E3EECFE4FFFBD77C
:1050F00000EE14F00A0EE80403E3EECFE4FFFBD762
:10510000E652F2B446D89EB04BD8A1B250D8F2B213
:10511000F2929EAA03D048EC24F09E9AE55200EE4B
:105120001DF00A0EE80403E3E5CFEDFFFBD700EE28
:1051300013F0140EE80403E3E5CFEDFFFBD716D818
:105140001100DACFE4FFE2CFDAFFE9CFE4FFEACFE4
:10515000E4FFF6CFE4FFF7CFE4FFF5CFE4FFF3CFB2
:10516000E4FFF4CFE4FFFACFE4FF1200E5CFFAFF4B
:10517000E5CFF4FFE5CFF3FFE5CFF5FFE5CFF7FF90
:10518000E5CFF6FFE5CFEAFFE5CFE9FFE5CFDAFFB0
:10519000120027EC26F0F29429EC26F07CEF26F0A2
:1051A00043EC26F09E9040EC26F08AEF26F07AEC55
:0C51B00026F0A19272EC26F0A6EF26F08B
:0451BC00006A0EAEC9
:1051C000E7EF28F00D6C0E1EE86A0E22001E09AEF5
:1051D000EFEF28F0086C091EE86A0922001E26EC91
:1051E0002AF009BEFFEF28F000AE000C086C091E83
:1051F000E86A0922046C051EE86A0522000C00BE5C
:10520000F6EF28F00188FF0C006A0EAE0FEF29F0D0
:105210000C6C0D1E0E1EE86A0D220E22001E09AE39
:1052200019EF29F0076C081E091EE86A08220922F6
:10523000001E09EC2AF009BE2CEF29F000AE000C8C
:10524000076C081E091EE86A08220922036C041E66
:10525000051E04220522000C00BE20EF29F0018863
:10526000FF0C09C013F008C012F008500D02F4CF73
:1052700007F0F3CF06F009500E02F4CF09F0F3CF98
:1052800008F00D02F3500726F4500822E86A0922BC
:1052900012500E02F3500726F4500822E86A092241
:1052A0000EAE57EF29F01250085E1350095A13AE94
:0C52B000000C0D50085E0E50095A000C56
:0452BC001E0EF66E5E
:1052C000000EF76E000EF86E02010900F550056F32
:1052D0000900F550066F03E1056701D03DD00900D4
:1052E000F550006F0900F550016F0900F550026F8D
:1052F00009000900F550E96E0900F550EA6E090051
:1053000009000900F550036F0900F550046F09000A
:105310000900F6CF07F2F7CF08F2F8CF09F200C282
:10532000F6FF01C2F7FF02C2F8FF0201035302E1D8
:10533000045307E00900F550EE6E0307F8E2040796
:10534000F9D707C2F6FF08C2F7FF09C2F8FF02014A
:0A5350000507000E065BBFD7120030
:06535A0006500B02F3CF28
:1053600002F0F4CF03F00C02F3500326000EF420F9
:10537000046E06500D02F3500426000EF420056E54
:1053800006500E02F350052607500B02F350032679
:10539000F4500422000E052207500C02F35004269C
:1053A000F450052207500D02F350052608500B0259
:1053B000F3500426F450052208500C02F350052641
:0A53C00009500B02F35005261200FD
:0653CA00056A046A036A93
:1053D000026A200EE76ED890063607360836093680
:1053E00002360336043605360B50025C0C50035867
:1053F0000D5004580E50055809E30B50025E0C5036
:10540000035A0D50045A0E50055A062AE72EE4D7C7
:02541000120088
:0E541200056A046A036A180EE76ED890073622
:10542000083609360336043605360C50035C0D5039
:1054300004580E50055807E30C50035E0D50045AF3
:0C5440000E50055A072AE72EEAD712008A
:04544C00056A046A7F
:10545000100EE76ED89008360936043605360D5022
:10546000045C0E50055805E30D50045E0E50055ABD
:08547000082AE72EF0D7120014
:08547800800EF36E00EE00F05F
:105480000F0E01D81200EA6002D0EE6AFCD7F3508A
:08549000E9601200EE6AFCD78E
:085498001EEE00F02EEE00F004
:1054A000F86A019C5EEC29F007EC00F048EC16F07D
:0454B000FBD7120014
:0C54B400056A080EE76ED8900936053630
:1054C0000E50055C02E3056E092AE72EF7D712009D
:1054D00000000000000000000000000000000000CC
:1054E00000000000000000000100010001000100B8
:1054F0000100000000000000000000320032000740
:1055000000FFFFFFFF00000000000000000000009F
:10551000000001000000000000000000000000008A
:10552000000000010100010000000000000000393F
:105530000100731B940332185412741A9510B61A92
:10554000D718F91219193B135B197D1B21003D1A5D
:105550006110811AA312C31AE418061326194813FE
:1055600068198A1B2B004A1A4B106C188E12AE1A3F
:10557000CF18F112111B3211531B7419960B3518E9
:10558000571277189910BA1ADB18FD121D1B41111A
:10559000611B82192402421864128418A610C71ACB
:0A55A000C818EA120A192C134C1B5C
:0655AA00000000000000FB
:0C55B000000000000000000000000100EE
:0455BC0000000000EB
:1055C00000000000101010101010101018181818FB
:1055D000181818181C1C1C1C1C1C1C1C1E1E1E1E13
:1055E0001E1E1E1E1F1F1F1F1F1F1F1F000000004B
:1055F00000000000000000000000000000000000AB
:10560000000000000000000000000000000000009A
:0D561000000000000000000000000000008D
:03561D000000008A
:10562000D0002222220725091000010000000000FE
:08563000000000000000000072
:0856380000000000000000006A
:10564000000000000000000000000000000000005A
:10565000000000000000000010204080010204084B
:020000040030CA
:0100010002FC
:0100020003FA
:010003001EDE
:010005008179
:010006008178
:010008000FE8
:01000900C036
:01000A000FE6
:01000B00E014
:01000C000FE4
:01000D0040B2
:00000001FF
