:020000040000FA
:060000006BEF2AF0120074
:020006001200E6
:060008008EEF28F012004B
:02000E000000F0
:0100100000EF
:0400110000000000EB
:0600180055EF28F0120074
:02001E000900D7
:10002000F05600004102000028000000D5560000F4
:10003000E10000001B00000011000000FA010000B8
:100040000400000074560000800000006100000001
:10005000625600006C0F0000120000001E560000E7
:10006000000F000044000000FE550000690200007F
:10007000200000000E0000008902000003000000C4
:0C0080000E55000000010000F000000020
:04008C000F0100510F
:1000900002E1010E011901E1D7D20F0E001901E1B1
:1000A000015101E18DD20E0E001901E1015101E172
:1000B00077D20D0E001901E1015101E13DD20B0E85
:1000C000001901E1015101E135D20A0E001901E1E7
:1000D000015101E104D20C0E001901E1015101E1CD
:1000E000E1D1090E001901E1015101E1D9D1080E58
:1000F000001901E1015101E1AAD1070E001901E146
:10010000015101E1A1D1060E001901E1015101E106
:1001100070D1120E001901E1015101E168D1050E03
:10012000001901E1015101E10BD1040E001901E1B7
:10013000015101E1D8D0110E001901E1015101E195
:1001400091D0100E001901E1015149E0030E001990
:1001500001E1015139E0020E001901E1015115E000
:10016000010E001901E1015101E0120075EC17F0D8
:10017000DBEC19F022EC15F001E381D2020E69EC00
:1001800014F0010E026F036B1200020EE66E460EB3
:1001900014EC15F0F20EE66E450E0EEC16F004E2CD
:1001A000DCEC13F0EBEC14F022EC15F004E2030E9F
:1001B0000F01006F016B1FEC15F001E360D20F011E
:1001C000006B010E016F12006CEC18F0ACEC18F033
:1001D0000F01395101E153D2396B020E4DD2020E9B
:1001E00002190BE1035109E1E50EE66E450E14EC30
:1001F00015F0D50EE66E450E08D0D50EE66E450E0E
:1002000014EC15F0C90EE66E450E0EEC16F002E287
:10021000E5EC15F022EC15F01DE2040EEBEC13F00A
:100220000F01596F050EEBEC13F00F015A6F060E1C
:10023000EBEC13F00F015B6FE66E5ACFE6FF59CF80
:10024000E6FFE6EC11F0E552E552E552110E0F0122
:10025000006F016B1FEC15F001E311D2DCEC13F021
:10026000020E09D22BEC15F002E0EBEC14F08CEC52
:1002700014F00A0EE8EC15F080EC12F0E552E552AD
:100280008CEC14F00C0EE8EC15F0DBEC12F0E552FF
:10029000E552C40EE66E450EB6EC13F0E66A47EC86
:1002A00013F0BE0EE66E450E01EC15F056CF14F0BD
:1002B000F0EC13F056CFE6FF54EC13F0050E25ECEE
:1002C00015F0B70EE66E450EE66E080E11EC16F050
:1002D00057CF14F0F0EC13F057CFE6FF54EC13F0C7
:1002E0000E0E25EF15F0100E02190BE1035109E176
:1002F000F20EE66E450E14EC15F0AB0EE66E450EF2
:1003000008D0AB0EE66E450E14EC15F09E0EE66EB0
:10031000450E0EEC16F002E2EEEC15F01FEC15F0B7
:1003200004E2DCEC13F0EBEC14F022EC15F001E34A
:10033000A6D1050E69EC14F0BFD90F013C6B120079
:1003400044DB0F013C5101E09BD9040EE66E42EC08
:1003500025F0E552000906E00F013C6B3D6B3E6B5A
:100360003F6B12D04AEC15F008E00F013C5105E15B
:10037000010E3C6F47EC14F007D04AEC15F004E096
:100380000F013C0501E13C6B5DEC15F016E0050E3C
:100390000F01405D12E21EEC14F03DCFEFFF1EECAA
:1003A00014F0EE523ECFEFFF1EEC14F0020EE926E1
:1003B000000EEA223FCFEFFF402B050EE66E42EC27
:1003C00025F0E552000907E0120E69EC14F03C6BD1
:1003D000EDEC14F0416F2BEC15F001E150D10F0161
:1003E0003C6B3D6B3E6B3F6B396B040E45D18BEF25
:1003F00003F0040E02190BE1035109E1C90EE66E88
:10040000450E14EC15F0910EE66E450E08D0910ED7
:10041000E66E450E14EC15F0840EE66E450E0EECFD
:1004200016F004E2DCEC13F09EEC14F01FEC15F077
:1004300002E2E5EC15F022EC15F001E320D1070E05
:1004400069EC14F0096B1200FCDAA7EF05F0060E58
:1004500002190BE1035109E19E0EE66E450E14EC04
:1004600015F0770EE66E450E08D0770EE66E450E57
:1004700014EC15F06A0EE66E450E0EEC16F002E274
:10048000F1EC15F01FEC15F002E2EEEC15F022ECA9
:1004900015F001E3F4D00F01046B056B090EECD0ED
:1004A00085EF0AF05B0EE66E450E14EC15F04C0E6F
:1004B000E66E450E01EC15F03AEC16F004E2010E82
:1004C0000F01006F016B0F012B5101E1D8D02705FF
:1004D00001E0D5D0010E006F016B2B6B1200080EEE
:1004E00002190BE1035109E1840EE66E450E14EC8E
:1004F00015F03F0EE66E450E08D03F0EE66E450E37
:1005000014EC15F0360EE66E450E0EEC16F002E217
:10051000F4EC15F01FEC15F004E2DCEC13F09EECAB
:1005200014F022EC15F001E3AAD00B0E69EC14F0E4
:1005300061EF0DF0D1EF0BF00A0E02190BE1035140
:1005400009E16A0EE66E450E14EC15F02D0EE66E0E
:10055000450E08D02D0EE66E450E14EC15F0270E54
:10056000E66E450E0EEC16F006E2DCEC13F00F0121
:10057000006B010E016F1FEC15F002E2F1EC15F0BB
:1005800022EC15F001E37BD00E0E69EC14F01F0E87
:10059000E66E450E71EC13F00F01010E236F120091
:1005A0000F0EE66E450E14EC15F00F01296B45ECAD
:1005B00015F01F6F22CF20FF3AEC16F060E242D018
:1005C000050EE66E450E14EC15F0FB0EE66E440EBD
:1005D00001EC15F024CF14F0F0EC13F024CFE6FF7B
:1005E00054EC13F0AFEC14F077EC13F025CF14F0CB
:1005F000F0EC13F025CFE6FF54EC13F0060E25ECDB
:1006000015F0E1EC13F002E11550221908E03B0E61
:100610001F1908E1205106E12151221103E1F2ECFA
:1006200014F0292B050E295D0AE12A0508E11F0EA9
:10063000E66E450E71EC13F00F01296B2A6B3AEC54
:1006400016F01DE20D0E17D0360EE66E450E27ECA5
:1006500016F002E2F4EC15F01CEC15F006E2DCEC0E
:1006600013F0020E0F01006F016B22EC15F007E290
:10067000DCEC13F0010E0F01006F016B1200120091
:10068000E1EC13F002E11550221908E03B0E1F19AE
:1006900008E1205106E12151221103E13F2BF2EC48
:1006A00014F03C0E3F5D02E33F6B3E2B3C0E3E5D83
:1006B00002E33E6B3D2B120004EC14F0020EE12627
:1006C000DE6ADD6A0F01406BDECF14F0DDCF15F07E
:1006D000D890155004E6060E145C000E155813E26F
:1006E000C2EC13F0EF6AC2EC13F0EE52EF6AC2EC08
:1006F00013F0020EE926000EEA22EF6ADF2A010E4D
:10070000E3E3DB2AE1D7020EE15C02E2E16AE552B3
:10071000E16E09EF14F00F016B513E0A01E1E5D0E3
:10072000030A01E1A8D0010A6CE0070A31E0010ADE
:1007300001E01200F00EE66E440E14EC15F0EB0E24
:10074000E66E440E01EC15F007EC15F053EC15F0D5
:100750007DEC15F01CEC15F006E20F013B0E6B6F03
:100760000F013A0E416F1FEC15F006E20F013E0E2D
:100770006B6F0F013A0E416F4DEC15F003E150EC39
:1007800015F001E099DF2BEC15F001E1D7D0D3D0C3
:100790003A0E0F01415D0DE1E40EE66E440E14ECDD
:1007A00015F0DF0EE66E440E01EC15F053EC15F07B
:1007B0000CD0DF0EE66E440E14EC15F0DA0EE66E89
:1007C000440E01EC15F0D2EC15F018EC16F006E230
:1007D0000F013C0E6B6F0F013B0E416F1FEC15F0CC
:1007E00004E2EDEC14F03B0E416F4DEC15F003E12B
:1007F00050EC15F001E060DF2BEC15F001E19ED02C
:100800009AD03B0E0F01415D0DE1EB0EE66E440EFA
:1008100014EC15F0D50EE66E440E01EC15F0D2EC9A
:1008200015F00CD0D50EE66E440E14EC15F0D00E7B
:10083000E66E440E01EC15F0D7EC15F018EC16F04E
:1008400006E20F013D0E6B6F0F013C0E416F1FEC76
:1008500015F006E20F013B0E6B6F0F013C0E416F6E
:100860004DEC15F003E150EC15F001E025DF2BEC29
:1008700015F064E060D03C0E0F01415D0DE1DA0E31
:10088000E66E440E14EC15F0CB0EE66E440E01EC51
:1008900015F0D7EC15F00CD0CB0EE66E440E14EC30
:1008A00015F0C60EE66E440E01EC15F0DCEC15F00A
:1008B00018EC16F006E20F013E0E6B6F0F013D0EB5
:1008C000416F1FEC15F006E20F013C0E6B6F0F013C
:1008D0003D0E416F4DEC15F003E150EC15F001E0D9
:1008E000EBDE2BEC15F02AE026D0D00EE66E440E9F
:1008F00014EC15F0C10EE66E440E01EC15F0DCECC4
:1009000015F018EC16F004E2EDEC14F03E0E416F19
:100910001FEC15F006E20F013D0E6B6F0F013E0E4E
:10092000416F4DEC15F003E150EC15F001E0C4DE31
:100930002BEC15F003E0050E69EF14F0120004EC47
:1009400014F00A0EF36EFB0EA0EC14F00AE2A5EC14
:1009500014F0040E29EC14F0FB0E17EC15F0050E44
:1009600004D0FB0E17EC15F0040E69EC15F00A0E1E
:10097000F36EFC0EA0EC14F00AE2A5EC14F0070EE6
:1009800029EC14F0FC0E17EC15F0080E04D0FC0E48
:1009900017EC15F0070E69EC15F00A0EF36EFD0E5C
:1009A000A0EC14F00AE2A5EC14F00A0E29EC14F005
:1009B000FD0E17EC15F00B0E04D0FD0E17EC15F024
:1009C0000A0E69EC15F009EF14F0B10EE66E440E54
:1009D00036EC16F00A0E0F013D5D08E22EEC15F024
:1009E000BDEC15F085EC15F0050E03D085EC15F087
:1009F000040E2EEC16F00F013E5D08E22EEC15F011
:100A0000C0EC15F08CEC15F0080E03D08CEC15F052
:100A1000070E25EC15F08EEC13F0090E28EC15F0FE
:100A20000F013F5D09E22EEC15F00A0E11EC16F0F5
:100A300093EC15F00B0E03D093EC15F00A0E25EF96
:100A400015F09B0EE66E440E36EC16F00F011E51AB
:100A500004E0960EE66E440E03D0920EE66E440E4F
:100A6000E66E0C0E28EC15F00F0118AF02D0D890EE
:100A700003D0175D000E185914E2AC0EE66E440E5A
:100A8000B6EC13F0E66E47EC13F0BAEC14F015AECA
:100A900002D0166817681CEC16F0020EE66E010E06
:100AA0000AD0BAEC14F015AE02D0166817681CEC28
:100AB00016F0010EE66EE66E77EC13F08EEC13F096
:100AC000030E28EC15F00F011AAF02D0D89003D016
:100AD000195D000E1A590EE22EEC15F0BDEC15F062
:100AE000C1EC14F015AE02D0166817681CEC16F0B5
:100AF000050E09D0C1EC14F015AE02D016681768C7
:100B00001CEC16F0040E2EEC16F00F011CAF02D0F8
:100B1000D89003D01B5D000E1C590EE22EEC15F090
:100B2000C0EC15F0C8EC14F015AE02D016681768CA
:100B30001CEC16F0080E09D0C8EC14F015AE02D06B
:100B4000166817681CEC16F0070E25EF15F00F015C
:100B50000951040A01E154D1070A01E1EFD0010A69
:100B600001E1A0D0030A52E0010A01E0120097EC73
:100B700013F007E281EC15F0B6EC13F0E66E47ECEB
:100B800013F01FEC15F00DE20F01172B000E1823C8
:100B9000183507E217511708000E185502E2176BB7
:100BA000186B1CEC15F00AE20F011707000E185B1A
:100BB000800E181503E0170E176F186B040E2FEC3C
:100BC00014F00EE2050E0F011727000E182318353A
:100BD00007E217511708000E185502E2176B186B41
:100BE000050E2FEC14F00BE2050E0F01175F000E3F
:100BF000185B800E181503E0170E176F186B22ECA8
:100C000015F001E318D10F01010EF8D097EC13F0A5
:100C100004E233EC16F0BDEC15F01FEC15F00DE21C
:100C20000F01192B000E1A231A3507E219513B0840
:100C3000000E1A5502E2196B1A6B1CEC15F00AE251
:100C40000F011907000E1A5B800E1A1503E03B0E08
:100C5000196F1A6B040E2FEC14F00EE2140E0F0134
:100C60001927000E1A231A3507E219513B08000E06
:100C70001A5502E2196B1A6B050E2FEC14F00BE2F9
:100C8000140E0F01195F000E1A5B800E1A1503E097
:100C90003B0E196F1A6B22EC15F001E3CCD00F015B
:100CA000020EACD097EC13F004E233EC16F0C0EC7B
:100CB00015F01FEC15F00DE20F011B2B000E1C238D
:100CC0001C3507E21B513B08000E1C5502E21B6B52
:100CD0001C6B1CEC15F00AE20F011B07000E1C5BDD
:100CE000800E1C1503E03B0E1B6F1C6B040E2FECDB
:100CF00014F00EE2140E0F011B27000E1C231C35EE
:100D000007E21B513B08000E1C5502E21B6B1C6BDB
:100D1000050E2FEC14F00BE2140E0F011B5F000EFA
:100D20001C5B800E1C1503E03B0E1B6F1C6B22EC42
:100D300015F001E380D00F01030E60D01FEC15F019
:100D400005E20F01010E1E6F47EC14F01CEC15F0CC
:100D500002E20F011E6B0F011E5136E0E1EC13F0B1
:100D600002E11550221908E03B0E1F192DE1205118
:100D70002BE12151221128E1F2EC14F01C3509E29B
:100D80001B510008000E1C5504E21B07000E1C5BE3
:100D90001BD01B511C1118E119511A1107E03B0E11
:100DA0001B6F1C6B1907000E1A5B0ED019511A111C
:100DB0000BE11751181108E01707000E185B3B0EE6
:100DC000196F1A6B1B6F1C6B1751181107E1195122
:100DD0001A1104E11B511C1101E11E6B1E5108E1A7
:100DE00097EC13F005E2AAEC14F00C0E11EC16F0DF
:100DF00022EC15F020E20F011E6B040E096F1200A9
:100E000097EC13F002E2E1EC15F04AEC15F003E187
:100E10005DEC15F002E00F010CD022EC15F00BE2B6
:100E2000060E69EC14F0176B186B196B1A6B1B6BC1
:100E30001C6B096B1200120004EC14F0E652020164
:100E40008A51EA6A010FE96E020EEA22EFCFDFFF54
:100E50008A293F0B8A6FDF50E55209EF14F074EFD7
:100E600014F0010E0F01421901E1435101E012009B
:100E700002018B51000804E204D802018B07120022
:100E8000120004EC14F0E652D7DFDF6EDFCFE6FF8E
:100E900050EC23F0E552630E0F01351901E1365194
:100EA00001E1E4D0690E351901E1365101E1C0D00C
:100EB000680E351901E1365101E1ABD0670E3519E5
:100EC00001E1365101E190D0660E351901E136514C
:100ED00001E17FD0650E351901E1365165E0640E00
:100EE000351901E1365155E00E0E351901E1365143
:100EF00044E00C0E351901E1365136E00B0E351980
:100F000001E1365128E00A0E351901E136511AE0A7
:100F1000020E351901E136510CE0010E351901E0E0
:100F2000D0D0365101E0CDD0210EDF5C01E0C9D038
:100F30002CD0540EDF5C02E10A0EC1D0210EDF5C22
:100F400026E123D0490EDF5C02E10B0EB8D0210E62
:100F5000DF5C1DE11AD04D0EDF5C02E10C0EAFD05C
:100F6000210EDF5C14E111D0450EDF5C02E10E0EB4
:100F7000A6D0210EDF5C0BE108D03A0EDF5C02E167
:100F8000640E9DD0210EDF5C02E1020E98D0010EAE
:100F900096D0AEEC13F001E1131D46E035EC14F0F1
:100FA00006C05EFF650E8AD0AEEC13F001E1131DA2
:100FB0003BE012510F015E27170EE66EE66A5E51A6
:100FC00005EC16F002E0660E79D0510EE66E440E86
:100FD00043D0AEEC13F001E1131D26E035EC14F024
:100FE00006C05FFF670E6AD0AEEC13F001E1131D7F
:100FF0001BE012510F015F273B0EE66EE66A5F5160
:1010000005EC16F002E0680E59D0160EE66E440E9E
:1010100023D0AEEC13F001E1131D06E035EC14F023
:1010200006C060FF690E4AD0740EE66E440E43D0CF
:10103000AEEC13F001E1131D15E012510F01602712
:101040003B0EE66EE66A605105EC16F002E0630EB8
:1010500035D0F10EE66E430E71EC13F03B0EE66EEA
:10106000440E29D0D70EE66E430E25D0230EDF5C4A
:101070001DE1010E356F366B5ECFE6FF020EA8EC68
:1010800013F05FCFE6FF010EA8EC13F060CFE6FF90
:10109000E66AC2EC27F0E552E5520F012C5111E04F
:1010A000B70EE66E430E71EC13F00BD09F0EE66E9A
:1010B000430E60EC15F071EC13F0010E0F01356F6B
:1010C000366B630E0F01371901E1385101E171D11F
:1010D000740E371901E1385101E13FD1760E37190D
:1010E00001E1385101E1D1D0750E371901E13851D4
:1010F00001E1BDD0730E371901E1385101E191D002
:10110000720E371901E1385101E17AD06F0E3719AB
:1011100001E1385167E06E0E371901E1385155E0B1
:101120006D0E371901E1385144E06C0E371901E1B9
:10113000385136E06B0E371901E1385128E06A0E5C
:10114000371901E138511AE0020E371901E138511F
:101150000CE0010E371901E05DD1385101E05AD1A0
:10116000210EDF5C01E056D12CD0440EDF5C02E1A1
:101170006A0E1CD1210EDF5C26E123D0410EDF5C1C
:1011800002E16B0E13D1210EDF5C1DE11AD0540E6B
:10119000DF5C02E16C0E0AD1210EDF5C14E111D09C
:1011A000450EDF5C02E16D0E01D1210EDF5C0BE12B
:1011B00008D03A0EDF5C02E16E0EF8D0210EDF5C43
:1011C00002E1020EF3D0010EF1D086EC13F001E142
:1011D000151D23E03EEC14F006C063FF07C064FF5A
:1011E0006F0EE3D086EC13F001E1151D16E01451EB
:1011F0000F0163270F0115510F016423720ED5D023
:1012000086EC13F001E1151D08E03EEC14F006C079
:1012100065FF07C066FF730EC8D0740EE66E440EFD
:10122000C1D086EC13F001E1151D01E1B8D01451D5
:101230000F0165270F0115510F0166230C0EE66E95
:10124000E66A65CFE6FF66CFE6FFBAEC13F006E08C
:101250000F016551661102E0750EA7D0450EE66ECE
:10126000430E71EC13F03B0EE66E440E9BD086EC01
:1012700013F001E1151D01E192D03EEC14F006C01F
:1012800067FF07C068FF760E90D086EC13F001E18F
:10129000151D01E184D014510F0167270F0115516D
:1012A0000F0168236751681106E12F0EE66E430EA9
:1012B00071EC13F0AFD0D4EC13F0F350F4100CE158
:1012C0000F01683509E267511E08000E685504E2F7
:1012D0000D0EE66E430E5DD0D4EC13F0010EF31844
:1012E0000EE115500CE10F01683509E267511F0846
:1012F000000E685504E2D50EE66E420E4AD0D4ECDC
:1013000013F0020EF31811E115500FE182EC14F006
:101310000CE00F01683509E267511D08000E6855A1
:1013200004E2B30EE66E420E34D0D4EC13F0020E9B
:10133000F31811E115500FE182EC14F00CE10F01EC
:10134000683509E267511C08000E685504E2910EE9
:10135000E66E420E1ED0740E28D086EC13F001E12A
:10136000151D1DE014CF69FF15CF6AFF070EE66E4D
:10137000E66A14CFE6FF15CFE6FFBAEC13F006E0FD
:101380000F0169516A1102E0630E0FD06F0EE66E15
:10139000420E71EC13F0F70EE66E420E03D0D70E3C
:1013A000E66E430E71EC13F0010E0F01376F386BD0
:1013B00031D0230EDF5C23E1010E376F386B63CF32
:1013C000E6FF060EA8EC13F065CFE6FF050EA8ECCD
:1013D00013F067CFE6FF040EA8EC13F069CFE6FF29
:1013E000030EA8EC13F00F012C5105E04F0EE66E32
:1013F000420E71EC13F00F01010E2B6F0BD0300E6B
:10140000E66E420E60EC15F071EC13F0010E0F0168
:10141000356F366B0F012351630A63E0AD0A52E06A
:10142000030A47E0010A3EE0070A33E0010A27E029
:10143000030A1CE0010A11E0CA0A06E0030A62E19D
:10144000210EDF5C5FE123D0440EDF5C02E1C80EB9
:1014500058D0210EDF5C54E11AD0480EDF5C02E167
:10146000C90E4FD0210EDF5C4BE111D0540EDF5C72
:1014700002E1CA0E46D0210EDF5C42E108D03A0EEE
:10148000DF5C02E1CB0E3DD0210EDF5C39E1020EC4
:1014900038D0F4EC13F01DE00A0E2603F3CF24FF3E
:1014A000CC0E2FD0F4EC13F014E026512427CD0EEF
:1014B00028D0F4EC13F00DE00A0E2603F3CF25FF3D
:1014C000CE0E1FD0F4EC13F004E026512527630E56
:1014D00018D0010E236F210EE66E420E71EC13F050
:1014E00011D0230EDF5C06E10F0E006F016B010EC1
:1014F0002A6F07D0100EE66E420E71EC13F00F014A
:10150000010E236FE55209EF14F00F01045102E1BF
:10151000010E051901E195D0040E041901E10551F0
:1015200001E18DD0030E041901E1055101E17AD0EA
:10153000010E041901E1055128E0045101E10551B2
:1015400001E01200060EE66E420E14EC15F0FA0EE3
:10155000E66E410E20EC16F006E2040E0F01046F59
:10156000056B276B286B1CEC15F006E2010E0F01D2
:10157000046F056B076B086B1FEC15F001E379D066
:101580000F01046B010E056F12000751081109E0ED
:10159000EE0EE66E410E14EC15F0E80EE66E410E0E
:1015A00008D0DE0EE66E410E14EC15F0EE0EE66E7F
:1015B000410E0EEC16F004E20F01046B010E056FF4
:1015C0001FEC15F003E20F01046B056B22EC15F024
:1015D00050E2030E0F01046F056B010E166F3EEC17
:1015E00016F00F012D6F010EEBEC13F00F012E6FB3
:1015F000020EEBEC13F00F012F6F030EEBEC13F068
:101600000F01306F040EEBEC13F00F01316F050E7C
:10161000EBEC13F00F01326F060EEBEC13F00F0141
:10162000336F1200D4DBEAEC0FF00F013A5121E0E6
:10163000046B056B3A6B010E006F016B12003AEF01
:101640000BF0FA0EE66E410E43EC16F002E29EEC51
:1016500014F01CEC15F003E20F01046B056B1FEC9A
:1016600015F007E2010E0F01046F056B076F086BA1
:10167000120012000F012751020A01E179D0030A7A
:1016800043E0010A01E01200C70EE66E410E14ECC1
:1016900015F0BD0EE66E410E20EC16F026E2950E1A
:1016A000E66E410E71EC13F0640EE66E410E71ECC5
:1016B00013F0540EE66E410E71EC13F0320EE66E2E
:1016C000410E71EC13F0010EE66E410E71EC13F059
:1016D000F00EE66E400E71EC13F074EC14F00F0196
:1016E000010E2C6F0C0E006F016B1FEC15F004E265
:1016F0000F01020E276F286B1CEC15F051E20F0151
:10170000010E276F286B1200285109E1DF0EE66EEB
:10171000400E14EC15F0D50EE66E400E08D0D50E36
:10172000E66E400E14EC15F0E80EE66E410E20EC6D
:1017300016F00FE2CC0EE66E400E71EC13F00F01C6
:101740002C6B74EC14F00C0E69EC14F0070E116F96
:101750002B6B1FEC15F004E20F01276B010E286FB5
:101760001CEC15F01DE20F01020E276F010E16D0C2
:10177000BD0EE66E410E43EC16F002E29EEC14F054
:101780001FEC15F005E20F01010E276F020E286F06
:101790001CEC15F005E20F01276B020E286F1200FA
:1017A00012000F010B5102E1010E0C1901E115D1DC
:1017B000370E0B1901E10C5101E1E0D0360E0B1987
:1017C00001E10C5101E1B0D0350E0B1901E10C51D2
:1017D00001E17ED0340E0B1901E10C514FE0330EC4
:1017E0000B1901E10C5120E0320E0B1901E10C51F3
:1017F00001E01200BB0EE66E400E14EC15F0AA0ECE
:10180000E66E400E0EEC16F006E2320E6AEC14F0B4
:10181000330E0B6F0C6B1FEC15F004E20F010B6B1A
:10182000010E0C6F090ED3D0320E0D190BE10E51C3
:1018300009E1990EE66E400E14EC15F0880EE66E86
:10184000400E08D0880EE66E400E14EC15F0770EB0
:10185000E66E400E0EEC16F006E2330E6AEC14F063
:10186000340E0B6F0C6B1FEC15F006E2330E6AECB6
:1018700014F0320E0B6F0C6B080EA9D0330E0D193D
:101880000BE10E5109E1AA0EE66E400E14EC15F0C4
:10189000660EE66E400E08D0660EE66E400E14EC44
:1018A00015F0550EE66E400E0EEC16F006E2340E04
:1018B0006AEC14F0350E0B6F0C6B1FEC15F006E2A2
:1018C000340E6AEC14F0330E0B6F0C6B010E7FD0EC
:1018D000340E0D190BE10E5109E1770EE66E400E44
:1018E00014EC15F0440EE66E400E08D0440EE66E81
:1018F000400E14EC15F0330EE66E400E0EEC16F0B2
:1019000006E2350E6AEC14F0360E0B6F0C6B1FEC12
:1019100015F006E2350E6AEC14F0340E0B6F0C6B0A
:10192000FB0EE66EE66855D0350E0D190BE10E5133
:1019300009E1550EE66E400E14EC15F0220EE66E2F
:10194000400E08D0220EE66E400E14EC15F0110E7B
:10195000E66E400E0EEC16F006E2360E6AEC14F05F
:10196000370E0B6F0C6B1FEC15F006E2360E6AECAF
:1019700014F0350E0B6F0C6B000E29D0360E0D19BE
:101980000BE10E5109E1330EE66E400E14EC15F03A
:10199000000EE66E400E08D0000EE66E400E14EC0F
:1019A00015F0270EE66E450E0EEC16F006E2370E29
:1019B0006AEC14F00B6B010E0C6F1FEC15F006E2D5
:1019C000370E6AEC14F0360E0B6F0C6B070EE66EDA
:1019D000E66A19D8E552E5521200110EE66E400E85
:1019E00027EC16F003E2370ECFEC14F01CEC15F0E8
:1019F00003E2320ECFEC14F022EC15F003E20A0EF3
:101A000069EF14F0120004EC14F022EC15F050E22F
:101A10000F011151146E156AFD0EDB50141803E10D
:101A2000FE0EDB50151844E01151146E156A7BEC64
:101A300014F01450085C0F6F15500958106FFD0E0C
:101A4000DBCF11FF020EEBEC13F00F015C6F5D6B4F
:101A5000E8500F010F250F015C6F5D510F01102140
:101A60000F015D6F800E5D1508E0180E5C255C6F40
:101A7000000E5D215D6FE66A0DD05D350DE25C51B3
:101A80001708000E5D5508E2180E5C5F000E5D5BE6
:101A9000010EE66ED5D8E5525CCFE6FF020EA8EC4B
:101AA00013F0010E69EC14F0380E0B6F0C6B07D0BD
:101AB00022EC15F004E2010E0F01006F016B09EF3B
:101AC00014F00F011151070A15E0070A11E0FB0A93
:101AD0000DE0FA0A09E0090A05E0010A01E0120036
:101AE000320E09D0330E07D0340E05D0350E03D098
:101AF000360E01D0370E0B6F0C6B120004EC14F095
:101B0000300EF36EFE0EA0EC14F00CE3FE0EDB5074
:101B1000390808E3FE0EDB50D00F156AF36E15C0CE
:101B2000F4FF02D0F368F46809EF14F004EC14F049
:101B3000D6EC14F0FB0EDBCF16F0FC0EDBCF17F06B
:101B400017501518E8AE02D0153404D01450165CA6
:101B50001550175802E2F36A02D0010EF36EF46AD0
:101B600009EF14F004EC14F0E150FD0FE96EFF0EE4
:101B7000DA20EA6E020EEE1804E1ED5002E1020EE8
:101B80001FD062EC14F0040EEE1801E1ED5015E0E8
:101B900062EC14F0060EEE1801E1ED500EE062EC7E
:101BA00014F0090EEE1801E1ED5007E062EC14F0BC
:101BB0000B0EEE1804E1ED5002E1F36A02D0010EC3
:101BC000F36EF46A09EF14F004EC14F0D6EC14F0A0
:101BD000040E0DEC14F00450051016E1FD0EDBCFE1
:101BE00016F0FE0EDBCF17F0640E0D6E0E6A16C0F7
:101BF00008F017C009F0FDEC28F004C016F005C08D
:101C000017F00450051017E1FD0EDBCF18F0FE0EA3
:101C1000DBCF19F0900E0D6E010E0E6E18C008F09D
:101C200019C009F0FDEC28F004C018F005C019F047
:101C30000450051002E1010E01D0000E09EF14F06E
:101C400004EC14F0040EE126EBEC13F0DF6E030E4F
:101C5000EBEC13F0E76E010EE7CFDBFF050EEBECCC
:101C600013F0E76E020EE7CFDBFF060EEBEC13F08E
:101C7000E76E030EE7CFDBFFFE0EDB503FE1DF0632
:101C8000010EDB06F36EDBCFF4FFE850F45C03E2F9
:101C9000DE52070EDD6E010EDF5C01E377D0020E2F
:101CA000DB0408E11F0EDF6E0C0EF7EC14F0030EE0
:101CB000DB066CD07EEC13F0F350F41004E1020E5E
:101CC000DB061F0E62D009EC16F00BE1155009E19E
:101CD000020EDB50030805E0010EF7EC14F01E0EB7
:101CE00054D009EC16F052E1155050E1030EDB50D0
:101CF000030B02E11D0E49D01C0E47D0DF2A010E56
:101D0000DB2ADB50070803E2DE52010EDD6E020E15
:101D1000DB500C080BE1DF501F0808E2010EF7EC66
:101D200014F0010EDF6E030EDB2A30D07EEC13F0D0
:101D3000F350F41003E1DF501E0824E309EC16F021
:101D400005E1155003E1DF501F081CE37EEC13F0A2
:101D5000020EF31809E1155007E1030EDB50030BE7
:101D600003E1DF501D080EE37EEC13F0020EF318C2
:101D70000DE115500BE1030EDB50030B07E0DF50C4
:101D80001C0804E2020EDB2A010EDF6EDFCFE6FF45
:101D9000040EA8EC13F0010EDBCFE6FF030EA8EC57
:101DA00013F0020EDBCFE6FF050EA8EC13F0030ED6
:101DB000DBCFE6FF060EA8EC13F0146E040EE15C18
:101DC00002E2E16AE552E16E145009EF14F00F01EE
:101DD0003B5101E0F5D03051070A24E0010A1EE032
:101DE000030A18E0010A12E0070A0CE0010A06E003
:101DF000030A1DE1FC0EE66E3F0E17D0F80EE66EEC
:101E00003F0E13D0F40EE66E3F0E0FD0F00EE66ECE
:101E10003F0E0BD0EC0EE66E3F0E07D0E80EE66EDE
:101E20003F0E03D0E40EE66E3F0E14EC15F00A0EE2
:101E30000F012F5D09E22EEC15F0040E14EC16F0E4
:101E40009AEC15F0050E03D09AEC15F0040EF7ECA1
:101E500015F0AFEC14F047EC13F00A0E0F012E5DF5
:101E600009E22EEC15F0070E14EC16F0A1EC15F0BB
:101E7000080E03D0A1EC15F0070EF7EC15F0090ED3
:101E800014EC16F00A0E0F012D5D08E22EEC15F091
:101E9000C3EC15F0A8EC15F00B0E03D0A8EC15F070
:101EA0000A0EE66EE66A77EC13F00F01160507E1FD
:101EB000E00EE66E3F0EE66E0D0E14EC16F00F010E
:101EC00032510C0A42E0070A3CE0010A36E0030AFC
:101ED00030E0010A2AE00F0A24E0010A1EE0030AAA
:101EE00018E0010A12E0070A0CE0010A06E0030A02
:101EF00031E1DC0EE66E3F0E2BD0D80EE66E3F0EC3
:101F000027D0D40EE66E3F0E23D0D00EE66E3F0EE5
:101F10001FD0CC0EE66E3F0E1BD0C80EE66E3F0EF5
:101F200017D0C40EE66E3F0E13D0C00EE66E3F0E05
:101F30000FD0BC0EE66E3F0E0BD0B80EE66E3F0E15
:101F400007D0B40EE66E3F0E03D0B00EE66E3F0E25
:101F5000FCEC15F0FCEC14F0050E28EC15F00F016C
:101F6000315D09E2FCEC14F0060E11EC16F0AFEC5A
:101F700015F0070E03D0AFEC15F0060E25EC15F0AA
:101F8000FCEC14F0080E11EC16F0140ECCDBE66A33
:101F9000090EB6EC13F06FEC15F00A0E0F01335D6D
:101FA0000AE2A5EC14F00B0EE1DB6FEC15F0B6ECD9
:101FB00015F00C0E03D0B6EC15F00B0E25EF15F056
:101FC0009D0EE66E3F0E14EC15F08C0EE66E3F0E85
:101FD00001EF15F00F010A517B0A01E1CDD1840A0E
:101FE00001E1B0D1F30A01E176D1070A01E133D171
:101FF000010A01E1EFD0030A01E1C3D0010A01E1C6
:1020000086D00F0A49E0010A0EE0060A01E012003C
:102010002BEC15F001E1D9D10F01340501E0D5D148
:10202000060E0A6F1200CCEC15F005E233EC16F048
:10203000040E14EC16F04AEC15F004E00F012F2901
:102040006EEC14F05DEC15F008E00F012F052F6F1A
:10205000E850170802E2170E2F6F4DEC15F005E05F
:10206000050E0F012F256EEC14F050EC15F009E071
:10207000050E0F012F5D2F6FE850170802E2170EB3
:102080002F6F2BEC15F003E00F01070E0A6FCFEC5A
:1020900015F001E19AD154D1CCEC15F005E233EC06
:1020A00016F0070E14EC16F04AEC15F005E00F01DF
:1020B0002E29C0DB05C02EFF5DEC15F008E00F01F6
:1020C0002E052E6FE8503B0802E23B0E2E6F4DECC2
:1020D00015F006E0140E0F012E25ACDB05C02EFF17
:1020E00050EC15F009E0140E0F012E5D2E6FE85034
:1020F0003B0802E23B0E2E6F2BEC15F003E00F01C4
:10210000080E0A6FCFEC15F001E15FD119D1CCECCC
:1021100015F004E233EC16F0C3EC15F04AEC15F0C0
:1021200005E00F012D2986DB05C02DFF5DEC15F0C4
:1021300008E00F012D052D6FE8503B0802E23B0E31
:102140002D6F4DEC15F006E0140E0F012D2572DBFE
:1021500005C02DFF50EC15F009E0140E0F012D5DA8
:102160002D6FE8503B0802E23B0E2D6F2BEC15F073
:1021700003E00F01090E0A6FCFEC15F001E125D144
:10218000DFD0CCEC15F005E2880EE66E3F0E14ECC5
:1021900015F04AEC15F008E00F013029306FE850D7
:1021A000070802E2010E306F5DEC15F008E00F0148
:1021B0003005306FE850070802E2070E306F2BEC55
:1021C00015F003E00F010A0E0A6FCFEC15F001E1E4
:1021D000FCD0B6D0CCEC15F005E233EC16F0060ED0
:1021E00011EC16F04AEC15F008E00F013129316FBF
:1021F000E8501F0802E2010E316F5DEC15F008E0B7
:102200000F013105316F010E315D02E21F0E316F9A
:102210004DEC15F009E00A0E0F013125316FE85041
:102220001F0802E2010E316F50EC15F009E00A0EB2
:102230000F01315D316F010E315D02E21F0E316F12
:102240002BEC15F003E00F010B0E0A6FCFEC15F02D
:1022500001E1BBD075D0CCEC15F005E2880EE66E3E
:102260003F0EFCEC15F04AEC15F008E00F013229A6
:10227000326FE8500C0802E2010E326F5DEC15F08F
:1022800008E00F013205326F010E325D02E20C0EE2
:10229000326F4DEC15F009E0030E0F013225326F5D
:1022A000E8500C0802E2010E326F50EC15F009E024
:1022B000030E0F01325D326F010E325D02E20C0E31
:1022C000326FC9DB03E00F010C0E0A6FCFEC15F083
:1022D00001E17BD035D0CCEC15F004E23BDB090EFC
:1022E00011EC16F0D7DB07E00F013329336FE8500C
:1022F000630801E2336BE1DB08E00F013305336F64
:10230000E850630802E2630E336FCADB09E0050E92
:102310000F01335D336FE850630802E2630E336FE1
:10232000BCDB08E0050E0F013325336FE85063086E
:1023300001E2336B90DB01E040DBCFEC15F045E0D0
:10234000DDEF14F0346B43DD0F01BBD902E2E1ECA9
:1023500015F081DB05E00F017B0E0A6F010E3B6F6C
:1023600099DB02E1AADB31E0D2EC1CF00F01060E92
:102370000A6F010E346F120062DB22E225DB2DCFE3
:10238000E6FFE66A14EC28F0E552E5522FCFE6FFAF
:10239000020EDED92ECFE6FF010EDAD930CFE6FFEE
:1023A000030ED6D931CFE6FF040ED2D932CFE6FFE5
:1023B000050ECED933CFE6FF060ECAD90F013B6B0F
:1023C0003BDB03E201DB3B6B120012001DDA100E57
:1023D000E126FE0EDB50DF6EFD0EDB50E76E010ED8
:1023E000E7CFDBFFFC0EDB50E76E020EE7CFDBFF33
:1023F000080EDFCFDBFF010EDB50E76E090EE7CFE3
:10240000DBFF020EDB50E76E0A0EE7CFDBFFDB508F
:10241000EB0F1E086EE3EFD9000E1426010E85DACD
:10242000060EEFCFDBFFE7D9780E1426010E7DDA1A
:10243000070EEFCFDBFFDBCFE6FF080EDB50E552E8
:10244000E75CE76E030EE7CFDBFFDB50000807E336
:10245000040EDB6A0EDBB40E1426010E1CD0040E33
:10246000DB68030EDB501F0808E203DB3C0E14267A
:10247000010E1522090EDB5011D0060EDBCFE6FF50
:10248000080EDB50E552E724FF0F0F01566FB3D95A
:102490003C0E1426010E1522090EDB041424E96EED
:1024A000000E1520EA6EEFCF57FF0B0E57CFDBFF64
:1024B000090EDBCFE6FF0B0EDB50E552E75CE76E63
:1024C000050EE7CFDBFFDB50640810E2050EDB50A2
:1024D000146E156AD890155004E6FF0E145C000EB9
:1024E000155804E20A0EDB04586F03D00A0EDBCF46
:1024F00058FF100EE15C02E2E16AE552E16E89D11B
:102500007FDB01E1095050E0020E081801E109509B
:1025100047E0010E081801E109503EE0085001E1D2
:10252000095036E0090E081801E109502DE0080EA7
:10253000081801E1095024E0070E081801E10950CC
:102540001BE0060E081801E1095012E0050E0818FC
:1025500001E1095009E0040E08182CE109502AE1B4
:10256000820EE66E3F0E23D07E0EE66E3F0E1FD02B
:10257000780EE66E3F0E1BD0720EE66E3F0E17D041
:102580006D0EE66E3F0E13D0690EE66E3F0E0FD055
:10259000630EE66E3F0E0BD05E0EE66E3F0E07D06A
:1025A000580EE66E3F0E03D0530EE66E3F0EE66EFB
:1025B000050E3ADB2ED124DB01E1095062E0020E68
:1025C000081801E1095059E0010E081801E109500D
:1025D00050E0085001E1095048E00B0E081801E1F5
:1025E00009503FE00A0E081801E1095036E0090ED3
:1025F000081801E109502DE0080E081801E1095002
:1026000024E0070E081801E109501BE0060E081827
:1026100001E1095012E0050E081801E1095009E036
:10262000040E081833E1095031E1500EE66E3F0EFA
:102630002BD04C0EE66E3F0E27D0480EE66E3F0EB6
:1026400023D0440EE66E3F0E1FD03F0EE66E3F0EC7
:102650001BD03C0EE66E3F0E17D0380EE66E3F0ED6
:1026600013D0340EE66E3F0E0FD02F0EE66E3F0EE7
:102670000BD02B0EE66E3F0E07D0260EE66E3F0EF9
:1026800003D0220EE66E3F0EE66E7DDAC2D0C9ECB4
:102690001DF0E552E552E552E5521200E66E2BECD4
:1026A00025F0E5520008120015C0E6FF16C0E6FF4F
:1026B00017C0E6FF1200E66E2BEC25F0E55200098C
:1026C00012000629146E140ECED905C006FF0F01A4
:1026D00005500F081200E66E35EC25F0E5520009B2
:1026E0001200E66E48EC24F0E552E55212007BEC55
:1026F0001DF0186E060EE15E18501200020EDBCFC0
:10270000E6FFE66AB2EC0DF076EF15F03FDAF3CFB4
:1027100014FFF4CF15FF0F01F31C1200E90EE66E53
:10272000440EE66E1200E66EE66AE66A12001D29A5
:10273000146E140E98D905C01DFF0F0105500F0827
:1027400012009FEC04F0E552E552E552E55212000A
:10275000E66E14EC28F0E552E552120017DAF3CFDA
:1027600012FFF4CF13FF0F01F31C1200E66E010EEF
:10277000E66E120096EC0DF0E552E552B7D9F35033
:10278000F4101200DECFE9FFDDCFEAFF030EEA020C
:10279000F3CFEAFFE902F3CFE9FFF450EA26440E53
:1027A000E9260F0EEA22120065CFE6FF66CFE6FFAC
:1027B000B2EC0DF076EF15F000CF02FF01CF03FF72
:1027C000120063D9010E156A1F25146E20511522BF
:1027D000145021191200E66E1FEC28F0E552120089
:1027E000156A166A176A1200D1D9F3CF26FFFF0EB9
:1027F0000F01F35C12000A0EDB50EB0F0C0DF3CF50
:1028000014F0F4CF15F01200D9CFE6FFE1CFD9FFD5
:102810001200E552E7CFD9FF12000D6E0E6A14C008
:1028200008F015C009F0FDEC28F004C014F005C054
:1028300015F01200146E3C0E33EF15F04051030DED
:10284000F3CFE9FFF4CFEAFF440EE9260F0EEA22A8
:102850001200E66EFE0EDBCFE6FF6FEF15F0E66EC0
:1028600035EC25F0E552000812000A0E086E096AE0
:1028700012CF0DF013CF0EF050EF29F00A0E086EB4
:10288000096A14CF0DF015CF0EF050EF29F0F6D9EC
:102890000F011F6F206B45EF15F047CFE6FF48CFC4
:1028A000E6FF49CFE6FF12004ACFE6FF4BCFE6FF37
:1028B0004CCFE6FF12004DCFE6FF4ECFE6FF4FCFE5
:1028C000E6FF1200D950FD0FE96EFF0EDA20EA6E26
:1028D0001200A3D10F010D6F0E6B1200146E180EB3
:1028E000C2D805C02FFF12000201896B02018A6B5A
:1028F00002018B6B1200FD0EDBCF08F0FE0EDBCF6A
:1029000009F0120063CFE6FF64CFE6FFE4EC0DF0C0
:10291000E552E552000912000F015851146E156A74
:10292000D00E1426070E152212001522090EDB0404
:102930001424E96E000E1520EA6E1200080E6DD107
:10294000DBCFF4FFF350F45C1200E66AE66AE66A55
:10295000E66A12008D0EE66E440EE66E1200060E5A
:10296000E66EE66A120050CFE6FF51CFE6FF52CF87
:10297000E6FF120017CF14F018CF15F0166A176A89
:10298000120019CF14F01ACF15F0166A176A120048
:102990001BCF14F01CCF15F0166A176A12000F0136
:1029A0000B6F0C6B0D6B010E0E6F1200FD0EDBCF6B
:1029B00014F0FE0EDBCF15F01200D2EC1CF00F016C
:1029C000010E346F0A6912000F010A6B010E346F99
:1029D0003A6F166B1200100E20D10F013A0E6B6F7A
:1029E0000F01120021CF1FFF22CF20FF1200F36E34
:1029F000020EF3CFDBFF1200AE0EE66E3F0EE66E68
:102A00001200E66EE66A010EE66E47EF13F086DE10
:102A1000A6DF3DDE83DE090E07D980DE060E01D972
:102A20007DDE090E11EF16F07EDE47EF13F0DBCFEF
:102A300014F0D6DE1CEF16F0050E4EEF13F0040E68
:102A40004EEF13F0060E4EEF13F090DE77EF13F01B
:102A5000E8D80A0E1200060E5BEF13F0AC0EE66E1D
:102A6000440EE66E1200156E0E6E14C009F079EF7A
:102A70002AF0080EDBCFE6FF070EDB50E552E75CDD
:102A8000010F0F01566FFBEF13F0F8D80F01216F04
:102A9000226B1200040E5BEF13F0040E6BEF13F0C9
:102AA000050E6BEF13F044CFE6FF45CFE6FF46CFB0
:102AB000E6FFE66A46DE4DEF14F0050E5BEF13F01D
:102AC00010DE820EE66E430E0CDE690EE66E430EDD
:102AD0001200E66EFE0EDBCFE6FF77EF13F07BEC25
:102AE0001DF0146E060EE15E14501200E552E55220
:102AF000F3CF14F0F4CF15F01200010EE66EA1EF43
:102B000013F0AE0EE66E440E12003DCF14F068DEF8
:102B10003DCFE6FF54EF13F03ECF14F061DE3ECF21
:102B2000E6FF54EF13F03FCF14F05ADE3FCFE6FF3D
:102B300054EF13F02FCF14F053DE2FCFE6FF54EFF6
:102B400013F02ECF14F04CDE2ECFE6FF54EF13F02F
:102B50002DCF14F045DE2DCFE6FF54EF13F031CF2B
:102B600014F03EDE31CFE6FF54EF13F033CF14F014
:102B700037DE33CFE6FF54EF13F0040E11EF16F0FB
:102B8000070E11EF16F00A0E14EF16F0DFCFE6FF76
:102B90007EEC0DF0E5521200346B61EF13F0060E7F
:102BA0006BEF13F07ADEE66ACCDD54EF14F07CDED6
:102BB000E66AC7DD5BEF14F07EDEE66AC2DDB3EFE6
:102BC00014F0C8DE0C0E14EF16F0F6DD040E3BD048
:102BD00024DE04C0E6FF05C0E6FF1200EDDD060EB0
:102BE00032D0EADD0A0E2FD0E7DD0D0E2CD0E66ED6
:102BF000E66A7DDD8EEF13F0E66E020E11EF16F041
:102C000003DE79DE030E08181200E66EE66ABAEFFC
:102C100013F074DD010EF318120015D0F2DE1CEF74
:102C200015F0A4DD47EF13F0E66EE66A47EF13F008
:102C300064DFEDDE1CEF15F014C0E6FF54EF13F077
:102C4000E0DE22EF15F00F01006F016B1200ECDEE9
:102C5000F50EE66E440ED5DE1FEF15F0F6DE5EDDF6
:102C6000060E28EF15F04DDFE66E1200DDDE49DFBF
:102C700001EF15F031EC07F022EF15F0E66A1FECDA
:102C800028F0E5521200D0DED80EE66E410E20EF9D
:022C900016F03C
:0E2C9200D9CFE6FFE1CFD9FF020EE126DE6AC0
:102CA000DD6A6CD8F1EC1BF0D2EC1CF0D0D880ECD3
:102CB0001AF0140EE66E3F0EE66E060EE66EE66A3B
:102CC000B3EC1CF0E552E552E552E552D00EE66E4B
:102CD000070EE66E0FD8E552E55202017451FDE091
:102CE000746BD2EC1CF009EC25F046EC00F0FAEC29
:102CF0001CF0F3D7D9CFE6FFE1CFD9FF040EE126D0
:102D0000DE6ADD6ADECF14F0DDCF15F0FD0EDBCF1D
:102D100016F0FE0EDBCF17F015501718E8AE02D0F4
:102D2000173404D01650145C175015581DE2020ECB
:102D3000DB6A030EDB6A020EDBCF14F0030EDBCF7F
:102D400015F0D890155004E6EE0E145C000E1558E0
:102D500006E2020EDB2A030EEEE3DB2AECD7DF2AC3
:102D6000010ED0E3DB2ACED7040EE15C02E2E16A79
:102D7000E552E16EE552E7CFD9FF1200936A956AFA
:102D80006BEC1BF04DEC28F0BBDB570EE66E120E21
:102D9000E66E35EC26F0E552E552AE0EE66E240EF8
:102DA000E66E4BEC26F0E552E552660EE66EB70E87
:102DB000E66E7AEC26F0E552E552020EE66EE66A21
:102DC000D3EC26F0E552E5520A0EE66EE66ADFEC39
:102DD00026F0E552E5520A0EE66EE66AF8EC26F0B9
:102DE000E552E552DEEC24F089EC27F008EF23F001
:102DF0000F01370E6C6F3B0E6D6F170E6E6F070E67
:102E00006F6F1F0E706F0C0E716F0D0E726F6CCFA7
:102E1000E6FFE66A14EC28F0E552E5526DCFE6FFD6
:102E2000010E1CDB6ECFE6FF020E18DB6FCFE6FF54
:102E3000030E14DB70CFE6FF040E10DB71CFE6FF4C
:102E4000050E0CDB72CFE6FF060E2EEF1AF0200EF9
:102E500092DB220811E0CCDFE66A100EFFDAE66AA8
:102E6000110EFCDAE66A120EF9DAE66A130EF6DAE9
:102E7000220EE66E200EF2DA1200100E7CDB0F013D
:102E8000756F110E78DB0F01766F120E74DB0F0178
:102E9000776F130E70DB0F017B6F1200F9DA146E7F
:102EA0001CDBE66ED4DAE66AE66ADEDA71CF14F08D
:102EB00014DB71CFE6FFCBDA030E82DB7ADB060E82
:102EC0007FDB6FCF14F009DB6FCFE6FFC0DA090EAE
:102ED00077DB5ADBE66A010EE66EC6DA5CDB030ED0
:102EE00073DB60DB060EE4EF1AF0D2DA6F51070AEB
:102EF00024E0010A1EE0030A18E0010A12E0070AB2
:102F00000CE0010A06E0030A1FE1100EE66E3F0E18
:102F100017D00C0EE66E3F0E13D0080EE66E3F0E75
:102F20000FD0040EE66E3F0E0BD0000EE66E3F0E85
:102F300007D0FC0EE66E3E0E03D0F80EE66E3E0E97
:102F4000E66EE66AE66A7CDA0A0E0F016E5D06E25C
:102F5000D2DA040E15DB18DB050E02D015DB040EE9
:102F60002FDBECDA060E0CDB0A0E0F016D5D06E2BC
:102F7000C2DA070E05DB0FDB080E02D00CDB070EF2
:102F80001FDBDCDA090EFCDA0A0E0F016C5D06E2CB
:102F9000B2DA0A0EF5DA06DB0B0E02D003DB0A0EFC
:102FA0000FDB0F017751010A06E0010A0AE1F00E7A
:102FB000E66E3E0E03D0EC0EE66E3E0EE66E0D0E95
:102FC000DFDA0F01160506E1E80EE66E3E0EE66E4C
:102FD0000D0E08D0020E165D06E1E30EE66E3E0E03
:102FE000E66E0C0ECDDA0F0171510C0A42E0070AB1
:102FF0003CE0010A36E0030A30E0010A2AE00F0A49
:1030000024E0010A1EE0030A18E0010A12E0070AA0
:103010000CE0010A06E0030A32E1DF0EE66E3E0E26
:103020002BD0DB0EE66E3E0E27D0D70EE66E3E0EA0
:1030300023D0D30EE66E3E0E1FD0CF0EE66E3E0EB0
:103040001BD0CB0EE66E3E0E17D0C70EE66E3E0EC0
:1030500013D0C30EE66E3E0E0FD0BF0EE66E3E0ED0
:103060000BD0BB0EE66E3E0E07D0B70EE66E3E0EE0
:1030700003D0B30EE66E3E0EE66E020E73DA63DA2E
:10308000050E70DA0A0E0F01705D06E25CDA060EBC
:1030900069DA8FDA070E02D08CDA060E95DA53DA87
:1030A000080E60DA140EE66EE66AE66AE66A090E53
:1030B00018DA2FDA0A0E0F01725D0AE2E66AE66A92
:1030C000E66AE66A0B0E0DDA24DA81DA0C0E02D01B
:1030D0007EDA0B0EE4EF1AF0A00EE66E3E0EE66E00
:1030E000E66AE66AADD934DAE66A010EE66EA8D978
:1030F0000A0E0F01755D06E2FED9020E33DA6EDAB2
:10310000030E02D06BDA020E5FDA18DA040E2ADA46
:103110000A0E0F01765D06E2EED9050E23DA65DAB6
:10312000060E02D062DA050E4FDA17DA070E1ADA47
:103130000F017751010A06E0010A0AE1F00EE66E7E
:103140003E0E03D0EC0EE66E3E0EE66E0A0E0ADA76
:1031500004DA0D0EB2EF1AF00F017351FF0A01E10C
:10316000AED0FC0A01E181D0010A47E0030A0DE07C
:10317000010A01E012004EDA01E1B3D00F017C0533
:1031800001E0AFD0010E736F120075D903E2E0D9F0
:10319000020EE8D942DA03E00F01752944DA040E81
:1031A000A4D904E0050E0F0175253DDA39DA0CE0EB
:1031B0000F017505756FE850170802E2170E756F5D
:1031C00075CFE6FF100E4AD9050E8FD90DE0050E1A
:1031D0000F01755D756FE850170802E2170E756FE5
:1031E00075CFE6FF100E3AD915DA03E00F01020E93
:1031F000736F060E7AD975E05BD03DD903E2A8D98A
:10320000050EB0D90ADA03E00F01762911DA040EAF
:103210006CD904E00A0E0F0176250ADA01DA0CE017
:103220000F017605766FE8503B0802E23B0E766FA1
:1032300076CFE6FF110E12D9050E57D90DE00A0E12
:103240000F01765D766FE8503B0802E23B0E766F29
:1032500076CFE6FF110E02D9DDD903E00F01030E90
:10326000736F060E42D93DE023D005D903E275D92C
:103270000A0E78D9D2D907E00F017729010B776FB1
:10328000E66E120EEBD8CCD90CE00F017705776F04
:10329000E850010802E2010E776F77CFE6FF120EC9
:1032A000DDD8B8D902E00F017369060E1ED919E006
:1032B000D2EC1CF00F01010E7C6F736B1200DBD897
:1032C00006E2940EE66E3E0EE66E0A0E59D9A5D9B8
:1032D00002E1A6D901E024D99DD903E021D90F014B
:1032E000396F12000201010E491903E14A5101E14F
:1032F000010C000C02010A0E491903E14A5101E1D7
:10330000010C000C0201010E511903E1525101E1BF
:10331000010C000C02010A0E511903E1525101E1A6
:10332000010C000C0201010E4B1901E14C5115E09A
:103330000A0ED8804B55000E4C5510E24BC214F0CB
:103340004CC215F0030E0D6E0E6A4BC208F04CC253
:1033500009F0EDD803E1155001E1010C000C020168
:10336000010E531901E1545115E00A0ED88053554E
:10337000000E545510E253C214F054C215F0030E5F
:103380000D6E0E6A53C208F054C209F0D0D803E1A2
:10339000155001E1010C000C0F0175516E5D0AE141
:1033A00076516D5D07E16C5105E1770503E17C0520
:1033B00001E1010C000C0F017451050A16E0010A2D
:1033C00005E0040A01E01200040E0DD0E5DF00095B
:1033D00006E00F01010E7B6FE66E130E3FD80F0162
:1033E0007B512DE0050E746F12007C6B7D29146EED
:1033F000140EBBD805C07DFF0A0E0F01055C02E26A
:10340000D2EC1CF00F01782B000E7923900ED8809F
:103410007855010E795504E300D902E101D90FE096
:103420000F01010E7C6F7B6B7BCFE6FF130E16D86E
:103430000F01786B796BD2EC1CF00F01746B1200EA
:10344000C9EC1DF0E552E552E552E552120015C0F7
:10345000E6FF16C0E6FF17C0E6FF1200E66E14ECAA
:1034600028F0E552E55212007BEC1DF0186E060EB6
:10347000E15E185012007C6B2FDE0F017A29146E6A
:10348000140E73D805C07AFF0F0105500F08120003
:10349000E66A1FEC28F0E5520F016C6F010E6BD845
:1034A0000F016D6F020E67D80F016E6F030E63D8A8
:1034B0000F016F6F040E5FD80F01706F050E5BD8A0
:1034C0000F01716F060E57D80F01726F1200E66E72
:1034D0002BEC25F0E55200091200156A166A176AEE
:1034E0001200E66E010EE66E1200E66E35EC25F077
:1034F000E55200091200F60EE66E3E0EE66E120070
:10350000E80EE66E030EE66E7AEC16F0E552E55232
:1035100012007BEC1DF0146E060EE15E14501200DA
:10352000D2EC1CF00F01736B010E7C6F120045ECA6
:103530002AF005C015F0010E04181200F40EE66E14
:103540003E0EE66E1200B10EE66E3E0EE66E120004
:103550009D0EE66E3E0EE66E1200990EE66E3E0E73
:10356000E66E1200BEDF20EF1AF0156E0E6E14C06C
:1035700009F079EF2AF0E66E1FEC28F0E552120010
:10358000E66EE66A20EF1AF06ECF14F0A6DF6ECF7B
:10359000E6FF27EF1AF06DCF14F09FDF6DCFE6FF47
:1035A00027EF1AF06CCF14F098DF6CCFE6FF27EF0F
:1035B0001AF070CF14F091DF70CFE6FF27EF1AF00A
:1035C000E66EE66A34EF1AF08CDF34EF1AF072CF51
:1035D00014F083DF72CFE6FF27EF1AF075CF14F0F7
:1035E0007CDF75CFE6FF27EF1AF076CF14F075DF9A
:1035F00076CFE6FF27EF1AF005C075FF05C0E6FF9E
:10360000100E2EEF1AF005C076FF05C0E6FF110E72
:103610002EEF1AF0060E67EF1AF0040E67EF1AF09D
:10362000050E67EF1AF0146E180E9FDFFCEF1AF00C
:0A363000146E3C0E9ADF03EF1BF04E
:06363A0031EC1FF07BDB08
:1036400015AE02D01668176820DB13E289DB49DB70
:1036500004E6050E145C000E155806E2020EDB2A85
:10366000030EF5E3DB2AF3D7DF2A010EE8E3DB2ABA
:10367000E6D7040EE15C02E2E16AE552E16EBBD2FC
:10368000F0DB59DB15AE02D016681768FEDA13E2DC
:1036900067DB27DB04E6EE0E145C000E155806E22D
:1036A000020EDB2A030EF5E3DB2AF3D7DF2A010E35
:1036B000E8E3DB2AE6D7040EE15C02E2E16AE552C8
:1036C000E16E99D2D4DBF00B6BDBFE0EDB38F00B36
:1036D000811278DA90D2C2DB190E50DB0F0E811600
:1036E000F80E81160F0E8116300E5ADB300E58DBA5
:1036F000300E56DB818A66DA280EE66EE3DFE5528D
:103700000C0EE66EDFDFE552E55275D29DDB010E51
:10371000DB6A81944ADBE76E010EE7CFDBFF81961F
:1037200044DBDF6E010EDB50DF128196010E51DAB1
:10373000DF50146E020EE15C02E2E16AE552E16ED6
:10374000145059D28BDBDF6AE1DFDF6EDFBEFCD7BE
:10375000DF50E55250D28BDB81128186050E39DABB
:103760008196050E36DA47D241DA8194050E31DAB8
:1037700098DA41D23BDA8184050E2BDA92DA819411
:103780003AD23BD33AD332DAFD0EDBCFF6FFFE0E50
:10379000DBCFF7FF0800F5500DE0FD0EDBCFF6FFA5
:1037A000DB2AFE0EDBCFF7FF01E3DB2A0800F55032
:1037B0001BDBEAD720D252DBFD0EDB500F0B146E61
:1037C000FE0EDB50010B400DF3501424DF6E7F0E14
:1037D000DF14800FDF6EDFCFE6FFC6DFE552E55274
:1037E0000AD2010EE66EC0DFE552E66AE66A3DEFF8
:1037F0001FF0FCD9050EE126010EF36EDB6EB0DA88
:10380000040EDB6ADF6ADFCF14F0156A14BE156898
:1038100099DA15501718E8AE02D0173404D01650B4
:10382000145C175015581FE2FD0EDBCF14F0FE0E8E
:10383000DBCF15F0166A176A15AE02D01668176846
:10384000D950010FE96EDACFEAFF14C00BF015C0B2
:103850000CF016C00DF017C00EF0DBDACCEC29F03E
:10386000E1DADF2AD0D7010EDBCF14F0020EDBCF76
:1038700015F0030EDBCF16F0040EDBCF17F014C0EB
:1038800006F015C007F016C008F017C009F0050EC5
:10389000E15C02E2E16AE552E16EADD1D5DAFB0E00
:1038A000DBCF14F0FC0EDBCF15F0FD0EDBCF16F0F6
:1038B000FE0EDBCF17F0145015101610171003E191
:1038C000300E92DA36D0D950FB0F14DA01E618DA4E
:1038D00005E22D0E89DAD950FB0FCAD9DE52070E48
:1038E000DD6E37DAE8AE02D0143403D0E750D8806A
:1038F00014541FE217DA18BE196871D936DA5EDA85
:1039000008DA0BE0010EDF6EDB041C6E1D6A1CBEC4
:103910001D6883D953DA9FD903D0DF5002E0300EFF
:1039200063DA00DA18BE19685AD9D950FB0F6CD97E
:10393000D8D7020EE15C02E2E16AE552E16E5BD1AA
:1039400055D9C7D9D950F90F53DAEECFE6FFEECFEC
:10395000E6FFEECFE6FFEFCFE6FFA0DFE552E55250
:10396000E552E55248D142D9B4D9FB0EDBCFE6FF90
:10397000FC0EDBCFE6FF07DFE552E5523CD136D93E
:10398000FCC014F0FDC015F0040ED89014361536A6
:10399000E806FBE192D9FE0EDBCFEFFFFE2B000E17
:1039A000FF2329D15BDADF6ADFCF14F0100EE76E58
:1039B0001418E8AE02D0E73402D0E750145C18E2E5
:1039C000DFCFE9FFEA6AE9BEEA68C10EE926000E28
:1039D000EA22200EEF6EDFCFE9FFEA6AE9BEEA686D
:1039E000D10EE926000EEA22200EEF6EDF2ADCD788
:1039F000E55201D133DA0001C051030A29E0010A7E
:103A00001CE0030A0CE0010A32E13BDA080EDF5C3D
:103A100003E2DF50B9D9FAD70001010E17D0080E22
:103A2000E66EE66A09D9080EDF5C04E2080EDF24C0
:103A3000ABD9F9D70001020E09D00BDA080EDF5C12
:103A400003E2DF50A7D9FAD70001030EC06F10D0F0
:103A5000080EE66E010EE66EEFD8080EDF5C04E29B
:103A6000080EDF2497D9F9D70001C06B01D0C06BD5
:103A7000E552C1D0F3D90001C051010A0DE0010A9D
:103A800015E1FFD9100EDF5C03E2DF507DD9FAD7D4
:103A90000001010EC06F0BD0DCD9100EDF5C03E219
:103AA000DF5078D9FAD70001C06B01D0C06BE55266
:103AB000A2D0D4D9E6D9100EDF5C03E2DF5064D97E
:103AC000FAD7C7D9100EDF5C03E2DF5063D9FAD70B
:103AD000E55291D08BD8B3D8FCC014F0FDC015F0DE
:103AE000040ED89014361536E806FBE1E6D8FC0E35
:103AF000DBCFEFFF80D0A8D9A2D8F90EDBCF14F02E
:103B0000FA0EDBCF15F01ED9145015101610171031
:103B100003E1300E0CD936D0D950F90FEBD801E6BD
:103B2000EFD805E22D0E03D9D950F90FA1D8DE52F6
:103B3000070EDD6E0ED9E8AE02D0143403D0E75084
:103B4000D88014541FE2EED818BE196848D80DD991
:103B500040D9DFD80BE0010EDF6EDB041C6E1D6A5E
:103B60001CBE1D685AD835D976D803D0DF5002E084
:103B7000300EDDD8D7D818BE196831D8D950F90F12
:103B800043D8D8D7020EE15C02E2E16AE552E16E69
:103B900032D02CD854D8FB0EDBCFF6FFFC0EDBCF97
:103BA000F7FF0800F5500DE0FB0EDBCFF6FFDB2A38
:103BB000FC0EDBCFF7FF01E3DB2A0800F550B7D896
:103BC000EAD719D08186010ED9D88196010EBEEFB1
:103BD0001EF0E66EE66AE66AE66A2FDD56D118C088
:103BE000E6FF19C0E6FF10D91BEF1FF0D9CFE6FFA3
:103BF000E1CFD9FF1200E552E7CFD9FF1200EA2248
:103C0000EF50F2D8DF2A1200F3D8AFD802D904EC73
:103C10002AF008D9010EDB0612001CC0E6FF1DC009
:103C2000E6FFF2D806C018F007C019F008C01AF075
:103C300009C01BF0B5EF1EF020D9DF6A1200FE0E9E
:103C4000DB50010B0001FC6FFD6BFD0EDB500F0B19
:103C5000FE6FFF6B1200DBCF09F004EC2AF0EBD80B
:103C6000300E1426000E15221622172214501200B0
:103C7000BFD8000EEE6CEF1EEE22EF1EEE22EF1EFE
:103C8000EF22ED52ED52ED521200D950FB0FB0D899
:103C9000EE50145CEE501558EE501658EE50175872
:103CA0001200FE0EDBCFE6FF56DDE552FE0EDB38DE
:103CB000F00BE66E50DDE5521200C10E1426000E28
:103CC000152214500001FE25E96E1550FF21EA6E01
:103CD0001200FD0EDBCFE6FFFE0EDBCFE6FF3DEF71
:103CE0001FF0020EDBCF14F0030EDBCF15F0D890DF
:103CF000155012007DD8D890030EEB50000A120028
:103D0000000EEE5C000EEE58000EEE58000EEE585F
:103D10001200DBCF09F004EC2AF00650071008105F
:103D200009101200010EDB04186E196A1200E66E0B
:103D300026DEE5521200DECF14F0DDCF15F0166A54
:103D4000176A1200FB0EDBCF16F0FC0EDBCF17F06C
:103D50001200010EDBCF14F0000EE76E14181200F3
:103D6000020EDB6A030EDB6A120006C00BF007C00E
:103D70000CF008C00DF009C00EF01200E66EE66A05
:103D8000E66AE66A7DDC81D0EA6AC10FE96E000E60
:103D9000FFEF1DF0EA6AD10FE96E000EFFEF1DF094
:103DA000811210DF0F0E811612000F0E12DF0F0EA0
:103DB000811281860EDF0F0E81141200FB0EDBCF05
:103DC00006F0FC0EDBCF07F0FD0EDBCF08F0FE0E99
:103DD0001200F90EDBCF06F0FA0EDBCF07F0FB0E78
:103DE000DBCF08F0FC0E1200E66ECCDCE5521200D0
:103DF000E96EFF0EDA20EA6E1200F8DEFE0EDBCF6F
:103E0000E6FFB8DCE552F7D60A0EE66EE66AF1DCAC
:103E10003CD0EECF06F0EECF07F0EECF08F0EFCFBC
:103E200009F0120005C0EDFF04C0EDFF03C0EDFF77
:103E300002C0EFFF120006C014F007C015F008C062
:103E400016F009C017F01200D1DE020EE126DF6A7B
:103E50001200E66A010EE66E1CEF1EF0C7DEE652A7
:103E60001200C4DE040EE126DE6ADD6A1200BEDE48
:103E70000F0E8116FE0EDB5012009DDCE552E5525E
:103E80001200E66AE66A1CEF1EF0E552E552E552C2
:043E9000E5521200E5
:0C3E940020202020002020200020200002
:103EA0002020414C41524D2020204241434B2020B4
:103EB000002000444543004E4F56004F43540053EA
:103EC000455000415547004A554C004A554E004D5B
:103ED000415900415052004D415200464542004A6E
:103EE000414E0045584954004F4B20004F4E200092
:103EF0004F4646003A0030005341540046524900B4
:103F00005448550057454400545545004D4F4E0008
:103F100053554E004449474954414C20434C4F436C
:103F20004B00486F6900547561740044617500541A
:103F300068616E004D7569004E676F0054790054DA
:103F400068696E004D656F0044616E0053757500C1
:103F500054690051757920004E68616D20005461EC
:103F60006E200043616E6820004B7920004D617522
:103F7000200044696E68200042696E682000417428
:103F800020004769617020002020200059455328F7
:103F9000555029204E4F28444F574E2900536176E3
:103FA000652074696D65203F2020202020002000BE
:103FB000444543004E4F56004F4354005345500074
:103FC000415547004A554C004A554E004D41590055
:103FD000415052004D415200464542004A414E0078
:103FE0004F4B20005341540046524900544855005D
:103FF00057454400545545004D4F4E0053554E0013
:104000003E48414E4F49202020205554432B303705
:10401000002048414E4F49202020205554432B304A
:1040200037003E4C4F4E444F4E2020205554432BDA
:10403000303000204C4F4E444F4E202020555443EA
:104040002B3030003E4E4557594F524B202055548F
:10405000432D303500204E4557594F524B202055A7
:1040600054432D3035003E504152495320202020EA
:104070005554432B303100205041524953202020C9
:10408000205554432B3031003E4245494A494E4762
:1040900020205554432B30380020544F4B594F208B
:1040A0002020205554432B303900204245494A49AD
:1040B0004E4720205554432B3038003E544F4B5927
:1040C0004F202020205554432B3039002154494D96
:1040D00045230D0A003E496E7465726E65740020BA
:1040E0005669727475616C5465726D696E616C00AD
:1040F00021444154453A59594D4D444464230D0AD5
:10410000000D0A546F2073796E6368726F6E697A5E
:104110006520646174652C207573696E67207379FE
:104120006E74617820617320666F6C6C6F773A0DE6
:104130000A005468652074696D65206E65656420A9
:10414000746F2062652032342D6820666F726D6155
:10415000740D0A002154494D453A48484D4D53537A
:10416000230D0A000D0A546F2073796E6368726F15
:104170006E697A652074696D652C207573696E6748
:104180002073796E74617820617320666F6C6C6F38
:10419000773A0D0A000D0A57656C636F6D652074E0
:1041A0006F20416C61726D20436C6F636B20636F95
:1041B0006E736F6C65206D656D750D0A0020496E1C
:1041C0007465726E6574003E5669727475616C54E4
:1041D00065726D696E616C003E4261636B002055D3
:1041E0007365205541525400204261636B003E5577
:1041F000736520427574746F6E002055736520429C
:104200007574746F6E003E557365205541525400AD
:10421000436F6E6669726D204572726F72210D0A6E
:104220000052656164206572726F7220210D0A0070
:104230000D0A4E65656420636F6E6669726D206459
:10424000617465206368616E676520210D0A000D49
:104250000A436F6E66696775726174696F6E204498
:104260006174652053756363657373210D0A000DD6
:104270000A44415445206D75737420626520696E4F
:104280002072616E6765205B312C375D20210D0A3D
:10429000000D0A446179206D757374206265206990
:1042A0006E2072616E6765205B312C32385D202193
:1042B0000D0A000D0A446179206D757374206265E2
:1042C00020696E2072616E6765205B312C32395D2A
:1042D00020210D0A000D0A446179206D7573742048
:1042E000626520696E2072616E6765205B312C33D8
:1042F000315D20210D0A00506C6561736520656E8B
:1043000074657220616761696E210D0A000D0A44AF
:104310006179206D75737420626520696E20726109
:104320006E6765205B312C33305D20210D0A000D56
:104330000A20446179206D757374206265203E20E7
:1043400030210D0A000D0A4D6F6E7468206D757373
:104350007420626520696E2072616E6765205B3132
:104360002C31325D20210D0A000D0A506C656173FD
:104370006520656E74657220616761696E20210D2C
:104380000A000D0A43686172616374657220636F8D
:104390006E6669726D206973202723270D0A000D50
:1043A0000A4E65656420636F6E6669726D2074697C
:1043B0006D6520210D0A000D0A436F6E66696775F1
:1043C000726174696F6E2054696D65205375636303
:1043D000657373210D0A000D0A506C6561736520C9
:1043E000656E746572206E756D62657220210D0AAE
:1043F000000D0A5365636F6E64206D7573742062DF
:104400006520696E2072616E6765205B302C3539DE
:104410005D20210D0A000D0A4D696E757465206DD1
:1044200075737420626520696E2072616E67652005
:104430005B302C35395D20210D0A00706C6561738D
:104440006520656E74657220616761696E210D0A71
:10445000000D0A486F7572206D75737420626520B7
:10446000696E2072616E6765205B302C32335D208F
:10447000210D0A000D0A506C6561736520656E742C
:104480006572206E756D626572210D0A0020202014
:10449000200052554E0053544F500054494D455240
:1044A00020434C4F434B204241434B0030002020DF
:1044B0000020202053544F5020574154434820207F
:1044C000003E352E200020352E20003E342E2000C8
:1044D00020342E20003E332E200020332E20003E9C
:1044E000322E200020312E20003A0020322E2000D3
:1044F0003E312E20003E4241434B0048554D493A43
:10450000202020250054454D503A202020430052C1
:1045100065636576696E6720646174612E2E002183
:10452000444854230D0A00204241434B003E574566
:104530004154484552002057454154484552003E99
:10454000474C4F42414C2054494D4500554152542F
:1045500020746F206D6F6469667900506C656173BB
:104560006520636F6E6E6563740020474C4F424157
:104570004C2054494D45003E54494D45204D4F4433
:10458000494659002054494D45204D4F444946590C
:10459000003E54494D455220434C4F434B0020545C
:1045A000494D455220434C4F434B003E53544F50CE
:1045B000205741544348005468616E6720004E679D
:1045C000617920004E616D20002053544F502057D8
:1045D00041544348003E4C554E41522043414C45C6
:1045E0004E4441520020414C41524D20434C4F43D8
:1045F0004B00204C554E41522043414C454E4441C6
:0F46000052003E414C41524D20434C4F434B0022
:10461000B06A810EAF6EAC8AAC94B886AC98AB8EA3
:10462000AB889E9A9D8A9F8A949C948E120069D929
:10463000040EE126DE6ADD6ADECF14F0DDCF15F070
:1046400097D915501718E8AE02D0173404D0165079
:10465000145C175015581DE2020EDB6A030EDB6A6C
:10466000020EDBCF14F0030EDBCF15F0D8901550FF
:1046700004E6EE0E145C000E155806E2020EDB2A6C
:10468000030EEEE3DB2AECD7DF2A010ED5E3DB2AAB
:10469000D3D7040EE15C02E2E16AE552E16E36D165
:1046A00030D99EA8FED7FE0EDB50AD6E9E982ED15F
:1046B00028D956D908E054D934D9FD0EDB2AFE0E8C
:1046C000F8E3DB2AF6D722D11CD9050EE126010E2C
:1046D000F36EDB6E020EDB6A030EDB6A040EDB6A2E
:1046E000DF6ADFCF14F0156A14BE1568FB0EDBCF4E
:1046F00016F0FC0EDBCF17F015501718E8AE02D0FD
:10470000173404D01650145C175015581FE2FD0ED4
:10471000DBCF14F0FE0EDBCF15F0166A176A15AE6C
:1047200002D016681768D950010FE96EDACFEAFF98
:1047300014C00BF015C00CF016C00DF017C00EF031
:10474000F4D8CCEC29F0FAD8DF2ACBD7010EDBCF96
:1047500014F0020EDBCF15F0030EDBCF16F0040EC3
:10476000DBCF17F014C006F015C007F016C008F034
:1047700017C009F0050EE15C02E2E16AE552E16E64
:10478000C5D0BFD8020EE126DF6AFB0EDBCF14F0E6
:10479000FC0EDBCF15F0ECD81450151016101710C6
:1047A00003E1300EBED86DD0B5D8D890030EEB50D3
:1047B000000A08E6000EEE5C000EEE58000EEE5801
:1047C000000EEE580EE22D0EACD8A4D8000EEE6C02
:1047D000EF1EEE22EF1EEE22EF1EEF22ED52ED5203
:1047E000ED52DE520A0EDD6E010EDBCF14F0000E2C
:1047F000E76E1418E8AE02D0143403D0E750D88026
:1048000014543FE2010EDB04186E196A18BE1968D1
:1048100071D861D806500710081009101EE0010E6B
:10482000DF6EDB041C6E1D6A1CBE1D681CC0E6FF2B
:104830001DC0E6FFA4D806C018F007C019F008C0D4
:104840001AF009C01BF047D8A3D8300E1426000E6A
:10485000152216221722145003D0DF5002E0300E2A
:1048600060D8010EDB04186E196A18BE196842D8A8
:1048700051D897D85AD804EC2AF060D8010EDB063C
:10488000B3D7020EE15C02E2E16AE552E16E3ED08E
:1048900038D85DD80CE05BD844D8FD0EDBCFF6FFEE
:1048A000DB2AFE0EDBCFF7FFF4E3DB2AF2D72ED0B4
:1048B00028D8E652AE50DF6E02018951EA6A010F34
:1048C000E96E020EEA22DFCFEFFF89293F0B896FE5
:1048D0008B2BE5521BD065D8FB0EDBCF06F0FC0E10
:1048E000DBCF07F0FD0EDBCF08F0FE0EDBCF09F0CB
:1048F00004EF2AF018C0E6FF19C0E6FF40D8C8EF61
:1049000024F0D9CFE6FFE1CFD9FF1200E552E7CF7F
:10491000D9FF1200D950FB0FE96EFF0EDA20EA6EC4
:104920001200E66EBDDEE5521200EECF06F0EECFCD
:1049300007F0EECF08F0EFCF09F0120005C0EDFF51
:1049400004C0EDFF03C0EDFF02C0EFFF1200FD0E3B
:10495000DBCFF6FFFE0EDBCFF7FF0800F5501200AD
:10496000FD0EDBCFE9FFFE0EDBCFEAFFEF501200BA
:10497000FD0EDBCF16F0FE0EDBCF17F012000A0E95
:10498000E66EE66AA1DEE552E552E552E552120016
:1049900006C014F007C015F008C016F009C017F0E3
:1049A000120006C00BF007C00CF008C00DF009C0E3
:0449B0000EF01200F3
:0C49B4000F0E946E82681200070E941023
:1049C000946EDF0E9414946E82681200E3D80CD9B2
:1049D00001E605D917E2F0D8826EFCD8E4D801E6EA
:1049E000FED80BE2CAD802E103D901D02CD9020EBD
:1049F000DB2A030EF3E3DB2AF1D7DF2A010EE7E31C
:104A0000DB2AE5D7040EE15C02E2E16AE552E16EE1
:104A1000DDD0C0D8DFD8010EDE6EDD6ACDD88214BD
:104A2000826ED8D8C0D804E6030E145C000E155868
:104A30000BE2A3D802E1DCD801D005D9020EDB2AB3
:104A4000030EF0E3DB2AEED7040EE15C02E2E16A3A
:104A5000E552E16EBBD08BD8010EEE1804E1ED50AB
:104A600002E1010E01D0000EB1D081D8320EEE1855
:104A700007E1ED5005E1DCD8EE6AED6A010E01D0E8
:104A8000000EA4D074D8320EEE1804E1ED5002E10D
:104A9000010E01D0000E9AD07DD8D9D8FD0EDBCF03
:104AA00016F0FE0EDBCF17F015501718E8AE02D047
:104AB000173404D01650145C1750155813E28AD8D6
:104AC00072D804E6EE0E145C000E155806E2020ED3
:104AD000DB2A030EF5E3DB2AF3D7DF2A010EDDE341
:104AE000DB2ADBD7040EE15C02E2E16AE552E16E0B
:104AF0006DD050D879D801E672D822E25DD8826EA6
:104B000069D851D801E66BD80DE29DD836D804E1BA
:104B10001ED8010EEE6EED6A020EDB2A030EF1E3E3
:104B2000DB2AEFD78250816EE80EE66E030EE66E4A
:104B3000B3DFE552E552DF2A010EDCE3DB2ADAD7E8
:104B4000040EE15C02E2E16AE552E16E3FD07FD8FB
:104B5000D89014361536D89014361536020EDB5020
:104B60001424E96E030EDB5015202CEF26F0D9CF6C
:104B7000E6FFE1CFD9FF18EF26F0020EDBCFE9FF09
:104B8000030EDBCFEAFF650EE926020EEA22EF50A4
:104B900082141200D9CFE6FFE1CFD9FF040EE1263F
:104BA000DE6ADD6A1200020EDBCF14F0030EDBCFEB
:104BB00015F0D89015501200DECFE9FFDDCFEAFFE7
:104BC000610EE926020EEA22EF1C1200E552E7CF41
:104BD000D9FF1200020EDB6A030EDB6A1200040E1C
:104BE000145C000E1558120032D8D89015501200DF
:104BF000DECF18F0DDCF19F0D89018361936D890DE
:104C000018361936020EDB501824E96E030EDB50FD
:104C1000192022D8EECF16F0EFCF17F0010E16268E
:104C2000000E172294DF16C0EEFF17C0EDFF120032
:104C3000FE0EEA6ADB34FE0BEA36E96E410EE92627
:104C4000020EEA22120083DFEE6AED6A1200DECF66
:104C500014F0DDCF15F01200EA6ED890E936EA368E
:0A4C6000410EE926020EEA221200BE
:064C6A00F1D8D59EFD0EFD
:104C7000DBCF69F2FE0EDBCF6AF2D59C05D9D59A5F
:104C8000D586F28AF294F184D58EE6D0D59E1200B4
:104C9000FBD8D58E1200DBD8CD90FD0EDBCF6BF2AA
:104CA000FE0EDBCF6CF2F7D89D809E909F90CD8E4C
:104CB000CD8CCD98CD9ACD96CD92CD80CDD0EBD860
:104CC000CD801200CD901200C2D8CA94CC6AFE0EDC
:104CD000DB5002016D6F6E6BCB6E9D829E929F9238
:104CE000CA90CA92CA84B8D06DC2CBFFCA841200DF
:104CF000CA941200ACD8B190FD0EDBCF6FF2FE0E5D
:104D0000DBCF70F2CFD80750B36ECCD8B5D8B26E27
:104D1000A082A192A292B18EB198B19AB192B180C3
:104D20009BD0C0D80350B26EBDD89ED8B36EB180B0
:104D30001200B19012000201792B000E7A238151EA
:104D4000795D82517A5904E3796B7A6B010E716F48
:104D5000120002017B2B000E7C2383517B5D84516A
:104D60007C5904E37B6B7C6B010E726F12000201B5
:104D70007D2B000E7E2385517D5D86517E5904E397
:104D80007D6B7E6B010E736F120002017F2B000E94
:104D9000802387517F5D8851805904E37F6B806B4E
:104DA000010E746F120053D8FD0EDBCF81F2FE0EA0
:104DB000DBCF82F20201796B7A6B716B4DD047D8F1
:104DC000FD0EDBCF83F2FE0EDBCF84F2050E0D6EFF
:104DD0000E6A83C208F084C209F0FDEC28F008C016
:104DE00083F209C084F202017B6B7C6B726B34D05E
:104DF0002ED8FD0EDBCF87F2FE0EDBCF88F20A0E37
:104E00000D6E0E6A87C208F088C209F0FDEC28F02A
:104E100008C087F209C088F202017F6B806B746B57
:104E20001BD01C6A1A50175C146E1B501858156E54
:104E30001C501958166E0C6A010E0D6E0E6A14C0C5
:104E400007F015C008F016C009F023EF29F0D9CFFC
:104E5000E6FFE1CFD9FF1200E552E7CFD9FF1200FC
:104E600017681868196A120007C014F008C015F016
:104E700009C016F00750120003C014F004C015F06A
:104E800005C016F00350120014D80350D66E11D886
:104E9000EBDFD76E120014D80750CF6E11D8ECDFBD
:104EA000CE6E1200DDDF6FC21AF070C21BF011EF80
:104EB00027F0D6DF69C21AF06AC21BF011EF27F0A3
:0E4EC000CFDF6BC21AF06CC21BF011EF27F0AF
:024ECE00BED84C
:104ED000020EE126FE0EDB500F0BDF6EFE0EDB38FE
:104EE0000F0B0A0DBCD802E2E16AE552E16E1450E4
:104EF000B2D0ACD8020EE126BBD80550DF6EB8D8D0
:104F00000950100DACD802E2E16AE552E16E14508E
:104F1000A2D094869488C79EC79CC690C692C69419
:104F2000C686310EC86EC68A120090D89E96FE0EB6
:104F3000DB50D00FC96E9EA6FED78DD09E96C58041
:104F40009EA6FED712009E96C5849EA6FED712008E
:104F50007DD89E96FE0EDB50C96E9EA6FED77BD0F6
:104F60009E96C5869EA6FED7C95012009E96C59AEB
:104F7000C5889EA6FED712009E96C58AC5889EA6A5
:104F8000FED7120063D87CD8010EFE6FE85004E013
:104F9000C550400BFAE0F8D779D8010EFE6FE85003
:104FA00004E0C550400BFAE0F8D7FD0EDBCFE6FF7A
:104FB000A0DFE552E66ECCDFE5520101010EFE6F87
:104FC000E85004E0C550400BFAE0F8D7BCDF43D00E
:104FD0003DD8E65255D8010EFE6FE85004E0C550AA
:104FE000400BFAE0F8D752D8010EFE6FE85004E00B
:104FF000C550400BFAE0F8D7A1DF010EE66E95DF51
:10500000E5520101010EFE6FE85004E0C550400B6F
:10501000FAE0F8D7A5DFDF6EDFCFE6FF58DFE55215
:10502000DF6EDF50E55217D011D8FD0EDBCFE6FF63
:10503000FE0EDBCFE6FFA6DFE552E5520CD006D828
:10504000FE0EDBCFE6FFC4DFE55205D0D9CFE6FF89
:10505000E1CFD9FF1200E552E7CFD9FF1200010ED0
:10506000F3CFDBFFDB50DF24146E020EE15C120095
:105070000A0E146E0E6EFE0EDBCF09F079EF2AF0E9
:105080005DDFE66A52DFE55201011200FE0EDBCF62
:0A509000E6FF5EDFE55201011200A9
:06509A00F28ED08EF28CB4
:1050A0001200F19CF292F2881200D8CFE4FFE0CF18
:1050B000E4FFE46E65D800EE00F0140EE80403E3AC
:1050C000EECFE4FFFBD700EE14F00A0EE80403E392
:1050D000EECFE4FFFBD7E652F2B47AD89EB07FD889
:1050E000A1B284D8F2B2F2929EBA9E9AE55200EE34
:1050F0001DF00A0EE80403E3E5CFEDFFFBD700EE59
:1051000013F0140EE80403E3E5CFEDFFFBD74DD811
:10511000E550E5CFE0FFE5CFD8FF100031D800EE35
:1051200000F0140EE80403E3EECFE4FFFBD700EE3B
:1051300014F00A0EE80403E3EECFE4FFFBD7E652D7
:10514000F2B446D89EB04BD8A1B250D8F2B2F29287
:105150009EAA03D058EC24F09E9AE55200EE1DF072
:105160000A0EE80403E3E5CFEDFFFBD700EE13F0F2
:10517000140EE80403E3E5CFEDFFFBD716D81100CA
:10518000DACFE4FFE2CFDAFFE9CFE4FFEACFE4FFD2
:10519000F6CFE4FFF7CFE4FFF5CFE4FFF3CFE4FF72
:1051A000F4CFE4FFFACFE4FF1200E5CFFAFFE5CF3A
:1051B000F4FFE5CFF3FFE5CFF5FFE5CFF7FFE5CF50
:1051C000F6FFE5CFEAFFE5CFE9FFE5CFDAFF120012
:1051D00046EC26F0F29448EC26F09BEF26F062ECC9
:1051E00026F09E905FEC26F0A9EF26F099EC26F0D1
:0A51F000A19291EC26F0C5EF26F025
:0651FA00006A0EAE06EF94
:1052000029F00D6C0E1EE86A0E22001E09AE0EEF8C
:1052100029F0086C091EE86A0922001E45EC2AF0F4
:1052200009BE1EEF29F000AE000C086C091EE86AEA
:105230000922046C051EE86A0522000C00BE15EF69
:1052400029F00188FF0C006A0EAE2EEF29F00C6CDD
:105250000D1E0E1EE86A0D220E22001E09AE38EF4A
:1052600029F0076C081E091EE86A08220922001EA0
:1052700028EC2AF009BE4BEF29F000AE000C076CB9
:10528000081E091EE86A08220922036C041E051E76
:1052900004220522000C00BE3FEF29F00188FF0C1C
:1052A00009C013F008C012F008500D02F4CF07F047
:1052B000F3CF06F009500E02F4CF09F0F3CF08F057
:1052C0000D02F3500726F4500822E86A0922125012
:1052D0000E02F3500726F4500822E86A09220EAEA7
:1052E00076EF29F01250085E1350095A13AE000CE5
:0A52F0000D50085E0E50095A000C24
:0652FA001E0EF66E000E10
:10530000F76E000EF86E01010900F550F56F090007
:10531000F550F66F03E1F56701D03DD00900F55077
:10532000F06F0900F550F16F0900F550F26F0900B8
:105330000900F550E96E0900F550EA6E0900090010
:105340000900F550F36F0900F550F46F09000900EA
:10535000F6CFF7F1F7CFF8F1F8CFF9F1F0C1F6FF9A
:10536000F1C1F7FFF2C1F8FF0101F35302E1F45379
:1053700007E00900F550EE6EF307F8E2F407F9D7FD
:10538000F7C1F6FFF8C1F7FFF9C1F8FF0101F50712
:08539000000EF65BBFD712000E
:0853980006500B02F3CF02F0F6
:1053A000F4CF03F00C02F3500326000EF420046E39
:1053B00006500D02F3500426000EF420056E065030
:1053C0000E02F350052607500B02F3500326F4504B
:1053D0000422000E052207500C02F3500426F4505C
:1053E000052207500D02F350052608500B02F3501A
:1053F0000426F450052208500C02F35005260950EB
:085400000B02F3500526120017
:08540800056A046A036A026AE6
:10541000200EE76ED8900636073608360936023673
:105420000336043605360B50025C0C5003580D5001
:1054300004580E50055809E30B50025E0C50035AF5
:105440000D50045A0E50055A062AE72EE4D71200D2
:10545000056A046A036A180EE76ED89007360836A4
:1054600009360336043605360C50035C0D500458DB
:105470000E50055807E30C50035E0D50045A0E50B1
:0A548000055A072AE72EEAD71200AA
:06548A00056A046A100E21
:10549000E76ED89008360936043605360D50045CA0
:1054A0000E50055805E30D50045E0E50055A082AAB
:0654B000E72EF0D7120008
:0A54B600800EF36E00EE00F00F0E02
:1054C00001D81200EA6002D0EE6AFCD7F350E9601E
:0654D0001200EE6AFCD799
:0A54D6001EEE00F02EEE00F0F86A62
:1054E000019C7DEC29F003EC00F049EC16F0FBD7B1
:0254F0001200A8
:0E54F200056A080EE76ED890093605360E5092
:0E550000055C02E3056E092AE72EF7D71200BC
:02550E00131474
:1055100012141415161719191B1B1D011D01010367
:105520000304060608080A0B140B0C0E0E0F1111CB
:1055300012131416151717191A1B1D1D0101020449
:105540000204040607080A0A0C0C0B0C01020304EF
:1055500005060708090A0B010103040506070809E7
:105560000A0B0C010202030405060708090A0B0CCA
:1055700001020304050607080A0B0C0102030405D7
:1055800006060708090A0D0C0D0C0C0A0A08070686
:105590000504031D031F1E1D1D1B1A1918171614C1
:1055A0001614131212100F0F0D0D0B0A0A0908061C
:1055B000060403031F1F1D1C1D1C1B19191716159C
:1055C00014140C0102030405060708090A0B0C0158
:1055D000020305060708090A0B0C01020203040571
:1055E000060708090A0B0C0102030405060708094F
:0E55F0000A0C010203040506060708090A0B4F
:0255FE000000AB
:10560000000000000000000000000000000000009A
:0E561000000000000000010001000100010088
:02561E00010089
:105620000000000000000000003200320007000708
:10563000FFFFFFFF0000000000000000000000006E
:105640000001000000000000000000000000000059
:10565000000001010001000000000000000000390E
:02566000010047
:0E56620000000000000000000000000000003A
:045670000000010035
:0C567400000000000000000010101010EA
:105680001010101018181818181818181C1C1C1CAA
:105690001C1C1C1C1E1E1E1E1E1E1E1E1F1F1F1F2E
:1056A0001F1F1F1F0000000000000000000000007E
:1056B00000000000000000000000000000000000EA
:1056C00000000000000000000000000000000000DA
:0556D0000000000000D5
:0B56D500000000D0002222220725095F
:1056E00010000100000000000000000000000000A9
:1056F00000000000000000000000000000000000AA
:105700000000000000000000000000000000000099
:08571000102040800102040892
:020000040030CA
:0100010002FC
:0100020003FA
:010003001EDE
:010005008179
:010006008178
:010008000FE8
:01000900C036
:01000A000FE6
:01000B00E014
:01000C000FE4
:01000D0040B2
:00000001FF
