:020000040000FA
:0600000064EF19F012008C
:020006001200E6
:0600080087EF17F0120063
:02000E000000F0
:0100100000EF
:0400110000000000EB
:060018004EEF17F012008C
:02001E000800D8
:10002000DD330000410F000028000000C233000053
:10003000200100001B000000110000004C01000026
:100040000400000061330000800000006100000037
:100050004E330000690F000013000000323300002F
:10006000E10000001C00000012330000000100004D
:10007000200000000E000000FD0000000300000052
:100080000001E15102E1010EE21901E164D1DF0E4C
:10009000E11902E1040EE21901E15BD1060EE1195A
:1000A00001E1E25101E125D1070EE11901E1E2513F
:1000B00001E110D1D70EE11902E11E0EE21901E1B2
:1000C00007D1050EE11901E1E25101E1D4D0040E9E
:1000D000E11901E1E25101E1A6D01E0EE11901E1B1
:1000E000E25101E177D0030EE11901E1E2514AE06A
:1000F000140EE11901E1E2513AE0020EE11901E1C9
:10010000E25114E0010EE11901E1E25101E01200B7
:1001100094EC07F0BFEC0AF021EC06F001E33AD1D1
:100120000BEC06F0010EE36FE46B12000B0EE66EB3
:10013000240E11EC06F0FC0EE66E230E16EC06F013
:1001400002E24FEC06F021EC06F009E2140E000189
:10015000E16FE26BED0EE66E230EC5EC05F01EECD2
:1001600006F001E317D10001E16B010EAFD076EC90
:1001700008F0B2EC09F00001F55101E10BD1F56B8B
:10018000020E05D1020EE3190BE1E45109E1E00E84
:10019000E66E230E11EC06F0D10EE66E230E08D0AB
:1001A000D10EE66E230E11EC06F0C40EE66E230EA1
:1001B00016EC06F002E252EC06F01EEC06F004E249
:1001C000C0EC05F00BEC06F021EC06F001E3E2D008
:1001D0001E0EDCD0F3D80001F65101E0DCD8040E8D
:1001E000E5EC05F003E00001010EF66F050EE5EC0D
:1001F00005F002E00001F66B050EE66E3DEC14F032
:10020000E552000903E00001F6EC05F0060EE5EC0E
:1002100005F001E1BFD00001F66BF6EC05F000013E
:10022000F56B030EB4D0030EE3190BE1E45109E1C1
:10023000FC0EE66E230E11EC06F0B70EE66E230EF2
:1002400008D0B70EE66E230E11EC06F0AA0EE66E8D
:10025000230E16EC06F004E2C0EC05F00DEC06F0FF
:100260001EEC06F002E24FEC06F021EC06F001E392
:1002700091D080EF19F0040EE3190BE1E45109E18C
:10028000C40EE66E230E11EC06F09D0EE66E230EF4
:1002900008D09D0EE66E230E11EC06F0910EE66E70
:1002A000230E16EC06F004E2C0EC05F00FEC06F0AD
:1002B0001EEC06F002E252EC06F021EC06F06AE2D7
:1002C0000001E56BE66BD70EE16F1E0EE26F1200C8
:1002D0005AEF03F0800EE66E230E11EC06F0710E5D
:1002E000E66E230E56EC06F0D2D821EC06F052E270
:1002F0004CD0050EE3190BE1E45109E1640EE66E02
:10030000230E11EC06F0580EE66E230E08D0580EA0
:10031000E66E230E11EC06F0520EE66E230E16EC7E
:1003200006F006E2C0EC05F00001E16B010EE26FA1
:100330001EEC06F004E2C0EC05F00DEC06F021EC3A
:1003400006F028E20001DF0EE16F040EE26F29EFF4
:1003500005F0D0EF03F0910EE66E230E11EC06F0DF
:1003600024EC06F01EEC06F004E2C0EC05F00FEC05
:1003700006F060EC06F004E2C0EC05F00BEC06F0D1
:1003800021EC06F007E2C0EC05F0010E0001E16F80
:10039000E26B12001200050E0001FA27640EFA5DEE
:1003A00002E3FA6BF92B3C0EF95D02E3F96BF82BD3
:1003B0003C0EF85D02E3F86BF72B12003C0EE66E84
:1003C000230E11EC06F0390EE66E230E56EC06F005
:1003D0000A0E0001F75D09E2F1EC05F0020E19ECDE
:1003E00006F033EC06F0030E03D033EC06F0020EF9
:1003F000C1DB040E19EC06F00A0E0001F85D09E2FB
:10040000F1EC05F0050E19EC06F03AEC06F0060EDC
:1004100003D03AEC06F0050EADDB070E19EC06F042
:100420000A0E0001F95D08E2DCDB080E19EC06F0AB
:1004300041EC06F0090E03D041EC06F0080E9ADB01
:100440000A0E19EC06F00A0E0001FA5D08E2C9DB9B
:100450000B0E19EC06F048EC06F00C0E03D048EC3D
:1004600006F00B0E29EF06F0A7DBE6520001FE5165
:10047000EA6A010FE96E0F0EEA22EFCFDFFFFE29D5
:100480003F0BFE6FDF50E55293D3FDEF05F0010EF9
:100490000001FB1901E1FC5101E012000001FF51D4
:1004A000000804E204D80001FF071200120084DBF8
:1004B000E652DADFDF6EDFCFE6FF58EC12F0E552EE
:1004C000630E0001F31901E1F45101E1D8D0690E86
:1004D000F31901E1F45101E1B6D0680EF31901E11D
:1004E000F45101E1A3D0670EF31901E1F45101E1E8
:1004F0008AD0660EF31901E1F45101E17BD0650E5B
:10050000F31901E1F45163E0640EF31901E1F451D0
:1005100055E00E0EF31901E1F45144E00C0EF3190D
:1005200001E1F45136E00B0EF31901E1F45128E03A
:100530000A0EF31901E1F4511AE0020EF31901E178
:10054000F4510CE0010EF31901E0B2D0F45101E0D6
:10055000AFD0210EDF5C01E0ABD02CD0540EDF5CBD
:1005600002E10A0E89D0210EDF5C26E123D0490E7C
:10057000DF5C02E10B0E80D0210EDF5C1DE11AD0A2
:100580004D0EDF5C02E10C0E77D0210EDF5C14E132
:1005900011D0450EDF5C02E10E0E6ED0210EDF5C45
:1005A0000BE108D03A0EDF5C02E1640E65D0210E4B
:1005B000DF5C02E1020E60D0010E5ED0BBDA01E129
:1005C000F21D3DE0E8DA06C046F1650E54D0B2DA1D
:1005D00001E1F21D34E0F15101014627170EE66EEC
:1005E000E66A4651B9DA02E0660E45D0F90EE66ECB
:1005F000220E3FD09FDA01E1F21D21E0CCDA06C0E5
:1006000047F1670E38D096DA01E1F21D18E0F1519A
:10061000010147273B0EE66EE66A47519DDA02E08C
:10062000680E29D0D40EE66E220E23D083DA01E1C3
:10063000F21D05E0B0DA06C048F1690E1CD01C0EB0
:10064000E66E230E16D076DA01E1F21D0FE0F151CD
:10065000010148273B0EE66EE66A48517DDA02E06A
:10066000630E09D0AF0EE66E220E03D0950EE66E35
:10067000220E8BDA010E0001F36FF46B19D0230EFA
:10068000DF5C16E1010EF36FF46B46C1E6FF020E6C
:10069000A2DA47C1E6FF010E9EDA48C1E6FFE66A2C
:1006A000BBEC16F0E552E5527A0EE66E220E6DDADC
:1006B000E5527ED20001E55102E1010EE61959E052
:1006C000010EE51901E1E65133E0E55101E1E651A2
:1006D00001E01200700EE66E220EA3DA640EE66EE2
:1006E000220EE4DAAEDA15E23E0EE66E220E4DDAA6
:1006F0000F0EE66E220E49DAFF0EE66E210E45DA87
:10070000DD0EE66E210E41DA78DA070E0001E16FA8
:10071000E26BD6DA06E2010E0001E56FE66BE76BED
:10072000E86B8CDA3CE20001E56B010EE66F12002B
:10073000E751E81108E0D10EE66E210E72DA520E92
:10074000E66E230E07D0C70EE66E210E6ADAD10ED2
:10075000E66E210E6BDA04E20001E56B010EE66F36
:100760006DDA03E20001E56BE66B6BDA18E2B4EFD9
:1007700008F0640EE66E220E54DA66DA62DA01E2FE
:100780004CDA9EDA03E20001E56BE66B57DA07E22A
:10079000010E0001E56FE66BE76FE86B12001200D7
:1007A0000001E95102E1010EEA1901E1F2D0370E30
:1007B000E91901E1EA5101E1C3D0360EE91901E17D
:1007C000EA5101E199D0350EE91901E1EA516EE0F3
:1007D000340EE91901E1EA5145E0330EE91901E16E
:1007E000EA511CE0320EE91901E1EA5101E0120080
:1007F000B60EE66E210E15DAA50EE66E210E16DA9D
:1008000005E2320ED1D9330EE96FEA6B17DA04E252
:100810000001E96B010EEA6F090EB5D0320EEB193B
:100820000AE1EC5108E1940EE66E210EFAD9830E2E
:10083000E66E210E07D0830EE66E210EF2D9720EFF
:10084000E66E210EF3D905E2330EAED9340EE96F10
:10085000EA6BF4D905E2330EA7D9320EE96FEA6BE1
:10086000080E91D0330EEB190AE1EC5108E1A50E08
:10087000E66E210ED6D9610EE66E210E07D0610E0E
:10088000E66E210ECED9500EE66E210ECFD905E2CE
:10089000340E8AD9350EE96FEA6BD0D905E2340EF1
:1008A00083D9330EE96FEA6B010E6DD0340EEB196C
:1008B0000AE1EC5108E1720EE66E210EB2D93F0E4C
:1008C000E66E210E07D03F0EE66E210EAAD92E0E3F
:1008D000E66E210EABD905E2350E66D9360EE96F0C
:1008E000EA6BACD905E2350E5FD9340EE96FEA6BDD
:1008F000FB0EE66EE66849D0350EEB190AE1EC51C5
:1009000008E1500EE66E210E8CD91D0EE66E210E0A
:1009100007D01D0EE66E210E84D90C0EE66E210E58
:1009200085D905E2360E40D9370EE96FEA6B86D9D4
:1009300005E2360E39D9350EE96FEA6B000E23D089
:10094000360EEB190AE1EC5108E12E0EE66E210E8F
:1009500068D9FB0EE66E200E07D0FB0EE66E200E69
:1009600060D9F50EE66E200E61D905E2370E1CD96E
:10097000E96B010EEA6F62D905E2370E15D9360E22
:10098000E96FEA6B070EE66EE66A18D8E552E552A3
:1009900012000C0EE66E210E44D9EF0EE66E200E0C
:1009A00085D94CD902E2370E2FD98AD902E2320E0C
:1009B0002BD947D902E20FEF06F01200FDD841D93A
:1009C00041E2EFC014F0F0C015F0FD0EDB5014183A
:1009D00003E1FE0EDB50151835E0FD0EDBCF08F00D
:1009E000FE0EDBCF09F00001EF51085CED6FF05116
:1009F0000958EE6FFD0EDBCFEFF0FE0EDBCFF0F00F
:100A0000020EE66E18EC17F0E5520101456FE85052
:100A1000146E156AE8500001ED250101456F000EC6
:100A2000455D04E2FF0E4503F3CF45F145C1E6FF06
:100A3000020ED1D8010E0001E16FE26B380EE96FB2
:100A4000EA6B06D0FED804E2010E0001E16FE26B12
:100A5000AFD0070E0001EF1901E1F05124E0EF5192
:100A600001E1F0511EE0FB0EEF1902E1E868F01918
:100A700016E0010EEF1901E1F0510FE0080EEF1939
:100A800001E1F05108E0090EEF1901E1F05101E038
:100A90001200320E09D0330E07D0340E05D0350EB9
:100AA00003D0360E01D0370EE96FEA6B120084D8FE
:100AB000300EF36EFE0EDBCFF4FFF350F45C0CE36C
:100AC000FE0EDB50390808E3FE0EDB50D00F156A2E
:100AD000F36E15C0F4FF02D0F368F46869D06CD8E7
:100AE000FD0EDBCF14F0FE0EDBCF15F0FB0EDBCFDF
:100AF00016F0FC0EDBCF17F017501518E8AE02D039
:100B0000153404D01450165C1550175802E2F36ADD
:100B100002D0010EF36EF46A4BD0B4EC0EF0E55245
:100B2000E552E552E5521200E66E33EC14F0E55260
:100B300000081200DFCFE6FFBADFE552F3CFF1F095
:100B4000F4CFF2F00001F31C120015C0E6FF16C04E
:100B5000E6FF17C0E6FF1200E66EE66AC0DFE55268
:100B6000E552E552E552F3CF14F0F4CF15F0F3500F
:100B7000F41012006ED8350EE66E230EE66E1200EB
:100B8000E1C0E3F0E2C0E4F01200E66E50EC13F0D6
:100B9000E552E55212000A0E086E096AF1C00DF026
:100BA000F2C00EF049EF18F00001EB6FEC6B120091
:100BB000E552E7CFD9FF1200D9CFE6FFE1CFD9FF49
:100BC0001200156A166A176A1200E66E33EC14F00A
:100BD000E55200091200E66E0DEC17F0E552E55201
:100BE0001200370EE66E230EE66E1200F76BF86BFE
:100BF000F96BFA6B01014B6B12000001FD6B0001F8
:100C0000FE6B0001FF6B12000001E96FEA6BEB6BFA
:100C1000010EEC6F1200020E48D0050E46D0060EF3
:100C200044D0E66EE66AE66A8DEF05F03FD860EFE5
:100C300006F0E66E010EE66E8DEF05F0040E94EF01
:100C400005F0060E94EF05F04C0EE66E230E56EFFF
:100C500006F0E66E010EE66E66EC0EF0186E060EFD
:100C6000E15E18501200F7C014F0ABDFF7C0E6FFEA
:100C7000A5EF05F0F8C014F0A4DFF8C0E6FFA5EF7B
:100C800005F0F9C014F09DDFF9C0E6FFA5EF05F00F
:100C9000FAC014F096DFFAC0E6FFA5EF05F070DFAA
:100CA000030E0AD06DDF040E07D006D0E66EE66AAA
:100CB000010EE66E8DEF05F00001E16FE26B1200B0
:060CC000050E94EF05F0A3
:0A0CC600D9CFE6FFE1CFD9FF020EFF
:100CD000E126DE6ADD6A6CD8DCEC0CF0BDEC0DF0D0
:100CE000C8D867EC0BF0E10EE66E200EE66E060E3D
:100CF000E66EE66A9EEC0DF0E552E552E552E552ED
:100D0000D00EE66E070EE66E0FD8E552E5520101F1
:100D10000B51FDE00B6BBDEC0DF011EC14F040EC51
:100D200000F0E5EC0DF0F3D7D9CFE6FFE1CFD9FF26
:100D3000040EE126DE6ADD6ADECF14F0DDCF15F0A9
:100D4000FD0EDBCF16F0FE0EDBCF17F01550171897
:100D5000E8AE02D0173404D01650145C1750155862
:100D60001DE2020EDB6A030EDB6A020EDBCF14F01B
:100D7000030EDBCF15F0D890155004E6EE0E145C90
:100D8000000E155806E2020EDB2A030EEEE3DB2A04
:100D9000ECD7DF2A010ED0E3DB2ACED7040EE15CCC
:100DA00002E2E16AE552E16EE552E7CFD9FF1200B7
:100DB000936A956A56EC0CF046EC17F067EC0BF072
:100DC000570EE66E120EE66E2EEC15F0E552E55269
:100DD000AE0EE66E240EE66E44EC15F0E552E552DA
:100DE000660EE66EB70EE66E73EC15F0E552E55250
:100DF000020EE66EE66ACCEC15F0E552E5520A0EFC
:100E0000E66EE66AD8EC15F0E552E5520A0EE66E9B
:100E1000E66AF1EC15F0E552E552E6EC13F082ECEF
:100E200016F010EF12F00F01370E696F3B0E6A6F6C
:100E3000170E6B6F070E6C6F1F0E6D6F0C0E6E6FC3
:100E40000D0E6F6F69CFE6FFE66A0DEC17F0E55205
:100E5000E5526ACFE6FF010EE3DB6BCFE6FF020E41
:100E6000DFDBEAEC0BF0EFEC0BF0F4EC0BF0F9EF5E
:100E70000BF0200EA5EC0BF0220811E0D4DFE66A9F
:100E8000100ECEDBE66A110ECBDBE66A120EC8DB73
:100E9000E66A130EC5DB220EE66E200EC1DB1200E1
:100EA000100EA5EC0BF00F01736F110EA5EC0BF0FB
:100EB0000F01746F120EA5EC0BF00F01756F130E7E
:100EC000A5EC0BF00F01796F1200BEDB146EE5DBB1
:100ED000E66EACDBE66AE66AB0DB6ECF14F0DDDB13
:100EE0006ECFE6FFA3DB030ED5EC0BF0C3EC0BF0EB
:100EF000060ED5EC0BF06CCF14F0CFDB6CCFE6FF19
:100F000095DB090ED5EC0BF0AEEC0BF0E66A010EAA
:100F1000E66E93DBB5EC0BF0030ED9EC0BF0BCECFA
:100F20000BF0060ED9EF0BF08FDB6C51070A24E0B3
:100F3000010A1EE0030A18E0010A12E0070A0CE0A9
:100F4000010A06E0030A1EE1DD0EE66E200E17D050
:100F5000D90EE66E200E13D0D50EE66E200E0FD001
:100F6000D10EE66E200E0BD0CD0EE66E200E07D011
:100F7000C90EE66E200E03D0C50EE66E200EE66E9C
:100F800001EC0CF00A0E0F016B5D06E296DB040E1D
:100F9000E1DBE4DB050E02D0E1DB040ED5EC0BF067
:100FA000C7DB060ED7DB0A0E0F016A5D06E285DBA2
:100FB000070ED0DBDADB080E02D0D7DB070ED5EC4C
:100FC0000BF0B6DB090EC6DB0A0E0F01695D06E207
:100FD00074DB0A0EBFDBD0DB0B0E02D0CDDB0A0EBA
:100FE000E4DB0F017551010A06E0010A0AE1BD0EBA
:100FF000E66E200E03D0B90EE66E200EE66E0D0EE4
:10100000A9DB0F016E510C0A42E0070A3CE0010A1D
:1010100036E0030A30E0010A2AE00F0A24E0010A60
:101020001EE0030A18E0010A12E0070A0CE0010AB8
:1010300006E0030A32E1B50EE66E200E2BD0B10EAB
:10104000E66E200E27D0AD0EE66E200E23D0A90E40
:10105000E66E200E1FD0A50EE66E200E1BD0A10E50
:10106000E66E200E17D09D0EE66E200E13D0990E60
:10107000E66E200E0FD0950EE66E200E0BD0910E70
:10108000E66E200E07D08D0EE66E200E03D0890E80
:10109000E66E200EE66E020E55DB4FDB050E52DBD0
:1010A0000A0E0F016D5D06E248DB060E4BDB6BDBC3
:1010B000070E02D068DB060E7CDB3FDB080E42DB4E
:1010C000140EE66EE66AE66AE66A090EE2DA66EC95
:1010D0000EF0146E060EE15E14506FCF14F0DDDAE0
:1010E0006FCFE6FFA3DA0B0ED9EF0BF0760EE66EAC
:1010F000200EE66E86DBD5DAE66A010EE66E7FDA52
:101100000A0E0F01735D06E2D8DA020E1BDB54DB18
:10111000030E02D051DB020E4CDB0ADB040E12DBA5
:101120000A0E0F01745D06E2C8DA050E0BDB4BDB1D
:10113000060E02D048DB050E3CDBC4DA070E02DBEC
:101140000F017551010A06E0010A0AE1BD0EE66EC3
:10115000200E03D0B90EE66E200EE66E0A0EF2DA0D
:10116000B1DA0D0EA2EF0BF00F0171510B0A01E184
:10117000CFD0010A01E1A9D0030A01E183D0010A1D
:101180005FE00F0A36E0010A0DE0060A01E0E6D052
:10119000B5DA01E1E6D00F017A0501E0E2D0060EF2
:1011A000716F12002BDB03E27CDA040ED3DAA9DACA
:1011B00009E00F016B2994DA05C06BFF05C0E6FF5B
:1011C000020E2EDAA1DA0CE00F016B056B6FE8500E
:1011D000170802E2170E6B6F6BCFE6FF020E20DAE4
:1011E0008DDA03E00F01070E716F91DA01E1B9D0DA
:1011F000B2D004DB03E255DA070EACDA82DA09E09A
:101200000F016A2971DA05C06AFF05C0E6FF010E09
:1012100007DA7ADA0CE00F016A056A6FE8503B08DA
:1012200002E23B0E6A6F6ACFE6FF010EF9D966DA79
:1012300003E00F01080E716F6ADA01E192D08BD0E2
:10124000DDDA02E23FDADDDA5CDA09E00F016C296F
:101250006C6FE850070802E2010E6C6FBBDA54DADB
:1012600009E00F016C056C6FE850070802E2070EF9
:101270006C6FB0DA43DA03E00F01090E716F47DAE1
:1012800070E069D0BBDA03E20CDA060E5BDA39DA19
:1012900009E00F016D296D6FE8501F0802E2010E91
:1012A0006D6F9DDA31DA09E00F016D056D6F010E8A
:1012B0006D5D02E21F0E6D6F92DA20DA03E00F011E
:1012C0000A0E716F24DA4DE046D098DA03E2FAD9BB
:1012D000020E38DA16DA09E00F016E296E6FE85057
:1012E0000C0802E2010E6E6F7FDA0EDA09E00F01E0
:1012F0006E056E6F010E6E5D02E20C0E6E6F74DA9B
:10130000FDD903E00F010B0E716F01DA2AE023D043
:1013100075DA06E26A0EE66E200EE66E090E12DA45
:10132000F0D908E00F016F296F6FE850630801E200
:101330006F6B5FDAE9D909E00F016F056F6FE85055
:10134000630802E2630E6E6F54DAD8D902E0D0D996
:10135000716BDDD906E0CCD9716B1200010E7A6F8A
:10136000706B12000F017051FF0A01E18AD0FC0A74
:1013700061E0010A37E0030A0DE0010A01E0120012
:1013800044DA01E192D00F017A0501E08ED0010E1E
:10139000706F1200FFD903E284D9020ED3D9040E74
:1013A00072D909E00F0173299BD905C073FF05C0ED
:1013B000E6FF100E35D9050E66D90CE00F01730556
:1013C000736FE850170802E2170E736F73CFE6FFD2
:1013D000100E26D91ADA03E00F01020E706F66D9DB
:1013E00064E04CD0D7D903E25CD9050EABD9040E2A
:1013F0004AD909E00F01742977D905C074FF05C0E7
:10140000E6FF110E0DD9050E3ED90CE00F01740553
:10141000746FE8503B0802E23B0E746F74CFE6FF36
:10142000110EFED8F2D903E00F01030E706F3ED902
:101430003CE024D0AFD903E245D90A0E83D9040E8B
:1014400022D907E00F017529010B756FE66E120EA8
:10145000E7D8050E18D90CE00F017505756FE85037
:10146000010802E2010E756F75CFE6FF120ED8D8A3
:10147000CCD902E00F01706919D917E039D9706B26
:10148000120088D906E26A0EE66E200EE66E0A0E9B
:1014900061D9040EF8D803E1050EF5D801E03AD978
:1014A000B4D903E037D90001F56F12000F01010E26
:1014B000491903E14A5101E1010C000C0F010A0E28
:1014C000491903E14A5101E1010C000C0F01010E21
:1014D000511903E1525101E1010C000C0F010A0EF8
:1014E000511903E1525101E1010C000C0F01010EF1
:1014F0004B1901E14C5115E00A0ED8804B55000EF6
:101500004C5510E24BCF14F04CCF15F0030E0D6E7E
:101510000E6A4BCF08F04CCF09F003D903E1155008
:1015200001E1010C000C0F01010E531901E15451AE
:1015300015E00A0ED8805355000E545510E253CFD3
:1015400014F054CF15F0030E0D6E0E6A53CF08F051
:1015500054CF09F0E6D803E1155001E1010C000C6D
:101560000F0173516B5D0AE174516A5D07E16951C6
:1015700005E1750503E17A0501E1010C000C0F019D
:101580007251050A16E0010A05E0040A01E01200A2
:10159000040E0DD0E5DF000906E00F01010E796FA2
:1015A000E66E130E3DD80F01795128E0050E726FDB
:1015B00012007A6B7B29146E140EF1D805C07BFFE4
:1015C0000A0E0F01055C02E2BDEC0DF00F01772B56
:1015D000000E7823900ED8807755010E78550EE2D4
:1015E000010E7A6F796B79CFE6FF130E19D80F01D0
:1015F000776B786BBDEC0DF00F01726B1200B4ECE1
:101600000EF0E552E552E552E55212007629146ECD
:10161000140EC5D805C076FF0F0105500F08120043
:10162000E66E0DEC17F0E552E552120015C0E6FF2C
:1016300016C0E6FF17C0E6FF120066EC0EF0186E4B
:10164000060EE15E18501200E66A18EC17F0E5523B
:101650000F01696F010E79D80F016A6F020E75D8FC
:101660000F016B6F030E71D80F016C6F040E6DD8F4
:101670000F016D6F050E69D80F016E6F060E65D8EC
:101680000F016F6F1200E66E33EC14F0E5520009A3
:101690001200E66E010EE66E1200156A166A176AEF
:1016A0001200730EE66E200EE66E1200060EE66E57
:1016B0003DEC14F0E55200091200C30EE66E200E58
:1016C000E66E12006F0EE66E200EE66E1200E80E59
:1016D000E66E030EE66E94EC06F0E552E55212005B
:1016E000146E180ECFEF0BF0146E3C0ECFEF0BF014
:1016F000BDEC0DF00F01010E7A6F1200D7DE00096C
:101700001200F4DE000912000EDF00091200D6DE1E
:1017100000091200BDEC0DF00F01706B010E7A6F25
:1017200012003EEC19F005C015F0010E041812006D
:10173000C10EE66E200EE66E1200870EE66E200EDB
:10174000E66E1200A6DFFFEF0AF0E66E18EC17F067
:10175000E5521200E66EE66AFFEF0AF06BCF14F076
:101760009CDF6BCFE6FF16EF0BF06ACF14F095DF2E
:101770006ACFE6FF16EF0BF069CF14F08EDF69CF6A
:10178000E6FF16EF0BF06DCF14F087DF6DCFE6FFAD
:1017900016EF0BF07A6BAADC0F0106EF0BF0156E5B
:1017A0000E6E14C009F072EF19F0E66EE66A1DEFD6
:1017B0000BF06FDF1DEF0BF073CF14F06EDF73CF04
:1017C000E6FF16EF0BF074CF14F067DF74CFE6FF7F
:1017D00016EF0BF06CCFE6FF030E10EF0BF06DCFA2
:1017E000E6FF040E10EF0BF06ECFE6FF050E10EFD4
:1017F0000BF06FCFE6FF060E10EF0BF07A6B06EFE3
:101800000BF0E66AE66AFFEF0AF0060E43EF0BF014
:101810001CEC10F07BDB15AE02D01668176820DBDD
:1018200013E289DB49DB04E6050E145C000E155853
:1018300006E2020EDB2A030EF5E3DB2AF3D7DF2AEA
:10184000010EE8E3DB2AE6D7040EE15C02E2E16A7E
:10185000E552E16EBBD2F0DB59DB15AE02D0166863
:101860001768FEDA13E267DB27DB04E6EE0E145C92
:10187000000E155806E2020EDB2A030EF5E3DB2A02
:10188000F3D7DF2A010EE8E3DB2AE6D7040EE15C9A
:1018900002E2E16AE552E16E99D2D4DBF00B6BDB38
:1018A000FE0EDB38F00B811278DA90D2C2DB190E13
:1018B00050DB0F0E8116F80E81160F0E8116300EBA
:1018C0005ADB300E58DB300E56DB818A66DA280E82
:1018D000E66EE3DFE5520C0EE66EDFDFE552E55221
:1018E00075D29DDB010EDB6A81944ADBE76E010E47
:1018F000E7CFDBFF819644DBDF6E010EDB50DF12AA
:101900008196010E51DADF50146E020EE15C02E2A4
:10191000E16AE552E16E145059D28BDBDF6AE1DFF8
:10192000DF6EDFBEFCD7DF50E55250D28BDB811279
:101930008186050E39DA8196050E36DA47D241DA0C
:101940008194050E31DA98DA41D23BDA8184050EB2
:101950002BDA92DA81943AD23BD33AD332DAFD0EC3
:10196000DBCFF6FFFE0EDBCFF7FF0800F5500DE0F2
:10197000FD0EDBCFF6FFDB2AFE0EDBCFF7FF01E328
:10198000DB2A0800F5501BDBEAD720D252DBFD0E24
:10199000DB500F0B146EFE0EDB50010B400DF350AD
:1019A0001424DF6E7F0EDF14800FDF6EDFCFE6FFC3
:1019B000C6DFE552E5520AD2010EE66EC0DFE552FF
:1019C000E66AE66A28EF10F0FCD9050EE126010E62
:1019D000F36EDB6EB0DA040EDB6ADF6ADFCF14F081
:1019E000156A14BE156899DA15501718E8AE02D0BA
:1019F000173404D01650145C175015581FE2FD0E12
:101A0000DBCF14F0FE0EDBCF15F0166A176A15AEA9
:101A100002D016681768D950010FE96EDACFEAFFD5
:101A200014C00BF015C00CF016C00DF017C00EF06E
:101A3000DBDAC5EC18F0E1DADF2AD0D7010EDBCF14
:101A400014F0020EDBCF15F0030EDBCF16F0040E00
:101A5000DBCF17F014C006F015C007F016C008F071
:101A600017C009F0050EE15C02E2E16AE552E16EA1
:101A7000ADD1D5DAFB0EDBCF14F0FC0EDBCF15F0C9
:101A8000FD0EDBCF16F0FE0EDBCF17F01450151055
:101A90001610171003E1300E92DA36D0D950FB0F32
:101AA00014DA01E618DA05E22D0E89DAD950FB0FB7
:101AB000CAD9DE52070EDD6E37DAE8AE02D0143432
:101AC00003D0E750D88014541FE217DA18BE196803
:101AD00071D936DA5EDA08DA0BE0010EDF6EDB046C
:101AE0001C6E1D6A1CBE1D6883D953DA9FD903D0B2
:101AF000DF5002E0300E63DA00DA18BE19685AD9F6
:101B0000D950FB0F6CD9D8D7020EE15C02E2E16A32
:101B1000E552E16E5BD155D9C7D9D950F90F53DAE7
:101B2000EECFE6FFEECFE6FFEECFE6FFEFCFE6FF2C
:101B3000A0DFE552E552E552E55248D142D9B4D989
:101B4000FB0EDBCFE6FFFC0EDBCFE6FF07DFE55247
:101B5000E5523CD136D97CCF14F07DCF15F0040E80
:101B6000D89014361536E806FBE192D9FE0EDBCF8D
:101B7000EFFF7E2B000E7F2329D15BDADF6ADFCFF8
:101B800014F0100EE76E1418E8AE02D0E73402D05D
:101B9000E750145C18E2DFCFE9FFEA6AE9BEEA68C1
:101BA000C10EE926000EEA22200EEF6EDFCFE9FF1C
:101BB000EA6AE9BEEA68D10EE926000EEA22200EA2
:101BC000EF6EDF2ADCD7E55201D133DA0001C051D4
:101BD000030A29E0010A1CE0030A0CE0010A32E1D1
:101BE0003BDA080EDF5C03E2DF50B9D9FAD7000117
:101BF000010E17D0080EE66EE66A09D9080EDF5C02
:101C000004E2080EDF24ABD9F9D70001020E09D097
:101C10000BDA080EDF5C03E2DF50A7D9FAD7000128
:101C2000030EC06F10D0080EE66E010EE66EEFD800
:101C3000080EDF5C04E2080EDF2497D9F9D7000113
:101C4000C06B01D0C06BE552C1D0F3D90001C051C7
:101C5000010A0DE0010A15E1FFD9100EDF5C03E275
:101C6000DF507DD9FAD70001010EC06F0BD0DCD94F
:101C7000100EDF5C03E2DF5078D9FAD70001C06BA9
:101C800001D0C06BE552A2D0D4D9E6D9100EDF5CEA
:101C900003E2DF5064D9FAD7C7D9100EDF5C03E244
:101CA000DF5063D9FAD7E55291D08BD8B3D87CCF27
:101CB00014F07DCF15F0040ED89014361536E806D2
:101CC000FBE1E6D8FC0EDBCFEFFF80D0A8D9A2D88D
:101CD000F90EDBCF14F0FA0EDBCF15F01ED914503D
:101CE00015101610171003E1300E0CD936D0D9504C
:101CF000F90FEBD801E6EFD805E22D0E03D9D95044
:101D0000F90FA1D8DE52070EDD6E0ED9E8AE02D073
:101D1000143403D0E750D88014541FE2EED818BE14
:101D2000196848D80DD940D9DFD80BE0010EDF6E15
:101D3000DB041C6E1D6A1CBE1D685AD835D976D8C6
:101D400003D0DF5002E0300EDDD8D7D818BE1968B6
:101D500031D8D950F90F43D8D8D7020EE15C02E24E
:101D6000E16AE552E16E32D02CD854D8FB0EDBCFBD
:101D7000F6FFFC0EDBCFF7FF0800F5500DE0FB0E81
:101D8000DBCFF6FFDB2AFC0EDBCFF7FF01E3DB2A1C
:101D90000800F550B7D8EAD719D08186010ED9D8F6
:101DA0008196010EA9EF0FF0E66EE66AE66AE66A32
:101DB0002FDD56D118C0E6FF19C0E6FF10D906EF97
:101DC00010F0D9CFE6FFE1CFD9FF1200E552E7CFFF
:101DD000D9FF1200EA22EF50F2D8DF2A1200F3D81E
:101DE000AFD802D9FDEC18F008D9010EDB061200BD
:101DF0001CC0E6FF1DC0E6FFF2D806C018F007C001
:101E000019F008C01AF009C01BF0A0EF0FF020D99C
:101E1000DF6A1200FE0EDB50010B0F017C6F7D6B41
:101E2000FD0EDB500F0B7E6F7F6B1200DBCF09F0D6
:101E3000FDEC18F0EBD8300E1426000E15221622F9
:101E4000172214501200BFD8000EEE6CEF1EEE22C7
:101E5000EF1EEE22EF1EEF22ED52ED52ED52120078
:101E6000D950FB0FB0D8EE50145CEE501558EE5020
:101E70001658EE5017581200FE0EDBCFE6FF56DD67
:101E8000E552FE0EDB38F00BE66E50DDE552120037
:101E9000C10E1426000E152214500F017E25E96E86
:101EA00015507F21EA6E1200FD0EDBCFE6FFFE0E1D
:101EB000DBCFE6FF28EF10F0020EDBCF14F0030EAD
:101EC000DBCF15F0D890155012007DD8D890030EB6
:101ED000EB50000A1200000EEE5C000EEE58000EF1
:101EE000EE58000EEE581200DBCF09F0FDEC18F0B2
:101EF00006500710081009101200010EDB04186EBE
:101F0000196A1200E66E26DEE5521200DECF14F0EA
:101F1000DDCF15F0166A176A1200FB0EDBCF16F044
:101F2000FC0EDBCF17F01200010EDBCF14F0000E19
:101F3000E76E14181200020EDB6A030EDB6A120051
:101F400006C00BF007C00CF008C00DF009C00EF081
:101F50001200E66EE66AE66AE66A7DDC81D0EA6A2D
:101F6000C10FE96E000EEAEF0EF0EA6AD10FE96EDA
:101F7000000EEAEF0EF0811210DF0F0E8116120034
:101F80000F0E12DF0F0E811281860EDF0F0E8114ED
:101F90001200FB0EDBCF06F0FC0EDBCF07F0FD0ED0
:101FA000DBCF08F0FE0E1200F90EDBCF06F0FA0EC2
:101FB000DBCF07F0FB0EDBCF08F0FC0E1200E66E65
:101FC000CCDCE5521200E96EFF0EDA20EA6E120058
:101FD000F8DEFE0EDBCFE6FFB8DCE552F7D60A0EE0
:101FE000E66EE66AF1DC3CD0EECF06F0EECF07F00D
:101FF000EECF08F0EFCF09F0120005C0EDFF04C0EE
:10200000EDFF03C0EDFF02C0EFFF120006C014F0A9
:1020100007C015F008C016F009C017F01200D1DE95
:10202000020EE126DF6A1200E66A010EE66E07EF95
:102030000FF0C7DEE6521200C4DE040EE126DE6AAF
:10204000DD6A1200BEDE0F0E8116FE0EDB5012009E
:102050009DDCE552E5521200E66AE66A07EF0FF0F2
:0A206000E552E552E552E552120088
:06206A00202020200020D0
:102070002020002020002020414C41524D202020D3
:102080004241434B2020002000444543004E4F5620
:10209000004F43540053455000415547004A554CAA
:1020A000004A554E004D415900415052004D415299
:1020B00000464542004A414E004F4E20004F4646E2
:1020C000003A0030005341540046524900544855EC
:1020D0000057454400545545004D4F4E0053554E52
:1020E000004449474954414C20434C4F434B003E28
:1020F0004241434B00204241434B003E5649455428
:102100004E414D20205554432B3037002056494531
:10211000544E414D20205554432B3037003E4C4FF8
:102120004E444F4E2020205554432B303000204C3D
:102130004F4E444F4E2020205554432B3030003E0C
:102140004E4557594F524B20205554432D303500A2
:10215000204E4557594F524B20205554432D303572
:10216000003E5041524953202020205554432B30EB
:102170003100205041524953202020205554432BF8
:102180003031003E4245494A494E4720205554438C
:102190002B30380020544F4B594F202020205554CD
:1021A000432B303900204245494A494E47202055AB
:1021B00054432B3038003E544F4B594F20202020A1
:1021C0005554432B303900205573652055415254E6
:1021D000003E55736520427574746F6E00546865D7
:1021E0002074696D65206E65656420746F2062657A
:1021F0002032342D6820666F726D61740D0A0021E3
:1022000054494D453A48484D4D5353230D0A005407
:102210006F2073796E6368726F6E697A6520746976
:102220006D652C207573696E672073796E746178A3
:1022300020617320666F6C6C6F773A0D0A005765EA
:102240006C636F6D6520746F20416C61726D20430B
:102250006C6F636B20636F6E736F6C65206D656D63
:10226000750D0A002055736520427574746F6E00F9
:102270003E5573652055415254000D0A436F6E66FA
:10228000696775726174696F6E20537563636573F6
:1022900073210D0A000D0A506C6561736520656E2F
:1022A000746572206E756D62657220210D0A000DD5
:1022B0000A5365636F6E64206D75737420626520C8
:1022C000696E2072616E6765205B302C35395D2048
:1022D000210D0A000D0A4D696E757465206D7573C8
:1022E0007420626520696E2072616E6765205B30C4
:1022F0002C35395D20210D0A000D0A486F757220BA
:102300006D75737420626520696E2072616E6765F9
:10231000205B302C32335D20210D0A000D0A506CF9
:102320006561736520656E746572206E756D62659A
:1023300072210D0A003A0030002020002020205396
:10234000544F505741544348202020003E4261637F
:102350006B00204261636B003E576F726C642054C7
:10236000696D65002054696D65204D6F64696679FB
:10237000007761726520746F206D6F646966790003
:10238000506C65617365206F70656E20736F667445
:102390000020576F726C642054696D65003E54696B
:1023A0006D65204D6F64696679002054696D652004
:1023B0006D6F64696679003E54696D657220436C87
:1023C0006F636B002054696D657220436C6F636BA3
:1023D000003E436F756E74657220436C6F636B00D3
:1023E00020416C61726D20436C6F636B006D2073D4
:1023F000652076616F20616C61726D0020436F759E
:102400006E74657220436C6F636B003E416C617249
:102410006D20436C6F636B0073756363657373004A
:10242000B06A810EAF6EAC8AAC94B886AC98AB8EB5
:10243000AB889E9A9D8A9F8A949C948E120069D93B
:10244000040EE126DE6ADD6ADECF14F0DDCF15F082
:1024500097D915501718E8AE02D0173404D016508B
:10246000145C175015581DE2020EDB6A030EDB6A7E
:10247000020EDBCF14F0030EDBCF15F0D890155011
:1024800004E6EE0E145C000E155806E2020EDB2A7E
:10249000030EEEE3DB2AECD7DF2A010ED5E3DB2ABD
:1024A000D3D7040EE15C02E2E16AE552E16E36D177
:1024B00030D99EA8FED7FE0EDB50AD6E9E982ED171
:1024C00028D956D908E054D934D9FD0EDB2AFE0E9E
:1024D000F8E3DB2AF6D722D11CD9050EE126010E3E
:1024E000F36EDB6E020EDB6A030EDB6A040EDB6A40
:1024F000DF6ADFCF14F0156A14BE1568FB0EDBCF60
:1025000016F0FC0EDBCF17F015501718E8AE02D00E
:10251000173404D01650145C175015581FE2FD0EE6
:10252000DBCF14F0FE0EDBCF15F0166A176A15AE7E
:1025300002D016681768D950010FE96EDACFEAFFAA
:1025400014C00BF015C00CF016C00DF017C00EF043
:10255000F4D8C5EC18F0FAD8DF2ACBD7010EDBCFC0
:1025600014F0020EDBCF15F0030EDBCF16F0040ED5
:10257000DBCF17F014C006F015C007F016C008F046
:1025800017C009F0050EE15C02E2E16AE552E16E76
:10259000C5D0BFD8020EE126DF6AFB0EDBCF14F0F8
:1025A000FC0EDBCF15F0ECD81450151016101710D8
:1025B00003E1300EBED86DD0B5D8D890030EEB50E5
:1025C000000A08E6000EEE5C000EEE58000EEE5813
:1025D000000EEE580EE22D0EACD8A4D8000EEE6C14
:1025E000EF1EEE22EF1EEE22EF1EEF22ED52ED5215
:1025F000ED52DE520A0EDD6E010EDBCF14F0000E3E
:10260000E76E1418E8AE02D0143403D0E750D88037
:1026100014543FE2010EDB04186E196A18BE1968E3
:1026200071D861D806500710081009101EE0010E7D
:10263000DF6EDB041C6E1D6A1CBE1D681CC0E6FF3D
:102640001DC0E6FFA4D806C018F007C019F008C0E6
:102650001AF009C01BF047D8A3D8300E1426000E7C
:10266000152216221722145003D0DF5002E0300E3C
:1026700060D8010EDB04186E196A18BE196842D8BA
:1026800051D897D85AD8FDEC18F060D8010EDB0667
:10269000B3D7020EE15C02E2E16AE552E16E3ED0A0
:1026A00038D85DD80CE05BD844D8FD0EDBCFF6FF00
:1026B000DB2AFE0EDBCFF7FFF4E3DB2AF2D72ED0C6
:1026C00028D8E652AE50DF6E0001FD51EA6A010FD4
:1026D000E96E0F0EEA22DFCFEFFFFD293F0BFD6F02
:1026E000FF2BE5521BD065D8FB0EDBCF06F0FC0EAE
:1026F000DBCF07F0FD0EDBCF08F0FE0EDBCF09F0DD
:10270000FDEF18F018C0E6FF19C0E6FF40D8D0EF83
:1027100013F0D9CFE6FFE1CFD9FF1200E552E7CFA2
:10272000D9FF1200D950FB0FE96EFF0EDA20EA6ED6
:102730001200E66EBDDEE5521200EECF06F0EECFDF
:1027400007F0EECF08F0EFCF09F0120005C0EDFF63
:1027500004C0EDFF03C0EDFF02C0EFFF1200FD0E4D
:10276000DBCFF6FFFE0EDBCFF7FF0800F5501200BF
:10277000FD0EDBCFE9FFFE0EDBCFEAFFEF501200CC
:10278000FD0EDBCF16F0FE0EDBCF17F012000A0EA7
:10279000E66EE66AA1DEE552E552E552E552120028
:1027A00006C014F007C015F008C016F009C017F0F5
:1027B000120006C00BF007C00CF008C00DF009C0F5
:0427C0000EF0120005
:0C27C4000F0E946E82681200070E941035
:1027D000946EDF0E9414946E82681200D0D808D9DB
:1027E00001E601D917E2DDD8826EF8D8D1D801E62A
:1027F000FAD80BE2B7D802E1FFD801D01DD9020EFA
:10280000DB2A030EF3E3DB2AF1D7DF2A010EE7E32D
:10281000DB2AE5D7040EE15C02E2E16AE552E16EF3
:10282000D9D0ADD8DBD8010EDE6EDD6ABAD88214FD
:10283000826ED4D8ADD804E6030E145C000E155891
:102840000BE290D802E1D8D801D0F6D8020EDB2AEC
:10285000030EF0E3DB2AEED7040EE15C02E2E16A4C
:10286000E552E16EB7D0A7D8010EEE1804E1ED50A5
:1028700002E1010E01D0000EADD09DD8320EEE184F
:1028800004E1ED5002E1010E01D0000EA3D077D893
:10289000D7D8FD0EDBCF16F0FE0EDBCF17F01550AC
:1028A0001718E8AE02D0173404D01650145C175035
:1028B000155813E293D86CD804E6EE0E145C000EA3
:1028C000155806E2020EDB2A030EF5E3DB2AF3D7E6
:1028D000DF2A010EDDE3DB2ADBD7040EE15C02E236
:1028E000E16AE552E16E76D04AD882D801E67BD81B
:1028F00022E257D8826E72D84BD801E674D80DE226
:102900009BD830D804E11ED8010EEE6EED6A020E9F
:10291000DB2A030EF1E3DB2AEFD78250816EE80E4B
:10292000E66E030EE66EB3DFE552E552DF2A010ED6
:10293000DCE3DB2ADAD7040EE15C02E2E16AE5526D
:10294000E16E48D07DD8D89014361536D89014361C
:102950001536020EDB501424E96E030EDB501520F1
:1029600025EF15F0020EDBCFE9FF030EDBCFEAFF08
:10297000650EE9260F0EEA22EF5082141200D9CF1D
:10298000E6FFE1CFD9FF040EE126DE6ADD6A120020
:10299000020EDBCF14F0030EDBCF15F0D8901550EC
:1029A0001200DECFE9FFDDCFEAFF610EE9260F0E50
:1029B000EA22EF1C1200D9CFE6FFE1CFD9FFFE0ECD
:1029C000EA6ADB34FE0BEA36E96E410EE9260F0EA9
:1029D000EA221200E552E7CFD9FF1200020EDB6AAD
:1029E000030EDB6A1200040E145C000E1558120070
:1029F00027D8D89015501200DECF18F0DDCF19F08F
:102A0000D89018361936D89018361936020EDB5081
:102A10001824E96E030EDB50192017D8EECF16F0FC
:102A2000EFCF17F0010E1626000E17228BDF16C00F
:102A3000EEFF17C0EDFF120085DFEE6AED6A1200AF
:102A4000DECF14F0DDCF15F01200EA6ED890E93633
:0C2A5000EA36410EE9260F0EEA221200C1
:042A5C00F1D8D59E3A
:102A6000FD0EDBCF00F1FE0EDBCF01F1D59C05D9C9
:102A7000D59AD586F28AF294F184D58EE6D0D59E89
:102A80001200FBD8D58E1200DBD8CD90FD0EDBCF27
:102A900002F1FE0EDBCF03F1F7D89D809E909F9050
:102AA000CD8ECD8CCD98CD9ACD96CD92CD80CDD0FA
:102AB000EBD8CD801200CD901200C2D8CA94CC6A57
:102AC000FE0EDB500101046F056BCB6E9D829E9262
:102AD0009F92CA90CA92CA84B8D004C1CBFFCA845C
:102AE0001200CA941200ACD8B190FD0EDBCF06F1F3
:102AF000FE0EDBCF07F1CFD80750B36ECCD8B5D8D8
:102B0000B26EA082A192A292B18EB198B19AB19206
:102B1000B1809BD0C0D80350B26EBDD89ED8B36EE2
:102B2000B1801200B19012000101102B000E112390
:102B30001851105D1951115904E3106B116B010EFE
:102B4000086F12000101122B000E13231A51125D9F
:102B50001B51135904E3126B136B010E096F120022
:102B60000101142B000E15231C51145D1D51155924
:102B700004E3146B156B010E0A6F12000101162B92
:102B8000000E17231E51165D1F51175904E3166BD3
:102B9000176B010E0B6F120053D8FD0EDBCF18F12F
:102BA000FE0EDBCF19F10101106B116B086B4DD0DC
:102BB00047D8FD0EDBCF1AF1FE0EDBCF1BF1050E61
:102BC0000D6E0E6A1AC108F01BC109F0F6EC17F081
:102BD00008C01AF109C01BF10101126B136B096BDC
:102BE00034D02ED8FD0EDBCF1EF1FE0EDBCF1FF151
:102BF0000A0E0D6E0E6A1EC108F01FC109F0F6EC38
:102C000017F008C01EF109C01FF10101166B176B08
:102C10000B6B1BD01C6A1A50175C146E1B50185893
:102C2000156E1C501958166E0C6A010E0D6E0E6A48
:102C300014C007F015C008F016C009F01CEF18F01A
:102C4000D9CFE6FFE1CFD9FF1200E552E7CFD9FF98
:102C5000120017681868196A120007C014F008C03B
:102C600015F009C016F00750120003C014F004C09C
:102C700015F005C016F00350120014D80350D66E9C
:102C800011D8EBDFD76E120014D80750CF6E11D8D1
:102C9000ECDFCE6E1200DDDF06C11AF007C11BF0BB
:102CA0000AEF16F0D6DF00C11AF001C11BF00AEFDF
:102CB00016F0CFDF02C11AF003C11BF00AEF16F0C5
:102CC000BED8020EE126FE0EDB500F0BDF6EFE0EAD
:102CD000DB380F0B0A0DBCD802E2E16AE552E16E67
:102CE0001450B2D0ACD8020EE126BBD80550DF6E2E
:102CF000B8D80950100DACD802E2E16AE552E16E95
:102D00001450A2D094869488C79EC79CC690C69241
:102D1000C694C686310EC86EC68A120090D89E969A
:102D2000FE0EDB50D00FC96E9EA6FED78DD09E96AC
:102D3000C5809EA6FED712009E96C5849EA6FED78D
:102D400012007DD89E96FE0EDB50C96E9EA6FED761
:102D50007BD09E96C5869EA6FED7C95012009E9631
:102D6000C59AC5889EA6FED712009E96C58AC588BC
:102D70009EA6FED7120063D87CD8010E506FE85093
:102D800004E0C550400BFAE0F8D779D8010E506F37
:102D9000E85004E0C550400BFAE0F8D7FD0EDBCF59
:102DA000E6FFA0DFE552E66ECCDFE5520101010E41
:102DB000506FE85004E0C550400BFAE0F8D7BCDF94
:102DC00043D03DD8E65255D8010E506FE85004E08C
:102DD000C550400BFAE0F8D752D8010E506FE850BA
:102DE00004E0C550400BFAE0F8D7A1DF010EE66E13
:102DF00095DFE5520101010E506FE85004E0C55027
:102E0000400BFAE0F8D7A5DFDF6EDFCFE6FF58DF33
:102E1000E552DF6EDF50E55217D011D8FD0EDBCF43
:102E2000E6FFFE0EDBCFE6FFA6DFE552E5520CD053
:102E300006D8FE0EDBCFE6FFC4DFE55205D0D9CFC2
:102E4000E6FFE1CFD9FF1200E552E7CFD9FF12002C
:102E5000010EF3CFDBFFDB50DF24146E020EE15CCA
:102E600012000A0E146E0E6EFE0EDBCF09F072EF2A
:102E700019F05DDFE66A52DFE55201011200FE0E35
:0C2E8000DBCFE6FF5EDFE552010112002F
:042E8C00F28ED08E64
:102E9000F28C1200F19CF292F2881200D8CFE4FF7B
:102EA000E0CFE4FFE46E65D800EE00F0140EE80415
:102EB00003E3EECFE4FFFBD700EE14F00A0EE804C4
:102EC00003E3EECFE4FFFBD7E652F2B47AD89EB02C
:102ED0007FD8A1B284D8F2B2F2929EBA9E9AE552FD
:102EE00000EE1DF00A0EE80403E3E5CFEDFFFBD78B
:102EF00000EE13F0140EE80403E3E5CFEDFFFBD77B
:102F00004DD8E550E5CFE0FFE5CFD8FF100031D830
:102F100000EE00F0140EE80403E3EECFE4FFFBD76D
:102F200000EE14F00A0EE80403E3EECFE4FFFBD753
:102F3000E652F2B446D89EB04BD8A1B250D8F2B205
:102F4000F2929EAA03D060EC13F09E9AE55200EE36
:102F50001DF00A0EE80403E3E5CFEDFFFBD700EE1A
:102F600013F0140EE80403E3E5CFEDFFFBD716D80A
:102F70001100DACFE4FFE2CFDAFFE9CFE4FFEACFD6
:102F8000E4FFF6CFE4FFF7CFE4FFF5CFE4FFF3CFA4
:102F9000E4FFF4CFE4FFFACFE4FF1200E5CFFAFF3D
:102FA000E5CFF4FFE5CFF3FFE5CFF5FFE5CFF7FF82
:102FB000E5CFF6FFE5CFEAFFE5CFE9FFE5CFDAFFA2
:102FC00012003FEC15F0F29441EC15F094EF15F07F
:102FD0005BEC15F09E9058EC15F0A2EF15F092EC1A
:0C2FE00015F0A1928AEC15F0BEEF15F080
:042FEC00006A0EAEBB
:102FF000FFEF17F00D6C0E1EE86A0E22001E09AEE0
:1030000007EF18F0086C091EE86A0922001E3EEC62
:1030100019F009BE17EF18F000AE000C086C091E7D
:10302000E86A0922046C051EE86A0522000C00BE4D
:103030000EEF18F00188FF0C006A0EAE27EF18F0B3
:103040000C6C0D1E0E1EE86A0D220E22001E09AE2B
:1030500031EF18F0076C081E091EE86A08220922E1
:10306000001E21EC19F009BE44EF18F000AE000C70
:10307000076C081E091EE86A08220922036C041E58
:10308000051E04220522000C00BE38EF18F001884E
:10309000FF0C09C013F008C012F008500D02F4CF65
:1030A00007F0F3CF06F009500E02F4CF09F0F3CF8A
:1030B00008F00D02F3500726F4500822E86A0922AE
:1030C00012500E02F3500726F4500822E86A092233
:1030D0000EAE6FEF18F01250085E1350095A13AE7F
:0C30E000000C0D50085E0E50095A000C48
:0430EC001E0EF66E50
:1030F000000EF76E000EF86E01010900F550406FEA
:103100000900F550416F03E1406701D03DD009004F
:10311000F5503B6F0900F5503C6F0900F5503D6FCD
:1031200009000900F550E96E0900F550EA6E090042
:1031300009000900F5503E6F0900F5503F6F090086
:103140000900F6CF42F1F7CF43F1F8CF44F13BC18C
:10315000F6FF3CC1F7FF3DC1F8FF01013E5302E11C
:103160003F5307E00900F550EE6E3E07F8E23F07D7
:10317000F9D742C1F6FF43C1F7FF44C1F8FF01018F
:0A3180004007000E415BBFD71200AC
:06318A0006500B02F3CF1A
:1031900002F0F4CF03F00C02F3500326000EF420EB
:1031A000046E06500D02F3500426000EF420056E46
:1031B00006500E02F350052607500B02F35003266B
:1031C000F4500422000E052207500C02F35004268E
:1031D000F450052207500D02F350052608500B024B
:1031E000F3500426F450052208500C02F350052633
:0A31F00009500B02F35005261200EF
:0631FA00056A046A036A85
:10320000026A200EE76ED890063607360836093671
:1032100002360336043605360B50025C0C50035858
:103220000D5004580E50055809E30B50025E0C5027
:10323000035A0D50045A0E50055A062AE72EE4D7B9
:0232400012007A
:0E324200056A046A036A180EE76ED890073614
:10325000083609360336043605360C50035C0D502B
:1032600004580E50055807E30C50035E0D50045AE5
:0C3270000E50055A072AE72EEAD712007C
:04327C00056A046A71
:10328000100EE76ED89008360936043605360D5014
:10329000045C0E50055805E30D50045E0E50055AAF
:0832A000082AE72EF0D7120006
:0832A800800EF36E00EE00F051
:1032B0000F0E01D81200EA6002D0EE6AFCD7F3507C
:0832C000E9601200EE6AFCD780
:0832C8001EEE00F02EEE00F0F6
:1032D000F86A019C76EC18F003EC00F063EC06F061
:0432E000FBD7120006
:0C32E400056A080EE76ED8900936053622
:1032F0000E50055C02E3056E092AE72EF7D712008F
:10330000180EE66E240EE66E50EC13F0E552E55210
:023310001200A9
:0E3312000000000000000000000000000000AD
:10332000000000000000000000000100010001009A
:0233300001009A
:0E333200010000000000000032003200070021
:0E3340000700FFFF0100000000000000010078
:02334E0000007D
:10335000000000000000000000000000000000016C
:01336000006C
:0F336100000000000000000010101010101010ED
:103370001018181818181818181C1C1C1C1C1C1CB9
:103380001C1E1E1E1E1E1E1E1E1F1F1F1F1F1F1F58
:103390001F0000000000000000000000000000000E
:1033A000000000000000000000000000000000001D
:1033B000000000000000000000000000000000000D
:0233C00000000B
:0E33C200000000D00022222207250910000181
:0D33D00000000000000000000000000000F0
:0333DD00000000ED
:1033E00000000000000000000000000000000000DD
:1033F000000000000000000000000000001020405D
:05340000800102040838
:020000040030CA
:0100010002FC
:0100020003FA
:010003001EDE
:010005008179
:010006008178
:010008000FE8
:01000900C036
:01000A000FE6
:01000B00E014
:01000C000FE4
:01000D0040B2
:00000001FF
