:020000040000FA
:060000001AEF1FF01200D0
:020006001200E6
:060008003DEF1DF01200A7
:02000E000000F0
:0100100000EF
:0400110000000000EB
:0600180004EF1DF01200D0
:02001E000800D8
:10002000483F000000010000280000002D3F0000B4
:10003000E10000001B00000011000000650100004D
:1000400004000000CC3E00008000000061000000C1
:10005000B93E000048010000130000008C3E000083
:10006000410F00002D0000006C3E00002801000040
:10007000200000000E0000006901000003000000E5
:100080000F01415102E1010E421901E161D1080E57
:10009000411901E1425101E159D1070E411901E134
:1000A000425101E125D1090E411901E1425101E11D
:1000B00010D1060E411901E1425101E108D1050EAE
:1000C000411901E1425101E1DAD0280E411901E163
:1000D000425101E1D1D0040E411901E1425101E147
:1000E000A0D01E0E411901E1425172E0030E4119E8
:1000F00001E1425147E0140E411901E1425137E05C
:10010000020E411901E1425115E0010E411901E1D0
:10011000425101E0120075EC0CF0B4EC0FF0DDEC94
:100120000AF001E330D1020EA5EC0AF0010E436F94
:10013000446B12007F0EE66E2F0ED0EC0AF0700EAC
:10014000E66E2F0ED5EC0AF002E21BEC0BF0DDECB4
:100150000AF004E2140E0F01416F426BDAEC0AF070
:1001600001E311D10F01416B010E426F120064ECEB
:100170000DF0B2EC0EF00F01655101E104D1656B99
:10018000020EFED0020E43190BE1445109E1630E49
:10019000E66E2F0ED0EC0AF0540EE66E2F0E08D04D
:1001A000540EE66E2F0ED0EC0AF0470EE66E2F0EC0
:1001B000D5EC0AF002E21EEC0BF0DAEC0AF002E2F7
:1001C00021EC0BF0DDEC0AF001E3DDD01E0ED7D000
:1001D000EED80F01675101E0D7D8040E74EC0AF095
:1001E00003E00F01010E676F050E74EC0AF002E0E8
:1001F0000F01676B060EE66EF3EC19F0E55200098D
:1002000003E00F01A6EC0AF0060E74EC0AF001E11F
:10021000BAD00F01676BA6EC0AF00F01656B030EF5
:10022000AFD0030E43190BE1445109E1700EE66EA5
:100230002F0ED0EC0AF03A0EE66E2F0E08D03A0ED2
:10024000E66E2F0ED0EC0AF02D0EE66E2F0ED5ECDA
:100250000AF004E242EC0AF0C9EC0AF0DAEC0AF027
:1002600002E21BEC0BF0DDEC0AF001E38CD0280E6F
:10027000A5EC0AF0496B1200EFD8B5EF02F0040EBE
:1002800043190BE1445109E1470EE66E2F0ED0EC05
:100290000AF0200EE66E2F0E08D0200EE66E2F0E0E
:1002A000D0EC0AF0140EE66E2F0ED5EC0AF002E246
:1002B00024EC0BF0DAEC0AF002E21EEC0BF0DDECC1
:1002C0000AF061E20F01456B466B060E59D098EFBC
:1002D00006F0030EE66E2F0ED0EC0AF0F40EE66E7A
:1002E0002E0E2FEC0BF06FDADDEC0AF04CE246D06C
:1002F000050E43190BE1445109E12D0EE66E2F0E58
:10030000D0EC0AF0E80EE66E2E0E08D0E80EE66E8F
:100310002E0ED0EC0AF0E20EE66E2E0ED5EC0AF0B0
:1003200006E242EC0AF00F01416B010E426FDAEC7B
:100330000AF004E242EC0AF0C9EC0AF0DDEC0AF043
:1003400022E2080EA5EC0AF0A0EF08F035EF07F066
:10035000140EE66E2F0ED0EC0AF0EBEC0AF0DAEC9D
:100360000AF002E224EC0BF036EC0BF002E221EC96
:100370000BF0DDEC0AF007E242EC0AF0010E0F018F
:10038000416F426B12001200050E0F016B27640EC5
:100390006B5D02E36B6B6A2B3C0E6A5D02E36A6B7A
:1003A000692B3C0E695D02E3696B682B1200CC0E71
:1003B000E66E2E0ED0EC0AF010EC0BF00A0E0F01D8
:1003C000685D09E27AEC0AF0020ED8EC0AF0F0EC73
:1003D0000AF0030E03D0F0EC0AF0020E0CEC0BF066
:1003E000040E39EC0BF00F01695D09E27AEC0AF0BA
:1003F000050ED8EC0AF0F7EC0AF0060E03D0F7EC85
:100400000AF0050E0CEC0BF0070E39EC0BF00F01A7
:100410006A5D09E27AEC0AF0080ED8EC0AF0FEEC0C
:100420000AF0090E03D0FEEC0AF0080E0CEC0BF0FB
:100430000A0E39EC0BF00F016B5D09E27AEC0AF061
:100440000B0ED8EC0AF005EC0BF00C0E03D005EC0B
:100450000BF00B0E8CEF0AF0B40EE66E2E0ED0EC05
:100460000AF010EC0BF00F01605104E0AF0EE66EE5
:100470002E0E03D0AB0EE66E2E0EE66E0C0E39EC91
:100480000BF00F0158AF02D0D89003D0575D000E8B
:10049000585913E27AEC0AF0010EE66EE66EE2ECD1
:1004A00009F090EC0AF015AE02D016681768E0EC7F
:1004B0000AF0020EE66E010E0AD090EC0AF015AEBC
:1004C00002D016681768E0EC0AF0010EE66E29EC1F
:1004D0000AF0030E39EC0BF00F015AAF02D0D8909E
:1004E00003D0595D000E5A590FE27AEC0AF0040E5F
:1004F000D8EC0AF0ADEC0AF015AE02D01668176819
:10050000E0EC0AF0050E09D0ADEC0AF015AE02D011
:1005100016681768E0EC0AF0040E0CEC0BF0060EFF
:1005200039EC0BF00F015CAF02D0D89003D05B5DCB
:10053000000E5C590FE27AEC0AF0070ED8EC0AF0D4
:10054000B4EC0AF015AE02D016681768E0EC0AF0B9
:10055000080E09D0B4EC0AF015AE02D01668176880
:10056000E0EC0AF0070E8CEF0AF00F014951040A83
:1005700001E1EFD0070A01E19CD0010A6EE0030A15
:1005800040E0010A01E012001AEC0AF007E297ECE1
:100590000AF0010EE66EE66EE2EC09F0DAEC0AF023
:1005A0000DE20F01572B000E5823583507E2575123
:1005B0001708000E585502E2576B586B36EC0BF0DB
:1005C00019E20F015707000E585B90EC0AF015AEC8
:1005D00002D016681768E0EC0AF07FEC18F0E552DC
:1005E000E552E552E5520F01800E581503E0170E53
:1005F000576F586BDDEC0AF001E3CFD00F01010E0D
:10060000A6D01AEC0AF005E297EC0AF0040ED8EC3A
:100610000AF0DAEC0AF00DE20F01592B000E5A2312
:100620005A3507E259513B08000E5A5502E2596B00
:100630005A6B36EC0BF00AE20F015907000E5A5BB9
:10064000800E5A1503E03B0E596F5A6BDDEC0AF031
:1006500001E3A3D00F01020E7AD01AEC0AF005E2F2
:1006600097EC0AF0070ED8EC0AF0DAEC0AF00DE28B
:100670000F015B2B000E5C235C3507E25B513B08EE
:10068000000E5C5502E25B6B5C6B36EC0BF00AE231
:100690000F015B07000E5C5B800E5C1503E03B0EF8
:1006A0005B6F5C6BDDEC0AF001E377D00F01030EAA
:1006B0004ED0DAEC0AF003E20F01010E606F36EC67
:1006C0000BF002E20F01606B0F01605130E0050E8C
:1006D0005D27000E5E23D8905E5104E62C0E5D5D12
:1006E000010E5E590CE35D6B5E6B5C3508E25B519D
:1006F0000008000E5C5503E25B07000E5C5B5B517B
:100700005C1109E159515A1106E03B0E5B6F5C6BBD
:100710005907000E5A5B59515A1109E157515811A6
:1007200006E05707000E585B3B0E596F5A6B575146
:10073000581107E159515A1104E15B515C1101E173
:10074000606BDDEC0AF029E20F01606B040E496F6B
:1007500012001AEC0AF009E2A60EE66E2E0EE66E04
:100760000C0EE66EE66AE2EC09F0040E74EC0AF098
:1007700004E1050E74EC0AF002E00F010CD0DDEC90
:100780000AF00BE2040EA5EC0AF0576B586B596B9C
:100790005A6B5B6B5C6B496B1200120083EC0AF0C6
:1007A000E65201016A51EA6A010FE96E0F0EEA2270
:1007B000EFCFDFFF6A293F0B6A6FDF50E5527FEF13
:1007C0000AF0BBEF0AF0010E0F016C1901E16D5147
:1007D00001E0120001016B51000804E204D801019C
:1007E0006B071200120083EC0AF0E652D7DFDF6ECF
:1007F000DFCFE6FF0EEC18F0E552630E0F01611932
:1008000001E1625101E1EAD0690E611901E1625131
:1008100001E1C0D0680E611901E1625101E1ABD084
:10082000670E611901E1625101E190D0660E611914
:1008300001E1625101E17FD0650E611901E1625170
:1008400065E0640E611901E1625155E00E0E611917
:1008500001E1625144E00C0E611901E1625136E0A0
:100860000B0E611901E1625128E00A0E611901E1E4
:1008700062511AE0020E611901E162510CE0010EB1
:10088000611901E0C7D0625101E0C4D0210EDF5CE4
:1008900001E0C0D02CD0540EDF5C02E10A0E9BD0E8
:1008A000210EDF5C26E123D0490EDF5C02E10B0E56
:1008B00092D0210EDF5C1DE11AD04D0EDF5C02E10B
:1008C0000C0E89D0210EDF5C14E111D0450EDF5CE7
:1008D00002E10E0E80D0210EDF5C0BE108D03A0E53
:1008E000DF5C02E1640E77D0210EDF5C02E1020ED4
:1008F00072D0010E70D008EC0AF001E1531D46E001
:100900005BEC0AF006C070FF650E64D008EC0AF0DC
:1009100001E1531D3BE052510F017027170EE66EA7
:10092000E66A705127EC0BF002E0660E53D06A0EB7
:10093000E66E2E0E43D008EC0AF001E1531D26E0CE
:100940005BEC0AF006C071FF670E44D008EC0AF0B9
:1009500001E1531D1BE052510F0171273B0EE66E62
:10096000E66A715127EC0BF002E0680E33D02F0ECF
:10097000E66E2E0E23D008EC0AF001E1531D06E0CE
:100980005BEC0AF006C072FF690E24D08D0EE66E95
:100990002E0E1DD008EC0AF001E1531D15E0525156
:1009A0000F0172273B0EE66EE66A725127EC0BF0E0
:1009B00002E0630E0FD00A0EE66E2E0E2FEC0AF048
:1009C000540EE66E2E0E03D0F00EE66E2D0E2FECBA
:1009D0000AF0010E0F01616F626B1CD0230EDF5C09
:1009E00019E1010E616F626B70CFE6FF020E3CEC05
:1009F0000AF071CFE6FF010E3CEC0AF072CFE6FF81
:100A0000E66A71EC1CF0E552E552D00EE66E2D0E52
:100A10002FEC0AF0630E0F01631901E1645101E14B
:100A20006BD1740E631901E1645101E13DD1760E81
:100A3000631901E1645101E1D1D0750E631901E13F
:100A4000645101E1BDD0730E631901E1645101E10C
:100A500091D0720E631901E1645101E17AD06F0EF9
:100A6000631901E1645167E06E0E631901E164519D
:100A700055E06D0E631901E1645144E06C0E631999
:100A800001E1645136E06B0E631901E1645128E025
:100A90006A0E631901E164511AE0020E631901E163
:100AA00064510CE0010E631901E040D1645101E092
:100AB0003DD1210EDF5C01E039D12CD0440EDF5C4A
:100AC00002E16A0E16D1210EDF5C26E123D0410E31
:100AD000DF5C02E16B0E0DD1210EDF5C1DE11AD04F
:100AE000540EDF5C02E16C0E04D1210EDF5C14E1D8
:100AF00011D0450EDF5C02E16D0EFBD0210EDF5CF4
:100B00000BE108D03A0EDF5C02E16E0EF2D0210E4E
:100B1000DF5C02E1020EEDD0010EEBD0FDEC09F03E
:100B200001E1551D23E064EC0AF006C075FF07C023
:100B300076FF6F0EDDD0FDEC09F001E1551D16E0EA
:100B400054510F0175270F0155510F017623720E75
:100B5000CFD0FDEC09F001E1551D08E064EC0AF08E
:100B600006C077FF07C078FF730EC2D08D0EE66E09
:100B70002E0EBCD0FDEC09F001E1551D01E1B3D012
:100B800054510F0177270F0155510F0178230C0E97
:100B9000E66EE66A77CFE6FF78CFE6FF13EC0AF061
:100BA00006E00F017751781102E0750EA1D0AC0E6E
:100BB000E66E2D0E2FEC0AF0540EE66E2E0E96D039
:100BC000FDEC09F001E1551D01E18DD064EC0AF066
:100BD00006C079FF07C07AFF760E8AD0FDEC09F0D7
:100BE00001E1551D01E17FD054510F0179270F011B
:100BF00055510F017A2379517A1104E1960EE66E70
:100C00002D0E93D035EC0AF0F350F4100CE10F01E7
:100C10007A3509E279511E08000E7A5504E2740E05
:100C2000E66E2D0E5BD035EC0AF0010EF3180EE1E6
:100C300015500CE10F017A3509E279511F08000EB9
:100C40007A5504E23C0EE66E2D0E48D035EC0AF0E3
:100C5000020EF31811E115500FE147EC0AF00CE118
:100C60000F017A3509E279511D08000E7A5504E228
:100C70001A0EE66E2D0E32D035EC0AF0020EF31885
:100C800011E115500FE147EC0AF00CE00F017A3545
:100C900009E279511C08000E7A5504E2F80EE66E5E
:100CA0002C0E1CD0740E24D0A8DB01E1551D1BE0D6
:100CB00054CF7BFF55CF7CFF070EE66EE66A54CF1C
:100CC000E6FF55CFE6FFAFDB06E00F017B517C115D
:100CD00002E0630E0DD0D60EE66E2C0EC0DB5E0E6B
:100CE000E66E2D0E03D0F00EE66E2D0EB8DB010E73
:100CF0000F01636F646B1AD0230EDF5C17E1010EE6
:100D0000636F646B75CFE6FF060EB6DB77CFE6FF49
:100D1000050EB2DB79CFE6FF040EAEDB7BCFE6FF3C
:100D2000030EAADBB60EE66E2C0E99DBE552E7D376
:100D30000F01455102E1010E461901E17ED0030E7B
:100D4000451901E146516BE0010E451901E146519B
:100D500040E0455101E1465101E01200AC0EE66E63
:100D60002C0ED0EC0AF0A00EE66E2C0E2FEC0BF041
:100D7000DDEC0AF01DE2780EE66E2C0E70DB470EFD
:100D8000E66E2C0E6CDB370EE66E2C0E68DB150E55
:100D9000E66E2C0E64DBE40EE66E2B0E60DBD30EEB
:100DA000E66E2B0E5CDBE7DB090E0F01416F426B39
:100DB00036EC0BF006E2010E0F01456F466B476BF8
:100DC000486BDAEC0AF050E20F01456B010E466FFA
:100DD00012004751481108E0C70EE66E2B0EE0DB0B
:100DE000E20EE66E2E0E07D0BD0EE66E2B0ED8DBA1
:100DF000C70EE66E2B0ED9DB04E20F01456B010E28
:100E0000466FD8DB03E20F01456B466BD6DB2CE265
:100E1000030E0F01456F466B010E566F120075EC05
:100E20000CF0A2EC0DF00F0166511EE0456B466B15
:100E3000666B050E416F426B1200A00EE66E2C0E23
:100E4000AFDBC9DBBADB01E2A4DB36EC0BF003E27B
:100E50000F01456B466BAEDB07E2010E0F01456FDC
:100E6000466B476F486B120012000F014A5102E1B6
:100E7000010E4B1901E1F2D0370E4A1901E14B5135
:100E800001E1C3D0360E4A1901E14B5101E199D07D
:100E9000350E4A1901E14B516EE0340E4A1901E159
:100EA0004B5145E0330E4A1901E14B511CE0320E23
:100EB0004A1901E14B5101E01200AC0EE66E2B0E17
:100EC0006FDB9B0EE66E2B0E70DB05E2320E20DB35
:100ED000330E4A6F4B6B6EDB04E20F014A6B010E5F
:100EE0004B6F090EB5D0320E4C190AE14D5108E195
:100EF0008A0EE66E2B0E54DB790EE66E2B0E07D0B3
:100F0000790EE66E2B0E4CDB680EE66E2B0E4DDB7B
:100F100005E2330EFDDA340E4A6F4B6B4BDB05E214
:100F2000330EF6DA320E4A6F4B6B080E91D0330E49
:100F30004C190AE14D5108E19B0EE66E2B0E30DB99
:100F4000570EE66E2B0E07D0570EE66E2B0E28DBE3
:100F5000460EE66E2B0E29DB05E2340ED9DA350E8D
:100F60004A6F4B6B27DB05E2340ED2DA330E4A6F41
:100F70004B6B010E6DD0340E4C190AE14D5108E156
:100F8000680EE66E2B0E0CDB350EE66E2B0E07D0D0
:100F9000350EE66E2B0E04DB240EE66E2B0E05DB03
:100FA00005E2350EB5DA360E4A6F4B6B03DB05E210
:100FB000350EAEDA340E4A6F4B6BFB0EE66EE6680A
:100FC00049D0350E4C190AE14D5108E1460EE66E46
:100FD0002B0EE6DA130EE66E2B0E07D0130EE66E1E
:100FE0002B0EDEDA040EE66E2B0EDFDA05E2360E8D
:100FF0008FDA370E4A6F4B6BDDDA05E2360E88DA90
:10100000350E4A6F4B6B000E23D0360E4C190AE199
:101010004D5108E1240EE66E2B0EC2DAF50EE66E97
:101020002A0E07D0F50EE66E2A0EBADAEF0EE66E3D
:101030002A0EBBDA05E2370E6BDA4A6B010E4B6FF4
:10104000B9DA05E2370E64DA360E4A6F4B6B070EDB
:10105000E66EE66A19D8E552E5521200040EE66E15
:101060002B0E9EDAE90EE66E2A0EF9DAA3DA02E218
:10107000370E88DAFBDA02E2320E84DA9EDA03E215
:10108000070EA5EF0AF012003EDA97DA52E250CFCF
:1010900014F051CF15F0FD0EDB50141803E1FE0ED5
:1010A000DB50151846E0FD0EDBCF08F0FE0EDBCF5F
:1010B00009F00F015051085C4E6F515109584F6FA4
:1010C000FD0EDBCF50FFFE0EDBCF51FF020E34DAF8
:1010D0000F016E6F6F6BE8500F014E250F016E6FA1
:1010E0006F510F014F210F016F6F800E6F1508E0D8
:1010F000180E6E256E6F000E6F216F6FE66A0DD0B1
:101100006F350DE26E511708000E6F5508E2180E8C
:101110006E5F000E6F5B010EE66EA2D8E5526ECFD9
:10112000E6FF020EA9D9010E10DA380E4A6F4B6B9A
:1011300006D043DA04E2010E0F01416F426BDFD1AA
:10114000070E0F01501901E1515124E0505101E106
:1011500051511EE0FB0E501902E1E868511916E0EA
:10116000010E501901E151510FE0080E501901E133
:10117000515108E0090E501901E1515101E01200EE
:10118000320E09D0330E07D0340E05D0350E03D001
:10119000360E01D0370E4A6F4B6B1200B4D9300EA9
:1011A000F36EFE0EDBCFF4FFF350F45C0CE3FE0EA7
:1011B000DB50390808E3FE0EDB50D00F156AF36EE2
:1011C00015C0F4FF02D0F368F46899D19CD9FD0EE4
:1011D000DBCF14F0FE0EDBCF15F0FB0EDBCF16F0ED
:1011E000FC0EDBCF17F017501518E8AE02D01534FF
:1011F00004D01450165C1550175802E2F36A02D05E
:10120000010EF36EF46A7BD17ED9E150FD0FE96ED9
:10121000FF0EDA20EA6E020EEE1804E1ED5002E154
:10122000020E1BD05AD9040EEE1801E1ED5012E067
:1012300054D9060EEE1801E1ED500CE04ED9090E1E
:10124000EE1801E1ED5006E048D90B0EEE1804E16E
:10125000ED5002E1F36A02D0010EF36EF46A4FD151
:1012600052D9040EE12668D9DF6E030E65D9E76E08
:10127000010EE7CFDBFF050E5FD9E76E020EE7CF69
:10128000DBFF060E59D9E76E030EE7CFDBFFFE0E3C
:10129000DB5039E1DF06010EDB06F36EDBCFF4FF36
:1012A000E850F45C03E2DE52070EDD6E010EDF5CF7
:1012B0006DE2020EDB0407E11F0EDF6E0C0E6BD930
:1012C000030EDB0663D08BD8F350F41004E1020E5A
:1012D000DB061F0E5AD0BFD90AE1155008E1020EF5
:1012E000DB50030804E0010E56D91E0E4ED0B3D9D0
:1012F0004DE115504BE1030EDB50030B02E11D0ED7
:1013000044D01C0E42D0DF2A010EDB2ADB50070836
:1013100003E2DE52010EDD6E020EDB500C080AE124
:10132000DF501F0807E2010E36D9010EDF6E030EF3
:10133000DB2A2CD054D8F350F41003E1DF501E0800
:1013400021E389D905E1155003E1DF501F081AE3B5
:1013500046D8020EF31809E1155007E1030EDB50E1
:10136000030B03E1DF501D080DE339D8020EF3181B
:101370000DE115500BE1030EDB50030B07E0DF50CE
:101380001C0804E2020EDB2A010EDF6EDFCFE6FF4F
:10139000040E72D8010EDBCFE6FF030E6DD8020EED
:1013A000DBCFE6FF050E68D8030EDBCFE6FF060EA7
:1013B00063D8146E040EE15C02E2E16AE552E16E6C
:1013C00014509DD0AFEC13F0E552E552E552E552D2
:1013D0001200E66EE9EC19F0E55200081200020E68
:1013E000DBCFE6FFE66A10DFE4EF0AF015C0E6FFA8
:1013F00016C0E6FF17C0E6FF1200DFCFE6FFCEDE25
:10140000E552F3CF54FFF4CF55FF0F01F31C120048
:10141000DFCFE6FFC3DEE552F3CF52FFF4CF53FF39
:101420000F01F31C1200D2DEE552E552CDD8F35085
:10143000F41012005F29146E140E156E0E6E14C097
:1014400009F028EC1FF005C05FFF0F0105500F08E1
:101450001200E9D8C50EE66E2E0EE66E1200E66E9C
:1014600006EC19F0E552E552120077CFE6FF78CF8F
:10147000E6FFCADEE4EF0AF0E66EC3EC1CF0E552CC
:10148000E552120041CF43FF42CF44FF120075CF17
:1014900016F076CF17F0040E0D6E0E6A75CF08F0B9
:1014A00076CF09F0ACEC1DF004C016F005C017F0C3
:1014B0000450051012000A0E086E096A52CF0DF092
:1014C00053CF0EF0FFEF1DF00A0E086E096A54CFDD
:1014D0000DF055CF0EF0FFEF1DF0D950FD0FE96E66
:1014E000FF0EDA20EA6E1200E66EE9EC19F0E55222
:1014F00000091200C70EE66E2E0EE66E1200E552CF
:10150000E7CFD9FF1200D9CFE6FFE1CFD9FF120014
:101510000F014C6F4D6B1200E66E010E13EF0BF0D6
:1015200057CF14F058CF15F0166A176A1200C90E7B
:10153000E66E2E0EE66E1200E66ECEEC1CF0E55264
:101540001200156A166A176A12008CD0686B696BF4
:101550006A6B6B6B0F017D6B120059CF14F05ACF81
:1015600015F0166A176A12005BCF14F05CCF15F005
:10157000166A176A12000101696B01016A6B0101A9
:101580006B6B12000F014A6F4B6B4C6B010E4D6F72
:101590001200050E67D0F36E020EF3CFDBFF1200D0
:1015A000E66EE66AE66AE2EF09F059D836EF0BF02C
:1015B000E66E62D0040EE9EF09F0060EE9EF09F0DD
:1015C00014C0E6FFF6EF09F0E552E552F3CF14F050
:1015D000F4CF15F01200DC0EE66E2E0E2FEF0BF09E
:1015E00068CF14F0AEDF68CFE6FFF6EF09F069CF01
:1015F00014F0A7DF69CFE6FFF6EF09F06ACF14F029
:10160000A0DF6ACFE6FFF6EF09F06BCF14F099DFA9
:101610006BCFE6FFF6EF09F0E66E010E29EF0AF058
:1016200086DFE66A29D0E66E61EC13F0186E060ECE
:10163000E15E1850120026DF030E14D023DF040EE3
:1016400011D020DF020E0ED01DDF070E0BD0E66E8C
:10165000E66A13EF0AF0C3DE010EF3181200E66E1D
:10166000E66A0AD00F01416F426B1200050EE9EFE6
:1016700009F09EDF0A0E1200010EE66EE2EF09F09D
:10168000D9CFE6FFE1CFD9FF020EE126DE6ADD6A9F
:101690006CD8D7EC11F0B8EC12F0CAD85CEC10F0B2
:1016A000DB0EE66E2A0EE66E060EE66EE66A99EC34
:1016B00012F0E552E552E552E552D00EE66E070E05
:1016C000E66E0FD8E552E55201013351FDE0336B70
:1016D000B8EC12F0C7EC19F040EC00F0E0EC12F0BE
:1016E000F3D7D9CFE6FFE1CFD9FF040EE126DE6ABA
:1016F000DD6ADECF14F0DDCF15F0FD0EDBCF16F086
:10170000FE0EDBCF17F015501718E8AE02D01734D5
:1017100004D01650145C175015581DE2020EDB6AF7
:10172000030EDB6A020EDBCF14F0030EDBCF15F0E5
:10173000D890155004E6EE0E145C000E155806E223
:10174000020EDB2A030EEEE3DB2AECD7DF2A010EC2
:10175000D0E3DB2ACED7040EE15C02E2E16AE55277
:10176000E16EE552E7CFD9FF1200936A956A51EC1A
:1017700011F0FCEC1CF05CEC10F0570EE66E120E53
:10178000E66EE4EC1AF0E552E552AE0EE66E240E7B
:10179000E66EFAEC1AF0E552E552660EE66EB70E0A
:1017A000E66E29EC1BF0E552E552020EE66EE66AA3
:1017B00082EC1BF0E552E5520A0EE66EE66A8EEC0C
:1017C0001BF0E552E5520A0EE66EE66AA7EC1BF046
:1017D000E552E5529CEC19F038EC1CF0C6EF17F01E
:1017E0000101370E486F3B0E496F170E4A6F070E07
:1017F0004B6F1F0E4C6F0C0E4D6F0D0E4E6F48C190
:10180000E6FFE66AC3EC1CF0E552E55249C1E6FF8B
:10181000010E0BEC10F04AC1E6FF020E0BEC10F0CB
:10182000E8EC10F0EDEC10F0F2EC10F0F7EF10F047
:10183000200E9AEC10F0220811E0D2DFE66A100EBA
:10184000EADBE66A110EE7DBE66A120EE4DBE66A23
:10185000130EE1DB220EE66E200EDDDB1200100E11
:101860009AEC10F00101526F110E9AEC10F0010188
:10187000536F120E9AEC10F00101546F130E9AEC94
:1018800010F00101586F1200DADB146E49EC10F011
:10189000E66EC7DBE66AE66ACBDB4DC114F049ECC5
:1018A00010F04DC1E6FFBDDB030ECDEC10F0B8EC3F
:1018B00010F0060ECDEC10F04BC114F0EADB4BC17A
:1018C000E6FFAFDB090ECDEC10F0A3EC10F0E66AFA
:1018D000010EE66EADDBAAEC10F0030ED1EC10F0B9
:1018E000B1EC10F0060ED1EF10F0A9DB4B51070A56
:1018F00024E0010A1EE0030A18E0010A12E0070AC8
:101900000CE0010A06E0030A1EE1D70EE66E2A0E7D
:1019100017D0D30EE66E2A0E13D0CF0EE66E2A0E27
:101920000FD0CB0EE66E2A0E0BD0C70EE66E2A0E37
:1019300007D0C30EE66E2A0E03D0BF0EE66E2A0E47
:10194000E66EFFEC10F00A0E01014A5D08E2AADB28
:10195000040E9FEC10F0A3EC10F0050E03D0A3ECE6
:1019600010F0040ECDEC10F0D3DB060EE8DB0A0E0F
:101970000101495D06E296DB070EE1DBEBDB080EB9
:1019800002D0E8DB070ECDEC10F0C2DB090ED7DB8E
:101990000A0E0101485D06E285DB0A0ED0DBE1DBC1
:1019A0000B0E02D0DEDB0A0ECDEC10F0010154511B
:1019B000010A06E0010A0AE1B70EE66E2A0E03D01C
:1019C000B30EE66E2A0EE66E0D0EB9DB0F01565110
:1019D00006E0AF0EE66E2A0EE66E0D0EB0DB0101DC
:1019E0004D510C0A42E0070A3CE0010A36E0030AC6
:1019F00030E0010A2AE00F0A24E0010A1EE0030A8F
:101A000018E0010A12E0070A0CE0010A06E0030AE6
:101A100032E1AB0EE66E2A0E2BD0A70EE66E2A0E32
:101A200027D0A30EE66E2A0E23D09F0EE66E2A0E56
:101A30001FD09B0EE66E2A0E1BD0970EE66E2A0E66
:101A400017D0930EE66E2A0E13D08F0EE66E2A0E76
:101A50000FD08B0EE66E2A0E0BD0870EE66E2A0E86
:101A600007D0830EE66E2A0E03D07F0EE66E2A0E96
:101A7000E66E020E5CDB51DB050E59DB0A0E01013E
:101A80004C5D06E24ADB060E52DB72DB070E02D02B
:101A90006FDB060E86DB41DB080E49DB140EE66EBB
:101AA000E66AE66AE66A090EF0DA61EC13F0146E93
:101AB000060EE15E14504EC114F0EBDA4EC1E6FFA3
:101AC000B0DA0B0ED1EF10F06C0EE66E2A0EE66E59
:101AD00096DBE3DAE66A010EE66E90DA0A0E0101A1
:101AE000525D06E2DFDA020E22DB64DB030E02D077
:101AF00061DB020E56DB0CDB040E19DB0A0E010162
:101B0000535D06E2CFDA050E12DB5BDB060E02D078
:101B100058DB050E46DBCBDA070E09DB0101545119
:101B2000010A06E0010A0AE1B70EE66E2A0E03D0AA
:101B3000B30EE66E2A0EE66E0A0EF9DAB8DA0D0E6C
:101B400097EF10F001015051FF0A01E1F6D0F40ABD
:101B500001E1D0D0010A01E1AAD0030A01E184D059
:101B6000010A5FE00F0A36E0010A0DE0060A01E013
:101B7000120010DB01E1F5D00101590501E0F1D0BF
:101B8000060E506F120038DB03E287DA040ED7DA54
:101B90000BDB09E001014A2998DA05C04AF105C0CA
:101BA000E6FF020E38DA03DB0CE001014A054A6F5A
:101BB000E850170802E2170E4A6F4AC1E6FF020E0C
:101BC0002ADAE8DA03E00101070E506F57DA01E183
:101BD000C8D0B0D011DB03E260DA070EB0DAE4DA85
:101BE00009E00101492975DA05C049F105C0E6FFA0
:101BF000010E11DADCDA0CE001014905496FE85009
:101C00003B0802E23B0E496F49C1E6FF010E03DAD1
:101C1000C1DA03E00101080E506F30DA01E1A1D012
:101C200089D0EADA02E243DAEADABEDA09E001014F
:101C30004B294B6FE850070802E2010E4B6FC8DAE0
:101C4000B6DA09E001014B054B6FE850070802E2E4
:101C5000070E4B6FBDDA9EDA03E00101090E506FEB
:101C60000DDA01E17ED066D0C7DA03E216DA060E9D
:101C70005EDA9ADA09E001014C294C6FE8501F083E
:101C800002E2010E4C6FA9DA92DA09E001014C057B
:101C90004C6F010E4C5D02E21F0E4C6F9EDA7ADA39
:101CA00003E001010A0E506FE9D95BE043D0A4DAEA
:101CB00003E2FDD9020E3BDA77DA09E001014D2992
:101CC0004D6FE8500C0802E2010E4D6F8BDA6FDAAF
:101CD00009E001014D054D6F010E4D5D02E20C0E54
:101CE0004D6F80DA57DA03E001010B0E506FC6D951
:101CF00038E020D081DA03E215DA090E18DA54DA76
:101D000008E001014E294E6FE850630801E24E6B76
:101D10006EDA4DDA09E001014E054E6F630E4E5D3D
:101D200002E2630E4E6F63DA35DA02E0D6D950690B
:101D3000A5D917E0D2D9506B1200596BD6DD01013D
:101D400053D903E2EFD90C0EFAD924DA05E0CBD946
:101D50000F01666F0F01566B27DA02E128DA01E006
:101D6000C2D9120001014F51FF0A01E184D0FC0ADF
:101D70005DE0010A35E0030A0DE0010A01E012000E
:101D800009DA01E187D00101590501E083D0010E94
:101D90004F6F1200F4D903E280D9020EC8D904DAD9
:101DA00009E00101522991D905C052F105C0E6FFB1
:101DB000100E31D9FCD90CE001015205526FE850E8
:101DC000170802E2170E526F52C1E6FF100E23D918
:101DD000E1D903E00101020E4F6F50D95BE048D01A
:101DE000CED903E25AD9050EA2D9DED909E0010104
:101DF00053296FD905C053F105C0E6FF110E0BD969
:101E0000D6D90CE001015305536FE8503B0802E2BC
:101E10003B0E536F53C1E6FF110EFDD8BBD903E053
:101E20000101030E4F6F2AD935E022D0A8D903E271
:101E30003ED90A0E7CD9B8D907E001015429010B1B
:101E4000546FE66E120EE7D8B2D90CE001015405CA
:101E5000546FE850010802E2010E546F54C1E6FFCE
:101E6000120ED9D897D902E001014F6907D912E0C3
:101E700034D94F6B120083D903E254D90A0E5FD9CB
:101E800093D902E194D901E035D984D903E032D95C
:101E90000F01656F12000101010E081903E10951DC
:101EA00001E1010C000C01010A0E081903E10951BE
:101EB00001E1010C000C0101010E101903E11151A7
:101EC00001E1010C000C01010A0E101903E111518E
:101ED00001E1010C000C0101010E0A1901E10B5195
:101EE00015E00A0ED8800A55000E0B5510E20AC103
:101EF00014F00BC115F0030E0D6E0E6A0AC108F046
:101F00000BC109F0FED803E1155001E1010C000CF2
:101F10000101010E121901E1135115E00A0ED880DA
:101F20001255000E135510E212C114F013C115F032
:101F3000030E0D6E0E6A12C108F013C109F0E1D84C
:101F400003E1155001E1010C000C010152514A5D01
:101F50000AE15351495D07E1485105E1540503E1A8
:101F6000590501E1010C000C01015151050A16E06F
:101F7000010A05E0040A01E01200040E0DD0E5DFBD
:101F8000000906E00101010E586FE66E130E43D8FA
:101F90000101585128E0050E516F1200596B5A2962
:101FA000146E140EF1D805C05AF10A0E0101055C39
:101FB00002E2B8EC12F00101562B000E5723900EEE
:101FC000D8805655010E57550EE2010E596F586BC9
:101FD00058C1E6FF130E1FD80101566B576BB8ECC2
:101FE00012F00101516B12005529146E140ECCD859
:101FF00005C055F1010105500F081200AFEC13F0B8
:10200000E552E552E552E5521200E66EE9EC19F0B0
:10201000E55200091200E66EC3EC1CF0E552E552F1
:10202000120015C0E6FF16C0E6FF17C0E6FF12005B
:1020300061EC13F0186E060EE15E18501200E66AAD
:10204000CEEC1CF0E5520101486F010E73D801017E
:10205000496F020E6FD801014A6F030E6BD8010160
:102060004B6F040E67D801014C6F050E63D8010158
:102070004D6F060E5FD801014E6F1200040EE66E22
:10208000F3EC19F0E55200091200E66E010EE66E5F
:102090001200156A166A176A1200690EE66E2A0E99
:1020A000E66E1200BD0EE66E2A0EE66E1200650E9A
:1020B000E66E2A0EE66E1200E80EE66E030EE66E7F
:1020C00071EC0BF0E552E5521200146E180EC4EFDD
:1020D00010F0146E3C0EC4EF10F0B8EC12F00101D9
:1020E000010E596F1200B8EC12F00101506B010E95
:1020F000596F1200B8EC12F001014F6B010E596FCD
:102100001200F4EC1EF005C015F0010E04181200C8
:10211000BB0EE66E2A0EE66E12007D0EE66E2A0EED
:10212000E66E1200600EE66E2A0EE66E1200ADDF5D
:10213000FEEF0FF0E66ECEEC1CF0E5521200E66EFC
:10214000E66AFEEF0FF04AC114F0A3DF4AC1E6FFD2
:1021500011EF10F049C114F09CDF49C1E6FF11EF07
:1021600010F048C114F095DF48C1E6FF11EF10F000
:102170004CC114F08EDF4CC1E6FF11EF10F0596B2B
:10218000A3DC0101F4EF0FF0156E0E6E14C009F020
:1021900028EF1FF0060E05EF10F0E66EE66A18EF66
:1021A00010F073DF18EF10F0040E05EF10F0050EBD
:1021B00005EF10F052C114F06CDF52C1E6FF11EFD1
:1021C00010F053C114F065DF53C1E6FF11EF10F0BA
:1021D0004BC1E6FF030E0BEF10F04CC1E6FF040EFF
:1021E0000BEF10F04DC1E6FF050E0BEF10F04EC1E6
:1021F000E6FF060E0BEF10F0596BF4EF0FF0E66AF6
:06220000E66AFEEF0FF09C
:0A22060017EC15F07BDB15AE02D0DB
:102210001668176820DB13E289DB49DB04E6050E4C
:10222000145C000E155806E2020EDB2A030EF5E3DD
:10223000DB2AF3D7DF2A010EE8E3DB2AE6D7040E18
:10224000E15C02E2E16AE552E16EBBD2F0DB59DB10
:1022500015AE02D016681768FEDA13E267DB27DBDB
:1022600004E6EE0E145C000E155806E2020EDB2AA0
:10227000030EF5E3DB2AF3D7DF2A010EE8E3DB2ABE
:10228000E6D7040EE15C02E2E16AE552E16E99D222
:10229000D4DBF00B6BDBFE0EDB38F00B811278DA4F
:1022A00090D2C2DB190E50DB0F0E8116F80E81168C
:1022B0000F0E8116300E5ADB300E58DB300E56DB17
:1022C000818A66DA280EE66EE3DFE5520C0EE66ED2
:1022D000DFDFE552E55275D29DDB010EDB6A8194AA
:1022E0004ADBE76E010EE7CFDBFF819644DBDF6E52
:1022F000010EDB50DF128196010E51DADF50146EB1
:10230000020EE15C02E2E16AE552E16E145059D23C
:102310008BDBDF6AE1DFDF6EDFBEFCD7DF50E5522B
:1023200050D28BDB81128186050E39DA8196050E3B
:1023300036DA47D241DA8194050E31DA98DA41D2A1
:102340003BDA8184050E2BDA92DA81943AD23BD3C0
:102350003AD332DAFD0EDBCFF6FFFE0EDBCFF7FF0E
:102360000800F5500DE0FD0EDBCFF6FFDB2AFE0E78
:10237000DBCFF7FF01E3DB2A0800F5501BDBEAD7D0
:1023800020D252DBFD0EDB500F0B146EFE0EDB5025
:10239000010B400DF3501424DF6E7F0EDF14800F0D
:1023A000DF6EDFCFE6FFC6DFE552E5520AD2010E4F
:1023B000E66EC0DFE552E66AE66A23EF15F0FCD967
:1023C000050EE126010EF36EDB6EB0DA040EDB6A59
:1023D000DF6ADFCF14F0156A14BE156899DA15505C
:1023E0001718E8AE02D0173404D01650145C1750FA
:1023F00015581FE2FD0EDBCF14F0FE0EDBCF15F0FB
:10240000166A176A15AE02D016681768D950010F00
:10241000E96EDACFEAFF14C00BF015C00CF016C05D
:102420000DF017C00EF0DBDA7BEC1EF0E1DADF2AEC
:10243000D0D7010EDBCF14F0020EDBCF15F0030E68
:10244000DBCF16F0040EDBCF17F014C006F015C07A
:1024500007F016C008F017C009F0050EE15C02E2B3
:10246000E16AE552E16EADD1D5DAFB0EDBCF14F0B7
:10247000FC0EDBCF15F0FD0EDBCF16F0FE0EDBCF32
:1024800017F0145015101610171003E1300E92DAE1
:1024900036D0D950FB0F14DA01E618DA05E22D0E1A
:1024A00089DAD950FB0FCAD9DE52070EDD6E37DA52
:1024B000E8AE02D0143403D0E750D88014541FE2A1
:1024C00017DA18BE196871D936DA5EDA08DA0BE065
:1024D000010EDF6EDB041C6E1D6A1CBE1D6883D9F5
:1024E00053DA9FD903D0DF5002E0300E63DA00DA0E
:1024F00018BE19685AD9D950FB0F6CD9D8D7020E1B
:10250000E15C02E2E16AE552E16E5BD155D9C7D9DF
:10251000D950F90F53DAEECFE6FFEECFE6FFEECF5C
:10252000E6FFEFCFE6FFA0DFE552E552E552E552C8
:1025300048D142D9B4D9FB0EDBCFE6FFFC0EDBCF8E
:10254000E6FF07DFE552E5523CD136D9FCC014F076
:10255000FDC015F0040ED89014361536E806FBE1E0
:1025600092D9FE0EDBCFEFFFFE2B000EFF2329D109
:102570005BDADF6ADFCF14F0100EE76E1418E8AEF6
:1025800002D0E73402D0E750145C18E2DFCFE9FF55
:10259000EA6AE9BEEA68C10EE926000EEA22200EC8
:1025A000EF6EDFCFE9FFEA6AE9BEEA68D10EE926FD
:1025B000000EEA22200EEF6EDF2ADCD7E55201D1B1
:1025C00033DA0001C051030A29E0010A1CE0030AC2
:1025D0000CE0010A32E13BDA080EDF5C03E2DF5077
:1025E000B9D9FAD70001010E17D0080EE66EE66AD7
:1025F00009D9080EDF5C04E2080EDF24ABD9F9D755
:102600000001020E09D00BDA080EDF5C03E2DF5096
:10261000A7D9FAD70001030EC06F10D0080EE66EDE
:10262000010EE66EEFD8080EDF5C04E2080EDF2430
:1026300097D9F9D70001C06B01D0C06BE552C1D06A
:10264000F3D90001C051010A0DE0010A15E1FFD9DB
:10265000100EDF5C03E2DF507DD9FAD70001010ED6
:10266000C06F0BD0DCD9100EDF5C03E2DF5078D9ED
:10267000FAD70001C06B01D0C06BE552A2D0D4D90B
:10268000E6D9100EDF5C03E2DF5064D9FAD7C7D970
:10269000100EDF5C03E2DF5063D9FAD7E55291D028
:1026A0008BD8B3D8FCC014F0FDC015F0040ED89040
:1026B00014361536E806FBE1E6D8FC0EDBCFEFFF5B
:1026C00080D0A8D9A2D8F90EDBCF14F0FA0EDBCF58
:1026D00015F01ED9145015101610171003E1300E06
:1026E0000CD936D0D950F90FEBD801E6EFD805E276
:1026F0002D0E03D9D950F90FA1D8DE52070EDD6E89
:102700000ED9E8AE02D0143403D0E750D880145468
:102710001FE2EED818BE196848D80DD940D9DFD8C5
:102720000BE0010EDF6EDB041C6E1D6A1CBE1D6813
:102730005AD835D976D803D0DF5002E0300EDDD834
:10274000D7D818BE196831D8D950F90F43D8D8D77F
:10275000020EE15C02E2E16AE552E16E32D02CD871
:1027600054D8FB0EDBCFF6FFFC0EDBCFF7FF0800E3
:10277000F5500DE0FB0EDBCFF6FFDB2AFC0EDBCFC6
:10278000F7FF01E3DB2A0800F550B7D8EAD719D0E4
:102790008186010ED9D88196010EA4EF14F0E66E61
:1027A000E66AE66AE66A2FDD56D118C0E6FF19C070
:1027B000E6FF10D901EF15F0D9CFE6FFE1CFD9FF41
:1027C0001200E552E7CFD9FF1200EA22EF50F2D80B
:1027D000DF2A1200F3D8AFD802D9B3EC1EF008D923
:1027E000010EDB0612001CC0E6FF1DC0E6FFF2D89A
:1027F00006C018F007C019F008C01AF009C01BF095
:102800009BEF14F020D9DF6A1200FE0EDB50010BA3
:102810000001FC6FFD6BFD0EDB500F0BFE6FFF6BBD
:102820001200DBCF09F0B3EC1EF0EBD8300E14260B
:10283000000E15221622172214501200BFD8000EC7
:10284000EE6CEF1EEE22EF1EEE22EF1EEF22ED5297
:10285000ED52ED521200D950FB0FB0D8EE50145C7F
:10286000EE501558EE501658EE5017581200FE0E46
:10287000DBCFE6FF56DDE552FE0EDB38F00BE66EF1
:1028800050DDE5521200C10E1426000E1522145020
:102890000001FE25E96E1550FF21EA6E1200FD0EC3
:1028A000DBCFE6FFFE0EDBCFE6FF23EF15F0020ED7
:1028B000DBCF14F0030EDBCF15F0D89015501200CB
:1028C0007DD8D890030EEB50000A1200000EEE5C8B
:1028D000000EEE58000EEE58000EEE581200DBCF40
:1028E00009F0B3EC1EF00650071008100910120092
:1028F000010EDB04186E196A1200E66E26DEE55240
:102900001200DECF14F0DDCF15F0166A176A120040
:10291000FB0EDBCF16F0FC0EDBCF17F01200010E22
:10292000DBCF14F0000EE76E14181200020EDB6A03
:10293000030EDB6A120006C00BF007C00CF008C0E3
:102940000DF009C00EF01200E66EE66AE66AE66A6D
:102950007DDC81D0EA6AC10FE96E000EE5EF13F06D
:10296000EA6AD10FE96E000EE5EF13F0811210DF75
:102970000F0E811612000F0E12DF0F0E81128186CC
:102980000EDF0F0E81141200FB0EDBCF06F0FC0EE3
:10299000DBCF07F0FD0EDBCF08F0FE0E1200F90EC4
:1029A000DBCF06F0FA0EDBCF07F0FB0EDBCF08F033
:1029B000FC0E1200E66ECCDCE5521200E96EFF0E52
:1029C000DA20EA6E1200F8DEFE0EDBCFE6FFB8DC9E
:1029D000E552F7D60A0EE66EE66AF1DC3CD0EECFA1
:1029E00006F0EECF07F0EECF08F0EFCF09F01200BF
:1029F00005C0EDFF04C0EDFF03C0EDFF02C0EFFF17
:102A0000120006C014F007C015F008C016F009C087
:102A100017F01200D1DE020EE126DF6A1200E66A2C
:102A2000010EE66E02EF14F0C7DEE6521200C4DEBD
:102A3000040EE126DE6ADD6A1200BEDE0F0E81168C
:102A4000FE0EDB5012009DDCE552E5521200E66AF4
:102A5000E66A02EF14F0E552E552E552E552120043
:102A60002020202000202020002020002020414C79
:102A700041524D2020204241434B20200020004461
:102A80004543004E4F56004F4354005345500041BC
:102A90005547004A554C004A554E004D415900419A
:102AA0005052004D415200464542004A414E004FAF
:102AB0004B20004F4E20004F4646003A0030005356
:102AC000415400465249005448550057454400546B
:102AD0005545004D4F4E0053554E0044494749540B
:102AE000414C20434C4F434B003E4241434B00205E
:102AF0004241434B003E48414E4F492020555443EC
:102B00002B3037002048414E4F4920205554432B4D
:102B10003037003E4C4F4E444F4E202020555443FA
:102B20002B303000204C4F4E444F4E202020555427
:102B3000432B3030003E4E4557594F524B202055C5
:102B400054432D303500204E4557594F524B2020CD
:102B50005554432D3035003E5041524953202020DA
:102B6000205554432B3031002050415249532020EE
:102B700020205554432B3031003E4245494A494EAE
:102B80004720205554432B30380020544F4B594F89
:102B9000202020205554432B303900204245494AFB
:102BA000494E4720205554432B3038003E544F4B5C
:102BB000594F202020205554432B30390020557385
:102BC000652055415254003E55736520427574741A
:102BD0006F6E0021444154453A59594D4D44446467
:102BE000230D0A000D0A546F2073796E6368726FAB
:102BF0006E697A6520646174652C207573696E67EF
:102C00002073796E74617820617320666F6C6C6FCD
:102C1000773A0D0A005468652074696D65206E6509
:102C2000656420746F2062652032342D6820666FE1
:102C3000726D61740D0A002154494D453A48484D62
:102C40004D5353230D0A000D0A546F2073796E63A0
:102C500068726F6E697A652074696D652C20757372
:102C6000696E672073796E74617820617320666F76
:102C70006C6C6F773A0D0A000D0A57656C636F6DC7
:102C80006520746F20416C61726D20436C6F636BC3
:102C900020636F6E736F6C65206D656D750D0A0036
:102CA0002055736520427574746F6E003E557365D0
:102CB0002055415254000D0A436F6E666967757264
:102CC0006174696F6E204461746520537563636538
:102CD0007373210D0A000D0A44415445206D75732C
:102CE0007420626520696E2072616E6765205B31B9
:102CF0002C375D20210D0A000D0A446179206D7585
:102D0000737420626520696E2072616E6765205B56
:102D1000312C32385D20210D0A000D0A44617920E2
:102D20006D75737420626520696E2072616E6765CF
:102D3000205B312C32395D20210D0A000D0A4461DF
:102D400079206D75737420626520696E2072616EE2
:102D50006765205B312C33315D20210D0A00506CFA
:102D60006561736520656E74657220616761696E67
:102D7000210D0A000D0A446179206D75737420627B
:102D80006520696E2072616E6765205B312C33307F
:102D90005D20210D0A000D0A20446179206D7573B4
:102DA00074206265203E2030210D0A000D0A4D6F0F
:102DB0006E7468206D75737420626520696E207270
:102DC000616E6765205B312C31325D20210D0A0078
:102DD0000D0A436F6E66696775726174696F6E2064
:102DE00054696D652053756363657373210D0A0023
:102DF0000D0A506C6561736520656E746572206E96
:102E0000756D62657220210D0A000D0A5365636FAE
:102E10006E64206D75737420626520696E20726126
:102E20006E6765205B302C35395D20210D0A000D61
:102E30000A4D696E757465206D7573742062652026
:102E4000696E2072616E6765205B302C35395D20BC
:102E5000210D0A00706C6561736520656E74657282
:102E600020616761696E210D0A000D0A486F757255
:102E7000206D75737420626520696E2072616E67C3
:102E800065205B302C32335D20210D0A000D0A5085
:102E90006C6561736520656E746572206E756D6218
:102EA0006572210D0A00202020200052554E00534B
:102EB000544F500054494D455220434C4F434B20F2
:102EC0004241434B003A0030002020002020205394
:102ED000544F505741544348202020003E426163E4
:102EE0006B00204261636B003E576F726C6420542C
:102EF000696D65007761726520746F204D6F64693C
:102F0000667900506C65617365206F70656E207323
:102F10006F66740020576F726C642054696D650091
:102F20003E54696D65204D6F64696679002054696F
:102F30006D65204D6F64696679003E54696D6572F8
:102F400020436C6F636B002054696D657220436C85
:102F50006F636B003E436F756E74657220436C6FD8
:102F6000636B0020416C61726D20436C6F636B007A
:102F700020436F756E74657220436C6F636B003E07
:0C2F8000416C61726D20436C6F636B004C
:042F8C00B06A810E98
:102F9000AF6EAC8AAC94B886AC98AB8EAB889E9A78
:102FA0009D8A9F8A949C948E120069D9040EE12612
:102FB000DE6ADD6ADECF14F0DDCF15F097D915504B
:102FC0001718E8AE02D0173404D01650145C17500E
:102FD00015581DE2020EDB6A030EDB6A020EDBCF20
:102FE00014F0030EDBCF15F0D890155004E6EE0E6A
:102FF000145C000E155806E2020EDB2A030EEEE307
:10300000DB2AECD7DF2A010ED5E3DB2AD3D7040E67
:10301000E15C02E2E16AE552E16E36D130D99EA868
:10302000FED7FE0EDB50AD6E9E982ED128D956D914
:1030300008E054D934D9FD0EDB2AFE0EF8E3DB2A72
:10304000F6D722D11CD9050EE126010EF36EDB6EF8
:10305000020EDB6A030EDB6A040EDB6ADF6ADFCF77
:1030600014F0156A14BE1568FB0EDBCF16F0FC0ECB
:10307000DBCF17F015501718E8AE02D0173404D084
:103080001650145C175015581FE2FD0EDBCF14F0DC
:10309000FE0EDBCF15F0166A176A15AE02D0166861
:1030A0001768D950010FE96EDACFEAFF14C00BF0B0
:1030B00015C00CF016C00DF017C00EF0F4D87BEC64
:1030C0001EF0FAD8DF2ACBD7010EDBCF14F0020EA8
:1030D000DBCF15F0030EDBCF16F0040EDBCF17F0BD
:1030E00014C006F015C007F016C008F017C009F0AC
:1030F000050EE15C02E2E16AE552E16EC5D0BFD89F
:10310000020EE126DF6AFB0EDBCF14F0FC0EDBCFF4
:1031100015F0ECD8145015101610171003E1300EEE
:10312000BED86DD0B5D8D890030EEB50000A08E693
:10313000000EEE5C000EEE58000EEE58000EEE583B
:103140000EE22D0EACD8A4D8000EEE6CEF1EEE22CF
:10315000EF1EEE22EF1EEF22ED52ED52ED52DE5247
:103160000A0EDD6E010EDBCF14F0000EE76E1418B0
:10317000E8AE02D0143403D0E750D88014543FE2B4
:10318000010EDB04186E196A18BE196871D861D86F
:1031900006500710081009101EE0010EDF6EDB0458
:1031A0001C6E1D6A1CBE1D681CC0E6FF1DC0E6FF2C
:1031B000A4D806C018F007C019F008C01AF009C05A
:1031C0001BF047D8A3D8300E1426000E1522162265
:1031D0001722145003D0DF5002E0300E60D8010EE9
:1031E000DB04186E196A18BE196842D851D897D8EE
:1031F0005AD8B3EC1EF060D8010EDB06B3D7020E2E
:10320000E15C02E2E16AE552E16E3ED038D85DD879
:103210000CE05BD844D8FD0EDBCFF6FFDB2AFE0EB8
:10322000DBCFF7FFF4E3DB2AF2D72ED028D8E65223
:10323000AE50DF6E01016951EA6A010FE96E0F0EAF
:10324000EA22DFCFEFFF69293F0B696F6B2BE55255
:103250001BD065D8FB0EDBCF06F0FC0EDBCF07F0F2
:10326000FD0EDBCF08F0FE0EDBCF09F0B3EF1EF052
:1032700018C0E6FF19C0E6FF40D886EF19F0D9CF95
:10328000E6FFE1CFD9FF1200E552E7CFD9FF1200E8
:10329000D950FB0FE96EFF0EDA20EA6E1200E66EDF
:1032A000BDDEE5521200EECF06F0EECF07F0EECF16
:1032B00008F0EFCF09F0120005C0EDFF04C0EDFFEC
:1032C00003C0EDFF02C0EFFF1200FD0EDBCFF6FFE3
:1032D000FE0EDBCFF7FF0800F5501200FD0EDBCF2E
:1032E000E9FFFE0EDBCFEAFFEF501200FD0EDBCF51
:1032F00016F0FE0EDBCF17F012000A0EE66EE66A3D
:10330000A1DEE552E552E552E552120006C014F086
:1033100007C015F008C016F009C017F0120006C06B
:103320000BF007C00CF008C00DF009C00EF0120041
:103330000F0E946E82681200070E9410946EDF0ECA
:103340009414946E82681200D0D808D901E601D98D
:1033500017E2DDD8826EF8D8D1D801E6FAD80BE2B0
:10336000B7D802E1FFD801D01DD9020EDB2A030E27
:10337000F3E3DB2AF1D7DF2A010EE7E3DB2AE5D707
:10338000040EE15C02E2E16AE552E16ED9D0ADD80B
:10339000DBD8010EDE6EDD6ABAD88214826ED4D814
:1033A000ADD804E6030E145C000E15580BE290D85D
:1033B00002E1D8D801D0F6D8020EDB2A030EF0E3E2
:1033C000DB2AEED7040EE15C02E2E16AE552E16E2F
:1033D000B7D0A7D8010EEE1804E1ED5002E1010EBE
:1033E00001D0000EADD09DD8320EEE1804E1ED50A4
:1033F00002E1010E01D0000EA3D077D8D7D8FD0E80
:10340000DBCF16F0FE0EDBCF17F015501718E8AE25
:1034100002D0173404D01650145C1750155813E21C
:1034200093D86CD804E6EE0E145C000E155806E234
:10343000020EDB2A030EF5E3DB2AF3D7DF2A010EA7
:10344000DDE3DB2ADBD7040EE15C02E2E16AE55250
:10345000E16E76D04AD882D801E67BD822E257D8EE
:10346000826E72D84BD801E674D80DE29BD830D862
:1034700004E11ED8010EEE6EED6A020EDB2A030E89
:10348000F1E3DB2AEFD78250816EE80EE66E030E81
:10349000E66EB3DFE552E552DF2A010EDCE3DB2AFC
:1034A000DAD7040EE15C02E2E16AE552E16E48D04F
:1034B0007DD8D89014361536D89014361536020EAD
:1034C000DB501424E96E030EDB501520DBEF1AF0FD
:1034D000020EDBCFE9FF030EDBCFEAFF240EE92665
:1034E000010EEA22EF5082141200D9CFE6FFE1CF9D
:1034F000D9FF040EE126DE6ADD6A1200020EDBCF80
:1035000014F0030EDBCF15F0D89015501200DECF6B
:10351000E9FFDDCFEAFF200EE926010EEA22EF1CCB
:103520001200D9CFE6FFE1CFD9FFFE0EEA6ADB3405
:10353000FE0BEA36E96E000EE926010EEA221200C1
:10354000E552E7CFD9FF1200020EDB6A030EDB6AF9
:103550001200040E145C000E1558120027D8D890E3
:1035600015501200DECF18F0DDCF19F0D8901836C4
:103570001936D89018361936020EDB501824E96E29
:10358000030EDB50192017D8EECF16F0EFCF17F04F
:10359000010E1626000E17228BDF16C0EEFF17C095
:1035A000EDFF120085DFEE6AED6A1200DECF14F047
:1035B000DDCF15F01200EA6ED890E936EA36000E3B
:0835C000E926010EEA221200C7
:0835C800F1D8D59EFD0EDBCF0A
:1035D00028F1FE0EDBCF29F1D59C05D9D59AD586E9
:1035E000F28AF294F184D58EE6D0D59E1200FBD8F3
:1035F000D58E1200DBD8CD90FD0EDBCF2AF1FE0E6A
:10360000DBCF2BF1F7D89D809E909F90CD8ECD8CF7
:10361000CD98CD9ACD96CD92CD80CDD0EBD8CD8022
:103620001200CD901200C2D8CA94CC6AFE0EDB50B4
:1036300001012C6F2D6BCB6E9D829E929F92CA9042
:10364000CA92CA84B8D02CC1CBFFCA841200CA94D3
:103650001200ACD8B190FD0EDBCF2EF1FE0EDBCF09
:103660002FF1CFD80750B36ECCD8B5D8B26EA082A8
:10367000A192A292B18EB198B19AB192B1809BD031
:10368000C0D80350B26EBDD89ED8B36EB1801200C0
:10369000B19012000101382B000E39234051385DE2
:1036A0004151395904E3386B396B010E306F120008
:1036B00001013A2B000E3B2342513A5D43513B59E5
:1036C00004E33A6B3B6B010E316F120001013C2B9E
:1036D000000E3D2344513C5D45513D5904E33C6B94
:1036E0003D6B010E326F120001013E2B000E3F2395
:1036F00046513E5D47513F5904E33E6B3F6B010E1F
:10370000336F120053D8FD0EDBCF40F1FE0EDBCF3E
:1037100041F10101386B396B306B4DD047D8FD0E4C
:10372000DBCF42F1FE0EDBCF43F1050E0D6E0E6ACC
:1037300042C108F043C109F0ACEC1DF008C042F1F1
:1037400009C043F101013A6B3B6B316B34D02ED889
:10375000FD0EDBCF46F1FE0EDBCF47F10A0E0D6EFC
:103760000E6A46C108F047C109F0ACEC1DF008C074
:1037700046F109C047F101013E6B3F6B336B1BD033
:103780001C6A1A50175C146E1B501858156E1C508A
:103790001958166E0C6A010E0D6E0E6A14C007F0F1
:1037A00015C008F016C009F0D2EF1DF0D9CFE6FF22
:1037B000E1CFD9FF1200E552E7CFD9FF1200176819
:1037C0001868196A120007C014F008C015F009C083
:1037D00016F00750120003C014F004C015F005C025
:1037E00016F00350120014D80350D66E11D8EBDF38
:1037F000D76E120014D80750CF6E11D8ECDFCE6E02
:103800001200DDDF2EC11AF02FC11BF0C0EF1BF03C
:10381000D6DF28C11AF029C11BF0C0EF1BF0CFDFA3
:0C3820002AC11AF02BC11BF0C0EF1BF0F6
:04382C00BED8020EF2
:10383000E126FE0EDB500F0BDF6EFE0EDB380F0BAA
:103840000A0DBCD802E2E16AE552E16E1450B2D032
:10385000ACD8020EE126BBD80550DF6EB8D80950AF
:10386000100DACD802E2E16AE552E16E1450A2D02C
:1038700094869488C79EC79CC690C692C694C686F6
:10388000310EC86EC68A120090D89E96FE0EDB508E
:10389000D00FC96E9EA6FED78DD09E96C5809EA6DF
:1038A000FED712009E96C5849EA6FED712007DD834
:1038B0009E96FE0EDB50C96E9EA6FED77BD09E96CE
:1038C000C5869EA6FED7C95012009E96C59AC58889
:1038D0009EA6FED712009E96C58AC5889EA6FED7D4
:1038E000120063D87CD8010E7E6FE85004E0C5500A
:1038F000400BFAE0F8D779D8010E7E6FE85004E06B
:10390000C550400BFAE0F8D7FD0EDBCFE6FFA0DF95
:10391000E552E66ECCDFE5520F01010E7E6FE850F6
:1039200004E0C550400BFAE0F8D7BCDF43D03DD8E7
:10393000E65255D8010E7E6FE85004E0C550400BAA
:10394000FAE0F8D752D8010E7E6FE85004E0C55077
:10395000400BFAE0F8D7A1DF010EE66E95DFE552E5
:103960000F01010E7E6FE85004E0C550400BFAE0F5
:10397000F8D7A5DFDF6EDFCFE6FF58DFE552DF6E59
:10398000DF50E55217D011D8FD0EDBCFE6FFFE0E5B
:10399000DBCFE6FFA6DFE552E5520CD006D8FE0EDF
:1039A000DBCFE6FFC4DFE55205D0D9CFE6FFE1CF9C
:1039B000D9FF1200E552E7CFD9FF1200010EF3CF75
:1039C000DBFFDB50DF24146E020EE15C12000A0EF6
:1039D000146E0E6EFE0EDBCF09F028EF1FF05DDFD8
:1039E000E66A52DFE5520F011200FE0EDBCFE6FF62
:0839F0005EDFE5520F01120039
:0839F800F28ED08EF28C120059
:103A0000F19CF292F2881200D8CFE4FFE0CFE4FFFD
:103A1000E46E65D800EE00F0140EE80403E3EECF88
:103A2000E4FFFBD700EE14F00A0EE80403E3EECF48
:103A3000E4FFFBD7E652F2B47AD89EB07FD8A1B2A9
:103A400084D8F2B2F2929EBA9E9AE55200EE1DF030
:103A50000A0EE80403E3E5CFEDFFFBD700EE13F019
:103A6000140EE80403E3E5CFEDFFFBD74DD8E55096
:103A7000E5CFE0FFE5CFD8FF100031D800EE00F031
:103A8000140EE80403E3EECFE4FFFBD700EE14F0DE
:103A90000A0EE80403E3EECFE4FFFBD7E652F2B4EC
:103AA00046D89EB04BD8A1B250D8F2B2F2929EAA9C
:103AB00003D016EC19F09E9AE55200EE1DF00A0EA6
:103AC000E80403E3E5CFEDFFFBD700EE13F0140E9F
:103AD000E80403E3E5CFEDFFFBD716D81100DACFFA
:103AE000E4FFE2CFDAFFE9CFE4FFEACFE4FFF6CF6D
:103AF000E4FFF7CFE4FFF5CFE4FFF3CFE4FFF4CF2B
:103B0000E4FFFACFE4FF1200E5CFFAFFE5CFF4FFC0
:103B1000E5CFF3FFE5CFF5FFE5CFF7FFE5CFF6FF04
:103B2000E5CFEAFFE5CFE9FFE5CFDAFF1200F5ECDC
:103B30001AF0F294F7EC1AF04AEF1BF011EC1BF0BC
:103B40009E900EEC1BF058EF1BF048EC1BF0A1927E
:083B500040EC1BF074EF1BF0C8
:083B5800006A0EAEB5EF1DF08E
:103B60000D6C0E1EE86A0E22001E09AEBDEF1DF0A0
:103B7000086C091EE86A0922001EF4EC1EF009BE5A
:103B8000CDEF1DF000AE000C086C091EE86A09229A
:103B9000046C051EE86A0522000C00BEC4EF1DF08F
:103BA0000188FF0C006A0EAEDDEF1DF00C6C0D1EDF
:103BB0000E1EE86A0D220E22001E09AEE7EF1DF070
:103BC000076C081E091EE86A08220922001ED7ECAD
:103BD0001EF009BEFAEF1DF000AE000C076C081EC7
:103BE000091EE86A08220922036C041E051E04222D
:103BF0000522000C00BEEEEF1DF00188FF0C09C08D
:103C000013F008C012F008500D02F4CF07F0F3CF04
:103C100006F009500E02F4CF09F0F3CF08F00D02C0
:103C2000F3500726F4500822E86A092212500E02C7
:103C3000F3500726F4500822E86A09220EAE25EF59
:103C40001EF01250085E1350095A13AE000C0D50AE
:083C5000085E0E50095A000C39
:083C58001E0EF66E000EF76E61
:103C6000000EF86E01010900F550606F0900F55073
:103C7000616F03E1606701D03DD00900F5505B6FD3
:103C80000900F5505C6F0900F5505D6F09000900EF
:103C9000F550E96E0900F550EA6E090009000900C7
:103CA000F5505E6F0900F5505F6F09000900F6CF0F
:103CB00062F1F7CF63F1F8CF64F15BC1F6FF5CC14D
:103CC000F7FF5DC1F8FF01015E5302E15F5307E0BA
:103CD0000900F550EE6E5E07F8E25F07F9D762C1A2
:103CE000F6FF63C1F7FF64C1F8FF01016007000E32
:063CF000615BBFD712006A
:0A3CF60006500B02F3CF02F0F4CFEA
:103D000003F00C02F3500326000EF420046E06505C
:103D10000D02F3500426000EF420056E06500E022C
:103D2000F350052607500B02F3500326F4500422EB
:103D3000000E052207500C02F3500426F450052211
:103D400007500D02F350052608500B02F3500426CD
:103D5000F450052208500C02F350052609500B02BE
:063D6000F35005261200DD
:0A3D6600056A046A036A026A200E6F
:103D7000E76ED8900636073608360936023603361F
:103D8000043605360B50025C0C5003580D50045895
:103D90000E50055809E30B50025E0C50035A0D50AB
:0E3DA000045A0E50055A062AE72EE4D71200E8
:023DAE00056AA4
:103DB000046A036A180EE76ED8900736083609368B
:103DC0000336043605360C50035C0D5004580E5073
:103DD000055807E30C50035E0D50045A0E50055A67
:083DE000072AE72EEAD71200C2
:083DE800056A046A100EE76E83
:103DF000D89008360936043605360D50045C0E504E
:103E0000055805E30D50045E0E50055A082AE72EAA
:043E1000F0D71200D5
:0C3E1400800EF36E00EE00F00F0E01D8DF
:103E20001200EA6002D0EE6AFCD7F350E96012009B
:043E3000EE6AFCD763
:0C3E34001EEE00F02EEE00F0F86A019C7B
:103E40002CEC1EF003EC00F040EC0BF0FBD7120062
:103E5000056A080EE76ED890093605360E50055CE7
:0C3E600002E3056E092AE72EF7D71200D6
:043E6C000000000052
:103E70000000000000000000000000000000000042
:0C3E800000000000010001000100010032
:043E8C000100000031
:103E900000000000003200320007000700FFFFFFB3
:103EA000FF00000000000000000000000100010011
:093EB00000000000000000010008
:073EB9000000000000000002
:0C3EC000000000000000000000000100F5
:043ECC0000000000F2
:103ED0000000000010101010101010101818181802
:103EE000181818181C1C1C1C1C1C1C1C1E1E1E1E1A
:103EF0001E1E1E1E1F1F1F1F1F1F1F1F0000000052
:103F000000000000000000000000000000000000B1
:103F100000000000000000000000000000000000A1
:0D3F20000000000000000000000000000094
:033F2D0000000091
:103F3000D000222222072509100001000000000005
:083F4000000000000000000079
:083F4800000000000000000071
:103F50000000000000000000000000000000000061
:103F60000000000000000000102040800102040852
:020000040030CA
:0100010002FC
:0100020003FA
:010003001EDE
:010005008179
:010006008178
:010008000FE8
:01000900C036
:01000A000FE6
:01000B00E014
:01000C000FE4
:01000D0040B2
:00000001FF
