:020000040000FA
:06000000C8EF2AF0120017
:020006000700F1
:06000800EBEF28F01200EE
:02000E001200DE
:03001000000000ED
:0400130000000000E9
:06001800B2EF28F0120017
:02001E000800D8
:1000200030570000000F00002800000015570000A6
:10003000E10000001B00000013000000FB010000B5
:1000400004000000B45600008000000061000000C1
:10005000A25600006D0F000012000000E8550000DD
:1000600000010000BA000000C85500004D0F00005C
:1000700020000000100000000A0200000300000041
:100080000101005102E1010E011901E1DCD20F0E64
:10009000001901E1015101E192D20E0E001901E1B6
:1000A000015101E17CD20D0E001901E1015101E184
:1000B00042D20B0E001901E1015101E13AD20A0EC0
:1000C000001901E1015101E109D20C0E001901E111
:1000D000015101E1E6D1090E001901E1015101E1EF
:1000E000DED1080E001901E1015101E1AFD1070E87
:1000F000001901E1015101E1A6D1060E001901E14B
:10010000015101E175D1120E001901E1015101E126
:100110006DD1050E001901E1015101E118D1040E64
:10012000001901E1015101E1E5D0110E001901E1D1
:10013000015101E19AD0100E001901E1015149E08D
:10014000030E001901E1015139E0020E001901E12D
:10015000015115E0010E001901E1015101E0120009
:10016000F0EC17F05BEC1AF09CEC15F001E386D292
:10017000020ECBEC14F0010E026F036B1200DB0ECB
:10018000E66E460E8EEC15F0CB0EE66E460E89EC52
:1001900016F004E211EC14F065EC15F09CEC15F08F
:1001A00004E2030E0101006F016B99EC15F001E30D
:1001B00065D20101006B010E016F1200E7EC18F02F
:1001C00027EC19F00101385101E158D2386B020EC9
:1001D00052D2020E02190BE1035109E1BE0EE66E86
:1001E000460E8EEC15F0AE0EE66E460E08D0AE0E44
:1001F000E66E460E8EEC15F0A20EE66E460E89EC0B
:1002000016F002E258EC16F09CEC15F026E2110E06
:10021000CBEC14F02A0EE66E0F0EE66E290EE66E9B
:100220000F0EE66E280EE66E0F0EE66E060E20EC42
:1002300014F0DEEC14F014C0E6FF15C0E6FF050E66
:1002400020EC14F0E66E040E20EC14F0E66E08ECE0
:1002500012F0166E0A0EE15E165099EC15F001E3ED
:100260000DD211EC14F0020E05D2A2EC15F002E052
:1002700065EC15F00F012A51DEEC14F00A0E5BEC70
:1002800016F0B3EC12F0E552E5520F012A51DEEC04
:1002900014F00C0E5BEC16F00FEC13F0E552E55287
:1002A0009D0EE66E460EEBEC13F0E66A7CEC13F066
:1002B000970EE66E460E7BEC15F028CF14F025EC79
:1002C00014F028CFE6FF89EC13F0050E9FEC15F033
:1002D000900EE66E460EE66E080E8CEC16F029CFF8
:1002E00014F025EC14F029CFE6FF89EC13F00E0E84
:1002F0009FEF15F0100E02190BE1035109E1CB0E2F
:10030000E66E460E8EEC15F0840EE66E460E08D0B4
:10031000840EE66E460E8EEC15F0770EE66E460EF7
:1003200089EC16F002E261EC16F099EC15F004E2AB
:1003300011EC14F065EC15F09CEC15F001E39ED186
:10034000050ECBEC14F0B7D901013A6B12003CDB7F
:1003500001013A5101E093D9B3EC15F006E0010137
:100360003A6B3B6B3C6B3D6B12D0BEEC15F008E07A
:1003700001013A5105E1010E3A6FA9EC14F007D0E2
:10038000BEEC15F004E001013A0501E13A6BCBEC5B
:1003900015F016E0050E01013E5D12E26EEC14F060
:1003A0003BC1EFFF6EEC14F0EE523CC1EFFF6EEC80
:1003B00014F0020EE926000EEA223DC1EFFF3E2BAB
:1003C000B6EC15F007E0120ECBEC14F03A6B67ECCC
:1003D00015F03F6FA2EC15F001E150D101013A6B2D
:1003E0003B6B3C6B3D6B386B040E45D18AEF03F0E1
:1003F000040E02190BE1035109E1A20EE66E460E4E
:100400008EEC15F06A0EE66E460E08D06A0EE66EA9
:10041000460E8EEC15F05D0EE66E460E89EC16F07B
:1004200004E211EC14F023EC15F099EC15F002E263
:1004300058EC16F09CEC15F001E320D1070ECBEC44
:1004400014F0096B1200FCDAA6EF05F0060E021993
:100450000BE1035109E1770EE66E460E8EEC15F0C6
:10046000500EE66E460E08D0500EE66E460E8EEC2E
:1004700015F0430EE66E460E89EC16F002E264ECCF
:1004800016F099EC15F002E261EC16F09CEC15F018
:1004900001E3F4D00101046B056B090EECD084EF8D
:1004A0000AF0340EE66E460E8EEC15F0250EE66E62
:1004B000460E7BEC15F0B5EC16F004E2010E0101DE
:1004C000006F016B01012A5101E1D8D0260501E03E
:1004D000D5D0010E006F016B2A6B1200080E0219B5
:1004E0000BE1035109E15D0EE66E460E8EEC15F050
:1004F000180EE66E460E08D0180EE66E460E8EEC0E
:1005000015F00F0EE66E460E89EC16F002E267EC6F
:1005100016F099EC15F004E211EC14F023EC15F050
:100520009CEC15F001E3AAD00B0ECBEC14F06DEFB0
:100530000DF0D6EF0BF00A0E02190BE1035109E1A1
:10054000430EE66E460E8EEC15F0060EE66E460E77
:1005500008D0060EE66E460E8EEC15F0000EE66E26
:10056000460E89EC16F006E211EC14F00101006B66
:10057000010E016F99EC15F002E264EC16F09CECB0
:1005800015F001E37BD00E0ECBEC14F0F80EE66E06
:10059000450EA6EC13F00101010E226F1200E80EC9
:1005A000E66E450E8EEC15F00101286BB9EC15F0E6
:1005B0001E6F21C11FF1B5EC16F060E242D0DE0ED5
:1005C000E66E450E8EEC15F0D40EE66E450E7BEC15
:1005D00015F023C114F025EC14F023C1E6FF89ECDB
:1005E00013F02FEC15F0ACEC13F024C114F025EC53
:1005F00014F024C1E6FF89EC13F0060E9FEC15F011
:1006000016EC14F002E11550211908E03B0E1E19FA
:1006100008E11F5106E12051211103E16CEC15F0B6
:10062000282B050E285D0AE1290508E1F80EE66E83
:10063000450EA6EC13F00101286B296BB5EC16F002
:100640001DE20D0E17D00F0EE66E460EA2EC16F050
:1006500002E267EC16F096EC15F006E211EC14F0ED
:10066000020E0101006F016B9CEC15F007E211EC2A
:1006700014F0010E0101006F016B1200120016EC64
:1006800014F002E11550211908E03B0E1E1908E193
:100690001F5106E12051211103E13D2B6CEC15F0B7
:1006A0003C0E3D5D02E33D6B3C2B3C0E3C5D02E3AA
:1006B0003C6B3B2B12004DEC14F0020EE126DE6A7F
:1006C000DD6A01013E6BDECF14F0DDCF15F0D8906E
:1006D000155004E6060E145C000E155813E2F7ECF4
:1006E00013F0EF6AF7EC13F0EE52EF6AF7EC13F049
:1006F000020EE926000EEA22EF6ADF2A010EE3E38A
:10070000DB2AE1D7020EE15C02E2E16AE552E16E2A
:1007100052EF14F00F014C513E0A01E1E5D0030AFB
:1007200001E1A8D0010A6CE0070A31E0010A01E00A
:100730001200C90EE66E450E8EEC15F0C40EE66E84
:10074000450E7BEC15F081EC15F0C1EC15F0EBECEF
:1007500015F096EC15F006E20F013B0E4C6F01010F
:100760003A0E3F6F99EC15F006E20F013E0E4C6F0A
:1007700001013A0E3F6FB3EC15F003E1B6EC15F052
:1007800001E099DFA2EC15F001E1D7D0D3D03A0E09
:1007900001013F5D0DE1BD0EE66E450E8EEC15F0DC
:1007A000B80EE66E450E7BEC15F0C1EC15F00CD0E2
:1007B000B80EE66E450E8EEC15F0B30EE66E450EE5
:1007C0007BEC15F045EC16F093EC16F006E20F0109
:1007D0003C0E4C6F01013B0E3F6F99EC15F004E2AB
:1007E00067EC15F03B0E3F6FB3EC15F003E1B6EC90
:1007F00015F001E060DFA2EC15F001E19ED09AD087
:100800003B0E01013F5D0DE1C40EE66E450E8EEC20
:1008100015F0AE0EE66E450E7BEC15F045EC16F0CD
:100820000CD0AE0EE66E450E8EEC15F0A90EE66EFF
:10083000450E7BEC15F04AEC16F093EC16F006E250
:100840000F013D0E4C6F01013C0E3F6F99EC15F00E
:1008500006E20F013B0E4C6F01013C0E3F6FB3EC03
:1008600015F003E1B6EC15F001E025DFA2EC15F080
:1008700064E060D03C0E01013F5D0DE1B30EE66E19
:10088000450E8EEC15F0A40EE66E450E7BEC15F0D1
:100890004AEC16F00CD0A40EE66E450E8EEC15F068
:1008A0009F0EE66E450E7BEC15F04FEC16F093ECC8
:1008B00016F006E20F013E0E4C6F01013D0E3F6F38
:1008C00099EC15F006E20F013C0E4C6F01013D0E54
:1008D0003F6FB3EC15F003E1B6EC15F001E0EBDE91
:1008E000A2EC15F02AE026D0A90EE66E450E8EEC9D
:1008F00015F09A0EE66E450E7BEC15F04FEC16F0F7
:1009000093EC16F004E267EC15F03E0E3F6F99ECA5
:1009100015F006E20F013D0E4C6F01013E0E3F6FD8
:10092000B3EC15F003E1B6EC15F001E0C4DEA2EC87
:1009300015F003E0050ECBEF14F012004DEC14F0AF
:100940000A0EF36EFB0E01EC15F00AE225EC15F031
:10095000040E79EC14F0FB0E91EC15F0050E04D0AA
:10096000FB0E91EC15F0040ED7EC15F00A0EF36EA9
:10097000FC0E01EC15F00AE225EC15F0070E79ECFF
:1009800014F0FC0E91EC15F0080E04D0FC0E91EC66
:1009900015F0070ED7EC15F00A0EF36EFD0E01EC04
:1009A00015F00AE225EC15F00A0E79EC14F0FD0EB4
:1009B00091EC15F00B0E04D0FD0E91EC15F00A0E23
:1009C000D7EC15F052EF14F08A0EE66E450EB1EC3E
:1009D00016F00A0E01013B5D08E2A8EC15F02BECC5
:1009E00016F0F3EC15F0050E03D0F3EC15F0040E41
:1009F000A9EC16F001013C5D08E2A8EC15F02EEC24
:100A000016F0FAEC15F0080E03D0FAEC15F0070E0C
:100A10009FEC15F0C3EC13F0090EA5EC15F00101E5
:100A20003D5D09E2A8EC15F00A0E8CEC16F001EC25
:100A300016F00B0E03D001EC16F00A0E9FEF15F026
:100A4000740EE66E450EB1EC16F001011D5104E086
:100A50006F0EE66E450E03D06B0EE66E450EE66E2B
:100A60000C0EA5EC15F0010117AF02D0D89003D001
:100A7000165D000E175914E2850EE66E450EEBEC7E
:100A800013F0E66E7CEC13F042EC15F015AE02D0DC
:100A90001668176897EC16F0020EE66E010E0AD083
:100AA00042EC15F015AE02D01668176897EC16F0F8
:100AB000010EE66EE66EACEC13F0C3EC13F0030E21
:100AC000A5EC15F0010119AF02D0D89003D0185D44
:100AD000000E19590EE2A8EC15F02BEC16F049ECBB
:100AE00015F015AE02D01668176897EC16F0050ED3
:100AF00009D049EC15F015AE02D01668176897ECCE
:100B000016F0040EA9EC16F001011BAF02D0D8902C
:100B100003D01A5D000E1B590EE2A8EC15F02EEC66
:100B200016F050EC15F015AE02D01668176897EC69
:100B300016F0080E09D050EC15F015AE02D016686C
:100B4000176897EC16F0070E9FEF15F00101095199
:100B5000040A01E154D1070A01E1EFD0010A01E1E1
:100B6000A0D0030A52E0010A01E01200CCEC13F01D
:100B700007E2EFEC15F0EBEC13F0E66E7CEC13F013
:100B800099EC15F00DE20101162B000E1723173515
:100B900007E216511708000E175502E2166B176B85
:100BA00096EC15F00AE201011607000E175B800EA5
:100BB000171503E0170E166F176B040E91EC14F067
:100BC0000EE2050E01011627000E1723173507E266
:100BD00016511708000E175502E2166B176B050E1B
:100BE00091EC14F00BE2050E0101165F000E175B8D
:100BF000800E171503E0170E166F176B9CEC15F09F
:100C000001E318D10101010EF8D0CCEC13F004E29D
:100C1000AEEC16F02BEC16F099EC15F00DE201019C
:100C2000182B000E1923193507E218513B08000E46
:100C3000195502E2186B196B96EC15F00AE20101E6
:100C40001807000E195B800E191503E03B0E186F94
:100C5000196B040E91EC14F00EE2140E010118272A
:100C6000000E1923193507E218513B08000E1955DB
:100C700002E2186B196B050E91EC14F00BE2140EE6
:100C80000101185F000E195B800E191503E03B0E81
:100C9000186F196B9CEC15F001E3CCD00101020E2A
:100CA000ACD0CCEC13F004E2AEEC16F02EEC16F067
:100CB00099EC15F00DE201011A2B000E1B231B35D8
:100CC00007E21A513B08000E1B5502E21A6B1B6B20
:100CD00096EC15F00AE201011A07000E1B5B800E6C
:100CE0001B1503E03B0E1A6F1B6B040E91EC14F006
:100CF0000EE2140E01011A27000E1B231B3507E21A
:100D00001A513B08000E1B5502E21A6B1B6B050EB5
:100D100091EC14F00BE2140E01011A5F000E1B5B44
:100D2000800E1B1503E03B0E1A6F1B6B9CEC15F03D
:100D300001E380D00101030E60D099EC15F005E2CB
:100D40000101010E1D6FA9EC14F096EC15F002E202
:100D500001011D6B01011D5136E016EC14F002E19A
:100D60001550211908E03B0E1E192DE11F512BE1F2
:100D70002051211128E16CEC15F01B3509E21A51C4
:100D80000008000E1B5504E21A07000E1B5B1BD067
:100D90001A511B1118E11851191107E03B0E1A6F77
:100DA0001B6B1807000E195B0ED0185119110BE1BF
:100DB0001651171108E01607000E175B3B0E186F4F
:100DC000196B1A6F1B6B1651171107E11851191186
:100DD00004E11A511B1101E11D6B1D5108E1CCEC1E
:100DE00013F005E22AEC15F00C0E8CEC16F09CECDE
:100DF00015F020E201011D6B040E096F1200CCEC0E
:100E000013F002E254EC16F0BEEC15F003E1CBEC6B
:100E100015F002E001010CD09CEC15F00BE2060E7F
:100E2000CBEC14F0166B176B186B196B1A6B1B6BF2
:100E3000096B120012004DEC14F0E65202010B5146
:100E4000EA6ABB0FE96E010EEA22EFCFDFFF0B2942
:100E50003F0B0B6FDF50E55252EF14F0E5EF14F04B
:100E6000010E0101401901E1415101E012000201AE
:100E70000C51000804E204D802010C071200120011
:100E80004DEC14F0E652D7DFDF6EDFCFE6FFBCECAF
:100E900023F0E552630E0101341901E1355101E1FE
:100EA000E4D0690E341901E1355101E1C0D0680E7A
:100EB000341901E1355101E1ABD0670E341901E17C
:100EC000355101E190D0660E341901E1355101E14F
:100ED0007FD0650E341901E1355165E0640E341997
:100EE00001E1355155E00E0E341901E1355144E070
:100EF0000C0E341901E1355136E00B0E341901E1C5
:100F0000355128E00A0E341901E135511AE0020E7C
:100F1000341901E135510CE0010E341901E0D0D053
:100F2000355101E0CDD0210EDF5C01E0C9D02CD0DD
:100F3000540EDF5C02E10A0EC1D0210EDF5C26E117
:100F400023D0490EDF5C02E10B0EB8D0210EDF5C2E
:100F50001DE11AD04D0EDF5C02E10C0EAFD0210E68
:100F6000DF5C14E111D0450EDF5C02E10E0EA6D06D
:100F7000210EDF5C0BE108D03A0EDF5C02E1640E6B
:100F80009DD0210EDF5C02E1020E98D0010E96D0BA
:100F9000E3EC13F001E1121D46E097EC14F006C0FB
:100FA0002DFF650E8AD0E3EC13F001E1121D3BE04A
:100FB00011510F012D27170EE66EE66A2D5180ECB8
:100FC00016F002E0660E79D02A0EE66E450E43D08A
:100FD000E3EC13F001E1121D26E097EC14F006C0DB
:100FE0002EFF670E6AD0E3EC13F001E1121D1BE047
:100FF00011510F012E273B0EE66EE66A2E5180EC52
:1010000016F002E0680E59D0EF0EE66E440E23D0C3
:10101000E3EC13F001E1121D06E097EC14F006C0BA
:101020002FFF690E4AD04D0EE66E450E43D0E3EC1D
:1010300013F001E1121D15E011510F012F273B0E96
:10104000E66EE66A2F5180EC16F002E0630E35D0B2
:10105000CA0EE66E440EA6EC13F0140EE66E450EB4
:1010600029D0B00EE66E440E25D0230EDF5C1DE1C4
:10107000010E346F356B2DCFE6FF020EDDEC13F061
:101080002ECFE6FF010EDDEC13F02FCFE6FFE66A70
:101090001FEC28F0E552E55201012B5111E0900EB2
:1010A000E66E440EA6EC13F00BD0780EE66E440EFE
:1010B000CEEC15F0A6EC13F0010E0101346F356B88
:1010C000630E0101361901E1375101E171D1740E4E
:1010D000361901E1375101E13FD1760E361901E1B0
:1010E000375101E1D1D0750E361901E1375101E1D7
:1010F000BDD0730E361901E1375101E191D0720E66
:10110000361901E1375101E17AD06F0E361901E14C
:10111000375167E06E0E361901E1375155E06D0E1B
:10112000361901E1375144E06C0E361901E13751AF
:1011300036E06B0E361901E1375128E06A0E361998
:1011400001E137511AE0020E361901E137510CE086
:10115000010E361901E05DD1375101E05AD1210E5F
:10116000DF5C01E056D12CD0440EDF5C02E16A0E58
:101170001CD1210EDF5C26E123D0410EDF5C02E1B1
:101180006B0E13D1210EDF5C1DE11AD0540EDF5C13
:1011900002E16C0E0AD1210EDF5C14E111D0450E84
:1011A000DF5C02E16D0E01D1210EDF5C0BE108D0A6
:1011B0003A0EDF5C02E16E0EF8D0210EDF5C02E138
:1011C000020EF3D0010EF1D0BBEC13F001E1141DBF
:1011D00023E0A0EC14F006C032FF07C033FF6F0E0F
:1011E000E3D0BBEC13F001E1141D16E013510F0125
:1011F0003227010114510F013323720ED5D0BBECFD
:1012000013F001E1141D08E0A0EC14F006C034FF57
:1012100007C035FF730EC8D04D0EE66E450EC1D027
:10122000BBEC13F001E1141D01E1B8D013510F0123
:101230003427010114510F0135230C0EE66EE66AC6
:1012400034CFE6FF35CFE6FFEFEC13F006E00F01F9
:101250003451351102E0750EA7D01E0EE66E440E15
:10126000A6EC13F0140EE66E450E9BD0BBEC13F00B
:1012700001E1141D01E192D0A0EC14F006C036FF8C
:1012800007C037FF760E90D0BBEC13F001E1141DC0
:1012900001E184D013510F013627010114510F01D0
:1012A00037233651371106E1080EE66E440EA6ECE0
:1012B00013F0AFD009EC14F0F350F4100CE10F016F
:1012C000373509E236511E08000E375504E2E60EA6
:1012D000E66E430E5DD009EC14F0010EF3180EE13A
:1012E00015500CE10F01373509E236511F08000E89
:1012F000375504E2AE0EE66E430E4AD009EC14F008
:10130000020EF31811E115500FE106EC15F00CE098
:101310000F01373509E236511D08000E375504E23A
:101320008C0EE66E430E34D009EC14F0020EF31866
:1013300011E115500FE106EC15F00CE10F01373506
:1013400009E236511C08000E375504E26A0EE66EBB
:10135000430E1ED0740E28D0BBEC13F001E1141D17
:101360001DE013C138FF14C139FF070EE66EE66AAF
:1013700013C1E6FF14C1E6FFEFEC13F006E00F0126
:101380003851391102E0630E0FD0480EE66E430E5D
:10139000A6EC13F0D00EE66E430E03D0B00EE66E50
:1013A000440EA6EC13F0010E0101366F376B31D0FD
:1013B000230EDF5C23E1010E366F376B32CFE6FF81
:1013C000060EDDEC13F034CFE6FF050EDDEC13F076
:1013D00036CFE6FF040EDDEC13F038CFE6FF030E48
:1013E000DDEC13F001012B5105E0280EE66E430EF3
:1013F000A6EC13F00101010E2A6F0BD0090EE66E68
:10140000430ECEEC15F0A6EC13F0010E0101346F83
:10141000356B01012251630A63E0AD0A52E0030A11
:1014200047E0010A3EE0070A33E0010A27E0030A29
:101430001CE0010A11E0CA0A06E0030A62E1210E7B
:10144000DF5C5FE123D0440EDF5C02E1C80E58D0C0
:10145000210EDF5C54E11AD0480EDF5C02E1C90EB8
:101460004FD0210EDF5C4BE111D0540EDF5C02E166
:10147000CA0E46D0210EDF5C42E108D03A0EDF5C96
:1014800002E1CB0E3DD0210EDF5C39E1020E38D0F7
:101490003FEC14F01DE00A0E2503F3CF23F1CC0E30
:1014A0002FD03FEC14F014E025512327CD0E28D087
:1014B0003FEC14F00DE00A0E2503F3CF24F1CE0E1D
:1014C0001FD03FEC14F004E025512427630E18D000
:1014D000010E226FFA0EE66E420EA6EC13F011D04A
:1014E000230EDF5C06E10F0E006F016B010E296F0A
:1014F00007D0E90EE66E420EA6EC13F00101010ED4
:10150000226FE55252EF14F00101045102E1010E85
:10151000051901E196D0040E041901E1055101E11C
:101520008ED0030E041901E1055101E17AD0010EBC
:10153000041901E1055128E0045101E1055101E0E0
:101540001200DF0EE66E420E8EEC15F0D30EE66E44
:10155000420E9BEC16F006E2040E0101046F056BCF
:10156000266B276B96EC15F006E2010E0101046F65
:10157000056B076B086B99EC15F001E37AD001015C
:10158000046B010E056F12000751081109E0C70E28
:10159000E66E420E8EEC15F0C10EE66E420E08D0DD
:1015A000B70EE66E420E8EEC15F0C70EE66E420EDA
:1015B00089EC16F004E20101046B010E056F99EC51
:1015C00015F003E20101046B056B9CEC15F051E290
:1015D000030E0101046F056B010E156FB9EC16F0D7
:1015E00001012C6F010E20EC14F001012D6F020E91
:1015F00020EC14F001012E6F030E20EC14F0010119
:101600002F6F040E20EC14F00101306F050E20EC5A
:1016100014F00101316F060E20EC14F00101326F5D
:10162000120006EC0FF006EC10F00101395121E038
:10163000046B056B396B010E006F016B12003AEF02
:101640000BF0D30EE66E420EBEEC16F002E223EC77
:1016500015F096EC15F003E20101046B056B99ECB3
:1016600015F007E2010E0101046F056B076F086BAF
:101670001200120001012651020A01E17ED0030A84
:1016800043E0010A01E01200A00EE66E420E8EEC6D
:1016900015F0960EE66E420E9BEC16F026E26E0EEC
:1016A000E66E420EA6EC13F03D0EE66E420EA6EC80
:1016B00013F02D0EE66E420EA6EC13F00B0EE66E46
:1016C000420EA6EC13F0DA0EE66E410EA6EC13F015
:1016D000C90EE66E410EA6EC13F0E5EC14F0010124
:1016E000010E2B6F0C0E006F016B99EC15F004E2EC
:1016F0000101020E266F276B96EC15F056E20101F0
:10170000010E266F276B1200275109E1B80EE66E15
:10171000410E8EEC15F0AE0EE66E410E08D0AE0E08
:10172000E66E410E8EEC15F0C10EE66E420E9BEC9D
:1017300016F014E2A50EE66E410EA6EC13F00101C0
:101740002B6BE5EC14F00C0ECBEC14F03AEC16F02D
:10175000070EF56E0D00F56A0E002A6B99EC15F078
:1017600004E20101266B010E276F96EC15F01DE2D5
:101770000101020E266F010E16D0960EE66E420E85
:10178000BEEC16F002E223EC15F099EC15F005E240
:101790000101010E266F020E276F96EC15F005E28F
:1017A0000101266B020E276F1200120001010B517E
:1017B00002E1010E0C1901E115D1370E0B1901E1FF
:1017C0000C5101E1E0D0360E0B1901E10C5101E1A1
:1017D000B0D0350E0B1901E10C5101E17ED0340E71
:1017E0000B1901E10C514FE0330E0B1901E10C51C3
:1017F00020E0320E0B1901E10C5101E01200940EB1
:10180000E66E410E8EEC15F0830EE66E410E89EC0D
:1018100016F006E2320ECCEC14F0330E0B6F0C6BAC
:1018200099EC15F004E201010B6B010E0C6F090E2F
:10183000D3D0320E0D190BE10E5109E1720EE66E96
:10184000410E8EEC15F0610EE66E410E08D0610E71
:10185000E66E410E8EEC15F0500EE66E410E89ECF0
:1018600016F006E2330ECCEC14F0340E0B6F0C6B5A
:1018700099EC15F006E2330ECCEC14F0320E0B6F3F
:101880000C6B080EA9D0330E0D190BE10E5109E1B6
:10189000830EE66E410E8EEC15F03F0EE66E410EA5
:1018A00008D03F0EE66E410E8EEC15F02E0EE66E61
:1018B000410E89EC16F006E2340ECCEC14F0350E35
:1018C0000B6F0C6B99EC15F006E2340ECCEC14F0B7
:1018D000330E0B6F0C6B010E7FD0340E0D190BE124
:1018E0000E5109E1500EE66E410E8EEC15F01D0E04
:1018F000E66E410E08D01D0EE66E410E8EEC15F020
:101900000C0EE66E410E89EC16F006E2350ECCECBC
:1019100014F0360E0B6F0C6B99EC15F006E2350ED9
:10192000CCEC14F0340E0B6F0C6BFB0EE66EE6681D
:1019300055D0350E0D190BE10E5109E12E0EE66E54
:10194000410E8EEC15F0FB0EE66E400E08D0FB0E3D
:10195000E66E400E8EEC15F0EA0EE66E400E89EC57
:1019600016F006E2360ECCEC14F0370E0B6F0C6B53
:1019700099EC15F006E2360ECCEC14F0350E0B6F38
:101980000C6B000E29D0360E0D190BE10E5109E13A
:101990000C0EE66E410E8EEC15F0D90EE66E400E82
:1019A00008D0D90EE66E400E8EEC15F0000EE66EF5
:1019B000460E89EC16F006E2370ECCEC14F00B6BF9
:1019C000010E0C6F99EC15F006E2370ECCEC14F01A
:1019D000360E0B6F0C6B070EE66EE66A19D8E552F1
:1019E000E5521200EA0EE66E400EA2EC16F003E29B
:1019F000370E57EC15F096EC15F003E2320E57EC6B
:101A000015F09CEC15F003E20A0ECBEF14F0120077
:101A10004DEC14F09CEC15F057E2D0EC14F0FD0EF8
:101A2000DB50141803E1FE0EDB5015184DE0ECEC12
:101A300014F03AEC16F001010900F550145C0F6F38
:101A40000900F5501558106F3AEC16F0FD0EDBCF7B
:101A5000F5FF0D00FE0EDBCFF5FF0E00020E20ECB1
:101A600014F00F012B6F2C6BE85001010F250F01B3
:101A70002B6F2C51010110210F012C6F800E2C15A2
:101A800008E0180E2B252B6F000E2C212C6FE66A18
:101A90000DD02C350DE22B511708000E2C5508E205
:101AA000180E2B5F000E2C5B010EE66EE8D8E55297
:101AB0002BCFE6FF020EDDEC13F0010ECBEC14F0A1
:101AC000380E0B6F0C6B07D09CEC15F004E2010E86
:101AD0000101006F016B52EF14F0D0EC14F0070E0F
:101AE000141801E1155024E0145001E115501EE0D6
:101AF000FB0E141802E1E868151816E0010E141820
:101B000001E115500FE0080E141801E1155008E02E
:101B1000090E141801E1155001E01200320E09D02F
:101B2000330E07D0340E05D0350E03D0360E01D05B
:101B3000370E01010B6F0C6B12004DEC14F0300EE0
:101B4000F36EFE0E01EC15F00CE3FE0EDB503908CF
:101B500008E3FE0EDB50D00F156AF36E15C0F4FFDC
:101B600002D0F368F46852EF14F04DEC14F0ECEC92
:101B700014F0FB0EDBCF16F0FC0EDBCF17F0175086
:101B80001518E8AE02D0153404D01450165C155068
:101B9000175802E2F36A02D0010EF36EF46A52EFB4
:101BA00014F04DEC14F0E150FD0FE96EFF0EDA2059
:101BB000EA6E020EEE1804E1ED5002E1020E1FD0B3
:101BC000C4EC14F0040EEE1801E1ED5015E0C4EC85
:101BD00014F0060EEE1801E1ED500EE0C4EC14F026
:101BE000090EEE1801E1ED5007E0C4EC14F00B0E05
:101BF000EE1804E1ED5002E1F36A02D0010EF36E3B
:101C0000F46A52EF14F04DEC14F0ECEC14F0040E06
:101C100056EC14F00450051016E1FD0EDBCF16F063
:101C2000FE0EDBCF17F0640E0D6E0E6A16C008F0C4
:101C300017C009F05AEC29F004C016F005C017F0DF
:101C40000450051017E1FD0EDBCF18F0FE0EDBCFC0
:101C500019F0900E0D6E010E0E6E18C008F019C02E
:101C600009F05AEC29F004C018F005C019F004502E
:101C7000051002E1010E01D0000E52EF14F04DEC00
:101C800014F0040EE12620EC14F0DF6E030E20ECBD
:101C900014F0E76E010EE7CFDBFF050E20EC14F029
:101CA000E76E020EE7CFDBFF060E20EC14F0E76EC6
:101CB000030EE7CFDBFFFE0EDB503FE1DF06010E38
:101CC000DB06F36EDBCFF4FFE850F45C03E2DE5298
:101CD000070EDD6E010EDF5C01E377D0020EDB0440
:101CE00008E11F0EDF6E0C0E71EC15F0030EDB0623
:101CF0006CD0B3EC13F0F350F41004E1020EDB06E9
:101D00001F0E62D084EC16F00BE1155009E1020EB3
:101D1000DB50030805E0010E71EC15F01E0E54D0E7
:101D200084EC16F052E1155050E1030EDB50030B2A
:101D300002E11D0E49D01C0E47D0DF2A010EDB2A1E
:101D4000DB50070803E2DE52010EDD6E020EDB50AF
:101D50000C080BE1DF501F0808E2010E71EC15F0D2
:101D6000010EDF6E030EDB2A30D0B3EC13F0F3501C
:101D7000F41003E1DF501E0824E384EC16F005E1C3
:101D8000155003E1DF501F081CE3B3EC13F0020E03
:101D9000F31809E1155007E1030EDB50030B03E1D3
:101DA000DF501D080EE3B3EC13F0020EF3180DE143
:101DB00015500BE1030EDB50030B07E0DF501C084E
:101DC00004E2020EDB2A010EDF6EDFCFE6FF040E17
:101DD000DDEC13F0010EDBCFE6FF030EDDEC13F0BC
:101DE000020EDBCFE6FF050EDDEC13F0030EDBCFBA
:101DF000E6FF060EDDEC13F0146E040EE15C02E269
:101E0000E16AE552E16E145052EF14F001012F51D6
:101E1000070A24E0010A1EE0030A18E0010A12E0A2
:101E2000070A0CE0010A06E0030A1DE1D50EE66E82
:101E3000400E17D0D10EE66E400E13D0CD0EE66EDA
:101E4000400E0FD0C90EE66E400E0BD0C50EE66EEA
:101E5000400E07D0C10EE66E400E03D0BD0EE66EFA
:101E6000400E8EEC15F00A0E01012E5D09E2A8EC81
:101E700015F0040E8FEC16F008EC16F0050E03D0EA
:101E800008EC16F0040E6AEC16F02FEC15F07CEC62
:101E900013F00A0E01012D5D09E2A8EC15F0070E02
:101EA0008FEC16F00FEC16F0080E03D00FEC16F0C6
:101EB000070E6AEC16F0090E8FEC16F00A0E0101FF
:101EC0002C5D08E2A8EC15F031EC16F016EC16F0DB
:101ED0000B0E03D016EC16F00A0EE66EE66AACECBA
:101EE00013F00101150506E1B90EE66E400EE66E2F
:101EF0000D0E08D0020E155D07E1B40EE66E400E21
:101F0000E66E0C0E8FEC16F0010131510C0A42E026
:101F1000070A3CE0010A36E0030A30E0010A2AE041
:101F20000F0A24E0010A1EE0030A18E0010A12E089
:101F3000070A0CE0010A06E0030A31E1B00EE66E82
:101F4000400E2BD0AC0EE66E400E27D0A80EE66EEB
:101F5000400E23D0A40EE66E400E1FD0A00EE66EFB
:101F6000400E1BD09C0EE66E400E17D0980EE66E0B
:101F7000400E13D0940EE66E400E0FD0900EE66E1B
:101F8000400E0BD08C0EE66E400E07D0880EE66E2B
:101F9000400E03D0840EE66E400E6FEC16F076EC29
:101FA00015F0050EA5EC15F00101305D09E276ECA7
:101FB00015F0060E8CEC16F01DEC16F0070E03D093
:101FC0001DEC16F0060E9FEC15F076EC15F0080EE1
:101FD0008CEC16F0140EDCDBE66A090EEBEC13F069
:101FE000DDEC15F00A0E0101325D0BE225EC15F077
:101FF0000B0EEBEC13F0DDEC15F024EC16F00C0EF0
:1020000003D024EC16F00B0E9FEF15F001010A51DE
:10201000FF0A01E1B6D1F30A01E178D1070A01E133
:1020200034D1010A01E1F0D0030A01E1C4D0010A70
:1020300001E187D00F0A49E0010A0EE0060A01E03B
:102040001200A2EC15F001E1E2D10101330501E03B
:10205000DED1060E0A6F12003FEC16F005E2AEEC80
:1020600016F0040E8FEC16F0BEEC15F004E0010142
:102070002E29D8EC14F0CBEC15F008E001012E0568
:102080002E6FE850170802E2170E2E6FB3EC15F012
:1020900005E0050E01012E25D8EC14F0B6EC15F084
:1020A00009E0050E01012E5D2E6FE850170802E2CF
:1020B000170E2E6FA2EC15F003E00101070E0A6F58
:1020C00042EC16F001E1A3D15AD13FEC16F005E243
:1020D000AEEC16F0070E8FEC16F0BEEC15F006E035
:1020E00001012D296AEC14F005C02DF1CBEC15F09F
:1020F00008E001012D052D6FE8503B0802E23B0E80
:102100002D6FB3EC15F006E0140E01012D25E2DB76
:1021100005C02DF1B6EC15F009E0140E01012D5D9E
:102120002D6FE8503B0802E23B0E2D6FA2EC15F03C
:1021300003E00101080E0A6F42EC16F001E167D1DD
:102140001ED13FEC16F004E2AEEC16F031EC16F0C6
:10215000BEEC15F005E001012C29BCDB05C02CF11B
:10216000CBEC15F008E001012C052C6FE8503B0882
:1021700002E23B0E2C6FB3EC15F006E0140E0101E9
:102180002C25A8DB05C02CF1B6EC15F009E0140EE7
:1021900001012C5D2C6FE8503B0802E23B0E2C6FD6
:1021A000A2EC15F003E00101090E0A6F42EC16F0F3
:1021B00001E12DD1E4D03FEC16F005E27E0EE66E93
:1021C000400E8EEC15F0BEEC15F008E001012F2951
:1021D0002F6FE850070802E2010E2F6FCBEC15F0CD
:1021E00008E001012F052F6FE850070802E2070EF3
:1021F0002F6FA2EC15F003E001010A0E0A6F42EC0A
:1022000016F001E104D1BBD03FEC16F005E2AEECD4
:1022100016F0060E8CEC16F0BEEC15F008E001018D
:102220003029306FE8501F0802E2010E306FCBEC0E
:1022300015F008E001013005306F010E305D02E25B
:102240001F0E306FB3EC15F009E00A0E01013025C6
:10225000306FE8501F0802E2010E306FB6EC15F047
:1022600009E00A0E0101305D306F010E305D02E2BF
:102270001F0E306FA2EC15F003E001010B0E0A6F88
:1022800042EC16F001E1C3D07AD03FEC16F005E243
:102290007E0EE66E400E6FEC16F0BEEC15F008E018
:1022A00001013129316FE8500C0802E2010E316F53
:1022B000CBEC15F008E001013105316F010E315D05
:1022C00002E20C0E316FB3EC15F009E0030E0101D0
:1022D0003125316FE8500C0802E2010E316FB6EC87
:1022E00015F009E0030E0101315D316F010E315D22
:1022F00002E20C0E316FA2EC15F003E001010C0EAE
:102300000A6F42EC16F001E182D039D03FEC16F0B2
:1023100004E2A0DB090E8CEC16F0BEEC15F007E031
:1023200001013229326FE850630801E2326BCBECD5
:1023300015F008E001013205326FE850630802E24F
:10234000630E326FB6EC15F009E0050E0101325D47
:10235000326FE850630802E2630E326FB3EC15F09F
:1023600008E0050E01013225326FE850630801E2F2
:10237000326BE8DB01E0A2DB42EC16F048E05EEFF6
:1023800015F0336B43DD0101D7D902E254EC16F0AE
:10239000D9DB25E00101150522E125DB396F156B3D
:1023A0002CC1E6FFE66A71EC28F0E552E5522EC139
:1023B000E6FF020E02DA2DC1E6FF010EFED92FC1A3
:1023C000E6FF030EFAD930C1E6FF040EF6D931C19B
:1023D000E6FF050EF2D932C1E6FF060EEED9B2DBFA
:1023E00007E0020E0101155D03E1FDDA396F156B9F
:1023F000D2DB0AE00101150502E1020E04D0020E53
:10240000155D02E1010E156FB9DB01E0ECDA120097
:1024100044DA080EE1261DDAE906000EEA5A010E3A
:10242000D890E936EA36E806FBE169DADF6E1BDBB5
:10243000010EF6DA100B01E0010E1D0FE76E020E21
:10244000EFDA200B01E0010EE76E030EE7CFDBFFB2
:1024500000DA010ED890E936EA36E806FBE14FDAF9
:10246000E76E040EE7CFDBFFFEDA050EE7CFDBFFFA
:10247000020EDB50DF5C29E1040EDB50020825E18F
:10248000FE0EDB0404E11FDADFCFEFFF2CD0FE0EDF
:10249000DB501F0806E117DA010EEF6EF7D9050EC3
:1024A00024D0FE0EDB0473EC16F0030EDB501BE1B0
:1024B000010EDB500C0802E1010E02D0010EDB28F8
:1024C000E66EE4D9E552E7502AD0FE0EDB50DF2459
:1024D000FF0F73EC16F0F7D9EFCF14F0020EDB50BC
:1024E000D880145405E3D2D9010EDBCFEFFF18D00A
:1024F000EAD9020EDB50EF5E030EDBCFE6FF010EE2
:10250000DB28E552D880E754E66EC0D9E552E750A3
:10251000EF6EBCD9EF500D0803E1B8D9010EEF6E94
:10252000B5D9EF50F36EFD0E6CDA08E363DAFB0EFB
:10253000DBCFEEFFFC0EDBCFEDFF09D0DADB1406BC
:10254000000E155A57DA14C0EEFF15C0EDFF52DA2F
:10255000D00EEE5E070EED5A080EE15C02E2E16A73
:10256000E552E16E9FD199D965DA01E1095050E059
:10257000020E081801E1095047E0010E081801E1B8
:1025800009503EE0085001E1095036E0090E0818F4
:1025900001E109502DE0080E081801E1095024E07E
:1025A000070E081801E109501BE0060E081801E1AA
:1025B000095012E0050E081801E1095009E0040E67
:1025C00008182CE109502AE1780EE66E400E23D05F
:1025D000740EE66E400E1FD06E0EE66E400E1BD0DF
:1025E000680EE66E400E17D0630EE66E400E13D0F6
:1025F0005F0EE66E400E0FD0590EE66E400E0BD009
:10260000540EE66E400E07D04E0EE66E400E03D01E
:10261000490EE66E400EE66E050E81DB43D13DD9D4
:1026200009DA01E1095062E0020E081801E10950DF
:1026300059E0010E081801E1095050E0085001E18D
:10264000095048E00B0E081801E109503FE00A0E5E
:10265000081801E1095036E0090E081801E1095097
:102660002DE0080E081801E1095024E0070E0818B3
:1026700001E109501BE0060E081801E1095012E0C3
:10268000050E081801E1095009E0040E081833E1AD
:10269000095031E1460EE66E400E2BD0420EE66E3A
:1026A000400E27D03E0EE66E400E23D03A0EE66E68
:1026B000400E1FD0350EE66E400E1BD0320EE66E79
:1026C000400E17D02E0EE66E400E13D02A0EE66E88
:1026D000400E0FD0250EE66E400E0BD0210EE66E9A
:1026E000400E07D01C0EE66E400E03D0180EE66EAC
:1026F000400EE66EB6DAD6D044EC1EF0E552E55256
:10270000E552E5521200E66E97EC25F0E55200081E
:10271000120015C0E6FF16C0E6FF17C0E6FF120064
:10272000E66E97EC25F0E55200091200E66EA1EC8A
:1027300025F0E552000912000629146E140E0DDA78
:1027400005C006F1010105500F081200E66EB4EC59
:1027500024F0E552E5521200F6EC1DF0186E060E5C
:10276000E15E18501200020EDBCFE6FFE66AD1EC04
:102770000DF0E4EF15F078DAF3CF13F1F4CF14F1A4
:102780000101F31C1200C20EE66E450EE66E120049
:10279000E66EE66AE66A12001C29146E140EDDD994
:1027A00005C01CF1010105500F0812009EEC04F059
:1027B000E552E552E552E5521200E66E71EC28F062
:1027C000E552E552120050DAF3CF11F1F4CF12F1D5
:1027D0000101F31C1200E66E010EE66E1200B5EC6C
:1027E0000DF0E552E552F0D9F350F4101200DECFAF
:1027F000E9FFDDCFEAFF030EEA02F3CFEAFFE902C9
:10280000F3CFE9FFF450EA263A0EE9260F0EEA224A
:10281000120034CFE6FF35CFE6FFD1EC0DF0E4EF48
:1028200015F000C102F101C103F11200A2D9010E9D
:10283000156A1E25146E1F511522145020191200FE
:10284000E66E7CEC28F0E5521200156A166A176AEB
:1028500012004FDAE50E145E070E155A0C0E150223
:10286000F3CF15F01402F3CF14F0F4501526FD0E3B
:10287000DB50F324E96E000E1520EA6E1200F4D945
:10288000F3CF25F1FF0E0101F35C1200F70EDBCF51
:10289000E9FFF80EDBCFEAFF1200D9CFE6FFE1CF68
:1028A000D9FF1200E552E7CFD9FF12000D6E0E6A74
:1028B00014C008F015C009F05AEC29F004C014F057
:1028C00005C015F01200F90EDBCFE9FFFA0EDBCFE1
:1028D000EAFF1200146E3C0EADEF15F03E51030DF1
:1028E000F3CFE9FFF4CFEAFF3A0EE9260F0EEA2212
:1028F0001200E66EFE0EDBCFE6FFDDEF15F0420EB6
:10290000E926010EEA22060EEECFDBFF070EEDCF21
:10291000DBFFD950060FE96EDACFEAFFEF501F0B4D
:102920001200E66EA1EC25F0E552000812000A0E36
:10293000086E096A11C10DF012C10EF0ADEF29F059
:102940000A0E086E096A13C10DF014C10EF0ADEF46
:1029500029F00FDA01011E6F1F6BB9EF15F03DCFA3
:10296000E6FF3ECFE6FF3FCFE6FF120040CFE6FF97
:1029700041CFE6FF42CFE6FF120043CFE6FF44CF50
:10298000E6FF45CFE6FF1200D950FD0FE96EFF0EBE
:10299000DA20EA6E1200BCD101010D6F0E6B12003D
:1029A00069D90900F5CF14F00800F5CF15F0120031
:1029B000146E180ED2D805C02EF11200146E156ACE
:1029C000D00E1426070E1522120002010A6B020116
:1029D0000B6B02010C6B1200FD0EDBCF14F0FE0E30
:1029E000DBCF15F012004DEC1DF001010A6B010E5A
:1029F000336F1200F50EDBCFE9FFF60EDBCFEAFFF7
:102A00001200DBCFF4FFF350F45C120032CFE6FF8C
:102A100033CFE6FF03EC0EF0E552E5520009120059
:102A2000E7CFDBFFD950060FE96EDACFEAFFEE52AF
:102A3000EF501200FD0EDBCF08F0FE0EDBCF09F0E9
:102A4000030E08181200080E63D1E66AE66AE66A09
:102A5000E66A1200660EE66E450EE66E1200060E7F
:102A6000E66EE66A1200D950060FE96EEE52EF509C
:102A70000F0BE76E120046CFE6FF47CFE6FF48CFC9
:102A8000E6FF120016C114F017C115F0166A176A96
:102A9000120018C114F019C115F0166A176A120055
:102AA0001AC114F01BC115F0166A176A1200010151
:102AB0000B6F0C6B0D6B010E0E6F12004DEC1DF0C9
:102AC0000101010E336F0A691200100E21D10F01AE
:102AD0003A0E4C6F0101120020C11EF121C11FF1FD
:102AE0001200F36E020EF3CFDBFF1200820EE66ED1
:102AF000400EE66E1200E66EE66A010EE66E7CEFB0
:102B000013F041DEACDFF8DD3EDE090E08D93BDE16
:102B1000060E02D938DE090E8CEF16F039DE7CEF96
:102B200013F0DBCF14F091DE97EF16F0050E83EF74
:102B300013F0040E83EF13F0060E83EF13F04BDE59
:102B4000ACEF13F0060E90EF13F0E6D80A0E120069
:102B5000850EE66E450EE66E1200156E0E6E14C002
:102B600009F0D6EF2AF0040E96EF13F0050E96EF5B
:102B700013F0FFD80101206F216B1200040E90EFBB
:102B800013F03ACFE6FF3BCFE6FF3CCFE6FFE66A25
:102B90000DDEAFEF14F0050E90EF13F0D7DD5B0EF6
:102BA000E66E440ED3DD420EE66E440E1200E66E73
:102BB000FE0EDBCFE6FFACEF13F0F6EC1DF0146E6B
:102BC000060EE15E14501200E552E552F3CF14F008
:102BD000F4CF15F01200010EE66ED6EF13F0870E5B
:102BE000E66E450E12003BC114F02FDE3BC1E6FF3E
:102BF00089EF13F03CC114F028DE3CC1E6FF89EFF9
:102C000013F03DC114F021DE3DC1E6FF89EF13F062
:102C10002EC114F01ADE2EC1E6FF89EF13F02DC18C
:102C200014F013DE2DC1E6FF89EF13F02CC114F070
:102C30000CDE2CC1E6FF89EF13F030C114F005DE85
:102C400030C1E6FF89EF13F032C114F0FEDD32C16E
:102C5000E6FF89EF13F0040E8CEF16F0070E8CEFF1
:102C600016F00A0E8FEF16F0DFCFE6FF9DEC0DF0A9
:102C7000E5521200060EF66E000EF76E1200336B70
:102C80009CEF13F0060E96EF13F069DEE66A8EDD18
:102C9000B6EF14F06BDEE66A89DDBDEF14F06DDE91
:102CA000E66A84DD3BEF15F0D5DE0C0E8FEF16F0F3
:102CB000B8DD040E43D0FADD04C0E6FF05C0E6FF30
:102CC0001200AFDD060E3AD0ACDD0A0E37D0A9DD1A
:102CD0000D0E34D0E66EE66A3FDDC3EF13F0E66E0C
:102CE000020E8CEF16F0E66EEEDDE552E750EF6E69
:102CF0001200FB0EDBCF14F0FC0EDBCF15F0120040
:102D0000E66EE66AEFEF13F02EDD010EF318120007
:102D100015D0F1DE96EF15F05EDD7CEF13F0E66E78
:102D2000E66A7CEF13F057DFECDE96EF15F014C087
:102D3000E6FF89EF13F0DFDE9CEF15F00101006F75
:102D4000016B1200EBDECE0EE66E450ED4DE99EF7F
:102D500015F0F5DE18DD060EA5EF15F040DFE66E86
:102D60001200DCDE3CDF7BEF15F030EC07F09CEF6F
:102D700015F0E66A7CEC28F0E5521200CFDEB10EC9
:082D8000E66E420E9BEF16F017
:082D8800D9CFE6FFE1CFD9FF2E
:102D9000020EE126DE6ADD6A6CD86CEC1CF04DECAC
:102DA0001DF0D0D8FEEC1AF00A0EE66E400EE66E6C
:102DB000060EE66EE66A2EEC1DF0E552E552E5528F
:102DC000E552D00EE66E070EE66E0FD8E552E552DC
:102DD0000F015851FDE0586B4DEC1DF075EC25F0DE
:102DE00040EC00F075EC1DF0F3D7D9CFE6FFE1CF52
:102DF000D9FF040EE126DE6ADD6ADECF14F0DDCFF6
:102E000015F0FD0EDBCF16F0FE0EDBCF17F01550E0
:102E10001718E8AE02D0173404D01650145C1750BF
:102E200015581DE2020EDB6A030EDB6A020EDBCFD1
:102E300014F0030EDBCF15F0D890155004E6EE0E1B
:102E4000145C000E155806E2020EDB2A030EEEE3B8
:102E5000DB2AECD7DF2A010ED0E3DB2ACED7040E23
:102E6000E15C02E2E16AE552E16EE552E7CFD9FFAB
:102E70001200936A956AE6EC1BF0AAEC28F0BEDB20
:102E8000570EE66E120EE66E92EC26F0E552E55213
:102E9000AE0EE66E240EE66EA8EC26F0E552E55284
:102EA000660EE66EB70EE66ED7EC26F0E552E552FA
:102EB000020EE66EE66A30EC27F0E552E5520A0EA5
:102EC000E66EE66A3CEC27F0E552E5520A0EE66E45
:102ED000E66A55EC27F0E552E5524AEC25F0E6ECBF
:102EE00027F074EF23F00F01370E6D6F3B0E6E6FFE
:102EF000170E6F6F070E706F1F0E716F0C0E726FD3
:102F00000D0E736F6DCFE6FFE66A71EC28F0E552A7
:102F1000E5526ECFE6FF010E1FDB6FCFE6FF020E1C
:102F20001BDB70CFE6FF030E17DB71CFE6FF040E4D
:102F300013DB72CFE6FF050E0FDB73CFE6FF060E45
:102F4000ACEF1AF0200E95DB220811E0CCDFE66A28
:102F5000100E02DBE66A110EFFDAE66A120EFCDAE8
:102F6000E66A130EF9DA220EE66E200EF5DA12008A
:102F7000100E7FDB0F01766F110E7BDB0F01776F79
:102F8000120E77DB0F01786F130E73DB0F017C6F6E
:102F90001200FCDA146E1FDBE66ED7DAE66AE66A28
:102FA000E1DA72CF14F017DB72CFE6FFCEDA030E50
:102FB00085DB7DDB060E82DB70CF14F00CDB70CF7F
:102FC000E6FFC3DA090E7ADB5DDBE66A010EE66E28
:102FD000C9DA5FDB030E76DB63DB060E62EF1BF004
:102FE000D5DA7051070A24E0010A1EE0030A18E04E
:102FF000010A12E0070A0CE0010A06E0030A1FE1D9
:10300000060EE66E400E17D0020EE66E400E13D08E
:10301000FE0EE66E3F0E0FD0FA0EE66E3F0E0BD0A0
:10302000F60EE66E3F0E07D0F20EE66E3F0E03D0B0
:10303000EE0EE66E3F0EE66EE66AE66A7FDA0A0E8E
:103040000F016F5D06E2D5DA040E18DB1BDB050EFF
:1030500002D018DB040E32DBEFDA060E0FDB0A0EAD
:103060000F016E5D06E2C5DA070E08DB12DB080E03
:1030700002D00FDB070E22DBDFDA090EFFDA0A0EC1
:103080000F016D5D06E2B5DA0A0EF8DA09DB0B0E08
:1030900002D006DB0A0E12DB0F017851010A06E0AE
:1030A000010A0AE1E60EE66E3F0E03D0E20EE66E7E
:1030B0003F0EE66E0D0EE2DA0101150506E1DE0EA9
:1030C000E66E3F0EE66E0D0E08D0020E155D06E1AF
:1030D000D90EE66E3F0EE66E0C0ED0DA0F0172517D
:1030E0000C0A42E0070A3CE0010A36E0030A30E03D
:1030F000010A2AE00F0A24E0010A1EE0030A18E090
:10310000010A12E0070A0CE0010A06E0030A32E1B4
:10311000D50EE66E3F0E2BD0D10EE66E3F0E27D0B9
:10312000CD0EE66E3F0E23D0C90EE66E3F0E1FD0C9
:10313000C50EE66E3F0E1BD0C10EE66E3F0E17D0D9
:10314000BD0EE66E3F0E13D0B90EE66E3F0E0FD0E9
:10315000B50EE66E3F0E0BD0B10EE66E3F0E07D0F9
:10316000AD0EE66E3F0E03D0A90EE66E3F0EE66E84
:10317000020E76DA66DA050E73DA0A0E0F01715D59
:1031800006E25FDA060E6CDA92DA070E02D08FDA08
:10319000060E98DA56DA080E63DA140EE66EE66A60
:1031A000E66AE66A090E1BDA32DA0A0E0F01735D6F
:1031B0000AE2E66AE66AE66AE66A0B0E10DA27DADF
:1031C00084DA0C0E02D081DA0B0E62EF1BF0960E41
:1031D000E66E3F0EE66EE66AE66AB0D937DAE66A70
:1031E000010EE66EABD90A0E0F01765D06E201DA3A
:1031F000020E36DA71DA030E02D06EDA020E62DAED
:103200001BDA040E2DDA0A0E0F01775D06E2F1D902
:10321000050E26DA68DA060E02D065DA050E52DAF5
:103220001ADA070E1DDA0F017851010A06E0010AC9
:103230000AE1E60EE66E3F0E03D0E20EE66E3F0EAA
:10324000E66E0A0E0DDA07DA0D0E30EF1BF00F01F5
:103250007451FF0A01E1B2D0FC0A01E184D0010AF5
:1032600049E0030A0DE0010A01E0120051DA01E130
:10327000B8D00F017D0501E0B4D0010E746F1200CB
:1032800078D903E2E3D9020EEBD945DA03E00F0166
:10329000762944DA040EA7D904E0050E0F0176253D
:1032A0003DDA050E92D90CE00F017605766FE850F5
:1032B000170802E2170E766F76CFE6FF100E4CD994
:1032C000050E91D90DE0050E0F01765D766FE85081
:1032D000170802E2170E766F76CFE6FF100E3CD984
:1032E00017DA03E00F01020E746F060E7CD901E1BC
:1032F00078D05DD03ED903E2A9D9050EB1D90BDA59
:1033000003E00F0177290FDA040E6DD904E00A0EED
:103310000F01772508DA050E58D90CE00F01770563
:10332000776FE8503B0802E23B0E776F77CFE6FFFE
:10333000110E12D9050E57D90DE00A0E0F01775D57
:10334000776FE8503B0802E23B0E776F77CFE6FFDE
:10335000110E02D9DDD903E00F01030E746F060EC2
:1033600042D93FE024D005D903E275D90A0E78D9B5
:10337000D2D907E00F017829010B786FE66E120EA3
:10338000EBD8050E22D90CE00F017805786FE850D4
:10339000010802E2010E786F78CFE6FF120EDCD84A
:1033A000B7D902E00F017469060E1DD91AE04DEC81
:1033B0001DF00F01010E7D6F746B1200DAD806E26A
:1033C0008A0EE66E3F0EE66E0A0E58D9A4D903E1C6
:1033D000050EFBD801E022D99BD903E01FD90101DA
:1033E000386F12000F01010E081903E1095101E1C4
:1033F000010C000C0F010A0E081903E1095101E14B
:10340000010C000C0F01010E101903E1115101E133
:10341000010C000C0F010A0E101903E1115101E11A
:10342000010C000C0F01010E0A1901E10B5115E00E
:103430000A0ED8800A55000E0B5510E20ACF14F080
:103440000BCF15F0030E0D6E0E6A0ACF08F00BCFEE
:1034500009F0EBD803E1155001E1010C000C0F015C
:10346000010E121901E1135115E00A0ED880125510
:10347000000E135510E212CF14F013CF15F0030E07
:103480000D6E0E6A12CF08F013CF09F0CED803E10B
:10349000155001E1010C000C0F0176516F5D0AE13E
:1034A00077516E5D07E16D5105E1780503E17D051A
:1034B00001E1010C000C0F017551050A16E0010A2B
:1034C00005E0040A01E01200040E0DD0E5DF00095A
:1034D00006E00F01010E7C6FE66E130E3DD80F0162
:1034E0007C512BE0050E756F12007D6B7E29146EEA
:1034F000140EB9D805C07EFF0A0E0F01055C02E26A
:103500004DEC1DF00F01792B000E7A23900ED88020
:103510007955010E7A5502E3FED80FE00F01010E36
:103520007D6F7C6B7CCFE6FF130E16D80F01796B95
:103530007A6B4DEC1DF00F01756B120044EC1EF020
:10354000E552E552E552E552120015C0E6FF16C0FD
:10355000E6FF17C0E6FF1200E66E71EC28F0E552B8
:10356000E5521200F6EC1DF0186E060EE15E1850E2
:1035700012007D6B2CDE0F017B29146E140E73D8A4
:1035800005C07BFF0F0105500F081200E66A7CECB6
:1035900028F0E5520F016D6F010E6BD80F016E6FB1
:1035A000020E67D80F016F6F030E63D80F01706FA3
:1035B000040E5FD80F01716F050E5BD80F01726F9B
:1035C000060E57D80F01736F1200E66E97EC25F0C8
:1035D000E55200091200156A166A176A1200E66EB3
:1035E000010EE66E1200E66EA1EC25F0E552000930
:1035F0001200EC0EE66E3F0EE66E1200E80EE66E6E
:10360000030EE66EF5EC16F0E552E5521200F6EC0C
:103610001DF0146E060EE15E145012004DEC1DF00C
:103620000F01746B010E7D6F1200A2EC2AF005C031
:1036300015F0010E04181200EA0EE66E3F0EE66E5B
:103640001200A70EE66E3F0EE66E1200930EE66EB7
:103650003F0EE66E12008F0EE66E3F0EE66E120013
:10366000BEDF9EEF1AF0156E0E6E14C009F0D6EF95
:103670002AF0E66E7CEC28F0E5521200E66EE66A6F
:103680009EEF1AF06FCF14F0A6DF6FCFE6FFA5EF25
:103690001AF06ECF14F09FDF6ECFE6FFA5EF1AF0A1
:1036A0006DCF14F098DF6DCFE6FFA5EF1AF071CF64
:1036B00014F091DF71CFE6FFA5EF1AF0E66EE66A2F
:1036C000B2EF1AF08CDFB2EF1AF073CF14F083DF91
:1036D00073CFE6FFA5EF1AF076CF14F07CDF76CF3C
:1036E000E6FFA5EF1AF077CF14F075DF77CFE6FF8E
:1036F000A5EF1AF005C076FF05C0E6FF100EACEF8F
:103700001AF005C077FF05C0E6FF110EACEF1AF006
:10371000060EE5EF1AF0040EE5EF1AF0146E180E1F
:10372000A2DF7AEF1BF0146E3C0E9DDF81EF1BF0E1
:10373000ACEC1FF07BDB15AE02D01668176820DBFF
:1037400013E289DB49DB04E6050E145C000E155814
:1037500006E2020EDB2A030EF5E3DB2AF3D7DF2AAB
:10376000010EE8E3DB2AE6D7040EE15C02E2E16A3F
:10377000E552E16EBBD2F0DB59DB15AE02D0166824
:103780001768FEDA13E267DB27DB04E6EE0E145C53
:10379000000E155806E2020EDB2A030EF5E3DB2AC3
:1037A000F3D7DF2A010EE8E3DB2AE6D7040EE15C5B
:1037B00002E2E16AE552E16E99D2D4DBF00B6BDBF9
:1037C000FE0EDB38F00B811278DA90D2C2DB190ED4
:1037D00050DB0F0E8116F80E81160F0E8116300E7B
:1037E0005ADB300E58DB300E56DB818A66DA280E43
:1037F000E66EE3DFE5520C0EE66EDFDFE552E552E2
:1038000075D29DDB010EDB6A81944ADBE76E010E07
:10381000E7CFDBFF819644DBDF6E010EDB50DF126A
:103820008196010E51DADF50146E020EE15C02E265
:10383000E16AE552E16E145059D28BDBDF6AE1DFB9
:10384000DF6EDFBEFCD7DF50E55250D28BDB81123A
:103850008186050E39DA8196050E36DA47D241DACD
:103860008194050E31DA98DA41D23BDA8184050E73
:103870002BDA92DA81943AD23BD33AD332DAFD0E84
:10388000DBCFF6FFFE0EDBCFF7FF0800F5500DE0B3
:10389000FD0EDBCFF6FFDB2AFE0EDBCFF7FF01E3E9
:1038A000DB2A0800F5501BDBEAD720D252DBFD0EE5
:1038B000DB500F0B146EFE0EDB50010B400DF3506E
:1038C0001424DF6E7F0EDF14800FDF6EDFCFE6FF84
:1038D000C6DFE552E5520AD2010EE66EC0DFE552C0
:1038E000E66AE66AB8EF1FF0FCD9050EE126010E84
:1038F000F36EDB6EB0DA040EDB6ADF6ADFCF14F042
:10390000156A14BE156899DA15501718E8AE02D07A
:10391000173404D01650145C175015581FE2FD0ED2
:10392000DBCF14F0FE0EDBCF15F0166A176A15AE6A
:1039300002D016681768D950010FE96EDACFEAFF96
:1039400014C00BF015C00CF016C00DF017C00EF02F
:10395000DBDA29EC2AF0E1DADF2AD0D7010EDBCF5F
:1039600014F0020EDBCF15F0030EDBCF16F0040EC1
:10397000DBCF17F014C006F015C007F016C008F032
:1039800017C009F0050EE15C02E2E16AE552E16E62
:10399000ADD1D5DAFB0EDBCF14F0FC0EDBCF15F08A
:1039A000FD0EDBCF16F0FE0EDBCF17F01450151016
:1039B0001610171003E1300E92DA36D0D950FB0FF3
:1039C00014DA01E618DA05E22D0E89DAD950FB0F78
:1039D000CAD9DE52070EDD6E37DAE8AE02D01434F3
:1039E00003D0E750D88014541FE217DA18BE1968C4
:1039F00071D936DA5EDA08DA0BE0010EDF6EDB042D
:103A00001C6E1D6A1CBE1D6883D953DA9FD903D072
:103A1000DF5002E0300E63DA00DA18BE19685AD9B6
:103A2000D950FB0F6CD9D8D7020EE15C02E2E16AF3
:103A3000E552E16E5BD155D9C7D9D950F90F53DAA8
:103A4000EECFE6FFEECFE6FFEECFE6FFEFCFE6FFED
:103A5000A0DFE552E552E552E55248D142D9B4D94A
:103A6000FB0EDBCFE6FFFC0EDBCFE6FF07DFE55208
:103A7000E5523CD136D9FCC014F0FDC015F0040E5F
:103A8000D89014361536E806FBE192D9FE0EDBCF4E
:103A9000EFFFFE2B000EFF2329D15BDADF6ADFCFB9
:103AA00014F0100EE76E1418E8AE02D0E73402D01E
:103AB000E750145C18E2DFCFE9FFEA6AE9BEEA6882
:103AC000C10EE926000EEA22200EEF6EDFCFE9FFDD
:103AD000EA6AE9BEEA68D10EE926000EEA22200E63
:103AE000EF6EDF2ADCD7E55201D133DA0001C05195
:103AF000030A29E0010A1CE0030A0CE0010A32E192
:103B00003BDA080EDF5C03E2DF50B9D9FAD70001D7
:103B1000010E17D0080EE66EE66A09D9080EDF5CC2
:103B200004E2080EDF24ABD9F9D70001020E09D058
:103B30000BDA080EDF5C03E2DF50A7D9FAD70001E9
:103B4000030EC06F10D0080EE66E010EE66EEFD8C1
:103B5000080EDF5C04E2080EDF2497D9F9D70001D4
:103B6000C06B01D0C06BE552C1D0F3D90001C05188
:103B7000010A0DE0010A15E1FFD9100EDF5C03E236
:103B8000DF507DD9FAD70001010EC06F0BD0DCD910
:103B9000100EDF5C03E2DF5078D9FAD70001C06B6A
:103BA00001D0C06BE552A2D0D4D9E6D9100EDF5CAB
:103BB00003E2DF5064D9FAD7C7D9100EDF5C03E205
:103BC000DF5063D9FAD7E55291D08BD8B3D8FCC077
:103BD00014F0FDC015F0040ED89014361536E80622
:103BE000FBE1E6D8FC0EDBCFEFFF80D0A8D9A2D84E
:103BF000F90EDBCF14F0FA0EDBCF15F01ED91450FE
:103C000015101610171003E1300E0CD936D0D9500C
:103C1000F90FEBD801E6EFD805E22D0E03D9D95004
:103C2000F90FA1D8DE52070EDD6E0ED9E8AE02D034
:103C3000143403D0E750D88014541FE2EED818BED5
:103C4000196848D80DD940D9DFD80BE0010EDF6ED6
:103C5000DB041C6E1D6A1CBE1D685AD835D976D887
:103C600003D0DF5002E0300EDDD8D7D818BE196877
:103C700031D8D950F90F43D8D8D7020EE15C02E20F
:103C8000E16AE552E16E32D02CD854D8FB0EDBCF7E
:103C9000F6FFFC0EDBCFF7FF0800F5500DE0FB0E42
:103CA000DBCFF6FFDB2AFC0EDBCFF7FF01E3DB2ADD
:103CB0000800F550B7D8EAD719D08186010ED9D8B7
:103CC0008196010E39EF1FF0E66EE66AE66AE66A53
:103CD0002FDD56D118C0E6FF19C0E6FF10D996EFC8
:103CE0001FF0D9CFE6FFE1CFD9FF1200E552E7CFB1
:103CF000D9FF1200EA22EF50F2D8DF2A1200F3D8DF
:103D0000AFD802D961EC2AF008D9010EDB06120007
:103D10001CC0E6FF1DC0E6FFF2D806C018F007C0C1
:103D200019F008C01AF009C01BF030EF1FF020D9BD
:103D3000DF6A1200FE0EDB50010B0001FC6FFD6B11
:103D4000FD0EDB500F0BFE6FFF6B1200DBCF09F097
:103D500061EC2AF0EBD8300E1426000E1522162244
:103D6000172214501200BFD8000EEE6CEF1EEE2288
:103D7000EF1EEE22EF1EEF22ED52ED52ED52120039
:103D8000D950FB0FB0D8EE50145CEE501558EE50E1
:103D90001658EE5017581200FE0EDBCFE6FF56DD28
:103DA000E552FE0EDB38F00BE66E50DDE5521200F8
:103DB000C10E1426000E152214500001FE25E96ED6
:103DC0001550FF21EA6E1200FD0EDBCFE6FFFE0E5E
:103DD000DBCFE6FFB8EF1FF0020EDBCF14F0030ECF
:103DE000DBCF15F0D890155012007DD8D890030E77
:103DF000EB50000A1200000EEE5C000EEE58000EB2
:103E0000EE58000EEE581200DBCF09F061EC2AF0FC
:103E100006500710081009101200010EDB04186E7E
:103E2000196A1200E66E26DEE5521200DECF14F0AB
:103E3000DDCF15F0166A176A1200FB0EDBCF16F005
:103E4000FC0EDBCF17F01200010EDBCF14F0000EDA
:103E5000E76E14181200020EDB6A030EDB6A120012
:103E600006C00BF007C00CF008C00DF009C00EF042
:103E70001200E66EE66AE66AE66A7DDC81D0EA6AEE
:103E8000C10FE96E000E7AEF1EF0EA6AD10FE96EFB
:103E9000000E7AEF1EF0811210DF0F0E8116120055
:103EA0000F0E12DF0F0E811281860EDF0F0E8114AE
:103EB0001200FB0EDBCF06F0FC0EDBCF07F0FD0E91
:103EC000DBCF08F0FE0E1200F90EDBCF06F0FA0E83
:103ED000DBCF07F0FB0EDBCF08F0FC0E1200E66E26
:103EE000CCDCE5521200E96EFF0EDA20EA6E120019
:103EF000F8DEFE0EDBCFE6FFB8DCE552F7D60A0EA1
:103F0000E66EE66AF1DC3CD0EECF06F0EECF07F0CD
:103F1000EECF08F0EFCF09F0120005C0EDFF04C0AE
:103F2000EDFF03C0EDFF02C0EFFF120006C014F06A
:103F300007C015F008C016F009C017F01200D1DE56
:103F4000020EE126DF6A1200E66A010EE66E97EFC6
:103F50001EF0C7DEE6521200C4DE040EE126DE6A61
:103F6000DD6A1200BEDE0F0E8116FE0EDB5012005F
:103F70009DDCE552E5521200E66AE66A97EF1EF014
:0A3F8000E552E552E552E552120049
:063F8A0020202020002091
:103F90002020002020002020414C41524D20202094
:103FA0004241434B2020002000444543004E4F56E1
:103FB000004F43540053455000415547004A554C6B
:103FC000004A554E004D415900415052004D41525A
:103FD00000464542004A414E0045584954004F4B67
:103FE00020004F4E20004F4646003A00300053411B
:103FF0005400465249005448550057454400545512
:1040000045004D4F4E0053554E00444947495441D9
:104010004C20434C4F434B00486F6900547561740A
:1040200000446175005468616E004D7569004E670B
:104030006F005479005468696E004D656F004461EB
:104040006E005375750054690051757920004E68F3
:10405000616D200054616E200043616E6820004B4A
:104060007920004D6175200044696E682000426926
:104070006E68200041742000476961702000202094
:1040800020002000444543004E4F56004F4354004B
:1040900053455000415547004A554C004A554E0083
:1040A0004D415900415052004D4152004645420099
:1040B0004A414E0045584954004F4B20005341544B
:1040C0000046524900544855005745440054554550
:1040D000004D4F4E0053554E003E48414E4F492033
:1040E0002020205554432B3037002048414E4F4963
:1040F000202020205554432B3037003E4C4F4E4457
:104100004F4E2020205554432B303000204C4F4E32
:10411000444F4E2020205554432B3030003E4E4516
:1041200057594F524B20205554432D303500204EC7
:104130004557594F524B20205554432D3035003EA2
:104140005041524953202020205554432B303100F8
:10415000205041524953202020205554432B3031C8
:10416000003E4245494A494E4720205554432B3092
:10417000380020544F4B594F202020205554432BBA
:10418000303900204245494A494E47202055544382
:104190002B3038003E544F4B594F2020202055548F
:1041A000432B3039002154494D45230D0A003E4927
:1041B0006E7465726E657400205669727475616CF8
:1041C0005465726D696E616C0021444154453A59E1
:1041D000594D4D444464230D0A000D0A546F207359
:1041E000796E6368726F6E697A6520646174652C9C
:1041F000207573696E672073796E746178206173BE
:1042000020666F6C6C6F773A0D0A005468652074F5
:10421000696D65206E65656420746F20626520326B
:10422000342D6820666F726D61740D0A0021544947
:104230004D453A48484D4D5353230D0A000D0A543D
:104240006F2073796E6368726F6E697A6520746926
:104250006D652C207573696E672073796E74617853
:1042600020617320666F6C6C6F773A0D0A000D0A3F
:1042700057656C636F6D6520746F20416C61726D62
:1042800020436C6F636B20636F6E736F6C65206D82
:10429000656D750D0A0020496E7465726E65740057
:1042A0003E5669727475616C5465726D696E616CAD
:1042B000003E4261636B00205573652055415254A6
:1042C00000204261636B003E557365204275747433
:1042D0006F6E002055736520427574746F6E003EDA
:1042E000557365205541525400436F6E6669726D77
:1042F000204572726F72210D0A005265616420655B
:1043000072726F7220210D0A000D0A4E65656420DD
:10431000636F6E6669726D206461746520636861A5
:104320006E676520210D0A000D0A436F6E6669678E
:1043300075726174696F6E20446174652053756392
:1043400063657373210D0A000D0A44415445206DC5
:1043500075737420626520696E2072616E676520D6
:104360005B312C375D20210D0A000D0A4461792054
:104370006D75737420626520696E2072616E676569
:10438000205B312C32385D20210D0A000D0A44617A
:1043900079206D75737420626520696E2072616E7C
:1043A0006765205B312C32395D20210D0A000D0A32
:1043B000446179206D75737420626520696E207286
:1043C000616E6765205B312C33315D20210D0A0061
:1043D000506C6561736520656E74657220616761FC
:1043E000696E210D0A000D0A446179206D757374A0
:1043F00020626520696E2072616E6765205B312CDA
:1044000033305D20210D0A000D0A20446179206DB2
:10441000757374206265203E2030210D0A000D0A5C
:104420004D6F6E7468206D75737420626520696EBF
:104430002072616E6765205B312C31325D20210D69
:104440000A000D0A506C6561736520656E746572B3
:1044500020616761696E20210D0A000D0A436861C1
:1044600072616374657220636F6E6669726D206934
:1044700073202723270D0A000D0A4E65656420630B
:104480006F6E6669726D2074696D6520210D0A007A
:104490000D0A436F6E66696775726174696F6E208D
:1044A00054696D652053756363657373210D0A004C
:1044B0000D0A506C6561736520656E746572206EBF
:1044C000756D62657220210D0A000D0A5365636FD8
:1044D0006E64206D75737420626520696E20726150
:1044E0006E6765205B302C35395D20210D0A000D8B
:1044F0000A4D696E757465206D7573742062652050
:10450000696E2072616E6765205B302C35395D20E5
:10451000210D0A00706C6561736520656E746572AB
:1045200020616761696E210D0A000D0A486F75727E
:10453000206D75737420626520696E2072616E67EC
:1045400065205B302C32335D20210D0A000D0A50AE
:104550006C6561736520656E746572206E756D6241
:104560006572210D0A00202020200052554E005374
:10457000544F500054494D455220434C4F434B201B
:104580004241434B00300020200020202053544F54
:10459000502057415443482020003E352E20002013
:1045A000352E20003E342E200020342E20003E33B5
:1045B0002E200020332E20003E322E200020312ECF
:1045C00020003A0020322E20003E312E20003E42B4
:1045D00041434B0048554D493A2020202500544581
:1045E0004D503A20202043005265636576696E671E
:1045F00020646174612E2E0021444854230D0A006A
:10460000204241434B003E5745415448455200200B
:1046100057454154484552003E474C4F42414C207B
:1046200054494D45005541525420746F206D6F64BC
:1046300069667900506C6561736520636F6E6E65A5
:1046400063740020474C4F42414C2054494D450073
:104650003E54494D45204D4F444946590020544948
:104660004D45204D4F44494659003E54494D455211
:1046700020434C4F434B002054494D455220434C5E
:104680004F434B003E53544F502057415443480032
:104690005468616E6720004E67617920004E616D3D
:1046A00020002053544F50205741544348003E4C63
:1046B000554E41522043414C454E44415200204109
:1046C0004C41524D20434C4F434B00204C554E41E2
:1046D000522043414C454E444152003E414C4152D0
:0846E0004D20434C4F434B00F9
:0846E800B06A810EAF6EAC8ACE
:1046F000AC94B886AC98AB8EAB889E9A9D8A9F8A04
:10470000949C948E120069D9040EE126DE6ADD6A5B
:10471000DECF14F0DDCF15F097D915501718E8AE9D
:1047200002D0173404D01650145C175015581DE2EF
:10473000020EDB6A030EDB6A020EDBCF14F0030EFF
:10474000DBCF15F0D890155004E6EE0E145C000E89
:10475000155806E2020EDB2A030EEEE3DB2AECD745
:10476000DF2A010ED5E3DB2AD3D7040EE15C02E297
:10477000E16AE552E16E36D130D99EA8FED7FE0E31
:10478000DB50AD6E9E982ED128D956D908E054D969
:1047900034D9FD0EDB2AFE0EF8E3DB2AF6D722D150
:1047A0001CD9050EE126010EF36EDB6E020EDB6AEC
:1047B000030EDB6A040EDB6ADF6ADFCF14F0156AD2
:1047C00014BE1568FB0EDBCF16F0FC0EDBCF17F026
:1047D00015501718E8AE02D0173404D01650145CE8
:1047E000175015581FE2FD0EDBCF14F0FE0EDBCF85
:1047F00015F0166A176A15AE02D016681768D950F8
:10480000010FE96EDACFEAFF14C00BF015C00CF00F
:1048100016C00DF017C00EF0F4D829EC2AF0FAD823
:10482000DF2ACBD7010EDBCF14F0020EDBCF15F061
:10483000030EDBCF16F0040EDBCF17F014C006F02A
:1048400015C007F016C008F017C009F0050EE15CAE
:1048500002E2E16AE552E16EC5D0BFD8020EE12660
:10486000DF6AFB0EDBCF14F0FC0EDBCF15F0ECD8CB
:10487000145015101610171003E1300EBED86DD06D
:10488000B5D8D890030EEB50000A08E6000EEE5C97
:10489000000EEE58000EEE58000EEE580EE22D0EF1
:1048A000ACD8A4D8000EEE6CEF1EEE22EF1EEE2266
:1048B000EF1EEF22ED52ED52ED52DE520A0EDD6E8A
:1048C000010EDBCF14F0000EE76E1418E8AE02D034
:1048D000143403D0E750D88014543FE2010EDB04B7
:1048E000186E196A18BE196871D861D80650071079
:1048F000081009101EE0010EDF6EDB041C6E1D6A3D
:104900001CBE1D681CC0E6FF1DC0E6FFA4D806C083
:1049100018F007C019F008C01AF009C01BF047D8FA
:10492000A3D8300E1426000E15221622172214507A
:1049300003D0DF5002E0300E60D8010EDB04186EA9
:10494000196A18BE196842D851D897D85AD861EC5C
:104950002AF060D8010EDB06B3D7020EE15C02E25A
:10496000E16AE552E16E3ED038D85DD80CE05BD804
:1049700044D8FD0EDBCFF6FFDB2AFE0EDBCFF7FFC0
:10498000F4E3DB2AF2D72ED028D8E652AE50DF6E01
:1049900002010A51EA6ABB0FE96E010EEA22DFCF7B
:1049A000EFFF0A293F0B0A6F0C2BE5521BD065D88D
:1049B000FB0EDBCF06F0FC0EDBCF07F0FD0EDBCFEE
:1049C00008F0FE0EDBCF09F061EF2AF018C0E6FF19
:1049D00019C0E6FF40D834EF25F0D9CFE6FFE1CF8C
:1049E000D9FF1200E552E7CFD9FF1200D950FB0FD3
:1049F000E96EFF0EDA20EA6E1200E66EBDDEE552C9
:104A00001200EECF06F0EECF07F0EECF08F0EFCFBA
:104A100009F0120005C0EDFF04C0EDFF03C0EDFF7B
:104A200002C0EFFF1200FD0EDBCFF6FFFE0EDBCF64
:104A3000F7FF0800F5501200FD0EDBCFE9FFFE0E78
:104A4000DBCFEAFFEF501200FD0EDBCF16F0FE0EBB
:104A5000DBCF17F012000A0EE66EE66AA1DEE55221
:104A6000E552E552E552120006C014F007C015F0F9
:104A700008C016F009C017F0120006C00BF007C0FE
:0C4A80000CF008C00DF009C00EF0120090
:044A8C000F0E946E07
:104A900082681200070E9410946EDF0E9414946EC8
:104AA00082681200D0D808D901E601D917E2DDD812
:104AB000826EF8D8D1D801E6FAD80BE2B7D802E175
:104AC000FFD801D01DD9020EDB2A030EF3E3DB2A47
:104AD000F1D7DF2A010EE7E3DB2AE5D7040EE15C1C
:104AE00002E2E16AE552E16ED9D0ADD8DBD8010E21
:104AF000DE6EDD6ABAD88214826ED4D8ADD804E6F0
:104B0000030E145C000E15580BE290D802E1D8D8C1
:104B100001D0F6D8020EDB2A030EF0E3DB2AEED733
:104B2000040EE15C02E2E16AE552E16EB7D0A7D87B
:104B3000010EEE1804E1ED5002E1010E01D0000E6D
:104B4000ADD09DD8320EEE1804E1ED5002E1010E19
:104B500001D0000EA3D077D8D7D8FD0EDBCF16F04A
:104B6000FE0EDBCF17F015501718E8AE02D0173441
:104B700004D01650145C1750155813E293D86CD813
:104B800004E6EE0E145C000E155806E2020EDB2A57
:104B9000030EF5E3DB2AF3D7DF2A010EDDE3DB2A80
:104BA000DBD7040EE15C02E2E16AE552E16E76D009
:104BB0004AD882D801E67BD822E257D8826E72D8D2
:104BC0004BD801E674D80DE29BD830D804E11ED84A
:104BD000010EEE6EED6A020EDB2A030EF1E3DB2A14
:104BE000EFD78250816EE80EE66E030EE66EB3DFFD
:104BF000E552E552DF2A010EDCE3DB2ADAD7040EA8
:104C0000E15C02E2E16AE552E16E48D07DD8D890DD
:104C100014361536D89014361536020EDB5014248F
:104C2000E96E030EDB50152089EF26F0020EDBCF74
:104C3000E9FF030EDBCFEAFF240EE9260F0EEA227E
:104C4000EF5082141200D9CFE6FFE1CFD9FF040E56
:104C5000E126DE6ADD6A1200020EDBCF14F0030EDD
:104C6000DBCF15F0D89015501200DECFE9FFDDCF75
:104C7000EAFF200EE9260F0EEA22EF1C1200D9CF20
:104C8000E6FFE1CFD9FFFE0EEA6ADB34FE0BEA361F
:104C9000E96E000EE9260F0EEA221200E552E7CF78
:104CA000D9FF1200020EDB6A030EDB6A1200040E4B
:104CB000145C000E1558120027D8D8901550120019
:104CC000DECF18F0DDCF19F0D89018361936D8900D
:104CD00018361936020EDB501824E96E030EDB502D
:104CE000192017D8EECF16F0EFCF17F0010E1626C9
:104CF000000E17228BDF16C0EEFF17C0EDFF12006B
:104D000085DFEE6AED6A1200DECF14F0DDCF15F01C
:104D10001200EA6ED890E936EA36000EE9260F0E48
:044D2000EA22120071
:0C4D2400F1D8D59EFD0EDBCF4DFFFE0E3A
:104D3000DBCF4EFFD59C05D9D59AD586F28AF29461
:104D4000F184D58EE6D0D59E1200FBD8D58E120008
:104D5000DBD8CD90FD0EDBCF4FFFFE0EDBCF50FF3B
:104D6000F7D89D809E909F90CD8ECD8CCD98CD9A7A
:104D7000CD96CD92CD80CDD0EBD8CD801200CD9008
:104D80001200C2D8CA94CC6AFE0EDB500F01516FDC
:104D9000526BCB6E9D829E929F92CA90CA92CA8499
:104DA000B8D051CFCBFFCA841200CA941200ACD83D
:104DB000B190FD0EDBCF53FFFE0EDBCF54FFCFD8FB
:104DC0000750B36ECCD8B5D8B26EA082A192A29291
:104DD000B18EB198B19AB192B1809BD0C0D8035036
:104DE000B26EBDD89ED8B36EB1801200B1901200E1
:104DF0000F015D2B000E5E2365515D5D66515E59AE
:104E000004E35D6B5E6B010E556F12000F015F2BAB
:104E1000000E602367515F5D6851605904E35F6B6A
:104E2000606B010E566F12000F01612B000E6223A2
:104E30006951615D6A51625904E3616B626B010EF5
:104E4000576F12000F01632B000E64236B51635DDB
:104E50006C51645904E3636B646B010E586F12006C
:104E600053D8FD0EDBCF65FFFE0EDBCF66FF0F01D3
:104E70005D6B5E6B556B4DD047D8FD0EDBCF67FF8A
:104E8000FE0EDBCF68FF050E0D6E0E6A67CF08F0D1
:104E900068CF09F05AEC29F008C067FF09C068FF25
:104EA0000F015F6B606B566B34D02ED8FD0EDBCFDD
:104EB0006BFFFE0EDBCF6CFF0A0E0D6E0E6A6BCF22
:104EC00008F06CCF09F05AEC29F008C06BFF09C05C
:104ED0006CFF0F01636B646B586B1BD01C6A1A501C
:104EE000175C146E1B501858156E1C501958166E0E
:104EF0000C6A010E0D6E0E6A14C007F015C008F0A2
:104F000016C009F080EF29F0D9CFE6FFE1CFD9FF35
:104F10001200E552E7CFD9FF120017681868196A26
:104F2000120007C014F008C015F009C016F00750B1
:104F3000120003C014F004C015F005C016F00350B1
:104F4000120014D80350D66E11D8EBDFD76E1200C2
:104F500014D80750CF6E11D8ECDFCE6E1200DDDF13
:104F600053CF1AF054CF1BF06EEF27F0D6DF4DCFA2
:104F70001AF04ECF1BF06EEF27F0CFDF4FCF1AF0B5
:084F800050CF1BF06EEF27F08B
:084F8800BED8020EE126FE0E68
:104F9000DB500F0BDF6EFE0EDB380F0B0A0DBCD89B
:104FA00002E2E16AE552E16E1450B2D0ACD8020ED2
:104FB000E126BBD80550DF6EB8D80950100DACD82B
:104FC00002E2E16AE552E16E1450A2D09486948820
:104FD000C79EC79CC690C692C694C686310EC86E40
:104FE000C68A120090D89E96FE0EDB50D00FC96E76
:104FF0009EA6FED78DD09E96C5809EA6FED7120097
:105000009E96C5849EA6FED712007DD89E96FE0E63
:10501000DB50C96E9EA6FED77BD09E96C5869EA607
:10502000FED7C95012009E96C59AC5889EA6FED787
:1050300012009E96C58AC5889EA6FED7120063D828
:105040007CD8010EFF6FE85004E0C550400BFAE039
:10505000F8D779D8010EFF6FE85004E0C550400B37
:10506000FAE0F8D7FD0EDBCFE6FFA0DFE552E66EF3
:10507000CCDFE5520101010EFF6FE85004E0C5509E
:10508000400BFAE0F8D7BCDF43D03DD8E65255D804
:10509000010EFF6FE85004E0C550400BFAE0F8D76E
:1050A00052D8010EFF6FE85004E0C550400BFAE003
:1050B000F8D7A1DF010EE66E95DFE5520101010E82
:1050C000FF6FE85004E0C550400BFAE0F8D7A5DFC9
:1050D000DF6EDFCFE6FF58DFE552DF6EDF50E552CF
:1050E00017D011D8FD0EDBCFE6FFFE0EDBCFE6FFBB
:1050F000A6DFE552E5520CD006D8FE0EDBCFE6FF68
:10510000C4DFE55205D0D9CFE6FFE1CFD9FF1200C9
:10511000E552E7CFD9FF1200010EF3CFDBFFDB50E2
:10512000DF24146E020EE15C12000A0E146E0E6E85
:10513000FE0EDBCF09F0D6EF2AF05DDFE66A52DF24
:10514000E55201011200FE0EDBCFE6FF5EDFE55205
:045150000101120047
:0C515400F28ED08EF28C1200F19CF292D0
:10516000F2881200D8CFE4FFE0CFE4FFE46E65D808
:1051700000EE00F0140EE80403E3EECFE4FFFBD7EB
:1051800000EE14F00A0EE80403E3EECFE4FFFBD7D1
:10519000E652F2B47AD89EB07FD8A1B284D8F2B2E7
:1051A000F2929EBA9E9AE55200EE1DF00A0EE804B5
:1051B00003E3E5CFEDFFFBD700EE13F0140EE80498
:1051C00003E3E5CFEDFFFBD74DD8E550E5CFE0FF9A
:1051D000E5CFD8FF100031D800EE00F0140EE8043F
:1051E00003E3EECFE4FFFBD700EE14F00A0EE80471
:1051F00003E3EECFE4FFFBD7E652F2B446D89EB00D
:105200004BD8A1B250D8F2B2F2929EAA03D0C4EC0D
:1052100024F09E9AE55200EE1DF00A0EE80403E326
:10522000E5CFEDFFFBD700EE13F0140EE80403E327
:10523000E5CFEDFFFBD716D81100DACFE4FFE2CFC0
:10524000DAFFE9CFE4FFEACFE4FFF6CFE4FFF7CFE0
:10525000E4FFF5CFE4FFF3CFE4FFF4CFE4FFFACFB0
:10526000E4FF1200E5CFFAFFE5CFF4FFE5CFF3FF4F
:10527000E5CFF5FFE5CFF7FFE5CFF6FFE5CFEAFF96
:10528000E5CFE9FFE5CFDAFF1200A3EC26F0F294B8
:10529000A5EC26F0F8EF26F0BFEC26F09E90BCECD3
:1052A00026F006EF27F0F6EC26F0A192EEEC26F0C1
:0452B00022EF27F0D2
:0C52B400006A0EAE63EF29F00D6C0E1EB8
:1052C000E86A0E22001E09AE6BEF29F0086C091E79
:1052D000E86A0922001EA2EC2AF009BE7BEF29F041
:1052E00000AE000C086C091EE86A0922046C051E59
:1052F000E86A0522000C00BE72EF29F00188FF0C5D
:10530000006A0EAE8BEF29F00C6C0D1E0E1EE86AC3
:105310000D220E22001E09AE95EF29F0076C081E23
:10532000091EE86A08220922001E85EC2AF009BE3F
:10533000A8EF29F000AE000C076C081E091EE86AF1
:1053400008220922036C041E051E04220522000CFB
:1053500000BE9CEF29F00188FF0C09C013F008C0C3
:1053600012F008500D02F4CF07F0F3CF06F0095009
:105370000E02F4CF09F0F3CF08F00D02F350072628
:10538000F4500822E86A092212500E02F350072650
:10539000F4500822E86A09220EAED3EF29F0125029
:1053A000085E1350095A13AE000C0D50085E0E50E3
:0453B000095A000C8A
:0C53B4001E0EF66E000EF76E000EF86E76
:1053C00002010900F550056F0900F550066F03E171
:1053D000056701D03DD00900F550006F0900F55078
:1053E000016F0900F550026F09000900F550E96EE0
:1053F0000900F550EA6E090009000900F550036F35
:105400000900F550046F09000900F6CF07F2F7CF45
:1054100008F2F8CF09F200C2F6FF01C2F7FF02C29C
:10542000F8FF0201035302E1045307E00900F550BD
:10543000EE6E0307F8E20407F9D707C2F6FF08C2C9
:10544000F7FF09C2F8FF02010507000E065BBFD790
:02545000120048
:0E54520006500B02F3CF02F0F4CF03F00C0271
:10546000F3500326000EF420046E06500D02F35094
:105470000426000EF420056E06500E02F350052699
:1054800007500B02F3500326F4500422000E0522AD
:1054900007500C02F3500426F450052207500D0269
:1054A000F350052608500B02F3500426F450052251
:1054B00008500C02F350052609500B02F350052644
:0254C0001200D8
:0E54C200056A046A036A026A200EE76ED8903B
:1054D00006360736083609360236033604360536F0
:1054E0000B50025C0C5003580D5004580E500558D8
:1054F00009E30B50025E0C50035A0D50045A0E5033
:0A550000055A062AE72EE4D7120030
:06550A00056A046A036A51
:10551000180EE76ED890073608360936033604367B
:1055200005360C50035C0D5004580E50055807E327
:105530000C50035E0D50045A0E50055A072AE72EF0
:04554000EAD7120094
:0C554400056A046A100EE76ED890083665
:105550000936043605360D50045C0E50055805E337
:105560000D50045E0E50055A082AE72EF0D712009F
:10557000800EF36E00EE00F00F0E01D81200EA600C
:1055800002D0EE6AFCD7F350E9601200EE6AFCD755
:105590001EEE00F02EEE00F0F86A019CDAEC29F025
:0C55A00007EC00F0C4EC16F0FBD7120082
:0455AC00056A080E76
:1055B000E76ED890093605360E50055C02E3056E9D
:0855C000092AE72EF7D71200BB
:0855C8000000000000000000DB
:1055D00000000000000000000000000000000000CB
:0855E0000100010001000100BF
:0855E8000100000000000000BA
:1055F000000000320032000700FFFFFFFF00000044
:105600000000000000000000000001000000000099
:105610000000000000000000000000010100010087
:1056200000000000000000390100731B94033218D1
:105630005412741A9510B61AD718F91219193B1387
:105640005B197D1B21003D1A6110811AA312C31A38
:10565000E41806132619481368198A1B2B004A1AE6
:105660004B106C188E12AE1ACF18F112111B32119A
:10567000531B7419960B3518571277189910BA1ACC
:10568000DB18FD121D1B4111611B821924024218F7
:1056900064128418A610C71AC818EA120A192C1323
:0256A0004C1BA1
:0E56A2000000000000000000000000000000FA
:0456B00000000100F5
:0C56B400000000000000000010101010AA
:1056C0001010101018181818181818181C1C1C1C6A
:1056D0001C1C1C1C1E1E1E1E1E1E1E1E1F1F1F1FEE
:1056E0001F1F1F1F0000000000000000000000003E
:1056F00000000000000000000000000000000000AA
:105700000000000000000000000000000000000099
:05571000000000000094
:0B571500000000D0002222220725091E
:105720001000010000000000000000000000000068
:105730000000000000000000000000000000000069
:105740000000000000000000000000000000000059
:08575000102040800102040852
:020000040030CA
:0100010002FC
:0100020003FA
:010003001EDE
:010005008179
:010006008178
:010008000FE8
:01000900C036
:01000A000FE6
:01000B00E014
:01000C000FE4
:01000D0040B2
:00000001FF
