:020000040000FA
:06000000ADEF2AF0120032
:020006000700F1
:06000800D0EF28F0120009
:02000E001200DE
:03001000000000ED
:0400130000000000E9
:0600180097EF28F0120032
:02001E000800D8
:1000200012570000D201000028000000F75600001F
:10003000E10000001B00000013000000FA010000B6
:1000400004000000965600008000000061000000DF
:1000500084560000660F000012000000B255000038
:1000600000010000D20000009255000000020000D4
:100070002000000010000000780F000003000000C6
:100080000101005102E1010E011901E1DCD20F0E64
:10009000001901E1015101E192D20E0E001901E1B6
:1000A000015101E17CD20D0E001901E1015101E184
:1000B00042D20B0E001901E1015101E13AD20A0EC0
:1000C000001901E1015101E109D20C0E001901E111
:1000D000015101E1E6D1090E001901E1015101E1EF
:1000E000DED1080E001901E1015101E1AFD1070E87
:1000F000001901E1015101E1A6D1060E001901E14B
:10010000015101E175D1120E001901E1015101E126
:100110006DD1050E001901E1015101E118D1040E64
:10012000001901E1015101E1E5D0110E001901E1D1
:10013000015101E19AD0100E001901E1015149E08D
:10014000030E001901E1015139E0020E001901E12D
:10015000015115E0010E001901E1015101E0120009
:10016000D5EC17F040EC1AF081EC15F001E386D2E3
:10017000020EB0EC14F0010E026F036B1200A50E1C
:10018000E66E460E73EC15F0950EE66E460E6EECBE
:1001900016F004E2F6EC13F04AEC15F081EC15F0E1
:1001A00004E2030E0101006F016B7EEC15F001E328
:1001B00065D20101006B010E016F1200CCEC18F04A
:1001C0000CEC19F00101385101E158D2386B020EE4
:1001D00052D2020E02190BE1035109E1880EE66EBC
:1001E000460E73EC15F0780EE66E460E08D0780ECB
:1001F000E66E460E73EC15F06C0EE66E460E6EEC77
:1002000016F002E23DEC16F081EC15F026E2110E3C
:10021000B0EC14F0430EE66E0F0EE66E420EE66E84
:100220000F0EE66E410EE66E0F0EE66E060E05EC44
:1002300014F0C3EC14F014C0E6FF15C0E6FF050E81
:1002400005EC14F0E66E040E05EC14F0E66EEDEC31
:1002500011F0166E0A0EE15E16507EEC15F001E309
:100260000DD2F6EC13F0020E05D287EC15F002E089
:100270004AEC15F00F014351C3EC14F00A0E40ECA8
:1002800016F098EC12F0E552E5520F014351C3EC21
:1002900014F00C0E40EC16F0F4EC12F0E552E552BE
:1002A000670EE66E460ED0EC13F0E66A61EC13F0D2
:1002B000610EE66E460E60EC15F041CF14F00AECCC
:1002C00014F041CFE6FF6EEC13F0050E84EC15F050
:1002D0005A0EE66E460EE66E080E71EC16F042CF30
:1002E00014F00AEC14F042CFE6FF6EEC13F00E0EA1
:1002F00084EF15F0100E02190BE1035109E1950E80
:10030000E66E460E73EC15F04E0EE66E460E08D005
:100310004E0EE66E460E73EC15F0410EE66E460E7E
:100320006EEC16F002E246EC16F07EEC15F004E2FC
:10033000F6EC13F04AEC15F081EC15F001E39ED1D8
:10034000050EB0EC14F0B7D901013A6B12003CDB9A
:1003500001013A5101E093D99DEC15F006E001014D
:100360003A6B3B6B3C6B3D6B12D0A0EC15F008E098
:1003700001013A5105E1010E3A6F8EEC14F007D0FD
:10038000A0EC15F004E001013A0501E13A6BB0EC94
:1003900015F016E0050E01013E5D12E253EC14F07B
:1003A0003BC1EFFF53EC14F0EE523CC1EFFF53ECB6
:1003B00014F0020EE926000EEA223DC1EFFF3E2BAB
:1003C000A3EC15F007E0120EB0EC14F03A6B4CEC15
:1003D00015F03F6F87EC15F001E150D101013A6B48
:1003E0003B6B3C6B3D6B386B040E45D18AEF03F0E1
:1003F000040E02190BE1035109E16C0EE66E460E84
:1004000073EC15F0340EE66E460E08D0340EE66E30
:10041000460E73EC15F0270EE66E460E6EEC16F0E7
:1004200004E2F6EC13F008EC15F07EEC15F002E2B5
:100430003DEC16F081EC15F001E320D1070EB0EC95
:1004400014F0096B1200FCDAA6EF05F0060E021993
:100450000BE1035109E1410EE66E460E73EC15F017
:100460001A0EE66E460E08D01A0EE66E460E73ECB5
:1004700015F00D0EE66E460E6EEC16F002E249EC3B
:1004800016F07EEC15F002E246EC16F081EC15F069
:1004900001E3F4D00101046B056B090EECD084EF8D
:1004A0000AF0FE0EE66E450E73EC15F0EF0EE66EEA
:1004B000450E60EC15F09AEC16F004E2010E010115
:1004C000006F016B01012A5101E1D8D0260501E03E
:1004D000D5D0010E006F016B2A6B1200080E0219B5
:1004E0000BE1035109E1270EE66E460E73EC15F0A1
:1004F000E20EE66E450E08D0E20EE66E450E73EC97
:1005000015F0D90EE66E450E6EEC16F002E24CECDC
:1005100016F07EEC15F004E2F6EC13F008EC15F0A2
:1005200081EC15F001E3AAD00B0EB0EC14F06DEFE6
:100530000DF0D6EF0BF00A0E02190BE1035109E1A1
:100540000D0EE66E460E73EC15F0D00EE66E450EFF
:1005500008D0D00EE66E450E73EC15F0CA0EE66EAE
:10056000450E6EEC16F006E2F6EC13F00101006B9E
:10057000010E016F7EEC15F002E249EC16F081EC01
:1005800015F001E37BD00E0EB0EC14F0C20EE66E57
:10059000450E8BEC13F00101010E226F1200B20E1A
:1005A000E66E450E73EC15F00101286B98EC15F022
:1005B0001E6F21C11FF19AEC16F060E242D0A80E26
:1005C000E66E450E73EC15F09E0EE66E450E60EC81
:1005D00015F023C114F00AEC14F023C1E6FF6EEC11
:1005E00013F014EC15F091EC13F024C114F00AECA4
:1005F00014F024C1E6FF6EEC13F0060E84EC15F047
:10060000FBEC13F002E11550211908E03B0E1E1916
:1006100008E11F5106E12051211103E151EC15F0D1
:10062000282B050E285D0AE1290508E1C20EE66EB9
:10063000450E8BEC13F00101286B296B9AEC16F038
:100640001DE20D0E17D0D90EE66E450E87EC16F0A2
:1006500002E24CEC16F07BEC15F006E2F6EC13F03F
:10066000020E0101006F016B81EC15F007E2F6EC60
:1006700013F0010E0101006F016B12001200FBEC80
:1006800013F002E11550211908E03B0E1E1908E194
:100690001F5106E12051211103E13D2B51EC15F0D2
:1006A0003C0E3D5D02E33D6B3C2B3C0E3C5D02E3AA
:1006B0003C6B3B2B120032EC14F0020EE126DE6A9A
:1006C000DD6A01013E6BDECF14F0DDCF15F0D8906E
:1006D000155004E6060E145C000E155813E2DCEC0F
:1006E00013F0EF6ADCEC13F0EE52EF6ADCEC13F07F
:1006F000020EE926000EEA22EF6ADF2A010EE3E38A
:10070000DB2AE1D7020EE15C02E2E16AE552E16E2A
:1007100037EF14F00F0165513E0A01E1E5D0030AFD
:1007200001E1A8D0010A6CE0070A31E0010A01E00A
:100730001200930EE66E450E73EC15F08E0EE66E0B
:10074000450E60EC15F066EC15F0A6EC15F0D0EC5B
:1007500015F07BEC15F006E20F013B0E656F010111
:100760003A0E3F6F7EEC15F006E20F013E0E656F0C
:1007700001013A0E3F6F9DEC15F003E1A3EC15F07B
:1007800001E099DF87EC15F001E1D7D0D3D03A0E24
:1007900001013F5D0DE1870EE66E450E73EC15F02D
:1007A000820EE66E450E60EC15F0A6EC15F00CD04E
:1007B000820EE66E450E73EC15F07D0EE66E450E6C
:1007C00060EC15F02AEC16F078EC16F006E20F015A
:1007D0003C0E656F01013B0E3F6F7EEC15F004E2AD
:1007E0004CEC15F03B0E3F6F9DEC15F003E1A3ECD4
:1007F00015F001E060DF87EC15F001E19ED09AD0A2
:100800003B0E01013F5D0DE18E0EE66E450E73EC71
:1008100015F0780EE66E450E60EC15F02AEC16F039
:100820000CD0780EE66E450E73EC15F0730EE66E86
:10083000450E60EC15F02FEC16F078EC16F006E2A1
:100840000F013D0E656F01013C0E3F6F7EEC15F010
:1008500006E20F013B0E656F01013C0E3F6F9DEC00
:1008600015F003E1A3EC15F001E025DF87EC15F0AE
:1008700064E060D03C0E01013F5D0DE17D0EE66E4F
:10088000450E73EC15F06E0EE66E450E60EC15F03D
:100890002FEC16F00CD06E0EE66E450E73EC15F0D4
:1008A000690EE66E450E60EC15F034EC16F078EC4F
:1008B00016F006E20F013E0E656F01013D0E3F6F1F
:1008C0007EEC15F006E20F013C0E656F01013D0E56
:1008D0003F6F9DEC15F003E1A3EC15F001E0EBDEBA
:1008E00087EC15F02AE026D0730EE66E450E73EC09
:1008F00015F0640EE66E450E60EC15F034EC16F063
:1009000078EC16F004E24CEC15F03E0E3F6F7EECF6
:1009100015F006E20F013D0E656F01013E0E3F6FBF
:100920009DEC15F003E1A3EC15F001E0C4DE87ECCB
:1009300015F003E0050EB0EF14F0120032EC14F0E5
:100940000A0EF36EFB0EE6EC14F00AE20AEC15F068
:10095000040E5EEC14F0FB0E76EC15F0050E04D0E0
:10096000FB0E76EC15F0040EBCEC15F00A0EF36EDF
:10097000FC0EE6EC14F00AE20AEC15F0070E5EEC51
:1009800014F0FC0E76EC15F0080E04D0FC0E76EC9C
:1009900015F0070EBCEC15F00A0EF36EFD0EE6EC3A
:1009A00014F00AE20AEC15F00A0E5EEC14F0FD0EEB
:1009B00076EC15F00B0E04D0FD0E76EC15F00A0E59
:1009C000BCEC15F037EF14F0540EE66E450E96ECC5
:1009D00016F00A0E01013B5D08E28DEC15F010ECFB
:1009E00016F0D8EC15F0050E03D0D8EC15F0040E77
:1009F0008EEC16F001013C5D08E28DEC15F013EC75
:100A000016F0DFEC15F0080E03D0DFEC15F0070E42
:100A100084EC15F0A8EC13F0090E8AEC15F0010136
:100A20003D5D09E28DEC15F00A0E71EC16F0E6EC76
:100A300015F00B0E03D0E6EC15F00A0E84EF15F05E
:100A40003E0EE66E450E96EC16F001011D5104E0D7
:100A5000390EE66E450E03D0350EE66E450EE66E97
:100A60000C0E8AEC15F0010117AF02D0D89003D01C
:100A7000165D000E175914E24F0EE66E450ED0ECCF
:100A800013F0E66E61EC13F027EC15F015AE02D012
:100A9000166817687CEC16F0020EE66E010E0AD09E
:100AA00027EC15F015AE02D0166817687CEC16F02E
:100AB000010EE66EE66E91EC13F0A8EC13F0030E57
:100AC0008AEC15F0010119AF02D0D89003D0185D5F
:100AD000000E19590EE28DEC15F010EC16F02EEC0C
:100AE00015F015AE02D0166817687CEC16F0050EEE
:100AF00009D02EEC15F015AE02D0166817687CEC04
:100B000016F0040E8EEC16F001011BAF02D0D89047
:100B100003D01A5D000E1B590EE28DEC15F013EC9C
:100B200016F035EC15F015AE02D0166817687CEC9F
:100B300016F0080E09D035EC15F015AE02D0166887
:100B400017687CEC16F0070E84EF15F001010951CF
:100B5000040A01E154D1070A01E1EFD0010A01E1E1
:100B6000A0D0030A52E0010A01E01200B1EC13F038
:100B700007E2D4EC15F0D0EC13F0E66E61EC13F064
:100B80007EEC15F00DE20101162B000E1723173530
:100B900007E216511708000E175502E2166B176B85
:100BA0007BEC15F00AE201011607000E175B800EC0
:100BB000171503E0170E166F176B040E76EC14F082
:100BC0000EE2050E01011627000E1723173507E266
:100BD00016511708000E175502E2166B176B050E1B
:100BE00076EC14F00BE2050E0101165F000E175BA8
:100BF000800E171503E0170E166F176B81EC15F0BA
:100C000001E318D10101010EF8D0B1EC13F004E2B8
:100C100093EC16F010EC16F07EEC15F00DE20101ED
:100C2000182B000E1923193507E218513B08000E46
:100C3000195502E2186B196B7BEC15F00AE2010101
:100C40001807000E195B800E191503E03B0E186F94
:100C5000196B040E76EC14F00EE2140E0101182745
:100C6000000E1923193507E218513B08000E1955DB
:100C700002E2186B196B050E76EC14F00BE2140E01
:100C80000101185F000E195B800E191503E03B0E81
:100C9000186F196B81EC15F001E3CCD00101020E45
:100CA000ACD0B1EC13F004E293EC16F013EC16F0B8
:100CB0007EEC15F00DE201011A2B000E1B231B35F3
:100CC00007E21A513B08000E1B5502E21A6B1B6B20
:100CD0007BEC15F00AE201011A07000E1B5B800E87
:100CE0001B1503E03B0E1A6F1B6B040E76EC14F021
:100CF0000EE2140E01011A27000E1B231B3507E21A
:100D00001A513B08000E1B5502E21A6B1B6B050EB5
:100D100076EC14F00BE2140E01011A5F000E1B5B5F
:100D2000800E1B1503E03B0E1A6F1B6B81EC15F058
:100D300001E380D00101030E60D07EEC15F005E2E6
:100D40000101010E1D6F8EEC14F07BEC15F002E238
:100D500001011D6B01011D5136E0FBEC13F002E1B6
:100D60001550211908E03B0E1E192DE11F512BE1F2
:100D70002051211128E151EC15F01B3509E21A51DF
:100D80000008000E1B5504E21A07000E1B5B1BD067
:100D90001A511B1118E11851191107E03B0E1A6F77
:100DA0001B6B1807000E195B0ED0185119110BE1BF
:100DB0001651171108E01607000E175B3B0E186F4F
:100DC000196B1A6F1B6B1651171107E11851191186
:100DD00004E11A511B1101E11D6B1D5108E1B1EC39
:100DE00013F005E20FEC15F00C0E71EC16F081EC2F
:100DF00015F020E201011D6B040E096F1200B1EC29
:100E000013F002E239EC16F0A0EC15F003E1B0ECBF
:100E100015F002E001010CD081EC15F00BE2060E9A
:100E2000B0EC14F0166B176B186B196B1A6B1B6B0D
:100E3000096B1200120032EC14F0E6520F017951E6
:100E4000EA6A010FE96E0F0EEA22EFCFDFFF792980
:100E50003F0B796FDF50E55237EF14F0CAEF14F013
:100E6000010E0101401901E1415101E012000F01A1
:100E70007A51000804E204D80F017A071200120028
:100E800032EC14F0E652D7DFDF6EDFCFE6FFA1ECE5
:100E900023F0E552630E0101341901E1355101E1FE
:100EA000E4D0690E341901E1355101E1C0D0680E7A
:100EB000341901E1355101E1ABD0670E341901E17C
:100EC000355101E190D0660E341901E1355101E14F
:100ED0007FD0650E341901E1355165E0640E341997
:100EE00001E1355155E00E0E341901E1355144E070
:100EF0000C0E341901E1355136E00B0E341901E1C5
:100F0000355128E00A0E341901E135511AE0020E7C
:100F1000341901E135510CE0010E341901E0D0D053
:100F2000355101E0CDD0210EDF5C01E0C9D02CD0DD
:100F3000540EDF5C02E10A0EC1D0210EDF5C26E117
:100F400023D0490EDF5C02E10B0EB8D0210EDF5C2E
:100F50001DE11AD04D0EDF5C02E10C0EAFD0210E68
:100F6000DF5C14E111D0450EDF5C02E10E0EA6D06D
:100F7000210EDF5C0BE108D03A0EDF5C02E1640E6B
:100F80009DD0210EDF5C02E1020E98D0010E96D0BA
:100F9000C8EC13F001E1121D46E07CEC14F006C031
:100FA00046FF650E8AD0C8EC13F001E1121D3BE04C
:100FB00011510F014627170EE66EE66A465165ECA1
:100FC00016F002E0660E79D0F40EE66E440E43D0C1
:100FD000C8EC13F001E1121D26E07CEC14F006C011
:100FE00047FF670E6AD0C8EC13F001E1121D1BE049
:100FF00011510F0147273B0EE66EE66A475165EC3B
:1010000016F002E0680E59D0B90EE66E440E23D0F9
:10101000C8EC13F001E1121D06E07CEC14F006C0F0
:1010200048FF690E4AD0170EE66E450E43D0C8EC55
:1010300013F001E1121D15E011510F0148273B0E7D
:10104000E66EE66A485165EC16F002E0630E35D0B4
:10105000940EE66E440E8BEC13F0DE0EE66E440E3C
:1010600029D07A0EE66E440E25D0230EDF5C1DE1FA
:10107000010E346F356B46CFE6FF020EC2EC13F063
:1010800047CFE6FF010EC2EC13F048CFE6FFE66A59
:1010900004EC28F0E552E55201012B5111E05A0E03
:1010A000E66E440E8BEC13F00BD0420EE66E440E4F
:1010B000B3EC15F08BEC13F0010E0101346F356BBE
:1010C000630E0101361901E1375101E171D1740E4E
:1010D000361901E1375101E13FD1760E361901E1B0
:1010E000375101E1D1D0750E361901E1375101E1D7
:1010F000BDD0730E361901E1375101E191D0720E66
:10110000361901E1375101E17AD06F0E361901E14C
:10111000375167E06E0E361901E1375155E06D0E1B
:10112000361901E1375144E06C0E361901E13751AF
:1011300036E06B0E361901E1375128E06A0E361998
:1011400001E137511AE0020E361901E137510CE086
:10115000010E361901E05DD1375101E05AD1210E5F
:10116000DF5C01E056D12CD0440EDF5C02E16A0E58
:101170001CD1210EDF5C26E123D0410EDF5C02E1B1
:101180006B0E13D1210EDF5C1DE11AD0540EDF5C13
:1011900002E16C0E0AD1210EDF5C14E111D0450E84
:1011A000DF5C02E16D0E01D1210EDF5C0BE108D0A6
:1011B0003A0EDF5C02E16E0EF8D0210EDF5C02E138
:1011C000020EF3D0010EF1D0A0EC13F001E1141DDA
:1011D00023E085EC14F006C04BFF07C04CFF6F0EF8
:1011E000E3D0A0EC13F001E1141D16E013510F0140
:1011F0004B27010114510F014C23720ED5D0A0ECE6
:1012000013F001E1141D08E085EC14F006C04DFF59
:1012100007C04EFF730EC8D0170EE66E450EC1D044
:10122000A0EC13F001E1141D01E1B8D013510F013E
:101230004D27010114510F014E230C0EE66EE66A94
:101240004DCFE6FF4ECFE6FFD4EC13F006E00F01E2
:101250004D514E1102E0750EA7D0E80EE66E430E1A
:101260008BEC13F0DE0EE66E440E9BD0A0EC13F078
:1012700001E1141D01E192D085EC14F006C04FFF8E
:1012800007C050FF760E90D0A0EC13F001E1141DC2
:1012900001E184D013510F014F27010114510F01B7
:1012A00050234F51501106E1D20EE66E430E8BECE7
:1012B00013F0AFD0EEEC13F0F350F4100CE10F018B
:1012C000503509E24F511E08000E505504E2B00E91
:1012D000E66E430E5DD0EEEC13F0010EF3180EE156
:1012E00015500CE10F01503509E24F511F08000E57
:1012F000505504E2780EE66E430E4AD0EEEC13F041
:10130000020EF31811E115500FE1EBEC14F00CE0B4
:101310000F01503509E24F511D08000E505504E2EF
:10132000560EE66E430E34D0EEEC13F0020EF318B8
:1013300011E115500FE1EBEC14F00CE10F01503509
:1013400009E24F511C08000E505504E2340EE66EBF
:10135000430E1ED0740E28D0A0EC13F001E1141D32
:101360001DE013C151FF14C152FF070EE66EE66A7D
:1013700013C1E6FF14C1E6FFD4EC13F006E00F0141
:101380005151521102E0630E0FD0120EE66E430E61
:101390008BEC13F09A0EE66E430E03D07A0EE66ED7
:1013A000440E8BEC13F0010E0101366F376B31D018
:1013B000230EDF5C23E1010E366F376B4BCFE6FF68
:1013C000060EC2EC13F04DCFE6FF050EC2EC13F093
:1013D0004FCFE6FF040EC2EC13F051CFE6FF030E31
:1013E000C2EC13F001012B5105E0F20EE66E420E45
:1013F0008BEC13F00101010E2A6F0BD0D30EE66EB9
:10140000420EB3EC15F08BEC13F0010E0101346FBA
:10141000356B01012251630A63E0AD0A52E0030A11
:1014200047E0010A3EE0070A33E0010A27E0030A29
:101430001CE0010A11E0CA0A06E0030A62E1210E7B
:10144000DF5C5FE123D0440EDF5C02E1C80E58D0C0
:10145000210EDF5C54E11AD0480EDF5C02E1C90EB8
:101460004FD0210EDF5C4BE111D0540EDF5C02E166
:10147000CA0E46D0210EDF5C42E108D03A0EDF5C96
:1014800002E1CB0E3DD0210EDF5C39E1020E38D0F7
:1014900024EC14F01DE00A0E2503F3CF23F1CC0E4B
:1014A0002FD024EC14F014E025512327CD0E28D0A2
:1014B00024EC14F00DE00A0E2503F3CF24F1CE0E38
:1014C0001FD024EC14F004E025512427630E18D01B
:1014D000010E226FC40EE66E420E8BEC13F011D09B
:1014E000230EDF5C06E10F0E006F016B010E296F0A
:1014F00007D0B30EE66E420E8BEC13F00101010E25
:10150000226FE55237EF14F00101045102E1010EA0
:10151000051901E196D0040E041901E1055101E11C
:101520008ED0030E041901E1055101E17AD0010EBC
:10153000041901E1055128E0045101E1055101E0E0
:101540001200A90EE66E420E73EC15F09D0EE66ECB
:10155000420E80EC16F006E2040E0101046F056BEA
:10156000266B276B7BEC15F006E2010E0101046F80
:10157000056B076B086B7EEC15F001E37AD0010177
:10158000046B010E056F12000751081109E0910E5E
:10159000E66E420E73EC15F08B0EE66E420E08D02E
:1015A000810EE66E420E73EC15F0910EE66E420E61
:1015B0006EEC16F004E20101046B010E056F7EEC87
:1015C00015F003E20101046B056B81EC15F051E2AB
:1015D000030E0101046F056B010E156F9EEC16F0F2
:1015E00001012C6F010E05EC14F001012D6F020EAC
:1015F00005EC14F001012E6F030E05EC14F001014F
:101600002F6F040E05EC14F00101306F050E05EC90
:1016100014F00101316F060E05EC14F00101326F78
:10162000120006EC0FF004EC10F00101395121E03A
:10163000046B056B396B010E006F016B12003AEF02
:101640000BF09D0EE66E420EA3EC16F002E208ECE3
:1016500015F07BEC15F003E20101046B056B7EECE9
:1016600015F007E2010E0101046F056B076F086BAF
:101670001200120001012651020A01E17ED0030A84
:1016800043E0010A01E012006A0EE66E420E73ECBE
:1016900015F0600EE66E420E80EC16F026E2380E73
:1016A000E66E420E8BEC13F0070EE66E420E8BECEC
:1016B00013F0F70EE66E410E8BEC13F0D50EE66ECE
:1016C000410E8BEC13F0A40EE66E410E8BEC13F082
:1016D000930EE66E410E8BEC13F0CAEC14F0010190
:1016E000010E2B6F0C0E006F016B7EEC15F004E207
:1016F0000101020E266F276B7BEC15F056E201010B
:10170000010E266F276B1200275109E1820EE66E4B
:10171000410E73EC15F0780EE66E410E08D0780E8F
:10172000E66E410E73EC15F08B0EE66E420E80EC09
:1017300016F014E26F0EE66E410E8BEC13F0010111
:101740002B6BCAEC14F00C0EB0EC14F01FEC16F07E
:10175000070EF56E0D00F56A0E002A6B7EEC15F093
:1017600004E20101266B010E276F7BEC15F01DE2F0
:101770000101020E266F010E16D0600EE66E420EBB
:10178000A3EC16F002E208EC15F07EEC15F005E291
:101790000101010E266F020E276F7BEC15F005E2AA
:1017A0000101266B020E276F1200120001010B517E
:1017B00002E1010E0C1901E115D1370E0B1901E1FF
:1017C0000C5101E1E0D0360E0B1901E10C5101E1A1
:1017D000B0D0350E0B1901E10C5101E17ED0340E71
:1017E0000B1901E10C514FE0330E0B1901E10C51C3
:1017F00020E0320E0B1901E10C5101E012005E0EE7
:10180000E66E410E73EC15F04D0EE66E410E6EEC79
:1018100016F006E2320EB1EC14F0330E0B6F0C6BC7
:101820007EEC15F004E201010B6B010E0C6F090E4A
:10183000D3D0320E0D190BE10E5109E13C0EE66ECC
:10184000410E73EC15F02B0EE66E410E08D02B0EF8
:10185000E66E410E73EC15F01A0EE66E410E6EEC5C
:1018600016F006E2330EB1EC14F0340E0B6F0C6B75
:101870007EEC15F006E2330EB1EC14F0320E0B6F75
:101880000C6B080EA9D0330E0D190BE10E5109E1B6
:101890004D0EE66E410E73EC15F0090EE66E410E2C
:1018A00008D0090EE66E410E73EC15F0F80EE66EE8
:1018B000400E6EEC16F006E2340EB1EC14F0350E6C
:1018C0000B6F0C6B7EEC15F006E2340EB1EC14F0ED
:1018D000330E0B6F0C6B010E7FD0340E0D190BE124
:1018E0000E5109E11A0EE66E410E73EC15F0E70E8B
:1018F000E66E400E08D0E70EE66E400E73EC15F073
:10190000D60EE66E400E6EEC16F006E2350EB1EC29
:1019100014F0360E0B6F0C6B7EEC15F006E2350EF4
:10192000B1EC14F0340E0B6F0C6BFB0EE66EE66838
:1019300055D0350E0D190BE10E5109E1F80EE66E8A
:10194000400E73EC15F0C50EE66E400E08D0C50EC5
:10195000E66E400E73EC15F0B40EE66E400E6EECC3
:1019600016F006E2360EB1EC14F0370E0B6F0C6B6E
:101970007EEC15F006E2360EB1EC14F0350E0B6F6E
:101980000C6B000E29D0360E0D190BE10E5109E13A
:10199000D60EE66E400E73EC15F0A30EE66E400E0A
:1019A00008D0A30EE66E400E73EC15F0CA0EE66E7C
:1019B000450E6EEC16F006E2370EB1EC14F00B6B30
:1019C000010E0C6F7EEC15F006E2370EB1EC14F050
:1019D000360E0B6F0C6B070EE66EE66A19D8E552F1
:1019E000E5521200B40EE66E400E87EC16F003E2EC
:1019F000370E3CEC15F07BEC15F003E2320E3CECBC
:101A000015F081EC15F003E20A0EB0EF14F01200AD
:101A100032EC14F081EC15F057E2B5EC14F0FD0E49
:101A2000DB50141803E1FE0EDB5015184DE0D1EC2D
:101A300014F01FEC16F001010900F550145C0F6F53
:101A40000900F5501558106F1FEC16F0FD0EDBCF96
:101A5000F5FF0D00FE0EDBCFF5FF0E00020E05ECCC
:101A600014F00F01446F456BE85001010F250F0181
:101A7000446F4551010110210F01456F800E45153E
:101A800008E0180E4425446F000E4521456FE66AB4
:101A90000DD045350DE244511708000E455508E2BA
:101AA000180E445F000E455B010EE66EE8D8E55265
:101AB00044CFE6FF020EC2EC13F0010EB0EC14F0BE
:101AC000380E0B6F0C6B07D081EC15F004E2010EA1
:101AD0000101006F016B37EF14F0B5EC14F0070E45
:101AE000141801E1155024E0145001E115501EE0D6
:101AF000FB0E141802E1E868151816E0010E141820
:101B000001E115500FE0080E141801E1155008E02E
:101B1000090E141801E1155001E01200320E09D02F
:101B2000330E07D0340E05D0350E03D0360E01D05B
:101B3000370E01010B6F0C6B120032EC14F0300EFB
:101B4000F36EFE0EE6EC14F00CE3FE0EDB503908EB
:101B500008E3FE0EDB50D00F156AF36E15C0F4FFDC
:101B600002D0F368F46837EF14F032EC14F0D1ECE3
:101B700014F0FB0EDBCF16F0FC0EDBCF17F0175086
:101B80001518E8AE02D0153404D01450165C155068
:101B9000175802E2F36A02D0010EF36EF46A37EFCF
:101BA00014F032EC14F0E150FD0FE96EFF0EDA2074
:101BB000EA6E020EEE1804E1ED5002E1020E1FD0B3
:101BC000A9EC14F0040EEE1801E1ED5015E0A9ECBB
:101BD00014F0060EEE1801E1ED500EE0A9EC14F041
:101BE000090EEE1801E1ED5007E0A9EC14F00B0E20
:101BF000EE1804E1ED5002E1F36A02D0010EF36E3B
:101C0000F46A37EF14F032EC14F0D1EC14F0040E57
:101C10003BEC14F00450051016E1FD0EDBCF16F07E
:101C2000FE0EDBCF17F0640E0D6E0E6A16C008F0C4
:101C300017C009F03FEC29F004C016F005C017F0FA
:101C40000450051017E1FD0EDBCF18F0FE0EDBCFC0
:101C500019F0900E0D6E010E0E6E18C008F019C02E
:101C600009F03FEC29F004C018F005C019F0045049
:101C7000051002E1010E01D0000E37EF14F032EC36
:101C800014F0040EE12605EC14F0DF6E030E05ECF3
:101C900014F0E76E010EE7CFDBFF050E05EC14F044
:101CA000E76E020EE7CFDBFF060E05EC14F0E76EE1
:101CB000030EE7CFDBFFFE0EDB503FE1DF06010E38
:101CC000DB06F36EDBCFF4FFE850F45C03E2DE5298
:101CD000070EDD6E010EDF5C01E377D0020EDB0440
:101CE00008E11F0EDF6E0C0E56EC15F0030EDB063E
:101CF0006CD098EC13F0F350F41004E1020EDB0604
:101D00001F0E62D069EC16F00BE1155009E1020ECE
:101D1000DB50030805E0010E56EC15F01E0E54D002
:101D200069EC16F052E1155050E1030EDB50030B45
:101D300002E11D0E49D01C0E47D0DF2A010EDB2A1E
:101D4000DB50070803E2DE52010EDD6E020EDB50AF
:101D50000C080BE1DF501F0808E2010E56EC15F0ED
:101D6000010EDF6E030EDB2A30D098EC13F0F35037
:101D7000F41003E1DF501E0824E369EC16F005E1DE
:101D8000155003E1DF501F081CE398EC13F0020E1E
:101D9000F31809E1155007E1030EDB50030B03E1D3
:101DA000DF501D080EE398EC13F0020EF3180DE15E
:101DB00015500BE1030EDB50030B07E0DF501C084E
:101DC00004E2020EDB2A010EDF6EDFCFE6FF040E17
:101DD000C2EC13F0010EDBCFE6FF030EC2EC13F0F2
:101DE000020EDBCFE6FF050EC2EC13F0030EDBCFD5
:101DF000E6FF060EC2EC13F0146E040EE15C02E284
:101E0000E16AE552E16E145037EF14F001012F51F1
:101E1000070A24E0010A1EE0030A18E0010A12E0A2
:101E2000070A0CE0010A06E0030A1DE19F0EE66EB8
:101E3000400E17D09B0EE66E400E13D0970EE66E46
:101E4000400E0FD0930EE66E400E0BD08F0EE66E56
:101E5000400E07D08B0EE66E400E03D0870EE66E66
:101E6000400E73EC15F00A0E01012E5D09E28DECB7
:101E700015F0040E74EC16F0EDEC15F0050E03D021
:101E8000EDEC15F0040E4FEC16F014EC15F061ECCF
:101E900013F00A0E01012D5D09E28DEC15F0070E1D
:101EA00074EC16F0F4EC15F0080E03D0F4EC15F019
:101EB000070E4FEC16F0090E74EC16F00A0E010135
:101EC0002C5D08E28DEC15F016EC16F0FBEC15F02D
:101ED0000B0E03D0FBEC15F00A0EE66EE66A91ECF1
:101EE00013F00101150506E1830EE66E400EE66E65
:101EF0000D0E08D0020E155D07E17E0EE66E400E57
:101F0000E66E0C0E74EC16F0010131510C0A42E041
:101F1000070A3CE0010A36E0030A30E0010A2AE041
:101F20000F0A24E0010A1EE0030A18E0010A12E089
:101F3000070A0CE0010A06E0030A31E17A0EE66EB8
:101F4000400E2BD0760EE66E400E27D0720EE66E57
:101F5000400E23D06E0EE66E400E1FD06A0EE66E67
:101F6000400E1BD0660EE66E400E17D0620EE66E77
:101F7000400E13D05E0EE66E400E0FD05A0EE66E87
:101F8000400E0BD0560EE66E400E07D0520EE66E97
:101F9000400E03D04E0EE66E400E54EC16F05BEC95
:101FA00015F0050E8AEC15F00101305D09E25BECDD
:101FB00015F0060E71EC16F002EC16F0070E03D0C9
:101FC00002EC16F0060E84EC15F05BEC15F0080E32
:101FD00071EC16F0140EC1DBE66A090EE1DBC2EC0F
:101FE00015F00A0E0101325D0AE20AEC15F00B0E43
:101FF000D7DBC2EC15F009EC16F00C0E03D009EC9F
:1020000016F00B0E84EF15F001010A51FF0A01E1F1
:102010009DD1F30A01E15FD1070A01E133D1010A41
:1020200001E1EFD0030A01E1C3D0010A01E186D04A
:102030000F0A49E0010A0EE0060A01E0120087ECEF
:1020400015F001E1C9D10101330501E0C5D1060E4A
:102050000A6F120024EC16F005E293EC16F0040E61
:1020600074EC16F0A0EC15F004E001012E29BDEC93
:1020700014F0B0EC15F008E001012E052E6FE850C9
:10208000170802E2170E2E6F9DEC15F005E0050E05
:1020900001012E25BDEC14F0A3EC15F009E0050EAE
:1020A00001012E5D2E6FE850170802E2170E2E6F09
:1020B00087EC15F003E00101070E0A6F27EC16F01C
:1020C00001E18AD141D124EC16F005E293EC16F03F
:1020D000070E74EC16F0A0EC15F005E001012D29B7
:1020E000DEDB05C02DF1B0EC15F008E001012D0597
:1020F0002D6FE8503B0802E23B0E2D6F9DEC15F072
:1021000006E0140E01012D25CADB05C02DF1A3EC5C
:1021100015F009E0140E01012D5D2D6FE8503B080C
:1021200002E23B0E2D6F87EC15F003E00101080E73
:102130000A6F27EC16F001E14FD106D124EC16F01E
:1021400004E293EC16F016EC16F0A0EC15F005E0A6
:1021500001012C29A4DB05C02CF1B0EC15F008E03E
:1021600001012C052C6FE8503B0802E23B0E2C6F5E
:102170009DEC15F006E0140E01012C2590DB05C046
:102180002CF1A3EC15F009E0140E01012C5D2C6F6D
:10219000E8503B0802E23B0E2C6F87EC15F003E0A1
:1021A0000101090E0A6F27EC16F001E115D1CCD020
:1021B00024EC16F005E2480EE66E400E73EC15F0C6
:1021C000A0EC15F008E001012F292F6FE850070857
:1021D00002E2010E2F6FB0EC15F008E001012F05AF
:1021E0002F6FE850070802E2070E2F6F87EC15F0FB
:1021F00003E001010A0E0A6F27EC16F001E1ECD0B2
:10220000A3D024EC16F005E293EC16F0060E71EC68
:1022100016F0A0EC15F008E001013029306FE8500D
:102220001F0802E2010E306FB0EC15F008E001016A
:102230003005306F010E305D02E21F0E306F9DECF5
:1022400015F009E00A0E01013025306FE8501F0833
:1022500002E2010E306FA3EC15F009E00A0E010155
:10226000305D306F010E305D02E21F0E306F87EC83
:1022700015F003E001010B0E0A6F27EC16F001E1E7
:10228000ABD062D024EC16F005E2480EE66E400EAC
:1022900054EC16F0A0EC15F008E001013129316F83
:1022A000E8500C0802E2010E316FB0EC15F008E0C6
:1022B00001013105316F010E315D02E20C0E316F0B
:1022C00087EC15F003E001010C0E0A6F27EC16F005
:1022D00001E182D039D024EC16F004E2A0DB090E33
:1022E00071EC16F0A0EC15F007E001013229326F15
:1022F000E850630801E2326BB0EC15F008E0010130
:102300003205326F630E325D02E2630E326FA3EC70
:1023100015F009E0050E0101325D326F630E325D8A
:1023200002E2630E326F9DEC15F008E0050E01012C
:102330003225326FE850630801E2326BE8DB01E0DE
:10234000A2DB27EC16F048E043EF15F0336B5EDDBF
:102350000101D1D902E239EC16F0D9DB25E0010107
:10236000150522E125DB396F156B2CC1E6FFE66A06
:1023700056EC28F0E552E5522EC1E6FF020E02DAD5
:102380002DC1E6FF010EFED92FC1E6FF030EFAD9DB
:1023900030C1E6FF040EF6D931C1E6FF050EF2D9D1
:1023A00032C1E6FF060EEED9B2DB07E0020E0101F4
:1023B000155D03E1FDDA396F156BD2DB0AE001012F
:1023C000150502E1020E04D0020E155D02E1010EB8
:1023D000156FB6DB01E0ECDA120044DA080EE126F4
:1023E0001DDAE906000EEA5A010ED890E936EA36FF
:1023F000E806FBE169DADF6E1BDB010EF6DA100B93
:1024000001E0010E1D0FE76E020EEFDA200B01E076
:10241000010EE76E030EE7CFDBFF00DA010ED89066
:10242000E936EA36E806FBE14FDAE76E040EE7CF5D
:10243000DBFFFEDA050EE7CFDBFF020EDB50DF5CD1
:1024400029E1040EDB50020825E1FE0EDB0404E165
:102450001FDADFCFEFFF2CD0FE0EDB501F0806E1A6
:1024600017DA010EEF6EF7D9050E24D0FE0EDB044D
:1024700058EC16F0030EDB501BE1010EDB500C088C
:1024800002E1010E02D0010EDB28E66EE4D9E5522E
:10249000E7502AD0FE0EDB50DF24FF0F58EC16F079
:1024A000F7D9EFCF14F0020EDB50D880145405E3B7
:1024B000D2D9010EDBCFEFFF18D0EAD9020EDB50E4
:1024C000EF5E030EDBCFE6FF010EDB28E552D8807E
:1024D000E754E66EC0D9E552E750EF6EBCD9EF5035
:1024E0000D0803E1B8D9010EEF6EB5D9EF50F36EC8
:1024F000FD0E6CDA08E363DAFB0EDBCFEEFFFC0EB9
:10250000DBCFEDFF09D0DADB1406000E155A57DADF
:1025100014C0EEFF15C0EDFF52DAD00EEE5E070ECE
:10252000ED5A080EE15C02E2E16AE552E16E9FD1EC
:1025300099D965DA01E1095050E0020E081801E16D
:10254000095047E0010E081801E109503EE008502B
:1025500001E1095036E0090E081801E109502DE0AB
:10256000080E081801E1095024E0070E081801E1DF
:1025700009501BE0060E081801E1095012E0050E93
:10258000081801E1095009E0040E08182CE109506F
:102590002AE1420EE66E400E23D03E0EE66E400E5D
:1025A0001FD0380EE66E400E1BD0320EE66E400E87
:1025B00017D02D0EE66E400E13D0290EE66E400E9B
:1025C0000FD0230EE66E400E0BD01E0EE66E400EB0
:1025D00007D0180EE66E400E03D0130EE66E400EC6
:1025E000E66E050E81DB43D13DD909DA01E10950E0
:1025F00062E0020E081801E1095059E0010E0818C6
:1026000001E1095050E0085001E1095048E00B0E8B
:10261000081801E109503FE00A0E081801E10950CD
:1026200036E0090E081801E109502DE0080E0818DF
:1026300001E1095024E0070E081801E109501BE0F0
:10264000060E081801E1095012E0050E081801E114
:10265000095009E0040E081833E1095031E1100E69
:10266000E66E400E2BD00C0EE66E400E27D0080E04
:10267000E66E400E23D0040EE66E400E1FD0FF0E15
:10268000E66E3F0E1BD0FC0EE66E3F0E17D0F80E26
:10269000E66E3F0E13D0F40EE66E3F0E0FD0EF0E37
:1026A000E66E3F0E0BD0EB0EE66E3F0E07D0E60E49
:1026B000E66E3F0E03D0E20EE66E3F0EE66EB6DA31
:1026C000D6D029EC1EF0E552E552E552E552120053
:1026D000E66E7CEC25F0E5520008120015C0E6FF1E
:1026E00016C0E6FF17C0E6FF1200E66E7CEC25F090
:1026F000E552000912000629146E140E13DA05C003
:1027000006F1010105500F081200E66E86EC25F077
:10271000E55200091200E66E99EC24F0E552E5520C
:102720001200DBEC1DF0186E060EE15E1850120070
:10273000020EDBCFE6FFE66AD1EC0DF0C9EF15F033
:1027400078DAF3CF13F1F4CF14F10101F31C120086
:102750008C0EE66E450EE66E1200E66EE66AE66ADE
:1027600012001C29146E140EDDD905C01CF10101E4
:1027700005500F0812009EEC04F0E552E552E552B8
:10278000E5521200E66E56EC28F0E552E5521200D2
:1027900050DAF3CF11F1F4CF12F10101F31C120062
:1027A000E66E010EE66E1200B5EC0DF0E552E55254
:1027B000F0D9F350F4101200DECFE9FFDDCFEAFFCD
:1027C000030EEA02F3CFEAFFE902F3CFE9FFF45088
:1027D000EA26530EE9260F0EEA2212004DCFE6FF3D
:1027E0004ECFE6FFD1EC0DF0C9EF15F000C102F1BC
:1027F00001C103F112009CD9010E156A1E25146E49
:102800001F511522145020191200E66E61EC28F0B9
:10281000E5521200156A166A176A12004FDAE40EC2
:10282000145E070E155A0C0E1502F3CF15F01402A4
:10283000F3CF14F0F4501526FD0EDB50F324E96EAF
:10284000000E1520EA6E1200F4D9F3CF25F1FF0E29
:102850000101F35C1200F70EDBCFE9FFF80EDBCFCE
:10286000EAFF1200D9CFE6FFE1CFD9FF1200E5520F
:10287000E7CFD9FF12000D6E0E6A14C008F015C024
:1028800009F03FEC29F004C014F005C015F0120067
:10289000F90EDBCFE9FFFA0EDBCFEAFF1200146E70
:1028A0003C0E92EF15F03E51030DF3CFE9FFF4CF4C
:1028B000EAFF530EE9260F0EEA221200E66EFE0E24
:1028C000DBCFE6FFC2EF15F0420EE926010EEA2249
:1028D000060EEECFDBFF070EEDCFDBFFD950060F64
:1028E000E96EDACFEAFFEF501F0B1200E66E86ECBE
:1028F00025F0E552000812000A0E086E096A11C19F
:102900000DF012C10EF092EF29F00A0E086E096A5E
:1029100013C10DF014C10EF092EF29F00FDA01018E
:102920001E6F1F6B98EF15F056CFE6FF57CFE6FFEF
:1029300058CFE6FF120059CFE6FF5ACFE6FF5BCF34
:10294000E6FF12005CCFE6FF5DCFE6FF5ECFE6FF5D
:102950001200D950FD0FE96EFF0EDA20EA6E120068
:10296000BCD101010D6F0E6B120069D90900F5CFC2
:1029700014F00800F5CF15F01200146E180ED2D81E
:1029800005C02EF11200146E156AD00E1426070E23
:10299000152212000F01786B0F01796B0F017A6B12
:1029A0001200FD0EDBCF14F0FE0EDBCF15F012008F
:1029B00032EC1DF001010A6B010E336F1200F50EAF
:1029C000DBCFE9FFF60EDBCFEAFF1200DBCFF4FF2F
:1029D000F350F45C12004BCFE6FF4CCFE6FF03EC64
:1029E0000EF0E552E55200091200E7CFDBFFD950A7
:1029F000060FE96EDACFEAFFEE52EF501200FD0E3D
:102A0000DBCF08F0FE0EDBCF09F0030E0818120032
:102A1000080E63D1E66AE66AE66AE66A1200300EDC
:102A2000E66E450EE66E1200060EE66EE66A1200CF
:102A3000D950060FE96EEE52EF500F0BE76E120001
:102A40005FCFE6FF60CFE6FF61CFE6FF120016C161
:102A500014F017C115F0166A176A120018C114F0A5
:102A600019C115F0166A176A12001AC114F01BC1B9
:102A700015F0166A176A120001010B6F0C6B0D6BD3
:102A8000010E0E6F120032EC1DF00101010E336FCA
:102A90000A691200100E21D10F013A0E656F010173
:102AA000120020C11EF121C11FF11200F36E020EAF
:102AB000F3CFDBFF12004C0EE66E400EE66E120006
:102AC000E66EE66A010EE66E61EF13F041DEACDF02
:102AD000F8DD3EDE090E08D93BDE060E02D938DEEF
:102AE000090E71EF16F039DE61EF13F0DBCF14F051
:102AF00091DE7CEF16F0050E68EF13F0040E68EF20
:102B000013F0060E68EF13F04BDE91EF13F0060E94
:102B100075EF13F0E6D80A0E12004F0EE66E450E62
:102B2000E66E1200156E0E6E14C009F0BBEF2AF0AF
:102B300005D90101206F216B1200040E85EF13F0FF
:102B4000040E75EF13F0050E85EF13F053CFE6FF7B
:102B500054CFE6FF55CFE6FFE66A0DDE94EF14F0A2
:102B6000050E75EF13F0D7DD250EE66E440ED3DDAE
:102B70000C0EE66E440E1200E66EFE0EDBCFE6FF94
:102B800091EF13F0DBEC1DF0146E060EE15E1450B5
:102B90001200E552E552F3CF14F0F4CF15F0120015
:102BA000010EE66EBBEF13F0510EE66E450E1200FD
:102BB0003BC114F02FDE3BC1E6FF6EEF13F03CC1CA
:102BC00014F028DE3CC1E6FF6EEF13F03DC114F0B7
:102BD00021DE3DC1E6FF6EEF13F02EC114F01ADEC8
:102BE0002EC1E6FF6EEF13F02DC114F013DE2DC1E0
:102BF000E6FF6EEF13F02CC114F00CDE2CC1E6FFE3
:102C00006EEF13F030C114F005DE30C1E6FF6EEF59
:102C100013F032C114F0FEDD32C1E6FF6EEF13F0A7
:102C2000040E71EF16F0070E71EF16F00A0E74EF36
:102C300016F0DFCFE6FF9DEC0DF0E5521200060E18
:102C4000F66E000EF76E1200336B7BEF13F0060E7C
:102C500085EF13F069DEE66A8EDD9BEF14F06BDE24
:102C6000E66A89DDA2EF14F06DDEE66A84DD20EF0E
:102C700015F0D5DE0C0E74EF16F0B8DD040E43D05F
:102C8000FADD04C0E6FF05C0E6FF1200AFDD060E68
:102C90003AD0ACDD0A0E37D0A9DD0D0E34D0E66E89
:102CA000E66A3FDDA8EF13F0E66E020E71EF16F054
:102CB000E66EEEDDE552E750EF6E1200FB0EDBCF65
:102CC00014F0FC0EDBCF15F01200E66EE66AD4EFCE
:102CD00013F02EDD010EF318120015D0F1DE7BEF9C
:102CE00015F05EDD61EF13F0E66EE66A61EF13F05A
:102CF00057DFECDE7BEF15F014C0E6FF6EEF13F04C
:102D0000DFDE81EF15F00101006F016B1200EBDED9
:102D1000980EE66E450ED4DE7EEF15F0F5DE18DD7A
:102D2000060E8AEF15F040DFE66E1200DCDE3CDFB7
:102D300060EF15F030EC07F081EF15F0E66A61EC1A
:102D400028F0E5521200CFDE7B0EE66E420E80EFD9
:022D500016F07B
:0E2D5200D9CFE6FFE1CFD9FF020EE126DE6AFF
:102D6000DD6A6CD851EC1CF032EC1DF0D0D8E3ECED
:102D70001AF0D40EE66E3F0EE66E060EE66EE66ABA
:102D800013EC1DF0E552E552E552E552D00EE66E29
:102D9000070EE66E0FD8E552E55202010B51FDE039
:102DA0000B6B32EC1DF05AEC25F040EC00F05AECC5
:102DB0001DF0F3D7D9CFE6FFE1CFD9FF040EE1260E
:102DC000DE6ADD6ADECF14F0DDCF15F0FD0EDBCF5D
:102DD00016F0FE0EDBCF17F015501718E8AE02D034
:102DE000173404D01650145C175015581DE2020E0B
:102DF000DB6A030EDB6A020EDBCF14F0030EDBCFBF
:102E000015F0D890155004E6EE0E145C000E15581F
:102E100006E2020EDB2A030EEEE3DB2AECD7DF2A02
:102E2000010ED0E3DB2ACED7040EE15C02E2E16AB8
:102E3000E552E16EE552E7CFD9FF1200936A956A39
:102E4000CBEC1BF08FEC28F0BEDB570EE66E120EBB
:102E5000E66E77EC26F0E552E552AE0EE66E240EF5
:102E6000E66E8DEC26F0E552E552660EE66EB70E84
:102E7000E66EBCEC26F0E552E552020EE66EE66A1E
:102E800015EC27F0E552E5520A0EE66EE66A21ECF3
:102E900027F0E552E5520A0EE66EE66A3AEC27F0B4
:102EA000E552E5522FEC25F0CBEC27F059EF23F05B
:102EB0000F01370E666F3B0E676F170E686F070EB8
:102EC000696F1F0E6A6F0C0E6B6F0D0E6C6F66CF05
:102ED000E6FFE66A56EC28F0E552E55267CFE6FFDA
:102EE000010E1FDB68CFE6FF020E1BDB69CFE6FF9A
:102EF000030E17DB6ACFE6FF040E13DB6BCFE6FF92
:102F0000050E0FDB6CCFE6FF060E91EF1AF0200ED8
:102F100095DB220811E0CCDFE66A100E02DBE66AE0
:102F2000110EFFDAE66A120EFCDAE66A130EF9DA1F
:102F3000220EE66E200EF5DA1200100E7FDB0F0176
:102F40006F6F110E7BDB0F01706F120E77DB0F01BD
:102F5000716F130E73DB0F01756F1200FCDA146EC4
:102F60001FDBE66ED7DAE66AE66AE1DA6BCF14F0C9
:102F700017DB6BCFE6FFCEDA030E85DB7DDB060EBB
:102F800082DB69CF14F00CDB69CFE6FFC3DA090EF0
:102F90007ADB5DDBE66A010EE66EC9DA5FDB030E03
:102FA00076DB63DB060E47EF1BF0D5DA6951070AC3
:102FB00024E0010A1EE0030A18E0010A12E0070AF1
:102FC0000CE0010A06E0030A1FE1D00EE66E3F0E98
:102FD00017D0CC0EE66E3F0E13D0C80EE66E3F0E35
:102FE0000FD0C40EE66E3F0E0BD0C00EE66E3F0E45
:102FF00007D0BC0EE66E3F0E03D0B80EE66E3F0E55
:10300000E66EE66AE66A7FDA0A0E0F01685D06E29E
:10301000D5DA040E18DB1BDB050E02D018DB040E1C
:1030200032DBEFDA060E0FDB0A0E0F01675D06E2F8
:10303000C5DA070E08DB12DB080E02D00FDB070E25
:1030400022DBDFDA090EFFDA0A0E0F01665D06E207
:10305000B5DA0A0EF8DA09DB0B0E02D006DB0A0E2F
:1030600012DB0F017151010A06E0010A0AE1B00EFC
:10307000E66E3F0E03D0AC0EE66E3F0EE66E0D0E12
:10308000E2DA0101150506E1A80EE66E3F0EE66ED6
:103090000D0E08D0020E155D06E1A30EE66E3F0E82
:1030A000E66E0C0ED0DA0F016B510C0A42E0070AF3
:1030B0003CE0010A36E0030A30E0010A2AE00F0A88
:1030C00024E0010A1EE0030A18E0010A12E0070AE0
:1030D0000CE0010A06E0030A32E19F0EE66E3F0EA5
:1030E0002BD09B0EE66E3F0E27D0970EE66E3F0E5E
:1030F00023D0930EE66E3F0E1FD08F0EE66E3F0E6E
:103100001BD08B0EE66E3F0E17D0870EE66E3F0E7D
:1031100013D0830EE66E3F0E0FD07F0EE66E3F0E8D
:103120000BD07B0EE66E3F0E07D0770EE66E3F0E9D
:1031300003D0730EE66E3F0EE66E020E76DA66DAA6
:10314000050E73DA0A0E0F016A5D06E25FDA060EFB
:103150006CDA92DA070E02D08FDA060E98DA56DAB7
:10316000080E63DA140EE66EE66AE66AE66A090E8F
:103170001BDA32DA0A0E0F016C5D0AE2E66AE66AD1
:10318000E66AE66A0B0E10DA27DA84DA0C0E02D051
:1031900081DA0B0E47EF1BF0600EE66E3F0EE66E17
:1031A000E66AE66AB0D937DAE66A010EE66EABD9AE
:1031B0000A0E0F016F5D06E201DA020E36DA71DAED
:1031C000030E02D06EDA020E62DA1BDA040E2DDA7A
:1031D0000A0E0F01705D06E2F1D9050E26DA68DAF3
:1031E000060E02D065DA050E52DA1ADA070E1DDA7B
:1031F0000F017151010A06E0010A0AE1B00EE66E04
:103200003F0E03D0AC0EE66E3F0EE66E0A0E0DDAF0
:1032100007DA0D0E15EF1BF00F016D51FF0A01E1EA
:10322000B2D0FC0A01E184D0010A49E0030A0DE0B2
:10323000010A01E0120051DA01E1B8D00F01760570
:1032400001E0B4D0010E6D6F120078D903E2E3D92A
:10325000020EEBD945DA03E00F016F2944DA040EC0
:10326000A7D904E0050E0F016F253DDA050E92D9AE
:103270000CE00F016F056F6FE850170802E2170EA0
:103280006F6F6FCFE6FF100E4CD9050E91D90DE090
:10329000050E0F016F5D6F6FE850170802E2170E01
:1032A0006F6F6FCFE6FF100E3CD917DA03E00F0106
:1032B000020E6D6F060E7CD901E178D05DD03ED94B
:1032C00003E2A9D9050EB1D90BDA03E00F01702989
:1032D0000FDA040E6DD904E00A0E0F01702508DA2A
:1032E000050E58D90CE00F017005706FE8503B08CF
:1032F00002E23B0E706F70CFE6FF110E12D9050E81
:1033000057D90DE00A0E0F01705D706FE8503B0851
:1033100002E23B0E706F70CFE6FF110E02D9DDD9CD
:1033200003E00F01030E6D6F060E42D93FE024D07B
:1033300005D903E275D90A0E78D9D2D907E00F0171
:103340007129010B716FE66E120EEBD8050E22D9B2
:103350000CE00F017105716FE850010802E2010EE7
:10336000716F71CFE6FF120EDCD8B7D902E00F0102
:103370006D69060E1DD91AE032EC1DF00F01010E29
:10338000766F6D6B1200DAD806E2540EE66E3F0ED1
:10339000E66E0A0E58D9A4D903E1050EFBD801E068
:1033A00022D99BD903E01FD90101386F1200010116
:1033B000010EDA1903E1DB5101E1010C000C0101FE
:1033C0000A0EDA1903E1DB5101E1010C000C0101E5
:1033D000010EE21903E1E35101E1010C000C0101CE
:1033E0000A0EE21903E1E35101E1010C000C0101B5
:1033F000010EDC1901E1DD5115E00A0ED880DC5523
:10340000000EDD5510E2DCC114F0DDC115F0030E35
:103410000D6E0E6ADCC108F0DDC109F0EBD803E1E6
:10342000155001E1010C000C0101010EE41901E14C
:10343000E55115E00A0ED880E455000EE55510E27E
:10344000E4C114F0E5C115F0030E0D6E0E6AE4C17F
:1034500008F0E5C109F0CED803E1155001E1010CF7
:10346000000C0F016F51685D0AE17051675D07E163
:10347000665105E1710503E1760501E1010C000CDF
:103480000F016E51050A16E0010A05E0040A01E089
:103490001200040E0DD0E5DF000906E00F01010E59
:1034A000756FE66E130E3DD80F0175512BE0050EBA
:1034B0006E6F1200766B7729146E140EB9D805C0A2
:1034C00077FF0A0E0F01055C02E232EC1DF00F01DE
:1034D000722B000E7323900ED8807255010E735517
:1034E00002E3FED80FE00F01010E766F756B75CF0A
:1034F000E6FF130E16D80F01726B736B32EC1DF0E2
:103500000F016E6B120029EC1EF0E552E552E552F8
:10351000E552120015C0E6FF16C0E6FF17C0E6FF31
:103520001200E66E56EC28F0E552E5521200DBEC94
:103530001DF0186E060EE15E18501200766B2CDE40
:103540000F017429146E140E73D805C074FF0F0197
:1035500005500F081200E66A61EC28F0E5520F01F1
:10356000666F010E6BD80F01676F020E67D80F01EF
:10357000686F030E63D80F01696F040E5FD80F01E7
:103580006A6F050E5BD80F016B6F060E57D80F01DF
:103590006C6F1200E66E7CEC25F0E552000912001B
:1035A000156A166A176A1200E66E010EE66E1200C0
:1035B000E66E86EC25F0E55200091200B60EE66EC6
:1035C0003F0EE66E1200E80EE66E030EE66EDAECD3
:1035D00016F0E552E5521200DBEC1DF0146E060EFB
:1035E000E15E1450120032EC1DF00F016D6B010E04
:1035F000766F120087EC2AF005C015F0010E041852
:103600001200B40EE66E3F0EE66E1200710EE66E0C
:103610003F0EE66E12005D0EE66E3F0EE66E120085
:10362000590EE66E3F0EE66E1200BEDF83EF1AF013
:10363000156E0E6E14C009F0BBEF2AF0E66E61EC59
:1036400028F0E5521200E66EE66A83EF1AF068CFC2
:1036500014F0A6DF68CFE6FF8AEF1AF067CF14F008
:103660009FDF67CFE6FF8AEF1AF066CF14F098DF8E
:1036700066CFE6FF8AEF1AF06ACF14F091DF6ACFC7
:10368000E6FF8AEF1AF0E66EE66A97EF1AF08CDF33
:1036900097EF1AF06CCF14F083DF6CCFE6FF8AEF60
:1036A0001AF06FCF14F07CDF6FCFE6FF8AEF1AF0CD
:1036B00070CF14F075DF70CFE6FF8AEF1AF005C007
:1036C0006FFF05C0E6FF100E91EF1AF005C070FF06
:1036D00005C0E6FF110E91EF1AF0060ECAEF1AF0C0
:1036E000040ECAEF1AF0146E180EA2DF5FEF1BF083
:0A36F000146E3C0E9DDF66EF1BF028
:0636FA0091EC1FF07BDBE8
:1037000015AE02D01668176820DB13E289DB49DBAF
:1037100004E6050E145C000E155806E2020EDB2AC4
:10372000030EF5E3DB2AF3D7DF2A010EE8E3DB2AF9
:10373000E6D7040EE15C02E2E16AE552E16EBBD23B
:10374000F0DB59DB15AE02D016681768FEDA13E21B
:1037500067DB27DB04E6EE0E145C000E155806E26C
:10376000020EDB2A030EF5E3DB2AF3D7DF2A010E74
:10377000E8E3DB2AE6D7040EE15C02E2E16AE55207
:10378000E16E99D2D4DBF00B6BDBFE0EDB38F00B75
:10379000811278DA90D2C2DB190E50DB0F0E81163F
:1037A000F80E81160F0E8116300E5ADB300E58DBE4
:1037B000300E56DB818A66DA280EE66EE3DFE552CC
:1037C0000C0EE66EDFDFE552E55275D29DDB010E91
:1037D000DB6A81944ADBE76E010EE7CFDBFF81965F
:1037E00044DBDF6E010EDB50DF128196010E51DAF1
:1037F000DF50146E020EE15C02E2E16AE552E16E16
:10380000145059D28BDBDF6AE1DFDF6EDFBEFCD7FD
:10381000DF50E55250D28BDB81128186050E39DAFA
:103820008196050E36DA47D241DA8194050E31DAF7
:1038300098DA41D23BDA8184050E2BDA92DA819450
:103840003AD23BD33AD332DAFD0EDBCFF6FFFE0E8F
:10385000DBCFF7FF0800F5500DE0FD0EDBCFF6FFE4
:10386000DB2AFE0EDBCFF7FF01E3DB2A0800F55071
:103870001BDBEAD720D252DBFD0EDB500F0B146EA0
:10388000FE0EDB50010B400DF3501424DF6E7F0E53
:10389000DF14800FDF6EDFCFE6FFC6DFE552E552B3
:1038A0000AD2010EE66EC0DFE552E66AE66A9DEFD7
:1038B0001FF0FCD9050EE126010EF36EDB6EB0DAC7
:1038C000040EDB6ADF6ADFCF14F0156A14BE1568D8
:1038D00099DA15501718E8AE02D0173404D01650F4
:1038E000145C175015581FE2FD0EDBCF14F0FE0ECE
:1038F000DBCF15F0166A176A15AE02D01668176886
:10390000D950010FE96EDACFEAFF14C00BF015C0F1
:103910000CF016C00DF017C00EF0DBDA0EEC2AF03A
:10392000E1DADF2AD0D7010EDBCF14F0020EDBCFB5
:1039300015F0030EDBCF16F0040EDBCF17F014C02A
:1039400006F015C007F016C008F017C009F0050E04
:10395000E15C02E2E16AE552E16EADD1D5DAFB0E3F
:10396000DBCF14F0FC0EDBCF15F0FD0EDBCF16F035
:10397000FE0EDBCF17F0145015101610171003E1D0
:10398000300E92DA36D0D950FB0F14DA01E618DA8D
:1039900005E22D0E89DAD950FB0FCAD9DE52070E87
:1039A000DD6E37DAE8AE02D0143403D0E750D880A9
:1039B00014541FE217DA18BE196871D936DA5EDAC4
:1039C00008DA0BE0010EDF6EDB041C6E1D6A1CBE04
:1039D0001D6883D953DA9FD903D0DF5002E0300E3F
:1039E00063DA00DA18BE19685AD9D950FB0F6CD9BE
:1039F000D8D7020EE15C02E2E16AE552E16E5BD1EA
:103A000055D9C7D9D950F90F53DAEECFE6FFEECF2B
:103A1000E6FFEECFE6FFEFCFE6FFA0DFE552E5528F
:103A2000E552E55248D142D9B4D9FB0EDBCFE6FFCF
:103A3000FC0EDBCFE6FF07DFE552E5523CD136D97D
:103A4000FCC014F0FDC015F0040ED89014361536E5
:103A5000E806FBE192D9FE0EDBCFEFFFFE2B000E56
:103A6000FF2329D15BDADF6ADFCF14F0100EE76E97
:103A70001418E8AE02D0E73402D0E750145C18E224
:103A8000DFCFE9FFEA6AE9BEEA68C10EE926000E67
:103A9000EA22200EEF6EDFCFE9FFEA6AE9BEEA68AC
:103AA000D10EE926000EEA22200EEF6EDF2ADCD7C7
:103AB000E55201D133DA0001C051030A29E0010ABD
:103AC0001CE0030A0CE0010A32E13BDA080EDF5C7D
:103AD00003E2DF50B9D9FAD70001010E17D0080E62
:103AE000E66EE66A09D9080EDF5C04E2080EDF2400
:103AF000ABD9F9D70001020E09D00BDA080EDF5C52
:103B000003E2DF50A7D9FAD70001030EC06F10D02F
:103B1000080EE66E010EE66EEFD8080EDF5C04E2DA
:103B2000080EDF2497D9F9D70001C06B01D0C06B14
:103B3000E552C1D0F3D90001C051010A0DE0010ADC
:103B400015E1FFD9100EDF5C03E2DF507DD9FAD713
:103B50000001010EC06F0BD0DCD9100EDF5C03E258
:103B6000DF5078D9FAD70001C06B01D0C06BE552A5
:103B7000A2D0D4D9E6D9100EDF5C03E2DF5064D9BD
:103B8000FAD7C7D9100EDF5C03E2DF5063D9FAD74A
:103B9000E55291D08BD8B3D8FCC014F0FDC015F01D
:103BA000040ED89014361536E806FBE1E6D8FC0E74
:103BB000DBCFEFFF80D0A8D9A2D8F90EDBCF14F06D
:103BC000FA0EDBCF15F01ED9145015101610171071
:103BD00003E1300E0CD936D0D950F90FEBD801E6FD
:103BE000EFD805E22D0E03D9D950F90FA1D8DE5236
:103BF000070EDD6E0ED9E8AE02D0143403D0E750C4
:103C0000D88014541FE2EED818BE196848D80DD9D0
:103C100040D9DFD80BE0010EDF6EDB041C6E1D6A9D
:103C20001CBE1D685AD835D976D803D0DF5002E0C3
:103C3000300EDDD8D7D818BE196831D8D950F90F51
:103C400043D8D8D7020EE15C02E2E16AE552E16EA8
:103C500032D02CD854D8FB0EDBCFF6FFFC0EDBCFD6
:103C6000F7FF0800F5500DE0FB0EDBCFF6FFDB2A77
:103C7000FC0EDBCFF7FF01E3DB2A0800F550B7D8D5
:103C8000EAD719D08186010ED9D88196010E1EEF90
:103C90001FF0E66EE66AE66AE66A2FDD56D118C0C6
:103CA000E6FF19C0E6FF10D97BEF1FF0D9CFE6FF82
:103CB000E1CFD9FF1200E552E7CFD9FF1200EA2287
:103CC000EF50F2D8DF2A1200F3D8AFD802D946EC71
:103CD0002AF008D9010EDB0612001CC0E6FF1DC049
:103CE000E6FFF2D806C018F007C019F008C01AF0B5
:103CF00009C01BF015EF1FF020D9DF6A1200FE0E7D
:103D0000DB50010B0001FC6FFD6BFD0EDB500F0B58
:103D1000FE6FFF6B1200DBCF09F046EC2AF0EBD808
:103D2000300E1426000E15221622172214501200EF
:103D3000BFD8000EEE6CEF1EEE22EF1EEE22EF1E3D
:103D4000EF22ED52ED52ED521200D950FB0FB0D8D8
:103D5000EE50145CEE501558EE501658EE501758B1
:103D60001200FE0EDBCFE6FF56DDE552FE0EDB381D
:103D7000F00BE66E50DDE5521200C10E1426000E67
:103D8000152214500001FE25E96E1550FF21EA6E40
:103D90001200FD0EDBCFE6FFFE0EDBCFE6FF9DEF50
:103DA0001FF0020EDBCF14F0030EDBCF15F0D8901E
:103DB000155012007DD8D890030EEB50000A120067
:103DC000000EEE5C000EEE58000EEE58000EEE589F
:103DD0001200DBCF09F046EC2AF00650071008105D
:103DE00009101200010EDB04186E196A1200E66E4B
:103DF00026DEE5521200DECF14F0DDCF15F0166A94
:103E0000176A1200FB0EDBCF16F0FC0EDBCF17F0AB
:103E10001200010EDBCF14F0000EE76E1418120032
:103E2000020EDB6A030EDB6A120006C00BF007C04D
:103E30000CF008C00DF009C00EF01200E66EE66A44
:103E4000E66AE66A7DDC81D0EA6AC10FE96E000E9F
:103E50005FEF1EF0EA6AD10FE96E000E5FEF1EF011
:103E6000811210DF0F0E811612000F0E12DF0F0EDF
:103E7000811281860EDF0F0E81141200FB0EDBCF44
:103E800006F0FC0EDBCF07F0FD0EDBCF08F0FE0ED8
:103E90001200F90EDBCF06F0FA0EDBCF07F0FB0EB7
:103EA000DBCF08F0FC0E1200E66ECCDCE55212000F
:103EB000E96EFF0EDA20EA6E1200F8DEFE0EDBCFAE
:103EC000E6FFB8DCE552F7D60A0EE66EE66AF1DCEC
:103ED0003CD0EECF06F0EECF07F0EECF08F0EFCFFC
:103EE00009F0120005C0EDFF04C0EDFF03C0EDFFB7
:103EF00002C0EFFF120006C014F007C015F008C0A2
:103F000016F009C017F01200D1DE020EE126DF6ABA
:103F10001200E66A010EE66E7CEF1EF0C7DEE65286
:103F20001200C4DE040EE126DE6ADD6A1200BEDE87
:103F30000F0E8116FE0EDB5012009DDCE552E5529D
:103F40001200E66AE66A7CEF1EF0E552E552E552A1
:043F5000E552120024
:0C3F540020202020002020200020200041
:103F60002020414C41524D2020204241434B2020F3
:103F7000002000444543004E4F56004F4354005329
:103F8000455000415547004A554C004A554E004D9A
:103F9000415900415052004D415200464542004AAD
:103FA000414E0045584954004F4B20004F4E2000D1
:103FB0004F4646003A0030005341540046524900F3
:103FC0005448550057454400545545004D4F4E0048
:103FD00053554E004449474954414C20434C4F43AC
:103FE0004B00486F6900547561740044617500545A
:103FF00068616E004D7569004E676F00547900541A
:1040000068696E004D656F0044616E005375750000
:1040100054690051757920004E68616D200054612B
:104020006E200043616E6820004B7920004D617561
:10403000200044696E68200042696E682000417467
:1040400020004769617020002020200020004445A6
:1040500043004E4F56004F435400534550004155C6
:1040600047004A554C004A554E004D4159004150B9
:1040700052004D415200464542004A414E004558CB
:104080004954004F4B2000534154004652490054BC
:1040900048550057454400545545004D4F4E005378
:1040A000554E003E48414E4F492020202055544354
:1040B0002B3037002048414E4F49202020205554B6
:1040C000432B3037003E4C4F4E444F4E202020555E
:1040D00054432B303000204C4F4E444F4E20202074
:1040E0005554432B3030003E4E4557594F524B20CC
:1040F000205554432D303500204E4557594F524BD3
:1041000020205554432D3035003E50415249532014
:104110002020205554432B30310020504152495328
:10412000202020205554432B3031003E4245494A3F
:10413000494E4720205554432B30380020544F4BD4
:10414000594F202020205554432B30390020424520
:10415000494A494E4720205554432B3038003E549D
:104160004F4B594F202020205554432B30390021EC
:1041700054494D45230D0A003E496E7465726E65C3
:104180007400205669727475616C5465726D696E45
:10419000616C0021444154453A59594D4D444464A1
:1041A000230D0A000D0A546F2073796E6368726FD5
:1041B0006E697A6520646174652C207573696E6719
:1041C0002073796E74617820617320666F6C6C6FF8
:1041D000773A0D0A005468652074696D65206E6534
:1041E000656420746F2062652032342D6820666F0C
:1041F000726D61740D0A002154494D453A48484D8D
:104200004D5353230D0A000D0A546F2073796E63CA
:1042100068726F6E697A652074696D652C2075739C
:10422000696E672073796E74617820617320666FA0
:104230006C6C6F773A0D0A000D0A57656C636F6DF1
:104240006520746F20416C61726D20436C6F636BED
:1042500020636F6E736F6C65206D656D750D0A0060
:1042600020496E7465726E6574003E56697274758D
:10427000616C5465726D696E616C003E4261636B86
:104280000020557365205541525400204261636BF4
:10429000003E55736520427574746F6E002055732F
:1042A0006520427574746F6E003E557365205541EC
:1042B000525400436F6E6669726D204572726F7260
:1042C000210D0A0052656164206572726F722021AF
:1042D0000D0A000D0A4E65656420636F6E66697293
:1042E0006D2064617465206368616E676520210DCF
:1042F0000A000D0A436F6E66696775726174696FB3
:104300006E20446174652053756363657373210D7A
:104310000A000D0A44415445206D7573742062658E
:1043200020696E2072616E6765205B312C375D20DD
:10433000210D0A000D0A446179206D7573742062A5
:104340006520696E2072616E6765205B312C3238A2
:104350005D20210D0A000D0A446179206D7573748A
:1043600020626520696E2072616E6765205B312C6A
:1043700032395D20210D0A000D0A446179206D75E6
:10438000737420626520696E2072616E6765205BC0
:10439000312C33315D20210D0A00506C656173654D
:1043A00020656E74657220616761696E210D0A0077
:1043B0000D0A446179206D75737420626520696E01
:1043C0002072616E6765205B312C33305D20210DDA
:1043D0000A000D0A20446179206D757374206265AE
:1043E000203E2030210D0A000D0A4D6F6E746820AA
:1043F0006D75737420626520696E2072616E6765E9
:10440000205B312C31325D20210D0A000D0A506CE9
:104410006561736520656E74657220616761696EA0
:1044200020210D0A000D0A43686172616374657290
:1044300020636F6E6669726D206973202723270DD4
:104440000A000D0A4E65656420636F6E6669726DC1
:104450002074696D6520210D0A000D0A436F6E6698
:10446000696775726174696F6E2054696D65205358
:10447000756363657373210D0A000D0A506C6561E5
:10448000736520656E746572206E756D626572204D
:10449000210D0A000D0A5365636F6E64206D7573FC
:1044A0007420626520696E2072616E6765205B30E2
:1044B0002C35395D20210D0A000D0A4D696E757489
:1044C00065206D75737420626520696E2072616E5F
:1044D0006765205B302C35395D20210D0A00706C3A
:1044E0006561736520656E74657220616761696ED0
:1044F000210D0A000D0A486F7572206D75737420C6
:10450000626520696E2072616E6765205B302C32B7
:10451000335D20210D0A000D0A506C656173652022
:10452000656E746572206E756D626572210D0A008C
:10453000202020200052554E0053544F5000544923
:104540004D455220434C4F434B204241434B00309A
:104550000020200020202053544F50205741544326
:10456000482020003E352E200020352E20003E34ED
:104570002E200020342E20003E332E200020332E0B
:1045800020003E322E200020312E20003A00203222
:104590002E20003E312E20003E4241434B00485524
:1045A0004D493A202020250054454D503A202020E6
:1045B00043005265636576696E6720646174612E9D
:1045C0002E0021444854230D0A00204241434B0051
:1045D0003E574541544845520020574541544845AF
:1045E00052003E474C4F42414C2054494D450055E6
:1045F00041525420746F206D6F6469667900506C6D
:104600006561736520636F6E6E6563740020474C4F
:104610004F42414C2054494D45003E54494D4520A0
:104620004D4F44494659002054494D45204D4F4473
:10463000494659003E54494D455220434C4F434B47
:10464000002054494D455220434C4F434B003E53AC
:10465000544F50205741544348005468616E6720BE
:10466000004E67617920004E616D20002053544F49
:1046700050205741544348003E4C554E4152204330
:10468000414C454E4441520020414C41524D204343
:104690004C4F434B00204C554E41522043414C451A
:1046A0004E444152003E414C41524D20434C4F43F9
:0246B0004B00BD
:0E46B200B06A810EAF6EAC8AAC94B886AC983C
:1046C000AB8EAB889E9A9D8A9F8A949C948E120092
:1046D00069D9040EE126DE6ADD6ADECF14F0DDCF93
:1046E00015F097D915501718E8AE02D0173404D03A
:1046F0001650145C175015581DE2020EDB6A030EAB
:10470000DB6A020EDBCF14F0030EDBCF15F0D8907E
:10471000155004E6EE0E145C000E155806E2020E6B
:10472000DB2A030EEEE3DB2AECD7DF2A010ED5E30A
:10473000DB2AD3D7040EE15C02E2E16AE552E16EC6
:1047400036D130D99EA8FED7FE0EDB50AD6E9E98B6
:104750002ED128D956D908E054D934D9FD0EDB2AF8
:10476000FE0EF8E3DB2AF6D722D11CD9050EE1268E
:10477000010EF36EDB6E020EDB6A030EDB6A040EC3
:10478000DB6ADF6ADFCF14F0156A14BE1568FB0E12
:10479000DBCF16F0FC0EDBCF17F015501718E8AE84
:1047A00002D0173404D01650145C175015581FE26D
:1047B000FD0EDBCF14F0FE0EDBCF15F0166A176A84
:1047C00015AE02D016681768D950010FE96EDACF1E
:1047D000EAFF14C00BF015C00CF016C00DF017C0A6
:1047E0000EF0F4D80EEC2AF0FAD8DF2ACBD7010E5F
:1047F000DBCF14F0020EDBCF15F0030EDBCF16F08B
:10480000040EDBCF17F014C006F015C007F016C079
:1048100008F017C009F0050EE15C02E2E16AE5521A
:10482000E16EC5D0BFD8020EE126DF6AFB0EDBCFFA
:1048300014F0FC0EDBCF15F0ECD814501510161048
:10484000171003E1300EBED86DD0B5D8D890030E46
:10485000EB50000A08E6000EEE5C000EEE58000E6B
:10486000EE58000EEE580EE22D0EACD8A4D8000E75
:10487000EE6CEF1EEE22EF1EEE22EF1EEF22ED5247
:10488000ED52ED52DE520A0EDD6E010EDBCF14F05A
:10489000000EE76E1418E8AE02D0143403D0E750CF
:1048A000D88014543FE2010EDB04186E196A18BE5A
:1048B000196871D861D806500710081009101EE059
:1048C000010EDF6EDB041C6E1D6A1CBE1D681CC061
:1048D000E6FF1DC0E6FFA4D806C018F007C019F017
:1048E00008C01AF009C01BF047D8A3D8300E142610
:1048F000000E152216221722145003D0DF5002E0BA
:10490000300E60D8010EDB04186E196A18BE1968E3
:1049100042D851D897D85AD846EC2AF060D8010E20
:10492000DB06B3D7020EE15C02E2E16AE552E16E1A
:104930003ED038D85DD80CE05BD844D8FD0EDBCF34
:10494000F6FFDB2AFE0EDBCFF7FFF4E3DB2AF2D71C
:104950002ED028D8E652AE50DF6E0F017851EA6AA9
:10496000010FE96E0F0EEA22DFCFEFFF78293F0B30
:10497000786F7A2BE5521BD065D8FB0EDBCF06F0A3
:10498000FC0EDBCF07F0FD0EDBCF08F0FE0EDBCF19
:1049900009F046EF2AF018C0E6FF19C0E6FF40D83C
:1049A00019EF25F0D9CFE6FFE1CFD9FF1200E5528C
:1049B000E7CFD9FF1200D950FB0FE96EFF0EDA20C6
:1049C000EA6E1200E66EBDDEE5521200EECF06F092
:1049D000EECF07F0EECF08F0EFCF09F0120005C0E0
:1049E000EDFF04C0EDFF03C0EDFF02C0EFFF1200BA
:1049F000FD0EDBCFF6FFFE0EDBCFF7FF0800F55014
:104A00001200FD0EDBCFE9FFFE0EDBCFEAFFEF5019
:104A10001200FD0EDBCF16F0FE0EDBCF17F01200FA
:104A20000A0EE66EE66AA1DEE552E552E552E5526F
:104A3000120006C014F007C015F008C016F009C037
:104A400017F0120006C00BF007C00CF008C00DF004
:064A500009C00EF0120087
:0A4A56000F0E946E82681200070E26
:104A60009410946EDF0E9414946E82681200D0D865
:104A700008D901E601D917E2DDD8826EF8D8D1D87D
:104A800001E6FAD80BE2B7D802E1FFD801D01DD970
:104A9000020EDB2A030EF3E3DB2AF1D7DF2A010E35
:104AA000E7E3DB2AE5D7040EE15C02E2E16AE552C6
:104AB000E16ED9D0ADD8DBD8010EDE6EDD6ABAD892
:104AC0008214826ED4D8ADD804E6030E145C000EB6
:104AD00015580BE290D802E1D8D801D0F6D8020ED2
:104AE000DB2A030EF0E3DB2AEED7040EE15C02E2E0
:104AF000E16AE552E16EB7D0A7D8010EEE1804E1E5
:104B0000ED5002E1010E01D0000EADD09DD8320E65
:104B1000EE1804E1ED5002E1010E01D0000EA3D029
:104B200077D8D7D8FD0EDBCF16F0FE0EDBCF17F00F
:104B300015501718E8AE02D0173404D01650145C84
:104B40001750155813E293D86CD804E6EE0E145C97
:104B5000000E155806E2020EDB2A030EF5E3DB2AEF
:104B6000F3D7DF2A010EDDE3DB2ADBD7040EE15C9D
:104B700002E2E16AE552E16E76D04AD882D801E6D7
:104B80007BD822E257D8826E72D84BD801E674D80F
:104B90000DE29BD830D804E11ED8010EEE6EED6A0E
:104BA000020EDB2A030EF1E3DB2AEFD78250816E7F
:104BB000E80EE66E030EE66EB3DFE552E552DF2A3D
:104BC000010EDCE3DB2ADAD7040EE15C02E2E16AE3
:104BD000E552E16E48D07DD8D89014361536D8907D
:104BE00014361536020EDB501424E96E030EDB502A
:104BF00015206EEF26F0020EDBCFE9FF030EDBCFB0
:104C0000EAFFF60EE926010EEA22EF5082141200A6
:104C1000D9CFE6FFE1CFD9FF040EE126DE6ADD6AD7
:104C20001200020EDBCF14F0030EDBCF15F0D8908C
:104C300015501200DECFE9FFDDCFEAFFF20EE926C4
:104C4000010EEA22EF1C1200D9CFE6FFE1CFD9FF17
:104C5000FE0EEA6ADB34FE0BEA36E96ED20EE92676
:104C6000010EEA221200E552E7CFD9FF1200020E30
:104C7000DB6A030EDB6A1200040E145C000E15588A
:104C8000120027D8D89015501200DECF18F0DDCFD3
:104C900019F0D89018361936D89018361936020EF1
:104CA000DB501824E96E030EDB50192017D8EECF25
:104CB00016F0EFCF17F0010E1626000E17228BDF2D
:104CC00016C0EEFF17C0EDFF120085DFEE6AED6A39
:104CD0001200DECF14F0DDCF15F01200EA6ED8908E
:0E4CE000E936EA36D20EE926010EEA2212006B
:024CEE00F1D8FB
:104CF000D59EFD0EDBCF00F2FE0EDBCF01F2D59C80
:104D000005D9D59AD586F28AF294F184D58EE6D06B
:104D1000D59E1200FBD8D58E1200DBD8CD90FD0EAB
:104D2000DBCF02F2FE0EDBCF03F2F7D89D809E9020
:104D30009F90CD8ECD8CCD98CD9ACD96CD92CD80B5
:104D4000CDD0EBD8CD801200CD901200C2D8CA943D
:104D5000CC6AFE0EDB500201046F056BCB6E9D82A8
:104D60009E929F92CA90CA92CA84B8D004C2CBFFC6
:104D7000CA841200CA941200ACD8B190FD0EDBCFE9
:104D800006F2FE0EDBCF07F2CFD80750B36ECCD8B9
:104D9000B5D8B26EA082A192A292B18EB198B19A0A
:104DA000B192B1809BD0C0D80350B26EBDD89ED80E
:104DB000B36EB1801200B19012000201102B000EF0
:104DC00011231851105D1951115904E3106B116B27
:104DD000010E086F12000201122B000E13231A514C
:104DE000125D1B51135904E3126B136B010E096F13
:104DF00012000201142B000E15231C51145D1D51CD
:104E0000155904E3146B156B010E0A6F12000201B1
:104E1000162B000E17231E51165D1F51175904E360
:104E2000166B176B010E0B6F120053D8FD0EDBCF04
:104E300018F2FE0EDBCF19F20201106B116B086B3A
:104E40004DD047D8FD0EDBCF1AF2FE0EDBCF1BF2A2
:104E5000050E0D6E0E6A1AC208F01BC209F03FEC77
:104E600029F008C01AF209C01BF20201126B136B81
:104E7000096B34D02ED8FD0EDBCF1EF2FE0EDBCF39
:104E80001FF20A0E0D6E0E6A1EC208F01FC209F054
:104E90003FEC29F008C01EF209C01FF20201166B98
:104EA000176B0B6B1BD01C6A1A50175C146E1B50CF
:104EB0001858156E1C501958166E0C6A010E0D6E9E
:104EC0000E6A14C007F015C008F016C009F065EFAF
:104ED00029F0D9CFE6FFE1CFD9FF1200E552E7CFA5
:104EE000D9FF120017681868196A120007C014F079
:104EF00008C015F009C016F00750120003C014F0E6
:104F000004C015F005C016F00350120014D8035069
:104F1000D66E11D8EBDFD76E120014D80750CF6EC3
:104F200011D8ECDFCE6E1200DDDF06C21AF007C228
:104F30001BF053EF27F0D6DF00C21AF001C21BF0BE
:104F400053EF27F0CFDF02C21AF003C21BF053EF7A
:024F500027F048
:0E4F5200BED8020EE126FE0EDB500F0BDF6E06
:104F6000FE0EDB380F0B0A0DBCD802E2E16AE552F7
:104F7000E16E1450B2D0ACD8020EE126BBD8055079
:104F8000DF6EB8D80950100DACD802E2E16AE552E4
:104F9000E16E1450A2D094869488C79EC79CC69098
:104FA000C692C694C686310EC86EC68A120090D8C4
:104FB0009E96FE0EDB50D00FC96E9EA6FED78DD0FA
:104FC0009E96C5809EA6FED712009E96C5849EA67C
:104FD000FED712007DD89E96FE0EDB50C96E9EA6AF
:104FE000FED77BD09E96C5869EA6FED7C9501200DE
:104FF0009E96C59AC5889EA6FED712009E96C58A23
:10500000C5889EA6FED7120063D87CD8010EFE6F1D
:10501000E85004E0C550400BFAE0F8D779D8010E0B
:10502000FE6FE85004E0C550400BFAE0F8D7FD0EE3
:10503000DBCFE6FFA0DFE552E66ECCDFE5520101F3
:10504000010EFE6FE85004E0C550400BFAE0F8D7BF
:10505000BCDF43D03DD8E65255D8010EFE6FE85074
:1050600004E0C550400BFAE0F8D752D8010EFE6FAD
:10507000E85004E0C550400BFAE0F8D7A1DF010E7C
:10508000E66E95DFE5520101010EFE6FE85004E087
:10509000C550400BFAE0F8D7A5DFDF6EDFCFE6FFA3
:1050A00058DFE552DF6EDF50E55217D011D8FD0E04
:1050B000DBCFE6FFFE0EDBCFE6FFA6DFE552E552D3
:1050C0000CD006D8FE0EDBCFE6FFC4DFE55205D0DC
:1050D000D9CFE6FFE1CFD9FF1200E552E7CFD9FFE4
:1050E0001200010EF3CFDBFFDB50DF24146E020E43
:1050F000E15C12000A0E146E0E6EFE0EDBCF09F09C
:10510000BBEF2AF05DDFE66A52DFE55201011200D3
:0E511000FE0EDBCFE6FF5EDFE552010112006E
:02511E00F28E0F
:10512000D08EF28C1200F19CF292F2881200D8CF4D
:10513000E4FFE0CFE4FFE46E65D800EE00F0140E6B
:10514000E80403E3EECFE4FFFBD700EE14F00A0E11
:10515000E80403E3EECFE4FFFBD7E652F2B47AD8DB
:105160009EB07FD8A1B284D8F2B2F2929EBA9E9A33
:10517000E55200EE1DF00A0EE80403E3E5CFEDFF73
:10518000FBD700EE13F0140EE80403E3E5CFEDFFC8
:10519000FBD74DD8E550E5CFE0FFE5CFD8FF1000B5
:1051A00031D800EE00F0140EE80403E3EECFE4FF84
:1051B000FBD700EE14F00A0EE80403E3EECFE4FFA1
:1051C000FBD7E652F2B446D89EB04BD8A1B250D825
:1051D000F2B2F2929EAA03D0A9EC24F09E9AE55274
:1051E00000EE1DF00A0EE80403E3E5CFEDFFFBD768
:1051F00000EE13F0140EE80403E3E5CFEDFFFBD758
:1052000016D81100DACFE4FFE2CFDAFFE9CFE4FFEE
:10521000EACFE4FFF6CFE4FFF7CFE4FFF5CFE4FFFA
:10522000F3CFE4FFF4CFE4FFFACFE4FF1200E5CFC1
:10523000FAFFE5CFF4FFE5CFF3FFE5CFF5FFE5CFCC
:10524000F7FFE5CFF6FFE5CFEAFFE5CFE9FFE5CFD2
:10525000DAFF120088EC26F0F2948AEC26F0DDEFFB
:1052600026F0A4EC26F09E90A1EC26F0EBEF26F0C1
:0E527000DBEC26F0A192D3EC26F007EF27F03E
:02527E00006AC4
:105280000EAE48EF29F00D6C0E1EE86A0E22001ECD
:1052900009AE50EF29F0086C091EE86A0922001EC9
:1052A00087EC2AF009BE60EF29F000AE000C086C14
:1052B000091EE86A0922046C051EE86A0522000C32
:1052C00000BE57EF29F00188FF0C006A0EAE70EFA8
:1052D00029F00C6C0D1E0E1EE86A0D220E22001E17
:1052E00009AE7AEF29F0076C081E091EE86A082249
:1052F0000922001E6AEC2AF009BE8DEF29F000AEEB
:10530000000C076C081E091EE86A08220922036CBB
:10531000041E051E04220522000C00BE81EF29F0A8
:105320000188FF0C09C013F008C012F008500D02EC
:10533000F4CF07F0F3CF06F009500E02F4CF09F0D6
:10534000F3CF08F00D02F3500726F4500822E86A64
:10535000092212500E02F3500726F4500822E86A80
:1053600009220EAEB8EF29F01250085E1350095A08
:0E53700013AE000C0D50085E0E50095A000CD2
:02537E001E0E01
:10538000F66E000EF76E000EF86E02010900F55081
:10539000256F0900F550266F03E1256701D03DD048
:1053A0000900F550206F0900F550216F0900F550F4
:1053B000226F09000900F550E96E0900F550EA6E08
:1053C000090009000900F550236F0900F550246F0A
:1053D00009000900F6CF27F2F7CF28F2F8CF29F21B
:1053E00020C2F6FF21C2F7FF22C2F8FF02012353B9
:1053F00002E1245307E00900F550EE6E2307F8E2BE
:105400002407F9D727C2F6FF28C2F7FF29C2F8FF01
:0C54100002012507000E265BBFD712002A
:04541C0006500B0229
:10542000F3CF02F0F4CF03F00C02F3500326000E8A
:10543000F420046E06500D02F3500426000EF420F2
:10544000056E06500E02F350052607500B02F3506E
:105450000326F4500422000E052207500C02F350DC
:105460000426F450052207500D02F350052608507B
:105470000B02F3500426F450052208500C02F3509E
:0C548000052609500B02F350052612000F
:04548C00056A046A3F
:10549000036A026A200EE76ED89006360736083691
:1054A000093602360336043605360B50025C0C50C2
:1054B00003580D5004580E50055809E30B50025E76
:1054C0000C50035A0D50045A0E50055A062AE72E66
:0454D000E4D712000B
:0C54D400056A046A036A180EE76ED8909F
:1054E0000736083609360336043605360C50035C99
:1054F0000D5004580E50055807E30C50035E0D5034
:0E550000045A0E50055A072AE72EEAD7120069
:02550E00056A2C
:10551000046A100EE76ED890083609360436053650
:105520000D50045C0E50055805E30D50045E0E50FE
:0A553000055A082AE72EF0D71200F2
:06553A00800EF36E00EE8E
:1055400000F00F0E01D81200EA6002D0EE6AFCD71C
:0A555000F350E9601200EE6AFCD788
:06555A001EEE00F02EEE33
:1055600000F0F86A019CBFEC29F007EC00F0A9EC10
:0655700016F0FBD712004B
:0A557600056A080EE76ED8900936AA
:1055800005360E50055C02E3056E092AE72EF7D7B3
:02559000120007
:0E55920000000000000000000000000000000B
:1055A00000000000000000000000010001000100F8
:0255B0000100F8
:0E55B200010000000000000000000032003286
:1055C000000700FFFFFFFF000000000000000000D8
:1055D00000000000010000000000000000000000CA
:1055E00000000000000101000100000000000000B8
:1055F00000390100871B2808481A6912891A8A1085
:10560000AB1ACC18EE100F1B30115119731B9403F9
:1056100032185412741A9510B61AD718F9121919AB
:105620003B135B197D1B21003D1A6110811AA312E7
:10563000C31AE41806132619481368198A1B2B008D
:105640004A1A4B106C188E12AE1ACF18F112111B99
:105650003211531B7419960B35185712771899107D
:10566000BA1ADB18FD121D1B4111611B821924029D
:10567000421864128418A610C71AC818EA120A1928
:045680002C134C1B80
:0C5684000000000000000000000000001A
:0656900000000000010013
:0A56960000000000000000001010EA
:1056A00010101010101018181818181818181C1CA2
:1056B0001C1C1C1C1C1C1E1E1E1E1E1E1E1E1F1F14
:1056C0001F1F1F1F1F1F0000000000000000000020
:1056D00000000000000000000000000000000000CA
:1056E00000000000000000000000000000000000BA
:0756F00000000000000000B3
:0956F700000000D000222222076D
:10570000250910000100000000000000000000005A
:02571000000097
:0E571200000000000000000000000000000089
:105720000000000000000000000000000000000079
:0A5730000000102040800102040870
:020000040030CA
:0100010002FC
:0100020003FA
:010003001EDE
:010005008179
:010006008178
:010008000FE8
:01000900C036
:01000A000FE6
:01000B00E014
:01000C000FE4
:01000D0040B2
:00000001FF
