:020000040000FA
:06000000ABEF1FF012003F
:020006001200E6
:06000800CEEF1DF0120016
:02000E000000F0
:0100100000EF
:0400110000000000EB
:0600180095EF1DF012003F
:02001E000800D8
:100020006C4000000001000028000000514000006A
:10003000E10000001B00000011000000650100004D
:1000400004000000F03F000080000000610000009C
:10005000DD3F00004801000013000000AE3F00003B
:10006000410F00002F0000008E3F0000280100001B
:10007000200000000E0000006901000003000000E5
:100080000F01415102E1010E421901E162D1080E56
:10009000411901E1425101E15AD1070E411901E133
:1000A000425101E126D1090E411901E1425101E11C
:1000B00011D1060E411901E1425101E109D1050EAC
:1000C000411901E1425101E1DBD0280E411901E162
:1000D000425101E1D2D0040E411901E1425101E146
:1000E000A1D01E0E411901E1425172E0030E4119E7
:1000F00001E1425147E0140E411901E1425137E05C
:10010000020E411901E1425115E0010E411901E1D0
:10011000425101E01200ADEC0CF0F5EC0FF004ECF4
:100120000BF001E331D1020EBAEC0AF0010E436F7D
:10013000446B1200A10EE66E300EF7EC0AF0920E40
:10014000E66E300EFCEC0AF002E249EC0BF004EC37
:100150000BF004E2140E0F01416F426B01EC0BF047
:1001600001E312D10F01416B010E426F1200A5ECA9
:100170000DF0F3EC0EF00F01675101E105D1676B53
:10018000020EFFD0020E43190BE1445109E1850E26
:10019000E66E300EF7EC0AF0760EE66E300E08D002
:1001A000760EE66E300EF7EC0AF0690EE66E300E53
:1001B000FCEC0AF002E24CEC0BF001EC0BF002E27A
:1001C0004FEC0BF004EC0BF001E3DED01E0ED8D0A8
:1001D000FCD80F01695101E0D8D8040E8AEC0AF06E
:1001E00004E01BEC0BF0010E696F050E8AEC0AF0BF
:1001F00002E00F01696B050EE66E84EC1AF0E55221
:10020000000903E00F01BFEC0AF0060E8AEC0AF0C9
:1002100001E1BAD00F01696BBFEC0AF00F01676B07
:10022000030EAFD0030E43190BE1445109E1920EC6
:10023000E66E300EF7EC0AF05C0EE66E300E08D07B
:100240005C0EE66E300EF7EC0AF04F0EE66E300EE6
:10025000FCEC0AF004E250EC0AF0F0EC0AF001ECDD
:100260000BF002E249EC0BF004EC0BF001E38CD054
:10027000280EBAEC0AF0496B1200E6D8AEEF02F095
:10028000040E43190BE1445109E1690EE66E300E8C
:10029000F7EC0AF0420EE66E300E08D0420EE66E23
:1002A000300EF7EC0AF0360EE66E300EFCEC0AF07B
:1002B00002E252EC0BF001EC0BF002E24CEC0BF022
:1002C00004EC0BF061E20F01456B466B060E59D052
:1002D000A6EF06F0250EE66E300EF7EC0AF0160ECD
:1002E000E66E300E60EC0BF06BDA04EC0BF04CE2D7
:1002F00046D0050E43190BE1445109E14F0EE66E5D
:10030000300EF7EC0AF00A0EE66E300E08D00A0E38
:10031000E66E300EF7EC0AF0040EE66E300EFCECE2
:100320000AF006E250EC0AF00F01416B010E426F39
:1003300001EC0BF004E250EC0AF0F0EC0AF004ECF3
:100340000BF022E2080EBAEC0AF0B0EF08F045EF2D
:1003500007F0360EE66E300EF7EC0AF024EC0BF0E8
:1003600001EC0BF002E252EC0BF067EC0BF002E256
:100370004FEC0BF004EC0BF007E250EC0AF0010E2E
:100380000F01416F426B1200120069EC0AF0ACECF5
:100390000AF002E11550621908E03B0E5F190AE10C
:1003A000605108E16151621105E16C2B61CF5FFF83
:1003B00062CF60FF3C0E6C5D02E36C6B6B2B3C0EFE
:1003C0006B5D02E36B6B6A2B1200EE0EE66E2F0E76
:1003D000F7EC0AF03EEC0BF00A0E0F016A5D09E241
:1003E00099EC0AF0040EFFEC0AF029EC0BF0050E74
:1003F00003D029EC0BF0040E6AEC0BF00F016B5DDF
:1004000009E299EC0AF0070EFFEC0AF030EC0BF071
:10041000080E03D030EC0BF0070E55EC0BF0090E74
:10042000FFEC0AF00A0E0F016C5D09E299EC0AF08C
:100430000A0EFFEC0AF037EC0BF00B0E03D037EC92
:100440000BF00A0E4CEF0AF0D60EE66E2F0EF7EC0C
:100450000AF03EEC0BF00F015E5104E0D10EE66EA7
:100460002F0E03D0CD0EE66E2F0EE66E0C0EFFECB7
:100470000AF00A0E0F0158AF02D0D89003D0575D92
:10048000000E585913E299EC0AF0010EE66EE66E82
:10049000F2EC09F0C6EC0AF015AE02D01668176847
:1004A00007EC0BF0020EE66E010E0AD0C6EC0AF065
:1004B00015AE02D01668176807EC0BF0010EE66E59
:1004C00041EC0BF0B5EC0AF0030EFFEC0AF00A0E5B
:1004D0000F015AAF02D0D89003D0595D000E5A597F
:1004E0000FE299EC0AF0040EFFEC0AF0CDEC0AF0F2
:1004F00015AE02D01668176807EC0BF0050E09D090
:10050000CDEC0AF015AE02D01668176807EC0BF0B8
:10051000040E6AEC0BF00F015CAF02D0D89003D050
:100520005B5D000E5C590FE299EC0AF0070EFFECE0
:100530000AF0D4EC0AF015AE02D01668176807EC82
:100540000BF0080E09D0D4EC0AF015AE02D01668F4
:10055000176807EC0BF0070E4CEF0AF00F0149513A
:10056000040A01E1F7D0070A01E18DD0010A5FE03A
:10057000030A31E0010A01E0120017EC0AF007E279
:10058000A2EC0AF0010EE66EE66EF2EC09F001EC68
:100590000BF00DE20F01572B000E5823583507E2E0
:1005A00057511708000E585502E2576B586B67EC0D
:1005B0000BF00AE20F015707000E585B800E58152A
:1005C00003E0170E576F586B04EC0BF001E3E2D019
:1005D0000F01010EBDD017EC0AF005E2A2EC0AF003
:1005E000040EFFEC0AF001EC0BF00DE20F01592BA9
:1005F000000E5A235A3507E259513B08000E5A554E
:1006000002E2596B5A6B67EC0BF00AE20F015907D3
:10061000000E5A5B800E5A1503E03B0E596F5A6B61
:1006200004EC0BF001E3B6D00F01020E91D017ECF1
:100630000AF005E2A2EC0AF0070EFFEC0AF001EC6A
:100640000BF00DE20F015B2B000E5C235C3507E223
:100650005B513B08000E5C5502E25B6B5C6B67EC28
:100660000BF00AE20F015B07000E5C5B800E5C156D
:1006700003E03B0E5B6F5C6B04EC0BF001E38AD094
:100680000F01030E65D001EC0BF005E20F01010E26
:100690005E6F1BEC0BF067EC0BF002E20F015E6B80
:1006A0000F015E513AE069EC0AF0ACEC0AF002E1AD
:1006B0001550621908E03B0E5F192FE160512DE1E2
:1006C000615162112AE161CF5FFF62CF60FF5C354B
:1006D00009E25B510008000E5C5504E25B07000E66
:1006E0005C5B1BD05B515C1118E159515A1107E05A
:1006F0003B0E5B6F5C6B5907000E5A5B0ED0595175
:100700005A110BE15751581108E05707000E585B7A
:100710003B0E596F5A6B5B6F5C6B5751581107E179
:1007200059515A1104E15B515C1101E15E6B5E515C
:1007300009E117EC0AF006E2DBEC0AF0010EE66EC6
:10074000F2EC09F004EC0BF025E20F015E6B040EF5
:10075000496F120017EC0AF005E2DBEC0AF0E66ADA
:10076000F2EC09F0040E8AEC0AF004E1050E8AECC2
:100770000AF002E00F010CD004EC0BF00BE2040EC7
:10078000BAEC0AF0576B586B596B5A6B5B6B5C6B2E
:10079000496B1200120094EC0AF0E65201016A5112
:1007A000EA6A010FE96E0F0EEA22EFCFDFFF6A2936
:1007B0003F0B6A6FDF50E55290EF0AF0E2EF0AF06C
:1007C000010E0F016E1901E16F5101E012000101EC
:1007D0006B51000804E204D801016B0712001200FB
:1007E00094EC0AF0E652D7DFDF6EDFCFE6FF9FEC36
:1007F00018F0E552630E0F01631901E1645101E144
:10080000E4D0690E631901E1645101E1C0D0680EC2
:10081000631901E1645101E1ABD0670E631901E195
:10082000645101E190D0660E631901E1645101E168
:100830007FD0650E631901E1645165E0640E6319B0
:1008400001E1645155E00E0E631901E1645144E089
:100850000C0E631901E1645136E00B0E631901E1DE
:10086000645128E00A0E631901E164511AE0020E96
:10087000631901E164510CE0010E631901E0CDD070
:10088000645101E0CAD0210EDF5C01E0C6D02CD05B
:10089000540EDF5C02E10A0EBED0210EDF5C26E1C1
:1008A00023D0490EDF5C02E10B0EB5D0210EDF5CD8
:1008B0001DE11AD04D0EDF5C02E10C0EACD0210E12
:1008C000DF5C14E111D0450EDF5C02E10E0EA3D017
:1008D000210EDF5C0BE108D03A0EDF5C02E1640E12
:1008E0009AD0210EDF5C02E1020E95D0010E93D06A
:1008F00026EC0AF001E1531D46E071EC0AF006C057
:1009000072FF650E87D026EC0AF001E1531D3BE033
:1009100052510F017227170EE66EE66A725158ECBB
:100920000BF002E0660E76D08C0EE66E2F0E43D0F2
:1009300026EC0AF001E1531D26E071EC0AF006C036
:1009400073FF670E67D026EC0AF001E1531D1BE030
:1009500052510F0173273B0EE66EE66A735158EC55
:100960000BF002E0680E56D0510EE66E2F0E23D02B
:1009700026EC0AF001E1531D06E071EC0AF006C016
:1009800074FF690E47D0AF0EE66E2F0E40D026ECF6
:100990000AF001E1531D15E052510F0174273B0E7F
:1009A000E66EE66A745158EC0BF002E0630E32D04A
:1009B0002C0EE66E2F0E11EC0AF0760EE66E2F0E60
:1009C00026D0120EE66E2F0E22D0230EDF5C1AE127
:1009D000010E636F646B72CFE6FF020E46EC0AF005
:1009E00073CFE6FF010E46EC0AF074CFE6FFE66A2D
:1009F00002EC1DF0E552E552F20EE66E2E0E11EC01
:100A00000AF00BD0DA0EE66E2E0E0BEC0BF011ECAA
:100A10000AF0010E0F01636F646B630E0F0165191D
:100A200001E1665101E16BD1740E651901E1665176
:100A300001E13DD1760E651901E1665101E1D1D0A8
:100A4000750E651901E1665101E1BDD0730E65199E
:100A500001E1665101E191D0720E651901E1665123
:100A600001E17AD06F0E651901E1665167E06E0E03
:100A7000651901E1665155E06D0E651901E1665198
:100A800044E06C0E651901E1665136E06B0E6519A4
:100A900001E1665128E06A0E651901E166511AE02C
:100AA000020E651901E166510CE0010E651901E0C5
:100AB0004BD1665101E048D1210EDF5C01E044D109
:100AC0002CD0440EDF5C02E16A0E16D1210EDF5CF1
:100AD00026E123D0410EDF5C02E16B0E0DD1210E29
:100AE000DF5C1DE11AD0540EDF5C02E16C0E04D114
:100AF000210EDF5C14E111D0450EDF5C02E16D0ECA
:100B0000FBD0210EDF5C0BE108D03A0EDF5C02E186
:100B10006E0EF2D0210EDF5C02E1020EEDD0010E6E
:100B2000EBD006EC0AF001E1551D23E07AEC0AF067
:100B300006C077FF07C078FF6F0EDDD006EC0AF025
:100B400001E1551D16E054510F0177270F01555152
:100B50000F017823720ECFD006EC0AF001E1551D8B
:100B600008E07AEC0AF006C079FF07C07AFF730E3E
:100B7000C2D0AF0EE66E2F0EBCD006EC0AF001E13B
:100B8000551D01E1B3D054510F0179270F01555183
:100B90000F017A230C0EE66EE66A79CFE6FF7ACF74
:100BA000E6FF38EC0AF006E00F0179517A1102E015
:100BB000750EA1D0800EE66E2E0E11EC0AF0760EA8
:100BC000E66E2F0E96D006EC0AF001E1551D01E10C
:100BD0008DD07AEC0AF006C07BFF07C07CFF760E52
:100BE0008AD006EC0AF001E1551D01E17FD0545195
:100BF0000F017B270F0155510F017C237B517C1185
:100C000004E16A0EE66E2E0E93D03FEC0AF0F3502C
:100C1000F4100CE10F017C3509E27B511E08000E37
:100C20007C5504E2480EE66E2E0E5BD03FEC0AF0D7
:100C3000010EF3180EE115500CE10F017C3509E2AD
:100C40007B511F08000E7C5504E2100EE66E2E0E3E
:100C500048D03FEC0AF0020EF31811E115500FE1F5
:100C600055EC0AF00CE10F017C3509E27B511D08BF
:100C7000000E7C5504E2EE0EE66E2D0E32D03FECF7
:100C80000AF0020EF31811E115500FE155EC0AF0CD
:100C90000CE00F017C3509E27B511C08000E7C55ED
:100CA00004E2CC0EE66E2D0E1CD0740E24D0AEDB0A
:100CB00001E1551D1BE054CF7DFF55CF7EFF070E90
:100CC000E66EE66A54CFE6FF55CFE6FFD1DB06E0DD
:100CD0000F017D517E1102E0630E0DD0AA0EE66E6B
:100CE0002D0E9FDB320EE66E2E0E03D0120EE66E38
:100CF0002F0E97DB010E0F01656F666B25D0230E5B
:100D0000DF5C18E1010E656F666B77CFE6FF060EBC
:100D1000BDDB79CFE6FF050EB9DB7BCFE6FF040E26
:100D2000B5DB7DCFE6FF030EB1DB8A0EE66E2D0E3E
:100D300078DB0AD06B0EE66E2D0E0BEC0BF071DB40
:100D4000010E0F01636F646BE552EAD30F01455149
:100D500002E1010E461901E180D0030E451901E1BF
:100D600046516DE0010E451901E1465141E0455102
:100D700001E1465101E01200610EE66E2D0EF7EC26
:100D80000AF0550EE66E2D0E60EC0BF004EC0BF045
:100D90001EE22D0EE66E2D0E44DBFC0EE66E2C0ED2
:100DA00040DBEC0EE66E2C0E3CDBCA0EE66E2C0E23
:100DB00038DB990EE66E2C0E34DB880EE66E2C0EB8
:100DC00030DBE2EC0AF0090E0F01416F426B67EC79
:100DD0000BF006E2010E0F01456F466B476B486B47
:100DE00001EC0BF051E20F01456B010E466F120052
:100DF0004751481109E07C0EE66E2C0EF7EC0AF024
:100E0000040EE66E300E07D0720EE66E2C0EEFDB8F
:100E10007C0EE66E2C0EF0DB04E20F01456B010E3A
:100E2000466FEFDB03E20F01456B466BEDDB2CE217
:100E3000030E0F01456F466B010E566F1200ADECAD
:100E40000CF0E3EC0DF00F0168511EE0456B466BB2
:100E5000686B050E416F426B1200550EE66E2D0E4B
:100E6000C6DBF2DBD1DB01E2BBDB67EC0BF003E2BC
:100E70000F01456B466BC5DB07E2010E0F01456FA5
:100E8000466B476F486B120012000F014A5102E196
:100E9000010E4B1901E1F2D0370E4A1901E14B5115
:100EA00001E1C3D0360E4A1901E14B5101E199D05D
:100EB000350E4A1901E14B516EE0340E4A1901E139
:100EC0004B5145E0330E4A1901E14B511CE0320E03
:100ED0004A1901E14B5101E01200610EE66E2C0E41
:100EE00086DB500EE66E2C0E87DB05E2320E26DB2B
:100EF000330E4A6F4B6B85DB04E20F014A6B010E28
:100F00004B6F090EB5D0320E4C190AE14D5108E174
:100F10003F0EE66E2C0E6BDB2E0EE66E2C0E07D00F
:100F20002E0EE66E2C0E63DB1D0EE66E2C0E64DBC1
:100F300005E2330E03DB340E4A6F4B6B62DB05E2D6
:100F4000330EFCDA320E4A6F4B6B080E91D0330E23
:100F50004C190AE14D5108E1500EE66E2C0E47DBAC
:100F60000C0EE66E2C0E07D00C0EE66E2C0E3FDB40
:100F7000FB0EE66E2B0E40DB05E2340EDFDA350E9B
:100F80004A6F4B6B3EDB05E2340ED8DA330E4A6F04
:100F90004B6B010E6DD0340E4C190AE14D5108E136
:100FA0001D0EE66E2C0E23DBEA0EE66E2B0E07D02E
:100FB000EA0EE66E2B0E1BDBD90EE66E2B0E1CDB4B
:100FC00005E2350EBBDA360E4A6F4B6B1ADB05E2D3
:100FD000350EB4DA340E4A6F4B6BFB0EE66EE668E4
:100FE00049D0350E4C190AE14D5108E1FB0EE66E71
:100FF0002B0EFDDAC80EE66E2B0E07D0C80EE66E7D
:101000002B0EF5DAB70EE66E2B0EF6DA05E2360E8B
:1010100095DA370E4A6F4B6BF4DA05E2360E8EDA4C
:10102000350E4A6F4B6B000E23D0360E4C190AE179
:101030004D5108E1D90EE66E2B0ED9DAA80EE66EF8
:101040002B0E07D0A80EE66E2B0ED1DAA20EE66E9E
:101050002B0ED2DA05E2370E71DA4A6B010E4B6FB6
:10106000D0DA05E2370E6ADA360E4A6F4B6B070E9E
:10107000E66EE66A19D8E552E5521200930EE66E66
:101080002B0EB5DA8D0EE66E2B0E1ADBBADA02E203
:10109000370E9FDA1CDB02E2320E9BDAB5DA03E28E
:1010A000070EBAEF0AF012003FDAAEDA52E250CF82
:1010B00014F051CF15F0FD0EDB50141803E1FE0EB5
:1010C000DB50151846E0FD0EDBCF08F0FE0EDBCF3F
:1010D00009F00F015051085C4E6F515109584F6F84
:1010E000FD0EDBCF50FFFE0EDBCF51FF020E2FDADD
:1010F0000F01706F716BE8500F014E250F01706F7B
:1011000071510F014F210F01716F800E711508E0B1
:10111000180E7025706F000E7121716FE66A0DD088
:1011200071350DE270511708000E715508E2180E66
:10113000705F000E715B010EE66EA2D8E55270CFB3
:10114000E6FF020EA3D9010E15DA380E4A6F4B6B7B
:1011500006D05ADA04E2010E0F01416F426BE0D172
:10116000070E0F01501901E1515124E0505101E1E6
:1011700051511EE0FB0E501902E1E868511916E0CA
:10118000010E501901E151510FE0080E501901E113
:10119000515108E0090E501901E1515101E01200CE
:1011A000320E09D0330E07D0340E05D0350E03D0E1
:1011B000360E01D0370E4A6F4B6B1200B5D9300E88
:1011C000F36EFE0EDBCFF4FFF350F45C0CE3FE0E87
:1011D000DB50390808E3FE0EDB50D00F156AF36EC2
:1011E00015C0F4FF02D0F368F4689AD19DD9FD0EC2
:1011F000DBCF14F0FE0EDBCF15F0FB0EDBCF16F0CD
:10120000FC0EDBCF17F017501518E8AE02D01534DE
:1012100004D01450165C1550175802E2F36A02D03D
:10122000010EF36EF46A7CD17FD9E150FD0FE96EB7
:10123000FF0EDA20EA6E020EEE1804E1ED5002E134
:10124000020E1BD060D9040EEE1801E1ED5012E041
:101250005AD9060EEE1801E1ED500CE054D9090EF2
:10126000EE1801E1ED5006E04ED90B0EEE1804E148
:10127000ED5002E1F36A02D0010EF36EF46A50D130
:1012800053D9040EE12663D9DF6E030E60D9E76EF1
:10129000010EE7CFDBFF050E5AD9E76E020EE7CF4E
:1012A000DBFF060E54D9E76E030EE7CFDBFFFE0E21
:1012B000DB5039E1DF06010EDB06F36EDBCFF4FF16
:1012C000E850F45C03E2DE52070EDD6E010EDF5CD7
:1012D0006DE2020EDB0407E11F0EDF6E0C0E82D9F9
:1012E000030EDB0663D08BD8F350F41004E1020E3A
:1012F000DB061F0E5AD0E0D90AE1155008E1020EB4
:10130000DB50030804E0010E6DD91E0E4ED0D4D977
:101310004DE115504BE1030EDB50030B02E11D0EB6
:1013200044D01C0E42D0DF2A010EDB2ADB50070816
:1013300003E2DE52010EDD6E020EDB500C080AE104
:10134000DF501F0807E2010E4DD9010EDF6E030EBC
:10135000DB2A2CD054D8F350F41003E1DF501E08E0
:1013600021E3AAD905E1155003E1DF501F081AE374
:1013700046D8020EF31809E1155007E1030EDB50C1
:10138000030B03E1DF501D080DE339D8020EF318FB
:101390000DE115500BE1030EDB50030B07E0DF50AE
:1013A0001C0804E2020EDB2A010EDF6EDFCFE6FF2F
:1013B000040E6CD8010EDBCFE6FF030E67D8020ED9
:1013C000DBCFE6FF050E62D8030EDBCFE6FF060E8D
:1013D0005DD8146E040EE15C02E2E16AE552E16E52
:1013E00014509ED001EC14F0E552E552E552E5525E
:1013F0001200E66E7AEC1AF0E55200081200020EB6
:10140000DBCFE6FFE66A10DF14EF0BF0DFCFE6FF7D
:10141000D5DEE552F3CF54FFF4CF55FF0F01F31C97
:101420001200E66E97EC19F0E552E55212005D29C4
:10143000146E140E156E0E6E14C009F0B9EC1FF088
:1014400005C05DFF0F0105500F081200DFCFE6FF5A
:10145000B5DEE552F3CF52FFF4CF53FF0F01F31C7B
:10146000120015C0E6FF16C0E6FF17C0E6FF120027
:10147000BDDEE552E552D8D8F350F410120079CF12
:10148000E6FF7ACFE6FFD0DE14EF0BF0E66E54EC09
:101490001DF0E552E5521200E66E010E41EF0BF031
:1014A00041CF43FF42CF44FF120077CF16F078CFF1
:1014B00017F0040E0D6E0E6A77CF08F078CF09F0A2
:1014C0003DEC1EF004C016F005C017F004500510E6
:1014D0001200E66A5FEC1DF0E5520F01616F626B6E
:1014E00012000A0E086E096A52CF0DF053CF0EF0AB
:1014F00090EF1EF00A0E086E096A54CF0DF055CF1A
:101500000EF090EF1EF0D950FD0FE96EFF0EDA20BD
:10151000EA6E1200E66E7AEC1AF0E552000912004B
:10152000E552E7CFD9FF1200D9CFE6FFE1CFD9FFCF
:101530001200E90EE66E2F0EE66E12000F014C6FE0
:101540004D6B1200EB0EE66E2F0EE66E1200E66E8D
:101550005FEC1DF0E5521200010E156A5F25146E56
:1015600060511522145061191200E70EE66E2F0E1D
:10157000E66E1200A8D0156A166A176A12006A6B26
:101580006B6B6C6B6D6B0F017F6B120057CF14F0A0
:1015900058CF15F0166A176A120059CF14F05ACFB7
:1015A00015F0166A176A12005BCF14F05CCF15F0C5
:1015B000166A176A1200C80EE66E2F0EE66E0C0E43
:1015C000E66E12000101696B01016A6B01016B6B30
:1015D00012000F014A6F4B6B4C6B010E4D6F1200E6
:1015E000050E71D0F36E020EF3CFDBFF1200E66E34
:1015F000E66AE66AF2EF09F063D867EF0BF0E66E91
:101600006ED0040EF9EF09F0060EF9EF09F014C0E0
:10161000E6FF31EF0AF005DFBD0EE66E2E0E01DFAC
:10162000A40EE66E2E0E1200E552E552F3CF14F032
:10163000F4CF15F01200E66A5FEC1DF0E5520F01E1
:101640005F6F606B69EF0AF0FE0EE66E2F0E60EFC3
:101650000BF06ACF14F08FDF6ACFE6FF31EF0AF0AC
:101660006BCF14F088DF6BCFE6FF31EF0AF06CCF61
:1016700014F081DF6CCFE6FF31EF0AF063DFE66A3A
:101680002ED0E66EB3EC13F0186E060EE15E185025
:10169000120006DF030E17D003DF040E14D000DFA4
:1016A000020E11D0FDDE070E0ED0F6DEB5EF0AF009
:1016B000E66EE66A38EF0AF0A2DE010EF3181200B9
:1016C000E66EE66A0CD00F01416F426B1200050E08
:1016D000F9EF09F0EADF060E92DF0A0E1200010EA2
:0616E000E66EF2EF09F0D6
:0A16E600D9CFE6FFE1CFD9FF020ED5
:1016F000E126DE6ADD6A6CD829EC12F00AEC13F000
:10170000CAD8A0EC10F07F0EE66E2B0EE66E060E29
:10171000E66EE66AEBEC12F0E552E552E552E55270
:10172000D00EE66E070EE66E0FD8E552E5520101C7
:101730003351FDE0336B0AEC13F058EC1AF040EC37
:1017400000F032EC13F0F3D7D9CFE6FFE1CFD9FFA9
:10175000040EE126DE6ADD6ADECF14F0DDCF15F07F
:10176000FD0EDBCF16F0FE0EDBCF17F0155017186D
:10177000E8AE02D0173404D01650145C1750155838
:101780001DE2020EDB6A030EDB6A020EDBCF14F0F1
:10179000030EDBCF15F0D890155004E6EE0E145C66
:1017A000000E155806E2020EDB2A030EEEE3DB2ADA
:1017B000ECD7DF2A010ED0E3DB2ACED7040EE15CA2
:1017C00002E2E16AE552E16EE552E7CFD9FF12008D
:1017D000936A956AA3EC11F08DEC1DF0A0EC10F06B
:1017E000570EE66E120EE66E75EC1BF0E552E552F2
:1017F000AE0EE66E240EE66E8BEC1BF0E552E55263
:10180000660EE66EB70EE66EBAEC1BF0E552E552D8
:10181000020EE66EE66A13EC1CF0E552E5520A0E83
:10182000E66EE66A1FEC1CF0E552E5520A0EE66E23
:10183000E66A38EC1CF0E552E5522DEC1AF0C9ECE2
:101840001CF057EF18F00101370E486F3B0E496F3F
:10185000170E4A6F070E4B6F1F0E4C6F0C0E4D6F1D
:101860000D0E4E6F48C1E6FFE66A54EC1DF0E552DE
:10187000E55249C1E6FF010E4FEC10F04AC1E6FF08
:10188000020E4FEC10F03AEC11F03FEC11F044EC8A
:1018900011F049EF11F0200EE5EC10F0220815E0F0
:1018A000D2DFE66A100E4FEC10F0E66A110E4FEC34
:1018B00010F0E66A120E4FEC10F0E66A130E4FECD1
:1018C00010F0220EE66E200EEADB1200100EE5ECA0
:1018D00010F00101526F110EE5EC10F00101536F91
:1018E000120EE5EC10F00101546F130EE5EC10F050
:1018F0000101586F1200E7DB146E8DEC10F0E66EFC
:10190000D4DBE66AE66AD8DB4DC114F08DEC10F04A
:101910004DC1E6FFCADB030E1BEC11F003EC11F026
:10192000060E1BEC11F04BC114F08DEC10F04BC106
:10193000E6FFBBDB090E1BEC11F0EEEC10F0E66AE3
:10194000010EE66EB9DBF5EC10F0030E1FEC11F0A2
:10195000FCEC10F0060E1FEF11F0B5DB4B51070A3F
:1019600024E0010A1EE0030A18E0010A12E0070A57
:101970000CE0010A06E0030A1EE17B0EE66E2B0E68
:1019800017D0770EE66E2B0E13D0730EE66E2B0E6D
:101990000FD06F0EE66E2B0E0BD06B0EE66E2B0E7D
:1019A00007D0670EE66E2B0E03D0630EE66E2B0E8D
:1019B000E66E51EC11F00A0E01014A5D08E2B6DB59
:1019C000040EEAEC10F0EEEC10F0050E03D0EEEC95
:1019D00010F0040E1BEC11F0E6DB060EEAEC10F042
:1019E0000A0E0101495D08E2A1DB070EEAEC10F0E6
:1019F000F5EC10F0080E03D0F5EC10F0070E1BEC20
:101A000011F0D1DB090EE6DB0A0E0101485D07E2A9
:101A10008DDB0A0EDFDBFCEC10F00B0E02D0ECDBF2
:101A20000A0E1BEC11F001015451010A06E0010AF3
:101A30000AE15B0EE66E2B0E03D0570EE66E2B0E00
:101A4000E66E0D0EC7DB0F01565106E0530EE66E33
:101A50002B0EE66E0D0EBEDB01014D510C0A42E06D
:101A6000070A3CE0010A36E0030A30E0010A2AE0F6
:101A70000F0A24E0010A1EE0030A18E0010A12E03E
:101A8000070A0CE0010A06E0030A32E14F0EE66E97
:101A90002B0E2BD04B0EE66E2B0E27D0470EE66E8C
:101AA0002B0E23D0430EE66E2B0E1FD03F0EE66E9C
:101AB0002B0E1BD03B0EE66E2B0E17D0370EE66EAC
:101AC0002B0E13D0330EE66E2B0E0FD02F0EE66EBC
:101AD0002B0E0BD02B0EE66E2B0E07D0270EE66ECC
:101AE0002B0E03D0230EE66E2B0EE66E020E6ADB83
:101AF0005FDB050E67DB0A0E01014C5D06E258DB79
:101B0000060E60DB80DB070E02D07DDB060E97DB66
:101B10004FDB080E57DB140EE66EE66AE66AE66AED
:101B2000090EF7DA24DB0A0E01014E5D0AE2E66ACD
:101B3000E66AE66AE66A0B0EECDA19DB86DB0C0E67
:101B400002D083DB0B0E1FEF11F0100EE66E2B0E92
:101B5000E66EA7DBE6DAE66A010EE66E93DA0A0EB7
:101B60000101525D06E2E2DA020E2CDB75DB030EA8
:101B700002D072DB020E63DB16DB040E23DB0A0EDF
:101B80000101535D06E2D2DA050E1CDB6CDB060EAA
:101B900002D069DB050E53DBCEDA070E13DB010141
:101BA0005451010A06E0010A0AE15B0EE66E2B0EB3
:101BB00003D0570EE66E2B0EE66E0A0E03DBBBDA81
:101BC0000D0EE2EF10F001015051FF0A01E1F6D0D5
:101BD000F40A01E1D0D0010A01E1AAD0030A01E12F
:101BE00084D0010A5FE00F0A36E0010A0DE0060A20
:101BF00001E012001ADB01E1F5D00101590501E015
:101C0000F1D0060E506F120049DB03E28ADA040EAF
:101C1000E1DA0EDB09E001014A299BDA05C04AF14D
:101C200005C0E6FF020E3BDA0DDB0CE001014A05C0
:101C30004A6FE850170802E2170E4A6F4AC1E6FFE2
:101C4000020E2DDAF2DA03E00101070E506F5ADAC4
:101C500001E1C8D0B0D022DB03E263DA070EBADAC2
:101C6000E7DA09E00101492978DA05C049F105C040
:101C7000E6FF010E14DAE6DA0CE001014905496FCE
:101C8000E8503B0802E23B0E496F49C1E6FF010EF6
:101C900006DACBDA03E00101080E506F33DA01E116
:101CA000A1D089D0FBDA02E246DAFBDAC1DA09E038
:101CB00001014B294B6FE850070802E2010E4B6F00
:101CC000D9DAC0DA09E001014B054B6FE85007088B
:101CD00002E2070E4B6FCEDAA8DA03E00101090E2B
:101CE000506F10DA01E17ED066D0D8DA03E219DA5B
:101CF000060E68DA9DDA09E001014C294C6FE850C4
:101D00001F0802E2010E4C6FBADA9CDA09E0010109
:101D10004C054C6F010E4C5D02E21F0E4C6FAFDAAA
:101D200084DA03E001010A0E506FECD95BE043D086
:101D3000B5DA03E200DA020E45DA7ADA09E00101E7
:101D40004D294D6FE8500C0802E2010E4D6F9CDAF0
:101D500079DA09E001014D054D6F010E4D5D02E29A
:101D60000C0E4D6F91DA61DA03E001010B0E506F3A
:101D7000C9D938E020D092DA03E21FDA090E22DA5C
:101D800057DA08E001014E294E6FE850630801E27E
:101D90004E6B7FDA57DA09E001014E054E6F630E94
:101DA0004E5D02E2630E4E6F74DA3FDA02E0D9D97B
:101DB0005069A8D917E0D5D9506B1200596BCDDD09
:101DC000010156D903E2F9D90C0E04DA2EDA05E046
:101DD000D5D90F01686F0F01566B2ADA02E132DAAA
:101DE00001E0CCD9120001014F51FF0A01E184D07A
:101DF000FC0A5DE0010A35E0030A0DE0010A01E09A
:101E0000120013DA01E187D00101590501E083D006
:101E1000010E4F6F1200FED903E283D9020ED2D910
:101E200007DA09E00101522994D905C052F105C031
:101E3000E6FF100E34D906DA0CE001015205526FAC
:101E4000E850170802E2170E526F52C1E6FF100E5B
:101E500026D9EBD903E00101020E4F6F53D95BE0A5
:101E600048D0D8D903E25DD9050EACD9E1D909E053
:101E70000101532972D905C053F105C0E6FF110EC7
:101E80000ED9E0D90CE001015305536FE8503B082F
:101E900002E23B0E536F53C1E6FF110E00D9C5D9C4
:101EA00003E00101030E4F6F2DD935E022D0B2D9E6
:101EB00003E241D90A0E86D9BBD907E001015429B2
:101EC000010B546FE66E120EEAD8BCD90CE001018A
:101ED0005405546FE850010802E2010E546F54C1DA
:101EE000E6FF120EDCD8A1D902E001014F690AD940
:101EF00012E037D94F6B12008DD903E25ED90A0E7A
:101F000069D996D902E19ED901E03FD98ED903E083
:101F10003CD90F01676F12000101010E081903E19E
:101F2000095101E1010C000C01010A0E081903E13D
:101F3000095101E1010C000C0101010E101903E12E
:101F4000115101E1010C000C01010A0E101903E10D
:101F5000115101E1010C000C0101010E0A1901E10E
:101F60000B5115E00A0ED8800A55000E0B5510E2F1
:101F70000AC114F00BC115F0030E0D6E0E6A0AC1F2
:101F800008F00BC109F008D903E1155001E1010C7B
:101F9000000C0101010E121901E1135115E00A0EA6
:101FA000D8801255000E135510E212C114F013C15F
:101FB00015F0030E0D6E0E6A12C108F013C109F080
:101FC000EBD803E1155001E1010C000C0101525165
:101FD0004A5D0AE15351495D07E1485105E1540565
:101FE00003E1590501E1010C000C01015151050A01
:101FF00016E0010A05E0040A01E01200040E0DD00B
:10200000E5DF000906E00101010E586FE66E130ED0
:1020100046D8010158512BE0050E516F1200596B43
:102020005A29146E140EFBD805C05AF10A0E01018C
:10203000055C02E20AEC13F00101562B000E572357
:10204000900ED8805655010E575502E3F1D80FE097
:102050000101010E596F586B58C1E6FF130E1FD8CE
:102060000101566B576B0AEC13F00101516B120022
:102070005529146E140ED3D805C055F10101055031
:102080000F08120001EC14F0E552E552E552E5525A
:102090001200E66E7AEC1AF0E55200091200E66EC4
:1020A00054EC1DF0E552E552120015C0E6FF16C0D3
:1020B000E6FF17C0E6FF1200B3EC13F0186E060E31
:1020C000E15E18501200E66A5FEC1DF0E552010176
:1020D000486F010E7AD80101496F020E76D80101CE
:1020E0004A6F030E72D801014B6F040E6ED80101C6
:1020F0004C6F050E6AD801014D6F060E66D80101BE
:102100004E6F1200060EE66E84EC1AF0E5520009DE
:102110001200E66E010EE66E1200156A166A176A64
:1021200012000D0EE66E2B0EE66E1200610EE66ECC
:102130002B0EE66E1200090EE66E2B0EE66E1200F6
:10214000E80EE66E030EE66EA4EC0BF0E552E552E7
:102150001200146E180E0FEF11F0146E3C0E0FEFFC
:1021600011F00AEC13F00101010E596F1200B3ECEB
:1021700013F0146E060EE15E145012000AEC13F018
:102180000101506B010E596F12000AEC13F00101AE
:102190004F6B010E596F120085EC1FF005C015F052
:1021A000010E041812005F0EE66E2B0EE66E120092
:1021B000210EE66E2B0EE66E1200040EE66E2B0E5E
:1021C000E66E1200A6DF42EF10F0E66E5FEC1DF047
:1021D000E5521200E66EE66A42EF10F04AC114F0D2
:1021E0009CDF4AC1E6FF55EF10F049C114F095DFBE
:1021F00049C1E6FF55EF10F048C114F08EDF48C129
:10220000E6FF55EF10F04CC114F087DF4CC1E6FF3C
:1022100055EF10F0596B99DC010138EF10F0156E95
:102220000E6E14C009F0B9EF1FF0060E49EF10F062
:10223000040E49EF10F0E66EE66A5CEF10F069DF1D
:102240005CEF10F0050E49EF10F04EC114F065DFA1
:102250004EC1E6FF55EF10F052C114F05EDF52C1DF
:10226000E6FF55EF10F053C114F057DF53C1E6FFFE
:1022700055EF10F04BC1E6FF030E4FEF10F04CC1CD
:10228000E6FF040E4FEF10F04DC1E6FF050E4FEFD5
:1022900010F04EC1E6FF060E4FEF10F0596B38EF0D
:0A22A00010F0E66AE66A42EF10F063
:0622AA0069EC15F07BDB7E
:1022B00015AE02D01668176820DB13E289DB49DB14
:1022C00004E6050E145C000E155806E2020EDB2A29
:1022D000030EF5E3DB2AF3D7DF2A010EE8E3DB2A5E
:1022E000E6D7040EE15C02E2E16AE552E16EBBD2A0
:1022F000F0DB59DB15AE02D016681768FEDA13E280
:1023000067DB27DB04E6EE0E145C000E155806E2D0
:10231000020EDB2A030EF5E3DB2AF3D7DF2A010ED8
:10232000E8E3DB2AE6D7040EE15C02E2E16AE5526B
:10233000E16E99D2D4DBF00B6BDBFE0EDB38F00BD9
:10234000811278DA90D2C2DB190E50DB0F0E8116A3
:10235000F80E81160F0E8116300E5ADB300E58DB48
:10236000300E56DB818A66DA280EE66EE3DFE55230
:102370000C0EE66EDFDFE552E55275D29DDB010EF5
:10238000DB6A81944ADBE76E010EE7CFDBFF8196C3
:1023900044DBDF6E010EDB50DF128196010E51DA55
:1023A000DF50146E020EE15C02E2E16AE552E16E7A
:1023B000145059D28BDBDF6AE1DFDF6EDFBEFCD762
:1023C000DF50E55250D28BDB81128186050E39DA5F
:1023D0008196050E36DA47D241DA8194050E31DA5C
:1023E00098DA41D23BDA8184050E2BDA92DA8194B5
:1023F0003AD23BD33AD332DAFD0EDBCFF6FFFE0EF4
:10240000DBCFF7FF0800F5500DE0FD0EDBCFF6FF48
:10241000DB2AFE0EDBCFF7FF01E3DB2A0800F550D5
:102420001BDBEAD720D252DBFD0EDB500F0B146E04
:10243000FE0EDB50010B400DF3501424DF6E7F0EB7
:10244000DF14800FDF6EDFCFE6FFC6DFE552E55217
:102450000AD2010EE66EC0DFE552E66AE66A75EF63
:1024600015F0FCD9050EE126010EF36EDB6EB0DA35
:10247000040EDB6ADF6ADFCF14F0156A14BE15683C
:1024800099DA15501718E8AE02D0173404D0165058
:10249000145C175015581FE2FD0EDBCF14F0FE0E32
:1024A000DBCF15F0166A176A15AE02D016681768EA
:1024B000D950010FE96EDACFEAFF14C00BF015C056
:1024C0000CF016C00DF017C00EF0DBDA0CEC1FF0AC
:1024D000E1DADF2AD0D7010EDBCF14F0020EDBCF1A
:1024E00015F0030EDBCF16F0040EDBCF17F014C08F
:1024F00006F015C007F016C008F017C009F0050E69
:10250000E15C02E2E16AE552E16EADD1D5DAFB0EA3
:10251000DBCF14F0FC0EDBCF15F0FD0EDBCF16F099
:10252000FE0EDBCF17F0145015101610171003E134
:10253000300E92DA36D0D950FB0F14DA01E618DAF1
:1025400005E22D0E89DAD950FB0FCAD9DE52070EEB
:10255000DD6E37DAE8AE02D0143403D0E750D8800D
:1025600014541FE217DA18BE196871D936DA5EDA28
:1025700008DA0BE0010EDF6EDB041C6E1D6A1CBE68
:102580001D6883D953DA9FD903D0DF5002E0300EA3
:1025900063DA00DA18BE19685AD9D950FB0F6CD922
:1025A000D8D7020EE15C02E2E16AE552E16E5BD14E
:1025B00055D9C7D9D950F90F53DAEECFE6FFEECF90
:1025C000E6FFEECFE6FFEFCFE6FFA0DFE552E552F4
:1025D000E552E55248D142D9B4D9FB0EDBCFE6FF34
:1025E000FC0EDBCFE6FF07DFE552E5523CD136D9E2
:1025F000FCC014F0FDC015F0040ED890143615364A
:10260000E806FBE192D9FE0EDBCFEFFFFE2B000EBA
:10261000FF2329D15BDADF6ADFCF14F0100EE76EFB
:102620001418E8AE02D0E73402D0E750145C18E288
:10263000DFCFE9FFEA6AE9BEEA68C10EE926000ECB
:10264000EA22200EEF6EDFCFE9FFEA6AE9BEEA6810
:10265000D10EE926000EEA22200EEF6EDF2ADCD72B
:10266000E55201D133DA0001C051030A29E0010A21
:102670001CE0030A0CE0010A32E13BDA080EDF5CE1
:1026800003E2DF50B9D9FAD70001010E17D0080EC6
:10269000E66EE66A09D9080EDF5C04E2080EDF2464
:1026A000ABD9F9D70001020E09D00BDA080EDF5CB6
:1026B00003E2DF50A7D9FAD70001030EC06F10D094
:1026C000080EE66E010EE66EEFD8080EDF5C04E23F
:1026D000080EDF2497D9F9D70001C06B01D0C06B79
:1026E000E552C1D0F3D90001C051010A0DE0010A41
:1026F00015E1FFD9100EDF5C03E2DF507DD9FAD778
:102700000001010EC06F0BD0DCD9100EDF5C03E2BC
:10271000DF5078D9FAD70001C06B01D0C06BE55209
:10272000A2D0D4D9E6D9100EDF5C03E2DF5064D921
:10273000FAD7C7D9100EDF5C03E2DF5063D9FAD7AE
:10274000E55291D08BD8B3D8FCC014F0FDC015F081
:10275000040ED89014361536E806FBE1E6D8FC0ED8
:10276000DBCFEFFF80D0A8D9A2D8F90EDBCF14F0D1
:10277000FA0EDBCF15F01ED91450151016101710D5
:1027800003E1300E0CD936D0D950F90FEBD801E661
:10279000EFD805E22D0E03D9D950F90FA1D8DE529A
:1027A000070EDD6E0ED9E8AE02D0143403D0E75028
:1027B000D88014541FE2EED818BE196848D80DD935
:1027C00040D9DFD80BE0010EDF6EDB041C6E1D6A02
:1027D0001CBE1D685AD835D976D803D0DF5002E028
:1027E000300EDDD8D7D818BE196831D8D950F90FB6
:1027F00043D8D8D7020EE15C02E2E16AE552E16E0D
:1028000032D02CD854D8FB0EDBCFF6FFFC0EDBCF3A
:10281000F7FF0800F5500DE0FB0EDBCFF6FFDB2ADB
:10282000FC0EDBCFF7FF01E3DB2A0800F550B7D839
:10283000EAD719D08186010ED9D88196010EF6EF1C
:1028400014F0E66EE66AE66AE66A2FDD56D118C035
:10285000E6FF19C0E6FF10D953EF15F0D9CFE6FF18
:10286000E1CFD9FF1200E552E7CFD9FF1200EA22EB
:10287000EF50F2D8DF2A1200F3D8AFD802D944ECD7
:102880001FF008D9010EDB0612001CC0E6FF1DC0B8
:10289000E6FFF2D806C018F007C019F008C01AF019
:1028A00009C01BF0EDEF14F020D9DF6A1200FE0E14
:1028B000DB50010B0001FC6FFD6BFD0EDB500F0BBD
:1028C000FE6FFF6B1200DBCF09F044EC1FF0EBD87A
:1028D000300E1426000E1522162217221450120054
:1028E000BFD8000EEE6CEF1EEE22EF1EEE22EF1EA2
:1028F000EF22ED52ED52ED521200D950FB0FB0D83D
:10290000EE50145CEE501558EE501658EE50175815
:102910001200FE0EDBCFE6FF56DDE552FE0EDB3881
:10292000F00BE66E50DDE5521200C10E1426000ECB
:10293000152214500001FE25E96E1550FF21EA6EA4
:102940001200FD0EDBCFE6FFFE0EDBCFE6FF75EFDC
:1029500015F0020EDBCF14F0030EDBCF15F0D8908C
:10296000155012007DD8D890030EEB50000A1200CB
:10297000000EEE5C000EEE58000EEE58000EEE5803
:102980001200DBCF09F044EC1FF0065007100810CE
:1029900009101200010EDB04186E196A1200E66EAF
:1029A00026DEE5521200DECF14F0DDCF15F0166AF8
:1029B000176A1200FB0EDBCF16F0FC0EDBCF17F010
:1029C0001200010EDBCF14F0000EE76E1418120097
:1029D000020EDB6A030EDB6A120006C00BF007C0B2
:1029E0000CF008C00DF009C00EF01200E66EE66AA9
:1029F000E66AE66A7DDC81D0EA6AC10FE96E000E04
:102A000037EF14F0EA6AD10FE96E000E37EF14F0D9
:102A1000811210DF0F0E811612000F0E12DF0F0E43
:102A2000811281860EDF0F0E81141200FB0EDBCFA8
:102A300006F0FC0EDBCF07F0FD0EDBCF08F0FE0E3C
:102A40001200F90EDBCF06F0FA0EDBCF07F0FB0E1B
:102A5000DBCF08F0FC0E1200E66ECCDCE552120073
:102A6000E96EFF0EDA20EA6E1200F8DEFE0EDBCF12
:102A7000E6FFB8DCE552F7D60A0EE66EE66AF1DC50
:102A80003CD0EECF06F0EECF07F0EECF08F0EFCF60
:102A900009F0120005C0EDFF04C0EDFF03C0EDFF1B
:102AA00002C0EFFF120006C014F007C015F008C006
:102AB00016F009C017F01200D1DE020EE126DF6A1F
:102AC0001200E66A010EE66E54EF14F0C7DEE6521D
:102AD0001200C4DE040EE126DE6ADD6A1200BEDEEC
:102AE0000F0E8116FE0EDB5012009DDCE552E55202
:102AF0001200E66AE66A54EF14F0E552E552E55238
:042B0000E552120088
:0C2B0400202020200020202000202000A5
:102B10002020414C41524D2020204241434B202057
:102B2000002000444543004E4F56004F435400538D
:102B3000455000415547004A554C004A554E004DFE
:102B4000415900415052004D415200464542004A11
:102B5000414E004F4B20004F4E20004F4646003A5A
:102B60000030005341540046524900544855005724
:102B7000454400545545004D4F4E0053554E0044BA
:102B800049474954414C20434C4F434B003E42413E
:102B9000434B002048414E4F4920205554432B3091
:102BA0003700204241434B003E48414E4F492020D0
:102BB0005554432B3037002048414E4F49202020A8
:102BC000205554432B3037003E4C4F4E444F4E203F
:102BD00020205554432B303000204C4F4E444F4E54
:102BE0002020205554432B3030003E4E4557594F3E
:102BF000524B20205554432D303500204E45575917
:102C00004F524B20205554432D3035003E504152F9
:102C10004953202020205554432B3031002050416F
:102C2000524953202020205554432B3031003E423E
:102C300045494A494E4720205554432B30380020FF
:102C4000544F4B594F202020205554432B303900EE
:102C5000204245494A494E4720205554432B30389D
:102C6000003E544F4B594F202020205554432B30C9
:102C70003900205573652055415254003E55736507
:102C800020427574746F6E0021444154453A59597D
:102C90004D4D444464230D0A000D0A546F2073798E
:102CA0006E6368726F6E697A6520646174652C204A
:102CB0007573696E672073796E7461782061732013
:102CC000666F6C6C6F773A0D0A0054686520746902
:102CD0006D65206E65656420746F206265203234F6
:102CE0002D6820666F726D61740D0A002154494D84
:102CF000453A48484D4D5353230D0A000D0A546F71
:102D00002073796E6368726F6E697A652074696D7D
:102D1000652C207573696E672073796E74617820F5
:102D2000617320666F6C6C6F773A0D0A000D0A575D
:102D3000656C636F6D6520746F20416C61726D20EE
:102D4000436C6F636B20636F6E736F6C65206D6592
:102D50006D750D0A002055736520427574746F6E91
:102D6000003E5573652055415254000D0A4E65656D
:102D70006420636F6E6669726D20646174652063A0
:102D800068616E676520210D0A000D0A436F6E664B
:102D9000696775726174696F6E2044617465205350
:102DA000756363657373210D0A000D0A4441544530
:102DB000206D75737420626520696E2072616E6784
:102DC00065205B312C375D20210D0A000D0A44611E
:102DD00079206D75737420626520696E2072616E52
:102DE0006765205B312C32385D20210D0A000D0A09
:102DF000446179206D75737420626520696E20725C
:102E0000616E6765205B312C32395D20210D0A002F
:102E10000D0A446179206D75737420626520696EB6
:102E20002072616E6765205B312C33315D20210D8E
:102E30000A00506C6561736520656E74657220616F
:102E40006761696E210D0A000D0A446179206D7574
:102E5000737420626520696E2072616E6765205B05
:102E6000312C33305D20210D0A000D0A2044617998
:102E7000206D757374206265203E2030210D0A009C
:102E80000D0A4D6F6E7468206D7573742062652035
:102E9000696E2072616E6765205B312C31325D2076
:102EA000210D0A000D0A506C6561736520656E7412
:102EB000657220616761696E20210D0A000D0A4369
:102EC000686172616374657220636F6E6669726DAA
:102ED000206973202723270D0A000D0A4E656564BB
:102EE00020636F6E6669726D2074696D6520210DB7
:102EF0000A000D0A436F6E66696775726174696FC7
:102F00006E2054696D652053756363657373210D7D
:102F10000A000D0A506C6561736520656E746572F8
:102F2000206E756D62657220210D0A000D0A5365D1
:102F3000636F6E64206D75737420626520696E2006
:102F400072616E6765205B302C35395D20210D0A7A
:102F5000000D0A4D696E757465206D75737420627D
:102F60006520696E2072616E6765205B302C353993
:102F70005D20210D0A00706C6561736520656E74BB
:102F8000657220616761696E210D0A000D0A486F44
:102F90007572206D75737420626520696E20726190
:102FA0006E6765205B302C32335D20210D0A000DE9
:102FB0000A506C6561736520656E746572206E756C
:102FC0006D626572210D0A00202020200052554EAE
:102FD0000053544F500054494D455220434C4F43E9
:102FE0004B204241434B003A00300020200020207B
:102FF0002053544F502057415443482020003E4214
:1030000061636B00204261636B003E576F726C64BA
:103010002054696D65007761726520746F204D6F73
:103020006469667900506C65617365206F70656EC8
:1030300020736F66740020576F726C642054696D42
:1030400065003E54696D65204D6F646966790020A6
:1030500054696D65204D6F64696679003E54696DF1
:10306000657220436C6F636B002054696D6572203C
:10307000436C6F636B003E436F756E7465722043E3
:103080006C6F636B0020416C61726D20436C6F63E9
:103090006B0020436F756E74657220436C6F636BB9
:0E30A000003E416C61726D20436C6F636B00EB
:0230AE00B06A06
:1030B000810EAF6EAC8AAC94B886AC98AB8EAB8800
:1030C0009E9A9D8A9F8A949C948E120069D9040EC0
:1030D000E126DE6ADD6ADECF14F0DDCF15F097D988
:1030E00015501718E8AE02D0173404D01650145CEF
:1030F000175015581DE2020EDB6A030EDB6A020E42
:10310000DBCF14F0030EDBCF15F0D890155004E69A
:10311000EE0E145C000E155806E2020EDB2A030EBA
:10312000EEE3DB2AECD7DF2A010ED5E3DB2AD3D787
:10313000040EE15C02E2E16AE552E16E36D130D97B
:103140009EA8FED7FE0EDB50AD6E9E982ED128D9DC
:1031500056D908E054D934D9FD0EDB2AFE0EF8E327
:10316000DB2AF6D722D11CD9050EE126010EF36E1B
:10317000DB6E020EDB6A030EDB6A040EDB6ADF6ABB
:10318000DFCF14F0156A14BE1568FB0EDBCF16F006
:10319000FC0EDBCF17F015501718E8AE02D017342D
:1031A00004D01650145C175015581FE2FD0EDBCFEB
:1031B00014F0FE0EDBCF15F0166A176A15AE02D0BA
:1031C00016681768D950010FE96EDACFEAFF14C00C
:1031D0000BF015C00CF016C00DF017C00EF0F4D8AF
:1031E0000CEC1FF0FAD8DF2ACBD7010EDBCF14F09E
:1031F000020EDBCF15F0030EDBCF16F0040EDBCF93
:1032000017F014C006F015C007F016C008F017C07C
:1032100009F0050EE15C02E2E16AE552E16EC5D01B
:10322000BFD8020EE126DF6AFB0EDBCF14F0FC0EE6
:10323000DBCF15F0ECD8145015101610171003E161
:10324000300EBED86DD0B5D8D890030EEB50000A22
:1032500008E6000EEE5C000EEE58000EEE58000E72
:10326000EE580EE22D0EACD8A4D8000EEE6CEF1E78
:10327000EE22EF1EEE22EF1EEF22ED52ED52ED5246
:10328000DE520A0EDD6E010EDBCF14F0000EE76E8B
:103290001418E8AE02D0143403D0E750D880145488
:1032A0003FE2010EDB04186E196A18BE196871D866
:1032B00061D806500710081009101EE0010EDF6EDD
:1032C000DB041C6E1D6A1CBE1D681CC0E6FF1DC011
:1032D000E6FFA4D806C018F007C019F008C01AF01D
:1032E00009C01BF047D8A3D8300E1426000E1522B3
:1032F00016221722145003D0DF5002E0300E60D89F
:10330000010EDB04186E196A18BE196842D851D82C
:1033100097D85AD844EC1FF060D8010EDB06B3D71B
:10332000020EE15C02E2E16AE552E16E3ED038D87D
:103330005DD80CE05BD844D8FD0EDBCFF6FFDB2A6E
:10334000FE0EDBCFF7FFF4E3DB2AF2D72ED028D82E
:10335000E652AE50DF6E01016951EA6A010FE96E73
:103360000F0EEA22DFCFEFFF69293F0B696F6B2B4E
:10337000E5521BD065D8FB0EDBCF06F0FC0EDBCF91
:1033800007F0FD0EDBCF08F0FE0EDBCF09F044EFB7
:103390001FF018C0E6FF19C0E6FF40D817EF1AF07B
:1033A000D9CFE6FFE1CFD9FF1200E552E7CFD9FF31
:1033B0001200D950FB0FE96EFF0EDA20EA6E120000
:1033C000E66EBDDEE5521200EECF06F0EECF07F05E
:1033D000EECF08F0EFCF09F0120005C0EDFF04C0FA
:1033E000EDFF03C0EDFF02C0EFFF1200FD0EDBCFCB
:1033F000F6FFFE0EDBCFF7FF0800F5501200FD0EC2
:10340000DBCFE9FFFE0EDBCFEAFFEF501200FD0E2F
:10341000DBCF16F0FE0EDBCF17F012000A0EE66EC1
:10342000E66AA1DEE552E552E552E552120006C019
:1034300014F007C015F008C016F009C017F012000C
:1034400006C00BF007C00CF008C00DF009C00EF06C
:02345000120068
:0E3452000F0E946E82681200070E9410946E96
:10346000DF0E9414946E82681200D0D808D901E659
:1034700001D917E2DDD8826EF8D8D1D801E6FAD8A2
:103480000BE2B7D802E1FFD801D01DD9020EDB2A2A
:10349000030EF3E3DB2AF1D7DF2A010EE7E3DB2A91
:1034A000E5D7040EE15C02E2E16AE552E16ED9D0B3
:1034B000ADD8DBD8010EDE6EDD6ABAD88214826E1A
:1034C000D4D8ADD804E6030E145C000E15580BE2F8
:1034D00090D802E1D8D801D0F6D8020EDB2A030E2C
:1034E000F0E3DB2AEED7040EE15C02E2E16AE5528A
:1034F000E16EB7D0A7D8010EEE1804E1ED5002E15D
:10350000010E01D0000EADD09DD8320EEE1804E1B0
:10351000ED5002E1010E01D0000EA3D077D8D7D82C
:10352000FD0EDBCF16F0FE0EDBCF17F0155017188F
:10353000E8AE02D0173404D01650145C175015585A
:1035400013E293D86CD804E6EE0E145C000E155806
:1035500006E2020EDB2A030EF5E3DB2AF3D7DF2AAD
:10356000010EDDE3DB2ADBD7040EE15C02E2E16A57
:10357000E552E16E76D04AD882D801E67BD822E2C5
:1035800057D8826E72D84BD801E674D80DE29BD81A
:1035900030D804E11ED8010EEE6EED6A020EDB2A71
:1035A000030EF1E3DB2AEFD78250816EE80EE66E60
:1035B000030EE66EB3DFE552E552DF2A010EDCE3CF
:1035C000DB2ADAD7040EE15C02E2E16AE552E16E41
:1035D00048D07DD8D89014361536D8901436153684
:1035E000020EDB501424E96E030EDB5015206CEF45
:1035F0001BF0020EDBCFE9FF030EDBCFEAFF240E48
:10360000E926010EEA22EF5082141200D9CFE6FF1C
:10361000E1CFD9FF040EE126DE6ADD6A1200020E58
:10362000DBCF14F0030EDBCF15F0D890155012004D
:10363000DECFE9FFDDCFEAFF200EE926010EEA2208
:10364000EF1C1200D9CFE6FFE1CFD9FFFE0EEA6AE8
:10365000DB34FE0BEA36E96E000EE926010EEA22A3
:103660001200E552E7CFD9FF1200020EDB6A030E0B
:10367000DB6A1200040E145C000E1558120027D8E5
:10368000D89015501200DECF18F0DDCF19F0D89089
:1036900018361936D89018361936020EDB50182411
:1036A000E96E030EDB50192017D8EECF16F0EFCFDE
:1036B00017F0010E1626000E17228BDF16C0EEFF44
:1036C00017C0EDFF120085DFEE6AED6A1200DECF53
:1036D00014F0DDCF15F01200EA6ED890E936EA3624
:0A36E000000EE926010EEA22120096
:0636EA00F1D8D59EFD0E93
:1036F000DBCF28F1FE0EDBCF29F1D59C05D9D59A79
:10370000D586F28AF294F184D58EE6D0D59E120049
:10371000FBD8D58E1200DBD8CD90FD0EDBCF2AF181
:10372000FE0EDBCF2BF1F7D89D809E909F90CD8E23
:10373000CD8CCD98CD9ACD96CD92CD80CDD0EBD8F5
:10374000CD801200CD901200C2D8CA94CC6AFE0E71
:10375000DB5001012C6F2D6BCB6E9D829E929F9250
:10376000CA90CA92CA84B8D02CC1CBFFCA841200B6
:10377000CA941200ACD8B190FD0EDBCF2EF1FE0E34
:10378000DBCF2FF1CFD80750B36ECCD8B5D8B26EFF
:10379000A082A192A292B18EB198B19AB192B18059
:1037A0009BD0C0D80350B26EBDD89ED8B36EB18046
:1037B0001200B19012000101382B000E3923405144
:1037C000385D4151395904E3386B396B010E306F64
:1037D000120001013A2B000E3B2342513A5D435146
:1037E0003B5904E33A6B3B6B010E316F1200010150
:1037F0003C2B000E3D2344513C5D45513D5904E3B3
:103800003C6B3D6B010E326F120001013E2B000E2E
:103810003F2346513E5D47513F5904E33E6B3F6BAA
:10382000010E336F120053D8FD0EDBCF40F1FE0EB8
:10383000DBCF41F10101386B396B306B4DD047D88C
:10384000FD0EDBCF42F1FE0EDBCF43F1050E0D6E18
:103850000E6A42C108F043C109F03DEC1EF008C0F9
:1038600042F109C043F101013A6B3B6B316B34D03B
:103870002ED8FD0EDBCF46F1FE0EDBCF47F10A0E50
:103880000D6E0E6A46C108F047C109F03DEC1EF00E
:1038900008C046F109C047F101013E6B3F6B336B35
:1038A0001BD01C6A1A50175C146E1B501858156EEA
:1038B0001C501958166E0C6A010E0D6E0E6A14C05B
:1038C00007F015C008F016C009F063EF1EF0D9CF5D
:1038D000E6FFE1CFD9FF1200E552E7CFD9FF120092
:1038E00017681868196A120007C014F008C015F0AC
:1038F00009C016F00750120003C014F004C015F000
:1039000005C016F00350120014D80350D66E11D81B
:10391000EBDFD76E120014D80750CF6E11D8ECDF52
:10392000CE6E1200DDDF2EC11AF02FC11BF051EF59
:103930001CF0D6DF28C11AF029C11BF051EF1CF092
:0E394000CFDF2AC11AF02BC11BF051EF1CF093
:02394E00BED8E1
:10395000020EE126FE0EDB500F0BDF6EFE0EDB3893
:103960000F0B0A0DBCD802E2E16AE552E16E145079
:10397000B2D0ACD8020EE126BBD80550DF6EB8D865
:103980000950100DACD802E2E16AE552E16E145024
:10399000A2D094869488C79EC79CC690C692C694AF
:1039A000C686310EC86EC68A120090D89E96FE0E4C
:1039B000DB50D00FC96E9EA6FED78DD09E96C580D7
:1039C0009EA6FED712009E96C5849EA6FED7120024
:1039D0007DD89E96FE0EDB50C96E9EA6FED77BD08C
:1039E0009E96C5869EA6FED7C95012009E96C59A81
:1039F000C5889EA6FED712009E96C58AC5889EA63B
:103A0000FED7120063D87CD8010E6C6FE85004E03A
:103A1000C550400BFAE0F8D779D8010E6C6FE8502A
:103A200004E0C550400BFAE0F8D7FD0EDBCFE6FF0F
:103A3000A0DFE552E66ECCDFE5520101010E6C6FAE
:103A4000E85004E0C550400BFAE0F8D7BCDF43D0A3
:103A50003DD8E65255D8010E6C6FE85004E0C550D1
:103A6000400BFAE0F8D752D8010E6C6FE85004E032
:103A7000C550400BFAE0F8D7A1DF010EE66E95DFE6
:103A8000E5520101010E6C6FE85004E0C550400B97
:103A9000FAE0F8D7A5DFDF6EDFCFE6FF58DFE552AB
:103AA000DF6EDF50E55217D011D8FD0EDBCFE6FFF9
:103AB000FE0EDBCFE6FFA6DFE552E5520CD006D8BE
:103AC000FE0EDBCFE6FFC4DFE55205D0D9CFE6FF1F
:103AD000E1CFD9FF1200E552E7CFD9FF1200010E66
:103AE000F3CFDBFFDB50DF24146E020EE15C12002B
:103AF0000A0E146E0E6EFE0EDBCF09F0B9EF1FF04A
:103B00005DDFE66A52DFE55201011200FE0EDBCFF7
:0A3B1000E6FF5EDFE552010112003E
:063B1A00F28ED08EF28C49
:103B20001200F19CF292F2881200D8CFE4FFE0CFAD
:103B3000E4FFE46E65D800EE00F0140EE80403E341
:103B4000EECFE4FFFBD700EE14F00A0EE80403E327
:103B5000EECFE4FFFBD7E652F2B47AD89EB07FD81E
:103B6000A1B284D8F2B2F2929EBA9E9AE55200EEC9
:103B70001DF00A0EE80403E3E5CFEDFFFBD700EEEE
:103B800013F0140EE80403E3E5CFEDFFFBD74DD8A7
:103B9000E550E5CFE0FFE5CFD8FF100031D800EECB
:103BA00000F0140EE80403E3EECFE4FFFBD700EED1
:103BB00014F00A0EE80403E3EECFE4FFFBD7E6526D
:103BC000F2B446D89EB04BD8A1B250D8F2B2F2921D
:103BD0009EAA03D0A7EC19F09E9AE55200EE1DF0C4
:103BE0000A0EE80403E3E5CFEDFFFBD700EE13F088
:103BF000140EE80403E3E5CFEDFFFBD716D8110060
:103C0000DACFE4FFE2CFDAFFE9CFE4FFEACFE4FF67
:103C1000F6CFE4FFF7CFE4FFF5CFE4FFF3CFE4FF07
:103C2000F4CFE4FFFACFE4FF1200E5CFFAFFE5CFCF
:103C3000F4FFE5CFF3FFE5CFF5FFE5CFF7FFE5CFE5
:103C4000F6FFE5CFEAFFE5CFE9FFE5CFDAFF1200A7
:103C500086EC1BF0F29488EC1BF0DBEF1BF0A2EC7F
:103C60001BF09E909FEC1BF0E9EF1BF0D9EC1BF0D2
:0A3C7000A192D1EC1BF005EF1CF04F
:063C7A00006A0EAE46EFE9
:103C80001EF00D6C0E1EE86A0E22001E09AE4EEFED
:103C90001EF0086C091EE86A0922001E85EC1FF060
:103CA00009BE5EEF1EF000AE000C086C091EE86A4B
:103CB0000922046C051EE86A0522000C00BE55EFBF
:103CC0001EF00188FF0C006A0EAE6EEF1EF00C6C49
:103CD0000D1E0E1EE86A0D220E22001E09AE78EFA0
:103CE0001EF0076C081E091EE86A08220922001E41
:103CF00068EC1FF009BE8BEF1EF000AE000C076CE5
:103D0000081E091EE86A08220922036C041E051E0B
:103D100004220522000C00BE7FEF1EF00188FF0C7C
:103D200009C013F008C012F008500D02F4CF07F0DC
:103D3000F3CF06F009500E02F4CF09F0F3CF08F0EC
:103D40000D02F3500726F4500822E86A09221250A7
:103D50000E02F3500726F4500822E86A09220EAE3C
:103D6000B6EF1EF01250085E1350095A13AE000C45
:0A3D70000D50085E0E50095A000CB9
:063D7A001E0EF66E000EA5
:103D8000F76E000EF86E01010900F550606F090032
:103D9000F550616F03E1606701D03DD00900F55037
:103DA0005B6F0900F5505C6F0900F5505D6F09000D
:103DB0000900F550E96E0900F550EA6E09000900A6
:103DC0000900F5505E6F0900F5505F6F09000900AA
:103DD000F6CF62F1F7CF63F1F8CF64F15BC1F6FF84
:103DE0005CC1F7FF5DC1F8FF01015E5302E15F5363
:103DF00007E00900F550EE6E5E07F8E25F07F9D7BD
:103E000062C1F6FF63C1F7FF64C1F8FF01016007FB
:083E1000000E615BBFD7120038
:083E180006500B02F3CF02F08B
:103E2000F4CF03F00C02F3500326000EF420046ECE
:103E300006500D02F3500426000EF420056E0650C5
:103E40000E02F350052607500B02F3500326F450E0
:103E50000422000E052207500C02F3500426F450F1
:103E6000052207500D02F350052608500B02F350AF
:103E70000426F450052208500C02F3500526095080
:083E80000B02F35005261200AD
:083E8800056A046A036A026A7C
:103E9000200EE76ED8900636073608360936023609
:103EA0000336043605360B50025C0C5003580D5097
:103EB00004580E50055809E30B50025E0C50035A8B
:103EC0000D50045A0E50055A062AE72EE4D7120068
:103ED000056A046A036A180EE76ED890073608363A
:103EE00009360336043605360C50035C0D50045871
:103EF0000E50055807E30C50035E0D50045A0E5047
:0A3F0000055A072AE72EEAD712003F
:063F0A00056A046A100EB6
:103F1000E76ED89008360936043605360D50045C35
:103F20000E50055805E30D50045E0E50055A082A40
:063F3000E72EF0D712009D
:0A3F3600800EF36E00EE00F00F0E97
:103F400001D81200EA6002D0EE6AFCD7F350E960B3
:063F50001200EE6AFCD72E
:0A3F56001EEE00F02EEE00F0F86AF7
:103F6000019CBDEC1EF003EC00F073EC0BF0FBD7F2
:023F700012003D
:0E3F7200056A080EE76ED890093605360E5027
:0E3F8000055C02E3056E092AE72EF7D7120052
:023F8E00000031
:103F90000000000000000000000000000000000021
:0E3FA00000000000000001000100010001000F
:023FAE00010010
:103FB000000000000000003200320007000700FF90
:103FC000FFFFFF00000000000000000000000000F4
:0D3FD00001000100000000000000000100E1
:033FDD00000000E1
:103FE00000000000000000000000000000000100D0
:103FF0000000000000000000101010101010101041
:1040000018181818181818181C1C1C1C1C1C1C1C10
:104010001E1E1E1E1E1E1E1E1F1F1F1F1F1F1F1FB8
:104020000000000000000000000000000000000090
:104030000000000000000000000000000000000080
:104040000000000000000000000000000000000070
:01405000006F
:0F405100000000D00022222207250910000100E4
:0C40600000000000000000000000000054
:04406C000000000050
:104070000000000000000000000000000000000040
:104080000000000000000000000000001020408040
:04409000010204081D
:020000040030CA
:0100010002FC
:0100020003FA
:010003001EDE
:010005008179
:010006008178
:010008000FE8
:01000900C036
:01000A000FE6
:01000B00E014
:01000C000FE4
:01000D0040B2
:00000001FF
