:020000040000FA
:0600000099EF20F0120050
:020006001200E6
:06000800BCEF1EF0120027
:02000E000000F0
:0100100000EF
:0400110000000000EB
:0600180083EF1EF0120050
:02001E000800D8
:100020004C420000000100002800000031420000A6
:10003000E10000001B000000110000006B01000047
:1000400004000000D04100008000000061000000BA
:10005000BD41000048010000130000008A4100007B
:10006000410F0000330000006A4100002801000039
:10007000200000000E0000006F01000003000000DF
:100080000F01415102E1010E421901E1AED10C0E06
:10009000411901E1425101E19ED10B0E411901E1EB
:1000A000425101E191D10A0E411901E1425101E1B0
:1000B00062D1080E411901E1425101E15AD1070E06
:1000C000411901E1425101E128D1090E411901E133
:1000D000425101E112D1060E411901E1425101E103
:1000E0000AD1050E411901E1425101E1DBD0280E90
:1000F000411901E1425101E1D2D0040E411901E15F
:10010000425101E1A1D01E0E411901E1425172E0BC
:10011000030E411901E1425147E0140E411901E17A
:10012000425137E0020E411901E1425115E0010E42
:10013000411901E1425101E012007EEC0DF0C6ECE4
:1001400010F0CCEC0BF001E36DD1020E83EC0BF060
:10015000010E436F446B12007D0EE66E320EC2EC50
:100160000BF06E0EE66E320EC7EC0BF002E219ECED
:100170000CF0CCEC0BF004E2140E0F01416F426B5B
:10018000CFEC0BF001E34ED10F01416B010E426F3A
:10019000120076EC0EF0C4EC0FF00F016B5101E190
:1001A00041D16B6B020E3BD1020E43190BE144515E
:1001B00009E1610EE66E320EC2EC0BF0520EE66EF5
:1001C000320E08D0520EE66E320EC2EC0BF0450E27
:1001D000E66E320EC7EC0BF002E21CEC0CF0CFEC3A
:1001E0000BF002E21FEC0CF0CCEC0BF001E31AD1A7
:1001F0001E0E14D138D90F016D5101E014D9040E2F
:1002000053EC0BF004E0E6EC0BF0010E6D6F050E05
:1002100053EC0BF002E00F016D6B050EE66E72EC15
:100220001BF0E552000903E00F0188EC0BF0060E0D
:1002300053EC0BF001E1F6D00F016D6B88EC0BF085
:100240000F016B6B030EEBD0030E43190BE144510E
:1002500009E16E0EE66E320EC2EC0BF0380EE66E61
:10026000320E08D0380EE66E320EC2EC0BF02B0EBA
:10027000E66E320EC7EC0BF004E212EC0BF0B9ECB8
:100280000BF0CFEC0BF002E219EC0CF0CCEC0BF025
:1002900001E3C8D0280E83EC0BF0496B120022D981
:1002A000FCEF02F0040E43190BE1445109E1450E45
:1002B000E66E320EC2EC0BF01E0EE66E320E08D069
:1002C0001E0EE66E320EC2EC0BF0120EE66E320E11
:1002D000C7EC0BF002E222EC0CF0CFEC0BF002E2E8
:1002E0001CEC0CF0CCEC0BF001E39CD00F01456B47
:1002F000466B060E94D06EEF07F0010EE66E320EDE
:10030000C2EC0BF0F20EE66E310E31EC0CF0A6DA18
:10031000CCEC0BF001E386D080D0050E43190BE145
:10032000445109E12B0EE66E320EC2EC0BF0E60EE4
:10033000E66E310E08D0E60EE66E310EC2EC0BF022
:10034000DD0EE66E310EC7EC0BF004E212EC0BF0A2
:10035000BBEC0BF0CFEC0BF004E212EC0BF0B9ECC1
:100360000BF0CCEC0BF05EE2080E83EC0BF078EFB8
:1003700009F00DEF08F0070E43190BE1445109E1B4
:10038000120EE66E320EC2EC0BF0D40EE66E310E9B
:1003900008D0D40EE66E310EC2EC0BF0CE0EE66E37
:1003A000310EC7EC0BF006E212EC0BF00F01416BC3
:1003B000010E426FCFEC0BF002E222EC0CF0CCEC21
:1003C0000BF030E20B0E2AD0BC0EE66E310EC2EC02
:1003D0000BF02EEF04F0B90EE66E310EC2EC0BF00E
:1003E000CCEC0BF002E2BBEC0BF0DD0EE66E310E56
:1003F000C2EC0BF0EFEC0BF0CFEC0BF004E212ECE4
:100400000BF0BBEC0BF038EC0CF002E21FEC0CF044
:10041000CCEC0BF007E212EC0BF0010E0F01416F78
:10042000426B1200120032EC0BF075EC0BF002E1A3
:100430001550621908E03B0E5F190AE1605108E1AE
:100440006151621105E1702B61CF5FFF62CF60FFE8
:100450003C0E705D02E3706B6F2B3C0E6F5D02E330
:100460006F6B6E2B1200A30EE66E310EC2EC0BF01A
:100470000EEC0CF00A0E0F016E5D09E262EC0BF05F
:10048000040ECAEC0BF0F4EC0BF0050E03D0F4EC08
:100490000BF0040E3BEC0CF00F016F5D09E262EC17
:1004A0000BF0070ECAEC0BF0FBEC0BF0080E03D0C0
:1004B000FBEC0BF0070E25EC0CF0090ECAEC0BF070
:1004C0000A0E0F01705D09E262EC0BF00A0ECAEC35
:1004D0000BF002EC0CF00B0E03D002EC0CF00A0E49
:1004E0000EEF0BF08B0EE66E310EC2EC0BF00EEC45
:1004F0000CF00F015E5104E0860EE66E310E03D063
:10050000820EE66E310EE66E0C0ECAEC0BF00A0E91
:100510000F0158AF02D0D89003D0575D000E585944
:1005200013E262EC0BF0010EE66EE66EBAEC0AF036
:100530008FEC0BF015AE02D016681768D2EC0BF0FA
:10054000020EE66E010E0AD08FEC0BF015AE02D053
:1005500016681768D2EC0BF0010EE66E11EC0CF089
:100560007EEC0BF0030ECAEC0BF00A0E0F015AAF33
:1005700002D0D89003D0595D000E5A590FE262ECB8
:100580000BF0040ECAEC0BF096EC0BF015AE02D09B
:1005900016681768D2EC0BF0050E09D096EC0BF03C
:1005A00015AE02D016681768D2EC0BF0040E3BECC7
:1005B0000CF00F015CAF02D0D89003D05B5D000E51
:1005C0005C590FE262EC0BF0070ECAEC0BF09DECED
:1005D0000BF015AE02D016681768D2EC0BF0080EBF
:1005E00009D09DEC0BF015AE02D016681768D2EC5E
:1005F0000BF0070E0EEF0BF00F014951040A01E159
:10060000F7D0070A01E18DD0010A5FE0030A31E06B
:10061000010A01E01200DCEC0AF007E26BEC0BF0DF
:10062000010EE66EE66EBAEC0AF0CFEC0BF00DE2CE
:100630000F01572B000E5823583507E25751170862
:10064000000E585502E2576B586B38EC0CF00AE27A
:100650000F015707000E585B800E581503E0170E68
:10066000576F586BCCEC0BF001E3E2D00F01010E99
:10067000BDD0DCEC0AF005E26BEC0BF0040ECAEC2A
:100680000BF0CFEC0BF00DE20F01592B000E5A23AB
:100690005A3507E259513B08000E5A5502E2596B90
:1006A0005A6B38EC0CF00AE20F015907000E5A5B46
:1006B000800E5A1503E03B0E596F5A6BCCEC0BF0D1
:1006C00001E3B6D00F01020E91D0DCEC0AF005E296
:1006D0006BEC0BF0070ECAEC0BF0CFEC0BF00DE25D
:1006E0000F015B2B000E5C235C3507E25B513B087E
:1006F000000E5C5502E25B6B5C6B38EC0CF00AE2BE
:100700000F015B07000E5C5B800E5C1503E03B0E87
:100710005B6F5C6BCCEC0BF001E38AD00F01030E36
:1007200065D0CFEC0BF005E20F01010E5E6FE6EC39
:100730000BF038EC0CF002E20F015E6B0F015E5122
:100740003AE032EC0BF075EC0BF002E11550621957
:1007500008E03B0E5F192FE160512DE161516211FC
:100760002AE161CF5FFF62CF60FF5C3509E25B5138
:100770000008000E5C5504E25B07000E5C5B1BD0BA
:100780005B515C1118E159515A1107E03B0E5B6F48
:100790005C6B5907000E5A5B0ED059515A110BE190
:1007A0005751581108E05707000E585B3B0E596F20
:1007B0005A6B5B6F5C6B5751581107E159515A11D5
:1007C00004E15B515C1101E15E6B5E5109E1DCEC1F
:1007D0000AF006E2A4EC0BF0010EE66EBAEC0AF0A9
:1007E000CCEC0BF025E20F015E6B040E496F12009A
:1007F000DCEC0AF005E2A4EC0BF0E66ABAEC0AF0D5
:10080000040E53EC0BF004E1050E53EC0BF002E088
:100810000F010CD0CCEC0BF00BE2040E83EC0BF0D0
:10082000576B586B596B5A6B5B6B5C6B496B120067
:1008300012005DEC0BF0E65201017051EA6A010F03
:10084000E96E0F0EEA22EFCFDFFF70293F0B706FCA
:10085000DF50E55259EF0BF0ABEF0BF0010E0F013B
:10086000721901E1735101E0120001017151000898
:1008700004E204D801017107120012005DEC0BF0D4
:10088000E652D7DFDF6EDFCFE6FF8DEC19F0E552E1
:10089000630E0F01671901E1685101E1E4D0690EAF
:1008A000671901E1685101E1C0D0680E671901E1E3
:1008B000685101E1ABD0670E671901E1685101E1B0
:1008C00090D0660E671901E1685101E17FD0650E95
:1008D000671901E1685165E0640E671901E168512B
:1008E00055E00E0E671901E1685144E00C0E6719DE
:1008F00001E1685136E00B0E671901E1685128E00B
:100900000A0E671901E168511AE0020E671901E148
:1009100068510CE0010E671901E0CDD0685101E08B
:10092000CAD0210EDF5C01E0C6D02CD0540EDF5CB3
:1009300002E10A0EBED0210EDF5C26E123D0490E73
:10094000DF5C02E10B0EB5D0210EDF5C1DE11AD099
:100950004D0EDF5C02E10C0EACD0210EDF5C14E129
:1009600011D0450EDF5C02E10E0EA3D0210EDF5C3C
:100970000BE108D03A0EDF5C02E1640E9AD0210E42
:10098000DF5C02E1020E95D0010E93D0EBEC0AF091
:1009900001E1531D46E03AEC0BF006C05DF1650E37
:1009A00087D0EBEC0AF001E1531D3BE0525101010D
:1009B0005D27170EE66EE66A5D5128EC0CF002E04A
:1009C000660E76D0410EE66E310E43D0EBEC0AF0A7
:1009D00001E1531D26E03AEC0BF006C05EF1670E14
:1009E00067D0EBEC0AF001E1531D1BE0525101010D
:1009F0005E273B0EE66EE66A5E5128EC0CF002E0E4
:100A0000680E56D0060EE66E310E23D0EBEC0AF0DF
:100A100001E1531D06E03AEC0BF006C05FF1690EF0
:100A200047D0640EE66E310E40D0EBEC0AF001E1E7
:100A3000531D15E0525101015F273B0EE66EE66A39
:100A40005F5128EC0CF002E0630E32D0E10EE66E4E
:100A5000300ECEEC0AF02B0EE66E310E26D0C70E0D
:100A6000E66E300E22D0230EDF5C1AE1010E676FB6
:100A7000686B5DC1E6FF020E08EC0BF05EC1E6FF9D
:100A8000010E08EC0BF05FC1E6FFE66AF0EC1DF02A
:100A9000E552E552A70EE66E300ECEEC0AF00BD012
:100AA0008F0EE66E300ED6EC0BF0CEEC0AF0010E97
:100AB0000F01676F686B630E0F01691901E16A51DD
:100AC00001E16FD1740E691901E16A5101E13DD173
:100AD000760E691901E16A5101E1D1D0750E6919EB
:100AE00001E16A5101E1BDD0730E691901E16A515A
:100AF00001E191D0720E691901E16A5101E17AD0E8
:100B00006F0E691901E16A5167E06E0E691901E122
:100B10006A5155E06D0E691901E16A5144E06C0EAD
:100B2000691901E16A5136E06B0E691901E16A51F8
:100B300028E06A0E691901E16A511AE0020E69198A
:100B400001E16A510CE0010E691901E053D16A51CB
:100B500001E050D1210EDF5C01E04CD12CD0440EDD
:100B6000DF5C02E16A0E1AD1210EDF5C26E123D0A0
:100B7000410EDF5C02E16B0E11D1210EDF5C1DE145
:100B80001AD0540EDF5C02E16C0E08D1210EDF5C3E
:100B900014E111D0450EDF5C02E16D0EFFD0210E95
:100BA000DF5C0BE108D03A0EDF5C02E16E0EF6D09E
:100BB000210EDF5C02E1020EF1D0010EEFD0D4EC89
:100BC0000AF001E1551D23E043EC0BF006C062F191
:100BD00007C063F16F0EE1D0D4EC0AF001E1551DBE
:100BE00016E05451010162270F01555101016323A1
:100BF000720ED3D0D4EC0AF001E1551D08E043ECAD
:100C00000BF006C064F107C065F1730EC6D0640E28
:100C1000E66E310EBFD0D4EC0AF001E1551D01E1C2
:100C2000B6D05451010164270F01555101016523CC
:100C30000C0EE66EE66A64C1E6FF65C1E6FFFAECFB
:100C40000AF006E001016451651102E0750EA5D0BD
:100C5000350EE66E300ECEEC0AF02B0EE66E310E3F
:100C600099D0D4EC0AF001E1551D01E190D043EC9C
:100C70000BF006C066F107C067F1760E8ED0D4EC9B
:100C80000AF001E1551D01E182D0545101016627AE
:100C90000F015551010167236651671104E11F0ED1
:100CA000E66E300E9BD001EC0BF0F350F4100CE12B
:100CB0000101673509E266511E08000E675504E21E
:100CC000FD0EE66E2F0E5DD001EC0BF0010EF31859
:100CD0000EE115500CE10101673509E266511F086C
:100CE000000E675504E2C50EE66E2F0E4AD001ECE9
:100CF0000BF0020EF31811E115500FE11EEC0BF092
:100D00000CE10101673509E266511D08000E6755C7
:100D100004E2A30EE66E2F0E34D001EC0BF0020EAF
:100D2000F31811E115500FE11EEC0BF00CE001017E
:100D3000673509E266511C08000E675504E2810E12
:100D4000E66E2F0E1ED0740E28D0D4EC0AF001E10E
:100D5000551D1DE054CF68F155CF69F1070EE66EC1
:100D6000E66A54CFE6FF55CFE6FFFAEC0AF006E05C
:100D700001016851691102E0630E0FD05F0EE66E4B
:100D80002F0ECEEC0AF0E70EE66E2F0E03D0C70E44
:100D9000E66E300ECEEC0AF0010E0F01696F6A6B41
:100DA00029D0230EDF5C1CE1010E696F6A6B62C102
:100DB000E6FF060E08EC0BF064C1E6FF050E08EC3A
:100DC0000BF066C1E6FF040E08EC0BF068C1E6FF0D
:100DD000030E08EC0BF03F0EE66E2F0EDFDB0AD0A1
:100DE000200EE66E2F0ED6EC0BF0D8DB010E0F01B5
:100DF000676F686B0F016351630A60E0AD0A51E0F1
:100E0000030A47E0010A3DE0070A33E0010A27E050
:100E1000030A1CE0010A11E0CA0A06E0030A5CE1C9
:100E2000210EDF5C59E123D0440EDF5C02E1C80EE5
:100E300052D0210EDF5C4EE11AD0480EDF5C02E199
:100E40006B0E49D0210EDF5C45E111D0540EDF5C02
:100E500002E16C0E40D0210EDF5C3CE108D03A0E7E
:100E6000DF5C02E1CB0E37D0210EDF5C33E1020EF6
:100E700032D0DDDB1CE00A0E6603F3CF64FFCC0E3C
:100E80002AD0D5DB14E00A0E6603F3CF64FFCD0E43
:100E900022D0CDDB0CE00A0E6603F3CF65FFCE0E49
:100EA0001AD0C5DB04E066516527630E14D0010E2D
:100EB000636F110EE66E2F0E71DB0ED0230EDF5C1A
:100EC00004E10C0E416F426B07D0000EE66E2F0E50
:100ED00065DB0F01010E636FE552EBD30F01455146
:100EE00002E1010E461901E180D0030E451901E12E
:100EF00046516DE0010E451901E1465141E0455171
:100F000001E1465101E01200F60EE66E2E0EC2EC33
:100F10000BF0EA0EE66E2E0E31EC0CF0CCEC0BF082
:100F20001EE2C20EE66E2E0E39DB910EE66E2E0E1E
:100F300035DB810EE66E2E0E31DB5F0EE66E2E0E79
:100F40002DDB2E0EE66E2E0E29DB1D0EE66E2E0E0E
:100F500025DBABEC0BF0090E0F01416F426B38EC57
:100F60000CF006E2010E0F01456F466B476B486BB4
:100F7000CFEC0BF051E20F01456B010E466F1200F2
:100F80004751481109E0110EE66E2E0EC2EC0BF02F
:100F9000CE0EE66E310E07D0070EE66E2E0EF2DB99
:100FA000110EE66E2E0EF3DB04E20F01456B010E0F
:100FB000466FF5DB03E20F01456B466BEDDB2CE280
:100FC000030E0F01456F466B010E566F12007EEC4B
:100FD0000DF0B4EC0EF00F016C511EE0456B466B4A
:100FE0006C6B050E416F426B1200EA0EE66E2E0E20
:100FF000C9DBF5DBD1DB01E2BCDB38EC0CF003E252
:101000000F01456B466BCBDB07E2010E0F01456F0D
:10101000466B476F486B120012000F014A5102E104
:10102000010E4B1901E1F2D0370E4A1901E14B5183
:1010300001E1C3D0360E4A1901E14B5101E199D0CB
:10104000350E4A1901E14B516EE0340E4A1901E1A7
:101050004B5145E0330E4A1901E14B511CE0320E71
:101060004A1901E14B5101E01200F60EE66E2D0E19
:1010700089DBE50EE66E2D0E8ADB05E2320E27DBFC
:10108000330E4A6F4B6B8BDB04E20F014A6B010E90
:101090004B6F090EB5D0320E4C190AE14D5108E1E3
:1010A000D40EE66E2D0E6EDBC30EE66E2D0E07D04F
:1010B000C30EE66E2D0E66DBB20EE66E2D0E67DBFE
:1010C00005E2330E04DB340E4A6F4B6B68DB05E23E
:1010D000330EFDDA320E4A6F4B6B080E91D0330E91
:1010E0004C190AE14D5108E1E50EE66E2D0E4ADB82
:1010F000A10EE66E2D0E07D0A10EE66E2D0E42DB80
:10110000900EE66E2D0E43DB05E2340EE0DA350E6E
:101110004A6F4B6B44DB05E2340ED9DA330E4A6F6B
:101120004B6B010E6DD0340E4C190AE14D5108E1A4
:10113000B20EE66E2D0E26DB7F0EE66E2D0E07D06C
:101140007F0EE66E2D0E1EDB6E0EE66E2D0E1FDB85
:1011500005E2350EBCDA360E4A6F4B6B20DB05E23A
:10116000350EB5DA340E4A6F4B6BFB0EE66EE66851
:1011700049D0350E4C190AE14D5108E1900EE66E4A
:101180002D0E00DB5D0EE66E2D0E07D05D0EE66EB9
:101190002D0EF8DA4C0EE66E2D0EF9DA05E2360E5B
:1011A00096DA370E4A6F4B6BFADA05E2360E8FDAB3
:1011B000350E4A6F4B6B000E23D0360E4C190AE1E8
:1011C0004D5108E16E0EE66E2D0EDCDA3B0EE66E3A
:1011D0002D0E07D03B0EE66E2D0ED4DA350EE66EE0
:1011E0002D0ED5DA05E2370E72DA4A6B010E4B6F1F
:1011F000D6DA05E2370E6BDA360E4A6F4B6B070E06
:10120000E66EE66A19D8E552E55212004C0EE66E1B
:101210002D0EB8DA2F0EE66E2D0E23DBC0DA02E2B9
:10122000370EA0DA25DB02E2320E9CDAB5DA03E2F1
:10123000070E83EF0BF0120040DAAEDA52E250CF25
:1012400014F051CF15F0FD0EDB50141803E1FE0E23
:10125000DB50151846E0FD0EDBCF08F0FE0EDBCFAD
:1012600009F00F015051085C4E6F515109584F6FF2
:10127000FD0EDBCF50FFFE0EDBCF51FF020E30DA4A
:1012800001015B6F5C6BE8500F014E2501015B6F44
:101290005C510F014F2101015C6F800E5C1508E06D
:1012A000180E5B255B6F000E5C215C6FE66A0DD04B
:1012B0005C350DE25B511708000E5C5508E2180E14
:1012C0005B5F000E5C5B010EE66EA2D8E5525BC16F
:1012D000E6FF020E9DD9010E16DA380E4A6F4B6BEF
:1012E00006D05ADA04E2010E0F01416F426BE1D1E0
:1012F000070E0F01501901E1515124E0505101E155
:1013000051511EE0FB0E501902E1E868511916E038
:10131000010E501901E151510FE0080E501901E181
:10132000515108E0090E501901E1515101E012003C
:10133000320E09D0330E07D0340E05D0350E03D04F
:10134000360E01D0370E4A6F4B6B1200B6D9300EF5
:10135000F36EFE0EDBCFF4FFF350F45C0CE3FE0EF5
:10136000DB50390808E3FE0EDB50D00F156AF36E30
:1013700015C0F4FF02D0F368F4689BD19ED9FD0E2E
:10138000DBCF14F0FE0EDBCF15F0FB0EDBCF16F03B
:10139000FC0EDBCF17F017501518E8AE02D015344D
:1013A00004D01450165C1550175802E2F36A02D0AC
:1013B000010EF36EF46A7DD180D9E150FD0FE96E24
:1013C000FF0EDA20EA6E020EEE1804E1ED5002E1A3
:1013D000020E1BD061D9040EEE1801E1ED5012E0AF
:1013E0005BD9060EEE1801E1ED500CE055D9090E5F
:1013F000EE1801E1ED5006E04FD90B0EEE1804E1B6
:10140000ED5002E1F36A02D0010EF36EF46A51D19D
:1014100054D9040EE12664D9DF6E030E61D9E76E5C
:10142000010EE7CFDBFF050E5BD9E76E020EE7CFBB
:10143000DBFF060E55D9E76E030EE7CFDBFFFE0E8E
:10144000DB5039E1DF06010EDB06F36EDBCFF4FF84
:10145000E850F45C03E2DE52070EDD6E010EDF5C45
:101460006DE2020EDB0407E11F0EDF6E0C0E85D964
:10147000030EDB0663D08BD8F350F41004E1020EA8
:10148000DB061F0E5AD0E8D90AE1155008E1020E1A
:10149000DB50030804E0010E70D91E0E4ED0DCD9DB
:1014A0004DE115504BE1030EDB50030B02E11D0E25
:1014B00044D01C0E42D0DF2A010EDB2ADB50070885
:1014C00003E2DE52010EDD6E020EDB500C080AE173
:1014D000DF501F0807E2010E50D9010EDF6E030E28
:1014E000DB2A2CD054D8F350F41003E1DF501E084F
:1014F00021E3B2D905E1155003E1DF501F081AE3DB
:1015000046D8020EF31809E1155007E1030EDB502F
:10151000030B03E1DF501D080DE339D8020EF31869
:101520000DE115500BE1030EDB50030B07E0DF501C
:101530001C0804E2020EDB2A010EDF6EDFCFE6FF9D
:10154000040E66D8010EDBCFE6FF030E61D8020E53
:10155000DBCFE6FF050E5CD8030EDBCFE6FF060E01
:1015600057D8146E040EE15C02E2E16AE552E16EC6
:1015700014509FD0D2EC14F0E552E552E552E552FA
:101580001200E66E68EC1BF0E55200081200020E35
:10159000DBCFE6FFE66A10DFDFEF0BF0E66E85ECEF
:1015A0001AF0E552E552120034D9F3CF54FFF4CFCC
:1015B00055FF0F01F31C12005D29146E140E156EF9
:1015C0000E6E14C009F0A7EC20F005C05DFF0F01FE
:1015D00005500F0812001DD9F3CF52FFF4CF53FF6F
:1015E0000F01F31C120015C0E6FF16C0E6FF17C07E
:1015F000E6FF1200C3DEE552E552E1D8F350F410E5
:10160000120064C1E6FF65C1E6FFD6DEDFEF0BF036
:10161000E66E42EC1EF0E552E5521200E66E010E57
:1016200011EF0CF041CF43FF42CF44FF1200F1D83D
:10163000F3CF66FFFF0E0F01F35C120062C116F0DC
:1016400063C117F0040E0D6E0E6A62C108F063C12B
:1016500009F02BEC1FF004C016F005C017F0045081
:1016600005101200E66A4DEC1EF0E5520F01616FA5
:10167000626B12000A0E086E096A52CF0DF053CF4A
:101680000EF07EEF1FF00A0E086E096A54CF0DF0BF
:1016900055CF0EF07EEF1FF0D950FD0FE96EFF0E13
:1016A000DA20EA6E1200E66E68EC1BF0E5520009E3
:1016B0001200E552E7CFD9FF1200D9CFE6FFE1CF04
:1016C000D9FF12009E0EE66E310EE66E12000F017B
:1016D0004C6F4D6B1200A00EE66E310EE66E1200DE
:1016E000E66E4DEC1EF0E5521200010E156A5F2504
:1016F000146E605115221450611912009C0EE66E92
:10170000310EE66E1200ACD0156A166A176A120026
:101710006E6B6F6B706B716B01016A6B120057CF50
:1017200014F058CF15F0166A176A120059CF14F04A
:101730005ACF15F0166A176A12005BCF14F05CCF0F
:1017400015F0166A176A12007D0EE66E310EE66E0F
:101750000C0EE66E120001016F6B0101706B01014E
:10176000716B12000F014A6F4B6B4C6B010E4D6F8A
:101770001200050E75D00A0E73D0F36E020EF3CF71
:10178000DBFF1200E66EE66AE66ABAEF0AF069D895
:1017900038EF0CF0E66E74D0060EC1EF0AF0040EBE
:1017A000C1EF0AF014C0E6FFF3EF0AF0F7DE720EA5
:1017B000E66E300EF3DE590EE66E300E1200E55284
:1017C000E552F3CF14F0F4CF15F01200E66A4DECB9
:1017D0001EF0E5520F015F6F606B32EF0BF0B30E3E
:1017E000E66E310E31EF0CF06ECF14F08DDF6ECF60
:1017F000E6FFF3EF0AF06FCF14F086DF6FCFE6FF5E
:10180000F3EF0AF070CF14F07FDF70CFE6FFF3EF55
:101810000AF0DFCFE6FF9ADDE55212005CDFE66AF0
:101820002FD0E66E84EC14F0186E060EE15E1850B0
:101830001200F8DE030E18D0F5DE040E15D0F2DE2D
:10184000020E12D0EFDE070E0FD0E8DE7EEF0BF0B7
:10185000E66EE66AFAEF0AF09ADE010EF31812005D
:1018600003D0E66EE66A0CD00F01416F426B1200A6
:10187000050EC1EF0AF0E9DF060E8CDF0A0E12003A
:08188000010EE66EBAEF0AF05A
:08188800D9CFE6FFE1CFD9FF43
:10189000020EE126DE6ADD6A6CD8FAEC12F0DBECAF
:1018A00013F0CAD871EC11F0210EE66E2D0EE66E23
:1018B000060EE66EE66ABCEC13F0E552E552E55220
:1018C000E552D00EE66E070EE66E0FD8E552E552F1
:1018D00001013351FDE0336BDBEC13F046EC1BF000
:1018E00040EC00F003EC14F0F3D7D9CFE6FFE1CFE2
:1018F000D9FF040EE126DE6ADD6ADECF14F0DDCF0B
:1019000015F0FD0EDBCF16F0FE0EDBCF17F01550F5
:101910001718E8AE02D0173404D01650145C1750D4
:1019200015581DE2020EDB6A030EDB6A020EDBCFE6
:1019300014F0030EDBCF15F0D890155004E6EE0E30
:10194000145C000E155806E2020EDB2A030EEEE3CD
:10195000DB2AECD7DF2A010ED0E3DB2ACED7040E38
:10196000E15C02E2E16AE552E16EE552E7CFD9FFC0
:101970001200936A956A74EC12F07BEC1EF071EC25
:1019800011F0570EE66E120EE66E63EC1CF0E55297
:10199000E552AE0EE66E240EE66E79EC1CF0E552D2
:1019A000E552660EE66EB70EE66EA8EC1CF0E55248
:1019B000E552020EE66EE66A01EC1DF0E552E552D4
:1019C0000A0EE66EE66A0DEC1DF0E552E5520A0ECF
:1019D000E66EE66A26EC1DF0E552E5521BEC1BF0C4
:1019E000B7EC1DF045EF19F00101370E486F3B0EC3
:1019F000496F170E4A6F070E4B6F1F0E4C6F0C0E80
:101A00004D6F0D0E4E6F48C1E6FFE66A42EC1EF0C8
:101A1000E552E55249C1E6FF010E20EC11F04AC142
:101A2000E6FF020E20EC11F00BEC12F010EC12F0BD
:101A300015EC12F01AEF12F0200EB6EC11F022089D
:101A400015E0D2DFE66A100E20EC11F0E66A110E06
:101A500020EC11F0E66A120E20EC11F0E66A130E8B
:101A600020EC11F0220EE66E200EEADB1200100EC2
:101A7000B6EC11F00101526F110EB6EC11F001013C
:101A8000536F120EB6EC11F00101546F130EB6EC49
:101A900011F00101586F1200E7DB146E5EEC11F0DB
:101AA000E66ED4DBE66AE66AD8DB4DC114F05EEC84
:101AB00011F04DC1E6FFCADB030EECEC11F0D4ECE3
:101AC00011F0060EECEC11F04BC114F05EEC11F0CD
:101AD0004BC1E6FFBBDB090EECEC11F0BFEC11F0E3
:101AE000E66A010EE66EB9DBC6EC11F0030EF0EC0F
:101AF00011F0CDEC11F0060EF0EF11F0B5DB4B510B
:101B0000070A24E0010A1EE0030A18E0010A12E0B5
:101B1000070A0CE0010A06E0030A1EE11D0EE66E4C
:101B20002D0E17D0190EE66E2D0E13D0150EE66E83
:101B30002D0E0FD0110EE66E2D0E0BD00D0EE66E93
:101B40002D0E07D0090EE66E2D0E03D0050EE66EA3
:101B50002D0EE66E22EC12F00A0E01014A5D08E23B
:101B6000B6DB040EBBEC11F0BFEC11F0050E03D098
:101B7000BFEC11F0040EECEC11F0E6DB060EBBEC52
:101B800011F00A0E0101495D08E2A1DB070EBBEC72
:101B900011F0C6EC11F0080E03D0C6EC11F0070EE0
:101BA000ECEC11F0D1DB090EE6DB0A0E0101485D19
:101BB00007E28DDB0A0EDFDBCDEC11F00B0E02D05D
:101BC000ECDB0A0EECEC11F001015451010A06E0C5
:101BD000010A0AE1FD0EE66E2C0E03D0F90EE66E48
:101BE0002C0EE66E0D0EC7DB0F01565106E0F50E0A
:101BF000E66E2C0EE66E0D0EBEDB01014D510C0A99
:101C000042E0070A3CE0010A36E0030A30E0010A3C
:101C10002AE00F0A24E0010A1EE0030A18E0010A84
:101C200012E0070A0CE0010A06E0030A32E1F10EB5
:101C3000E66E2C0E2BD0ED0EE66E2C0E27D0E90EA4
:101C4000E66E2C0E23D0E50EE66E2C0E1FD0E10EB4
:101C5000E66E2C0E1BD0DD0EE66E2C0E17D0D90EC4
:101C6000E66E2C0E13D0D50EE66E2C0E0FD0D10ED4
:101C7000E66E2C0E0BD0CD0EE66E2C0E07D0C90EE4
:101C8000E66E2C0E03D0C50EE66E2C0EE66E020E2E
:101C90006ADB5FDB050E67DB0A0E01014C5D06E2C5
:101CA00058DB060E60DB80DB070E02D07DDB060E04
:101CB00097DB4FDB080E57DB140EE66EE66AE66A2A
:101CC000E66A090EF7DA24DB0A0E01014E5D0AE22C
:101CD000E66AE66AE66AE66A0B0EECDA19DB86DB90
:101CE0000C0E02D083DB0B0EF0EF11F0B20EE66E9D
:101CF0002C0EE66EA7DBE6DAE66A010EE66E93DAF4
:101D00000A0E0101525D06E2E2DA020E2CDB75DBFF
:101D1000030E02D072DB020E63DB16DB040E23DB44
:101D20000A0E0101535D06E2D2DA050E1CDB6CDB04
:101D3000060E02D069DB050E53DBCEDA070E13DB8D
:101D400001015451010A06E0010A0AE1FD0EE66EA6
:101D50002C0E03D0F90EE66E2C0EE66E0A0E03DB97
:101D6000BBDA0D0EB3EF11F001015051FF0A01E192
:101D7000F6D0F40A01E1D0D0010A01E1AAD0030AA9
:101D800001E184D0010A5FE00F0A36E0010A0DE0AC
:101D9000060A01E012001ADB01E1F5D00101590544
:101DA00001E0F1D0060E506F120049DB03E28ADA3F
:101DB000040EE1DA0EDB09E001014A299BDA05C0D5
:101DC0004AF105C0E6FF020E3BDA0DDB0CE0010133
:101DD0004A054A6FE850170802E2170E4A6F4AC1D7
:101DE000E6FF020E2DDAF2DA03E00101070E506F72
:101DF0005ADA01E1C8D0B0D022DB03E263DA070E81
:101E0000BADAE7DA09E00101492978DA05C049F1CF
:101E100005C0E6FF010E14DAE6DA0CE0010149051F
:101E2000496FE8503B0802E23B0E496F49C1E6FFAB
:101E3000010E06DACBDA03E00101080E506F33DA47
:101E400001E1A1D089D0FBDA02E246DAFBDAC1DA9D
:101E500009E001014B294B6FE850070802E2010E2F
:101E60004B6FD9DAC0DA09E001014B054B6FE8503E
:101E7000070802E2070E4B6FCEDAA8DA03E0010191
:101E8000090E506F10DA01E17ED066D0D8DA03E295
:101E900019DA060E68DA9DDA09E001014C294C6F67
:101EA000E8501F0802E2010E4C6FBADA9CDA09E032
:101EB00001014C054C6F010E4C5D02E21F0E4C6F90
:101EC000AFDA84DA03E001010A0E506FECD95BE06F
:101ED00043D0B5DA03E200DA020E45DA7ADA09E035
:101EE00001014D294D6FE8500C0802E2010E4D6FC3
:101EF0009CDA79DA09E001014D054D6F010E4D5D67
:101F000002E20C0E4D6F91DA61DA03E001010B0E73
:101F1000506FC9D938E020D092DA03E21FDA090EF7
:101F200022DA57DA08E001014E294E6FE8506308C3
:101F300001E24E6B7FDA57DA09E001014E054E6F80
:101F4000630E4E5D02E2630E4E6F74DA3FDA02E01A
:101F5000D9D95069A8D917E0D5D9506B1200596B5F
:101F6000CDDD010156D903E2F9D90C0E04DA2EDADF
:101F700005E0D5D90F016C6F0F01566B2ADA02E12B
:101F800032DA01E0CCD9120001014F51FF0A01E120
:101F900084D0FC0A5DE0010A35E0030A0DE0010A85
:101FA00001E0120013DA01E187D00101590501E0D7
:101FB00083D0010E4F6F1200FED903E283D9020EC7
:101FC000D2D907DA09E00101522994D905C052F1AA
:101FD00005C0E6FF100E34D906DA0CE00101520507
:101FE000526FE850170802E2170E526F52C1E6FF17
:101FF000100E26D9EBD903E00101020E4F6F53D921
:102000005BE048D0D8D903E25DD9050EACD9E1D95F
:1020100009E00101532972D905C053F105C0E6FF5B
:10202000110E0ED9E0D90CE001015305536FE850B1
:102030003B0802E23B0E536F53C1E6FF110E00D97D
:10204000C5D903E00101030E4F6F2DD935E022D031
:10205000B2D903E241D90A0E86D9BBD907E0010102
:102060005429010B546FE66E120EEAD8BCD90CE06D
:1020700001015405546FE850010802E2010E546F4B
:1020800054C1E6FF120EDCD8A1D902E001014F696C
:102090000AD912E037D94F6B12008DD903E25ED90D
:1020A0000A0E69D996D902E19ED901E03FD98ED9AD
:1020B00003E03CD90F016B6F12000101010E0819FA
:1020C00003E1095101E1010C000C01010A0E08199C
:1020D00003E1095101E1010C000C0101010E10198D
:1020E00003E1115101E1010C000C01010A0E10196C
:1020F00003E1115101E1010C000C0101010E0A196B
:1021000001E10B5115E00A0ED8800A55000E0B555F
:1021100010E20AC114F00BC115F0030E0D6E0E6A29
:102120000AC108F00BC109F008D903E1155001E11B
:10213000010C000C0101010E121901E1135115E00F
:102140000A0ED8801255000E135510E212C114F079
:1021500013C115F0030E0D6E0E6A12C108F013C103
:1021600009F0EBD803E1155001E1010C000C01016D
:1021700052514A5D0AE15351495D07E1485105E179
:10218000540503E1590501E1010C000C0101515115
:10219000050A16E0010A05E0040A01E01200040E37
:1021A0000DD0E5DF000906E00101010E586FE66E73
:1021B000130E46D8010158512BE0050E516F120045
:1021C000596B5A29146E140EFBD805C05AF10A0E29
:1021D0000101055C02E2DBEC13F00101562B000E5D
:1021E0005723900ED8805655010E575502E3F1D86B
:1021F0000FE00101010E596F586B58C1E6FF130E35
:102200001FD80101566B576BDBEC13F00101516BCA
:1022100012005529146E140ED3D805C055F10101D2
:1022200005500F081200D2EC14F0E552E552E552C9
:10223000E5521200E66E68EC1BF0E5520009120050
:10224000E66E42EC1EF0E552E552120015C0E6FFC4
:1022500016C0E6FF17C0E6FF120084EC14F0186EFB
:10226000060EE15E18501200E66A4DEC1EF0E552D3
:102270000101486F010E7AD80101496F020E76D82C
:1022800001014A6F030E72D801014B6F040E6ED824
:1022900001014C6F050E6AD801014D6F060E66D81C
:1022A00001014E6F1200060EE66E72EC1BF0E55255
:1022B00000091200E66E010EE66E1200156A166A3B
:1022C000176A1200AF0EE66E2C0EE66E1200030EB9
:1022D000E66E2D0EE66E1200AB0EE66E2C0EE66E6E
:1022E0001200E80EE66E030EE66E75EC0CF0E55299
:1022F000E5521200146E180EE0EF11F0146E3C0E51
:10230000E0EF11F0DBEC13F00101010E596F120048
:1023100084EC14F0146E060EE15E14501200DBEC37
:1023200013F00101506B010E596F1200DBEC13F03A
:1023300001014F6B010E596F120073EC20F005C0C4
:1023400015F0010E04181200010EE66E2D0EE66E59
:102350001200C30EE66E2C0EE66E1200A60EE66E9E
:102360002C0EE66E1200A6DF13EF11F0E66E4DECB8
:102370001EF0E5521200E66EE66A13EF11F04AC154
:1023800014F09CDF4AC1E6FF26EF11F049C114F0BA
:1023900095DF49C1E6FF26EF11F048C114F08EDF4A
:1023A00048C1E6FF26EF11F04CC114F087DF4CC1A5
:1023B000E6FF26EF11F0596B99DC010109EF11F0EE
:1023C000156E0E6E14C009F0A7EF20F0060E1AEF7E
:1023D00011F0040E1AEF11F0E66EE66A2DEF11F01F
:1023E00069DF2DEF11F0050E1AEF11F04EC114F058
:1023F00065DF4EC1E6FF26EF11F052C114F05EDF3B
:1024000052C1E6FF26EF11F053C114F057DF53C15C
:10241000E6FF26EF11F04BC1E6FF030E20EF11F0AF
:102420004CC1E6FF040E20EF11F04DC1E6FF050E92
:1024300020EF11F04EC1E6FF060E20EF11F0596BB0
:0C24400009EF11F0E66AE66A13EF11F0F4
:04244C003AEC16F060
:102450007BDB15AE02D01668176820DB13E289DB40
:1024600049DB04E6050E145C000E155806E2020E68
:10247000DB2A030EF5E3DB2AF3D7DF2A010EE8E3BC
:10248000DB2AE6D7040EE15C02E2E16AE552E16E86
:10249000BBD2F0DB59DB15AE02D016681768FEDA46
:1024A00013E267DB27DB04E6EE0E145C000E155822
:1024B00006E2020EDB2A030EF5E3DB2AF3D7DF2A5E
:1024C000010EE8E3DB2AE6D7040EE15C02E2E16AF2
:1024D000E552E16E99D2D4DBF00B6BDBFE0EDB38FC
:1024E000F00B811278DA90D2C2DB190E50DB0F0E9E
:1024F0008116F80E81160F0E8116300E5ADB300E43
:1025000058DB300E56DB818A66DA280EE66EE3DF92
:10251000E5520C0EE66EDFDFE552E55275D29DDB2B
:10252000010EDB6A81944ADBE76E010EE7CFDBFF29
:10253000819644DBDF6E010EDB50DF128196010EC7
:1025400051DADF50146E020EE15C02E2E16AE552FC
:10255000E16E145059D28BDBDF6AE1DFDF6EDFBE44
:10256000FCD7DF50E55250D28BDB81128186050EFD
:1025700039DA8196050E36DA47D241DA8194050EB2
:1025800031DA98DA41D23BDA8184050E2BDA92DA1D
:1025900081943AD23BD33AD332DAFD0EDBCFF6FF49
:1025A000FE0EDBCFF7FF0800F5500DE0FD0EDBCF90
:1025B000F6FFDB2AFE0EDBCFF7FF01E3DB2A080084
:1025C000F5501BDBEAD720D252DBFD0EDB500F0BA0
:1025D000146EFE0EDB50010B400DF3501424DF6E21
:1025E0007F0EDF14800FDF6EDFCFE6FFC6DFE55220
:1025F000E5520AD2010EE66EC0DFE552E66AE66AEF
:1026000046EF16F0FCD9050EE126010EF36EDB6EE7
:10261000B0DA040EDB6ADF6ADFCF14F0156A14BE8D
:10262000156899DA15501718E8AE02D0173404D09F
:102630001650145C175015581FE2FD0EDBCF14F036
:10264000FE0EDBCF15F0166A176A15AE02D01668BB
:102650001768D950010FE96EDACFEAFF14C00BF00A
:1026600015C00CF016C00DF017C00EF0DBDAFAEC56
:102670001FF0E1DADF2AD0D7010EDBCF14F0020E13
:10268000DBCF15F0030EDBCF16F0040EDBCF17F017
:1026900014C006F015C007F016C008F017C009F006
:1026A000050EE15C02E2E16AE552E16EADD1D5DAF8
:1026B000FB0EDBCF14F0FC0EDBCF15F0FD0EDBCFF5
:1026C00016F0FE0EDBCF17F0145015101610171071
:1026D00003E1300E92DA36D0D950FB0F14DA01E65E
:1026E00018DA05E22D0E89DAD950FB0FCAD9DE526D
:1026F000070EDD6E37DAE8AE02D0143403D0E750AF
:10270000D88014541FE217DA18BE196871D936DA66
:102710005EDA08DA0BE0010EDF6EDB041C6E1D6A68
:102720001CBE1D6883D953DA9FD903D0DF5002E065
:10273000300E63DA00DA18BE19685AD9D950FB0F87
:102740006CD9D8D7020EE15C02E2E16AE552E16E93
:102750005BD155D9C7D9D950F90F53DAEECFE6FF7F
:10276000EECFE6FFEECFE6FFEFCFE6FFA0DFE552CC
:10277000E552E552E55248D142D9B4D9FB0EDBCF40
:10278000E6FFFC0EDBCFE6FF07DFE552E5523CD16A
:1027900036D9FCC014F0FDC015F0040ED8901436E4
:1027A0001536E806FBE192D9FE0EDBCFEFFFFE2BDC
:1027B000000EFF2329D15BDADF6ADFCF14F0100EA1
:1027C000E76E1418E8AE02D0E73402D0E750145C8C
:1027D00018E2DFCFE9FFEA6AE9BEEA68C10EE9263E
:1027E000000EEA22200EEF6EDFCFE9FFEA6AE9BEB3
:1027F000EA68D10EE926000EEA22200EEF6EDF2AEB
:10280000DCD7E55201D133DA0001C051030A29E0D7
:10281000010A1CE0030A0CE0010A32E13BDA080E6F
:10282000DF5C03E2DF50B9D9FAD70001010E17D0FF
:10283000080EE66EE66A09D9080EDF5C04E2080EAF
:10284000DF24ABD9F9D70001020E09D00BDA080E4C
:10285000DF5C03E2DF50A7D9FAD70001030EC06F97
:1028600010D0080EE66E010EE66EEFD8080EDF5CA3
:1028700004E2080EDF2497D9F9D70001C06B01D01C
:10288000C06BE552C1D0F3D90001C051010A0DE07F
:10289000010A15E1FFD9100EDF5C03E2DF507DD99C
:1028A000FAD70001010EC06F0BD0DCD9100EDF5C2F
:1028B00003E2DF5078D9FAD70001C06B01D0C06BBA
:1028C000E552A2D0D4D9E6D9100EDF5C03E2DF5086
:1028D00064D9FAD7C7D9100EDF5C03E2DF5063D9A1
:1028E000FAD7E55291D08BD8B3D8FCC014F0FDC014
:1028F00015F0040ED89014361536E806FBE1E6D83C
:10290000FC0EDBCFEFFF80D0A8D9A2D8F90EDBCF29
:1029100014F0FA0EDBCF15F01ED914501510161056
:10292000171003E1300E0CD936D0D950F90FEBD87F
:1029300001E6EFD805E22D0E03D9D950F90FA1D841
:10294000DE52070EDD6E0ED9E8AE02D0143403D08D
:10295000E750D88014541FE2EED818BE196848D842
:102960000DD940D9DFD80BE0010EDF6EDB041C6E01
:102970001D6A1CBE1D685AD835D976D803D0DF50E1
:1029800002E0300EDDD8D7D818BE196831D8D9503A
:10299000F90F43D8D8D7020EE15C02E2E16AE552B2
:1029A000E16E32D02CD854D8FB0EDBCFF6FFFC0EF4
:1029B000DBCFF7FF0800F5500DE0FB0EDBCFF6FF95
:1029C000DB2AFC0EDBCFF7FF01E3DB2A0800F55022
:1029D000B7D8EAD719D08186010ED9D88196010ED1
:1029E000C7EF15F0E66EE66AE66AE66A2FDD56D1B5
:1029F00018C0E6FF19C0E6FF10D924EF16F0D9CFB2
:102A0000E6FFE1CFD9FF1200E552E7CFD9FF120070
:102A1000EA22EF50F2D8DF2A1200F3D8AFD802D959
:102A200032EC20F008D9010EDB0612001CC0E6FFD4
:102A30001DC0E6FFF2D806C018F007C019F008C0A4
:102A40001AF009C01BF0BEEF15F020D9DF6A1200A2
:102A5000FE0EDB50010B0001FC6FFD6BFD0EDB5029
:102A60000F0BFE6FFF6B1200DBCF09F032EC20F092
:102A7000EBD8300E1426000E152216221722145001
:102A80001200BFD8000EEE6CEF1EEE22EF1EEE22FB
:102A9000EF1EEF22ED52ED52ED521200D950FB0F16
:102AA000B0D8EE50145CEE501558EE501658EE505B
:102AB00017581200FE0EDBCFE6FF56DDE552FE0E84
:102AC000DB38F00BE66E50DDE5521200C10E142625
:102AD000000E152214500001FE25E96E1550FF214D
:102AE000EA6E1200FD0EDBCFE6FFFE0EDBCFE6FF47
:102AF00046EF16F0020EDBCF14F0030EDBCF15F01D
:102B0000D890155012007DD8D890030EEB50000AD3
:102B10001200000EEE5C000EEE58000EEE58000E95
:102B2000EE581200DBCF09F032EC20F0065007100F
:102B3000081009101200010EDB04186E196A120049
:102B4000E66E26DEE5521200DECF14F0DDCF15F082
:102B5000166A176A1200FB0EDBCF16F0FC0EDBCFF5
:102B600017F01200010EDBCF14F0000EE76E141800
:102B70001200020EDB6A030EDB6A120006C00BF0C5
:102B800007C00CF008C00DF009C00EF01200E66E90
:102B9000E66AE66AE66A7DDC81D0EA6AC10FE96E20
:102BA000000E08EF15F0EA6AD10FE96E000E08EF8B
:102BB00015F0811210DF0F0E811612000F0E12DFBA
:102BC0000F0E811281860EDF0F0E81141200FB0E94
:102BD000DBCF06F0FC0EDBCF07F0FD0EDBCF08F0FD
:102BE000FE0E1200F90EDBCF06F0FA0EDBCF07F077
:102BF000FB0EDBCF08F0FC0E1200E66ECCDCE552DB
:102C00001200E96EFF0EDA20EA6E1200F8DEFE0E08
:102C1000DBCFE6FFB8DCE552F7D60A0EE66EE66AD1
:102C2000F1DC3CD0EECF06F0EECF07F0EECF08F0AF
:102C3000EFCF09F0120005C0EDFF04C0EDFF03C0A7
:102C4000EDFF02C0EFFF120006C014F007C015F040
:102C500008C016F009C017F01200D1DE020EE126FE
:102C6000DF6A1200E66A010EE66E25EF15F0C7DE98
:102C7000E6521200C4DE040EE126DE6ADD6A1200AE
:102C8000BEDE0F0E8116FE0EDB5012009DDCE552FB
:102C9000E5521200E66AE66A25EF15F0E552E552C4
:062CA000E552E5521200AE
:0A2CA6002020202000202020002024
:102CB00020002020414C41524D2020204241434BD6
:102CC0002020002000444543004E4F56004F4354FF
:102CD0000053455000415547004A554C004A554E57
:102CE000004D415900415052004D4152004645426D
:102CF000004A414E004F4B20004F4E20004F4646A9
:102D0000003A00300053415400465249005448559F
:102D10000057454400545545004D4F4E0053554E05
:102D2000004449474954414C20434C4F434B003EDB
:102D30004241434B00204241434B003E48414E4FED
:102D400049202020205554432B3037002048414E45
:102D50004F49202020205554432B3037003E4C4F04
:102D60004E444F4E2020205554432B303000204CF1
:102D70004F4E444F4E2020205554432B3030003EC0
:102D80004E4557594F524B20205554432D30350056
:102D9000204E4557594F524B20205554432D303526
:102DA000003E5041524953202020205554432B309F
:102DB0003100205041524953202020205554432BAC
:102DC0003031003E4245494A494E47202055544340
:102DD0002B30380020544F4B594F20202020555481
:102DE000432B303900204245494A494E472020555F
:102DF00054432B3038003E544F4B594F2020202055
:102E00005554432B30390020557365205541525499
:102E1000003E55736520427574746F6E0021444105
:102E200054453A59594D4D444464230D0A000D0A46
:102E3000546F2073796E6368726F6E697A6520646F
:102E40006174652C207573696E672073796E746187
:102E50007820617320666F6C6C6F773A0D0A0054AE
:102E600068652074696D65206E65656420746F20E7
:102E700062652032342D6820666F726D61740D0AB0
:102E8000002154494D453A48484D4D5353230D0AAE
:102E9000000D0A546F2073796E6368726F6E697AE1
:102EA000652074696D652C207573696E6720737970
:102EB0006E74617820617320666F6C6C6F773A0D69
:102EC0000A000D0A57656C636F6D6520746F2041B1
:102ED0006C61726D20436C6F636B20636F6E736FF8
:102EE0006C65206D656D750D0A0020557365204277
:102EF0007574746F6E003E557365205541525400D1
:102F0000436F6E6669726D204572726F72210D0A91
:102F10000052656164206572726F7220210D0A0093
:102F20000D0A4E65656420636F6E6669726D20647C
:102F3000617465206368616E676520210D0A000D6C
:102F40000A436F6E66696775726174696F6E2044BB
:102F50006174652053756363657373210D0A000DF9
:102F60000A44415445206D75737420626520696E72
:102F70002072616E6765205B312C375D20210D0A60
:102F8000000D0A446179206D7573742062652069B3
:102F90006E2072616E6765205B312C32385D2021B6
:102FA0000D0A000D0A446179206D75737420626505
:102FB00020696E2072616E6765205B312C32395D4D
:102FC00020210D0A000D0A446179206D757374206B
:102FD000626520696E2072616E6765205B312C33FB
:102FE000315D20210D0A00506C6561736520656EAE
:102FF00074657220616761696E210D0A000D0A44D3
:103000006179206D75737420626520696E2072612C
:103010006E6765205B312C33305D20210D0A000D79
:103020000A20446179206D757374206265203E200A
:1030300030210D0A000D0A4D6F6E7468206D757396
:103040007420626520696E2072616E6765205B3155
:103050002C31325D20210D0A000D0A506C65617320
:103060006520656E74657220616761696E20210D4F
:103070000A000D0A43686172616374657220636FB0
:103080006E6669726D206973202723270D0A000D73
:103090000A4E65656420636F6E6669726D2074699F
:1030A0006D6520210D0A000D0A436F6E6669677514
:1030B000726174696F6E2054696D65205375636326
:1030C000657373210D0A000D0A506C6561736520EC
:1030D000656E746572206E756D62657220210D0AD1
:1030E000000D0A5365636F6E64206D757374206202
:1030F0006520696E2072616E6765205B302C353902
:103100005D20210D0A000D0A4D696E757465206DF4
:1031100075737420626520696E2072616E67652028
:103120005B302C35395D20210D0A00706C656173B0
:103130006520656E74657220616761696E210D0A94
:10314000000D0A486F7572206D75737420626520DA
:10315000696E2072616E6765205B302C32335D20B2
:10316000210D0A000D0A506C6561736520656E744F
:103170006572206E756D626572210D0A0020202037
:10318000200052554E0053544F500054494D455263
:1031900020434C4F434B204241434B003A00300008
:1031A00020200020202053544F50205741544348A2
:1031B0002020003E4261636B004F4B005265636507
:1031C0006976696E6720646174612E2E2E0020423C
:1031D00061636B003E5765617468657200205765D6
:1031E0006174686572003E576F726C642054696D3B
:1031F00065007761726520746F204D6F6469667930
:1032000000506C65617365206F70656E20736F662A
:10321000740020576F726C642054696D65003E54D1
:10322000696D65204D6F64696679002054696D652C
:10323000204D6F64696679003E54696D6572204364
:103240006C6F636B002054696D657220436C6F6313
:103250006B003E436F756E74657220436C6F636BD9
:103260000020416C61726D20436C6F636B002043E2
:103270006F756E74657220436C6F636B003E416CBA
:0A32800061726D20436C6F636B00F8
:06328A00B06A810EAF6E78
:10329000AC8AAC94B886AC98AB8EAB889E9A9D8A6B
:1032A0009F8A949C948E120069D9040EE126DE6AEE
:1032B000DD6ADECF14F0DDCF15F097D91550171861
:1032C000E8AE02D0173404D01650145C17501558CD
:1032D0001DE2020EDB6A030EDB6A020EDBCF14F086
:1032E000030EDBCF15F0D890155004E6EE0E145CFB
:1032F000000E155806E2020EDB2A030EEEE3DB2A6F
:10330000ECD7DF2A010ED5E3DB2AD3D7040EE15C2C
:1033100002E2E16AE552E16E36D130D99EA8FED7CD
:10332000FE0EDB50AD6E9E982ED128D956D908E0FE
:1033300054D934D9FD0EDB2AFE0EF8E3DB2AF6D78A
:1033400022D11CD9050EE126010EF36EDB6E020EB2
:10335000DB6A030EDB6A040EDB6ADF6ADFCF14F080
:10336000156A14BE1568FB0EDBCF16F0FC0EDBCF22
:1033700017F015501718E8AE02D0173404D01650C5
:10338000145C175015581FE2FD0EDBCF14F0FE0E33
:10339000DBCF15F0166A176A15AE02D016681768EB
:1033A000D950010FE96EDACFEAFF14C00BF015C057
:1033B0000CF016C00DF017C00EF0F4D8FAEC1FF0A8
:1033C000FAD8DF2ACBD7010EDBCF14F0020EDBCF09
:1033D00015F0030EDBCF16F0040EDBCF17F014C090
:1033E00006F015C007F016C008F017C009F0050E6A
:1033F000E15C02E2E16AE552E16EC5D0BFD8020E9F
:10340000E126DF6AFB0EDBCF14F0FC0EDBCF15F0FC
:10341000ECD8145015101610171003E1300EBED85A
:103420006DD0B5D8D890030EEB50000A08E6000E18
:10343000EE5C000EEE58000EEE58000EEE580EE256
:103440002D0EACD8A4D8000EEE6CEF1EEE22EF1EAF
:10345000EE22EF1EEF22ED52ED52ED52DE520A0E39
:10346000DD6E010EDBCF14F0000EE76E1418E8AE2F
:1034700002D0143403D0E750D88014543FE2010E38
:10348000DB04186E196A18BE196871D861D8065025
:103490000710081009101EE0010EDF6EDB041C6E21
:1034A0001D6A1CBE1D681CC0E6FF1DC0E6FFA4D837
:1034B00006C018F007C019F008C01AF009C01BF0C8
:1034C00047D8A3D8300E1426000E15221622172234
:1034D000145003D0DF5002E0300E60D8010EDB0440
:1034E000186E196A18BE196842D851D897D85AD898
:1034F00032EC20F060D8010EDB06B3D7020EE15C9F
:1035000002E2E16AE552E16E3ED038D85DD80CE0C7
:103510005BD844D8FD0EDBCFF6FFDB2AFE0EDBCFF7
:10352000F7FFF4E3DB2AF2D72ED028D8E652AE50CC
:10353000DF6E01016F51EA6A010FE96E0F0EEA2298
:10354000DFCFEFFF6F293F0B6F6F712BE5521BD061
:1035500065D8FB0EDBCF06F0FC0EDBCF07F0FD0ECF
:10356000DBCF08F0FE0EDBCF09F032EF20F018C001
:10357000E6FF19C0E6FF40D805EF1BF0D9CFE6FF04
:10358000E1CFD9FF1200E552E7CFD9FF1200D950A1
:10359000FB0FE96EFF0EDA20EA6E1200E66EBDDE6A
:1035A000E5521200EECF06F0EECF07F0EECF08F0B6
:1035B000EFCF09F0120005C0EDFF04C0EDFF03C01E
:1035C000EDFF02C0EFFF1200FD0EDBCFF6FFFE0E97
:1035D000DBCFF7FF0800F5501200FD0EDBCFE9FF4F
:1035E000FE0EDBCFEAFFEF501200FD0EDBCF16F030
:1035F000FE0EDBCF17F012000A0EE66EE66AA1DEC1
:10360000E552E552E552E552120006C014F007C03B
:1036100015F008C016F009C017F0120006C00BF034
:0E36200007C00CF008C00DF009C00EF012003B
:02362E000F0E7D
:10363000946E82681200070E9410946EDF0E94143C
:10364000946E82681200D0D808D901E601D917E239
:10365000DDD8826EF8D8D1D801E6FAD80BE2B7D817
:1036600002E1FFD801D01DD9020EDB2A030EF3E3DD
:10367000DB2AF1D7DF2A010EE7E3DB2AE5D7040EC8
:10368000E15C02E2E16AE552E16ED9D0ADD8DBD867
:10369000010EDE6EDD6ABAD88214826ED4D8ADD83F
:1036A00004E6030E145C000E15580BE290D802E1FC
:1036B000D8D801D0F6D8020EDB2A030EF0E3DB2ABD
:1036C000EED7040EE15C02E2E16AE552E16EB7D0AA
:1036D000A7D8010EEE1804E1ED5002E1010E01D071
:1036E000000EADD09DD8320EEE1804E1ED5002E18F
:1036F000010E01D0000EA3D077D8D7D8FD0EDBCFB6
:1037000016F0FE0EDBCF17F015501718E8AE02D0FA
:10371000173404D01650145C1750155813E293D880
:103720006CD804E6EE0E145C000E155806E2020E8C
:10373000DB2A030EF5E3DB2AF3D7DF2A010EDDE3F4
:10374000DB2ADBD7040EE15C02E2E16AE552E16EBE
:1037500076D04AD882D801E67BD822E257D8826E4A
:1037600072D84BD801E674D80DE29BD830D804E16A
:103770001ED8010EEE6EED6A020EDB2A030EF1E397
:10378000DB2AEFD78250816EE80EE66E030EE66EFE
:10379000B3DFE552E552DF2A010EDCE3DB2ADAD79C
:1037A000040EE15C02E2E16AE552E16E48D07DD8A8
:1037B000D89014361536D89014361536020EDB50D4
:1037C0001424E96E030EDB5015205AEF1CF0020E94
:1037D000DBCFE9FF030EDBCFEAFF240EE926010E63
:1037E000EA22EF5082141200D9CFE6FFE1CFD9FFD1
:1037F000040EE126DE6ADD6A1200020EDBCF14F051
:10380000030EDBCF15F0D89015501200DECFE9FF84
:10381000DDCFEAFF200EE926010EEA22EF1C12009E
:10382000D9CFE6FFE1CFD9FFFE0EEA6ADB34FE0B0B
:10383000EA36E96E000EE926010EEA221200E55290
:10384000E7CFD9FF1200020EDB6A030EDB6A12001B
:10385000040E145C000E1558120027D8D89015508D
:103860001200DECF18F0DDCF19F0D89018361936D7
:10387000D89018361936020EDB501824E96E030E64
:10388000DB50192017D8EECF16F0EFCF17F0010E4E
:103890001626000E17228BDF16C0EEFF17C0EDFFB5
:1038A000120085DFEE6AED6A1200DECF14F0DDCF84
:1038B00015F01200EA6ED890E936EA36000EE926D5
:0638C000010EEA221200D5
:0A38C600F1D8D59EFD0EDBCF28F1EE
:1038D000FE0EDBCF29F1D59C05D9D59AD586F28A83
:1038E000F294F184D58EE6D0D59E1200FBD8D58E09
:1038F0001200DBD8CD90FD0EDBCF2AF1FE0EDBCF20
:103900002BF1F7D89D809E909F90CD8ECD8CCD9839
:10391000CD9ACD96CD92CD80CDD0EBD8CD80120072
:10392000CD901200C2D8CA94CC6AFE0EDB500101C1
:103930002C6F2D6BCB6E9D829E929F92CA90CA92E5
:10394000CA84B8D02CC1CBFFCA841200CA9412001A
:10395000ACD8B190FD0EDBCF2EF1FE0EDBCF2FF1F8
:10396000CFD80750B36ECCD8B5D8B26EA082A19292
:10397000A292B18EB198B19AB192B1809BD0C0D8C9
:103980000350B26EBDD89ED8B36EB1801200B19014
:1039900012000101382B000E39234051385D41518E
:1039A000395904E3386B396B010E306F1200010195
:1039B0003A2B000E3B2342513A5D43513B5904E3FD
:1039C0003A6B3B6B010E316F120001013C2B000E74
:1039D0003D2344513C5D45513D5904E33C6B3D6BF7
:1039E000010E326F120001013E2B000E3F234651A3
:1039F0003E5D47513F5904E33E6B3F6B010E336F11
:103A0000120053D8FD0EDBCF40F1FE0EDBCF41F1AB
:103A10000101386B396B306B4DD047D8FD0EDBCFD1
:103A200042F1FE0EDBCF43F1050E0D6E0E6A42C170
:103A300008F043C109F02BEC1FF008C042F109C0A7
:103A400043F101013A6B3B6B316B34D02ED8FD0E44
:103A5000DBCF46F1FE0EDBCF47F10A0E0D6E0E6A8C
:103A600046C108F047C109F02BEC1FF008C046F131
:103A700009C047F101013E6B3F6B336B1BD01C6AE1
:103A80001A50175C146E1B501858156E1C5019589C
:103A9000166E0C6A010E0D6E0E6A14C007F015C08A
:103AA00008F016C009F051EF1FF0D9CFE6FFE1CFC3
:103AB000D9FF1200E552E7CFD9FF12001768186846
:103AC000196A120007C014F008C015F009C016F0FA
:103AD0000750120003C014F004C015F005C016F022
:103AE0000350120014D80350D66E11D8EBDFD76EF6
:103AF000120014D80750CF6E11D8ECDFCE6E120032
:103B0000DDDF2EC11AF02FC11BF03FEF1DF0D6DF15
:103B100028C11AF029C11BF03FEF1DF0CFDF2AC1E9
:0A3B20001AF02BC11BF03FEF1DF05F
:063B2A00BED8020EE126E8
:103B3000FE0EDB500F0BDF6EFE0EDB380F0B0A0D97
:103B4000BCD802E2E16AE552E16E1450B2D0ACD8C2
:103B5000020EE126BBD80550DF6EB8D80950100D13
:103B6000ACD802E2E16AE552E16E1450A2D094862C
:103B70009488C79EC79CC690C692C694C686310ECE
:103B8000C86EC68A120090D89E96FE0EDB50D00FEB
:103B9000C96E9EA6FED78DD09E96C5809EA6FED7E6
:103BA00012009E96C5849EA6FED712007DD89E96D2
:103BB000FE0EDB50C96E9EA6FED77BD09E96C586B4
:103BC0009EA6FED7C95012009E96C59AC5889EA68D
:103BD000FED712009E96C58AC5889EA6FED7120003
:103BE00063D87CD8010E7E6FE85004E0C550400BCE
:103BF000FAE0F8D779D8010E7E6FE85004E0C5509E
:103C0000400BFAE0F8D7FD0EDBCFE6FFA0DFE55270
:103C1000E66ECCDFE5520F01010E7E6FE85004E046
:103C2000C550400BFAE0F8D7BCDF43D03DD8E65290
:103C300055D8010E7E6FE85004E0C550400BFAE005
:103C4000F8D752D8010E7E6FE85004E0C550400B03
:103C5000FAE0F8D7A1DF010EE66E95DFE5520F011D
:103C6000010E7E6FE85004E0C550400BFAE0F8D733
:103C7000A5DFDF6EDFCFE6FF58DFE552DF6EDF50F6
:103C8000E55217D011D8FD0EDBCFE6FFFE0EDBCFDD
:103C9000E6FFA6DFE552E5520CD006D8FE0EDBCFDC
:103CA000E6FFC4DFE55205D0D9CFE6FFE1CFD9FF6B
:103CB0001200E552E7CFD9FF1200010EF3CFDBFF70
:103CC000DB50DF24146E020EE15C12000A0E146E4B
:103CD0000E6EFE0EDBCF09F0A7EF20F05DDFE66A87
:103CE00052DFE5520F011200FE0EDBCFE6FF5EDF72
:063CF000E5520F01120075
:0A3CF600F28ED08EF28C1200F19CC9
:103D0000F292F2881200D8CFE4FFE0CFE4FFE46E35
:103D100065D800EE00F0140EE80403E3EECFE4FFF4
:103D2000FBD700EE14F00A0EE80403E3EECFE4FF45
:103D3000FBD7E652F2B47AD89EB07FD8A1B284D82D
:103D4000F2B2F2929EBA9E9AE55200EE1DF00A0E71
:103D5000E80403E3E5CFEDFFFBD700EE13F0140E0C
:103D6000E80403E3E5CFEDFFFBD74DD8E550E5CF01
:103D7000E0FFE5CFD8FF100031D800EE00F0140EC0
:103D8000E80403E3EECFE4FFFBD700EE14F00A0EE5
:103D9000E80403E3EECFE4FFFBD7E652F2B446D8E3
:103DA0009EB04BD8A1B250D8F2B2F2929EAA03D0E4
:103DB00095EC1AF09E9AE55200EE1DF00A0EE8040A
:103DC00003E3E5CFEDFFFBD700EE13F0140EE8049C
:103DD00003E3E5CFEDFFFBD716D81100DACFE4FF00
:103DE000E2CFDAFFE9CFE4FFEACFE4FFF6CFE4FF6A
:103DF000F7CFE4FFF5CFE4FFF3CFE4FFF4CFE4FF28
:103E0000FACFE4FF1200E5CFFAFFE5CFF4FFE5CFEC
:103E1000F3FFE5CFF5FFE5CFF7FFE5CFF6FFE5CF01
:103E2000EAFFE5CFE9FFE5CFDAFF120074EC1CF002
:103E3000F29476EC1CF0C9EF1CF090EC1CF09E9014
:103E40008DEC1CF0D7EF1CF0C7EC1CF0A192BFEC7E
:063E50001CF0F3EF1CF072
:0A3E5600006A0EAE34EF1FF00D6C91
:103E60000E1EE86A0E22001E09AE3CEF1FF0086C21
:103E7000091EE86A0922001E73EC20F009BE4CEF0F
:103E80001FF000AE000C086C091EE86A0922046CE1
:103E9000051EE86A0522000C00BE43EF1FF00188F2
:103EA000FF0C006A0EAE5CEF1FF00C6C0D1E0E1EB8
:103EB000E86A0D220E22001E09AE66EF1FF0076CA5
:103EC000081E091EE86A08220922001E56EC20F08E
:103ED00009BE79EF1FF000AE000C076C081E091E2A
:103EE000E86A08220922036C041E051E042205222A
:103EF000000C00BE6DEF1FF00188FF0C09C013F02D
:103F000008C012F008500D02F4CF07F0F3CF06F00E
:103F100009500E02F4CF09F0F3CF08F00D02F35070
:103F20000726F4500822E86A092212500E02F350C4
:103F30000726F4500822E86A09220EAEA4EF1FF00B
:103F40001250085E1350095A13AE000C0D50085E53
:063F50000E50095A000C9E
:0A3F56001E0EF66E000EF76E000E50
:103F6000F86E0F010900F550796F0900F5507A6F6E
:103F700003E1796701D03DD00900F550746F090065
:103F8000F550756F0900F550766F09000900F5507E
:103F9000E96E0900F550EA6E090009000900F550C4
:103FA000776F0900F550786F09000900F6CF7BFFA5
:103FB000F7CF7CFFF8CF7DFF74CFF6FF75CFF7FF0B
:103FC00076CFF8FF0F01775302E1785307E009003D
:103FD000F550EE6E7707F8E27807F9D77BCFF6FF5A
:103FE0007CCFF7FF7DCFF8FF0F017907000E7A5BDA
:043FF000BFD7120025
:0C3FF40006500B02F3CF02F0F4CF03F0F4
:104000000C02F3500326000EF420046E06500D023D
:10401000F3500426000EF420056E06500E02F350F5
:10402000052607500B02F3500326F4500422000E1D
:10403000052207500C02F3500426F45005220750C5
:104040000D02F350052608500B02F3500426F450DD
:10405000052208500C02F350052609500B02F350BC
:04406000052612001F
:0C406400056A046A036A026A200EE76E17
:10407000D890063607360836093602360336043637
:1040800005360B50025C0C5003580D5004580E506E
:10409000055809E30B50025E0C50035A0D50045AA8
:0C40A0000E50055A062AE72EE4D7120045
:0440AC00056A046A33
:1040B000036A180EE76ED8900736083609360336BD
:1040C000043605360C50035C0D5004580E5005584C
:1040D00007E30C50035E0D50045A0E50055A072A90
:0640E000E72EEAD71200F2
:0A40E600056A046A100EE76ED89018
:1040F00008360936043605360D50045C0E50055856
:1041000005E30D50045E0E50055A082AE72EF0D73D
:0241100012009B
:0E411200800EF36E00EE00F00F0E01D81200CA
:10412000EA6002D0EE6AFCD7F350E9601200EE6A52
:02413000FCD7BA
:0E4132001EEE00F02EEE00F0F86A019CABECE1
:0E4140001FF003EC00F044EC0CF0FBD7120073
:02414E00056A00
:10415000080EE76ED890093605360E50055C02E36E
:0A416000056E092AE72EF7D71200BA
:06416A000000000000004F
:10417000000000000000000000000000000000003F
:0A4180000000010001000100010031
:06418A000100000000002E
:104190000000003200320007000700FFFFFFFF00B1
:1041A000000000000000000000000000010000000E
:0D41B00001000100000000000000000100FF
:0341BD00000000FF
:1041C00000000000000000000000000000000100EE
:1041D000000000000000000010101010101010105F
:1041E00018181818181818181C1C1C1C1C1C1C1C2F
:1041F0001E1E1E1E1E1E1E1E1F1F1F1F1F1F1F1FD7
:1042000000000000000000000000000000000000AE
:10421000000000000000000000000000000000009E
:10422000000000000000000000000000000000008E
:01423000008D
:0F423100000000D0002222220725091000010002
:0C42400000000000000000000000000072
:04424C00000000006E
:10425000000000000000000000000000000000005E
:10426000000000000000000000000000102040805E
:04427000010204083B
:020000040030CA
:0100010002FC
:0100020003FA
:010003001EDE
:010005008179
:010006008178
:010008000FE8
:01000900C036
:01000A000FE6
:01000B00E014
:01000C000FE4
:01000D0040B2
:00000001FF
